:020000020000FC
:040000000C941A0042
:04001C000C94A000A0
:100024000C9497000C94A0000C9497000C948B00F3
:10003400D8EDD0933400D0E0D0936100B5E1D9E09D
:10004400B0930228D0930328D0E8D0930028DFEFA0
:10005400D0930428DFE8DBEFD0930128DFEFDCB98D
:10006400D0910428ADD01D2F00910028000F001F4F
:10007400001F0370D02FBBD00D2F20910128287FA3
:1000840022952064D0E7D093010AD1E7D0930A0ADD
:10009400D5E1D093280AD5E0D093290ADBE2D093A6
:1000A4002A0ADAE0D0932B0AD0E4D0932C0ADFE0BA
:1000B400D0932D0AD7E5D093260AD4E1D093270A0A
:1000C400DBE0D093000AD0E0D093810AD1E0D09352
:1000D400850AD0910228D0938C0AD0910328D0931A
:1000E4008D0AD3E0D093800A789400FF0EC01030BC
:1000F40061F0C0918C0AD0918D0AD93508F407C0FB
:1001040009F003C0C53608F402C06898EECF689AB7
:10011400ECCFBFB7BF93F894000F08F40395B1E098
:100124001093860ABF91BFBF1895BFB7BF93F894C9
:10013400B0E5B0930B0ABF91BFBF1895BFB7BF938B
:10014400F89423FD06D0B1E2B0930B0ABF91BFBF70
:100154001895B22FB77011F405D001C02A9526FD69
:1001640027D00895D0910128D77009F40895A0915B
:100174008C0AB0918D0AB695A795DA95E1F727FF19
:1001840002C0A095B095D0918C0AAD0FD0918D0A84
:10019400BD1FA0938C0AB0938D0AD22FC0E8DC2730
:1001A400DF6720910128287F2295206C2D23089554
:1001B400B0910128B295B86F27602B232F7B089547
:1001C400F1E0E2EDB0E0ED0FFB1FD4910895057F5F
:1001D4000A011402280350041E0507060D07060829
:1001E4000C09180A300B600C240D080E100FF2E0F5
:1001F400E0E0B0E0ED0FFB1FD491089501030FFC84
:00000001FF
