:020000020000FC
:040000000C945511F6
:04001C000C9400162A
:100024000C9407150C9412150C9407150C942915AF
:040034000C9476159D
:040064000C94C31520
:100090000C94CE15C758CC53184FA74A77468242C6
:1000A000C73E413BED37CA34D331072F642CE629D4
:1000B0008C2754253B234121631FA01DF71B651A84
:1000C000EA1884173216F314C613AA129E11A1104F
:1000D000B20FD00EFB0D320D750CC20B190B790A45
:1000E000E3095509CF085008D9076807FE069906A5
:1000F0003A06E1058C053D05F104AA0467042804CD
:10010000EC03B4037F034D031D03F002C6029E02FD
:100110007902550234021402F601DA01BF01A60188
:100120008F01780163014F013C012B011A010A0183
:10013000FB00ED00E000D300C700BC00B200A80047
:100140009E00210037006400BD0070012302D6022A
:100150008903730496055608210BAC1037166F2CD3
:10016000D458000000000000000000000000000063
:10017000000000000000010101010202020202026F
:10018000020200000001010202030303040404044C
:100190000404000001020203030404050506060628
:1001A0000606000001020304050506060707080805
:1001B00008080001020304060708090A0A0B0C0CD0
:1001C0000C0C0001030507080A0C0D0E0F1011128C
:1001D000121200020406080A0C0E10111314151650
:1001E0001616000205070A0C0F111314161718191A
:1001F0001A1A000306090C0F121417191B1D1E1FD3
:1002000020200004080C1014171B1E212325272969
:100210002A2A00050B11161B2025292D31343638CA
:10022000393A00081019212930373D43484C5053C2
:100230005556000C1824303B465059626970757948
:100240007C7E00122537495A6A7987939EA8B0B6FA
:10025000BBBE0018314A61788DA1B4C5D4E0EBF47F
:10026000FAFD000306090B0E111316181B1D1F22A1
:100270002426282A2C2E3032343638393B3D3E4055
:1002800042000002030507080A0C0D0F1012141596
:1002900017181A1B1D1E202123242527282A2B2C42
:1002A0002E2F313233343637383A3B3C3D3F4041D4
:1002B000424445464748494B4C4D4E4F505153548C
:1002C00055565758595A5B5C5D5E5F606162636466
:1002D00065666768696A6B6C6D6E6F707172737357
:1002E0007475767778797A7A7B7C7D7E7F7F808162
:1002F000828384848586878888898A8B8B8C8D8E7F
:100300008E8F9091919293949495969697989899B0
:100310009A9B9B9C9D9D9E9F9FA0A0A1A2A2A3A4EF
:10032000A4A5A6A6A7A7A8A9A9AAAAABACACADAD3F
:10033000AEAFAFB0B0B1B1B2B3B3B4B4B5B5B6B699
:10034000B7B8B8B9B9BABABBBBBCBCBDBD00060131
:100350002A02E504E507A00C3F10570213053008F8
:10036000DE0C3F1077025C055608110D3F1092021B
:100370007205A3085C0D3F10A502830556085C0DAD
:100380003F10AF02B105F108A50D3F1077025C05E3
:100390005608110D3F1016037205A3085C0D3F109F
:1003A0002C03C80556085C0D3F104203EA053809C6
:1003B000A50D3F1079031C068909080E3F1096030E
:1003C0003506D9094A0E3F10AD034E062F0A4A0ED4
:1003D0003F10B3036C06850AD30E3F10E9038E0667
:1003E0007C09F50D3F10FC03A006C60A8D0E3F10D8
:1003F0002F04DA06160B220F3F10FC030807C60A6B
:10040000220F3F1047043B07670B670F3F10FC03A9
:10041000A006C60A8D0E3F102F04DA06160B220F17
:100420003F1081047107B60B220F3F109904A907F2
:10043000060CA30F3F10BF04C607380C220F3F1055
:10044000D304D207850CF30F3F10E104E007980CAA
:10045000EC0F3F10F0042761E30D6DF103576726A1
:10046000616DF103576725616BF10257672461687D
:10047000576A23616A1B6857682761685768266155
:1004800069F10357672661675767266167576725D4
:100490006167F1025767246168576823616857688C
:1004A000226167F10357672161685768FF00276180
:1004B000E30D6DF103576726616DF1035767256101
:1004C0006BF1025767246168576A2261E30FEBFE04
:1004D000FA026AEB006CEBFE701666E300EB00FAC2
:1004E000006DF1035F6716666DF1035F67FF57E309
:1004F000006E225EE30AFA02EB00E5006A58682209
:100500005E685868225E68586A225E6E586E225E87
:10051000FA026A5868225E685868225E68586A2241
:100520005E6EFF00E3006E225EE30AFA026A58681C
:10053000225E685868225E68586A1E66E30FFA01F8
:10054000EBFE6E20667E23666EFF2266E30F76EB7F
:1005500000762566EBFE76EB006EEB046EFFE300A3
:10056000EBF06E225EE30AFA02EB006A5868225E44
:10057000685868225E68586A225E6E1E66EB00FA52
:1005800001E5CC67EBE2FA00672066EB00FA006752
:10059000EBE2FA0167FA0167FA00671A66EB00FA04
:1005A0000067EBE2FA01671E66EB00FA0167EBE217
:1005B000FA0067FA0067FA01671766EB00FA01674D
:1005C000EBE2FA00671A66EB00FA0067EBE2FA0169
:1005D00067FA0167FA00670B66EB00FA0067EBE267
:1005E000FA01670F66EB00FA0167EBE2FA006716A3
:1005F00066EB00FA0067EBE2FA01671966EB00FAB6
:100600000167EBE2FA00671666EB00FA0067EBE2BF
:10061000FA01670F66EB00FA0167EBE2FA00670A7E
:1006200066EB00FA0067EBE2FA0167FFE3006E2277
:100630005EE30AFA026A5868225E685868225E68B9
:10064000586A1266E30FFA00EBFE6E14666E1766C8
:100650006E1E666E1C666EFF1B66E30FEBF869EBA1
:10066000006BEB0076EBFE6E2066E300EBF8E5CC6A
:1006700069EB006BEBFC6AE30AEB0270EB046CEBDA
:10068000066AFF00E300EBF06E225EE30AFA02EB7B
:1006900000E5006A5868225E685868225E68586AF9
:1006A000225E6E2E64E300FA01682F67F1025D6737
:1006B000316467F1025D672964682A67F1025D674A
:1006C0002C6467F1025D672664682767F1025D6745
:1006D000296467F1025D672264682367F1025D6740
:1006E000256467F1025D672264681D681A681668F0
:1006F000FF001462E300FA016AE3076A1BE3006A81
:10070000E3076A19E3006AE3076A17E3006AE3078D
:100710006A19E3006AE3076A5F6A1962E300685FC7
:10072000681B626A166A146A126AFF0014E3006AA0
:10073000126A146A126A146A086A12681268146AE1
:10074000166E1B6E18E30EFA02681E682068226897
:1007500027682A682C682E68FF001861E30FFA00EA
:10076000EB00861786FF0F66E310FA00EBFC6AEBDE
:100770000268EB04681166EBFC6AEB0268EB046844
:100780001266EBFC6AEB0268EB04681466EBFC6A29
:10079000EB0268EB04681764E300EB00F602FA0171
:1007A00067F1025B67196468195B681B64681B5B0F
:1007B000681D64681D5B681E64681E5B6820646851
:1007C000205B68226468225B68236468235B685747
:1007D00068FFE3006E245FFA00F8A2F6026D59E3A9
:1007E0000667265FE3006D59E30667295FE3006D46
:1007F00059E306EE0087FF000F66E30EFA01F600EC
:10080000EB006816681B680F682766E30FFA00673D
:100810005F672766685F682766685F680F66E30E34
:10082000FA0168126816681B68166812680F680A71
:1008300068126816680A682566E30FFA00675F6742
:100840002566685F682566685F680A66E30EFA01D8
:10085000680F681268166812680F680A68FF27E355
:100860000FEBF66B275FE300F601FA00EB006A2757
:100870006A276A2768276A276A2768276A276A27F4
:100880006A266A2668276A296CE3076DFF00E30081
:100890006A2B5FF711F602FA0067F6006BE3076C4C
:1008A0002AE300F60267F6006BE307702E64E300AC
:1008B000FA00F60267F1015D672F6467F1025D6778
:1008C000316467F1015D67296467F1025D672A643D
:1008D00067F1015D672C6467F1025D67226467F16F
:1008E000015D67236467F1025D672564685D6828C0
:1008F00064F6006AEBFC68E30B68EBFA68EBF868F7
:10090000FF001B66E310EBFAF6006AEB006AEB02ED
:100910006AEB066A1966EBFA6AEB006AEB026AEBAD
:10092000066A1766EBFA6AEB007AEB026AEB066A74
:10093000FF00E300EBF06E1D64EB0067F1015D6703
:100940001F64685D682064685D682464685D68276A
:1009500064685D682964685D682C6467F1025D679E
:100960002E646A5D6A2261F6026CE3076A5A68299E
:1009700061E3006DF1025A672C61685A68FF1B66DB
:10098000E310F600EBFA6AEB006EEB026EEB006C24
:10099000EB046C1966EBFA6AEB006EEB026EEB008F
:1009A0006CEB046CFF002766E30FF600EBFA6AEBD2
:1009B000006EEB026EEB006CEB046CEB0072EBFE76
:1009C0007AFF57E30075ED0097FF2766E30FFA0102
:1009D000EBFA682A66682E66682E5C682D666A27C0
:1009E00066682C66682C5C682C66682C5C682766D8
:1009F000682A666A2C66682C5C682766682A6668BE
:100A00002E66682766682D666A2766682C66682CDD
:100A10005C682C66682C5C682766682A666A2C66A7
:100A2000682C5C68FF002766E30FFA01EBFA682A7E
:100A300066682E66682766682D666A2766682C6673
:100A4000682C5C682C66682C5C682766682A666A75
:100A50003164EB006AF7A267F8A267F7A267F8A211
:100A600067F7A267F8A267F7A267F8A267F7A2671D
:100A7000F8A267F7A267F8A267F7A267F8A267F77C
:100A8000A267F8A267EBFEF7A267F8A267F7A26772
:100A9000F8A267F7A267F8A267F7A267F8A267F75C
:100AA000A267F8A267F7A267F8A267F7A267F8A2A1
:100AB00067F7A267F8A267FF1566E300EB00FA008C
:100AC0006EE30769F1035F671666E3006EE3077282
:100AD000EBFE761266E300EB006DF1025F671466D1
:100AE0006D5F67FF1566E3006EE30769F1035F67FB
:100AF0001666E3006EE30772EBFE821666E300EB18
:100B000000685F68FF001B66E30069F1035F67161A
:100B10006669F1035F67146669F1035F67126667D0
:100B2000F1025F671466685F680F66685F680F664A
:100B300067F1035F67126669F1035F670F6667F12C
:100B4000025F6712666EE30772EBEC681266E30001
:100B5000EB00685F68146669F1035F671266685F9F
:100B600068FF1566E30071F1035F671566F7216E94
:100B7000E30772616E5D6A5A6A576A1666E3006936
:100B8000F1035F6716666CE30767F1025F67FF00BA
:100B90001B66E3006D5F671B6667F1015F671D669B
:100BA000685F681E666B5F671D66695F671B6668C6
:100BB0005F681D6667F1025F671B666CE307725F23
:100BC0006A1266E300685F681266695F67126669A9
:100BD0005F67FF001966E30069F1035F67176667E7
:100BE000F1025F6716666CE3077A2E61E300FA0094
:100BF000F602682F67F1025B67316167F1025B679C
:100C00002961682A67F1025B672C6167F1025B6703
:100C10002661682767F1025B67296167F1025B67FC
:100C20002261681E66FA02F600685F681E66695FE8
:100C3000671E66695F67FF002766E300FA026D5F63
:100C4000672766695F67256667F1025F6727666CDD
:100C5000E306725F725B6A2766E3006B5F67296673
:100C60006B5F672A66695F67FF002866E300F7012C
:100C70006EE306715F672566E300695F6725666955
:100C80005F67276667F1025F6722666CE306725F43
:100C90006E5B6A1E66E300685F68FF002066E30023
:100CA0006B5F672266685F6A22666CE3066B5F674C
:100CB0001B66E300695F671E666CE3066C5F6A1E75
:100CC00066E300685F6822666B5F6723666B5F6739
:100CD00025666861675F67FF2266E3006CE3067460
:100CE000EBFE722364E300EB0067F1025B672564AF
:100CF00068255B68276468275B68296468295B68E6
:100D00002A64682A5B682C64682C5B682E64682EF1
:100D10005B682F64682F5B685768FF00E3006E24F0
:100D200064FA00F8A26D5DE306672664E3006D5D7A
:100D3000E306672964E3006D5DE306EE0087FF00CC
:100D40002A64E300FA00EB0068EBFA682964EB0020
:100D500069F1035D67296467F1025D672764685D77
:100D60006827646861685D682264685D68276469F3
:100D7000F1035D672A64695D672C64F73268EBFAFA
:100D800067EBF0672C64EB0069F1035D672A646729
:100D9000F1025D672C64685D682A64EBFE6CE30712
:100DA0006E2264E300EB0067F1026167226467F181
:100DB000036167FF2764E300685D68276469F103E6
:100DC0005D67276469F1035D67276467F1025D670A
:100DD00027646861682764685D68276467F1035D5C
:100DE00067276469F1035D67276469F1035D67271D
:100DF00064685F68266469F1035D67266467F102D1
:100E00005D672764685D6829646CE3076C616CFF4B
:100E10002A64E300FA0068EBFA682964EB0069F1E0
:100E2000035D67296467F1025D672764685D682771
:100E3000646861685D682264685D68276469F103BD
:100E40005D672A64695D672E646AE3076C5D6827E5
:100E500064E30069F1035D672F6469F1035D672E48
:100E6000646A2C61E30A69F1035D672E64E300EBB9
:100E700000695D67FF002B64E300F7116CE3076A0C
:100E80005D682A64E3006CE307705D6A2E66E30028
:100E9000FA00F6FF67F1015D672F6667F1025D6793
:100EA000316667F1015D67296667F1025D672A6651
:100EB00067F1015D672C6667F1025D67226667F185
:100EC000015D67236667F1025D672566685D682FCF
:100ED00066F6006AEBFC68E30B68EBFA68EBF8680F
:100EE000FF002964E300FA00F7116861675D672974
:100EF00064EB0069F1035D67296467F1025D6727B0
:100F000064685D6827646861685D682264685D681C
:100F1000276469F1035D672A64695D672E6468EB85
:100F2000FA67EBF0672C64EB0069F1035D672A64F4
:100F300067F1025D672C64685D682A64EBFE6AEB0A
:100F4000FA682264EB00695D672264695D672E645C
:100F50006AFF2DE300E8016E2E6CE306EBFE762CB3
:100F600061E300F602E80067F1025A672E616A5AEF
:100F70006A2264F600EB006CE3076A5D682964E3AB
:100F8000006DF1025D672C64685D68FF2A64E30010
:100F900067F1025D672964685D6827646CE3077A1E
:100FA000EBFE86FF0F64E30FF600EBFA6AEB006ED0
:100FB000EB026EEB006CEB046CEB0072EBFE7AFF65
:100FC0000F66E30FEBF66C57A0FF3366E300E770A4
:100FD000671BE7006CF10357673366E770671AE732
:100FE000006CF10357673366E7706719E7006AF131
:100FF0000257673366E7706718E70067576A33661A
:10100000E7706717E7006933E7706857683366E78A
:1010100070671BE7006757683366E770671AE70079
:1010200068F10357671A666757671A666757671943
:101030006667F10257673366E7706718E70067571E
:10104000683366E7706717E700675768166667F1E9
:101050000357673366E7706715E700675768FF0057
:101060003366E300E770671BE7006CF103576733F3
:1010700066E770671AE7006CF10357673366E7703D
:101080006719E7006AF10257673366E7706718E788
:101090000067576A3366E7706716E70079576E3363
:1010A00066E71068336830682C68FF0033E300E7B8
:1010B00070671BE70068F10257670F666757670F95
:1010C000666757673366E770671BE700690F675706
:1010D0006716666833E7706819E70067F1025767BB
:1010E00016666857683366E770671BE70068F102A9
:1010F0005767166669F10257673866E770671EE73B
:101100000068F1025767126667576712666757678C
:101110003866E770671EE7006912675767196668E7
:1011200038E770681CE70067F1025767196668576F
:10113000683866E770671EE70068F102576719664E
:1011400069F1025767FF3566E300E770671DE70046
:1011500068F1025767116667576711666757673509
:1011600066E770671DE7006911675767186668359D
:10117000E770681BE70067F10257671866685768F1
:101180003566E770671DE70068F102576718666902
:10119000F10257673666E770671CE70068F102578F
:1011A00067106667576710666757673666E7706748
:1011B0001CE700691067576717666836E770681A9A
:1011C000E70067F102576717666857683666E77089
:1011D000671CE70068F1025767176669F1025767F5
:1011E000FF003566E300E770671DE70068F102570E
:1011F00067116667576711666757673566E77067F7
:101200001DE700691167576718666835E770681B46
:10121000E70067F102576718666857683566E77038
:10122000671DE70068F1025767186669F1025767A2
:101230003666E770671CE70068F10257671066675B
:10124000576723666836E770681CE70069576717B9
:10125000666836E770681AE70067F1025767176635
:101260006857683366E3096833682C682C68FF00A8
:1012700033E300E7706717E70068F1025767176606
:1012800067576717666757673366E7706717E70042
:101290006A57671B666833E770681BE70069F102ED
:1012A00057671D666833E770671DE70068F10257EE
:1012B000671E6669F10257673866E7706716E700D0
:1012C00068F102576716666757671666675767388B
:1012D00066E7706716E7006A57671A666838E7704E
:1012E000681AE70069F10257671B666833E71568FB
:1012F00033682E682E68FF00E3007833E71569F144
:101300000257672E666833E71568336833E7708ADB
:10131000FF0038E300E7706720E700691467F10118
:101320005767146667F10257673866E7706720E70A
:101330000068F10357671B666A38E7706720E700AB
:1013400067F1025767206667146757671B6668383E
:10135000E7706720E70068F10357671B666A38E7A4
:1013600070671CE700691067F1015767106667F145
:101370000257673866E770671CE7006910675767B0
:101380001C6667F10357673866E770671CE70067FC
:10139000F10257671C6667106757671C666838E775
:1013A000706717E70068F10357671C6669F1035718
:1013B00067FF3866E300E770671BE700690F67F1B6
:1013C0000157670F6667F10257673866E770671B5A
:1013D000E700690F6757671B6667F1035767386651
:1013E000E770671BE70067F10257671B66670F67C7
:1013F00057671B666838E7706716E70068F10357A0
:10140000671B6669F10357673866E7706719E7007D
:10141000690D67F10157670D6667F1025767386616
:10142000E7706719E700690D675767196667F10389
:1014300057673866E7706719E70067F10257671961
:1014400066670D67576719666838E7706716E700C3
:1014500068F1035767196669F1035767FF0038663B
:10146000E300E7706718E700690C67F10157670C44
:101470006667F10257673866E7706718E700690C1E
:10148000675767186667F10357673866E77067182C
:10149000E70067F10257671866670C6757671866B9
:1014A0006838E7706715E70068F1035767186669E1
:1014B000F10357673866E7706717E700690B67F154
:1014C0000157670B6667F10257673866E770671761
:1014D000E700690B675767176667F1035767386658
:1014E000E7706717E70067F10257671766670B67D2
:1014F000576717666838E7706712E70068F10357A7
:1015000067176669F1035767FF003866E300E77005
:101510006716E700690A67F1015767166667F10207
:1015200057672E66E7156A16E700675767166667FE
:10153000F10357673866E77067F10257671666E789
:101540000067F103576716666857670A66672EE7F4
:101550001569F10357672966E70069F103576723A7
:1015600066E70067F1025767226668576820666879
:1015700057681E666857681D666857681B66685717
:10158000681966685768176668576AFF3366E3002C
:10159000E770671BE70068F10257670F66675767D8
:1015A0000F666757673366E770671BE700690F6769
:1015B00057670F666833E770680FE70067F10257F7
:1015C00067126669F10257673366E7706716E700CE
:1015D00068F10257671B6669F10257673866E77062
:1015E000671EE70068F10257671266675767126661
:1015F0006757673866E770671EE7006912675767C5
:1016000012666833E7706812E70067F102576716E1
:101610006669F10257673366E7706719E70068F19A
:101620000257671E6669F1025767FF003366E300E1
:10163000E7706717E70068F1025767176667576733
:1016400017666757673366E7706717E700690F67C4
:1016500057671B666833E770681BE70067F102573E
:10166000671D6669F10257673366E770671EE7001A
:1016700068F1025767176669F10257673866E770C5
:101680006716E70068F1025767166669F102576747
:101690003866E770671AE700671AE30469F10257D2
:1016A000671B66E3006833E770681BE70067F102B9
:1016B00057671C6669F10257673366E770671DE775
:1016C0000068F1025767166669F1025767FF3366D3
:1016D000E300E7706717E70068F10257671766676E
:1016E000576717666757673366E7706717E70069DC
:1016F0000F6757671B666833E770681BE70067F181
:101700000257671D6669F10257673366E770671E07
:10171000E70068F1025767176669F1025767386694
:10172000E7706721E7006722E30468236838E30075
:10173000E77067246725E304E70068266833E30061
:10174000E73568336833E770681BE70067F10257D5
:10175000673366E770671CE70069E30768E71068AE
:1017600033E300E7706833E77068FF0033E300E7B6
:10177000706714E70068F1025767146667576714CB
:10178000666757673366E7706714E7006914675741
:101790006720666833E770671EE70068F1025767E5
:1017A0001E6669F10257673366E7706719E70068DC
:1017B000F10257671E6669F10257673866E770677E
:1017C0001CE70068F1025767106667576710666785
:1017D000F10257673866E770671CE7006AF1025745
:1017E0006717666833E770671CE70068F10357679F
:1017F0001C6669F10357673366E7706717E700688F
:10180000F10257671C6669F1025767FF3366E30010
:10181000E770671DE70068F1025767116667576751
:1018200011666757673366E770671DE7006AF10264
:10183000576718666833E7706818E70067F1025762
:10184000671B6669F10257673366E770671DE7003B
:1018500068F1025767206669F10257673866E770DA
:101860006DF10257673866E7706716E7007DFF0085
:1018700033E300E7706717E70068F1025767176600
:101880006A33E770671BE7006717E30469F10257E3
:10189000671B66E3006833E770681BE70067F102C7
:1018A00057671D6669F10257673366E770671EE781
:1018B0000068F1025767176669F10257673366E7F8
:1018C000706719E70068F102576719666A33E770B5
:1018D000671DE7006719E30469F10257671D66E3B6
:1018E000006833E770681DE70067F10257671E66FE
:1018F00069F10257673366E7706720E70068F10215
:101900005767196669F1025767FF3366E300E770AE
:10191000671BE7009527E7506957672766E78069E7
:1019200057673F66E7F06830E7156833E7706AFF8E
:101930002EE300E72568E73068E7F06857A0FF006E
:101940000566E30AEBFAE9A16BEBFCF801690464B4
:10195000E300EBF6E9006BEB00F801690464EBF6D9
:101960006A5767EB00670464EBF66A5767EB00673A
:101970000564E30AEBF6E9A26A0C61E303EB00E914
:10198000006A0464E300EBF66857680464EBF66AE7
:101990000460EB006757670460675767046467F18A
:1019A0000257670464EBF66857680864E301EB00CC
:1019B0006A08E30C6806E300EBF66AFF0566E300DD
:1019C000EBF8E9A26A045FE301EB00E90068045F59
:1019D000E302680864E30C6A045FE30268045FE3FF
:1019E0000168045FE302680864E30168045FE302DE
:1019F000680864E3016A045FE302680466E300E9DF
:101A000083EBFC7A0461E3026A01E3016A0964E999
:101A100000EB00680968045DE302680964E301689B
:101A2000FF000766E300E9A1EBF86A035FE302E960
:101A300000EB0068F1020C5F67F1010C5F6708645E
:101A4000E3016A035FE302680561E303FA01680CDE
:101A500064FA0068035AE30268035F680CE30368F2
:101A60000864E3016A0361E30268085DE301680C4E
:101A700064E30368035AE30268035F68F1020C5FE2
:101A800067F1010C5F670864E3016A035FE30268C2
:101A90000561E303FA01680C64FA0068035AE30283
:101AA00068035F680CE303680864E3016A0361E3A9
:101AB00002680361E30168FF0C64E30368035AE30F
:101AC0000268035F68F1020C5F67F1010C5F670851
:101AD00064E3016A035FE302680561E303FA0168F6
:101AE0000C64FA0068035AE30268035F680CE303BE
:101AF000680864E3016A0361E30268085DE3016862
:101B00000C64E30368035AE30268035F68F1020CA4
:101B10005F67F1010C5F670864E3016A035FE3023A
:101B2000680561E303FA01680C64FA0068035AE38C
:101B30000268035F680CE303680864E3016A0361F9
:101B4000E302680361E30168FF000C64E3036803D8
:101B50005AE30268035F68F1020C5F67F1010C5FF2
:101B6000670864E3016A035FE302680561E303FA5F
:101B700001680C64FA0068035AE30268035F680CAA
:101B8000E303680864E3016A0361E30268085DE354
:101B900001680C64E30C6A035FE30268F1020C5F06
:101BA00067F1010B5FE30C670A646A035FE3026895
:101BB0000561E303FA01680C64FA0068035AE30262
:101BC00068035F680CE303680864E30167EBEC6794
:101BD0000864EB0067EBEC670864EB0067EBEC670D
:101BE0000864EB0067EBEC67FF00E30076045FE35B
:101BF00002680864E301680561E303FA01680A64A6
:101C0000E301FA0068086808680866E30C8AFF00C8
:101C10000564E300E9A1EBF86E0C61E303E900EB76
:101C2000006A03E301E9A16A0C61E303E9006804C7
:101C30005DE302E9A1680361E3016A0CE303E900E3
:101C400068045DE302E9A1680361E3016A0C61E3F2
:101C500003E9006A03E301E9A16A0C61E303E90017
:101C60006A03E301E9A16A0CE303E90068045DE3A8
:101C700002E9A1680361E301680B61E302E900681E
:101C80000C61E303E90068045DE302E9A168036114
:101C9000E3016AFF0C61E303E9006A03E301E9A1E0
:101CA0006A0C61E303E9006A03E301E9A16A0C61DC
:101CB000E303E90068045DE302E9A1680361E3016D
:101CC0006A0CE303E90068045DE302E9A1680361CB
:101CD000E3016A0C61E303E9006A03E301E9A16A35
:101CE0000C61E303E9006A03E301E9A16A0CE30381
:101CF000E90068045DE302E9A1680361E301680BA0
:101D000061E302E900680C61E303E90068045DE354
:101D100002E9A1680361E3016AFF0664E300EBFAEC
:101D2000E9636CF1020C5FE302E90067F1010C5F0B
:101D3000670964E30CEB006A035FE302680561E393
:101D400003FA0168035FFA00680461680C616803C4
:101D5000680964E30C6A0361E30268095DE30C68E7
:101D60000C64E30368035A68035F68F1020C5FE3E5
:101D70000267F1010C5F670964E30C6A035FE30229
:101D8000680561E303FA0168035FFA0068046168AB
:101D90000C616803680964E30C6A0361E302680983
:101DA0005DE30C68FF000C64E303680561FA0168F9
:101DB000035FE301FA00680C61E302E900EB0067EE
:101DC0000C5D670864E3016A055DE303FA016804DA
:101DD00061E301FA00680C64E303680561FA0168D5
:101DE000035FE301FA00680C61E302E900EB0067BE
:101DF0000C5D670864E3016A055DE303FA01680CA2
:101E000064FA00680C64E30C680967F70167045D15
:101E100068096467F701690967F70167045D680984
:101E20006467F70167045D68096467F70167045D2B
:101E300068096467F70167045D68096467F701670B
:101E4000045D6AFF0C64E30368035A68035F68F18A
:101E5000020C5FE30267F1010C5F670964E30C6A3F
:101E6000035FE302680561E303FA0168035FFA00B8
:101E7000680461680C616803680964E30C6A0361C3
:101E8000E30268095DE30C680C64E30368035A68C5
:101E9000035F68F1020C5FE30267F1010C5F670901
:101EA00064E30C6A035FE302680561E303FA016817
:101EB000035FFA00680461680C616803680964E301
:101EC0000C6A0361E30268095DE30C68FF000C64BF
:101ED000E30368035A68035F68F1020C5FE302677B
:101EE000F1010C5F670964E30C6A035FE3026805B4
:101EF00061E303FA0168035FFA00680461680C613A
:101F00006803680964E30C6A0361E30268095DE33E
:101F10000C680C66E301680461680564680A666819
:101F20000561680664680B666808616807646A068C
:101F300066E30AEBFCE9836E0966E301EBF2E90074
:101F400068096668FF000C64E30368035A68035F6E
:101F500068F1020C5FE30267F1010C5F670964E35B
:101F60000C6A035FE302680561E303FA0168035F3B
:101F7000FA00680461680C616803680964E30C6A2C
:101F80000361E30268095DE30C680666E30AEBF8A7
:101F9000670767086709670A670B670C670D670BB8
:101FA00066670A6709670867076706670567046762
:101FB000035FE303FA00EB00680461680C616803E7
:101FC00067F1030C61E301670964E30C6A0361E3F1
:101FD0000268095DE30C68FF0964E30AEBF66E57DB
:101FE0006DED0097FF000C64E3036A0464E301E90C
:101FF0004167FA01690861E305E900FA006804E352
:1020000003E941680464E30167FA01690861E305D3
:10201000E900FA006804E303E941680464E3016746
:10202000FA01690861E305E900FA006A0464E30162
:10203000E94167FA01670B64E308E900FA00680800
:1020400064E3056A0464E301E94167FA0169086130
:10205000E305E900FA006804E303E941680464E386
:102060000167FA01690966E30CE9A1FA006A0766EB
:102070006A0BE303E9006808E30C680E6AFFE300FB
:10208000F00369F00467F00369F00467F00369F096
:102090000467F00369F00467F00369F00467F00374
:1020A00069F00467F00369F00467F00369F00467FE
:1020B000F00369F00467F00369F00467F00369F066
:1020C0000467F00369F00467F00369F00467F00344
:1020D00069F00467F00369F00467F00369F00467CE
:1020E000FF0082108410861088108A108C108F10C8
:1020F0009210951098109B109D10A010A210A61081
:10210000A810AB100100AE100100B1100100BA1010
:102110000100BF100100C5100300C8100511050023
:10212000CD1041110500CD103A110300CF100A1156
:102130000500D41048110100E0100300DD100E115D
:102140000100E2101300F010281150110100FB10E3
:102150000300AE102D11030001113411FF030F0C09
:10216000FF00FF100F0C0808060605040403030215
:10217000010100FFFF070F0A05020100FF00FF0930
:102180000F0D0A0704020100FF00FF03000FFF000C
:10219000FF080D0D0707030300FFFF020CFFFF07F9
:1021A0000F0F0F090400FF00FF0F0F0F0F0F0F0F8E
:1021B0000F0F0F0F0F0F0F00FF00FF020F0BFF009D
:1021C000FF020FFFFF1A0F0D0C0A0908070706058B
:1021D000050404030302020202010101010100FFE0
:1021E000FF130D0D0D0F0F00060606080800020272
:1021F00002030303FF00FF0A0F0A04060A0806028F
:1022000000FFFF020F0C0909FF00FFFF00000102A1
:1022100003040580FFFF0000FC0A0680FFFF00FFAB
:10222000FFFEFEFDFDFCFCFBFBFAFAF9F9F8F8F7FE
:10223000F7F6F6F5F5F4F4F3F3F2F2F1F1F0F0EF6E
:10224000EFEEEEEDEDECECEBEBEAEAE9E9E8E88045
:10225000FF030000001818181880FF0300000C0C82
:102260008000FFFF00F48000FF0300000C0C1880CA
:10227000FF023280FF02FCFE0103030402FFFDFDAA
:102280008000FF020202FFFEFEFFFE01010280004D
:10229000FF021480FF020F80FF020A80FFFF02FF8F
:1022A000FF02000002020202FF00C8EDC0933400EA
:1022B000C0E0C09361002224C0E3C0930028C0E8BE
:1022C000C0930128CFEFC0930228C0930328C09386
:1022D0000428C0E3C0930828C0E8C0930928CFEFC2
:1022E000C0930A28C0930B28C0930C28CFEFC0934B
:1022F0001028C0931128C0E3C0931328CFE0C093E7
:102300001428C2E0C0931A2820921B28CFEFC09354
:102310001F282092202820922128EEE4F3E0E09369
:102320001828F0931928C591D591C0931C28D093F3
:102330001D2820921E28C591D591CC0FDD1FC0937A
:102340002228D093232820922428209225282092E6
:10235000262820922728C591D591CC0FDD1FC09348
:102360007128D0937228209273282092742820928A
:10237000752820927628C591D591CC0FDD1FC0938A
:10238000C028D093C1282092C2282092C32820922E
:10239000C4282092C528C591D591CC0FDD1FC093CC
:1023A0000A29D0930B2920920C2920920D292092E2
:1023B0000E2920920F29CFEF20922A28C0932B2894
:1023C000C0932C2820922F28C0933028C093312806
:1023D000C093322820923728C0933828C0933928D8
:1023E00020923D28C0933E28C0933F282092422847
:1023F000C0934328C093442820922828209229285B
:1024000020922D2820922E282092332820923428A2
:10241000209235282092362820923A2820923B2874
:1024200020923C2820924028209241280FE01091D1
:1024300000281F70909100289073906420920628C5
:10244000C0930528BC2EC1E0AC2EC0900128C294D8
:102450009068CFEF20924528209246282092472866
:10246000209248282092492820924A2820924B28DE
:1024700020924C2820924D2820924E2820924F28BE
:10248000209250282092512820925228209253289E
:10249000209254282092552820925628209257287E
:1024A000209258282092592820925A2820925B285E
:1024B00020925C2820925D2820925E28C0935F289D
:1024C000C09360282092612820926228209263287D
:1024D00020926428209265282092662820926728FE
:1024E000209268282092692820926A2820926B28DE
:1024F00020926C2820926D2820926E28C0936F281D
:10250000C0937028CFEF20927928C0937A28C09387
:102510007B2820927E28C0937F28C0938028C09378
:10252000812820928628C0938728C09388282092EB
:102530008C28C0938D28C0938E2820929128C09318
:102540009228C0939328209277282092782820926E
:102550007C2820927D282092822820928328209215
:102560008428209285282092892820928A282092E7
:102570008B2820928F28209290282FE030910828D5
:102580003F70D0910828D073D062D2959D2B2092B5
:102590000E28C0930D28EC2EC1E0DC2EF090092807
:1025A000F2949860CFEF2092942820929528209260
:1025B0009628209297282092982820929928209255
:1025C0009A2820929B2820929C2820929D28209235
:1025D0009E2820929F282092A0282092A128209215
:1025E000A2282092A3282092A4282092A5282092F5
:1025F000A6282092A7282092A8282092A9282092D5
:10260000AA282092AB282092AC282092AD28C09313
:10261000AE28C093AF282092B0282092B1282092F3
:10262000B2282092B3282092B4282092B528209274
:10263000B6282092B7282092B8282092B928209254
:10264000BA282092BB282092BC282092BD28C09393
:10265000BE28C093BF28CFEF2092C828C093C928B6
:10266000C093CA282092CD28C093CE28C093CF28EB
:10267000C093D0282092D528C093D628C093D728BD
:102680002092DB28C093DC28C093DD282092E0282C
:10269000C093E128C093E2282092C6282092C72840
:1026A0002092CB282092CC282092D1282092D22888
:1026B0002092D3282092D4282092D8282092D9285A
:1026C0002092DA282092DE282092DF28C0E04C2FCA
:1026D000CFEF2092E3282092E4282092E528209250
:1026E000E6282092E7282092E8282092E9282092E4
:1026F000EA282092EB282092EC282092ED282092C4
:10270000EE282092EF282092F0282092F1282092A3
:10271000F2282092F3282092F4282092F528209283
:10272000F6282092F728C093F828C093F928209221
:10273000FA282092FB282092FC282092FD28209243
:10274000FE282092FF282092002920920129209221
:1027500002292092032920920429209205292092FF
:10276000062920920729C0930829C0930929CFEF91
:1027700020921229C0931329C0931429209217295B
:10278000C0931829C0931929C0931A2920921F2990
:10279000C0932029C093212920922529C09326295E
:1027A000C093272920922A29C0932B29C0932C2932
:1027B0002092102920921129209215292092162961
:1027C00020921B2920921C2920921D2920921E292B
:1027D00020922229209223292092242920922829FC
:1027E0002092292920921628C0931528C1E05C2F39
:1027F000622DCFEF20922D2920922E2920922F2971
:102800002092302920923129209232292092332996
:102810002092342920923529209236292092372976
:10282000209238292092392920923A2920923B2956
:1028300020923C2920923D2920923E2920923F2936
:102840002092402920924129209242292092432916
:10285000209244292092452920924629C093472955
:10286000C09348292092492920924A2920924B2935
:1028700020924C2920924D2920924E2920924F29B6
:102880002092502920925129209252292092532996
:10289000209254292092552920925629C0935729D5
:1028A000C0935829CFEFC0B9C0E7C093010AC1E770
:1028B000C0930A0AC5E1C093280AC5E0C093290A5B
:1028C000CBE2C0932A0ACAE0C0932B0AC1E4C093AA
:1028D0002C0ACFE0C0932D0AC7E5C093260AC4E1B5
:1028E000C093270ACBE0C093000AC0E0C093810ADE
:1028F000C1E0C093850AC0910228C0938C0AC091A0
:102900000328C0938D0AC3E0C093800AB0E0B0935F
:10291000910AB1E0B093950AB0910A28B0939C0A4D
:10292000B0910B28B0939D0AB3E0B093900AB0E049
:10293000B093A10AB1E0B0911028B093AC0AB09165
:102940001128B093AD0AB1E0B093A00A7894B0E03A
:10295000B093B10AB1E0B093B50AB0910A28B09330
:10296000BC0AB0910B28B093BD0AB3E0B093B00A93
:10297000C0910628D0910E28A0FE15C0B21499F07F
:10298000E0918C0AF9E5EF17E0918D0AF0E0EF078E
:1029900050F0E0918C0AF6E6EF17E0918D0AF9E528
:1029A000EF0708F401C0CC27D0FE15C0E21499F05F
:1029B000E0919C0AF9E5EF17E0919D0AF0E0EF073E
:1029C00050F0E0919C0AF6E6EF17E0919D0AF9E5D8
:1029D000EF0708F401C0DD27CD0FE2E6F2E0EC0FCF
:1029E000F21DC491D42FD4FDD095DF70ED2FDE0FF2
:1029F000DE0F50FF04C0E0911628EE0FDE0FE2E874
:102A0000F2E0ED0FF21DD491CD0FC1B9B1CFBFB738
:102A1000BF93F89453D09FD0B0E5B0930B0ABF9109
:102A2000BFBF1895BFB7BF93F89448D094D0C3FCEC
:102A30001BD0F3FC66D095FD02C0B210BA9491FD94
:102A400002C0E210EA94B1E2B0930B0ABF91BFBF9B
:102A50001895BFB7BF93F894AA0CA21CB1E0B0932D
:102A6000860ABF91BFBF1895BC2DB770F9F4DF93EC
:102A7000DC2DD295D77011F4DF9119C0A0918C0A8A
:102A8000B0918D0AB695A795DA95E1F7C7FE02C019
:102A9000A095B095D0918C0AAD0FD0918D0ABD1F35
:102AA000A0938C0AB0938D0ADF9101C0CA9497FF5E
:102AB0000895C0900128C2949F77089596FD10C094
:102AC000003011F00A950895009100280F7095FFCD
:102AD00002C01FE00895103009F408951A95089572
:102AE0009F7B009100280F701FE00895BFB7BF9330
:102AF000F894DD0CD21CB1E0B093960ABF91BFBF31
:102B00001895BF2DB770F9F4DF93DF2DD295D770EC
:102B100011F4DF9119C0A0919C0AB0919D0AB6955D
:102B2000A795DA95E1F7F7FE02C0A095B095D09190
:102B30009C0AAD0FD0919D0ABD1FA0939C0AB09333
:102B40009D0ADF9101C0FA9493FF0895F09009283F
:102B5000F294977F089592FD10C0203011F02A95CD
:102B60000895209108282F7091FF02C03FE008953A
:102B7000303009F408953A9508959B7F20910828F4
:102B80002F703FE00895BFB7BF93F8944F5F4F7128
:102B9000B1E0B093A60ABF91BFBF1895BFB7BF936E
:102BA000F894A52F67FD0BC0A695A527A0FD03C02F
:102BB0006695579513C06695579560640FC0AA0F28
:102BC000AA1FAA1FA527A0FD05C06F776695579578
:102BD000606804C066955795606800C0B1E0B09326
:102BE000B60ABF91BFBF1895E0ECF0E6ED0FF21DFD
:102BF000D4910895E0EEF0E6ED0FF21DD491089522
:102C0000BFB7BF93F894CF93DF93EF93FF93A09157
:102C10001F28AF3FA9F4A0912028A2118BC0A0913A
:102C20002128A21196C0A0911A28B0911B28C0910A
:102C30001C28D0911D28AC17BD0708F401C1A0E0E5
:102C4000E0911828F0911928CC27DD27A395AA95A3
:102C500011F02A96FCCF2296C0931A28D0931B28F5
:102C6000EC0FFD1FA591B591AA0FBB1FA0932228C1
:102C7000B0932328A591B591AA0FBB1FA0937128EB
:102C8000B0937228A591B591AA0FBB1FA093C0283D
:102C9000B093C128A591B591AA0FBB1FA0930A2993
:102CA000B0930B29209226282092272820922428AE
:102CB0002092252820927528209276282092732829
:102CC000209274282092C4282092C5282092C228DD
:102CD0002092C32820920E2920920F2920920C299D
:102CE00020920D29AFEFA0935F28A0936028A093B6
:102CF0006F28A0937028A093AE28A093AF28A0932C
:102D0000BE28A093BF28A093F828A093F928A093E9
:102D10000829A0930929A0934729A0934829A093A3
:102D20005729A0935829A0931F2820922028209249
:102D3000212886C0FF91EF91DF91CF91BF91BFBF56
:102D4000F894AFEFA0931F282092202820922128EA
:102D50001895E0911828F0911928A0911A28B0919F
:102D60001B281A96A0931A28B0931B28EA0FFB1F62
:102D7000A591B591AA0FBB1FA0932228B093232839
:102D8000A591B591AA0FBB1FA0937128B09372288B
:102D9000A591B591AA0FBB1FA093C028B093C128DD
:102DA000A591B591AA0FBB1FA0930A29B0930B2937
:102DB0002092262820922728209224282092252815
:102DC00020927528209276282092732820927428C9
:102DD0002092C4282092C5282092C2282092C3287D
:102DE00020920E2920920F2920920C2920920D2941
:102DF000AFEFA0935F28A0936028A0936F28A093C3
:102E00007028A093AE28A093AF28A093BE28A093CB
:102E1000BF28A093F828A093F928A0930829A0938D
:102E20000929A0934729A0934829A0935729A09343
:102E30005829A0931F28209220282092212800C0E2
:102E4000A0912428B0912528109609F0E4C2E091C1
:102E50002228F0912328A0912628B0912728EA0F54
:102E6000FB1FB491B73508F480C1B73608F4BAC176
:102E7000B33E08F4C1C109F4C4C1B43E09F46DC243
:102E8000BF3F09F48FC23196A491BBD2B55EE4EE88
:102E9000F0E6BB0FEB0FF21DC591D491EC2FFD2F87
:102EA0000994A093452820924628D1CF20924B2800
:102EB00020924C2820924528209246286F937F9399
:102EC0006A2F72EB679F7F916F9116940794169407
:102ED000079416940794169407940092472810922A
:102EE0004828B5CF2092472820924828209245288C
:102EF000209246286F937F936A2F72EB679F7F9192
:102F00006F91169407941694079416940794169448
:102F1000079400924B2810924C2899CF6F937F937F
:102F20006A2F72EB679F7F916F91169407941694A6
:102F300007941694079416940794009253281092BD
:102F40005428A21101C083CFA0918C0AB0918D0AA0
:102F5000A0934F28B09350282092552820925628AD
:102F600076CFBA2FA07FA295BF70A0935728B093B9
:102F70005828209259286BCFBA2FA07FA295BF70F6
:102F8000A0935A28B0935B2820925C2820925D2859
:102F90005ECFA0935E285BCFA0931F2858CFB0933D
:102FA000202855CFB093212852CFB0910028B07F70
:102FB000BA2BB093002896604ACFA0931E2847CF23
:102FC000A21551F0B0911E28AB1730F4A0935F28E2
:102FD000B1E0B093242822C23ACF39CF38CF37CFCF
:102FE00036CF6F937F936A2F72EB67037F916F9158
:102FF00016940794169407941694079416940794BD
:1030000013FE02C0B0EF1B2A0092612810926228C2
:103010001ECFE0912D28F0912E28309609F017CF81
:10302000E0913528F0913628309609F010CFE091E4
:103030003B28F0913C28309609F009CFBA2FBF7099
:10304000C0910728BC0FB73508F0B6E5E4E9F0E019
:10305000BB0FEB0FF21DC591D491C0936328D093A1
:103060006428A295AF70AA0FA3956F937F936A2FE0
:1030700072EB679F7F916F91169407941694079453
:103080001694079416940794009265281092662867
:103090002092672820926828DACEE0912D28F091BE
:1030A0002E28309609F0D3CEE0913528F0913628BD
:1030B000309609F0CCCEE0913B28F0913C28309638
:1030C00009F0C5CEBA2FBF70C0910728CB1B08F4FA
:1030D000C0E0E4E9F0E0CC0FEC0FF21DC591D49113
:1030E000C0936928D0936A28A295AF70AA0FA395C0
:1030F0006F937F936A2F72EB679F7F916F91169406
:1031000007941694079416940794169407940092C3
:103110006B2810926C2820926D2820926E2897CEF2
:10312000A21551F0B0911E28AB1730F4A0936F2870
:10313000B1E0B093242872C18ACEE0EEF0E6EA0F47
:10314000F21DA695A795A795B0910028CB2FB07C2E
:10315000AB1301C07CCEA490CF73CB2BC0930028BF
:1031600076CE75CE74CE73CE72CEB0930728A3E020
:10317000B2E0B0932A28A0932F28B0933728B093B9
:103180003D28B09342282092332820923428209260
:103190003A282092492820924A2820924D282092AD
:1031A0004E282092552820925628A0918C0AB09142
:1031B0008D0AA0934F28B093502820920128976041
:1031C0002092632820926428209267282092682801
:1031D0002092692820926A2820926D2820926E28D9
:1031E00006D135CEB755A0910028A07FAB2BA09378
:1031F00000289660FCD02BCEB656B0932428F7D08A
:103200000DC1209228282092292820922D28209232
:103210002E28209235282092362820923B28209272
:103220003C28209240282092412820923328209246
:10323000342820923A283196B491E1E7F0E1EB0F7F
:10324000F21DEE0FFF1FA591B491AA0FBB1FEA2F2D
:10325000FB2FB4913296A6E0AA9519F0B69578F0B6
:10326000FBCFA3E0B2E0B0932A28A0932F28B0931D
:103270003728B0933D28B0934228C3D0E8CDC591FC
:10328000D591A53039F0A43079F0A330D9F0A2302F
:1032900059F13CC0C0932828D093292841D0C0932D
:1032A0002C28D0932B28D8CFC0932D28D0932E280C
:1032B00020926328209264282092692820926A280C
:1032C0003AD0CACFC0933528D093362820926328AD
:1032D000209264282092692820926A2821D0C093E5
:1032E0003928D0933828B8CFC0933B28D0933C28B6
:1032F00020926328209264282092692820926A28CC
:103300000FD0C0933F28D0933E28A6CFC09340282B
:10331000D093412805D0C0934428D09343289CCF14
:10332000EF93FF93EC2FFD2FEE0FFF1FC591D4916C
:10333000FF91EF910895EF93FF93EC2FFD2FEE0F88
:10334000FF1FC591D591C0933128D0933028C491E7
:10335000C0933228FF91EF910895B0912C28BF3F80
:1033600019F0B395B0932A28B0913128BF3F19F0D6
:10337000B395B0932F28B0913928BF3F19F0B3957A
:10338000B0933728B0913F28BF3F19F0B395B09361
:103390003D28B0914428BF3F19F0B395B09342281F
:1033A00026D055CDE0911828F0911928A0911A281F
:1033B000B0911B281A96A0931A28B0931B28C0918D
:1033C0001C28D0911D28AC17BD0710F00C945A3062
:1033D000EA0FFB1FA591B491AA0FBB1FA09322284F
:1033E000B0932328209226282092272830CDE091E0
:1033F0002628F09127283196E0932628F093272855
:103400000895E0912628F09127283296E093262807
:10341000F09327280895BA95B0932528A091732892
:10342000B0917428109609F0D7C2E0917128F091FC
:103430007228A0917528B0917628EA0FFB1FB491ED
:10344000B73508F480C1B73608F4BAC1B33E08F402
:10345000C1C109F4C4C1B43E09F46DC2BF3F09F44F
:103460008FC23196A491AED2B55EE8E1F1E6BB0F12
:10347000EB0FF21DC591D491EC2FFD2F0994A09371
:10348000942820929528D1CF20929A2820929B2888
:1034900020929428209295286F937F936A2F72EB45
:1034A000679F7F916F9116940794169407941694D2
:1034B0000794169407940092962810929728B5CFF7
:1034C000209296282092972820929428209295283E
:1034D0006F937F936A2F72EB679F7F916F91169422
:1034E00007941694079416940794169407940092E0
:1034F0009A2810929B2899CF6F937F936A2F72EB33
:10350000679F7F916F911694079416940794169471
:103510000794169407940092A2281092A328A2114F
:1035200001C083CFA0919C0AB0919D0AA0939E28D0
:10353000B0939F282092A4282092A52876CFBA2F56
:10354000A07FA295BF70A093A628B093A728209231
:10355000A8286BCFBA2FA07FA295BF70A093A928EF
:10356000B093AA282092AB282092AC285ECFA093DB
:10357000AD285BCFA0931F2858CFB093202855CFFC
:10358000B093212852CFB0910828B07FBA2BB093C6
:10359000082892604ACFA0931E2847CFA21551F069
:1035A000B0911E28AB1730F4A093AE28B1E0B093D1
:1035B000732815C23ACF39CF38CF37CF36CF6F9374
:1035C0007F936A2F72EB67037F916F911694079434
:1035D00016940794169407941694079413FE02C049
:1035E000B0EF1B2A0092B0281092B1281ECFE091B4
:1035F0007C28F0917D28309609F017CFE09184283F
:10360000F0918528309609F010CFE0918A28F0914A
:103610008B28309609F009CFBA2FBF70C0910F28C0
:10362000BC0FB73508F0B6E5E4E9F0E0BB0FEB0FEF
:10363000F21DC591D491C093B228D093B328A2951E
:10364000AF70AA0FA3956F937F936A2F72EB679F5A
:103650007F916F911694079416940794169407948B
:10366000169407940092B4281092B5282092B62898
:103670002092B728DACEE0917C28F0917D28309610
:1036800009F0D3CEE0918428F0918528309609F096
:10369000CCCEE0918A28F0918B28309609F0C5CEE7
:1036A000BA2FBF70C0910F28CB1B08F4C0E0E4E92B
:1036B000F0E0CC0FEC0FF21DC591D491C093B82867
:1036C000D093B928A295AF70AA0FA3956F937F935B
:1036D0006A2F72EB679F7F916F91169407941694EF
:1036E000079416940794169407940092BA2810929F
:1036F000BB282092BC282092BD2897CEA21551F05D
:10370000B0911E28AB1730F4A093BE28B1E0B0935F
:10371000732865C18ACEE0EEF0E6EA0FF21DA695A9
:10372000A795A795B0910828CB2FB07CAB1301C00B
:103730007CCED490CF73CB2BC093082876CE75CE99
:1037400074CE73CE72CEB0930F28A3E0B2E0B093E4
:103750007928A0937E28B0938628B0938C28B093C4
:1037600091282092822820928328209289282092D2
:1037700098282092992820929C2820929D28209277
:10378000A4282092A528A0919C0AB0919D0AA093FC
:103790009E28B0939F282092092893602092B228F7
:1037A0002092B3282092B6282092B7282092B828D9
:1037B0002092B9282092BC282092BD28F9D035CE7D
:1037C000B755A0910828A07FAB2BA0930828926042
:1037D000EFD02BCEB656B0937328EAD000C120921A
:1037E00077282092782820927C2820927D28209289
:1037F00084282092852820928A2820928B28209243
:103800008F2820929028209282282092832820922C
:1038100089283196B491E1E7F0E1EB0FF21DEE0F4C
:10382000FF1FA591B491AA0FBB1FEA2FFB2FB491E4
:103830003296A6E0AA9519F0B69578F0FBCFA3E0F2
:10384000B2E0B0937928A0937E28B0938628B093F5
:103850008C28B0939128B6D0E8CDC591D591A530EC
:1038600039F0A43079F0A330D9F0A23059F13CC03E
:10387000C0937728D093782841D0C0937B28D093E9
:103880007A28D8CFC0937C28D0937D282092B22864
:103890002092B3282092B8282092B9283AD0CACFD3
:1038A000C0938428D09385282092B2282092B328F0
:1038B0002092B8282092B92821D0C0938828D0938C
:1038C0008728B8CFC0938A28D0938B282092B2281B
:1038D0002092B3282092B8282092B9280FD0C09304
:1038E0008E28D0938D28A6CFC0938F28D093902870
:1038F00005D0C0939328D09392289CCFEF93FF9349
:10390000EC2FFD2FEE0FFF1FC591D491FF91EF918A
:103910000895EF93FF93EC2FFD2FEE0FFF1FC5913E
:10392000D591C0938028D0937F28C491C0938128DB
:10393000FF91EF910895B0917B28BF3F19F0B395A7
:10394000B0937928B0918028BF3F19F0B395B09318
:103950007E28B0918828BF3F19F0B395B093862890
:10396000B0918E28BF3F19F0B395B0938C28B091D9
:103970009328BF3F19F0B395B093912819D055CD36
:10398000E0911828F0911928A0911A28B0911B28CD
:103990001296EA0FFB1FA591B491AA0FBB1FA0932B
:1039A0007128B093722820927528209276283DCDF8
:1039B000E0917528F09176283196E0937528F09380
:1039C00076280895E0917528F09176283296E09354
:1039D0007528F09376280895BA95B0937428A0912D
:1039E000C228B091C328109609F0BFC2E091C02848
:1039F000F091C128A091C428B091C528EA0FFB1FFF
:103A0000B491B73508F464C1B73608F49EC1B33E2B
:103A100008F4A9C109F4ACC1B43E09F455C2BF3FD2
:103A200009F477C23196A49196D2B55EECE4F1E642
:103A3000BB0FEB0FF21DC591D491EC2FFD2F099414
:103A4000A093E3282092E428D1CF2092E928209265
:103A5000EA282092E3282092E4286F937F936A2F2C
:103A600072EB679F7F916F91169407941694079459
:103A700016940794169407940092E5281092E6286D
:103A8000B5CF2092E5282092E6282092E3282092C4
:103A9000E4286F937F936A2F72EB679F7F916F91FA
:103AA0001694079416940794169407941694079402
:103AB0000092E9281092EA2899CF6F937F936A2F9A
:103AC00072EB679F7F916F911694079416940794F9
:103AD00016940794169407940092F1281092F228F5
:103AE000A21101C083CFA091AC0AB091AD0AA093FE
:103AF000ED28B093EE282092F3282092F42876CF78
:103B0000BA2FA07FA295BF70A093F528B093F62896
:103B10002092F7286BCF6ACF69CFA0931F2866CF7A
:103B2000B093202863CFB093212860CFA21521F055
:103B3000B1E0B093A50A5ACF2092A50A2092AC0A10
:103B40002092AD0A53CFA0931E2850CFA21551F05A
:103B5000B0911E28AB1730F4A093F828B1E0B093D1
:103B6000C22806C243CF42CF41CF40CF3FCF6F9351
:103B70007F936A2F72EB67037F916F91169407947E
:103B800016940794169407941694079413FE02C093
:103B9000B0EF1B2A0092FA281092FB2827CFE09161
:103BA000CB28F091CC28309609F020CFE091D32893
:103BB000F091D428309609F019CFE091D928F091EE
:103BC000DA28309609F012CFBA2FBF70C0911228B0
:103BD000BC0FB73508F0B6E5E4E9F0E0BB0FEB0F3A
:103BE000F21DC591D491C093FC28D093FD28A295D5
:103BF000AF70AA0FA3956F937F936A2F72EB679FA5
:103C00007F916F91169407941694079416940794D5
:103C1000169407940092FE281092FF282092002903
:103C200020920129E3CEE091CB28F091CC28309668
:103C300009F0DCCEE091D328F091D428309609F039
:103C4000D5CEE091D928F091DA28309609F0CECE81
:103C5000BA2FBF70C0911228CB1B08F4C0E0E4E972
:103C6000F0E0CC0FEC0FF21DC591D491C093022966
:103C7000D0930329A295AF70AA0FA3956F937F935A
:103C80006A2F72EB679F7F916F9116940794169439
:103C9000079416940794169407940092042910929E
:103CA00005292092062920920729A0CEA21551F0BD
:103CB000B0911E28AB1730F4A0930829B1E0B0935F
:103CC000C22856C193CE92CE91CE90CE8FCE8ECEBC
:103CD000B0931228A3E0B2E0B093C828A093CD28F7
:103CE000B093D528B093DB28B093E0282092D12858
:103CF0002092D2282092D8282092E7282092E828E3
:103D00002092EB282092EC282092F3282092F4288D
:103D1000A091AC0AB091AD0AA093ED28B093EE2823
:103D20002092FC282092FD2820920029209201292F
:103D30002092022920920329209206292092072905
:103D4000B1E0B093A50AFDD051CEFBD0B75521F01C
:103D5000B1E0B093A50A4ACE2092A50A2092AC0AFF
:103D60002092AD0A43CEB656B093C228EAD000C125
:103D70002092C6282092C7282092CB282092CC28B7
:103D80002092D3282092D4282092D9282092DA2871
:103D90002092DE282092DF282092D1282092D2285B
:103DA0002092D8283196B491E1E7F0E1EB0FF21DB3
:103DB000EE0FFF1FA591B491AA0FBB1FEA2FFB2F97
:103DC000B4913296A6E0AA9519F0B69578F0FBCF9B
:103DD000A3E0B2E0B093C828A093CD28B093D52833
:103DE000B093DB28B093E028B6D000CEC591D59132
:103DF000A53039F0A43079F0A330D9F0A23059F1D0
:103E00003CC0C093C628D093C72841D0C093CA28CD
:103E1000D093C928D8CFC093CB28D093CC28209258
:103E2000FC282092FD2820920229209203293AD0D2
:103E3000CACFC093D328D093D4282092FC282092B4
:103E4000FD28209202292092032921D0C093D7284F
:103E5000D093D628B8CFC093D928D093DA2820920F
:103E6000FC282092FD2820920229209203290FD0BD
:103E7000C093DD28D093DC28A6CFC093DE28D09352
:103E8000DF2805D0C093E228D093E1289CCFEF93A0
:103E9000FF93EC2FFD2FEE0FFF1FC591D491FF91E3
:103EA000EF910895EF93FF93EC2FFD2FEE0FFF1F7F
:103EB000C591D591C093CF28D093CE28C491C093FB
:103EC000D028FF91EF910895B091CA28BF3F19F013
:103ED000B395B093C828B091CF28BF3F19F0B395E0
:103EE000B093CD28B091D728BF3F19F0B395B093C8
:103EF000D528B091DD28BF3F19F0B395B093DB28EA
:103F0000B091E228BF3F19F0B395B093E02819D0E3
:103F10006DCDE0911828F0911928A0911A28B09140
:103F20001B281496EA0FFB1FA591B491AA0FBB1F83
:103F3000A093C028B093C1282092C4282092C528FD
:103F400055CDE091C428F091C5283196E093C4285E
:103F5000F093C5280895E091C428F091C5283296C1
:103F6000E093C428F093C5280895BA95B093C32868
:103F7000A0910C29B0910D29109609F0CDC2E091C5
:103F80000A29F0910B29A0910E29B0910F29EA0F6F
:103F9000FB1FB491B73508F476C1B73608F4ADC14C
:103FA000B33E08F4B3C109F4B6C1B43E09F45FC22C
:103FB000BF3F09F481C23196A491A4D2B55EE0E876
:103FC000F1E6BB0FEB0FF21DC591D491EC2FFD2F45
:103FD0000994A0932D2920922E29D1CF2092332904
:103FE0002092342920922D2920922E296F937F939D
:103FF0006A2F72EB679F7F916F91169407941694C6
:104000000794169407941694079400922F291092FF
:104010003029B5CF20922F292092302920922D29A6
:1040200020922E296F937F936A2F72EB679F7F9167
:104030006F91169407941694079416940794169407
:104040000794009233291092342999CF6F937F936C
:104050006A2F72EB679F7F916F9116940794169465
:104060000794169407941694079400923B29109293
:104070003C29A21101C083CFA091BC0AB091BD0A16
:10408000A0933729B093382920923D2920923E29C8
:1040900076CFBA2FA07FA295BF70A0933F29B0938F
:1040A0004029209241296BCFBA2FA07FA295BF70E3
:1040B000A0934229B0934329209244292092452974
:1040C0005ECFA09346295BCFA0931F2858CFB09313
:1040D000202855CFB093212852CFB0911328B07F1C
:1040E000BA2BB09313284BCFA0931E2848CFA2150C
:1040F00051F0B0911E28AB1730F4A0934729B1E0DE
:10410000B0930C290CC23BCF3ACF39CF38CF37CF41
:104110006F937F936A2F72EB67037F916F91169471
:10412000079416940794169407941694079413FE14
:1041300002C0B0EF1B2A0092492910924A291FCFD2
:10414000E0911529F0911629309609F018CFE091E9
:104150001D29F0911E29309609F011CFE0912329F5
:10416000F0912429309609F00ACFBA2FBF70C09180
:104170001728BC0FB73508F0B6E5E4E9F0E0BB0F4F
:10418000EB0FF21DC591D491C0934B29D0934C29CC
:10419000A295AF70AA0FA3956F937F936A2F72EBCE
:1041A000679F7F916F9116940794169407941694C5
:1041B00007941694079400924D2910924E2920924C
:1041C0004F2920925029DBCEE0911529F091162934
:1041D000309609F0D4CEE0911D29F0911E29309639
:1041E00009F0CDCEE0912329F0912429309609F0F1
:1041F000C6CEBA2FBF70C0911728CB1B08F4C0E001
:10420000E4E9F0E0CC0FEC0FF21DC591D491C0931E
:104210005129D0935229A295AF70AA0FA3956F93FD
:104220007F936A2F72EB679F7F916F91169407942B
:1042300016940794169407941694079400925329A1
:1042400010925429209255292092562998CEA215D1
:1042500051F0B0911E28AB1730F4A0935729B1E06C
:10426000B0930C295CC18BCEA695A795B09114286C
:10427000BF77BA2BB09313286F776A2B80CE7FCE8F
:104280007ECE7DCE7CCEB0931728A3E0B2E0B09373
:104290001229A0931729B0931F29B0932529B09311
:1042A0002A2920921B2920921C292092222920921F
:1042B00031292092322920923529209236292092C4
:1042C0003D2920923E29A091BC0AB091BD0AA0933D
:1042D0003729B093382920924B2920924C292092DB
:1042E0004F29209250292092512920925229209220
:1042F000552920925629FCD042CEB755A0911328BB
:10430000A07FAB2BA0931328F3D039CEB656B09331
:104310000C29EED004C1209210292092112920925C
:1043200015292092162920921D2920921E292092BB
:104330002329209224292092282920922929209279
:104340001B2920921C29209222293196B491E1E761
:10435000F0E1EB0FF21DEE0FFF1FA591B491AA0F34
:10436000BB1FEA2FFB2FB4913296A6E0AA9519F055
:10437000B69578F0FBCFA3E0B2E0B0931229A093FA
:104380001729B0931F29B0932529B0932A29BAD0B1
:10439000F6CDC591D591A53039F0A43079F0A33090
:1043A000D9F0A23059F13CC0C0931029D093112903
:1043B00041D0C0931429D0931329D8CFC093152985
:1043C000D093162920924B2920924C2920925129D2
:1043D000209252293AD0CACFC0931D29D0931E29CA
:1043E00020924B2920924C29209251292092522927
:1043F00021D0C0932129D0932029B8CFC09323295D
:10440000D093242920924B2920924C292092512983
:10441000209252290FD0C0932729D0932629A6CFC6
:10442000C0932829D093292905D0C0932C29D09353
:104430002B299CCFEF93FF93EC2FFD2FEE0FFF1F47
:10444000C591D491FF91EF910895EF93FF93EC2FD5
:10445000FD2FEE0FFF1FC591D591C0931929D09361
:104460001829C491C0931A29FF91EF910895B09132
:104470001429BF3F19F0B395B0931229B0911929AF
:10448000BF3F19F0B395B0931729B0912129BF3FD1
:1044900019F0B395B0931F29B0912729BF3F19F0A8
:1044A000B395B0932529B0912C29BF3F19F0B3954E
:1044B000B0932A291DD063CDE0911828F0911928D6
:1044C000A0911A28B0911B28A0931A28B0931B28FA
:1044D0001696EA0FFB1FA591B491AA0FBB1FA093DC
:1044E0000A29B0930B2920920E2920920F2947CD3B
:1044F000E0910E29F0910F293196E0930E29F09367
:104500000F290895E0910E29F0910F293296E0933A
:104510000E29F0930F290895BA95B0930D29F091C3
:104520001E28EF2FE150A0912528A21142C000C003
:10453000AF2FB0912428B21509F43BC0BA95B093BF
:104540002428B21134C0AA95BFEFC0916F28D09132
:104550007028CB1709F00DC0DB1709F015C0C0910A
:104560005F28D0916028CB1709F012C0DB17F9F053
:104570001AC0B0936F28EC1BE0937028CA95C093C3
:104580002528EF2FE15015C0B0937028AD2F0FC034
:10459000B0935F28EC1BE0936028CA95C093252850
:1045A000EF2FE15006C0B0936028AD2F00C0A0935C
:1045B0002528A0917428A21142C000C0AF2FB0914D
:1045C0007328B21509F43BC0BA95B0937328B211A1
:1045D00034C0AA95BFEFC091BE28D091BF28CB1799
:1045E00009F00DC0DB1709F015C0C091AE28D091BD
:1045F000AF28CB1709F012C0DB17F9F01AC0B0933F
:10460000BE28EC1BE093BF28CA95C0937428EF2FF7
:10461000E150CFCFB093BF28AD2F0FC0B093AE28DD
:10462000EC1BE093AF28CA95C0937428EF2FE1509C
:10463000C0CFB093AF28AD2F00C0A0937428A09135
:10464000C328A21142C000C0AF2FB091C228B2153A
:1046500009F43BC0BA95B093C228B21134C0AA95F0
:10466000BFEFC0910829D0910929CB1709F00DC0DF
:10467000DB1709F015C0C091F828D091F928CB17A5
:1046800009F012C0DB17F9F01AC0B0930829EC1B2F
:10469000E0930929CA95C093C328EF2FE15015C0B4
:1046A000B0930929AD2F0FC0B093F828EC1BE0930D
:1046B000F928CA95C093C328EF2FE15006C0B093E4
:1046C000F928AD2F00C0A093C328A0910D29A211F5
:1046D00042C000C0AF2FB0910C29B21509F43BC005
:1046E000BA95B0930C29B21134C0AA95BFEFC0910E
:1046F0005729D0915829CB1709F00DC0DB1709F0C5
:1047000015C0C0914729D0914829CB1709F012C094
:10471000DB17F9F01AC0B0935729EC1BE093582926
:10472000CA95C0930D29EF2FE15015C0B0935829B9
:10473000AD2F0FC0B0934729EC1BE0934829CA95D1
:10474000C0930D29EF2FE15006C0B0934829AD2F3B
:1047500000C0A0930D29E0912828F09129283096D7
:10476000A1F1EE0FFF1FA0912A28EA0FF21DB091D0
:104770002C28BA1729F4A0912B28AB1710F003C0EE
:10478000A395A0932A28B491BF3F69F4B0912C2837
:10479000BF3F29F4B0912B28B0932A28DCCFA25038
:1047A000A0932A28D8CFE4EBF1E6B295EB0FF21DE7
:1047B000B0910028BF70A0915D28A03081F4EB0F6C
:1047C000F21DB491B093062824C0B0910028BF70A8
:1047D000A0915D28A030A1F4B09306281AC0BA1B9E
:1047E00040F039F0B1E0EB0FF21DB491B093062820
:1047F00010C0B1E0EB0FF21DB491B093062809C0D0
:10480000BA1B20F019F0B093062803C0B1E0B093B2
:104810000628E0912D28F0912E283096D9F1EE0F40
:10482000FF1FA0912F28EA0FF21DB0913128BA176F
:1048300029F4A0913028AB1710F003C0A395A093E2
:104840002F28B491B03809F041C0A150A0932F286F
:10485000B0913228B13048F0B0913128BF3FD1F447
:10486000B0913028BF3F99F415C0B0913128BF3FB7
:1048700021F4B0913028BF3F51F4C0914528D09128
:104880004628209669F4A150A0932F28C2CFB09358
:104890002F28BFCFC0914528D0914628209699F067
:1048A000D695C795D795C795D795C795D795C795E9
:1048B000D795D295C0934528D0934628CF70A09124
:1048C0000728AC0F2EC0A09107282BC020923328B8
:1048D0002092342820923A28A0913228A13010F05A
:1048E00069F00EC0A0910728AB0FB7FD04C0A73533
:1048F000C0F0A6E516C0A7FDA0E013C0AB2F11C005
:10490000A0910728AB0FB7FD08C0A0930728A735D3
:1049100040F0A6E5A093072804C0A7FDA0E0A0935F
:104920000728E4E9F0E0AA0FEA0FF21DA591B4917F
:10493000A0938C0AB0938D0AA0935128B09352286B
:1049400000C0E0913528F0913628309609F423C054
:10495000EE0FFF1FA0913728EA0FF21DB091392802
:10496000BA1729F4A0913828AB1710F003C0A3950B
:10497000A0933728B491B03879F4A150A093372888
:10498000B0913928BF3F39F4B0913828BF3F19F0B2
:10499000B0933728D6CFB0E06F937F936B2F72EB35
:1049A00067037F916F911694079416940794169459
:1049B00007941694079413FE07C0C0EF1C2AB77023
:1049C00019F0B1E00B0E121CA0913328B0913428DD
:1049D0000A0E1B1E0092332810923428A0918C0AD4
:1049E000B0918D0AA00DB11DC0914928D0914A28DF
:1049F000AC1BBD0BC0914D28D0914E28AC0FBD1FF4
:104A0000C0916128D0916228AC0FBD1FC09167286A
:104A1000D0916828AC1BBD0BC0916D28D0916E2839
:104A2000AC0FBD1FA0938C0AB0938D0AE0913B2878
:104A3000F0913C28309609F43CC0EE0FFF1FA09186
:104A40003D28EA0FF21DB0913F28BA1729F4A09132
:104A50003E28AB1710F003C0A395A0933D28B49156
:104A6000B03889F4A150A0933D28B0913F28BF3FB2
:104A700039F4B0913E28BF3F19F0B0933D28D6CF0E
:104A8000B0913A2805C0A0913A28BA0FB0933A28BD
:104A90006F937F936B2F72EB67037F916F91A09160
:104AA0008C0AB0918D0AA00DB11DA0938C0AB09311
:104AB0008D0AE0914028F09141283096B1F1EE0F37
:104AC000FF1FA0914228EA0FF21DB0914428BA17A7
:104AD00029F4A0914328AB1710F027C0A395A09309
:104AE0004228B491BF3F71F4A150A0934228B091E5
:104AF0004428BF3FD1F4B0914328BF3FB1F0B093F9
:104B00004228D7CFE0EEF0E6EB0FF21DB695B79551
:104B1000B795A0910028CA2FA07CBA1301C005C088
:104B2000A490CF73CB2BC0930028E0914728F0913D
:104B30004828309651F0A0914928B0914A28AE0FEC
:104B4000BF1FA0934928B0934A28E0914B28F091C9
:104B50004C28309651F0A0914D28B0914E28AE0FC0
:104B6000BF1FA0934D28B0934E28E0915328F09199
:104B70005428309609F448C0A0914F28B09150288D
:104B8000109609F441C0C0915128D0915228AC1719
:104B9000BD0711F030F01FC020924F2820925028FE
:104BA00033C0CA1BDB0BA0915528B0915628AE0F1D
:104BB000BF1FCA1BDB0B80F3A0935528B093562868
:104BC000A0918C0AB0918D0AAC1BBD0BA0938C0AEE
:104BD000B0938D0A19C0AC1BBD0BC0915528D09164
:104BE0005628CE0FDF1FAC1BBD0BB0F2C09355286B
:104BF000D0935628C0918C0AD0918D0ACA0FDB1F22
:104C0000C0938C0AD0938D0AA0915728A21509F45D
:104C10005CC0B0915828C0915928CA0FC43608F01A
:104C2000C356C0935928C03128F0C03228F0C03391
:104C300030F007C0CF7029C0C06FC09526C0CF70BC
:104C400003C0C06FC09500C0B295CB0FE2E6F1E0A3
:104C5000EC0FF21DC4916F937F936C2F72EB679FE3
:104C60007F916F9116940794169407941694079465
:104C700016940794A0918C0AB0918D0AA00DB11DD5
:104C8000A0938C0AB0938D0A20C0B295CB0FE2E6B8
:104C9000F1E0EC0FF21DC4916F937F936C2F72EBD8
:104CA000679F7F916F9116940794169407941694BA
:104CB000079416940794A0918C0AB0918D0AA019BC
:104CC000B109A0938C0AB0938D0AA0915A28A2151D
:104CD000F1F0B0915B28C0915C28CA0FC43610F087
:104CE000C0E0C356C0935C28C695C4FF01C002C093
:104CF000CF7003C0C06FC09500C0B295CB0FE2E685
:104D0000F1E0EC0FF21DC491C695C0935D28B091FF
:104D10005E28B215E9F0A0910528C0910028DA2F8D
:104D2000EC2FE295D07FE07FED1709F0AE2FB7FDB5
:104D300004C0AB0F28F4A0EF03C0AB0F08F0A0E055
:104D4000A0930528A07FA295C07FCA2BC0930028FE
:104D5000E0916328F0916428309639F1A09167289A
:104D6000B0916828C0918C0AD0918D0AEC1BFD0B84
:104D700008F488F0AE1BBF0BC0916128D091622867
:104D8000AC0FBD1FA0936728B093682820926328BA
:104D9000209264280AC0C0916528D0916628AC0F83
:104DA000BD1FA0936728B0936828E0916928F0910F
:104DB0006A28309639F1A0916D28B0916E28C09183
:104DC0008C0AD0918D0ACE1BDF0B08F488F0AC1B47
:104DD000BD0BC0916128D0916228AC0FBD1FA0937C
:104DE0006D28B0936E282092692820926A280AC004
:104DF000C0916B28D0916C28AC0FBD1FA0936D287B
:104E0000B0936E28E0917728F09178283096A1F140
:104E1000EE0FFF1FA0917928EA0FF21DB0917B28B9
:104E2000BA1729F4A0917A28AB1710F003C0A39504
:104E3000A0937928B491BF3F69F4B0917B28BF3F1C
:104E400029F4B0917A28B0937928DCCFA250A093AE
:104E50007928D8CFE4EBF1E6B295EB0FF21DB091D3
:104E60000828BF70A091AC28A03081F4EB0FF21D90
:104E7000B491B0930E2824C0B0910828BF70A091BF
:104E8000AC28A030A1F4B0930E281AC0BA1B40F091
:104E900039F0B1E0EB0FF21DB491B0930E2810C0C1
:104EA000B1E0EB0FF21DB491B0930E2809C0BA1B0C
:104EB00020F019F0B0930E2803C0B1E0B0930E2893
:104EC000E0917C28F0917D283096D9F1EE0FFF1FFC
:104ED000A0917E28EA0FF21DB0918028BA1729F41C
:104EE000A0917F28AB1710F003C0A395A0937E2854
:104EF000B491B03809F041C0A150A0937E28B09180
:104F00008128B13048F0B0918028BF3FD1F4B091F2
:104F10007F28BF3F99F415C0B0918028BF3F21F48E
:104F2000B0917F28BF3F51F4C0919428D09195282B
:104F3000209669F4A150A0937E28C2CFB0937E281A
:104F4000BFCFC0919428D0919528209699F0D695FE
:104F5000C795D795C795D795C795D795C795D79531
:104F6000D295C0939428D0939528CF70A0910F2804
:104F7000AC0F2EC0A0910F282BC020928228209227
:104F8000832820928928A0918128A13010F069F00F
:104F90000EC0A0910F28AB0FB7FD04C0A735C0F01D
:104FA000A6E516C0A7FDA0E013C0AB2F11C0A091CD
:104FB0000F28AB0FB7FD08C0A0930F28A73540F00E
:104FC000A6E5A0930F2804C0A7FDA0E0A0930F289A
:104FD000E4E9F0E0AA0FEA0FF21DA591B491A093C5
:104FE0009C0AB0939D0AA093A028B093A12800C06A
:104FF000E0918428F0918528309609F423C0EE0FC3
:10500000FF1FA0918628EA0FF21DB0918828BA17D9
:1050100029F4A0918728AB1710F003C0A395A093A3
:105020008628B491B03879F4A150A0938628B09125
:105030008828BF3F39F4B0918728BF3F19F0B0935B
:105040008628D6CFB0E06F937F936B2F72EB670308
:105050007F916F9116940794169407941694079471
:105060001694079413FE07C0C0EF1C2AB77019F0FE
:10507000B1E00B0E121CA0918228B09183280A0E79
:105080001B1E0092822810928328A0919C0AB09146
:105090009D0AA00DB11DC0919828D0919928AC1BF4
:1050A000BD0BC0919C28D0919D28AC0FBD1FC09115
:1050B000B028D091B128AC0FBD1FC091B628D091B7
:1050C000B728AC1BBD0BC091BC28D091BD28AC0F3C
:1050D000BD1FA0939C0AB0939D0AE0918A28F0918D
:1050E0008B28309609F43CC0EE0FFF1FA0918C284E
:1050F000EA0FF21DB0918E28BA1729F4A0918D28DD
:10510000AB1710F003C0A395A0938C28B491B038CE
:1051100089F4A150A0938C28B0918E28BF3F39F418
:10512000B0918D28BF3F19F0B0938C28D6CFB091A5
:10513000892805C0A0918928BA0FB09389286F9358
:105140007F936B2F72EB67037F916F91A0919C0A05
:10515000B0919D0AA00DB11DA0939C0AB0939D0A29
:10516000E0918F28F09190283096B1F1EE0FFF1F5B
:10517000A0919128EA0FF21DB0919328BA1729F453
:10518000A0919228AB1710F027C0A395A093912867
:10519000B491BF3F71F4A150A0939128B09193288E
:1051A000BF3FD1F4B0919228BF3FB1F0B0939128A6
:1051B000D7CFE0EEF0E6EB0FF21DB695B795B795B9
:1051C000A0910828CA2FA07CBA1301C005C0D490B2
:1051D000CF73CB2BC0930828E0919628F0919728A5
:1051E000309651F0A0919828B0919928AE0FBF1F2A
:1051F000A0939828B0939928E0919A28F0919B2841
:10520000309651F0A0919C28B0919D28AE0FBF1F01
:10521000A0939C28B0939D28E091A228F091A32808
:10522000309609F448C0A0919E28B0919F2810960E
:1052300009F441C0C091A028D091A128AC17BD07A6
:1052400011F030F01FC020929E2820929F2833C07A
:10525000CA1BDB0BA091A428B091A528AE0FBF1FDD
:10526000CA1BDB0B80F3A093A428B093A528A091C0
:105270009C0AB0919D0AAC1BBD0BA0939C0AB093F5
:105280009D0A19C0AC1BBD0BC091A428D091A528C4
:10529000CE0FDF1FAC1BBD0BB0F2C093A428D09380
:1052A000A528C0919C0AD0919D0ACA0FDB1FC0930C
:1052B0009C0AD0939D0AA091A628A21509F45CC06F
:1052C000B091A728C091A828CA0FC43608F0C356C9
:1052D000C093A828C03128F0C03228F0C03330F085
:1052E00007C0CF7029C0C06FC09526C0CF7003C063
:1052F000C06FC09500C0B295CB0FE2E6F1E0EC0FB5
:10530000F21DC4916F937F936C2F72EB679F7F9117
:105310006F91169407941694079416940794169414
:105320000794A0919C0AB0919D0AA00DB11DA09375
:105330009C0AB0939D0A20C0B295CB0FE2E6F1E043
:10534000EC0FF21DC4916F937F936C2F72EB679FEC
:105350007F916F911694079416940794169407946E
:1053600016940794A0919C0AB0919D0AA019B109C6
:10537000A0939C0AB0939D0AA091A928A215F1F0D0
:10538000B091AA28C091AB28CA0FC43610F0C0E073
:10539000C356C093AB28C695C4FF01C002C0CF70EE
:1053A00003C0C06FC09500C0B295CB0FE2E6F1E03C
:1053B000EC0FF21DC491C695C093AC28B091AD28F6
:1053C000B215E9F0A0910D28C0910828DA2FEC2F32
:1053D000E295D07FE07FED1709F0AE2FB7FD04C056
:1053E000AB0F28F4A0EF03C0AB0F08F0A0E0A09330
:1053F0000D28A07FA295C07FCA2BC0930828E091FA
:10540000B228F091B328309639F1A091B628B09126
:10541000B728C0919C0AD0919D0AEC1BFD0B08F4A3
:1054200088F0AE1BBF0BC091B028D091B128AC0F53
:10543000BD1FA093B628B093B7282092B22820921F
:10544000B3280AC0C091B428D091B528AC0FBD1FB5
:10545000A093B628B093B728E091B828F091B92866
:10546000309639F1A091BC28B091BD28C0919C0A1A
:10547000D0919D0ACE1BDF0B08F488F0AC1BBD0B4E
:10548000C091B028D091B128AC0FBD1FA093BC280B
:10549000B093BD282092B8282092B9280AC0C091A4
:1054A000BA28D091BB28AC0FBD1FA093BC28B093E5
:1054B000BD28E091C628F091C728309699F1EE0FEB
:1054C000FF1FA091C828EA0FF21DB091CA28BA1791
:1054D00029F4A091C928AB1710F003C0A395A0939D
:1054E000C828B491BF3F69F4B091CA28BF3F29F4DE
:1054F000B091C928B093C828DCCFA250A093C82887
:10550000D8CFB21541F0B091A50AB13059F4B1E04D
:10551000B093A50A07C02092A50A2092AC0A209257
:10552000AD0A00C0E091CB28F091CC283096D9F19B
:10553000EE0FFF1FA091CD28EA0FF21DB091CF28EA
:10554000BA1729F4A091CE28AB1710F003C0A39589
:10555000A093CD28B491B03809F041C0A150A093D8
:10556000CD28B091D028B13048F0B091CF28BF3FBE
:10557000D1F4B091CE28BF3F99F415C0B091CF2897
:10558000BF3F21F4B091CE28BF3F51F4C091E32832
:10559000D091E428209669F4A150A093CD28C2CFE1
:1055A000B093CD28BFCFC091E328D091E4282096B6
:1055B00099F0D695C795D795C795D795C795D7959F
:1055C000C795D795D295C093E328D093E428CF70A0
:1055D000A0911228AC0F2EC0A09112282BC02092AF
:1055E000D1282092D2282092D828A091D028A1306A
:1055F00010F069F00EC0A0911228AB0FB7FD04C0E7
:10560000A735C0F0A6E516C0A7FDA0E013C0AB2FDC
:1056100011C0A0911228AB0FB7FD08C0A0931228AB
:10562000A73540F0A6E5A093122804C0A7FDA0E08E
:10563000A0931228E4E9F0E0AA0FEA0FF21DA59169
:10564000B491A093AC0AB093AD0AA093EF28B093A5
:10565000F02800C0E091D328F091D428309609F4C6
:1056600023C0EE0FFF1FA091D528EA0FF21DB091C5
:10567000D728BA1729F4A091D628AB1710F003C089
:10568000A395A093D528B491B03879F4A150A093F4
:10569000D528B091D728BF3F39F4B091D628BF3F65
:1056A00019F0B093D528D6CFB0E06F937F936B2FCE
:1056B00072EB67037F916F91169407941694079489
:1056C000169407941694079413FE07C0C0EF1C2A83
:1056D000B77019F0B1E00B0E121CA091D128B09157
:1056E000D2280A0E1B1E0092D1281092D228A09117
:1056F000AC0AB091AD0AA00DB11DC091E728D091C0
:10570000E828AC1BBD0BC091EB28D091EC28AC0F66
:10571000BD1FC091FA28D091FB28AC0FBD1FC091CE
:105720000029D0910129AC1BBD0BC0910629D09155
:105730000729AC0FBD1FA093AC0AB093AD0AE0914E
:10574000D928F091DA28309609F43CC0EE0FFF1FFB
:10575000A091DB28EA0FF21DB091DD28BA1729F4D9
:10576000A091DC28AB1710F003C0A395A093DB2811
:10577000B491B03889F4A150A093DB28B091DD2812
:10578000BF3F39F4B091DC28BF3F19F0B093DB285C
:10579000D6CFB091D82805C0A091D828BA0FB09321
:1057A000D8286F937F936B2F72EB67037F916F9174
:1057B000A091AC0AB091AD0AA00DB11DA093AC0AA6
:1057C000B093AD0AE091E528F091E628309651F0CB
:1057D000A091E728B091E828AE0FBF1FA093E7285B
:1057E000B093E828E091E928F091EA28309651F04A
:1057F000A091EB28B091EC28AE0FBF1FA093EB282F
:10580000B093EC28E091F128F091F228309609F459
:1058100048C0A091ED28B091EE28109609F441C03F
:10582000C091EF28D091F028AC17BD0711F030F0EF
:105830001FC02092ED282092EE2833C0CA1BDB0B3C
:10584000A091F328B091F428AE0FBF1FCA1BDB0B49
:1058500080F3A093F328B093F428A091AC0AB09100
:10586000AD0AAC1BBD0BA093AC0AB093AD0A19C036
:10587000AC1BBD0BC091F328D091F428CE0FDF1FD5
:10588000AC1BBD0BB0F2C093F328D093F428C091A9
:10589000AC0AD091AD0ACA0FDB1FC093AC0AD093FB
:1058A000AD0AA091F528A21509F45CC0B091F628C4
:1058B000C091F728CA0FC43608F0C356C093F72822
:1058C000C03128F0C03228F0C03330F007C0CF70AC
:1058D00029C0C06FC09526C0CF7003C0C06FC095EF
:1058E00000C0B295CB0FE2E6F1E0EC0FF21DC491DF
:1058F0006F937F936C2F72EB679F7F916F911694DC
:105900000794169407941694079416940794A091FC
:10591000AC0AB091AD0AA00DB11DA093AC0AB09332
:10592000AD0A20C0B295CB0FE2E6F1E0EC0FF21D1C
:10593000C4916F937F936C2F72EB679F7F916F91F0
:105940001694079416940794169407941694079443
:10595000A091AC0AB091AD0AA019B109A093AC0A0C
:10596000B093AD0AE091FC28F091FD28309639F112
:10597000A0910029B0910129C091AC0AD091AD0A43
:10598000EC1BFD0B08F488F0AE1BBF0BC091FA288E
:10599000D091FB28AC0FBD1FA0930029B093012923
:1059A0002092FC282092FD280AC0C091FE28D091A8
:1059B000FF28AC0FBD1FA0930029B0930129E091EF
:1059C0000229F0910329309639F1A0910629B0916E
:1059D0000729C091AC0AD091AD0ACE1BDF0B08F4A9
:1059E00088F0AC1BBD0BC091FA28D091FB28AC0FFE
:1059F000BD1FA0930629B093072920920229209267
:105A000003290AC0C0910429D0910529AC0FBD1FFC
:105A1000A0930629B0930729E0911029F09111294C
:105A20003096A1F1EE0FFF1FA0911229EA0FF21D8F
:105A3000B0911429BA1729F4A0911329AB1710F0CB
:105A400003C0A395A0931229B491BF3F69F4B0910C
:105A50001429BF3F29F4B0911329B0931229DCCF48
:105A6000A250A0931229D8CFE4EBF1E6B295EB0F48
:105A7000F21DB0911328BF70A0914529A03081F488
:105A8000EB0FF21DB491B093162824C0B0911328E7
:105A9000BF70A0914529A030A1F4B09316281AC078
:105AA000BA1B40F039F0B1E0EB0FF21DB491B093A6
:105AB000162810C0B1E0EB0FF21DB491B093162878
:105AC00009C0BA1B20F019F0B093162803C0B1E04A
:105AD000B0931628E0911529F09116293096D9F146
:105AE000EE0FFF1FA0911729EA0FF21DB09119299F
:105AF000BA1729F4A0911829AB1710F003C0A39589
:105B0000A0931729B491B03809F041C0A150A093D7
:105B10001729B0911A29B13048F0B0911929BF3F27
:105B2000D1F4B0911829BF3F99F415C0B09119294B
:105B3000BF3F21F4B0911829BF3F51F4C0912D29E6
