:020000020000FC
:040000000C945912F1
:04000C000C94051635
:080030000C942D160C947A16B5
:040064000C94C7161B
:100090000C94D216C758CC53184FA74A77468242C1
:1000A000C73E413BED37CA34D331072F642CE629D4
:1000B0008C2754253B234121631FA01DF71B651A84
:1000C000EA1884173216F314C613AA129E11A1104F
:1000D000B20FD00EFB0D320D750CC20B190B790A45
:1000E000E3095509CF085008D9076807FE069906A5
:1000F0003A06E1058C053D05F104AA0467042804CD
:10010000EC03B4037F034D031D03F002C6029E02FD
:100110007902550234021402F601DA01BF01A60188
:100120008F01780163014F013C012B011A010A0183
:10013000FB00ED00E000D300C700BC00B200A80047
:100140009E00210037006400BD0070012302D6022A
:100150008903730496055608210BAC1037166F2CD3
:10016000D458000000000000000000000000000063
:10017000000000000000000000000000000000007F
:100180000000000000000000010101010101010167
:100190000101000000010101020202030303030345
:1001A000030300000001010202030303040404042A
:1001B0000404000001020203030404050506060608
:1001C00006060000010203040506070708080909DE
:1001D000090900010203040506070809090A0B0BB7
:1001E0000B0B0001020405060708090A0B0C0C0D95
:1001F0000D0D000103040608090A0C0D0E0E0F1068
:10020000101000020406080A0C0D0F111213141529
:100210001515000205080B0E10131517181A1B1CD4
:100220001D1D0004080C1014181B1F222426282A48
:100230002B2B00060C12181E23282D3135383B3D80
:100240003E3F0009121B242D353C434A4F54585B56
:100250005E5F000C1825303C47515A626A70767A0E
:100260007D7F000306090B0E111316181B1D1F229C
:100270002426282A2C2E3032343638393B3D3E4055
:1002800042000002030507080A0C0D0F1012141596
:1002900017181A1B1D1E202123242527282A2B2C42
:1002A0002E2F313233343637383A3B3C3D3F4041D4
:1002B000424445464748494B4C4D4E4F505153548C
:1002C00055565758595A5B5C5D5E5F606162636466
:1002D00065666768696A6B6C6D6E6F707172737357
:1002E0007475767778797A7A7B7C7D7E7F7F808162
:1002F000828384848586878888898A8B8B8C8D8E7F
:100300008E8F9091919293949495969697989899B0
:100310009A9B9B9C9D9D9E9F9FA0A0A1A2A2A3A4EF
:10032000A4A5A6A6A7A7A8A9A9AAAAABACACADAD3F
:10033000AEAFAFB0B0B1B1B2B3B3B4B4B5B5B6B699
:10034000B7B8B8B9B9BABABBBBBCBCBDBD00CA006E
:100350002E000D021F06F80B600D2A1060021F060A
:10036000F80B630D2A10B1022206FB0B660D2D104F
:100370000A034E06390CCD0D2D105B036906FB0BED
:100380002E0E2D10B603BC06760C8C0E2D105B03C2
:10039000FE06FB0BEA0E2D1011045007390CCD0D93
:1003A0002D105B039C07FB0BEA0E2D106C04D3078A
:1003B000760CEA0E2D10C7041908B30CEA0E2D10A6
:1003C00022057E08390CCD0D2D10B102B908FB0BAA
:1003D000480F2D100A030409390CBE0F2D107D059E
:1003E0007309FB0BBE0F2D100A03DF09390CBE0F7A
:1003F0002D107D05500AFB0BBE0F2D100A03B90A04
:10040000390CBE0F2D107D05280BF10CBE0F2D10E1
:10041000CE05910B210DBE0F2D10F0021D66E306D7
:10042000E9006C1D61E3086C2166E3066C2161E361
:10043000086C2665E3066C2661E3086C2865E30614
:100440006C2861E3086C2D64E3066C2D62E3086C94
:100450002164E3066C2162E3086C2664E3066C26E3
:1004600063E3086C2864E3066C2863E3086C2B6381
:10047000E3066C2B63E3086C2163E3066C2163E302
:10048000086C2663E3066C2664E3086C2863E306C5
:100490006C2864E3086C2D62E3066C2D64E3086C41
:1004A0002162E3066C2164E3086C2661E3066C2696
:1004B00065E3086C2861E3066C2865E3086CFF00BF
:1004C0001D61E3066C1D65E3086C2161E3066C2188
:1004D00065E3086C2661E3066C2665E3086C286119
:1004E000E3066C2865E3086C2D62E3066C2D64E37B
:1004F000086C2162E3066C2164E3086C2663E30662
:100500006C2664E3086C2863E3066C2864E3086CDB
:100510002B63E3066C2B63E3086C2163E3066C2119
:1005200063E3086C2664E3066C2663E3086C2864C6
:10053000E3066C2863E3086C2D65E3066C2D62E32B
:10054000086C2165E3066C2162E3086C2665E3060E
:100550006C2661E3086C2865E3066C2861E3086C8F
:10056000FF001D66E306E90067305CE302675B6736
:100570005A682D5C675B675A68285B675A69236A0B
:100580001C596A1758692666E3066C2662E3086CF4
:100590002866E3066C2862E3086C2D66E3066C2D82
:1005A00062E3086C2166E3066C2162E3086C266650
:1005B000E3066C2662E3086C2866E3066C2862E3B7
:1005C000086C2B66E3066C2B62E3086C2166E3067D
:1005D0006C2162E3086C2666E3066C2662E3086C15
:1005E0002866E3066C2862E3086C2D66E3066C2D32
:1005F00062E3086C2166E3066C2162E3086C266600
:10060000E3066C2662E3086C2866E3066C2862E366
:10061000086CFF001C66E3066C1C62E3086C216634
:10062000E3066C2162E3086C2666E3066C2662E34F
:10063000086C2866E3066C2862E3086C2D66E30606
:100640006C2D62E3086C2166E3066C2162E3086CA2
:100650002666E3066C2662E3086C2866E3066C28CF
:1006600062E3086C2B66E3066C2B62E3086C216680
:10067000E3066C2162E3086C2666E3066C2662E3FF
:10068000086C2866E3066C2862E3086C2D66E306B6
:100690006C2D62E3086C2166E3066C2162E3086C52
:1006A0002666E3066C2662E3086C2866E3066C287F
:1006B00062E3086CFF001D66E3066C1D62E3086CD4
:1006C0002166E3066C2162E3086C185FE309682188
:1006D0005F695A672662E3086C2866E3066C286245
:1006E000E3086C2D66E3066C2D62E3086C185FE38B
:1006F0000968215F695A672162E3086C2666E30690
:100700006C2662E3086C2866E3066C2862E3086CDA
:100710002B66E3066C2B62E3086C2166E3066C2112
:1007200062E3086C185FE30968215F695A67266213
:10073000E3086C2866E3066C2862E3086C2D66E328
:10074000066C2D62E3086C185FE30968215F695A43
:10075000672162E3086C2666E3066C2662E3086C98
:100760002866E3066C2862E3086CFF001C66E3065B
:100770006C1C62E3086C2366E3066C2362E3086C7E
:10078000175FE309681F5F695A672662E3086C28F0
:1007900066E3066C2862E3086C2B66E3066C2B624A
:1007A000E3086C175CE309681F5F695A672162E31D
:1007B000086C2666E3066C2662E3086C2866E3068E
:1007C0006C2862E3086C2A66E3066C2A62E3086C14
:1007D0002166E3066C2162E3086C175FE309681E7B
:1007E0005F695A672662E3086C2866E3066C286234
:1007F000E3086C2B66E3066C2B62E3086C175FE37F
:1008000009681F5F695A672162E3086C2666E30680
:100810006C2662E3086C2866E3066C2862E3086CC9
:10082000FF001C66E3066C1C62E3086C2166E306AD
:100830006C2162E3086C1F5FE30968235F695A67F4
:100840002462E3086C2866E3066C2862E3086C2DDA
:1008500066E3066C2D62E3086C1F5FE30968235FA3
:10086000695A672162E3086C2466E3066C2462E33C
:10087000086C2866E3066C2862E3086C2F66E306C2
:100880006C2F62E3086C2166E3066C2162E3086C5E
:100890001C5FE30968245F695A672462E3086C28D7
:1008A00066E3066C2862E3086C2D66E3066C2D6235
:1008B000E3086C1C5FE30968235F695A672162E300
:1008C000086C2466E3066C2462E3086C2866E30681
:1008D0006C2862E3086CFF001C66E3066C1C62E394
:1008E000086C2366E3066C2362E3086C175FE30978
:1008F000681F5F695A672662E3086C2866E3066C26
:100900002862E3086C2B66E3066C2B62E3086C1725
:100910005FE309681F5F695A672162E3086C266616
:10092000E3066C2662E3086C2866E3066C2862E343
:10093000086C2A66E3066C2A62E3086C2166E3060B
:100940006C2162E3086C175FE309681F5F695A67EF
:100950002662E3086C2866E3066C2862E3086C2BC9
:1009600066E3066C2B62E3086C175FE309681F5FA0
:10097000695A672162E3086C2666E3066C2662E327
:10098000086C2866E3066C2862E3086CFF001D66AD
:10099000E3066C1D62E3086C2166E3066C2162E3EA
:1009A000086C185FE30968215F695A672662E308EB
:1009B0006C2866E3066C2862E3086C2D66E3066C1F
:1009C0002D62E3086C185FE30968215F695A6721AB
:1009D00062E3086C2666E3066C2662E3086C286610
:1009E000E3066C2862E3086C2B66E3066C2B62E37B
:1009F000086C2166E3066C2162E3086C175FE3096B
:100A0000681F5F695A672662E3086C2866E3066C14
:100A10002862E3086C2D66E3066C2D62E3086C1710
:100A20005FE309681F5F695A672162E3086C266605
:100A3000E3066C2662E3086C2866E3066C2862E332
:100A4000086CFF001C66E3066C1C62E3086C216600
:100A5000E3066C2162E3086C185FE30968215F69B3
:100A60005A672462E3086C2866E3066C2862E30890
:100A70006C2D66E3066C2D62E3086C185FE3096871
:100A8000215F695A672162E3086C2466E3066C24DF
:100A900062E3086C2866E3066C2862E3086C2F6644
:100AA000E3066C2F62E3086C2166E3066C2162E3C7
:100AB000086C185FE30968215F695A672462E308DC
:100AC0006C2866E3066C2862E3086C2D66E3066C0E
:100AD0002D62E3086C185FE30968215F695A67219A
:100AE00062E3086C2466E3066C2462E3086C286603
:100AF000E3066C2862E3086CFF001D66E3066C1DCC
:100B000062E3086C2166E3066C2162E3086C2666EA
:100B1000E3066C2662E3086C2866E3066C2862E351
:100B2000086C2D66E3066C2D62E3086C2166E30613
:100B30006C2162E3086C2666E3066C2662E3086CAF
:100B40002866E3066C2862E3086C2B66E3066C2BD0
:100B500062E3086C2166E3066C2162E3086C26669A
:100B6000E3066C2662E3086C2866E3066C2862E301
:100B7000086C2D66E3066C2D62E3086C2166E306C3
:100B80006C2162E3086C2666E3066C2662E3086C5F
:100B90002866E3066C2862E3086CFF001C66E30627
:100BA0006C1C62E3086C2166E3066C2162E3086C4E
:100BB0002466E3066C2462E3086C2866E3066C286E
:100BC00062E3086C2D66E3066C2D62E3086C216617
:100BD000E3066C2162E3086C2466E3066C2462E39E
:100BE000086C2866E3066C2862E3086C2F66E3064F
:100BF0006C2F62E3086C2166E3066C2162E3086CEB
:100C00002466E3066C2462E3086C2866E3066C281D
:100C100062E3086C2D66E3066C2D62E3086C2166C6
:100C2000E3066C2162E3086C2466E3066C2462E34D
:100C3000086C2866E3066C2862E3086CFF0057E343
:100C400000E2AAFF3259E302E900692F5C675B67A3
:100C50005A682B5C675B675A68245B675A69215A3C
:100C60006A186915745972586C57902158E301E954
:100C700041EA4076596D5A6AE952EA51695B6AE97C
:100C800063EA626DE9646CE965EA636DE966675C75
:100C90006EE9677BE9666CE9656CFF001F5CE30148
:100CA000E963EA6384E9646EE9656EE966981C5A53
:100CB000E963EA636E5B6E5C74E9646EE9656EE934
:100CC000666B5B7B5A6C596C105EE307E900EA00C7
:100CD00072FF175EE307E900EA00695F6B5E675D1C
:100CE000675C685BE9416C175EE900695F6B5E6792
:100CF0005D675C685BE9416C155EE900695F6B5E8E
:100D0000675D675C68155EE900695F6B5E675D67DC
:100D10005C685BE9416C5A6CE952705968E9637030
:100D20005868E9646C57E900782666E306671C5C3E
:100D3000E309695A68576C155EE307E900695F6962
:100D4000175EE900695F69185EE900695F6B5E67BD
:100D50005D675C685BE9416C1A5EE900695F6B5E28
:100D6000675D675C685BE9416C185EE900695F6913
:100D7000175EE900695F69FF155EE307E900EA00B5
:100D8000695F6B5E675D675C685BE9416C155EE996
:100D900000695F6B5E675D675C685BE9416C135E71
:100DA000E900695F6B5E675D675C68135EE9006917
:100DB0005F6B5E675D675C685BE9416C5A6CE9522A
:100DC000705968E963705868E9646C57E9007826DF
:100DD00066E306671A5CE309695A6857842166E38B
:100DE00006671C5CE309695A685778105EE307E9F7
:100DF00000695F6B5E675D675C68FF00175EE30715
:100E0000E900EA00695F6B5E675D675C685BE9410A
:100E10006C175EE900695F6B5E675D675C685BE944
:100E2000416C155EE900695F6B5E675D675C681524
:100E30005EE900695F6B5E675D675C685BE9416CFA
:100E40005A6CE952705968E963705868E9646C57E4
:100E5000E900782666E306671C5CE309695A68576F
:100E60006C155EE307E900695F6B5E675D675C6850
:100E7000175EE900695F6B5E675D675C685BE9410F
:100E80006C185EE900695F6B5E675D675C685BE9D3
:100E9000416C1A5EE900695F6B5E675D675C68FFC5
:100EA0001A5EE307E900EA00695F6B5E675D675CF5
:100EB000685BE9416C1C5EE900695F6B5E675D67BA
:100EC0005C685BE9416C1C5EE900695F6B5E675DB5
:100ED000675C685BE9416C5A6CE952705968E96378
:100EE000705868E9646C57E900842466E306671F5C
:100EF0005CE309695A68576C1C5EE307E900695FA7
:100F00006B5E675D675C681F5EE900695F6B5E67CB
:100F10005D675C685BE9416C1C5EE900695F6B5E64
:100F2000675D675C685BE9416C185EE900695F6B4F
:100F30005E675D675C68FF00185BE302E941EA00F9
:100F40006C5A6CE952705968E963705868E9646CCE
:100F500057E900782166E306671C5CE309695A6873
:100F6000579C2666E306671C5CE309695A68576C60
:100F7000185EE307E900695F6B5E675D675C681593
:100F80005EE900695F6B5E675D675C685BE9416CA9
:100F90005A6C1C5EE900695F6B5E675D675C685B4D
:100FA000E9416C5A6CFF1A5EE307E900695F6B5E0A
:100FB000675D675C685BE9416C1C5EE900695F6BBB
:100FC0005E675D675C685BE9416C175EE900695FBD
:100FD0006B5E675D675C685BE9416C5A6CE95270F7
:100FE0005968155EE900695F6B5E675D675C681351
:100FF0005EE900695F6B5E675D675C685BE9416C39
:101000005A6CE952705968E963705868E9646C5722
:10101000E900782166E306671C5CE309695A6857B2
:1010200078135EE307E900695F6B5E675D675C6884
:10103000FF00155EE307E900695F6B5E675D675C53
:10104000680C5EE900695F6B5E675D675C68115EF6
:10105000E900695F6B5E675D675C68135EE9006964
:101060005F6B5E675D675C68155EE900695F6B5E7C
:10107000675D675C685BE9416C175EE900695F6BFF
:101080005E675D675C685BE9416C185EE900695FFB
:101090006B5E675D675C68175EE900695F6B5E6742
:1010A0005D675C680E5EE900695F6B5E675D675C4B
:1010B00068135EE900695F6B5E675D675C68155E7B
:1010C000E900695F6B5E675D675C68175EE90069F0
:1010D0005F6B5E675D675C685BE9416C185EE900A9
:1010E000695F6B5E675D675C685BE9416C175EE931
:1010F00000695F6B5E675D675C68FF00175EE30712
:10110000E900695F6B5E675D675C685BE9416C5A2B
:101110006CE952705968E963705868E9646C57E982
:10112000006C2166E306671C5CE309695A6857781E
:10113000155EE307E900695F6B5E675D675C6815D4
:101140005EE900695F6B5E675D675C685BE9416CE7
:101150005A6CE952705968E963705868E9646C57D1
:10116000E9006C2166E306671C5CE309695A68576D
:1011700084FF3259E302E900692F5C675B675A68B4
:101180002B5C675B675A68245B675A69215A6A1847
:101190006915745972586C57901F58E30CE96168CF
:1011A000216826681F68216826681F5968216826FB
:1011B000681F68216826681F5A68216826681F68AA
:1011C000216826681F5B68216826681F68216826D9
:1011D000682159E30B6826682B68215A6826682B1A
:1011E00068215B6826682B68216826682B6821685F
:1011F00026682B68216826682B68216826682B687A
:1012000021596826682B68FF2659E30AE961EA003C
:10121000682B682F68265A682B682F68265B682B16
:10122000682F6826682B682F6826682B682F682629
:10123000682B682F6826682B682F6826682B682F14
:101240006826682B682F6826682B682F6826682B0D
:10125000682F6826682B682F68265A682B682F68C5
:1012600026682B682F6826682B682F682659682BFC
:10127000682F682859E30B682D683068285A682D54
:10128000683068285B682D68306828682D68306889
:1012900028682D68306828682D68306828682D68AF
:1012A00030682859682D6830682659E30A682B672A
:1012B0005A672F68265B682B682F6826682B682F73
:1012C0006826682B675A672F6824596828675A6709
:1012D0002B68245B6828682B68246828682B68249E
:1012E0006828682B68FF2159E30CE961EA0068244B
:1012F000682868215A6824682868215B682468285F
:10130000682168246828682168246828682168247E
:10131000682868216824682868216824682868216A
:101320006824682868216824682868216824682857
:10133000682168246828682168246828682168244E
:10134000682868216824682868216824682868213A
:101350005A682468286821682468286821682468F5
:101360002868216824682868215968246828682129
:1013700068246828682158682468286821682468D7
:1013800028681F59E30B6823675A6726681F5B6844
:10139000236826681F68236826681F6823682668F4
:1013A00023596824675A672B68235B6824682B6875
:1013B000236824682B68236824682B68FF001F5962
:1013C000E30AE961EA0068236826681F5A6823680F
:1013D00026681F5B68236826681F68236826681FC5
:1013E00068236826681F68236826681F68236826A4
:1013F000681F68236826681C59E30B682168246805
:101400001C5A68216824681C5B68216824681C6871
:10141000216824681C68216824681C682168246885
:101420001C68216824681C68216824681A59E30A2A
:10143000681F6823681A5A681F6823681A5B681F48
:101440006823681A681F6823681A681F6823681A67
:10145000681F6823681A681F6823681A681F682352
:10146000681859E30B681C675A672168185B681C89
:1014700068216818681C68216818681C682168174A
:1014800059681A675A671F68175B681A681F6818D7
:1014900059E30A681C682168185A681C682168FFAB
:1014A000185BE30AE961EA00681C68216818681C97
:1014B00068216818681C68216818681C6821681809
:1014C000681C68216818681C68216818681C6821F5
:1014D0006818681C68216818681C68216818681CEE
:1014E000682168185A681C68216818681C68216897
:1014F00018681C68216818681C6821681859681CDD
:1015000068216818681C6821681F59E30C68216805
:1015100026681F5A68216826681F5B68216826684C
:101520001F68216826681F68216826681F6821686F
:1015300026681F68216826681F6821682668215967
:101540006826682B68215A6826682B68215B682604
:10155000682B68216826682B68216826682B68211B
:101560006826682B68216826682B68216826682B06
:1015700068FF2659E30BE961EA00682B682F6826AB
:101580005A682B682F68265B682B682F6826682BA3
:10159000682F6826682B682F6826682B682F6826B6
:1015A000682B682F6826682B682F6826682B682FA1
:1015B0006826682B682F6826682B682F6826682B9A
:1015C000682F68265A682B682F6826682B682F6852
:1015D0002659682B682F6826682B682F682859E3DE
:1015E0000A682D683068285A682D683068285B685A
:1015F0002D68306828682D68306828682D68306844
:1016000028682D68306828682D68306828682D683B
:1016100030682659E30B682B675A672F68265B688A
:101620002B682F6826682B682F6826682B682F6820
:101630002459E30A6828675A672B68245B6828687E
:101640002B68246828682B68246828682B68FF00AA
:101650002159E30CE961EA006824682868215A6886
:1016600024682868215B6824682868216824682821
:10167000682168246828682168246828682168240B
:1016800068286821682468286821682468286821F7
:1016900068246828682168246828682168246828E4
:1016A00068216824682868216824682868216824DB
:1016B000682868216824682868215A68246828688E
:1016C00021682468286821682468286821682468BB
:1016D00028682159682468286821682468286821B6
:1016E0005868246828682168246828682359E30B0F
:1016F0006826682B68235A6826682B68235B68264F
:10170000682B68236826682B68236826682B682363
:101710006826682B68236826682B68236826682B50
:1017200068FF2459E30AE961EA006828682D682403
:101730005A6828682D68245B6828682D6824682802
:10174000682D68246828682D68246828682D682416
:101750006828682D68246828682D68246828682D02
:1017600068246828682D68246828682D68246828FB
:10177000682D68246828682D68246828682D6824E6
:101780006828682D68246828682D68245A682868A5
:101790002D68246828682D68246828682D682468C6
:1017A00028682D68246828682D68246828682D68B2
:1017B000246828682D68246828682D6824596828BA
:1017C000682D68246828682D68246828682D682496
:1017D0006828682D6824586828682D682468286857
:1017E0002D68246828682D68246828682D68FF0003
:1017F00057E300E2AAFF1166E30478F70169F712E4
:1018000069F7FC69576F116675F70169F71269F797
:10181000FC68576718666818E300F70168F71167F6
:10182000F72268F78367F7A367F7C66857671866F4
:10183000E304721D721178F70169F71269F7FC6908
:10184000576F116675F70169F71269F7FC685767FA
:1018500018666818E300F70168F71167F72268F760
:101860008367F7A367F7C66857671866E304721DB6
:1018700072FF15E30478F70169F71269F7FC6957FD
:101880006F156675F70169F71269F7FC68576718F5
:10189000666818E300F70168F71167F72268F783B5
:1018A00067F7A367F7C66857671C66E3047221727F
:1018B0001578F70169F71269F7FC69576F156675B6
:1018C000F70169F71269F7FC68576718666818E34B
:1018D00000F70168F71167F72268F78367F7A367D6
:1018E000F7C66857671366E3047EFF0010E30478C9
:1018F000F70169F71269F7FC69576F106675F70110
:1019000069F71269F7FC68576718666818E300F70B
:101910000168F71167F72268F78367F7A367F7C6CF
:101920006857671766E304721C721078F70169F74D
:101930001269F7FC69576F106675F70169F712694C
:10194000F7FC68576718666818E300F70168F71135
:1019500067F72268F78367F7A367F7C668576717C3
:1019600066E3047EFF0011E30478F70169F712696A
:10197000F7FC69576F116675F70169F71269F7FC93
:1019800068576718666818E300F70168F71167F78A
:101990002268F78367F7A367F7C66857671866E397
:1019A00004721D721378F70169F71269F7FC695721
:1019B0006F136675F70169F71269F7FC68576718C6
:1019C000666818E300F70168F71167F72268F78384
:1019D00067F7A367F7C66857671A66E304721F7252
:1019E000FF0011E30478F70169F71269F7FC695702
:1019F0006F116675F70169F71269F7FC6857671888
:101A0000666818E300F70168F71167F72268F78343
:101A100067F7A367F7C66857671866E304721D7215
:101A20001178F70169F71269F7FC69576F1166724F
:101A30001078F70169F71269F7FC69576F10667241
:101A4000FF0015E30478F70169F71269F7FC69579D
:101A50006F156675F70169F71269F7FC6857671823
:101A6000666818E300F70168F71167F72268F783E3
:101A700067F7A367F7C66857671C66E304722172AD
:101A80001578F70169F71269F7FC69576F156675E4
:101A9000F70169F71269F7FC68576718666818E379
:101AA00000F70168F71167F72268F78367F7A36704
:101AB000F7C66857671C66E304722171EC0267FF82
:101AC00057E300E2AAFFE300E2AAFF000958E3039C
:101AD000675967085A680768065968056804680303
:101AE000E30068026758690D59E303670F586757A9
:101AF0006A075B67055A67045967035867026857A6
:101B00006C0D59670F58675767576F035BE30D6C90
:101B1000035A6C0D59E303670F58675770075A67EC
:101B200005596704586703670268576C035BE30D48
:101B30006C035A690359690E5CE30E67596757676E
:101B400057750C59E303670D670E58675769075AB5
:101B50006705596704586703670268576C0D596732
:101B60000F586757675769035BE30D72035B6C0D92
:101B700059E303670F5867576A0E5CE30E675967AE
:101B8000576A075BE30367055A6704596703586799
:101B900002685772035AE30D6CFF0D59E303670F98
:101BA000586757760D59670F5867576A075B67057F
:101BB0005A670459670358670268576C0D59670FD5
:101BC00058675767576F035BE30D6C035A6C0D59E9
:101BD000E303670F58675770075A6705596704583A
:101BE0006703670268576C035BE30D6C035A690374
:101BF00059690E5CE30E675967576757750C59E3CF
:101C000003670D670E58675769075A6705596704D8
:101C1000586703670268576C0D59670F5867576715
:101C20005769035BE30D68035A68035A6E035B6CE4
:101C30000D59E303670F5867576A0E5CE30E675947
:101C400067576A075BE30367055A670459670358D8
:101C50006702685772035AE30D6CFF000E5CE30ED7
:101C600067596757760D59E303670F5867576A0737
:101C70005B67055A670459670358670268576C0D1C
:101C800059670F58675767576F035BE30D6C035A2B
:101C90006C0D59E303670F58675770075A6705596A
:101CA0006704586703670268576C035BE30D6C03B6
:101CB0005A69035A690E5CE30E675967576757758F
:101CC0000C59E303670D670E58675769075A670594
:101CD000596704586703670268576C0D59670F58B6
:101CE0006757675769035BE30D72035B6C0D59E33C
:101CF00003670F5867576A0E5CE30E675967576AA8
:101D0000075BE30367055A6704596703586702686E
:101D10005772035AE30D6CFF0D59E303670F5867C1
:101D200057760D59670F5867576A075B67055A67FB
:101D30000459670358670268576C0D59670F586755
:101D40005767576F035BE30D6C035A6C0D59E30340
:101D5000670F58675770075A670559670458670334
:101D6000670268576C035BE30D6C035A69035A6999
:101D70000E5CE30E675967576757750C59E30367A5
:101D80000D670E58675769075A6705596704586702
:101D900003670268576C0D59670F58675767576993
:101DA000035BE30D72035B6C0D59E303670F586728
:101DB000576A0E5CE30E675967576A075BE3036770
:101DC000055A6704596703586702685772035AE354
:101DD0000D6CFF000D59E303670F586757760D59D7
:101DE000670F5867576A075B67055A6704596703A7
:101DF00058670268576C0D59670F58675767576FD8
:101E0000035BE30D6C035A6C0D59E303670F5867CE
:101E10005770075A67055967045867036702685780
:101E20006C035BE30D6C035A690359690E5CE30EA6
:101E3000675967576757750C59E303670D670E5865
:101E4000675769075A670559670458670367026847
:101E5000576C0D59670F586757675769035BE30D58
:101E600072035B6C0D59E303670F5867576A0E5C8A
:101E7000E30E675967576A075BE30367055A670410
:101E8000596703586702685772035AE30D6CFF00E5
:101E90000958E303675967085A68076806596805CF
:101EA00068046803E30068026758690D59E3036733
:101EB0000F5867576A075B67055A670459670358E5
:101EC000670268576C0D59670F58675767576F035C
:101ED0005BE30D6C035A6C0D59E303670F586757AA
:101EE00070055F670367015E67025D67015C6703FA
:101EF0005B67015A67045967015867056701670600
:101F000067035BE30D6C035A6C0E5CE30E67596765
:101F1000576757750C59E303670D670E5867576984
:101F2000075A6705596704586703670268576C0DBD
:101F300059670F586757675775035BE30D6C0D5969
:101F4000E303670F5867576A0E5CE30E67596757DC
:101F50006A055FE303670367015E67025D67015C13
:101F600067035B67015A6704596701586705670192
:101F7000670667576C035AE30D6CFF000D59E303C6
:101F8000670F586757760D59670F5867576A075B91
:101F900067055A670459670358670268576C0D59FB
:101FA000670F58675767576F035BE30D6C035A6CF5
:101FB0000D59E303670F58675770055F67036701A3
:101FC0005E67025D67015C67035B67015A670459DE
:101FD00067015867056701670667035BE30D6C03DC
:101FE0005A6C0E5CE30E675967576757750C59E3D7
:101FF00003670D670E58675769075A6705596704E5
:10200000586703670268576C0D59670F5867576721
:102010005775035BE30D6C0D59E303670F58675762
:102020006A0E5CE30E675967576A055FE30367034F
:1020300067015E67025D67015C67035B67015A6762
:10204000045967015867056701670667576C035AAB
:10205000E30D6CFFE300E2AAFF00E3007E000F66E1
:1020600096000F72010E6C010F84000F96000F7224
:10207000010E6C010F6CFF003E10FF101800A9AAA2
:10208000AA0A3C17E718DE387AC68933F77BFF7F48
:10209000000000000080FFFFFFFFFFFF1F000000A7
:1020A000000030A8FFFFFFFF7F0000008042A0EF8C
:1020B000FFFFFF1F409119090000A8DEFFFFFFFF8F
:1020C000BF670200000000F0B5FDFFFFFF7F0200C8
:1020D00000000000A9FEFFFFFF7FAB5A00000000D8
:1020E000D0FFBF6FAB5DDFEF2900000068ADAD5AD8
:1020F000FFFFFF33020000489A26AADDFFFFBF2939
:10210000225122080090DAEEF7DFBB7B5B550D0011
:10211000004055B56AB5EFFF77671141049192927F
:1021200048EDFDBF5725A596951210286ADBBDBB6B
:1021300035ADB6AE25010092D96EAD56BD7B77ABFD
:102140000A2108514A2A55B5FDFEBECD54A54408C2
:102150000211D5DA76BBDB75756B55040451AA34D0
:1021600055D576DF7B5B290911292925A5DAEE7D76
:10217000DB2AA5CA52252222496DBBDDB6AD6DAD65
:102180002A42809054AB6DADED76DBB62A492291A0
:102190002452AAACEDDDDDAD55959244882455ADB1
:1021A000ADADB5D6DAB6AA242292525555B5B6DDF4
:1021B0006DAB4922494A55AAAAB4B66EDBAAA6AAB3
:1021C0005449129154D5B6DBB6B55A55A524499257
:1021D0005255B5AAB5B66D6B55A52449525255D581
:1021E000B66D6B5565AAAA524A4AA9AA56ABD5D66E
:1021F0005AABAA2491A454ABB56AB5566BB514007A
:1022000095AAAAEA69238082A7FF7FFF0F0000003A
:1022100060FFFF3F000080FFFFFF0100F0FF1F781D
:102220000189FC0F00E0FFFF030000FFFF7F0000BB
:10223000FF2E7622A302FEFE460E2068FFFF0180DD
:10224000AABDED4840D5FF56150234DD9B6BAE208C
:10225000A4DABB5A0529ED6B919036D95DDB245287
:10226000549B374D96A4566D8D146ADBAF4590CACA
:1022700074554D6DA5AA8956D356A5AAB4AC593349
:102280005454EBB5AA164549DADA5555A5AA54A512
:10229000AA5A5BAB4A52695555ABD456958A54AD90
:1022A000DBAA524A5555D3AA54565B5595A455D628
:1022B000AA96AA5455CDAAAAAAAA5455AB952A55AE
:1022C00055D5AAAA56AA5455AD5AA5AA5255ADD26B
:1022D0002AABAA2A5555ADAA4A55AB6AA9525555FB
:1022E000AB96AA4A55B5AAAA5455D56AAA2A55D575
:1022F000AAAAAAAAAA2AD354D5AAAAAAAA525555C2
:10230000ADAAAAAA525555AB55A94A55D5AAAA4A6B
:1023100055ADAA2A5555AD5AAA4A55D5AAAA54D59B
:10232000AAAAAA5455ABAA2A4DADAA2A55ADAAAA63
:10233000AA3255ADAAAAAAAAAAAA2A55D5AAAAAA71
:10234000AF11B211B511B811BA11BD11BE11C21140
:10235000C611CA11CD11D111D511D911DC1111003D
:10236000DF1134121100E11136121100E31138129D
:102370000100E5110300E7110E1200001300E9113E
:1023800013123A121300F11117123F121300F51134
:102390001C1244121100FD1149121300FF112012EA
:1023A0004D121300011224125112130003122812AD
:1023B0005512030005122C12030009123012FF02FD
:1023C0000FFFFF020FFFFF020FFFFF020FFFFF02D1
:1023D0000FFFFF0D030304040303020202000000C9
:1023E000FF00FF050E0E0E0FFF00FF0D010104049C
:1023F0000303020202000000FF00FF020BFFFF02C6
:102400000CFFFF020CFFFF020CFFFF050F0803008B
:10241000FF00FF080F0D0A07030000FFFFFF000782
:10242000040201008000FFFF000A0A000080FFFF95
:102430000003010100000080FFFF000A0A00008085
:10244000FFFF000000008000FFFF00000000800090
:10245000FFFF000000008000FFFF00FE0001800081
:10246000FFFF000201000080FFFF02FFFFFF01FFEE
:10247000FFFF00FFFFFF010102020202FF00FFFF5A
:1024800001010100000000FFFFFF01010202020242
:10249000FF00FFFF01000000FF00FFFF0100000040
:1024A000FF00FFFF00010101FF00FFFF020101012A
:1024B000FF00C8EDC0933400C0E0C0936100222447
:1024C000C1E03C2E422CC0E3C0930028C0E8C0937A
:1024D0000128CFEFC0930228C0930328C09304289B
:1024E000C0E3C0930828C0E8C0930928CFEFC09389
:1024F0000A28C0930B28C0930C28CFEFC093102854
:10250000C0931128C0E3C0931328CFE0C0931428D0
:10251000C4E0C0931B2820921C28CFEFC093222830
:102520002092232820922428EEE4F3E0E093192857
:10253000F0931A28C591D591C0931D28D0931E28D9
:10254000C591D591C0931F28D0932028209221288F
:10255000C591D591CC0FDD1FC0932528D093262897
:1025600020922728309228282092292820922A2851
:10257000C591D591CC0FDD1FC0937628D0937728D5
:10258000209278283092792820927A2820927B28ED
:10259000C591D591CC0FDD1FC093C728D093C82813
:1025A0002092C9283092CA282092CB282092CC2889
:1025B000C591D591CC0FDD1FC0931329D093142959
:1025C0002092152930921629209217292092182935
:1025D000C591D591CC0FDD1FC0934A29D0934B29CB
:1025E00020924C2930924D2920924E2920924F2939
:1025F000CFEF20922D28C0932E28C0932F28209211
:102600003228C0933328C0933428C09335282092B1
:102610003A28C0933B28C0933C2820924028C0937E
:102620004128C093422820924528C0934628C09351
:10263000472820922B2820922C2820923028209264
:10264000312820923628209237282092382820924C
:10265000392820923D2820923E2820923F2820921F
:102660004328209244280FE0109100281F70909179
:1026700000289073906420920628C09305288C2E21
:10268000C1E07C2E9090012892949068CFEF209228
:1026900048282092492820924A2820924B282092AC
:1026A0004C2820924D2820924E2820924F2820928C
:1026B000502820925128209252282092532820926C
:1026C000542820925528209256282092572820924C
:1026D00058282092592820925A2820925B2820922C
:1026E0005C2820925D2820925E2820925F2820920C
:1026F000602820926128C0936228C09363282092AA
:1027000064282092652820926628209267282092CB
:1027100068282092692820926A2820926B282092AB
:102720006C2820926D2820926E2820926F2820928B
:102730007028209271282092722820927328C093CA
:102740007428C0937528CFEF20927E28C0937F28ED
:10275000C093802820928328C0938428C093852822
:10276000C093862820928B28C0938C28C0938D28F4
:1027700020929128C0939228C09393282092962863
:10278000C0939728C093982820927C2820927D2877
:1027900020928128209282282092872820928828BF
:1027A0002092892820928A2820928E2820928F2891
:1027B0002092902820929428209295282FE0309102
:1027C00008283F70D0910828D073D062D2959D2BF5
:1027D00020920E28C0930D28BC2EC1E0AC2EC090D4
:1027E0000928C2949860CFEF2092992820929A28C5
:1027F00020929B2820929C2820929D2820929E28FF
:1028000020929F282092A0282092A1282092A228DE
:102810002092A3282092A4282092A5282092A628BE
:102820002092A7282092A8282092A9282092AA289E
:102830002092AB282092AC282092AD282092AE287E
:102840002092AF282092B0282092B1282092B2285E
:10285000C093B328C093B4282092B5282092B628FC
:102860002092B7282092B8282092B9282092BA281E
:102870002092BB282092BC282092BD282092BE28FE
:102880002092BF282092C0282092C1282092C228DE
:102890002092C3282092C428C093C528C093C6287C
:1028A000CFEF2092CF28C093D028C093D128209278
:1028B000D428C093D528C093D628C093D728209277
:1028C000DC28C093DD28C093DE282092E228C09344
:1028D000E328C093E4282092E728C093E828C09317
:1028E000E9282092CD282092CE282092D22820922A
:1028F000D3282092D8282092D9282092DA28209212
:10290000DB282092DF282092E0282092E1282092E4
:10291000E5282092E628C0E04C2FCFEF2092EA284D
:102920002092EB282092EC282092ED282092EE288D
:102930002092EF282092F0282092F1282092F2286D
:102940002092F3282092F4282092F5282092F6284D
:102950002092F7282092F8282092F9282092FA282D
:102960002092FB282092FC282092FD282092FE280D
:10297000C093FF28C09300292092012920920229A8
:1029800020920329209204292092052920920629C9
:1029900020920729209208292092092920920A29A9
:1029A00020920B2920920C2920920D2920920E2989
:1029B00020920F2920921029C0931129C093122927
:1029C000CFEF20921B29C0931C29C0931D29209270
:1029D0002029C0932129C0932229C0932329209222
:1029E0002829C0932929C0932A2920922E29C093EF
:1029F0002F29C093302920923329C0933429C093C2
:102A000035292092192920921A2920921E292092D4
:102A10001F292092242920922529209226292092BC
:102A2000272920922B2920922C2920922D2920928F
:102A300031292092322920921628C0931528C1E00E
:102A40005C2F622DCFEF20923629209237292092D9
:102A500038292092392920923A2920923B29209224
:102A60003C2920923D2920923E2920923F29209204
:102A700040292092412920924229209243292092E4
:102A80004429C0934529C093462920924729C093E1
:102A90004829C093492920925029209251292092F7
:102AA000522920925329D22CE22CF22C722D822D05
:102AB000C0934529C0934629C0934829C09349290A
:102AC000CFEFC0B9C0E0C093810AC1E0C093850ACE
:102AD000C0910228C0938C0AC0910328C0938D0A2C
:102AE000C3E0C093800AB0E0B093910AB1E0B09324
:102AF000950AB0910A28B0939C0AB0910B28B09324
:102B00009D0AB3E0B093900AB0E0B093A10AB1E09F
:102B1000B0911028B093AC0AB0911128B093AD0ACF
:102B2000B1E0B093A00A7894B0E0B093B10AB1E0FC
:102B3000B093B50AB0910A28B093BC0AB0910B28A3
:102B4000B093BD0AB3E0B093B00AB0E0B0934701D0
:102B5000B0911F28C0912028B0934A01C0934B0127
:102B6000B1E0B0934201B9E0B0934001C0910628B2
:102B7000D0910E2870FE15C0821499F0E0918C0A55
:102B8000F9E5EF17E0918D0AF0E0EF0750F0E091E2
:102B90008C0AFAE5EF17E0918D0AF9E5EF0708F4E2
:102BA00001C0CC27A0FE15C0B21499F0E0919C0A98
:102BB000F9E5EF17E0919D0AF0E0EF0750F0E091A2
:102BC0009C0AFAE5EF17E0919D0AF9E5EF0708F492
:102BD00001C0DD27CD0FE2E6F2E0EC0FF21DC4915B
:102BE000D42FD4FDD095DF70ED2FDE0FDE0F50FF18
:102BF00004C0E0911628EE0FDE0FE2E8F2E0ED0FE0
:102C0000F21DD491CD0FC1B9B1CFBFB7BF93F89426
:102C1000A42D430CA03029F0A13059F0A23009F0C6
:102C2000F3C050D09CD0B3E0B0934301BF91BFBF7D
:102C3000189548D094D093FC1BD0C3FC66D095FD6A
:102C400002C082108A9491FD02C0B210BA94B1E021
:102C5000B0934301BF91BFBF1895BFB7BF93F8941E
:102C6000770C721CB1E0B093860ABF91BFBF189574
:102C7000B92DB770F9F4DF93D92DD295D77011F42F
:102C8000DF9119C0A0918C0AB0918D0AB695A795D5
:102C9000DA95E1F797FE02C0A095B095D0918C0A25
:102CA000AD0FD0918D0ABD1FA0938C0AB0938D0AF1
:102CB000DF9101C09A9497FF089590900128929413
:102CC0009F77089596FD10C0003011F00A95089581
:102CD000009100280F7095FF02C01FE0089510308A
:102CE00009F408951A9508959F7B009100280F70AC
:102CF0001FE00895BFB7BF93F894AA0CA21CB1E0DF
:102D0000B093960ABF91BFBF1895BC2DB770F9F468
:102D1000DF93DC2DD295D77011F4DF9119C0A0910B
:102D20009C0AB0919D0AB695A795DA95E1F7C7FE82
:102D300002C0A095B095D0919C0AAD0FD0919D0A8C
:102D4000BD1FA0939C0AB0939D0ADF9101C0CA9455
:102D500093FF0895C0900928C294977F089592FD2B
:102D600010C0203011F02A950895209108282F7066
:102D700091FF02C03FE00895303009F408953A957C
:102D800008959B7F209108282F703FE00895BFB7DA
:102D9000BF93F8944F5F4F71B1E0B093A60ABF9113
:102DA000BFBF1895BFB7BF93F894A52F67FD0BC0A1
:102DB000A695A527A0FD03C06695579513C06695F7
:102DC000579560640FC0AA0FAA1FAA1FA527A0FDD0
:102DD00005C06F7766955795606804C066955795EE
:102DE000606800C0B1E0B093B60ABF91BFBF18954C
:102DF000E4E9F1E6ED0FF21DD4910895E4EBF1E67C
:102E0000ED0FF21DD4910895422CCF93DF93EF93F1
:102E1000FF93A0912228AF3FA9F4A0912328A211EB
:102E2000A3C0A0912428A211AEC0A0911B28B091EC
:102E30001C28C0911D28D0911E28AC17BD0708F48E
:102E400031C1A0E0E0911928F0911A28CC27DD27A4
:102E5000A395AA9511F02A96FCCF2496C0931B281F
:102E6000D0931C28EC0FFD1FA591B591AA0FBB1F95
:102E7000A0932528B0932628A591B591AA0FBB1F32
:102E8000A0937628B0937728A591B591AA0FBB1F80
:102E9000A093C728B093C828A591B591AA0FBB1FCE
:102EA000A0931329B0931429A591B591AA0FBB1F24
:102EB000A0934A29B0934B292092292820922A28AE
:102EC000209227283092282820927A2820927B2846
:102ED00020927828309279282092CB282092CC28F2
:102EE0002092C9283092CA282092172920921829A6
:102EF000209215293092162920924E2920924E298F
:102F000020924C2930924D29AFEFA0936228A093D4
:102F10006328A0937428A0937528A093B328A09346
:102F2000B428A093C528A093C628A093FF28A093F7
:102F30000029A0931129A0931229A0934529A093B9
:102F40004629A0934829A0934929A0935429A093E6
:102F50005529A0935629A0935729A093222820925F
:102F60002328209224289EC0FF91EF91DF91CF91DA
:102F7000BF91BFBFF894AFEFA093222820922328DF
:102F8000209224281895E0911928F0911A28A091F0
:102F90001B28B0911C281A96A0931B28B0931C28BC
:102FA000EA0FFB1FA591B591AA0FBB1FA09325287F
:102FB000B0932628A591B591AA0FBB1FA0937628A0
:102FC000B0937728A591B591AA0FBB1FA093C728EE
:102FD000B093C828A591B591AA0FBB1FA093132940
:102FE000B0931429A591B591AA0FBB1FA0934A29AC
:102FF000B0934B292092292820922A282092272812
:103000003092282820927A2820927B2820927828B3
:10301000309279282092CB282092CC282092C9285F
:103020003092CA2820921729209218292092152917
:103030003092162920924E2920924E2920924C2916
:1030400030924D29AFEFA0936228A0936328A093FC
:103050007428A0937528A093B328A093B428A093B4
:10306000C528A093C628A093FF28A0930029A09369
:103070001129A0931229A0934529A0934629A09332
:103080004829A0934929A0935429A0935529A09396
:103090005629A0935729A0932228209223282092D2
:1030A000242800C0A0912728B0912828BA95B09371
:1030B0002828109609F0E4C2E0912528F0912628EE
:1030C000A0912928B0912A28EA0FFB1FB491B735A7
:1030D00008F47CC1B73608F4BAC1B33E08F4C1C1E4
:1030E00009F4C4C1B43E09F46DC2BF3F09F48FC2F4
:1030F0003196A491BBD2B55EE8EBF1E6BB0FEB0FC6
:10310000F21DC591D491EC2FFD2F0994A09348286E
:1031100020924928D1CF20924E2820924F282092E9
:103120004828209249286F937F936A2F72EB679FFC
:103130007F916F91169407941694079416940794B0
:103140001694079400924A2810924B28B5CF2092EB
:103150004A2820924B2820924828209249286F9391
:103160007F936A2F72EB679F7F916F9116940794FC
:1031700016940794169407941694079400924E2878
:1031800010924F2899CF6F937F936A2F72EB679FAE
:103190007F916F9116940794169407941694079450
:1031A000169407940092562810925728A21101C035
:1031B00083CFA0918C0AB0918D0AA0935228B0932E
:1031C0005328209258282092592876CFBA2FA07FD2
:1031D000A295BF70A0935A28B0935B2820925C28D8
:1031E0006BCFBA2FA07FA295BF70A0935D28B0933C
:1031F0005E2820925F28209260285ECFA0936128ED
:103200005BCFA093222858CFB093232855CFB093FB
:10321000242852CFB0910028B07FBA2BB093002859
:1032200096604ACFA093212847CFA21551F0B091C4
:103230002128AB1730F4A0936228B1E0B09327287F
:103240002EC23ACF39CF38CF37CF36CF6F937F9357
:103250006A2F72EB67037F916F911694079416940F
:103260000794169407941694079413FE02C0B0EFC7
:103270001B2A00926428109265281ECFE091302806
:10328000F0913128309609F017CFE0913828F0916D
:103290003928309609F010CFE0913E28F0913F2870
:1032A000309609F009CFBA2FBF70C0916628BC0FC5
:1032B000B73508F0B6E5B0936628E4E9F0E0BB0F57
:1032C000EB0FF21DC591D491C0936728D093682865
:1032D000A295AF70AA0FA3956F937F936A2F72EB9D
:1032E000679F7F916F911694079416940794169494
:1032F0000794169407940092692810926A28DCCEED
:10330000E0913028F0913128309609F0D5CEE09147
:103310003828F0913928309609F0CECEE0913E2839
:10332000F0913F28309609F0C7CEBA2FBF70C091F8
:103330006D28CB1B08F4C0E0C0936D28E4E9F0E0F1
:10334000CC0FEC0FF21DC591D491C0936E28D09391
:103350006F28A295AF70AA0FA3956F937F936A2FE2
:1033600072EB679F7F916F91169407941694079460
:10337000169407941694079400927028109271285E
:103380009BCEA21551F0B0912128AB1730F4A09339
:103390007428B1E0B093272882C18ECEE4EBF1E629
:1033A000EA0FF21DA695A795A795B0910028CB2FFF
:1033B000B07CAB1301C080CE7490CF73CB2BC09385
:1033C00000287ACE79CE78CE77CE76CEB093072805
:1033D000B0936628B0936D28A3E0B2E0B0932D2897
:1033E000A0933228B0933A28B0934028B093452850
:1033F000209236282092372820923D2820924C286F
:1034000020924D282092502820925128209258280E
:1034100020925928A0918C0AB0918D0AA09352282D
:10342000B093532820920128976020926728209219
:10343000682820926B2820926C2820926E28209277
:103440006F28209272282092732806D135CEB75566
:10345000A0910028A07FAB2BA09300289660FCD001
:103460002BCEB656B0932728F7D00AC120922B282E
:1034700020922C282092302820923128209238281F
:103480002092392820923E2820923F2820924328DB
:1034900020924428209236282092372820923D28D6
:1034A0003196B491E0EAF1E1EB0FF21DEE0FFF1F50
:1034B000A591B491AA0FBB1FEA2FFB2FB4913296AE
:1034C000A6E0AA9519F0B69578F0FBCFA3E0B2E09C
:1034D000B0932D28A0933228B0933A28B093402877
:1034E000B0934528C3D0E8CDC591D591A53039F02A
:1034F000A43079F0A330D9F0A23059F13CC0C09388
:103500002B28D0932C2841D0C0932F28D0932E283D
:10351000D8CFC0933028D0933128209267282092AA
:10352000682820926E2820926F283AD0CACFC09384
:103530003828D09339282092672820926828209232
:103540006E2820926F2821D0C0933C28D0933B282E
:10355000B8CFC0933E28D0933F282092672820926E
:10356000682820926E2820926F280FD0C09342289E
:10357000D0934128A6CFC0934328D093442805D0A8
:10358000C0934728D09346289CCFEF93FF93EC2F0E
:10359000FD2FEE0FFF1FC591D491FF91EF9108957C
:1035A000EF93FF93EC2FFD2FEE0FFF1FC591D591E9
:1035B000C0933428D0933328C491C0933528FF9109
:1035C000EF910895B0912F28BF3F19F0B395B093B4
:1035D0002D28B0913428BF3F19F0B395B09332280D
:1035E000B0913C28BF3F19F0B395B0933A28B09101
:1035F0004228BF3F19F0B395B0934028B0914728B7
:10360000BF3F19F0B395B093452826D055CDE09132
:103610001928F0911A28A0911B28B0911C281A96FD
:10362000A0931B28B0931C28C0911D28D0911E2860
:10363000AC17BD0710F00C94C430EA0FFB1FA59126
:10364000B491AA0FBB1FA0932528B09326282092DF
:10365000292820922A2830CDE0912928F0912A2883
:103660003196E0932928F0932A280895E09129289B
:10367000F0912A283296E0932928F0932A28089579
:10368000BFEFA0917528A21519F4B093752808957D
:10369000A0916328A21519F4B09363280895A0910E
:1036A0007828B0917928BA95B0937928109609F0C6
:1036B000D7C2E0917628F0917728A0917A28B0912E
:1036C0007B28EA0FFB1FB491B73508F47CC1B736ED
:1036D00008F4BAC1B33E08F4C1C109F4C4C1B43E90
:1036E00009F46DC2BF3F09F48FC23196A491AED2E6
:1036F000B55EECEEF1E6BB0FEB0FF21DC591D49178
:10370000EC2FFD2F0994A093992820929A28D1CFCD
:1037100020929F282092A0282092992820929A28CF
:103720006F937F936A2F72EB679F7F916F911694CF
:10373000079416940794169407941694079400928D
:103740009B2810929C28B5CF20929B2820929C28E1
:103750002092992820929A286F937F936A2F72EB78
:10376000679F7F916F91169407941694079416940F
:1037700007941694079400929F281092A02899CF3E
:103780006F937F936A2F72EB679F7F916F9116946F
:10379000079416940794169407941694079400922D
:1037A000A7281092A828A21101C083CFA0919C0A3B
:1037B000B0919D0AA093A328B093A4282092A92891
:1037C0002092AA2876CFBA2FA07FA295BF70A0938F
:1037D000AB28B093AC282092AD286BCFBA2FA07F36
:1037E000A295BF70A093AE28B093AF282092B028C6
:1037F0002092B1285ECFA093B2285BCFA09322285D
:1038000058CFB093232855CFB093242852CFB091EE
:103810000828B07FBA2BB093082892604ACFA093B3
:10382000212847CFA21551F0B0912128AB1730F4D1
:10383000A093B328B1E0B093782821C23ACF39CF12
:1038400038CF37CF36CF6F937F936A2F72EB6703F2
:103850007F916F9116940794169407941694079489
:103860001694079413FE02C0B0EF1B2A0092B528ED
:103870001092B6281ECFE0918128F09182283096D0
:1038800009F017CFE0918928F0918A28309609F045
:1038900010CFE0918F28F0919028309609F009CF51
:1038A000BA2FBF70C091B728BC0FB73508F0B6E586
:1038B000B093B728E4E9F0E0BB0FEB0FF21DC59120
:1038C000D491C093B828D093B928A295AF70AA0F0D
:1038D000A3956F937F936A2F72EB679F7F916F9190
:1038E00016940794169407941694079416940794C4
:1038F0000092BA281092BB28DCCEE0918128F0918A
:103900008228309609F0D5CEE0918928F0918A2856
:10391000309609F0CECEE0918F28F0919028309625
:1039200009F0C7CEBA2FBF70C091BE28CB1B08F4D8
:10393000C0E0C093BE28E4E9F0E0CC0FEC0FF21D2C
:10394000C591D491C093BF28D093C028A295AF70E1
:10395000AA0FA3956F937F936A2F72EB679F7F9156
:103960006F911694079416940794169407941694DE
:1039700007940092C1281092C2289BCEA21551F044
:10398000B0912128AB1730F4A093C528B1E0B093D3
:10399000782875C18ECEE4EBF1E6EA0FF21DA6950C
:1039A000A795A795B0910828CB2FB07CAB1301C089
:1039B00080CEA490CF73CB2BC09308287ACE79CE3B
:1039C00078CE77CE76CEB0930F28B093B728B09349
:1039D000BE28A3E0B2E0B0937E28A0938328B093E2
:1039E0008B28B0939128B093962820928728209214
:1039F000882820928E2820929D2820929E2820920E
:103A0000A1282092A2282092A9282092AA28A09139
:103A10009C0AB0919D0AA093A328B093A428209259
:103A2000092893602092B8282092B9282092BC28B7
:103A30002092BD282092BF282092C0282092C3281F
:103A40002092C428F9D035CEB755A0910828A07F80
:103A5000AB2BA09308289260EFD02BCEB656B09334
:103A60007828EAD0FDC020927C2820927D282092E0
:103A70008128209282282092892820928A282092C8
:103A80008F28209290282092942820929528209286
:103A900087282092882820928E283196B491E0EAD7
:103AA000F1E1EB0FF21DEE0FFF1FA591B491AA0FEC
:103AB000BB1FEA2FFB2FB4913296A6E0AA9519F00E
:103AC000B69578F0FBCFA3E0B2E0B0937E28A09348
:103AD0008328B0938B28B0939128B0939628B6D0C2
:103AE000E8CDC591D591A53039F0A43079F0A33057
:103AF000D9F0A23059F13CC0C0937C28D0937D28E6
:103B000041D0C0938028D0937F28D8CFC0938128FC
:103B1000D09382282092B8282092B9282092BF28DA
:103B20002092C0283AD0CACFC0938928D0938A283F
:103B30002092B8282092B9282092BF282092C0282D
:103B400021D0C0938D28D0938C28B8CFC0938F28D4
:103B5000D09390282092B8282092B9282092BF288C
:103B60002092C0280FD0C0939328D0939228A6CF3C
:103B7000C0939428D093952805D0C0939828D093CB
:103B800097289CCFEF93FF93EC2FFD2FEE0FFF1F95
:103B9000C591D491FF91EF910895EF93FF93EC2F8E
:103BA000FD2FEE0FFF1FC591D591C0938528D093AF
:103BB0008428C491C0938628FF91EF910895B09115
:103BC0008028BF3F19F0B395B0937E28B091852827
:103BD000BF3F19F0B395B0938328B0918D28BF3FB4
:103BE00019F0B395B0938B28B0919328BF3F19F08B
:103BF000B395B0939128B0919828BF3F19F0B39531
:103C0000B093962819D055CDE0911928F0911A2833
:103C1000A0911B28B0911C281296EA0FFB1FA591BA
:103C2000B491AA0FBB1FA0937628B0937728209257
:103C30007A2820927B283DCDE0917A28F0917B284C
:103C40003196E0937A28F0937B280895E0917A28C2
:103C5000F0917B283296E0937A28F0937B280895A0
:103C6000BFEFA091C628A21519F4B093C6280895F5
:103C7000A091B428A21519F4B093B4280895A09186
:103C8000C928B091CA28BA95B093CA28109609F0ED
:103C9000BFC2E091C728F091C828A091CB28B0916D
:103CA000CC28EA0FFB1FB491B73508F460C1B736D2
:103CB00008F49EC1B33E08F4A9C109F4ACC1B43EF6
:103CC00009F455C2BF3F09F477C23196A49196D248
:103CD000B55EE0E2F2E6BB0FEB0FF21DC591D491A9
:103CE000EC2FFD2F0994A093EA282092EB28D1CF46
:103CF0002092F0282092F1282092EA282092EB28A6
:103D00006F937F936A2F72EB679F7F916F911694E9
:103D100007941694079416940794169407940092A7
:103D2000EC281092ED28B5CF2092EC282092ED28B7
:103D30002092EA282092EB286F937F936A2F72EBF0
:103D4000679F7F916F911694079416940794169429
:103D50000794169407940092F0281092F12899CFB6
:103D60006F937F936A2F72EB679F7F916F91169489
:103D70000794169407941694079416940794009247
:103D8000F8281092F928A21101C083CFA091AC0AA3
:103D9000B091AD0AA093F428B093F5282092FA28A8
:103DA0002092FB2876CFBA2FA07FA295BF70A09358
:103DB000FC28B093FD282092FE286BCF6ACF69CFF4
:103DC000A093222866CFB093232863CFB0932428F2
:103DD00060CFA21521F0B1E0B093A50A5ACF20928E
:103DE000A50A2092AC0A2092AD0A53CFA0932128B5
:103DF00050CFA21551F0B0912128AB1730F4A09309
:103E0000FF28B1E0B093C92812C243CF42CF41CFBF
:103E100040CF3FCF6F937F936A2F72EB67037F9101
:103E20006F91169407941694079416940794169419
:103E3000079413FE02C0B0EF1B2A009201291092D2
:103E4000022927CFE091D228F091D328309609F0AB
:103E500020CFE091DA28F091DB28309609F019CFD5
:103E6000E091E028F091E128309609F012CFBA2FC6
:103E7000BF70C0910329BC0FB73508F0B6E5B09309
:103E80000329E4E9F0E0BB0FEB0FF21DC591D491DB
:103E9000C0930429D0930529A295AF70AA0FA395CA
:103EA0006F937F936A2F72EB679F7F916F91169448
:103EB0000794169407941694079416940794009206
:103EC000062910920729E5CEE091D228F091D32857
:103ED000309609F0DECEE091DA28F091DB283096BA
:103EE00009F0D7CEE091E028F091E128309609F072
:103EF000D0CEBA2FBF70C0910A29CB1B08F4C0E006
:103F0000C0930A29E4E9F0E0CC0FEC0FF21DC59153
:103F1000D491C0930B29D0930C29A295AF70AA0F0E
:103F2000A3956F937F936A2F72EB679F7F916F9139
:103F3000169407941694079416940794169407946D
:103F400000920D2910920E29A4CEA21551F0B09125
:103F50002128AB1730F4A0931129B1E0B093C92800
:103F600066C197CE96CE95CE94CE93CE92CEB09398
:103F70001228B0930329B0930A29A3E0B2E0B093CA
:103F8000CF28A093D428B093DC28B093E228B09334
:103F9000E7282092D8282092D9282092DF28209242
:103FA000EE282092EF282092F2282092F3282092E7
:103FB000FA282092FB28A091AC0AB091AD0AA093F8
:103FC000F428B093F5282092042920920529209204
:103FD00008292092092920920B2920920C2920924D
:103FE0000F2920921029B1E0B093A50AFDD051CE3F
:103FF000FBD0B75521F0B1E0B093A50A4ACE20928C
:10400000A50A2092AC0A2092AD0A43CEB656B093D0
:10401000C928EAD0FDC02092CD282092CE28209237
:10402000D2282092D3282092DA282092DB282092CE
:10403000E0282092E1282092E5282092E62820928C
:10404000D8282092D9282092DF283196B491E0EA2E
:10405000F1E1EB0FF21DEE0FFF1FA591B491AA0F36
:10406000BB1FEA2FFB2FB4913296A6E0AA9519F058
:10407000B69578F0FBCFA3E0B2E0B093CF28A09341
:10408000D428B093DC28B093E228B093E728B6D0C8
:1040900000CEC591D591A53039F0A43079F0A33088
:1040A000D9F0A23059F13CC0C093CD28D093CE288E
:1040B00041D0C093D128D093D028D8CFC093D22854
:1040C000D093D328209204292092052920920B29ED
:1040D00020920C293AD0CACFC093DA28D093DB289B
:1040E000209204292092052920920B2920920C2944
:1040F00021D0C093DE28D093DD28B8CFC093E0282C
:10410000D093E128209204292092052920920B299E
:1041100020920C290FD0C093E428D093E328A6CF97
:10412000C093E528D093E62805D0C093E928D09322
:10413000E8289CCFEF93FF93EC2FFD2FEE0FFF1F8E
:10414000C591D491FF91EF910895EF93FF93EC2FD8
:10415000FD2FEE0FFF1FC591D591C093D628D093A8
:10416000D528C491C093D728FF91EF910895B091BD
:10417000D128BF3F19F0B395B093CF28B091D6287E
:10418000BF3F19F0B395B093D428B091DE28BF3F5C
:1041900019F0B395B093DC28B091E428BF3F19F033
:1041A000B395B093E228B091E928BF3F19F0B395D9
:1041B000B093E72819D06DCDE0911928F0911A2815
:1041C000A0911B28B0911C281496EA0FFB1FA59103
:1041D000B491AA0FBB1FA093C728B093C828209200
:1041E000CB282092CC2855CDE091CB28F091CC283B
:1041F0003196E093CB28F093CC280895E091CB281A
:10420000F091CC283296E093CB28F093CC280895F7
:10421000BFEFA0911229A21519F4B09312290895A5
:10422000A0910029A21519F4B09300290895A09136
:104230001529B0911629BA95B0931629109609F050
:10424000B9C1E0911329F0911429A0911729B091D7
:104250001829EA0FFB1FB491B73508F496C0B7369A
:1042600008F4B1C0B33E08F4B7C009F4BAC0B43E14
:1042700009F44BC1BF3F09F46DC13196A49190D1AF
:10428000B55EE4E5F2E6BB0FEB0FF21DC591D491EC
:10429000EC2FFD2F0994A093362920923729D1CFF6
:1042A00020923A292092362920923729A093382942
:1042B000C8CF209238292092362920923729A093FE
:1042C0003A29BFCFBECFBA2FA07FA295BF70A093CF
:1042D0003C29B0933D2920923E2920923F29B1CF1D
:1042E000BA2FA07FA295BF70A0934029B093412917
:1042F0002092422920924329A4CFA0934429A1CF00
:10430000A09322289ECFB09323289BCFB09324283C
:1043100098CFB0911328B07FBA2BB093132891CFC8
:10432000A09321288ECFA21551F0B0912128AB1770
:1043300030F4A0934529B1E0B09315294AC181CF4B
:1043400080CF7FCF7ECF7DCFA09347297ACF79CF03
:1043500078CFA21551F0B0912128AB1730F4A0937B
:104360004829B1E0B093152934C16BCFA695A79524
:10437000B0911428BF77BA2BB09313286F776A2BAC
:1043800060CF5FCF5ECF5DCF5CCFB0931728B09387
:104390001828A3E0B2E0B0931B29A0932029B09382
:1043A0002829B0932E29B0933329209224292092D2
:1043B000252920922B292092392920923B292092CD
:1043C0003F29E4D03ECFB755A0911328A07FAB2B57
:1043D000A0931328DBD035CFB656B0931529D6D08D
:1043E000E9C02092192920921A2920921E29209290
:1043F0001F29209226292092272920922C292092B9
:104400002D2920923129209232292092242920928C
:10441000252920922B293196B491E0EAF1E1EB0FA6
:10442000F21DEE0FFF1FA591B491AA0FBB1FEA2F3B
:10443000FB2FB4913296A6E0AA9519F0B69578F0C4
:10444000FBCFA3E0B2E0B0931B29A0932029B09347
:104450002829B0932E29B0933329A2D0F2CEC5914A
:10446000D591A53039F0A43079F0A33099F0A2307D
:10447000D9F024C0C0931929D0931A2929D0C09308
:104480001D29D0931C29D8CFC0931E29D0931F2952
:104490002AD0D2CFC0932629D093272919D0C093F0
:1044A0002A29D0932929C8CFC0932C29D0932D290C
:1044B0000FD0C0933029D0932F29BECFC09331297C
:1044C000D093322905D0C0933529D0933429B4CF65
:1044D000EF93FF93EC2FFD2FEE0FFF1FC591D491AB
:1044E000FF91EF910895EF93FF93EC2FFD2FEE0FC7
:1044F000FF1FC591D591C0932229D0932129C49142
:10450000C0932329FF91EF910895B0911D29BF3FDA
:1045100019F0B395B0931B29B0912229BF3F19F030
:10452000B395B0932029B0912A29BF3F19F0B395D4
:10453000B0932829B0913029BF3F19F0B395B093BB
:104540002E29B0913529BF3F19F0B395B093332987
:104550001DD077CEE0911928F0911A28A0911B2840
:10456000B0911C28A0931B28B0931C281696EA0F24
:10457000FB1FA591B491AA0FBB1FA0931329B09361
:10458000142920921729209218295BCEE09117292F
:10459000F09118293196E0931729F093182908957E
:1045A000E0911729F09118293296E0931729F0939A
:1045B00018290895BFEFA0914929A21519F4B093C5
:1045C00049290895A0914629A21519F4B0934629C6
:1045D0000895A0914C29B0914D29BA95B0934D29D9
:1045E000109609F0BDC0E0914A29F0914B29A091A5
:1045F0004E29B0914F29EA0FFB1FB491B73508F44B
:1046000056C0B73608F471C0B33E08F470C009F460
:1046100073C0B43E09F472C0BF3F09F471C0319653
:10462000A49194D0B55EE8E8F2E6BB0FEB0FF21D63
:10463000C591D491EC2FFD2F0994D5CFD4CFD3CFF2
:10464000D2CFD1CFD0CFCFCFA0932228CCCFB09391
:104650002328C9CFB0932428C6CFC5CFA093212843
:10466000C2CFA21551F0B0912128AB1730F4A0931E
:104670005429B1E0B0934C2982C0B5CFB4CFB3CFA9
:10468000B2CFB1CFB0CFAFCFAECFA21551F0B09176
:104690002128AB1730F4A0935629B1E0B0934C29F0
:1046A0006EC0A1CFA0CF9FCF9ECF9DCF9CCF319684
:1046B000F490ECE3F0E1EB0FF21DEE0FFF1FA5917C
:1046C000B491AA0FBB1FEA2FFB2FB49170EF8FE0BC
:1046D000B2957B238B23E0935029F093512930929C
:1046E00052292092532932D07ECF26D07CCFB65685
:1046F000B0934C2921D034C029D075CF1DD073CFB1
:10470000E0911928F0911A28A0911B28B0911C283B
:10471000A0931B28B0931C281896EA0FFB1FA591A5
:10472000B491AA0FBB1FA0934A29B0934B292092A2
:104730004E2920924F2957CFE0914E29F0914F29D1
:104740003196E0934E29F0934F290895E0914E2938
:10475000F0914F293296E0934E29F0934F29089516
:10476000BFEFA0915729A21519F4B09357290895C6
:10477000A0915529A21519F4B09355290895F091E7
:104780002128A0912828A21144C000C0AF2FB091C9
:104790002728B21509F43DC0BA95B0932728BFEF7A
:1047A000C0917428D0917528CB1709F00DC0DB1784
:1047B00009F014C0C0916228D0916328CB1709F08A
:1047C00011C0DB1721F118C0B0937428AC1BA09363
:1047D0007528C0932828A2111CC012C0B093752858
:1047E000AD2F15C0B0936228AC1BA0936328C09373
:1047F0002828A2110EC004C0B0936328AD2F07C0B3
:10480000209228280E945C18F0912128BACFA0930A
:104810002828A0917928A21144C000C0AF2FB091E0
:104820007828B21509F43DC0BA95B0937828BFEF47
:10483000C091C528D091C628CB1709F00DC0DB1751
:1048400009F014C0C091B328D091B428CB1709F057
:1048500011C0DB1721F118C0B093C528AC1BA09381
:10486000C628C0937928A2111CC012C0B093C628D4
:10487000AD2F15C0B093B328AC1BA093B428C09340
:104880007928A2110EC004C0B093B428AD2F07C080
:10489000209279280E94591BF0912128BACFA09329
:1048A0007928A091CA28A21144C000C0AF2FB091AE
:1048B000C928B21509F43DC0BA95B093C928BFEF15
:1048C000C0911129D0911229CB1709F00DC0DB1727
:1048D00009F014C0C091FF28D0910029CB1709F02E
:1048E00011C0DB1721F118C0B0931129AC1BA093A4
:1048F0001229C093CA28A2111CC012C0B093122959
:10490000AD2F15C0B093FF28AC1BA0930029C09316
:10491000CA28A2110EC004C0B0930029AD2F07C051
:104920002092CA280E94491EF0912128BACFA09354
:10493000CA28A0911629A21144C000C0AF2FB0917F
:104940001529B21509F43DC0BA95B0931529BFEFEA
:10495000C0914829D0914929CB1709F00DC0DB1728
:1049600009F014C0C0914529D0914629CB1709F010
:1049700011C0DB1721F118C0B0934829AC1BA093DC
:104980004929C0931629A2111CC012C0B09349290D
:10499000AD2F15C0B0934529AC1BA0934629C093F9
:1049A0001629A2110EC004C0B0934629AD2F07C02E
:1049B000209216290E942121F0912128BACFA0939C
:1049C0001629A0914D29A21144C000C0AF2FB0916B
:1049D0004C29B21509F43DC0BA95B0934C29BFEFEC
:1049E000C0915629D0915729CB1709F00DC0DB177C
:1049F00009F014C0C0915429D0915529CB1709F062
:104A000011C0DB1721F118C0B0935629AC1BA0933D
:104A10005729C0934D29A2111CC012C0B093572929
:104A2000AD2F15C0B0935429AC1BA0935529C0934A
:104A30004D29A2110EC004C0B0935529AD2F07C057
:104A400020924D290E94F322F0912128BACFA09301
:104A50004D29E0912B28F0912C283096A1F1EE0FF2
:104A6000FF1FA0912D28EA0FF21DB0912F28BA1731
:104A700029F4A0912E28AB1710F003C0A395A093A2
:104A80002D28B491BF3F69F4B0912F28BF3F29F47E
:104A9000B0912E28B0932D28DCCFA250A0932D28C2
:104AA000D8CFECEBF2E6B295EB0FF21DB0910028F7
:104AB000BF70A0916028A03081F4EB0FF21DB4917B
:104AC000B093062823C0B0910028BF70A091602841
:104AD000A03099F4B093062819C0BA1B38F031F011
:104AE000EB0FF21DB491B093062810C0B1E0EB0FAC
:104AF000F21DB491B093062809C0BA1B20F019F03A
:104B0000B093062803C0B1E0B0930628E0913028A6
:104B1000F09131283096D9F1EE0FFF1FA091322885
:104B2000EA0FF21DB0913428BA1729F4A091332866
:104B3000AB1710F003C0A395A0933228B491B038FE
:104B400009F041C0A150A0933228B0913528B1306E
:104B500048F0B0913428BF3FD1F4B0913328BF3F23
:104B600099F415C0B0913428BF3F21F4B091332897
:104B7000BF3F51F4C0914828D0914928209669F44C
:104B8000A150A0933228C2CFB0933228BFCFC0919A
:104B90004828D0914928209699F0D695C795D79561
:104BA000C795D795C795D795C795D795D295C093F3
:104BB0004828D0934928CF70A0910728AC0F2EC069
:104BC000A09107282BC020923628209237282092C7
:104BD0003D28A0913528A13010F069F00EC0A091B9
:104BE0000728AB0FB7FD04C0A735C0F0A6E516C077
:104BF000A7FDA0E013C0AB2F11C0A0910728AB0FF9
:104C0000B7FD08C0A0930728A73540F0A6E5A093FC
:104C1000072804C0A7FDA0E0A0930728E4E9F0E07E
:104C2000AA0FEA0FF21DA591B491A0938C0AB0933C
:104C30008D0AA0935428B093552800C0E0913828DD
:104C4000F0913928309609F423C0EE0FFF1FA09190
:104C50003A28EA0FF21DB0913C28BA1729F4A09126
:104C60003B28AB1710F003C0A395A0933A28B4914A
:104C7000B03879F4A150A0933A28B0913C28BF3FB6
:104C800039F4B0913B28BF3F19F0B0933A28D6CF02
:104C9000B0E06F937F936B2F72EB67037F916F91FF
:104CA00016940794169407941694079416940794F0
:104CB00013FE07C0C0EF1C2AB77019F0B1E00B0E4D
:104CC000121CA0913628B09137280A0E1B1E0092A4
:104CD000362810923728A0918C0AB0918D0AA00D29
:104CE000B11DC0914C28D0914D28AC1BBD0BC0917B
:104CF0005028D0915128AC0FBD1FC0916428D0918D
:104D00006528AC0FBD1FC0916B28D0916C28AC1BDF
:104D1000BD0BC0917228D0917328AC0FBD1FC9E59F
:104D2000D0E0AC17BD0730F0CAE5D9E5AC17BD0738
:104D300020F406C0C9E5D0E003C0C9E5D9E500C04C
:104D4000A0938C0AB0938D0AE0913E28F0913F2801
:104D5000309609F43CC0EE0FFF1FA0914028EA0FE7
:104D6000F21DB0914228BA1729F4A0914128AB173F
:104D700010F003C0A395A0934028B491B03889F4F3
:104D8000A150A0934028B0914228BF3F39F4B09180
:104D90004128BF3F19F0B0934028D6CFB0913D28AD
:104DA00005C0A0913D28BA0FB0933D286F937F9323
:104DB0006B2F72EB67037F916F91A0918C0AB0917A
:104DC0008D0AA00DB11DA0938C0AB0938D0AE091BD
:104DD0004328F09144283096B1F1EE0FFF1FA091C7
:104DE0004528EA0FF21DB0914728BA1729F4A0917F
:104DF0004628AB1710F027C0A395A0934528B4917F
:104E0000BF3F71F4A150A0934528B0914728BF3F00
:104E1000D1F4B0914628BF3FB1F0B0934528D7CF29
:104E2000E4EBF1E6EB0FF21DB695B795B795A091BF
:104E30000028CA2FA07CBA1301C005C07490CF739C
:104E4000CB2BC0930028E0914A28F0914B28309654
:104E500051F0A0914C28B0914D28AE0FBF1FA093E8
:104E60004C28B0934D28E0914E28F0914F28309671
:104E700051F0A0915028B0915128AE0FBF1FA093C0
:104E80005028B0935128E0915628F0915728309639
:104E900009F448C0A0915228B0915328109609F403
:104EA00041C0C0915428D0915528AC17BD0711F0CE
:104EB00030F01FC0209252282092532833C0CA1BC2
:104EC000DB0BA0915828B0915928AE0FBF1FCA1B09
:104ED000DB0B80F3A0935828B0935928A0918C0A3B
:104EE000B0918D0AAC1BBD0BA0938C0AB0938D0AB8
:104EF00019C0AC1BBD0BC0915828D0915928CE0FBA
:104F0000DF1FAC1BBD0BB0F2C0935828D0935928BB
:104F1000C0918C0AD0918D0ACA0FDB1FC0938C0AF6
:104F2000D0938D0AA0915A28A21509F45CC0B091C3
:104F30005B28C0915C28CA0FC03408F0C0E0C09361
:104F40005C28C03128F0C03228F0C03330F007C0F0
:104F5000CF7029C0C06FC09526C0CF7003C0C06F8E
:104F6000C09500C0B295CB0FE2E6F1E0EC0FF21D68
:104F7000C4916F937F936C2F72EB679F7F916F91BA
:104F8000169407941694079416940794169407940D
:104F9000A0918C0AB0918D0AA00DB11DA0938C0A2E
:104FA000B0938D0A20C0B295CB0FE2E6F1E0EC0F92
:104FB000F21DC4916F937F936C2F72EB679F7F916B
:104FC0006F91169407941694079416940794169468
:104FD0000794A0918C0AB0918D0AA019B109A093F1
:104FE0008C0AB0938D0AA0915D28A215E9F0B091CA
:104FF0005E28C0915F28CA0FC03408F0C0E0C0939B
:105000005F28C695C4FF01C002C0CF7003C0C06F47
:10501000C09500C0B295CB0FE2E6F1E0EC0FF21DB7
:10502000C491C695C0936028B0916128B215E9F08B
:10503000A0910528C0910028DA2FEC2FE295D07FAF
:10504000E07FED1709F0AE2FB7FD04C0AB0F28F4D9
:10505000A0EF03C0AB0F08F0A0E0A0930528A07F4D
:10506000A295C07FCA2BC0930028E0916728F091D9
:105070006828309619F1A0916B28B0916C28C091E6
:105080008C0AD0918D0AEC1BFD0B08F468F020927D
:105090006B2820926C282092672820926828B09173
:1050A0006628B09307280AC0C0916928D0916A2861
:1050B000AC0FBD1FA0936B28B0936C28E0916E28B5
:1050C000F0916F28309619F1A0917228B091732851
:1050D000C0918C0AD0918D0ACE1BDF0B08F468F0CA
:1050E000209272282092732820926E2820926F2896
:1050F000B0916D28B09307280AC0C0917028D09154
:105100007128AC0FBD1FA0937228B0937328E09153
:105110007C28F0917D283096A1F1EE0FFF1FA09121
:105120007E28EA0FF21DB0918028BA1729F4A091C9
:105130007F28AB1710F003C0A395A0937E28B491ED
:10514000BF3F69F4B0918028BF3F29F4B0917F2818
:10515000B0937E28DCCFA250A0937E28D8CFECEB72
:10516000F2E6B295EB0FF21DB0910828BF70A09146
:10517000B128A03081F4EB0FF21DB491B0930E284A
:1051800023C0B0910828BF70A091B128A03099F435
:10519000B0930E2819C0BA1B38F031F0EB0FF21D96
:1051A000B491B0930E2810C0B1E0EB0FF21DB49192
:1051B000B0930E2809C0BA1B20F019F0B0930E2846
:1051C00003C0B1E0B0930E28E0918128F0918228CD
:1051D0003096D9F1EE0FFF1FA0918328EA0FF21D40
:1051E000B0918528BA1729F4A0918428AB1710F044
:1051F00003C0A395A0938328B491B03809F041C0AF
:10520000A150A0938328B0918628B13048F0B09186
:105210008528BF3FD1F4B0918428BF3F99F415C0D1
:10522000B0918528BF3F21F4B0918428BF3F51F44D
:10523000C0919928D0919A28209669F4A150A09302
:105240008328C2CFB0938328BFCFC0919928D09133
:105250009A28209699F0D695C795D795C795D79552
:10526000C795D795C795D795D295C0939928D093D0
:105270009A28CF70A0910F28AC0F2EC0A0910F28B4
:105280002BC0209287282092882820928E28A091D7
:105290008628A13010F069F00EC0A0910F28AB0F46
:1052A000B7FD04C0A735C0F0A6E516C0A7FDA0E075
:1052B00013C0AB2F11C0A0910F28AB0FB7FD08C0D2
:1052C000A0930F28A73540F0A6E5A0930F2804C0AF
:1052D000A7FDA0E0A0930F28E4E9F0E0AA0FEA0FF1
:1052E000F21DA591B491A0939C0AB0939D0AA0933E
:1052F000A528B093A62800C0E0918928F0918A28BB
:10530000309609F423C0EE0FFF1FA0918B28EA0FFF
:10531000F21DB0918D28BA1729F4A0918C28AB17F3
:1053200010F003C0A395A0938B28B491B03879F402
:10533000A150A0938B28B0918D28BF3F39F4B09134
:105340008C28BF3F19F0B0938B28D6CFB0E06F9375
:105350007F936B2F72EB67037F916F911694079485
:1053600016940794169407941694079413FE07C096
:10537000C0EF1C2AB77019F0B1E00B0E121CA091FF
:105380008728B09188280A0E1B1E00928728109249
:105390008828A0919C0AB0919D0AA00DB11DC091D2
:1053A0009D28D0919E28AC1BBD0BC091A128D09107
:1053B000A228AC0FBD1FC091B528D091B628AC0F64
:1053C000BD1FC091BC28D091BD28AC1BBD0BC091A6
:1053D000C328D091C428AC0FBD1FC9E5D0E0AC17DD
:1053E000BD0730F0CAE5D9E5AC17BD0720F406C00B
:1053F000C9E5D0E003C0C9E5D9E500C0A0939C0A87
:10540000B0939D0AE0918F28F0919028309609F48E
:105410003CC0EE0FFF1FA0919128EA0FF21DB09142
:105420009328BA1729F4A0919228AB1710F003C063
:10543000A395A0939128B491B03889F4A150A0937A
:105440009128B0919328BF3F39F4B0919228BF3F83
:1054500019F0B0939128D6CFB0918E2805C0A091B5
:105460008E28BA0FB0938E286F937F936B2F72EBB9
:1054700067037F916F91A0919C0AB0919D0AA00D46
:10548000B11DA0939C0AB0939D0AE0919428F091DD
:1054900095283096B1F1EE0FFF1FA0919628EA0FE4
:1054A000F21DB0919828BA1729F4A0919728AB174C
:1054B00010F027C0A395A0939628B491BF3F71F434
:1054C000A150A0939628B0919828BF3FD1F4B091F5
:1054D0009728BF3FB1F0B0939628D7CFE4EBF1E621
:1054E000EB0FF21DB695B795B795A0910828CA2F76
:1054F000A07CBA1301C005C0A490CF73CB2BC0937E
:105500000828E0919B28F0919C28309651F0A091BA
:105510009D28B0919E28AE0FBF1FA0939D28B093E9
:105520009E28E0919F28F091A028309651F0A091FC
:10553000A128B091A228AE0FBF1FA093A128B093BD
:10554000A228E091A728F091A828309609F448C035
:10555000A091A328B091A428109609F441C0C0914D
:10556000A528D091A628AC17BD0711F030F01FC0B8
:105570002092A3282092A42833C0CA1BDB0BA09141
:10558000A928B091AA28AE0FBF1FCA1BDB0B80F35E
:10559000A093A928B093AA28A0919C0AB0919D0A33
:1055A000AC1BBD0BA0939C0AB0939D0A19C0AC1B09
:1055B000BD0BC091A928D091AA28CE0FDF1FAC1B2C
:1055C000BD0BB0F2C093A928D093AA28C0919C0A21
:1055D000D0919D0ACA0FDB1FC0939C0AD0939D0AED
:1055E000A091AB28A21509F45CC0B091AC28C09181
:1055F000AD28CA0FC03408F0C0E0C093AD28C03158
:1056000028F0C03228F0C03330F007C0CF7029C076
:10561000C06FC09526C0CF7003C0C06FC09500C0DA
:10562000B295CB0FE2E6F1E0EC0FF21DC4916F935F
:105630007F936C2F72EB679F7F916F911694079405
:10564000169407941694079416940794A0919C0AB4
:10565000B0919D0AA00DB11DA0939C0AB0939D0A24
:1056600020C0B295CB0FE2E6F1E0EC0FF21DC49141
:105670006F937F936C2F72EB679F7F916F9116945E
:105680000794169407941694079416940794A0917F
:105690009C0AB0919D0AA019B109A0939C0AB093ED
:1056A0009D0AA091AE28A215E9F0B091AF28C09153
:1056B000B028CA0FC03408F0C0E0C093B028C69527
:1056C000C4FF01C002C0CF7003C0C06FC09500C04E
:1056D000B295CB0FE2E6F1E0EC0FF21DC491C69556
:1056E000C093B128B091B228B215E9F0A0910D286D
:1056F000C0910828DA2FEC2FE295D07FE07FED17DC
:1057000009F0AE2FB7FD04C0AB0F28F4A0EF03C023
:10571000AB0F08F0A0E0A0930D28A07FA295C07F5A
:10572000CA2BC0930828E091B828F091B928309688
:1057300019F1A091BC28B091BD28C0919C0AD091CC
:105740009D0AEC1BFD0B08F468F02092BC28209207
:10575000BD282092B8282092B928B091B728B093DC
:105760000F280AC0C091BA28D091BB28AC0FBD1F2A
:10577000A093BC28B093BD28E091BF28F091C02829
:10578000309619F1A091C328B091C428C0919C0A09
:10579000D0919D0ACE1BDF0B08F468F02092C3283D
:1057A0002092C4282092BF282092C028B091BE2801
:1057B000B0930F280AC0C091C128D091C228AC0F65
:1057C000BD1FA093C328B093C428E091CD28F091C9
:1057D000CE28309699F1EE0FFF1FA091CF28EA0F47
:1057E000F21DB091D128BA1729F4A091D028AB1797
:1057F00010F003C0A395A093CF28B491BF3F69F4E4
:10580000B091D128BF3F29F4B091D028B093CF28D0
:10581000DCCFA250A093CF28D8CFB21541F0B091E1
:10582000A50AB13059F4B1E0B093A50A07C020929F
:10583000A50A2092AC0A2092AD0A00C0E091D228BD
:10584000F091D3283096D9F1EE0FFF1FA091D42804
:10585000EA0FF21DB091D628BA1729F4A091D528E5
:10586000AB1710F003C0A395A093D428B491B0381F
:1058700009F041C0A150A093D428B091D728B130ED
:1058800048F0B091D628BF3FD1F4B091D528BF3FA2
:1058900099F415C0B091D628BF3F21F4B091D52816
:1058A000BF3F51F4C091EA28D091EB28209669F4CB
:1058B000A150A093D428C2CFB093D428BFCFC09119
:1058C000EA28D091EB28209699F0D695C795D795E0
:1058D000C795D795C795D795C795D795D295C093B6
:1058E000EA28D093EB28CF70A0911228AC0F2EC0DD
:1058F000A09112282BC02092D8282092D92820923B
:10590000DF28A091D728A13010F069F00EC0A09137
:105910001228AB0FB7FD04C0A735C0F0A6E516C02E
:10592000A7FDA0E013C0AB2F11C0A0911228AB0FB0
:10593000B7FD08C0A0931228A73540F0A6E5A093B4
:10594000122804C0A7FDA0E0A0931228E4E9F0E02B
:10595000AA0FEA0FF21DA591B491A093AC0AB093DF
:10596000AD0AA093F628B093F72800C0E091DA289A
:10597000F091DB28309609F423C0EE0FFF1FA091B1
:10598000DC28EA0FF21DB091DE28BA1729F4A091A5
:10599000DD28AB1710F003C0A395A093DC28B491C9
:1059A000B03879F4A150A093DC28B091DE28BF3F35
:1059B00039F4B091DD28BF3F19F0B093DC28D6CF81
:1059C000B0E06F937F936B2F72EB67037F916F91C2
:1059D00016940794169407941694079416940794B3
:1059E00013FE07C0C0EF1C2AB77019F0B1E00B0E10
:1059F000121CA091D828B091D9280A0E1B1E009223
:105A0000D8281092D928A091AC0AB091AD0AA00D67
:105A1000B11DC091EE28D091EF28AC1BBD0BC091F9
:105A2000F228D091F328AC0FBD1FC0910129D0916D
:105A30000229AC0FBD1FC0910829D0910929AC1BC8
:105A4000BD0BC0910F29D0911029AC0FBD1FC9E526
:105A5000D0E0AC17BD0730F0CAE5D9E5AC17BD07FB
:105A600020F406C0C9E5D0E003C0C9E5D9E500C00F
:105A7000A093AC0AB093AD0AE091E028F091E12840
:105A8000309609F43CC0EE0FFF1FA091E228EA0F08
:105A9000F21DB091E428BA1729F4A091E328AB17BE
:105AA00010F003C0A395A093E228B491B03889F414
:105AB000A150A093E228B091E428BF3F39F4B091FF
:105AC000E328BF3F19F0B093E228D6CFB091DF288A
:105AD00005C0A091DF28BA0FB093DF286F937F93A2
:105AE0006B2F72EB67037F916F91A091AC0AB0911D
:105AF000AD0AA00DB11DA093AC0AB093AD0AE09120
:105B0000EC28F091ED28309651F0A091EE28B0915C
:105B1000EF28AE0FBF1FA093EE28B093EF28E091BF
:105B2000F028F091F128309651F0A091F228B09130
:105B3000F328AE0FBF1FA093F228B093F328E09193
:105B4000F828F091F928309609F448C0A091F4287B
