:020000020000FC
:040000000C945B13EE
:04001C000C94021826
:100024000C9409170C9414170C9409170C942B179F
:040034000C94781799
:040064000C94C5171C
:100090000C94D017C758CC53184FA74A77468242C2
:1000A000C73E413BED37CA34D331072F642CE629D4
:1000B0008C2754253B234121631FA01DF71B651A84
:1000C000EA1884173216F314C613AA129E11A1104F
:1000D000B20FD00EFB0D320D750CC20B190B790A45
:1000E000E3095509CF085008D9076807FE069906A5
:1000F0003A06E1058C053D05F104AA0467042804CD
:10010000EC03B4037F034D031D03F002C6029E02FD
:100110007902550234021402F601DA01BF01A60188
:100120008F01780163014F013C012B011A010A0183
:10013000FB00ED00E000D300C700BC00B200A80047
:100140009E002C005900B2006501CB0230049605D8
:10015000FB06D108160B96102C164321592CC958B2
:1001600092B100000000000000000000000000004C
:10017000000000000000010101010202020202026F
:10018000020200000001010202030303040404044C
:100190000404000001020203030404050506060628
:1001A0000606000001020304050506060707080805
:1001B00008080001020304060708090A0A0B0C0CD0
:1001C0000C0C0001030507080A0C0D0E0F1011128C
:1001D000121200020406080A0C0E10111314151650
:1001E0001616000205070A0C0F111314161718191A
:1001F0001A1A000306090C0F121417191B1D1E1FD3
:1002000020200004080C1014171B1E212325272969
:100210002A2A00050B11161B2025292D31343638CA
:10022000393A00081019212930373D43484C5053C2
:100230005556000C1824303B465059626970757948
:100240007C7E00122537495A6A7987939EA8B0B6FA
:10025000BBBE0018314A61788DA1B4C5D4E0EBF47F
:10026000FAFD000306090B0E111316181B1D1F22A1
:100270002426282A2C2E3032343638393B3D3E4055
:1002800042000002030507080A0C0D0F1012141596
:1002900017181A1B1D1E202123242527282A2B2C42
:1002A0002E2F313233343637383A3B3C3D3F4041D4
:1002B000424445464748494B4C4D4E4F505153548C
:1002C00055565758595A5B5C5D5E5F606162636466
:1002D00065666768696A6B6C6D6E6F707172737357
:1002E0007475767778797A7A7B7C7D7E7F7F808162
:1002F000828384848586878888898A8B8B8C8D8E7F
:100300008E8F9091919293949495969697989899B0
:100310009A9B9B9C9D9D9E9F9FA0A0A1A2A2A3A4EF
:10032000A4A5A6A6A7A7A8A9A9AAAAABACACADAD3F
:10033000AEAFAFB0B0B1B1B2B3B3B4B4B5B5B6B699
:10034000B7B8B8B9B9BABABBBBBCBCBDBD004C01EB
:100350004D0205078A09E00D091175022F07900962
:10036000E00D09119C024A078A09E00D0911B60245
:1003700077079609E00D0911CE02A007D609E40D12
:100380000111D6020507DC09E80DFF100C032F0749
:100390001E0A260EFF1041034A07630A5F0EFF1074
:1003A00076037707A60A9A0EFF10AA030507DC0951
:1003B000E80DFF10D1032F071E0A260EFF10EC03D5
:1003C0004A07630A5F0EFF101804A407E90AD20E59
:1003D000FF104504D1079D09060FFF105804E307DD
:1003E000AA0B380FFF106304EF07A70D380FFF109B
:1003F0007F0408086E0B380FFF108D04D1072D0BFA
:10040000610FFF10B804E307E40BA00FFF10DE0438
:100410001708250CA00FFF10FA043308660CDA0F3A
:10042000FF1015053C08A40C1010FF1041056908C9
:10043000E60C5210FF1015059B08270D9510FF10B4
:100440006C05C7086A0DCF10FF109505EF08DC0991
:10045000E80DFF10CA0519091E0A260EFF10FF0538
:100460003409630A5F0EFF1034066109A60A9A0E6A
:10047000FF106306EF08DC09E80DFF108A06190972
:100480001E0A260EFF10AE063409630A5F0EFF1027
:10049000DA066109A60A9A0EFF10F0032163E30150
:1004A000FA00EB00F6016CE3066A5A682D63E3017B
:1004B000685A682B636BF1025A672F63F7016BF17F
:1004C000025A672F63685A682B6369F1025A6728DA
:1004D00063685A682B6369F102E309692B63E301DE
:1004E000F7126CE306705A68FF002163E301FA001B
:1004F0006CE3066A5A682D63E301685A682C636AE4
:10050000E30967F1025A672D63E3016BF1025A6751
:100510002F63685A6828636CE306701C64E32AFA48
:1005200002F60068F1022468F104236A1A68F102F5
:100530002368F104216AFF0015E32A681D68186822
:10054000156A15681D6818681A6C266A26682B6873
:100550002868286A2168266A1F6C1A681C68236844
:100560001F681A68216818682468FF0021E32A6858
:100570002D681D681A681D681A6829682B681F682D
:100580002B6823681F681A681F68266A28682B680A
:100590002D6828682B6A2B682D78FF002161E32BDA
:1005A000E703FA02EBFC6DEE009FFF002165E32AF2
:1005B000FA01EBFCE700F60068246568296568210C
:1005C00065682465682965682D65681765681F6515
:1005D000682365682B65681F6568236568266568FC
:1005E0002B65682365682865682D6568306568280F
:1005F00065682D65683065682865682D65683065B3
:10060000682865682D65683065682465682D6568AB
:100610003065682D6568FF002165E32AFA01F00363
:10062000E70068246568296568216568246568298C
:1006300065682D65682465682065682365682D6593
:10064000682065682365682665682D656823656888
:100650002865682D65683065682865682D6568308F
:1006600065682865682D65683065682865682D654A
:10067000683065682465682D65683065682D656833
:10068000FF002165E32AFA01F003E70068246568AA
:100690002965682165682465682965682D65682471
:1006A00065682065682365682C6568206568236532
:1006B000682665682C65682365682865682D656807
:1006C0003065682865682D65683065682865682D1F
:1006D00065683065682865682D65683065682465DB
:1006E000682D65683065682D6568FF001865E32A28
:1006F00068185C681D65681D5C681865681D65681C
:100700002965682465682365682B65682665682304
:1007100065682B65682365682665682365682865B4
:10072000682B65682D65682865682B65F601682B60
:100730005C682865682D65683065F600682F656817
:100740002B656826656824656828656824656823C4
:100750006568FF001D65E301FA00EB006CE3066AC3
:100760005C682465E301685C6823656BF1025C6783
:1007700026656BF1025C672B65685C68286569F12A
:10078000025C672165685C68246569F1025C672129
:100790006567F1035C672765F7116CE306705C68B9
:1007A000FF001D65E301FA006CE3066A5C682465DE
:1007B000E301685C6828656AE30967F1025C672801
:1007C00065E3016BF1025C672C65685C6824656C0D
:1007D000E30678EBFE6EFF001D65E301FA00EB0017
:1007E0006CE3066A5C682465E301685C6823656BFA
:1007F000F1025C6724656BF1025C672665685C68E2
:10080000286569F1025C672165685C682B6569F1A0
:10081000025C672165685C682D656AE30969F1021D
:100820005C672F65E3016AE30969F1025C67FF0019
:100830003065E30169F1025C672965685C68E3067D
:100840006A2B65E30167F1025C672D6567F1025C65
:10085000672B656BF1025C6723656BF1025C6724B3
:1008600065685C682665685C681F6569F1025C679D
:1008700023656BF1025C672365F7116CE3066A5729
:100880006B235CE30AFA0169FF00E3006B245CE37D
:100890000A6EE30672586A285CE30A6A586A235CA7
:1008A0006EE3066A586A285CE30A6EE30669FF0095
:1008B000E3006B205CE30AF7116EE3067E587E21AD
:1008C0005CE30A69FF00E30067235CE30A68586899
:1008D000235CF7116E58E3066A1D5CE30A6A586AE6
:1008E000235C6A246A236EE3066A586A265CE30A7C
:1008F0006E58E3066A275CE30AF71169FF00E3001C
:100900006B245CE30A6EE3067E5876215CE30A6A98
:1009100058E3066A235CE30A69FF2D61E32FFA01BD
:10092000EBF66A1C61E328EB0068216824682868FC
:100930002D68306828682D6830682F68306828680E
:100940002B682D682B61E32FFA01EBF66A1C61E33B
:1009500028EB00681F68236828682B682F682868C0
:100960002F682868376832682F682B682668FF0070
:100970002661E32FFA01EBF66A1A61E328EB0068BF
:100980001E6823682668236826682A682D682F68F1
:1009900032682F6832682A682368236826682468CA
:1009A0002168266823681E681A681868176818681E
:1009B0001A681E68236824682368FF002062E30A1F
:1009C000F7116E59E3066A1862E30A6A596A1F62F0
:1009D0006A216A1F6EE3066A596A1F62E30A685950
:1009E000682162685968236268266823681F682145
:1009F000681C68FFE3006CE306801366E303FA00FB
:100A000069F1025D671066685D68136669E9A3684D
:100A1000F1025D671366F722E9006E5D682F65FAE3
:100A200002F6016DF1025C67FF001D60E30CE57CDE
:100A3000F600FA036A2466E59C6A1D60E57C6A2478
:100A400066E59C6A1F60E57C6A2366E58C6A1F6028
:100A5000E57C6A2366E5FC6A2160E57C6A2466E53C
:100A60009C6A2160E57C6A2466E59C6A2160E57CDD
:100A70006A2466E59C6A2160E57C6A2466E59C6AD6
:100A8000FF001D60E30CE57CF6006A2466E59C6AC5
:100A90001D60E57C6A2466E59C6A2060E58C6A231B
:100AA00066E59C6A2060E58C6A2366E59C6A2160A5
:100AB000E57C6A2466E59C6A2160E57C6A2666E539
:100AC0007C6A2160E57C6A2866E59C6A2160E57C99
:100AD0006A2D66E57C6AFF001D60E30CE57CF6008C
:100AE000FA036A2466E59C6A1D60E57C6A2466E573
:100AF0009C6A1F60E57C6A2366E58C6A1F60E57C62
:100B00006A2366E58C6A3061E303E500F60169F16A
:100B10000259672D616A596A2B6167F10259672B87
:100B200061F7126EE3066E5968FF2165E328FA0249
:100B3000EBFAF60068246568296568216568246514
:100B4000682965682D65681765681F65682365688D
:100B50002B65681F65682365682665682B656823B3
:100B600065682865682D65683065682865682D6545
:100B7000683065682865682D65683065682865682F
:100B80002D65683065682465682D65683065682D59
:100B90006568FF002165E328FA02F003E700682496
:100BA00065682965682165682465682965682D651B
:100BB000682465682065682365682D656820656818
:100BC0002365682665682D65682365682865682D36
:100BD00065683065682865682D65683065682865D2
:100BE000682D65683065682865682D6568306568BA
:100BF0002465682D65683065682D6568FF0021658E
:100C0000E328FA02F003E700682465682965682193
:100C100065682465682965682D65682465682065B0
:100C2000682365682C6568206568236568266568A3
:100C30002C65682365682865682D656830656828B7
:100C400065682D65683065682865682D656830655C
:100C5000682865682D65683065682465682D656855
:100C60003065682D6568FF001865E3286A1D656AB0
:100C70001865681D65682965682465682365682BA3
:100C800065682665682365682B6568236568266541
:100C9000682365682865682B65682D656828656820
:100CA0002B65F6016A2865682D65683065F6006871
:100CB0002F65682B65682665682465682865682443
:100CC0006568236568FF1D66E301FA02EB006CE3CB
:100CD000066A5C682465E301685C6823656BF10261
:100CE0005C6726656BF1025C672B65685C6828654C
:100CF00069F1025C672165685C68246569F1025CE2
:100D000067216567F1035C672765F7116CE306707F
:100D10005C68FF001D65E301FA026CE3066A5C682B
:100D20002465E301685C6828656AE30967F1025C91
:100D3000672865E3016BF1025C672C65685C6824D9
:100D4000616CE3066823E3016CE3066821E3016C50
:100D5000E306681FE3016CE30668FF001D65E3011D
:100D6000FA02EB006CE3066A5C682465E301685CE8
:100D70006823656BF1025C6724656BF1025C672692
:100D800065685C68286569F1025C672165685C6874
:100D90002B6569F1025C672165685C682D656AE313
:100DA0000969F1025C672F65E3016AE30969F102F1
:100DB0005C67FF003065E30169F1025C67296568E3
:100DC0005C68E3066A2B65E30167F1025C672D65E9
:100DD00067F1025C672B656BF1025C6723656BF161
:100DE000025C672465685C682665685C681F6569E5
:100DF000F1025C6723656BF1025C672365F7116C98
:100E0000E306705E67EC0567FF002165E301FA0009
:100E1000EB00F003E7006CE3066A5C682D65E30114
:100E2000685C682B656BF1025C672F65F7016BF1FD
:100E3000025C672F65685C682B6569F1025C672856
:100E400065685C682B6569F102E30968F1025C671B
:100E50002B65E301F7126CE306705C68FF00216507
:100E6000E301FA006CE3066A5C682D65E301685CE7
:100E7000682C656AE30967F1025C672D65E3016B25
:100E8000F1025C672F65685C6828656CE30678EBA7
:100E9000FE6EFF002165E301FA00EB006CE3066AD9
:100EA0005C682D65E301685C682C656BF1025C672A
:100EB0002C65F7116BF1025C672F65685C68306523
:100EC00069F1025C671C65685C682F6569F1025C0A
:100ED000671C65685C6830656AE30969F1025C67F4
:100EE0003265E3016AE30969F1025C67FF0034657A
:100EF000E30169F1025C672D65685C68E3066A2FAF
:100F000065E30167F1025C67306567F1025C672F9A
:100F1000656BF1025C672B656BF1025C67286568A5
:100F20005C682B65685C68286569F1025C672B6505
:100F30006BF1025C672C65F7016CE306705E68FF7D
:100F4000E300EBFCE703A6FF3465E30169F1025C13
:100F5000672D65685C68E3066A2F65E30167F10247
:100F60005C67306567F1025C672F656BF1025C6757
:100F70002B656BF1025C672865685C682B65685CB3
:100F800068286569F1025C672B656BF1025C672C70
:100F900065F7016CE3066A2365E30AFA016A5C6A95
:100FA000FF002465E30A6EE306725C6A2865E30AC3
:100FB0006A5C6A23656EE3066A5C6A2865E30A6E0A
:100FC000E3066A5C6AFF2065E30AF7116EE3067EBA
:100FD0005C7E2165E30A6A2365685C68FF0023651F
:100FE000E30AF7116E5CE3066A1D65E30A6A5C6A50
:100FF00023656A246A236EE3066A5C6A2665E30A4F
:101000006E5CE3066A2765E30AF7116A5C6AFF0013
:101010002465E30A6EE3067E5C762165E30A6A5C7A
:10102000E3066A2365E30A6A5CE3066AFF00236558
:10103000E30AF7116E5CE3066A1D65E30A6A5C6AFF
:1010400023656A246A236EE3066A5C6A2365E30A01
:10105000685C682465685C682665682B6826682378
:101060006824682168FFE3006CE306982F65E303BA
:10107000FA026DF1025C67FF3065E3036AE3096918
:10108000F1025C672865E30369F1025C673065681B
:101090005C682F6569F1025C672D65685C682B658B
:1010A00069F1025C672965685C68286569F1025C22
:1010B000672B65685C68266569F1025C672865686E
:1010C0005C6824656AE3096C5C682465E303685C1A
:1010D00068FF2665E30369F1025C672865685C6860
:1010E0002B6569F1025C672865685C68266569F1B3
:1010F000025C672865685C682865F84269F1025CF3
:10110000672465685C68216569F1025C672465682D
:101110005C681F65691F60EBF6672161671F626786
:101120002163671F64672165EB006AE3096A5C6AF3
:101130003065E3036AFFE3006AE30969F1026728A7
:1011400065E30369F1025C673065685C682F656977
:10115000F1025C672D65685C682B6569F1025C676C
:101160002965685C68286569F1025C672B65685CC5
:1011700068266569F1025C672865685C6824656AB1
:10118000E3096C5C682465E303685C68FF0026651E
:10119000E30369F1025C672865685C682B6569F1A7
:1011A000025C672865685C68266569F1025C6728EF
:1011B00065685C682B6569F1025C672D65685C6831
:1011C000306569F1025C672D656A5C6A2B6567F1C1
:1011D000025C672B65F7126EE3066E5C68FF2165A3
:1011E000E301FA03EB00F003E7006CE3066A5C68D6
:1011F0002D65E301685C682B656BF1025C672F6508
:10120000F7016BF1025C672F65685C682B6569F11B
:10121000025C672865685C682B6569F102E3096810
:10122000F1025C672B65E301F7126CE306705C6802
:10123000FF002165E301FA036CE3066A5C682D6533
:10124000E301685C682C656AE30967F1025C672D5D
:1012500065E3016BF1025C672F65685C6828656C6B
:10126000E30678EBFE6EFF002165E301FA01EB0077
:101270006CE3066A5C682D65E301685C682C656B4D
:10128000F1025C672C65F7116BF1025C672F6568F2
:101290005C68306569F1025C671C65685C682F6595
:1012A00069F1025C671C65685C6830656AE309691E
:1012B000F1025C673265E3016AE30969F1025C6788
:1012C000FF003465E30169F1025C672D65685C68C5
:1012D000E3066A2F65E30167F1025C67306567F139
:1012E000025C672F656BF1025C672B656BF1025C3A
:1012F000672865685C682B65685C68286569F10229
:101300005C672B656BF1025C672C65F7016CE3068B
:10131000705E68FF1166E301760B76157E136EFF33
:1013200011E30176147618761576FF0011E3017645
:1013300013761576096DEE006FFF15E30069F10273
:1013400057671C6669F1025767156669F1025767AE
:101350001C6669F1025767156669F10257671C66DA
:1013600069F1025767156669F10257671C6669F1F2
:10137000025767136669F10257671C6669F10257E5
:1013800067136669F10257671C6669F102576713B4
:101390006669F10257671C6669F10257671366694F
:1013A000F10257671C6669F1025767FF2166E30186
:1013B000E7106DEE009FFF0011E301E70069F10205
:1013C00057671D6669F1025767116667F102576733
:1013D000156667F10257671D6669F1025767136664
:1013E00069F10257671F6669F1025767136669F171
:1013F0000257671F6669F10257671066E70069F1D7
:101400000257671C6669F1025767106667F1025759
:1014100067136667F10257671C6669F10257671523
:101420006669F1025767216669F1025767136669B9
:10143000F10257671F6669F1025767FF1166E30102
:10144000E70069F10257671D6669F1025767116687
:1014500067F1025767156667F10257671D6669F104
:10146000025767146669F1025767206669F10257EF
:1014700067146669F1025767206669F102576710C1
:1014800066E70069F10257671C6669F10257671049
:101490006667F10257E30A672466E30167F10257C2
:1014A00067286669F1025767216669F10257671A72
:1014B0006669F10257671F6669F102576717666927
:1014C000F1025767FF001166E301E70069F1025777
:1014D000671D6669F1025767116667F10257671564
:1014E0006667F10257671D6669F1025767146669FE
:1014F000F1025767206669F1025767146669F102C5
:101500005767206669F10257671066E70069F102C4
:1015100057671C6669F1025767106667F1025767E3
:10152000136667F10257671C6669F1025767156613
:1015300069F1025767216669F1025767136669F11D
:101540000257671F6669F1025767FF001166E301E2
:10155000E70069F10257671D6669F1025767116676
:1015600067F1025767156667F10257671D6669F1F3
:10157000025767136669F10257671F6669F10257E0
:1015800067136669F10257671F6669F102576715AD
:1015900066E70069F1025767216669F1025767152E
:1015A0006667F1025767216667F10257671566693A
:1015B000F1025767156669F1025767216669F10202
:1015C00057671C6669F1025767286669F102576719
:1015D000FF001166E301E70069F10257671D6669C4
:1015E000F1025767116667F1025767156667F102E6
:1015F00057671D6669F1025767136669F1025767FD
:101600001F6669F1025767136669F10257671F6623
:1016100069F10257671566E70069F10257672166AD
:1016200069F1025767156667F1025767216667F12E
:10163000025767156669F1025767156669F1025727
:1016400067216669F10257672E66E32369F1025745
:10165000672B6669F1025767FF001566E30069F1C1
:101660000257671C6669F1025767156667F10257F2
:1016700067186667F10257671C6669F102576715BC
:101680006669F10257671C6669F10257671566695A
:10169000F10257671C6669F1025767136669F10228
:1016A00057671C6669F1025767136667F10257674F
:1016B000176667F10257671C6669F1025767136680
:1016C00069F10257671C6669F1025767136669F191
:1016D0000257671C6669F1025767FF001566E30051
:1016E00069F10257671C6669F1025767106669F174
:1016F0000257671C6669F1025767156669F1025760
:10170000671C6669F1025767156669F10257671C25
:101710006669F1025767156669F10257671C6669C9
:10172000F1025767106669F10257671C6669F1029A
:101730005767106669F1025767106669F1025767CB
:101740003366E32369F10257671066E30069F1022B
:101750005767FF000E66E30069F102576715666977
:10176000F10257670E6669F1025767156669F10263
:1017700057670E6669F1025767156669F102576788
:101780000E6669F1025767156669F10257670E66C2
:1017900069F1025767156669F10257670E6669F1CC
:1017A000025767156669F10257670E6669F10257BD
:1017B00067156669F10257670E6669F1025767128D
:1017C0006669F1025767FF001A66E30069F1025784
:1017D00067216669F10257671A6667F10257671E4B
:1017E0006667F1025767216669F10257671A6669F1
:1017F000F1025767216669F10257671A6669F102BB
:101800005767216669F10257671A6669F1025767DF
:10181000216669F10257671A6667F10257671E660B
:1018200067F1025767216669F10257671A6669F125
:10183000025767216669F10257671A6669F1025714
:10184000671E6669F1025767FF001166E30069F1E0
:10185000025767186669F1025767116667F1025708
:1018600067156667F1025767186669F102576711D5
:101870006669F1025767186669F102576711666970
:10188000F1025767186669F1025767136669F1023A
:1018900057671A6669F1025767136667F10257675F
:1018A000176667F10257671A6669F1025767136690
:1018B00069F10257671A6669F1025767136669F1A1
:1018C0000257671A6669F1025767FF001566E30061
:1018D00069F10257671C6669F1025767106667F184
:1018E000025767156667F10257671C6669F1025770
:1018F00067186669F1025767106669F10257671C3D
:101900006669F1025767156669F1025767156669DE
:10191000F10257671C6669F1025767106667F102AA
:101920005767186667F1025767216669F1025767C2
:101930001F6669F10257671F6669F10257E3256761
:101940002E66E300E7106EFF11E300E70069F10285
:101950005767116669F10257673366E32369F1023D
:1019600057671166E30069F1025767136669F10270
:101970005767136669F10257673366E32369F1021B
:1019800057671366E30069F1025767156669F1024C
:101990005767156669F10257673366E32369F102F9
:1019A00057671566E30069F1025767156669F1022A
:1019B0005767156669F10257673366E32369F102D9
:1019C00057671566E30069F1025767FF1166E30088
:1019D00069F1025767116669F10257673366E323BD
:1019E00069F10257671166E30069F10257671466EF
:1019F00069F1025767146669F10257673366E3239A
:101A000069F10257671466E30069F10257671566CA
:101A100069F1025767156669F10257673366E32378
:101A200069F10257671566E30069F10257671566A9
:101A300069F1025767156669F10257673366E32358
:101A400069F1025767336669F1025767FF00116653
:101A5000E300E70069F10257671D6669F102576705
:101A60003366E32369F10257671D66E30069F102FB
:101A70005767136669F10257671F6669F102576776
:101A80003366E32369F10257671F66E30069F102D9
:101A90005767156669F1025767216669F102576752
:101AA0003366E32369F10257672166E30069F102B7
:101AB0005767156669F1025767216669F102576732
:101AC0003366E32369F10257672166E30069F10297
:101AD0005767FF001166E300E70069F10257671DD1
:101AE0006669F10257673366E32369F10257671DA0
:101AF00066E30069F1025767136669F10257671FD1
:101B00006669F10257673366E32369F10257671F7D
:101B100066E30069F1025767156669F102576721AC
:101B20006669F10257673366E32369F1025767215B
:101B300066E30069F1025767156669F1025767337A
:101B400066E323683368336A30682E68FF0011E368
:101B50000069F1025767186669F1025767116669F3
:101B6000F1025767186669F1025767116669F10259
:101B70005767186669F1025767116669F10257677E
:101B8000186669F1025767136669F10257671A66AA
:101B900069F1025767136669F10257671A6669F1BE
:101BA000025767136669F10257671A6669F10257AF
:101BB00067136669F10257671A6669F1025767FF92
:101BC000085CE307EA13A6FF0664E322EA00A6FF27
:101BD0000A66E301EBE867EBFA68EBFE670464E38F
:101BE00011EB00680B5F680864E3196A0464E31191
:101BF000680B5F680362E310680462680562E314BF
:101C0000680B5FE311680864E3196A0B5FE311680E
:101C10000B64680262E3106A0464E311680B5F6896
:101C20000864E3196A0464E311680B5F680B5F687A
:101C30000262E310680462E311680B5F680864E302
:101C4000196A0B5FE311680B6468FF000262E3101E
:101C50006A0464E311680B5F680864E3196A04644A
:101C6000E311680B5F680B5F680262E3106804624F
:101C7000E311680B5F680864E3196A0B5FE311689E
:101C80000B64680262E3106A0464E311680B5F6826
:101C90000864E3196A0464E311680B5F680B5F680A
:101CA0000262E310680462E311680B5F680864E392
:101CB000196A0B5FE311680864E31968FF000666A0
:101CC000E32267EBFA690464E311EB00680B5F68D9
:101CD0000864E3196A0464E311680B5F680362E354
:101CE00010680462680562E314680B5FE31168081A
:101CF00064E3196A0B5FE311680B64680262E31026
:101D00006A0464E311680B5F680864E3196A046499
:101D1000E311680B5F680B5F680262E3106804629E
:101D2000E311680B5F680864E3196A0B5FE31168ED
:101D30000B6468FF0262E3106A0464E311680B5FDE
:101D4000680864E3196A0464E311680B5F680B5F59
:101D5000680262E310680462E311680B5F6808645C
:101D6000E3196A0B5FE311680B64680262E3106AAF
:101D70000464E311680B5F680864E3196A0464E3B0
:101D800011680B5F680B5F680262E310680864E328
:101D9000196808646808646A0B5FE311680864E303
:101DA0001968FF000262E3106A0464E311680B5FC4
:101DB000680864E3196A0464E311680B5F680B5FE9
:101DC000680262E310680462E311680B5F680864EC
:101DD000E3196A0B5FE311680B64680262E3106A3F
:101DE0000464E311680B5F680864E3196A0464E340
:101DF00011680B5F680B5F680262E310680864E3B8
:101E0000196808646808646A08646AFF0A66E3017E
:101E1000EBE867EBFA68EBFE670D5FE31DEB006A2A
:101E20000762E311680D5FE310680DE31D6A02614C
:101E3000E3106A0D5FE31D6A0D5FE310680762E35C
:101E400011680DE31D6A0262E3106A0D5FE31D6A0B
:101E50000762E311680D5FE310680DE31D6E0D6A04
:101E60000762E311680D5FE310680DE31D6AFF0070
:101E70000262E3106A0C5FE31D6A0662E312680CFB
:101E80005FE310680CE31D6E0C6A0C5FE3106806DC
:101E900062E312680CE31D6A0262E3106A0C5FE3FE
:101EA0001D6A0662E312680C5FE310680CE31D6EA6
:101EB0000C6A0662E312680C5FE310680CE31D6AAB
:101EC000FF000A66E301EBE867EBFA68EBFE670DDB
:101ED0005FE31DEB006A0762E311680D5FE31068C2
:101EE0000DE31D68075CE311680261E3106A0D5F92
:101EF000E31D6A0762E311680D5FE310680DE31DDF
:101F000068075CE311680262E3106A0D5FE31D6A13
:101F10000762E311680D5FE310680DE31D68075C5D
:101F2000E311680262E3106A0DE31D6A0762E311C0
:101F3000680D5FE310680DE31D68075CE31168FF3F
:101F40000262E3106A0D5FE31D6A0762E311680D28
:101F50005FE310680DE31D68075CE311680262E34C
:101F6000106A0DE31D6A0762E311680D5FE31068F4
:101F70000DE31D68075CE311680262E3106A0D5F00
:101F8000E31D6A0762E311680D5FE310680DE31D4E
:101F900068075CE311680262E3106A0DE31D6A07DB
:101FA00062E311680D5FE310680DE31D68075CE3F1
:101FB0001168FF000262E3106A0D5FE31D6A0762A9
:101FC000E311680D5FE310680DE31D68075CE31122
:101FD000680262E3106A0DE31D6A0762E311680D8F
:101FE0005FE310680DE31D68075CE311680262E3BC
:101FF000106A0D5FE31D6A0762E311680D5FE3106D
:10200000680DE31D68075CE311680262E3106A0D66
:102010005DE31E680D5B680665E322EBFC6EFF0066
:102020000364E310EB006A0B5FE31E68035BE310DD
:10203000680864E3196A0B5FE31E68085BE31968CC
:102040000B5BE31E680B59680364E310680B5BE3EA
:102050001E680B5F68035BE310680864E3196A0B92
:102060005FE31E68085BE319680364E310680B5BB9
:10207000E31E680864E3196A0B5FE31E68085BE30C
:1020800019680364E310680B5BE31E680364E310E4
:1020900068035B680864E3196A0B5FE31E68085B0A
:1020A000E31968FF0364E310680B5BE31E680B5FD2
:1020B00068035BE310680864E3196A0B5FE31E685A
:1020C000085BE319680B5BE31E680B59680364E364
:1020D00010680B5BE31E680B5F68035BE310680826
:1020E00064E3196A0B5FE31E68085BE31968036425
:1020F000E310680B5BE31E680864E3196A0B5FE397
:102100001E68085BE319680364E310680B5BE31E59
:10211000680364E31068035B680864E3196A0B5F93
:10212000E31E680864E31968FF000666E322EBF823
:102130006A0464E310EB00680B5FE311680864E372
:10214000196A04E310680B5FE311680264E3106A24
:102150000464680B5FE311680864E3196A0B5FE3CA
:1021600011680464E3106802646A0464680B5FE346
:1021700011680864E3196A04E310680B5FE31168EF
:102180000264E3106A0464680B5FE311680864E3A7
:10219000196A0B5FE311680464E31068FF000264CE
:1021A000E3106A0464EB00680B5F680864E3196A73
:1021B00004E310680B5F6802646A0464680B5F687C
:1021C0000864E3196A0B5FE3106804646802646AD8
:1021D0000464680B5F680864E3196A04E310680B21
:1021E0005F680264680B680864E31968086468083B
:1021F000646A0B5FE310680864E31968FF00E3009A
:10220000A6FFE300F00369F00467F00369F0049FA0
:10221000FF00E300F00469F00367F00469F003676E
:10222000F00469F00367F00469F00367F00469F0F3
:102230000367F00469F00367F00469F00367F004D2
:1022400069F00367F00469F00367F00469F003675D
:10225000F00469F00367F00469F00367F00469F0C3
:102260000367F00469F00367F00469F00367F004A2
:1022700069F00367FF007011711173117511771107
:1022800079117B117E1181118411871189118B11B4
:102290008D118F1191119311951198119B119E1110
:1022A000A011A411A711AB11AF11B111B311B71146
:1022B000BB11BD11C011C411C711CA11CD11D0116C
:1022C000D311D611D911DC11DE11E011E211E411A4
:1022D000E611E811EA11ED11F011F411F611F911FE
:1022E00000000100FB110100FF11010013120100A9
:1022F000161201001B1205001E12091305001E1202
:10230000101305001E12171305001E121E130100E4
:102310002012010024120100281201002D120100D8
:102320003312010039120100401203004512F0126D
:1023300003005012F51203005712F01201005E1252
:10234000150065122413501303006B12F0121300D2
:102350006B12F012521313006B12F0124E130100A5
:10236000751201007E1215007E12271352131500FC
:102370007E122C1357130100881203009012F812DA
:1023800013009012F8124E1303009312F812050076
:10239000991230130500991233130500AA1236134F
:1023A0000900B4124A130500AA1240130900B91219
:1023B0004C130500B91243130100C1120100C812E9
:1023C0000100CF120100DA120100DD120100E0125B
:1023D0000100E5120300FB11FD121100EB124E1378
:1023E0001500991227135213040045130300FB1123
:1023F000011302000513FF050F0D0C0BFF00FF2555
:102400000F0C0A0909080808070707070606060649
:102410000605050505050504040404040303030378
:1024200002020201FF00FF030F0BFF00FF080E0D69
:102430000D0C0C0C0BFFFF030F0EFF00FF020BFF38
:10244000FF0604090F0D0BFFFF060F0D020504FF29
:10245000FF080F0D0C0D020504FFFF090F0B0D0FF8
:1024600002070405FF00FF090F0D0C0C0E02050406
:10247000FF00FF0B0F0B0A0A0A0C02020504FF0003
:10248000FF070D0907060500FF00FF130F080606EA
:102490000505050404040403030302020100FF0010
:1024A000FF0B0F080906060504030100FF00FF0BE0
:1024B0000D0A0908070504030200FF00FF0B0E0BBD
:1024C0000706050402020100FF00FF090F090B07C0
:1024D00008050200FF00FF120F07080503030302AF
:1024E000020202010101010100FFFF0F0F0C0B0AA4
:1024F00009080706050403020100FF00FF120F0B85
:10250000070906050505040404030303020100FF8F
:10251000FF0E0C0A0705040404040303030302FF6F
:10252000FF040A0300FFFF090A0300000003020082
:10253000FF00FF1F0F0D0C0B0B0A0A0A09090909FE
:102540000808080808070707070606060505040324
:102550000100FF00FF110F0E0D0C0B0A0908070602
:10256000050403020100FF00FF070F0F0F0F0F000C
:10257000FF00FF0E0F0F0F0F0F0F0F0F0F0F0F0F9B
:1025800000FFFF0B0F0A0501050A0A050100FF0005
:10259000FF0B0F070402060301000100FF00FF14F8
:1025A0000F07050B020608040205040103010002DF
:1025B000010100FFFF020F03FF00FF020F0C03FFEA
:1025C000FF030F0C0804020508FFFF030F0C0906A8
:1025D000040205080BFFFF070B0A0B010200FF00B6
:1025E000FFFF0001010101010080FF0402000180E2
:1025F000FF030000FFFFFFFF8000FF0300000C0C43
:102600008000FFFF00F4FB008000FFFF000C0100D2
:102610008000FF02FDFE0102030302FFFEFD8000B9
:10262000FF0200010000FF00FF0000018000FF0228
:10263000FFFF0101020101FFFFFE8000FF02FBFD21
:102640000204040402FDFB80FF03000DFC80FF0771
:102650000000000000FF8000FF05000000FF800078
:10266000FF020000FF80FF0200000180FFFF0E0D4F
:102670000C0B0A0B0C0D0E0F10111211100F800015
:10268000FF0315128000FF022680FF0202FF01FFF8
:1026900001FF8000FF020F80FF020680FFFF01FFA5
:1026A000FFFF00FFFFFF000000000001FF00FFFF31
:1026B00000000001FF00C8EDC0933400C0E0C093EB
:1026C00061002224C0E3C0930028C0E8C093012821
:1026D000CFEFC0930228C0930328C0930428C0E31F
:1026E000C0930828C0E8C0930928CFEFC0930A28F8
:1026F000C0930B28C0930C28CFEFC0931028C09331
:102700001128C0E3C0931328CFE0C0931428C2E07F
:10271000C0931A2820921B28CFEFC0931F28209225
:10272000202820922128EEE4F3E0E0931828F0938B
:102730001928C591D591C0931C28D0931D282092AB
:102740001E28C591D591CC0FDD1FC0932228D093B0
:10275000232820922428209225282092262820927F
:102760002728C591D591CC0FDD1FC0937128D09338
:102770007228209273282092742820927528209223
:102780007628C591D591CC0FDD1FC093C028D0937A
:10279000C1282092C2282092C3282092C4282092C7
:1027A000C528C591D591CC0FDD1FC0930A29D093C0
:1027B0000B2920920C2920920D2920920E2920927B
:1027C0000F29CFEF20922A28C0932B28C0932C28C2
:1027D00020922F28C0933028C0933128C0933228EC
:1027E00020923728C0933828C093392820923D285A
:1027F000C0933E28C0933F2820924228C09343288C
:10280000C0934428209228282092292820922D28FD
:1028100020922E2820923328209234282092352886
:102820002092362820923A2820923B2820923C2859
:1028300020924028209241280FE0109100281F701C
:10284000909100289073906420920628C0930528E8
:10285000BC2EC1E0AC2EC0900128C2949068CFEF8E
:1028600020924528209246282092472820924828E6
:102870002092492820924A2820924B2820924C28C6
:1028800020924D2820924E2820924F2820925028A6
:102890002092512820925228209253282092542886
:1028A0002092552820925628209257282092582866
:1028B0002092592820925A2820925B2820925C2846
:1028C00020925D2820925E28C0935F28C0936028E4
:1028D0002092612820926228209263282092642806
:1028E00020926528209266282092672820926828E6
:1028F0002092692820926A2820926B2820926C28C6
:1029000020926D2820926E28C0936F28C093702863
:10291000CFEF20927928C0937A28C0937B28209209
:102920007E28C0937F28C0938028C093812820925E
:102930008628C0938728C093882820928C28C0932B
:102940008D28C0938E2820929128C0939228C093FE
:102950009328209277282092782820927C28209211
:102960007D282092822820928328209284282092F9
:1029700085282092892820928A2820928B282092CC
:102980008F28209290282FE0309108283F70D09116
:102990000828D073D062D2959D2B20920E28C09328
:1029A0000D28EC2EC1E0DC2EF0900928F2949860FE
:1029B000CFEF20929428209295282092962820925A
:1029C0009728209298282092992820929A2820923D
:1029D0009B2820929C2820929D2820929E2820921D
:1029E0009F282092A0282092A1282092A2282092FD
:1029F000A3282092A4282092A5282092A6282092DD
:102A0000A7282092A8282092A9282092AA282092BC
:102A1000AB282092AC282092AD28C093AE28C0935A
:102A2000AF282092B0282092B1282092B22820927C
:102A3000B3282092B4282092B5282092B62820925C
:102A4000B7282092B8282092B9282092BA2820923C
:102A5000BB282092BC282092BD28C093BE28C093DA
:102A6000BF28CFEF2092C828C093C928C093CA2896
:102A70002092CD28C093CE28C093CF28C093D028D1
:102A80002092D528C093D628C093D7282092DB283F
:102A9000C093DC28C093DD282092E028C093E12871
:102AA000C093E2282092C6282092C7282092CB28E3
:102AB0002092CC282092D1282092D2282092D3286C
:102AC0002092D4282092D8282092D9282092DA283F
:102AD0002092DE282092DF28C0E04C2FCFEF2092FA
:102AE000E3282092E4282092E5282092E6282092EC
:102AF000E7282092E8282092E9282092EA282092CC
:102B0000EB282092EC282092ED282092EE282092AB
:102B1000EF282092F0282092F1282092F22820928B
:102B2000F3282092F4282092F5282092F62820926B
:102B3000F728C093F828C093F9282092FA28209209
:102B4000FB282092FC282092FD282092FE2820922B
:102B5000FF28209200292092012920920229209208
:102B600003292092042920920529209206292092E7
:102B70000729C0930829C0930929CFEF2092122971
:102B8000C0931329C093142920921729C0931829A0
:102B9000C0931929C0931A2920921F29C093202974
:102BA000C093212920922529C0932629C093272943
:102BB00020922A29C0932B29C0932C2920921029D6
:102BC00020921129209215292092162920921B2942
:102BD00020921C2920921D2920921E292092222910
:102BE00020922329209224292092282920922929E1
:102BF00020921628C0931528C1E05C2F622DCFEFDC
:102C000020922D2920922E2920922F29209230299E
:102C1000209231292092322920923329209234297E
:102C2000209235292092362920923729209238295E
:102C30002092392920923A2920923B2920923C293E
:102C400020923D2920923E2920923F29209240291E
:102C500020924129209242292092432920924429FE
:102C60002092452920924629C0934729C09348299C
:102C70002092492920924A2920924B2920924C29BE
:102C800020924D2920924E2920924F29209250299E
:102C9000209251292092522920925329209254297E
:102CA0002092552920925629C0935729C09358291C
:102CB000CFEFC0B9C0E7C093010AC1E7C0930A0AC9
:102CC000C5E1C093280AC5E0C093290ACBE2C093AE
:102CD0002A0ACAE0C0932B0AC1E4C0932C0ACFE0B1
:102CE000C0932D0AC7E5C093260AC4E1C093270A02
:102CF000CBE0C093000AC0E0C093810AC1E0C0935A
:102D0000850AC0910228C0938C0AC0910328C09301
:102D10008D0AC3E0C093800AB0E0B093910AB1E09D
:102D2000B093950AB0910A28B0939C0AB0910B28F1
:102D3000B0939D0AB3E0B093900AB0E0B093A10ABB
:102D4000B1E0B093A50AB0911028B093AC0AB0914D
:102D50001128B093AD0AB1E0B093A00A7894B0E026
:102D6000B093B10AB1E0B093B50AB0910A28B0931C
:102D7000BC0AB0910B28B093BD0AB3E0B093B00A7F
:102D8000C0910628D0910E28A0FE15C0B21499F06B
:102D9000E0918C0AF9E5EF17E0918D0AF0E0EF077A
:102DA00050F0E0918C0AF6E6EF17E0918D0AF9E514
:102DB000EF0708F401C0CC27D0FE15C0E21499F04B
:102DC000E0919C0AF9E5EF17E0919D0AF0E0EF072A
:102DD00050F0E0919C0AF6E6EF17E0919D0AF9E5C4
:102DE000EF0708F401C0DD27CD0FE2E6F2E0EC0FBB
:102DF000F21DC491D42FD4FDD095DF70ED2FDE0FDE
:102E0000DE0FE2E8F2E0ED0FF21DD491CD0FC1B973
:102E1000B7CFBFB7BF93F89453D09FD0B0E5B0936E
:102E20000B0ABF91BFBF1895BFB7BF93F89448D0A6
:102E300094D0C3FC1BD0F3FC66D095FD02C0B21049
:102E4000BA9491FD02C0E210EA94B1E2B0930B0A89
:102E5000BF91BFBF1895BFB7BF93F894AA0CA21C2F
:102E6000B1E0B093860ABF91BFBF1895BC2DB77073
:102E7000F9F4DF93DC2DD295D77011F4DF9119C0EE
:102E8000A0918C0AB0918D0AB695A795DA95E1F7D5
:102E9000C7FE02C0A095B095D0918C0AAD0FD0911D
:102EA0008D0ABD1FA0938C0AB0938D0ADF9101C0DB
:102EB000CA9497FF0895C0900128C2949F770895FF
:102EC00096FD10C0003011F00A9508950091002879
:102ED0000F7095FF02C01FE00895103009F40895A7
:102EE0001A9508959F7B009100280F701FE00895A8
:102EF000BFB7BF93F894DD0CD21CB1E0B093960A33
:102F0000BF91BFBF1895BF2DB770F9F4DF93DF2DC8
:102F1000D295D77011F4DF9119C0A0919C0AB0919D
:102F20009D0AB695A795DA95E1F7F7FE02C0A09540
:102F3000B095D0919C0AAD0FD0919D0ABD1FA09372
:102F40009C0AB0939D0ADF9101C0FA9493FF089503
:102F5000F0900928F294977F089592FD10C02030D8
:102F600011F02A950895209108282F7091FF02C032
:102F70003FE00895303009F408953A9508959B7F15
:102F8000209108282F703FE00895BFB7BF93F894B1
:102F90004F5F4F71B1E0B093A60ABF91BFBF1895C4
:102FA000BFB7BF93F894A52F67FD0BC0A695A527C3
:102FB000A0FD03C06695579513C06695579560644C
:102FC0000FC0AA0FAA1FAA1FA527A0FD05C06F77D3
:102FD00066955795606804C066955795606800C00F
:102FE000B1E0B093B60ABF91BFBF1895EAE6F4E628
:102FF000ED0FF21DD4910895EAE8F4E6ED0FF21D0D
:10300000D4910895BFB7BF93F894CF93DF93EF9314
:10301000FF93A0911F28AF3FA9F4A0912028A211EF
:103020008BC0A0912128A21196C0A0911A28B0911E
:103030001B28C0911C28D0911D28AC17BD0708F48F
:1030400001C1A0E0E0911828F0911928CC27DD27D4
:10305000A395AA9511F02A96FCCF2296C0931A2820
:10306000D0931B28EC0FFD1FA591B591AA0FBB1F94
:10307000A0932228B0932328A591B591AA0FBB1F36
:10308000A0937128B0937228A591B591AA0FBB1F88
:10309000A093C028B093C128A591B591AA0FBB1FDA
:1030A000A0930A29B0930B29209226282092272842
:1030B0002092242820922528209275282092762874
:1030C00020927328209274282092C4282092C52828
:1030D0002092C2282092C32820920E2920920F29E4
:1030E00020920C2920920D29AFEFA0935F28A09386
:1030F0006028A0936F28A0937028A093AE28A09377
:10310000AF28A093BE28A093BF28A093F828A0932F
:10311000F928A0930829A0930929A0934729A093EF
:103120004829A0935729A0935829A0931F2820929B
:1031300020282092212886C0FF91EF91DF91CF9126
:10314000BF91BFBFF894AFEFA0931F282092202813
:10315000209221281895E0911828F0911928A09123
:103160001A28B0911B281A96A0931A28B0931B28EE
:10317000EA0FFB1FA591B591AA0FBB1FA0932228B0
:10318000B0932328A591B591AA0FBB1FA0937128D6
:10319000B0937228A591B591AA0FBB1FA093C02828
:1031A000B093C128A591B591AA0FBB1FA0930A297E
:1031B000B0930B2920922628209227282092242899
:1031C0002092252820927528209276282092732814
:1031D000209274282092C4282092C5282092C228C8
:1031E0002092C32820920E2920920F2920920C2988
:1031F00020920D29AFEFA0935F28A0936028A093A1
:103200006F28A0937028A093AE28A093AF28A09316
:10321000BE28A093BF28A093F828A093F928A093D4
:103220000829A0930929A0934729A0934829A0938E
:103230005729A0935829A0931F2820922028209234
:10324000212800C0A0912428B0912528109609F0CB
:10325000D7C2E0912228F0912328A0912628B0918E
:103260002728EA0FFB1FB491B73508F47CC1B736A5
:1032700008F4B6C1B33E08F4BDC109F4C0C1B43E00
:1032800009F469C2BF3F09F48BC23196A491AED252
:10329000B55EEEE8F4E6BB0FEB0FF21DC591D491DD
:1032A000EC2FFD2F0994A093452820924628D1CFDA
:1032B00020924B2820924C28209245282092462884
:1032C0006F937F936A2F72EB679F7F916F91169434
:1032D00007941694079416940794169407940092F2
:1032E000472810924828B5CF209247282092482896
:1032F00020924528209246286F937F936A2F72EB85
:10330000679F7F916F911694079416940794169473
:1033100007941694079400924B2810924C2899CF4A
:103320006F937F936A2F72EB679F7F916F911694D3
:103330000794169407941694079416940794009291
:10334000532810925428A21101C083CFA0918C0A57
:10335000B0918D0AA0934F28B09350282092552801
:103360002092562876CFBA2FA07FA295BF70A09347
:103370005728B0935828209259286BCFBA2FA07F96
:10338000A295BF70A0935A28B0935B2820925C2826
:1033900020925D285ECFA0935E285BCFA0931F286C
:1033A00058CFB093202855CFB093212852CFB09159
:1033B0000028B07FBA2BB093002896604ACFA09324
:1033C0001E2847CFA21551F0B0911E28AB1730F43C
:1033D000A0935F28B1E0B093242815C23ACF39CF2B
:1033E00038CF37CF36CF6F937F936A2F72EB679FBB
:1033F0007F916F91169407941694079416940794EE
:1034000016940794009261281092622822CFE091CE
:103410002D28F0912E28309609F01BCFE091352809
:10342000F0913628309609F014CFE0913B28F091C6
:103430003C28309609F00DCFBA2FBF70C0910728F5
:10344000BC0FB73508F0B6E5E4E9F0E0BB0FEB0FD1
:10345000F21DC591D491C0936328D0936428A2959E
:10346000AF70AA0FA3956F937F936A2F72EB679F3C
:103470007F916F911694079416940794169407946D
:103480001694079400926528109266282092672867
:1034900020926828DECEE0912D28F0912E283096DB
:1034A00009F0D7CEE0913528F0913628309609F012
:1034B000D0CEE0913B28F0913C28309609F0C9CE5F
:1034C000BA2FBF70C0910728CB1B08F4C0E0E4E915
:1034D000F0E0CC0FEC0FF21DC591D491C093692898
:1034E000D0936A28A295AF70AA0FA3956F937F938C
:1034F0006A2F72EB679F7F916F91169407941694D1
:103500000794169407941694079400926B281092CF
:103510006C2820926D2820926E289BCEA21551F027
:10352000B0911E28AB1730F4A0936F28B1E0B09390
:10353000242869C18ECEEAE8F4E6EA0FF21DA695CA
:10354000A795A795B0910028CB2FB07CAB1301C0F5
:1035500080CEA490CF73CB2BC09300287ACE79CEA7
:1035600078CE77CE76CEB0930728A3E0B2E0B093C2
:103570002A28A0932F28B0933728B0933D28B093E2
:103580004228209233282092342820923A282092F0
:10359000492820924A2820924D2820924E28209295
:1035A000552820925628A0918C0AB0918D0AA0939C
:1035B0004F28B093502820920128976020926328CA
:1035C00020926428209267282092682820926928F7
:1035D00020926A2820926D2820926E28FDD039CE44
:1035E000B755A0910028A07FAB2BA0930028966030
:1035F000F3D02FCEB656B0932428EED004C120923B
:1036000028282092292820922D2820922E282092A6
:1036100035282092362820923B2820923C28209260
:10362000402820924128209233282092342820924A
:103630003A283196B491EBE3F1E1EB0FF21DEE0F76
:10364000FF1FA591B491AA0FBB1FEA2FFB2FB491C6
:103650003296A6E0AA9519F0B69578F0FBCFA3E0D4
:10366000B2E0B0932A28A0932F28B0933728B093C4
:103670003D28B0934228BAD0ECCDC591D591A53064
:1036800039F0A43079F0A330D9F0A23059F13CC020
:10369000C0932828D093292841D0C0932C28D093B8
:1036A0002B28D8CFC0932D28D0932E282092632882
:1036B000209264282092692820926A283AD0CACFA2
:1036C000C0933528D093362820926328209264280E
:1036D0002092692820926A2821D0C0933928D0935B
:1036E0003828B8CFC0933B28D0933C282092632839
:1036F000209264282092692820926A280FD0C093D3
:103700003F28D0933E28A6CFC0934028D09341288D
:1037100005D0C0934428D09343289CCFEF93FF93C8
:10372000EC2FFD2FEE0FFF1FC591D491FF91EF916C
:103730000895EF93FF93EC2FFD2FEE0FFF1FC59120
:10374000D591C0933128D0933028C491C0933228AA
:10375000FF91EF910895B0912C28BF3F19F0B395D8
:10376000B0932A28B0913128BF3F19F0B395B09398
:103770002F28B0913928BF3F19F0B395B09337285F
:10378000B0913F28BF3F19F0B395B0933D28B09159
:103790004428BF3F19F0B395B09342281DD059CDAE
:1037A000E0911828F0911928A0911A28B0911B28AF
:1037B0001A96A0931A28B0931B28EA0FFB1FA59115
:1037C000B491AA0FBB1FA0932228B0932328209264
:1037D0002628209227283DCDE0912628F091272801
:1037E0003196E0932628F09327280895E091262823
:1037F000F09127283296E0932628F0932728089501
:10380000BA95B0932528A0917328B091742810968A
:1038100009F0D3C2E0917128F0917228A091752827
:10382000B0917628EA0FFB1FB491B73508F47CC13C
:10383000B73608F4B6C1B33E08F4BDC109F4C0C13F
:10384000B43E09F469C2BF3F09F48BC23196A4911A
:10385000AAD2B55EE2ECF4E6BB0FEB0FF21DC59108
:10386000D491EC2FFD2F0994A093942820929528B1
:10387000D1CF20929A2820929B282092942820929F
:1038800095286F937F936A2F72EB679F7F916F915B
:103890001694079416940794169407941694079414
:1038A0000092962810929728B5CF209296282092C1
:1038B000972820929428209295286F937F936A2FBF
:1038C00072EB679F7F916F911694079416940794FB
:1038D000169407941694079400929A2810929B28A5
:1038E00099CF6F937F936A2F72EB679F7F916F9150
:1038F00016940794169407941694079416940794B4
:103900000092A2281092A328A21101C083CFA091F7
:103910009C0AB0919D0AA0939E28B0939F28209264
:10392000A4282092A52876CFBA2FA07FA295BF7099
:10393000A093A628B093A7282092A8286BCFBA2FCF
:10394000A07FA295BF70A093A928B093AA28209227
:10395000AB282092AC285ECFA093AD285BCFA0937C
:103960001F2858CFB093202855CFB093212852CF8D
:10397000B0910828B07FBA2BB093082892604ACF44
:10398000A0931E2847CFA21551F0B0911E28AB1767
:1039900030F4A093AE28B1E0B093732811C23ACFAF
:1039A00039CF38CF37CF36CF6F937F936A2F72EBF3
:1039B000679F7F916F9116940794169407941694BD
:1039C0000794169407940092B0281092B12822CF41
:1039D000E0917C28F0917D28309609F01BCFE09192
:1039E0008428F0918528309609F014CFE0918A2838
:1039F000F0918B28309609F00DCFBA2FBF70C0918F
:103A00000F28BC0FB73508F0B6E5E4E9F0E0BB0FCE
:103A1000EB0FF21DC591D491C093B228D093B32877
:103A2000A295AF70AA0FA3956F937F936A2F72EB45
:103A3000679F7F916F91169407941694079416943C
:103A40000794169407940092B4281092B5282092F7
:103A5000B6282092B728DECEE0917C28F0917D2810
:103A6000309609F0D7CEE0918428F09185283096E1
:103A700009F0D0CEE0918A28F0918B28309609F099
:103A8000C9CEBA2FBF70C0910F28CB1B08F4C0E07D
:103A9000E4E9F0E0CC0FEC0FF21DC591D491C09396
:103AA000B828D093B928A295AF70AA0FA3956F93A9
:103AB0007F936A2F72EB679F7F916F9116940794A3
:103AC0001694079416940794169407940092BA28B3
:103AD0001092BB282092BC282092BD289BCEA21514
:103AE00051F0B0911E28AB1730F4A093BE28B1E07E
:103AF000B093732865C18ECEEAE8F4E6EA0FF21DB2
:103B0000A695A795A795B0910828CB2FB07CAB13AD
:103B100001C080CED490CF73CB2BC09308287ACE2F
:103B200079CE78CE77CE76CEB0930F28A3E0B2E0F0
:103B3000B0937928A0937E28B0938628B0938C28E0
:103B4000B09391282092822820928328209289285D
:103B5000209298282092992820929C2820929D2893
:103B60002092A4282092A528A0919C0AB0919D0A99
:103B7000A0939E28B0939F282092092893602092BA
:103B8000B2282092B3282092B6282092B7282092FB
:103B9000B8282092B9282092BC282092BD28F9D0BC
:103BA00039CEB755A0910828A07FAB2BA093082849
:103BB0009260EFD02FCEB656B0937328EAD000C1F2
:103BC000209277282092782820927C2820927D28A5
:103BD000209284282092852820928A2820928B285F
:103BE00020928F2820929028209282282092832849
:103BF000209289283196B491EBE3F1E1EB0FF21DAD
:103C0000EE0FFF1FA591B491AA0FBB1FEA2FFB2F48
:103C1000B4913296A6E0AA9519F0B69578F0FBCF4C
:103C2000A3E0B2E0B0937928A0937E28B0938628D1
:103C3000B0938C28B0939128B6D0ECCDC591D59196
:103C4000A53039F0A43079F0A330D9F0A23059F181
:103C50003CC0C0937728D093782841D0C0937B286C
:103C6000D0937A28D8CFC0937C28D0937D282092F7
:103C7000B2282092B3282092B8282092B9283AD0AE
:103C8000CACFC0938428D09385282092B22820924E
:103C9000B3282092B8282092B92821D0C093882830
:103CA000D0938728B8CFC0938A28D0938B282092AE
:103CB000B2282092B3282092B8282092B9280FD099
:103CC000C0938E28D0938D28A6CFC0938F28D093F1
:103CD000902805D0C0939328D09392289CCFEF933F
:103CE000FF93EC2FFD2FEE0FFF1FC591D491FF9195
:103CF000EF910895EF93FF93EC2FFD2FEE0FFF1F31
:103D0000C591D591C0938028D0937F28C491C0934A
:103D10008128FF91EF910895B0917B28BF3F19F062
:103D2000B395B0937928B0918028BF3F19F0B3952F
:103D3000B0937E28B0918828BF3F19F0B395B09317
:103D40008628B0918E28BF3F19F0B395B0938C2888
:103D5000B0919328BF3F19F0B395B093912819D033
:103D600059CDE0911828F0911928A0911A28B09106
:103D70001B281296EA0FFB1FA591B491AA0FBB1F37
:103D8000A0937128B09372282092752820927628EB
:103D900041CDE0917528F09176283196E093752811
:103DA000F09376280895E0917528F0917628329660
:103DB000E0937528F09376280895BA95B093742807
:103DC000A091C228B091C328109609F0BBC2E0911F
:103DD000C028F091C128A091C428B091C528EA0F4D
:103DE000FB1FB491B73508F460C1B73608F49AC127
:103DF000B33E08F4A5C109F4A8C1B43E09F451C208
:103E0000BF3F09F473C23196A49192D2B55EE6EF3A
:103E1000F4E6BB0FEB0FF21DC591D491EC2FFD2FF3
:103E20000994A093E3282092E428D1CF2092E92896
:103E30002092EA282092E3282092E4286F937F932F
:103E40006A2F72EB679F7F916F9116940794169477
:103E5000079416940794169407940092E5281092FC
:103E6000E628B5CF2092E5282092E6282092E32884
:103E70002092E4286F937F936A2F72EB679F7F9164
:103E80006F911694079416940794169407941694B9
:103E900007940092E9281092EA2899CF6F937F93B4
:103EA0006A2F72EB679F7F916F9116940794169417
:103EB000079416940794169407940092F128109290
:103EC000F228A21101C083CFA091AC0AB091AD0A33
:103ED000A093ED28B093EE282092F3282092F428A6
:103EE00076CFBA2FA07FA295BF70A093F528B0938C
:103EF000F6282092F7286BCF6ACF69CFA0931F28AE
:103F000066CFB093202863CFB093212860CFA2154D
:103F100021F0B1E0B093A50A5ACF2092A50A2092D1
:103F2000AC0A2092AD0A53CFA0931E2850CFA21501
:103F300051F0B0911E28AB1730F4A093F828B1E0EF
:103F4000B093C22802C243CF42CF41CF40CF3FCF30
:103F50006F937F936A2F72EB679F7F916F91169497
:103F60000794169407941694079416940794009255
:103F7000FA281092FB282BCFE091CB28F091CC2887
:103F8000309609F024CFE091D328F091D4283096D0
:103F900009F01DCFE091D928F091DA28309609F088
:103FA00016CFBA2FBF70C0911228BC0FB73508F0DA
:103FB000B6E5E4E9F0E0BB0FEB0FF21DC591D4913B
:103FC000C093FC28D093FD28A295AF70AA0FA395AB
:103FD0006F937F936A2F72EB679F7F916F91169417
:103FE00007941694079416940794169407940092D5
:103FF000FE281092FF282092002920920129E7CE66
:10400000E091CB28F091CC28309609F0E0CEE091F9
:10401000D328F091D428309609F0D9CEE091D92850
:10402000F091DA28309609F0D2CEBA2FBF70C09145
:104030001228CB1B08F4C0E0E4E9F0E0CC0FEC0F51
:10404000F21DC591D491C0930229D0930329A29562
:10405000AF70AA0FA3956F937F936A2F72EB679F40
:104060007F916F9116940794169407941694079471
:10407000169407940092042910920529209206298B
:1040800020920729A4CEA21551F0B0911E28AB179B
:1040900030F4A0930829B1E0B093C22856C197CE5E
:1040A00096CE95CE94CE93CE92CEB0931228A3E026
:1040B000B2E0B093C828A093CD28B093D528B09390
:1040C000DB28B093E0282092D1282092D12820929A
:1040D000D8282092E7282092E8282092EB282092E6
:1040E000EC282092F3282092F428A091AC0AB091F9
:1040F000AD0AA093ED28B093EE282092FC282092E0
:10410000FD28209200292092012920920229209244
:1041100003292092062920920729B1E0B093A50A2D
:10412000FDD055CEFBD0B75521F0B1E0B093A50A34
:104130004ECE2092A50A2092AC0A2092AD0A47CE1C
:10414000B656B093C228EAD000C12092C628209269
:10415000C7282092CB282092CC282092D3282092C6
:10416000D4282092D9282092DA282092DE28209282
:10417000DF282092D1282092D2282092D828319668
:10418000B491EBE3F1E1EB0FF21DEE0FFF1FA591F0
:10419000B491AA0FBB1FEA2FFB2FB4913296A6E071
:1041A000AA9519F0B69578F0FBCFA3E0B2E0B093F2
:1041B000C828A093CD28B093D528B093DB28B0931E
:1041C000E028B6D004CEC591D591A53039F0A43001
:1041D00079F0A330D9F0A23059F13CC0C093C62881
:1041E000D093C72841D0C093CA28D093C928D8CF2C
:1041F000C093CB28D093CC282092FC282092FD2875
:1042000020920229209203293AD0CACFC093D32802
:10421000D093D4282092FC282092FD2820920229B5
:104220002092032921D0C093D728D093D628B8CF85
:10423000C093D928D093DA282092FC282092FD2818
:1042400020920229209203290FD0C093DD28D09319
:10425000DC28A6CFC093DE28D093DF2805D0C093FA
:10426000E228D093E1289CCFEF93FF93EC2FFD2F12
:10427000EE0FFF1FC591D491FF91EF910895EF9339
:10428000FF93EC2FFD2FEE0FFF1FC591D591C0932B
:10429000CF28D093CE28C491C093D028FF91EF911E
:1042A0000895B091CA28BF3F19F0B395B093C828BC
:1042B000B091CF28BF3F19F0B395B093CD28B091FE
:1042C000D728BF3F19F0B395B093D528B091DD281A
:1042D000BF3F19F0B395B093DB28B091E228BF3F00
:1042E00019F0B395B093E02819D071CDE09118285A
:1042F000F0911928A0911A28B0911B281496EA0F62
:10430000FB1FA591B491AA0FBB1FA093C028B09327
:10431000C1282092C4282092C52859CDE091C428F4
:10432000F091C5283196E093C428F093C5280895EC
:10433000E091C428F091C5283296E093C428F09308
:10434000C5280895BA95B093C328A0910C29B091BF
:104350000D29109609F0C9C2E0910A29F0910B29A4
:10436000A0910E29B0910F29EA0FFB1FB491B73528
:1043700008F472C1B73608F4A9C1B33E08F4AFC15E
:1043800009F4B2C1B43E09F45BC2BF3F09F47DC277
:104390003196A491A0D2B55EEAE2F5E6BB0FEB0F31
:1043A000F21DC591D491EC2FFD2F0994A0932D29D6
:1043B00020922E29D1CF2092332920923429209285
:1043C0002D2920922E296F937F936A2F72EB679F7E
:1043D0007F916F91169407941694079416940794FE
:1043E0001694079400922F2910923029B5CF20926D
:1043F0002F292092302920922D2920922E296F9347
:104400007F936A2F72EB679F7F916F911694079449
:1044100016940794169407941694079400923329DF
:104420001092342999CF6F937F936A2F72EB679F15
:104430007F916F911694079416940794169407949D
:104440001694079400923B2910923C29A21101C0B6
:1044500083CFA091BC0AB091BD0AA0933729B09335
:10446000382920923D2920923E2976CFBA2FA07F6D
:10447000A295BF70A0933F29B09340292092412973
:104480006BCFBA2FA07FA295BF70A0934229B093A3
:10449000432920924429209245295ECFA0934629A2
:1044A0005BCFA0931F2858CFB093202855CFB0934F
:1044B000212852CFB0911328B07FBA2BB093132884
:1044C0004BCFA0931E2848CFA21551F0B0911E28C3
:1044D000AB1730F4A0934729B1E0B0930C2908C280
:1044E0003BCF3ACF39CF38CF37CF6F937F936A2FF7
:1044F00072EB679F7F916F911694079416940794BF
:1045000016940794169407940092492910924A2908
:1045100023CFE0911529F0911629309609F01CCF90
:10452000E0911D29F0911E29309609F015CFE091F8
:104530002329F0912429309609F00ECFBA2FBF70AD
:10454000C0911728BC0FB73508F0B6E5E4E9F0E0F4
:10455000BB0FEB0FF21DC591D491C0934B29D093A3
:104560004C29A295AF70AA0FA3956F937F936A2FE2
:1045700072EB679F7F916F9116940794169407943E
:10458000169407941694079400924D2910924E2980
:1045900020924F2920925029DFCEE0911529F091E9
:1045A0001629309609F0D8CEE0911D29F0911E29E8
:1045B000309609F0D1CEE0912329F091242930964C
:1045C00009F0CACEBA2FBF70C0911728CB1B08F4D0
:1045D000C0E0E4E9F0E0CC0FEC0FF21DC591D491FE
:1045E000C0935129D0935229A295AF70AA0FA395D9
:1045F0006F937F936A2F72EB679F7F916F911694F1
:1046000007941694079416940794169407940092AE
:1046100053291092542920925529209256299CCE34
:10462000A21551F0B0911E28AB1730F4A093572972
:10463000B1E0B0930C295CC18FCEA695A795B0913F
:104640001428BF77BA2BB09313286F776A2B84CEC8
:1046500083CE82CE81CE80CEB0931728A3E0B2E085
:10466000B0931229A0931729B0931F29B09325293D
:10467000B0932A2920921B2920921C2920922229BA
:1046800020923129209232292092352920923629F0
:1046900020923D2920923E29A091BC0AB091BD0AEA
:1046A000A0933729B093382920924B2920924C2986
:1046B00020924F292092502920925129209252294C
:1046C0002092552920925629FCD046CEB755A0916C
:1046D0001328A07FAB2BA0931328F3D03DCEB65662
:1046E000B0930C29EED004C12092102920921129F8
:1046F000209215292092162920921D2920921E29E8
:1047000020922329209224292092282920922929A5
:1047100020921B2920921C29209222293196B491A3
:10472000EBE3F1E1EB0FF21DEE0FFF1FA591B4914A
:10473000AA0FBB1FEA2FFB2FB4913296A6E0AA95D1
:1047400019F0B69578F0FBCFA3E0B2E0B093122950
:10475000A0931729B0931F29B0932529B0932A2934
:10476000BAD0FACDC591D591A53039F0A43079F001
:10477000A330D9F0A23059F13CC0C0931029D09396
:10478000112941D0C0931429D0931329D8CFC093B5
:104790001529D093162920924B2920924C2920923A
:1047A0005129209252293AD0CACFC0931D29D093C3
:1047B0001E2920924B2920924C2920925129209287
:1047C000522921D0C0932129D0932029B8CFC0935A
:1047D0002329D093242920924B2920924C292092DE
:1047E0005129209252290FD0C0932729D0932629EE
:1047F000A6CFC0932829D093292905D0C0932C296E
:10480000D0932B299CCFEF93FF93EC2FFD2FEE0F2E
:10481000FF1FC591D491FF91EF910895EF93FF93FE
:10482000EC2FFD2FEE0FFF1FC591D591C0931929D5
:10483000D0931829C491C0931A29FF91EF9108953C
:10484000B0911429BF3F19F0B395B0931229B091DC
:104850001929BF3F19F0B395B0931729B0912129B9
:10486000BF3F19F0B395B0931F29B0912729BF3FDF
:1048700019F0B395B0932529B0912C29BF3F19F0B9
:10488000B395B0932A291DD067CDE0911828F091F7
:104890001928A0911A28B0911B28A0931A28B09328
:1048A0001B281696EA0FFB1FA591B491AA0FBB1FF8
:1048B000A0930A29B0930B2920920E2920920F2948
:1048C0004BCDE0910E29F0910F293196E0930E29FE
:1048D000F0930F290895E0910E29F0910F29329657
:1048E000E0930E29F0930F290895BA95B0930D29FE
:1048F000F0911E28EF2FE150A0912528A21142C06F
:1049000000C0AF2FB0912428B21509F43BC0BA956E
:10491000B0932428B21134C0AA95BFEFC0916F287C
:10492000D0917028CB1709F00DC0DB1709F015C026
:10493000C0915F28D0916028CB1709F012C0DB1717
:10494000F9F01AC0B0936F28EC1BE0937028CA9559
:10495000C0932528EF2FE15015C0B0937028AD2FDC
:104960000FC0B0935F28EC1BE0936028CA95C093FA
:104970002528EF2FE15006C0B0936028AD2F00C06E
:10498000A0932528A0917428A21142C000C0AF2F87
:10499000B0917328B21509F43BC0BA95B09373284F
:1049A000B21134C0AA95BFEFC091BE28D091BF28E4
:1049B000CB1709F00DC0DB1709F015C0C091AE2868
:1049C000D091AF28CB1709F012C0DB17F9F01AC04D
:1049D000B093BE28EC1BE093BF28CA95C0937428FF
:1049E000EF2FE150CFCFB093BF28AD2F0FC0B093C2
:1049F000AE28EC1BE093AF28CA95C0937428EF2F24
:104A0000E150C0CFB093AF28AD2F00C0A093742861
:104A1000A091C328A21142C000C0AF2FB091C228FC
:104A2000B21509F43BC0BA95B093C228B21134C094
:104A3000AA95BFEFC0910829D0910929CB1709F099
:104A40000DC0DB1709F015C0C091F828D091F928E6
:104A5000CB1709F012C0DB17F9F01AC0B093082980
:104A6000EC1BE0930929CA95C093C328EF2FE150AE
:104A700015C0B0930929AD2F0FC0B093F828EC1BD7
:104A8000E093F928CA95C093C328EF2FE15006C0E0
:104A9000B093F928AD2F00C0A093C328A0910D2991
:104AA000A21142C000C0AF2FB0910C29B21509F479
:104AB0003BC0BA95B0930C29B21134C0AA95BFEF90
:104AC000C0915729D0915829CB1709F00DC0DB1799
:104AD00009F015C0C0914729D0914829CB1709F09A
:104AE00012C0DB17F9F01AC0B0935729EC1BE09302
:104AF0005829CA95C0930D29EF2FE15015C0B093E6
:104B00005829AD2F0FC0B0934729EC1BE0934829DB
:104B1000CA95C0930D29EF2FE15006C0B0934829E4
:104B2000AD2F00C0A0930D29E0912828F0912928ED
:104B30003096A1F1EE0FFF1FA0912A28EA0FF21D77
:104B4000B0912C28BA1729F4A0912B28AB1710F09C
:104B500003C0A395A0932A28B491BF3F69F4B091F4
:104B60002C28BF3F29F4B0912B28B0932A28DCCF02
:104B7000A250A0932A28D8CFEEE5F5E6B295EB0F28
:104B8000F21DB0910028BF70A0915D28A03081F483
:104B9000EB0FF21DB491B093062824C0B091002809
:104BA000BF70A0915D28A030A1F4B09306281AC070
:104BB000BA1B40F039F0B1E0EB0FF21DB491B093A5
:104BC000062810C0B1E0EB0FF21DB491B093062897
:104BD00009C0BA1B20F019F0B093062803C0B1E059
:104BE000B0930628E0912D28F0912E283096D9F127
:104BF000EE0FFF1FA0912F28EA0FF21DB091312870
:104C0000BA1729F4A0913028AB1710F003C0A39570
:104C1000A0932F28B491B03809F041C0A150A093BF
:104C20002F28B0913228B13048F0B0913128BF3FE1
:104C3000D1F4B0913028BF3F99F415C0B09131281C
:104C4000BF3F21F4B0913028BF3F51F4C0914528B7
:104C5000D0914628209669F4A150A0932F28C2CF66
:104C6000B0932F28BFCFC0914528D09146282096D9
:104C700099F0D695C795D795C795D795C795D795E8
:104C8000C795D795D295C0934528D0934628CF7025
:104C9000A0910728AC0F2EC0A09107282BC020920E
:104CA00033282092342820923A28A0913228A1302B
:104CB00010F069F00EC0A0910728AB0FB7FD04C03B
:104CC000A735C0F0A6E516C0A7FDA0E013C0AB2F26
:104CD00011C0A0910728AB0FB7FD08C0A09307280B
:104CE000A73540F0A6E5A093072804C0A7FDA0E0E3
:104CF000A0930728E4E9F0E0AA0FEA0FF21DA591BE
:104D0000B491A0938C0AB0938D0AA0935128B093CC
:104D1000522800C0E0913528F0913628309609F4E9
:104D200023C0EE0FFF1FA0913728EA0FF21DB091AC
:104D30003928BA1729F4A0913828AB1710F003C00E
:104D4000A395A0933728B491B03879F4A150A093DB
:104D50003728B0913928BF3F39F4B0913828BF3F88
:104D600019F0B0933728D6CFB0E06F937F936B2FB5
:104D700072EB67037F916F911694079416940794D2
:104D8000169407941694079413FE02C0B0EF1B2AE2
:104D9000A0913328B09134280A0E1B1E00923328AC
:104DA00010923428A0918C0AB0918D0AA00DB11DEB
:104DB000C0914928D0914A28AC1BBD0BC0914D2809
:104DC000D0914E28AC0FBD1FC0916128D0916228B0
:104DD000AC0FBD1FC0916728D0916828AC1BBD0BDC
:104DE000C0916D28D0916E28AC0FBD1FA0938C0A86
:104DF000B0938D0AE0913B28F0913C28309609F45D
:104E00003CC0EE0FFF1FA0913D28EA0FF21DB091AC
:104E10003F28BA1729F4A0913E28AB1710F003C021
:104E2000A395A0933D28B491B03889F4A150A093E4
:104E30003D28B0913F28BF3F39F4B0913E28BF3F95
:104E400019F0B0933D28D6CFB0913A2805C0A09173
:104E50003A28BA0FB0933A286F937F936B2F72EB77
:104E600067037F916F91A0918C0AB0918D0AA00D7C
:104E7000B11DA0938C0AB0938D0AE0914028F09167
:104E800041283096B1F1EE0FFF1FA0914228EA0FA2
:104E9000F21DB0914428BA1729F4A0914328AB170A
:104EA00010F027C0A395A0934228B491BF3F71F49E
:104EB000A150A0934228B0914428BF3FD1F4B091B3
:104EC0004328BF3FB1F0B0934228D7CFEAE8F4E6D9
:104ED000EB0FF21DB695B795B795A0910028CA2F94
:104EE000A07CBA1301C005C0A490CF73CB2BC09394
:104EF0000028E0914728F0914828309651F0A09181
:104F00004928B0914A28AE0FBF1FA0934928B093FB
:104F10004A28E0914B28F0914C28309651F0A0910E
:104F20004D28B0914E28AE0FBF1FA0934D28B093CF
:104F30004E28E0915328F0915428309609F448C047
:104F4000A0914F28B0915028109609F441C0C0910B
:104F50005128D0915228AC17BD0711F030F01FC076
:104F600020924F282092502833C0CA1BDB0BA091FF
:104F70005528B0915628AE0FBF1FCA1BDB0B80F31C
:104F8000A0935528B0935628A0918C0AB0918D0A11
:104F9000AC1BBD0BA0938C0AB0938D0A19C0AC1B3F
:104FA000BD0BC0915528D0915628CE0FDF1FAC1BEA
:104FB000BD0BB0F2C0935528D0935628C0918C0AEF
:104FC000D0918D0ACA0FDB1FC0938C0AD0938D0A33
:104FD000A0915728A21509F45CC0B0915828C0913F
:104FE0005928CA0FC43608F0C356C0935928C03197
:104FF00028F0C03228F0C03330F007C0CF7029C08D
:10500000C06FC09526C0CF7003C0C06FC09500C0F0
:10501000B295CB0FE2E6F1E0EC0FF21DC4916F9375
:105020007F936C2F72EB679F7F916F91169407941B
:10503000169407941694079416940794A0918C0ADA
:10504000B0918D0AA00DB11DA0938C0AB0938D0A6A
:1050500020C0B295CB0FE2E6F1E0EC0FF21DC49157
:105060006F937F936C2F72EB679F7F916F91169474
:105070000794169407941694079416940794A09195
:105080008C0AB0918D0AA019B109A0938C0AB09333
:105090008D0AA0915A28A215F1F0B0915B28C09119
:1050A0005C28CA0FC43610F0C0E0C356C0935C2819
:1050B000C695C4FF01C002C0CF7003C0C06FC095C9
:1050C00000C0B295CB0FE2E6F1E0EC0FF21DC49107
:1050D000C695C0935D28B0915E28B215E9F0A09105
:1050E0000528C0910028DA2FEC2FE295D07FE07FD1
:1050F000ED1709F0AE2FB7FD04C0AB0F28F4A0EFF9
:1051000003C0AB0F08F0A0E0A0930528A07FA295F4
:10511000C07FCA2BC0930028E0916328F0916428D7
:10512000309639F1A0916728B0916828C0918C0A17
:10513000D0918D0AEC1BFD0B08F488F0AE1BBF0B61
:10514000C0916128D0916228AC0FBD1FA093672841
:10515000B093682820926328209264280AC0C091E6
:105160006528D0916628AC0FBD1FA0936728B09327
:105170006828E0916928F0916A28309639F1A09169
:105180006D28B0916E28C0918C0AD0918D0ACE1BEB
:10519000DF0B08F488F0AC1BBD0BC0916128D091E7
:1051A0006228AC0FBD1FA0936D28B0936E2820928B
:1051B000692820926A280AC0C0916B28D0916C2877
:1051C000AC0FBD1FA0936D28B0936E28E091772897
:1051D000F09178283096A1F1EE0FFF1FA091792869
:1051E000EA0FF21DB0917B28BA1729F4A0917A2812
:1051F000AB1710F003C0A395A0937928B491BF3FDB
:1052000069F4B0917B28BF3F29F4B0917A28B0931C
:105210007928DCCFA250A0937928D8CFEEE5F5E627
:10522000B295EB0FF21DB0910828BF70A091AC2889
:10523000A03081F4EB0FF21DB491B0930E2824C07E
:10524000B0910828BF70A091AC28A030A1F4B09311
:105250000E281AC0BA1B40F039F0B1E0EB0FF21D76
:10526000B491B0930E2810C0B1E0EB0FF21DB491D1
:10527000B0930E2809C0BA1B20F019F0B0930E2885
:1052800003C0B1E0B0930E28E0917C28F0917D2816
:105290003096D9F1EE0FFF1FA0917E28EA0FF21D84
:1052A000B0918028BA1729F4A0917F28AB1710F08D
:1052B00003C0A395A0937E28B491B03809F041C0F3
:1052C000A150A0937E28B0918128B13048F0B091D0
:1052D0008028BF3FD1F4B0917F28BF3F99F415C01B
:1052E000B0918028BF3F21F4B0917F28BF3F51F497
:1052F000C0919428D0919528209669F4A150A0934C
:105300007E28C2CFB0937E28BFCFC0919428D09181
:105310009528209699F0D695C795D795C795D79596
:10532000C795D795C795D795D295C0939428D09314
:105330009528CF70A0910F28AC0F2EC0A0910F28F8
:105340002BC0209282282092832820928928A09125
:105350008128A13010F069F00EC0A0910F28AB0F8A
:10536000B7FD04C0A735C0F0A6E516C0A7FDA0E0B4
:1053700013C0AB2F11C0A0910F28AB0FB7FD08C011
:10538000A0930F28A73540F0A6E5A0930F2804C0EE
:10539000A7FDA0E0A0930F28E4E9F0E0AA0FEA0F30
:1053A000F21DA591B491A0939C0AB0939D0AA0937D
:1053B000A028B093A12800C0E0918428F09185280E
:1053C000309609F423C0EE0FFF1FA0918628EA0F44
:1053D000F21DB0918828BA1729F4A0918728AB173D
:1053E00010F003C0A395A0938628B491B03879F447
:1053F000A150A0938628B0918828BF3F39F4B0917E
:105400008728BF3F19F0B0938628D6CFB0E06F93BE
:105410007F936B2F72EB67037F916F9116940794C4
:1054200016940794169407941694079413FE02C0DA
:10543000B0EF1B2AA0918228B09183280A0E1B1E70
:105440000092822810928328A0919C0AB0919D0A14
:10545000A00DB11DC0919828D0919928AC1BBD0B0F
:10546000C0919C28D0919D28AC0FBD1FC091B02841
:10547000D091B128AC0FBD1FC091B628D091B728EC
:10548000AC1BBD0BC091BC28D091BD28AC0FBD1F7B
:10549000A0939C0AB0939D0AE0918A28F0918B28F2
:1054A000309609F43CC0EE0FFF1FA0918C28EA0F44
:1054B000F21DB0918E28BA1729F4A0918D28AB1750
:1054C00010F003C0A395A0938C28B491B03889F450
:1054D000A150A0938C28B0918E28BF3F39F4B09191
:1054E0008D28BF3F19F0B0938C28D6CFB091892872
:1054F00005C0A0918928BA0FB09389286F937F9334
:105500006B2F72EB67037F916F91A0919C0AB09112
:105510009D0AA00DB11DA0939C0AB0939D0AE09135
:105520008F28F09190283096B1F1EE0FFF1FA091D7
:105530009128EA0FF21DB0919328BA1729F4A0918F
:105540009228AB1710F027C0A395A0939128B4918F
:10555000BF3F71F4A150A0939128B0919328BF3F11
:10556000D1F4B0919228BF3FB1F0B0939128D7CF3A
:10557000EAE8F4E6EB0FF21DB695B795B795A09162
:105580000828CA2FA07CBA1301C005C0D490CF73DD
:10559000CB2BC0930828E0919628F091972830965D
:1055A00051F0A0919828B0919928AE0FBF1FA093F9
:1055B0009828B0939928E0919A28F0919B283096EA
:1055C00051F0A0919C28B0919D28AE0FBF1FA093D1
:1055D0009C28B0939D28E091A228F091A3283096B2
:1055E00009F448C0A0919E28B0919F28109609F414
:1055F00041C0C091A028D091A128AC17BD0711F0DF
:1056000030F01FC020929E2820929F2833C0CA1BD2
:10561000DB0BA091A428B091A528AE0FBF1FCA1B19
:10562000DB0B80F3A093A428B093A528A0919C0A3B
:10563000B0919D0AAC1BBD0BA0939C0AB0939D0A30
:1056400019C0AC1BBD0BC091A428D091A528CE0FCA
:10565000DF1FAC1BBD0BB0F2C093A428D093A528CC
:10566000C0919C0AD0919D0ACA0FDB1FC0939C0A6F
:10567000D0939D0AA091A628A21509F45CC0B09110
:10568000A728C091A828CA0FC43608F0C356C093F3
:10569000A828C03128F0C03228F0C03330F007C04D
:1056A000CF7029C0C06FC09526C0CF7003C0C06F37
:1056B000C09500C0B295CB0FE2E6F1E0EC0FF21D11
:1056C000C4916F937F936C2F72EB679F7F916F9163
:1056D00016940794169407941694079416940794B6
:1056E000A0919C0AB0919D0AA00DB11DA0939C0AA7
:1056F000B0939D0A20C0B295CB0FE2E6F1E0EC0F2B
:10570000F21DC4916F937F936C2F72EB679F7F9113
:105710006F91169407941694079416940794169410
:105720000794A0919C0AB0919D0AA019B109A09379
:105730009C0AB0939D0AA091A928A215F1F0B091FE
:10574000AA28C091AB28CA0FC43610F0C0E0C356D7
:10575000C093AB28C695C4FF01C002C0CF7003C080
:10576000C06FC09500C0B295CB0FE2E6F1E0EC0F40
:10577000F21DC491C695C093AC28B091AD28B21566
:10578000E9F0A0910D28C0910828DA2FEC2FE295BE
:10579000D07FE07FED1709F0AE2FB7FD04C0AB0F4F
:1057A00028F4A0EF03C0AB0F08F0A0E0A0930D28F1
:1057B000A07FA295C07FCA2BC0930828E091B22891
:1057C000F091B328309639F1A091B628B091B7285E
:1057D000C0919C0AD0919D0AEC1BFD0B08F488F047
:1057E000AE1BBF0BC091B028D091B128AC0FBD1F2C
:1057F000A093B628B093B7282092B2282092B3285D
:105800000AC0C091B428D091B528AC0FBD1FA09399
:10581000B628B093B728E091B828F091B92830960F
:1058200039F1A091BC28B091BD28C0919C0AD091BB
:105830009D0ACE1BDF0B08F488F0AC1BBD0BC0919A
:10584000B028D091B128AC0FBD1FA093BC28B09355
:10585000BD282092B8282092B9280AC0C091BA2841
:10586000D091BB28AC0FBD1FA093BC28B093BD281E
:10587000E091C628F091C728309699F1EE0FFF1FEE
:10588000A091C828EA0FF21DB091CA28BA1729F4CE
:10589000A091C928AB1710F003C0A395A093C82806
:1058A000B491BF3F69F4B091CA28BF3F29F4B091C9
:1058B000C928B093C828DCCFA250A093C828D8CF5D
:1058C000B21541F0B091A50AB13059F4B1E0B093EE
:1058D000A50A07C02092A50A2092AC0A2092AD0A20
:1058E00000C0E091CB28F091CC283096D9F1EE0F92
:1058F000FF1FA091CD28EA0FF21DB091CF28BA1753
:1059000029F4A091CE28AB1710F003C0A395A09363
:10591000CD28B491B03809F041C0A150A093CD2852
:10592000B091D028B13048F0B091CF28BF3FD1F42A
:10593000B091CE28BF3F99F415C0B091CF28BF3F9A
:1059400021F4B091CE28BF3F51F4C091E328D0910B
:10595000E428209669F4A150A093CD28C2CFB0933B
:10596000CD28BFCFC091E328D091E428209699F0AC
:10597000D695C795D795C795D795C795D795C79508
:10598000D795D295C093E328D093E428CF70A09107
:105990001228AC0F2EC0A09112282BC02092D12823
:1059A0002092D2282092D828A091D028A13010F09F
:1059B00069F00EC0A0911228AB0FB7FD04C0A73547
:1059C000C0F0A6E516C0A7FDA0E013C0AB2F11C024
:1059D000A0911228AB0FB7FD08C0A0931228A735DD
:1059E00040F0A6E5A093122804C0A7FDA0E0A09374
:1059F0001228E4E9F0E0AA0FEA0FF21DA591B49194
:105A0000A093AC0AB093AD0AA093EF28B093F0280E
:105A100000C0E091D328F091D428309609F423C037
:105A2000EE0FFF1FA091D528EA0FF21DB091D728E5
:105A3000BA1729F4A091D628AB1710F003C0A3958C
:105A4000A093D528B491B03879F4A150A093D5286B
:105A5000B091D728BF3F39F4B091D628BF3F19F095
:105A6000B093D528D6CFB0E06F937F936B2F72EBB6
:105A700067037F916F911694079416940794169478
:105A800007941694079413FE02C0B0EF1B2AA0914E
:105A9000D128B091D2280A0E1B1E0092D128109254
:105AA000D228A091AC0AB091AD0AA00DB11DC09151
:105AB000E728D091E828AC1BBD0BC091EB28D09112
:105AC000EC28AC0FBD1FC091FA28D091FB28AC0F79
:105AD000BD1FC0910029D0910129AC1BBD0BC09105
:105AE0000629D0910729AC0FBD1FA093AC0AB09333
:105AF000AD0AE091D928F091DA28309609F43CC03B
:105B0000EE0FFF1FA091DB28EA0FF21DB091DD28F8
:105B1000BA1729F4A091DC28AB1710F003C0A395A5
:105B2000A093DB28B491B03889F4A150A093DB286E
:105B3000B091DD28BF3F39F4B091DC28BF3F19F0A8
