:020000020000FC
:040000000C947501E6
:04001C000C946602D8
:100024000C944C020C9456020C944C020C94420412
:100034008FB197A72F9E4F95ED8C04858D7D81768A
:10004400DB6F9369A7630F5EC758CC53184FA74A59
:1000540077468242C73E413BED37CA34D331072F3E
:10006400642CE6298C2754253B234121631FA01DC2
:10007400F71B651AEA1884173216F314C613AA126A
:100084009E11A110B20FD00EFB0D320D750CC20BD8
:10009400190B790AE3095509CF085008D9076807ED
:1000A400FE0699063A06E1058C053D05F104AA040D
:1000B40067042804EC03B4037F034D031D03F0021B
:1000C400C6029E027902550234021402F601DA01D4
:1000D400BF01A6018F01780163014F013C0180003B
:1000E400F100F900010109019700F500FD00050187
:1000F4000D01DA00F700FF0007010F011B66E200A3
:100104007E1F7E227E1BE2017E1F7E227E1BE20278
:1001140072E3721F72E3722272E3721BE20372E3F0
:10012400721F72E3722272E372FF1BE2047E1F7E6F
:10013400227E1BE2057E1F7E227E1BE20672E37294
:100144001F72E3722272E3721BE20772E3721F7280
:10015400E3722272E3721BE2047E1F7E227E1BE2A4
:10016400057E1F7E227E1BE20672E3721F72E3721B
:100174002272E3721BE20772E3721F72E37222724D
:10018400E3721BE2047E1F7E227E1BE2057E1F7E3D
:10019400227E1BE20672E3721F72E3722272E37222
:1001A4001BE20772E3721F72E3722272E372FF00B2
:1001B4001BE2087E1F7E227E1BE2097E1F7E227EBA
:1001C4001BE20A72E3721F72E3722272E3721BE291
:1001D4000B72E3721F72E3722272E372FF0066E233
:1001E40000E1E18EFF00E1E18EFFE1E18EFF66E2D6
:1001F40000E1E18EFF00E1E18EFFE1E18EFF66E2C6
:1002040000E1E18EFF00E1E18EFFE1E18EFF66E2B5
:1002140000E1E18EFF00E1E18EFFE1E18EFF1D01CF
:100224001F01210123012501270129012B012D0192
:100234002F01310133010200390102003E010200A5
:1002440043010200480102004D0102005201020074
:10025400570102005C010200610102006601020014
:100264006B0102007001FF06010203040EFFFFFF91
:10027400000202FEFE008000FF03000202FEFE00F8
:10028400800004FF000202FEFE008000050400025C
:1002940002FEFE008000FFFF02010203040E800044
:1002A400FF060201020304FE800004FF02010203B0
:1002B400040E8000050302FE020304F48000FFFF25
:1002C400010C0F141C238000FF06010C0F141B23C8
:1002D400800005FF010C0F141B2380000603010C92
:1002E4000F141B238000B8EDB0933400B0E0B0933A
:1002F40061000024B0E3B0930028B0E8B093012873
:10030400BFEFB0930228B0930328B0930428B0E061
:10031400B0930928B0930A28E2EEF0E0E0930728AE
:10032400F0930828B0E0EB0FF01DA591B491AA0F4B
:10033400BB1FA0930B28B0930C28B0E000920D28AB
:1003440000920E2800920F28BFEF00921228B0935B
:100354001328B093142800921728B0931828B09348
:100364001928B0931A2800921D28B0931E28B09320
:100374001F2800922228B0932328B09324280092A7
:100384002728B0932828B093292800921028009297
:100394001128009215280092162800921B2800921A
:1003A4001C280092202800922128009225280092DF
:1003B400262800922A2800922B2800922C280092AA
:1003C4002D28BFEFB0B90FE0109100281F70909155
:1003D40000289073906400920528D09104289DD23F
:1003E400ED2ED0910028DD0FDD1FDD1FD370ABD2C1
:1003F400DD2EF0900128F2949068B0E7B093010AE2
:10040400B1E7B0930A0AB5E1B093280AB5E0B09316
:10041400290ABBE2B0932A0ABAE0B0932B0AB1E4EA
:10042400B0932C0ABFE0B0932D0AB7E5B093260A27
:10043400B4E1B093270ABBE0B093000AB0E0B093F4
:10044400810AB1E0B093850AB0910228B0938C0A76
:10045400B0910328B0938D0AB3E0B093800A7894E6
:10046400D0FE12C0E01481F0C0918C0AD0918D0AA4
:10047400D13008F002C0C93538F0D93538F009F068
:1004840003C0C53608F402C001B8EACFD0910528EC
:10049400D1B9E6CFBFB7BF93F89427D2B0E5B093F4
:1004A4000B0ABF91BFBF1895BFB7BF93F8941DD275
:1004B400F3FCF1D195FD02C0E010EA94B1E2B093EF
:1004C4000B0ABF91BFBF1895BFB7BF93F894CF93E2
:1004D400DF93B0910D28B0111BC1E0910B28F0916E
:1004E4000C28A0910E28B0910F28EA0FFB1FB4919D
:1004F400B73508F40DC0B73608F418C0B23E08F496
:100504001FC009F422C0B33E09F4ADC0BF3FD0C040
:10051400B0930628009212280092172800921D28F2
:100524000092222800922728DFD0D7CFB755A09178
:100534000028A07FAB2BA09300289660D5D0CDCF08
:10054400B756B0930D28D0D0E6C000921028009280
:100554001128009215280092162800921B28009258
:100564001C2800922028009221280092252800921D
:1005740026283196B491E1E1F1E0EB0FF01DEE0F86
:10058400FF1FA591B491AA0FBB1FEA2FFB2FB491B3
:100594003296A6E0AA95E1F1B69508F0FBCFC59195
:1005A400D591A53039F0A43079F0A33099F0A23078
:1005B400D9F024C0C0931028D093112837D0C09309
:1005C4001428D0931328E6CFC0931528D093162867
:1005D40038D0E0CFC0931B28D0931C2827D0C093D9
:1005E4001428D0931328D6CFC0932028D093212841
:1005F4001DD0C0931428D0931328CCCFC0932528A2
:10060400D093262813D0C0931428D0931328C2CF94
:10061400A3E0B2E0B0931228A0931728B0931D284A
:10062400B0932228B093272869D057CFEF93FF9334
:10063400EC2FFD2FEE0FFF1FC591D491FF91EF9189
:100644000895EF93FF93EC2FFD2FEE0FFF1FC5913D
:10065400D591C0931928D0931828C491C0931A280F
:10066400FF91EF910895B0911428BF3F19F0B3950D
:10067400B0931228B0911928BF3F19F0B395B093E5
:100684001728B0911F28BF3F19F0B395B0931D28C8
:10069400B0912428BF3F19F0B395B0932228B091AC
:1006A4002928BF3F19F0B395B09327281DD015CF43
:1006B400E0910728F0910828A0910928B0910A2810
:1006C4001A96A0930928B0930A28EA0FFB1FA59154
:1006D400B491AA0FBB1FA0930B28B0930C280092CF
:1006E4000E2800920F28F9CEE0910E28F0910F28E1
:1006F4003196E0930E28F0930F280895E0910E2888
:10070400F0910F283296E0930E28F0930F28089565
:10071400BA95B0930D28E0911028F09111283096E5
:1007240009F1EE0FFF1FA0911228EA0FF01DB091FE
:100734001428BA1729F4A0911328AB1740F003C06A
:10074400A395A0931228B491BF3F29F4B091132824
:10075400B0931228E0CFEAE5F9E0B395BA9541F0F9
:100764007096FCCFB0910028BF70B093052808C0E4
:10077400B0910028BF70EB0FF01DB491B093052821
:10078400E0911528F09116283096D9F1EE0FFF1F4D
:10079400A0911728EA0FF01DB0911928BA1729F46F
:1007A400A0911828AB1710F003C0A395A0931728A5
:1007B400B491B038F9F4A150A0931728B0911A2835
:1007C400B13048F0B0911928BF3FD9F4B09118283E
:1007D400BF3F69F416C0B0911928BF3F21F4B0910E
:1007E4001828BF3F21F4A150A0931728C9CFB09374
:1007F4001728C6CFA0911A28A03031F0A13081F07B
:1008040011C0A091062820C0A0910628AB0FB7FD07
:1008140004C0A735C8F0A6E517C0A7FDA0E014C022
:10082400AB2F12C0A0910628AB0FB7FD08C0A09350
:100834000628A73548F0A6E5A093062805C0A7FD1D
:10084400A0E0A093062800C0E4E3F0E0AA0FEA0FBA
:10085400F01DA591B491A0938C0AB0938D0A00C0A9
:10086400E0911B28F0911C28E0912028F091212888
:10087400E0912528F091262800C0DF91CF9117CE72
:10088400BFB7BF93F894DD0CD01CB1E0B093860AD7
:10089400BF91BFBF1895BF2DB770F9F4DF93DF2D5B
:1008A400D295D77009F4DF9119C0A0918C0AB09148
:1008B4008D0AB695A795DA95E1F7F7FE02C0A095E3
:1008C400B095D0918C0AAD0FD0918D0ABD1FA09325
:1008D4008C0AB0938D0ADF9101C0FA9497FF0895B2
:1008E400F0900128F2949F77089596FD10C000308F
:1008F40011F00A950895009100280F7095FF02C029
:100904001FE00895103009F408951A9508959F7B07
:10091400009100280F701FE00895F9E0EAE2ED0F5E
:10092400F01DD4910895057F0A0114022803500490
:100934001E0507060D0706080C09180A300B600C83
:10094400240D080E100FF9E0E6E5ED0FF01DD4912B
:10095400089501030FFC00000000000000000000E7
:10096400000000000000000101010101010101017A
:100974000101010101010001010101010101010164
:100984000101010101020001010101010101010153
:10099400020202020203000101010101010102023B
:1009A4000202030303040001010101010202020324
:1009B400030304040405000101010102020203030C
:1009C40004040405050600010101010202030304F5
:1009D40004050506060700010101020203030404DD
:1009E40005050606070800010101020303040405C6
:1009F40006060707080900010102020304040506AC
:100A040006070808090A0001010202030405050695
:100A1400070808090A0B000101020304040506077C
:100A24000808090A0B0C0001010203040506060765
:100A340008090A0B0C0D000101020304050607084E
:100A4400090A0B0C0D0E0001020304050607080930
:060A54000A0B0C0D0E0F51
:00000001FF
