:020000020000FC
:040000000C94B700A5
:04001C000C94EA0155
:100024000C94D0010C94DA010C94D0010C94F206D7
:10003400C758CC53184FA74A77468242C73E413B24
:10004400ED37CA34D331072F642CE6298C27542585
:100054003B234121631FA01DF71B651AEA1884176F
:100064003216F314C613AA129E11A110B20FD00EA9
:10007400FB0D320D750CC20B190B790AE3095509F6
:10008400CF085008D9076807FE0699063A06E10525
:100094008C053D05F104AA0467042804EC03B403A9
:1000A4007F034D031D03F002C6029E02790255022E
:1000B40034021402F601DA01BF01A6018F017801AE
:1000C40063014F013C012B011A010A01FB00ED0001
:1000D400E000D300C700BC00B200A8009E00850069
:1000E400A500A900AD00B1009900A500A900AD00CC
:1000F400B1008500A500A900AD00B1009900A500DC
:10010400A900AD00B1001B66E300EB007E1BEBF021
:100114007E1B57EB107E1B57EB027EEB0096577E3F
:100124001B66E8017E2B961B9622E804C6FF1B96ED
:100134001FE8007E1BE6007EE601C6E702C6577E86
:100144001B66E600AEFF66E300E2E2E26FFF66E3F1
:1001540000E2E2E26FFF66E300E2E2E26FFF66E3E1
:1001640000E2E2E26FFFB6000000B8EDB0933400A5
:10017400B0E0B09361002224B0E3B0930028B0E86B
:10018400B0930128BFEFB0930228B0930328B09333
:100194000428B0E0B0930A28B0930B28E2EEF0E014
:1001A400E0930828F0930928B0E0EB0FF21DA59125
:1001B400B491AA0FBB1FA0930C28B0930D28B0E0F4
:1001C40020920E2820920F2820921028BFEF209210
:1001D4001328B0931428B093152820921828B093AC
:1001E4001928B0931A28B0931B2820921F28B09383
:1001F4002028B093212820922528B0932628B09354
:10020400272820922A28B0932B28B0932C282092B8
:100214001128209212282092162820921728209222
:100224001C2820921D2820921E28209222282092E9
:1002340023282092242820922828209229282092BA
:100244004B2820924C2820924D2820924E28BFEF14
:10025400B0B90FE0109100281F709091002890739E
:10026400906420920628B0930528D091042805D6DE
:10027400ED2ED0910028DD0FDD1FDD1FD37013D6C6
:10028400DD2EF0900128F294906820922D2820927F
:100294002E2820922F282092302820923128209234
:1002A4003228209233282092342820923528209214
:1002B40036282092372820923828209239282092F4
:1002C4003A2820923B2820923C2820923D282092D4
:1002D4003E2820923F2820924028209241282092B4
:1002E4004228209243282092442820924528209294
:1002F4004628209247282092482820924928209274
:100304004A28B0E7B093010AB1E7B0930A0AB5E10D
:10031400B093280AB5E0B093290ABBE2B0932A0A45
:10032400BAE0B0932B0AB1E4B0932C0ABFE0B093C7
:100334002D0AB7E5B093260AB4E1B093270ABBE0CF
:10034400B093000AB0E0B093810AB1E0B093850A9B
:10035400B0910228B0938C0AB0910328B0938D0A0F
:10036400B3E0B093800A7894D0FE12C0E21481F016
:10037400C0918C0AD0918D0AD13008F002C0C935E1
:1003840038F0D93538F009F003C0C53608F402C096
:1003940021B8EACFD0910628D1B9E6CFBFB7BF9331
:1003A400F89453D5B0E5B0930B0ABF91BFBF18952D
:1003B400BFB7BF93F89449D5F3FC1DD595FD02C092
:1003C400E210EA94B1E2B0930B0ABF91BFBF189553
:1003D400BFB7BF93F894CF93DF93B0910E28B211B7
:1003E40076C2E0910C28F0910D28A0910F28B091CD
:1003F4001028EA0FFB1FB491B73508F422C1B736B1
:1004040008F457C1B33E08F45EC109F461C1B43EB7
:1004140009F408C2BF3F09F42AC23196A4914DD20F
:10042400B55EEAEBFEE0BB0FEB0FF21DC591D49174
:10043400EC2FFD2F0994D5CF209231282092322819
:100444006F937F936A2F72EB679F7F916F911694DE
:10045400079416940794169407941694079400929C
:100464002D2810922E28BDCF20922D2820922E28A0
:100474006F937F936A2F72EB679F7F916F911694AE
:10048400079416940794169407941694079400926C
:10049400312810923228A5CF6F937F936A2F72EB85
:1004A400679F7F916F9116940794169407941694FE
:1004B4000794169407940092392810923A28A211AE
:1004C40001C08FCFA0918C0AB0918D0AA0933528DA
:1004D400B093362820923B2820923C2882CF81CFAB
:1004E40080CFA0933E287DCF7CCF7BCF7ACF79CFAE
:1004F40078CF77CF76CF75CF74CF73CFA0933D28C5
:1005040070CFE0911628F0911728309609F069CF42
:10051400E0911D28F0911E28309609F062CFE091F9
:100524002328F0912428309609F05BCFBA2FBF70AE
:10053400C0910728BC0FB73508F0B6E5E4E3F0E056
:10054400BB0FEB0FF21DC591D491C0933F28D093FC
:100554004028A295AF70AA0FA3956F937F936A2F3B
:1005640072EB679F7F916F9116940794169407948A
:1005740016940794169407940092412810924228E6
:1005840020924328209244282CCFE0911628F09101
:100594001728309609F025CFE0911D28F0911E28E8
:1005A400309609F01ECFE0912328F091242830964C
:1005B40009F017CFBA2FBF70C0910728CB1B08F4DE
:1005C400C0E0E4E3F0E0CC0FEC0FF21DC591D49150
:1005D400C0934528D0934628A295AF70AA0FA3953F
:1005E4006F937F936A2F72EB679F7F916F9116943D
:1005F40007941694079416940794169407940092FB
:100604004728109248282092492820924A28E9CE67
:10061400E8CEFEE0E6EBEA0FF21DA695A795A795B6
:10062400B0910028CB2FB07CAB1301C0DACED490AC
:10063400CF73CB2BC0930028D4CED3CED2CED1CE81
:10064400D0CEB0930728A3E0B2E0B0931328A093D0
:100654001828B0931F28B0932528B0932A282092F5
:100664001C282092222820922F2820923028209281
:1006740033282092342820923B2820923C28A091B1
:100684008C0AB0918D0AA0933528B0933628209215
:100694003F282092402820924328209244282092E8
:1006A4004528209246282092492820924A28FBD0A7
:1006B40098CEB755A0910028A07FAB2BA09300281B
:1006C4009660F1D08ECEB756B0930E28ECD002C10E
:1006D400209211282092122820921628209217285E
:1006E40020921D2820921E2820922328209224281C
:1006F400209228282092292820921C2820922228FF
:100704003196B491E5EBF0E0EB0FF21DEE0FFF1F15
:10071400A591B491AA0FBB1FEA2FFB2FB491329677
:10072400A6E0AA9519F0B69578F0FBCFA3E0B2E065
:10073400B0931328A0931828B0931F28B0932528AA
:10074400B0932A28BAD04DCEC591D591A53039F0B1
:10075400A43079F0A330D9F0A23059F13CC0C09351
:100764001128D093122841D0C0931528D09314286F
:10077400D8CFC0931628D093172820923F282092D0
:10078400402820924528209246283AD0CACFC093C8
:100794001D28D0931E2820923F2820924028209282
:1007A40045282092462821D0C0932128D093202880
:1007B400B8CFC0932328D093242820923F28209296
:1007C400402820924528209246280FD0C0932728FD
:1007D400D0932628A6CFC0932828D093292805D0C3
:1007E400C0932C28D0932B289CCFEF93FF93EC2F0E
:1007F400FD2FEE0FFF1FC591D491FF91EF91089546
:10080400EF93FF93EC2FFD2FEE0FFF1FC591D591B2
:10081400C0931A28D0931928C491C0931B28FF9120
:10082400EF910895B0911528BF3F19F0B395B09397
:100834001328B0911A28BF3F19F0B395B093182824
:10084400B0912128BF3F19F0B395B0931F28B09100
:100854002728BF3F19F0B395B0932528B0912C28D1
:10086400BF3F19F0B395B0932A281DD0BACDE091BB
:100874000828F0910928A0910A28B0910B281A960B
:10088400A0930A28B0930B28EA0FFB1FA591B491FB
:10089400AA0FBB1FA0930C28B0930D2820920F28F9
:1008A400209210289ECDE0910F28F09110283196C7
:1008B400E0930F28F09310280895E0910F28F09109
:1008C40010283296E0930F28F09310280895BA95D3
:1008D400B0930E28E0911128F0911228309681F1FE
:1008E400EE0FFF1FA0911328EA0FF21DB0911528F7
:1008F400BA1729F4A0911428AB1710F003C0A395DC
:10090400A0931328B491BF3F69F4B0911528BF3F59
:1009140029F4B0911428B0931328DCCFA250A093EB
:100924001328D8CFEEEEFEE0B295EB0FF21DB09196
:100934000028BF70EB0FF21DB491B093062805C0D8
:10094400B0910028BF70B0930628E0911628F0916A
:1009540017283096F9F1EE0FFF1FA0911828EA0F1F
:10096400F21DB0911A28BA1729F4A0911928AB17CF
:1009740010F003C0A395A0931828B491B038F9F4EB
:10098400A150A0931828B0911B28B13048F0B09121
:100994001A28BF3FF9F4B0911928BF3F69F41AC06F
:1009A400B0911A28BF3F21F4B0911928BF3F21F418
:1009B400A150A0931828C9CFB0931828C6CF20926D
:1009C4001C2820922228A0911B28A03031F0A130AD
:1009D40081F011C0A09107281FC0A0910728AB0F78
:1009E400B7FD04C0A735C0F0A6E516C0A7FDA0E07A
:1009F40013C0AB2F11C0A0910728AB0FB7FD08C0DF
:100A0400A0930728A73540F0A6E5A093072804C0C3
:100A1400A7FDA0E0A0930728E4E3F0E0AA0FEA0F03
:100A2400F21DA591B491A0938C0AB0938D0AA09362
:100A34003728B093382800C0E0911D28F0911E2873
:100A4400309609F423C0EE0FFF1FA0911F28EA0F70
:100A5400F21DB0912128BA1729F4A0912028AB17D0
:100A640010F003C0A395A0931F28B491B03889F463
:100A7400A150A0931F28B0912128BF3F39F4B09111
:100A84002028BF3F19F0B0931F28D6CFB0911C285F
:100A940005C0A0911C28BA0FB0931C28A0913D2832
:100AA400BA0F6F937F936B2F72EB67037F916F91F4
:100AB400169407941694079416940794169407941E
:100AC40013FE02C0B0EF1B2AA0918C0AB0918D0ACC
:100AD400A00DB11DC0912F28D0913028AC1BBD0BA7
:100AE400C0913328D0913428AC0FBD1FC091432846
:100AF400D0914428AC1BBD0BC0914928D0914A2801
:100B0400AC0FBD1FA0938C0AB0938D0AE0912328EB
:100B1400F0912428309609F43CC0EE0FFF1FA091F9
:100B24002528EA0FF21DB0912728BA1729F4A091BD
:100B34002628AB1710F003C0A395A0932528B491E1
:100B4400B03889F4A150A0932528B0912728BF3F3D
:100B540039F4B0912628BF3F19F0B0932528D6CF99
:100B6400B091222805C0A0912228BA0FB093222860
:100B74006F937F936B2F72EB67037F916F91A091BB
:100B84008C0AB0918D0AA00DB11DA0938C0AB0936C
:100B94008D0AE0912828F09129283096B1F1EE0FC2
:100BA400FF1FA0912A28EA0FF21DB0912C28BA1732
:100BB40029F4A0912B28AB1710F027C0A395A0937C
:100BC4002A28B491BF3F71F4A150A0932A28B09170
:100BD4002C28BF3FD1F4B0912B28BF3FB1F0B09384
:100BE4002A28D7CFFEE0E6EBEB0FF21DB695B795BA
:100BF400B795A0910028CA2FA07CBA1301C005C0E4
:100C0400D490CF73CB2BC0930028E0912D28F09182
:100C14002E28309651F0A0912F28B0913028AE0F95
:100C2400BF1FA0932F28B0933028E0913128F09172
:100C34003228309651F0A0913328B0913428AE0F69
:100C4400BF1FA0933328B0933428E0913928F09142
:100C54003A28309609F448C0A0913528B091362836
:100C6400109609F441C0C0913728D0913828AC17A8
:100C7400BD0711F030F01FC020923528209236288D
:100C840033C0CA1BDB0BA0913B28B0913C28AE0FAC
:100C9400BF1FCA1BDB0B80F3A0933B28B0933C28F7
:100CA400A0918C0AB0918D0AAC1BBD0BA0938C0A49
:100CB400B0938D0A19C0AC1BBD0BC0913B28D091D9
:100CC4003C28CE0FDF1FAC1BBD0BB0F2C0933B28FA
:100CD400D0933C28C0918C0AD0918D0ACA0FDB1F97
:100CE400C0938C0AD0938D0AB0913E28B215E9F0D6
:100CF400A0910528C0910028DA2FEC2FE295D07F2F
:100D0400E07FED1709F0AE2FB7FD04C0AB0F28F458
:100D1400A0EF03C0AB0F08F0A0E0A0930528A07FCC
:100D2400A295C07FCA2BC0930028E0913F28F09180
:100D34004028309631F1A0914328B0914428C091C5
:100D44008C0AD0918D0ACA1BDB0BCE17DF0710F07B
:100D540009F068F4EC1BFD0BAE0FBF1FA0934328F2
:100D6400B093442820923F28209240280AC0C09182
:100D74004128D0914228AC0FBD1FA0934328B093C3
:100D84004428E0914528F0914628309631F1A0910D
:100D94004928B0914A28C0918C0AD0918D0ACA0F73
:100DA400DB0FCE17DF0710F009F068F4EC1BFD0B26
:100DB400AE0FBF1FA0934928B0934A28209245281C
:100DC400209246280AC0C0914728D0914828AC0FE9
:100DD400BD1FA0934928B0934A28DF91CF91EBCA55
:100DE400BFB7BF93F894DD0CD21CB1E0B093860A70
:100DF400BF91BFBF1895BF2DB770F9F4DF93DF2DF6
:100E0400D295D77009F4DF9119C0A0918C0AB091E2
:100E14008D0AB695A795DA95E1F7F7FE02C0A0957D
:100E2400B095D0918C0AAD0FD0918D0ABD1FA093BF
:100E34008C0AB0938D0ADF9101C0FA9497FF08954C
:100E4400F0900128F2949F77089596FD10C0003029
:100E540011F00A950895009100280F7095FF02C0C3
:100E64001FE00895103009F408951A9508959F7BA2
:100E7400009100280F701FE00895FEE0EAE8ED0FEE
:100E8400F21DD4910895057F0A0114022803500429
:100E94001E0507060D0706080C09180A300B600C1E
:100EA400240D080E100FFEE0E6EBED0FF21DD491B9
:100EB400089501030FFC1D021E0236024E02710248
:100EC4007202730276027702780279027A027B0256
:100ED4007C027D027E027F0280028302C7020A0333
:100EE4000B031F0320032103220300000000000062
:100EF40000000000000000000000000101010101E9
:100F040001010101010101010101000101010101CE
:100F140001010101010101010102000101010101BD
:100F240001010101020202020203000101010101A7
:100F34000101020202020303030400010101010191
:100F44000202020303030404040500010101010277
:100F54000202030304040405050600010101010261
:100F64000203030404050506060700010101020249
:100F74000303040405050606070800010101020332
:100F84000304040506060707080900010102020319
:100F94000404050606070808090A00010102020301
:100FA40004050506070808090A0B000101020304E9
:100FB400040506070808090A0B0C000101020304D2
:100FC4000506060708090A0B0C0D000101020304BB
:100FD40005060708090A0B0C0D0E0001020304059F
:0A0FE400060708090A0B0C0D0E0F9A
:00000001FF
