:020000020000FC
:040000000C94911BB0
:04000C000C94481FE9
:04001C000C943B20E5
:080030000C94701F0C94BD1F1D
:040064000C940A20CE
:100090000C941520C758CC53184FA74A7746824274
:1000A000C73E413BED37CA34D331072F642CE629D4
:1000B0008C2754253B234121631FA01DF71B651A84
:1000C000EA1884173216F314C613AA129E11A1104F
:1000D000B20FD00EFB0D320D750CC20B190B790A45
:1000E000E3095509CF085008D9076807FE069906A5
:1000F0003A06E1058C053D05F104AA0467042804CD
:10010000EC03B4037F034D031D03F002C6029E02FD
:100110007902550234021402F601DA01BF01A60188
:100120008F01780163014F013C012B011A010A0183
:10013000FB00ED00E000D300C700BC00B200A80047
:100140009E00210037006400BD0070012302D6022A
:100150008903730496055608210BAC1037166F2CD3
:10016000D458620956087607070749069605F90428
:10017000B604300489032403D6025B02E0019D012A
:100180003801000000000000000000000000000036
:10019000000000000000000000000000000000005F
:1001A0000000000000000000010101010101010147
:1001B0000101000000010101020202030303030325
:1001C000030300000001010202030303040404040A
:1001D00004040000010202030304040505060606E8
:1001E00006060000010203040506070708080909BE
:1001F000090900010203040506070809090A0B0B97
:100200000B0B0001020405060708090A0B0C0C0D74
:100210000D0D000103040608090A0C0D0E0E0F1047
:10022000101000020406080A0C0D0F111213141509
:100230001515000205080B0E10131517181A1B1CB4
:100240001D1D0004080C1014181B1F222426282A28
:100250002B2B00060C12181E23282D3135383B3D60
:100260003E3F0009121B242D353C434A4F54585B36
:100270005E5F000C1825303C47515A626A70767AEE
:100280007D7F000306090B0E111316181B1D1F227C
:100290002426282A2C2E3032343638393B3D3E4035
:1002A00042000002030507080A0C0D0F1012141576
:1002B00017181A1B1D1E202123242527282A2B2C22
:1002C0002E2F313233343637383A3B3C3D3F4041B4
:1002D000424445464748494B4C4D4E4F505153546C
:1002E00055565758595A5B5C5D5E5F606162636446
:1002F00065666768696A6B6C6D6E6F707172737337
:100300007475767778797A7A7B7C7D7E7F7F808141
:10031000828384848586878888898A8B8B8C8D8E5E
:100320008E8F909191929394949596969798989990
:100330009A9B9B9C9D9D9E9F9FA0A0A1A2A2A3A4CF
:10034000A4A5A6A6A7A7A8A9A9AAAAABACACADAD1F
:10035000AEAFAFB0B0B1B1B2B3B3B4B4B5B5B6B679
:10036000B7B8B8B9B9BABABBBBBCBCBDBD00CA004E
:1003700035001D025A09D20E2113D91AC102A20951
:10038000D50E2113D91A2503470ADE0E2713D91AD1
:100390007B03EE0AEF0E3813D91AD103120B100F9C
:1003A000BA13D91A3504210B470F4514D91A9904E9
:1003B0003A0BA60F1715D91AFD044C0BFE0FCA15E0
:1003C000D91A5D05E70B60101715D91AA505280C79
:1003D000FE0F9A16D91A0B06D20CC8107017D91A2C
:1003E0007C063B0D22112318D91A8206600D531189
:1003F000B718D91A8A06730D2211B718D91A2C0703
:10040000980D84114919D91ACE07730DD4119A1673
:10041000D91A3208A70D4112081AD91AA108B70D26
:10042000B412CA15D91AB908620E12132113D91AB7
:10043000C9087D0E1C132413D91AF003275EE30AA2
:10044000E900685867225F6858672E606858672916
:100450006068586735606858672960685867316018
:100460006858672960685867335F6858672C5F6809
:1004700058672E5F685867275F6858672A5F685813
:1004800067255F6858672E5F6858672A5F685867F6
:10049000275E685867225E6858672A5E6858672733
:1004A0005E685867355E6858672E5E685867365EC6
:1004B0006858672F5E685867385D685867315D68AF
:1004C0005867365D6858672F5D685867355C6858AF
:1004D000672E5C685867315C6858672A5C685867A3
:1004E000275B685867225B6858672E5B68586729E6
:1004F0005B685867355B685867295B685867315B8C
:10050000685867295B685867335A6858672C5A6877
:1005100058672E5A685867275A6858672A5A685881
:1005200067255A6858672E5A6858672A5A68586764
:10053000275868586722596858672A5968586727A2
:100540005968586735596858672E59685867365939
:100550006858672F5968586738596858673159681B
:10056000586736596858672F596858673559685819
:10057000672E5968586731596858672A596858670B
:10058000FF002163E308E900691E606925636921B2
:1005900060692F63692860692D63692560692C6330
:1005A000692160692863692360692563691E606940
:1005B0002863692360692163691E60692863692172
:1005C00060692A6369236069286369216069276318
:1005D000691E60692363691C60692063691E616923
:1005E0002363691C61692163E309691E61692563ED
:1005F000692161692F63692861692D6369256269D1
:100600002C64692162692864692362692564691E12
:1006100062692864692362692164691E62692864C9
:10062000692162692A6469236269286469216269AF
:100630002764691E62692364691C62692064691BFE
:1006400062692364691C6369FF002065E30AE900AD
:10065000691B63692765692263692E65692263697D
:100660002A65692263692C656925636927656920A4
:1006700063692365691E6469276569236469206568
:10068000E30B691B64692365692064692E6569272A
:1006900064692F65692864693165692A64692F6511
:1006A000692864692E65692764692A656923646914
:1006B0002065E30C691B69276922692E6922692A72
:1006C0006922692C6925692769206923691E6927C0
:1006D00069236920E30D691B69236920692E692755
:1006E000692F69286931692A692F6928692E692764
:1006F000692A692369FF2165E30EE900691E6925FE
:100700006921692F6928692D692563692C6569212B
:1007100069286923692563691E6569286923692138
:10072000E30D691E69286921692A692369286921FD
:100730006927691E6923691C6920691E6923691C70
:100740006921E30C691E69256921692F656928649F
:10075000692D65692564692C5D692164692865696D
:100760002364692565691E646928656923646921B4
:1007700065E30B691E64692865692164692A6369F8
:100780002363692865692163692765691E63692395
:1007900065691C63692065691B63692365691C635E
:1007A00069FF2064E30AE900691B63692762692223
:1007B00063692E64692262692A64692262692C6411
:1007C000692562692760692062692364691E62691C
:1007D0002760692362692064691B62692364692058
:1007E00062692E64692760692F64692862693164CF
:1007F000692A62692F64692862692E6469276269BF
:100800002A64692362692064E309691B62692760BD
:10081000692262692E64692262692A6469226269B6
:100820002C63692562692760692062692363691EF8
:1008300062692760692362692063691B62692363B7
:10084000692062692E63692760692F64692862697B
:100850003164692A62692F65692863692E65692791
:1008600060692A6669236469FF002165E308E9007D
:10087000691E62692565692162692F60692862695C
:100880002D65692562692C6569216269286569237E
:1008900062692565691E6269286569236269216547
:1008A000691E63692865692163692A65692363692B
:1008B0002865692163692765691E63692365691C69
:1008C00063692065691E63692365691C6369216525
:1008D000E309691E63692565692163692F606928D9
:1008E00063692D65692563692C65692163692865DC
:1008F000692363692565691E6369286569236369DE
:100900002165691E63692865692163692A65692310
:1009100063692865692163692765691E63692365C1
:10092000691C63692065691B63692365691C6369C8
:10093000FF002065E30AE900691B636927656922F6
:1009400063692E65692264692A65692264692C6578
:10095000692564692765692064692365691E64697E
:100960002765692364692065E30B691B6469236556
:10097000692064692E656927692F69286931692AA8
:10098000692F6928692E6927692A69236920E30C80
:10099000691B69276922692E6922692A69226920EF
:1009A00065E30D6858671B65685867276568586771
:1009B00022656858672E6568586722656858672AF7
:1009C0006568586722656858672065691B692769EB
:1009D00022692E6922692A6922692EE30E69226939
:1009E0002A6922692A656859672A626859672A60F4
:1009F0006859672A5E685967FF002A5FE30EE900BD
:100A00006857672A5C6857672A5B6857671C58E312
:100A100002E900671CE3016B19E3026719E3016B4C
:100A20001BE302671BE3016B1BE302671BE301F798
:100A3000117D19E3026719E3016B1BE302671BE3F6
:100A4000016B1BE302671BE301F7117D19E30267EA
:100A500019E3016B1BE302671BE301711C671C6B4D
:100A60001967196B1B671B6B1BE302671BE301F71D
:100A7000117D19E3026719E3016B1EE302671EE3B0
:100A8000016B1EE302671EE301F72269E941EA41B7
:100A900068E952EA5268E973EA7267195CE900EAA8
:100AA0000067195B675A6A5868576A1B5C671B5B6B
:100AB000F711675A6A5868576AFF2060E30AE9002D
:100AC000691B69276922692E6922692A6922692CB2
:100AD0006925692769206923691E692769236920B7
:100AE000E30B691B69236920692E6927692F69282F
:100AF000693161692A692F6928692E6927692A691C
:100B000023692062E30C691B69276922692E692227
:100B1000692A6922692C6925692769206923691E68
:100B2000692769236920E30D691B69236920692E00
:100B30006927692F6928693163692A692F692869DA
:100B40002E6927692A692369FF002163E30EE90002
:100B5000691E61692563692161692F63692861697B
:100B60002D63692561692C636921616928636923A3
:100B700061692563691E616928636923616921636D
:100B8000E30D691E61692863692161692A6369232C
:100B900061692863692161692763691E616923634B
:100BA000691C61692063691E61692363691C61694D
:100BB0002163E30C691E61692563692161692F6303
:100BC000692861692D63692561692C6369216169FF
:100BD0002863692361692563691E61692863692344
:100BE00061692163E30B691E616928636921616999
:100BF0002A63692361692863692161692763691E22
:100C000061692363691C61692063691B61692363EE
:100C1000691C6169FF002064E30AE900691B6169DE
:100C20002764692261692E64692262692A646922E3
:100C300062692C646925626927646920626923649A
:100C4000691E62692764692362692064691B62699D
:100C50002364692062692E64692762692F646928A8
:100C600062693164692A62692F64692862692E6445
:100C7000692762692A64692362692065691B626960
:100C80002765692262692E65692262692A6569227F
:100C900062692065E3096858671B626858672765C1
:100CA00068586722626858672E65685867226268CC
:100CB00058672A6568586722626858672065E308A4
:100CC000691B62692765692262692E65692262690A
:100CD0002A65692262692E65692262692A6569222C
:100CE00062692A656859672A626859672A60685983
:100CF000672A5E685967FF00045AE301E900C606E7
:100D00005AC6FF00035AE301E900C6085A9606597D
:100D100090586CFF255CE302E90067315BE30167F3
:100D20005A675967586B59675868285CE3026734FB
:100D30005BE301675A675967586B596758682F5CBE
:100D4000E302673B5BE301675A675967586B596772
:100D500058682D5CE30267395BE301675A6759679E
:100D6000586B596758682C5CE30267385BE301678E
:100D70005A675967586B59675868205CE302672CBB
:100D80005BE301675A675967586B59675868255C78
:100D9000E30267315BE301675A675967586B59672C
:100DA0005868275CE30267335BE301675A6759675A
:100DB000586B59675868255CE30267315BE301674C
:100DC0005A675967586B59675868285CE30267345B
:100DD0005BE301675A675967586B596758682F5C1E
:100DE000E302673B5BE301675A675967586B5967D2
:100DF00058682D5CE30267395BE301675A675967FE
:100E0000586B596758682A5CE30267365BE30167F1
:100E10005A675967586B59675868275CE30267330C
:100E20005BE301675A675967586B59675868235CD9
:100E3000E302672F5BE301675A675967586B59678D
:100E40005868275CE30267335BE301675A675967B9
:100E5000586B59675868FF00235CE302E900672F6D
:100E60005BE301675A675967586B59675868275C95
:100E7000E30267335BE301675A675967586B596749
:100E800058682F5CE302673B5BE301675A67596769
:100E9000586B596758682D5CE30267395BE301675B
:100EA0005A675967586B596758682A5CE302673676
:100EB0005BE301675A675967586B59675868205C4C
:100EC000E302672C5BE301675A675967586B596700
:100ED0005868275CE30267335BE301675A67596729
:100EE000586B596758682C5CE30267385BE301670D
:100EF0005A675967586B596758682A5CE302673626
:100F00005BE301675A675967586B59675868285CF3
:100F1000E30267345BE301675A675967586B5967A7
:100F20005868275CE30267335BE301675A675967D8
:100F3000586B59675868285CE30267345BE30167C4
:100F40005A675967586B596758682C5CE3026738D1
:100F50005BE301675A675967586B59675868275CA4
:100F6000E30267335BE301675A675967586B596758
:100F70005868255CE30267315BE301675A6759678C
:100F8000586B59675868275CE30267335BE3016776
:100F90005A675967586B59675868FF002163E3081F
:100FA000E900691E6169255F692161692F6369280C
:100FB00061692D6369255F692C6369216169286313
:100FC00069236169255F691E616928636923616915
:100FD0002163691E61692863692161692A63692344
:100FE00061692863692161692763691E61692363F7
:100FF000691B61692063691E61692363691B6169FB
:101000002163E309691E61692563692161692F63B1
:10101000692862692D63692562692C5F69216269AB
:101020002864692362692564691E636928646923E9
:1010300063692164691E63692864692163692A5FA1
:10104000692363692864692163692764691E636988
:101050002364691B63692064691E63692364691BD7
:101060006369FF002065E30AE900691B6369275F84
:10107000692263692E65692264692A656922646947
:101080002C6569256469275F692064692365691E89
:101090006469275F692364692065E30B691B6469E0
:1010A0002365692064692E6569275F692F65692852
:1010B00064693165692A64692F65692864692E65E8
:1010C000692764692A65692764692565E30C691CD9
:1010D00064692865692564692F656928692D692017
:1010E000692565E30D6858671C6568586728656859
:1010F000586725656858672F656858672865685878
:10110000672D6568586720656858671E65691B69A3
:10111000275F692365692F69275F692A65692369E4
:101120002FE30E69275F692A656923692A65685874
:10113000672A626858672A606858672A5E68586735
:10114000FF002D5AE300E900F7026CE941725B6C85
:10115000E9526C5C785AF8236C5B6C5C8A5BF72311
:10116000725C8A5BF823785C6CF82472F724695B04
:101170006FFF2C5AE300E941F822785B72E9529044
:10118000E96372F81272F722725B845A7E597858BA
:1011900072FF58E3007E335FE30AE9006858672C6A
:1011A0005F6858672E5F685867275F6858672A5FCF
:1011B000685867255F6858672E5F6858672A5F68B8
:1011C0005867275E685867225E6858672A5E6858C5
:1011D00067275E685867355E6858672E5E6858678F
:1011E000365E6858672F5E685867385D68586731A3
:1011F0005D685867365D6858672F5D685867355C6D
:101200006858672E5C685867315C6858672A5C6864
:101210005867275B685867225B6858672E5B685879
:1012200067295B685867355B685867295B6858674A
:10123000315B685867295B685867335A6858672C70
:101240005A6858672E5A685867275A6858672A5A42
:10125000685867255A6858672E5A6858672A5A6826
:101260005867275868586722596858672A59685834
:1012700067275968586735596858672E59685867FD
:1012800036596858672F5968586738596858673110
:101290005968586736596858672F596858673559DB
:1012A0006858672E5968586731596858672A5968CD
:1012B0005867FF002057E308E900691B6927692286
:1012C000692E6922692A6922692C692569276920A2
:1012D0006923691E69276923692058691B69236985
:1012E00020692E596927692F69285A6931692A6945
:1012F0002F5B6928692E69275C692A692369205D4B
:10130000691B69276922692E6922692A6922692C69
:101310005E6925692769206923691E692769236930
:10132000205F691B69236920692E6927692F692855
:10133000693160692A692F6928692E6927692A69D4
:101340002369FF002E58E30AE9006857673158689F
:1013500057672A586857672158E3086857671E5827
:10136000685767255868576721586857672F586826
:10137000576728586857672D586857672558685722
:10138000672C586857672158685767285868576707
:10139000235868576725586857671E586857672845
:1013A00058685767235868576721586857671E5809
:1013B000685767285868576721586857672A5868D8
:1013C00057672358685767285868576721586857E0
:1013D0006727586857671E586857672358685767C4
:1013E0001C5868576720586857671E586857672306
:1013F000586857671C586857672158E3096857674A
:101400001E58685767255868576721586857672FCF
:101410005868576728586857672D58685767255880
:101420006857672C58685767215868576728586865
:101430005767235868576725586857671E58685775
:10144000672858685767235868576721586857674F
:101450001E58685767285868576721586857672A81
:10146000586857672358685767285868576721583E
:1014700068576727586857671E5868576723586822
:1014800057671C586857672058685767FF001B58F4
:10149000E309E90068576723586857671C5868577D
:1014A000672058E30A6857671B58685767275868CA
:1014B000576722586857672E5868576722586857E9
:1014C000672A5868576722586857672C58685767C3
:1014D0002558685767275868576720586857672303
:1014E000586857671E5868576727586857672358C2
:1014F0006857672058E30B6857671B58685767237E
:101500005868576720586857672E58685767275894
:101510006857672F58685767285868576731586861
:1015200057672A586857672F586857672858685769
:10153000672E5868576727586857672A586857674B
:1015400023586857672058E30C6857671B5868573B
:1015500067275868576722586857672E5868576733
:1015600022586857672A5868576722586857672C67
:10157000586857672558685767275868576720582D
:1015800068576723586857671E5868576727586811
:10159000576723586857672058E30D6857671B58EB
:1015A000685767235868576720586857672E5868E8
:1015B000576727586857672F5868576728586857DC
:1015C0006731586857672A586857672F58685767B0
:1015D00028586857672E58685767FF002558E3005A
:1015E000E9416F596FE9526C5A6CE9636F5B6FE9BF
:1015F00064725AF71272F71172F71272E952F71207
:101600006C5B6CE94178E9526F5A69E9636C59F88F
:10161000126CE964695A75E941F8126CE9626CE987
:101620006372FF002859E300E963F8116F5A6C5B9D
:101630006FE9646C5A9CF8127259F7126F5AAB59E1
:1016400078FF2D59E300E900F7026CE941725A6C0A
:10165000E9526C5B725C6C5AF8236C5B6C5C8A5B65
:10166000F723725C8A5BF823785C6CF82472F724A9
:10167000695B6FFF2C5AE300E900F82272E9416CC4
:101680005B72E95290E96372F81272F712725B842E
:101690005A7E59785872FF001C5FE302E900671C0C
:1016A0005EE301675D6A195FE30267195EE3016744
:1016B0005D67586757681B5FE302671B5EE301675E
:1016C0005D67586757681B5FE302671B5EE301F7BE
:1016D00011675D765B67596B195FE30267195EE31B
:1016E00001675D67586757681B5FE302671B5EE32E
:1016F00001675D67586757681B5FE302671B5EE31E
:1017000001F711675D765B67596B195FE302671933
:101710005EE301675D67586757681B5FE302671BFD
:101720005EE301675D6E5B6758671C5F671C5E6701
:101730005D6A195F67195E675D67586757681B5F69
:10174000671B5E675D67586757681B5FE302671B2F
:101750005EE301F711675D765B67596B195FE30222
:1017600067195EE301675D67586757681E5FE302AC
:10177000671E5EE301675D67586757681E5FE30297
:10178000671E5EE301F722675D68E941EA41685E32
:10179000E952EA5268E973EA72685FE984EA8268AA
:1017A000E986EA8269E988EA82675B6758671C5FB5
:1017B000E900EA00671C5E675D6A5868576A1F5F48
:1017C000671F5EF711675D6A5868576AFF001B5F05
:1017D000E301E900671D5EF701675D6AE9416CE9B5
:1017E000526CE9636CE9736CE9746CE9756C5CE9E3
:1017F000766C5BE9776C5A6C596C586CE97669E9E0
:101800007469E97269E97169195FE302E900671CAB
:101810005EE301675D701B5FE302E900671E5EE344
:1018200001675D6AE9416CE9526CE9636CE9736CCC
:10183000E9746C5CE9756CE9766C5BE977725A72F5
:10184000597258E97669E97469E97269E97169FF61
:10185000205FE302E90067205EE301675D6A1E5FC7
:10186000E302671E5EE301675D6758675768235FA1
:10187000E30267235EE301675D67586757681B5F94
:10188000E302671B5EE301F711675D735B675968ED
:10189000205FE30267205EE301675D6A1E5FE3028B
:1018A000671E5EE301675D6758675768235FE30261
:1018B00067235EE301675D67586757681B5FE30254
:1018C000671B5EE301F711675D765B67596B195F14
:1018D000E30267195EE301675D67586757681B5F3E
:1018E000E302671B5EE301675D6E5B6758671C5F21
:1018F000671C5E675D6A195F67195E675D67586799
:1019000057681B5F671B5E675D67586757681B5F9B
:10191000E302671B5EE301F711675D735B6759685C
:10192000195FE30267195EE301675D6A1B5FE3020B
:10193000671B5EE301675D67586757681C5FE302DA
:10194000671C5EE301675D67586757681E5FE302C7
:10195000671E5EE301F722675D68E941EA41685E60
:10196000E952EA5268E973EA72685FE984EA8268D8
:10197000E986EA8269E988EA82675B675867195FE6
:10198000E302E900EA00671C5EE301675D6A5868EC
:10199000576A1C5FE30267205EE301675D6A58686F
:1019A000576AFF001B5FE301E900671D5EF72167CF
:1019B0005D6AE9416CE9526CE9636CE9736CE97446
:1019C0006CE9756C5CE9766C5BE9776C5A6C596C08
:1019D000586CE97669E97469E97269E97169195FB6
:1019E000E302E900671C5EE301675D701B5FE302D1
:1019F000E900671E5EE301675D6AE9416C5CE952DC
:101A0000695B695AE9636959691B5FE302E9006729
:101A10001E5EE301675D6AE9416C5CE952695B69DE
:101A20005AE9636959691B5FE302E900671E5EE3D7
:101A300001675D6A5CE941695B691B5EE302E9007D
:101A4000671E5DE301675C6A5BE941695A691B5C7B
:101A5000E302E900671E5BE301675A6A59E94169DD
:101A600058691B5BE302E900671E5AE30167596A84
:101A700058E9416CFF002559E300E941EA006F5A3B
:101A80006FE9526C5B6CE9636F5C6FE964725BF7E2
:101A90003272F72172F73272E952F7226C5C6CE90C
:101AA0004178E9526F5B69E9636C5AF8226CE9642A
:101AB000695B75E941F8226CE9626CE96372FF00C9
:101AC000285AE300E963F8216F5B6C5C6FE9646C92
:101AD0005B9CF822725AF7226F5B9FE963725A6F20
:101AE000E96269596CFF2559E300E941EA006F5A40
:101AF0006FE9526C5B6CE9636F5C6FE964725BF772
:101B00002272F72172F72272E952F7226C5C6CE9BB
:101B10004178E9526F5B69E9636C5AF8226CE964B9
:101B2000695B75E941F8226CE9626CE96372FF0058
:101B3000285AE300E963F8216F5B6C5C6FE9646C21
:101B40005B9CF824725AF7226F5B8D5C96FF285AD3
:101B5000E300E963F8216F5B6C5C6FE9646C5B9C8C
:101B6000F822725AF7226F5BAB5A72596CFF205EF3
:101B7000E302E90067205DE301675C6A1E5EE30241
:101B8000671E5DE301675C6758675768235EE30281
:101B900067235DE301675C67586757681B5EE30274
:101BA000671B5DE301F711675C735B675968205E33
:101BB000E30267205DE301675C6A1E5EE302671E65
:101BC0005DE301675C6758675768235EE30267233C
:101BD0005DE301675C67586757681B5EE302671B3C
:101BE0005DE301F711675C765B67596B195EE30291
:101BF00067195DE301675C67586757681B5EE3021E
:101C0000671B5DE301675C6E5B6758671C5E671C62
:101C10005D675C6A195E67195D675C67586757683E
:101C20001B5E671B5D675C67586757681B5EE30256
:101C3000671B5DE301F711675C735B675968195EA9
:101C4000E30267195DE301675C6A1B5EE302671BE1
:101C50005DE301675C67586757681C5EE302671CB9
:101C60005DE301675C67586757681E5EE302671EA5
:101C70005DE301F722675C68E941EA41685EE95289
:101C8000EA5268E973EA72685FE984EA8268E98681
:101C9000EA8269E988EA82675B675867195EE3024E
:101CA000E900EA00671C5DE301675C6A5868576AEF
:101CB0001C5EE302671F5DE301F711675C6A586809
:101CC000576AFF001E5DE301E900675C675B6A5AC3
:101CD000E9416CE9526CE9636CE9736CE9746CE995
:101CE000756CE976725A6C596C58841B58E9416CD2
:101CF000599C19721B721E72FF00275BE30AE900F0
:101D0000685867225C6858672E5D685867295E6866
:101D10005867355E685867295F685867315E68584C
:101D20006729606858672C57E30869256927692087
:101D30006923691E69276923692058691B6923691A
:101D400020692E596927692F69285A6931692A69DA
:101D50002F5B6928692E69275C692A692369205DE0
:101D6000691B69276922692E6922692A6922692CFF
:101D70005E6925692769206923691E6927692369C6
:101D8000205F691B69236920692E6927692F6928EB
:101D9000693160692A692F6928692E6927692A696A
:101DA0002369FF0057E300E2AAFF1266E300C5576C
:101DB0006715669557671766955767FF1466E300C2
:101DC000B9576712667157671466A1576712667133
:101DD000576714667157671766715767FF00176674
:101DE000E3056812E3006D10E3056712E3008C174A
:101DF000E3056812E3006D10E3056712E3008C1A37
:101E0000E3056815E3006D13E3056715E3008C1A1D
:101E1000E3056817E3006D13E3056717E3008CFF24
:101E200019E3056814E3006D12E3056714E3008C01
:101E300019E3056814E3006D12E3056714E30080FD
:101E4000127219E3056814E3006D12E3056714E3E9
:101E5000008C19E3056814E3006D12E3056714E3D1
:101E60000068126C17E3056812E3006A19E305685D
:101E700014E3006A19E3056814E3006A19E30568CE
:101E800017E3006A19E3056817E3006AFF0017E328
:101E9000056812E3006A576C1766E3056812E300F1
:101EA0006A576C1766E3056812E3006A576C176699
:101EB000E3056812E3006A576C1766E3056812E3EE
:101EC000006A576C1766E3056812E3006A576C17DF
:101ED00066E3056812E3006A576C1766E30568124B
:101EE000E3006957671E666912691AE3056815E31E
:101EF000006A576C1A66E3056815E3006A576C1AA6
:101F000066E3056815E3006A576C1A66E305681511
:101F1000E3006A576C1A66E3056817E3006A576CBA
:101F20001A66E3056817E3006A576C1A66E30568EA
:101F300017E3006A576917666857671A66E305680A
:101F400017E3006957672366691769FF19E3056896
:101F500014E3007019E3056814E3007019E30568E1
:101F600014E3007019E3056814E3007019E30568D1
:101F700014E3007019E3056814E3007019E30568C1
:101F800014E30069576714666857671466685767F3
:101F90001C66E305681EE3006A126C19E305681409
:101FA000E3007019E3056814E3007019E305681491
:101FB000E3007019E3056814E3007019E305681481
:101FC000E3007019E3056812E3007019E305681473
:101FD000E3006A22E3056814E300671FE305681461
:101FE000E3006719E3056817E3006A1CE30568145A
:101FF000E3006718E3056814E30067FF17E305686B
:1020000012E3006A576C1766E3056812E3006A572B
:102010006C1766E3056812E3006A576C1766E30500
:102020006812E3006A576C1766E3056812E3006AFA
:10203000576C1766E3056812E3006A576C1766E38E
:10204000056812E3006A576912666857671766E306
:10205000056812E3006957671E666912691AE3058D
:102060006815E3006A576C1A66E3056815E3006AB1
:10207000576C1A66E3056815E3006A576C1A66E345
:10208000056815E3006A576C1A66E3056817E300F4
:102090006A576C1A66E3056817E3006A576C1A669C
:1020A000E3056817E3006A576917666857671A6699
:1020B000E3056817E3006957672366691769FF003E
:1020C00019E3056814E3006A576C1966E3056814A0
:1020D000E3006A576C1966E3056814E3006A576CFD
:1020E0001966E3056814E3006A576C1966E305682E
:1020F00014E3006A576C1966E3056814E3006A5735
:102100006C1966E3056814E3006A5769146668573A
:10211000671966E3056812E3006A1E69126919E32C
:10212000056814E3006A576C1966E3056814E30058
:102130006A576C1966E3056814E3006A576C196600
:10214000E3056814E3006A576C1966E3056814E355
:10215000006A576C1966E3056814E3006A576C1946
:1021600066E3056814E3006718E3056857671866B7
:10217000685767186668576719666814E300671838
:10218000E30568576718666857671866685767FFFA
:102190001966E3056814E3007019E3056814E300A9
:1021A0007019E3056814E3007019E3056814E3008F
:1021B0007019E3056814E3007019E3056814E3007F
:1021C0007019E3056814E300695767146668576778
:1021D00014666857671C66E305681EE3006A126CA4
:1021E00019E3056814E3007019E3056814E300704F
:1021F00019E3056814E3007019E3056814E300703F
:1022000019E3056814E3007019E3056812E3007030
:1022100019E3056814E3006A22E3056814E3006724
:102220001FE3056814E3006719E3056817E3006717
:102230001EE305691C6814E3006718E3056814E3EE
:102240000067FF0019E3056815E3006D12E30567F9
:1022500015E3006E0EE3056715E3008319E30568D7
:1022600015E3006D12E3056715E3006E0EE30567E5
:1022700015E3008319E3056817E3006D13E30567B1
:1022800017E3006E10E3056717E3008319E30568A1
:1022900017E3006D13E3056717E3006E10E30567AE
:1022A00017E30083FF0019E3056814E3006D12E3F0
:1022B000056714E3006E0DE3056714E3008319E37B
:1022C000056814E3006D12E3056714E3006E0DE387
:1022D000056714E3008319E3056819E3006D14E34F
:1022E000056719E3006E11E3056719E3008319E33D
:1022F000056817E3006D13E3056717E3006E10E34D
:10230000056717E30083FF0019E3056814E3006D18
:1023100012E3056714E3006E0DE3056714E3008321
:1023200019E3056814E3006D12E3056714E3006E1A
:102330000DE3056714E3008319E3056819E3006DF5
:1023400014E3056719E3006E11E3056719E3006BF9
:1023500019E3056819E3006D14E3056719E3006EDE
:1023600019E3056819E3006A19E3056817E3006DCE
:1023700013E3056717E3006E10E3056717E30068D2
:1023800017E3056817E3006719E3056817E30067BB
:102390001AE305691769136811E3006720E305690B
:1023A0001D6919691569FF001AE3056815E3006ADC
:1023B000576C1A66E3056815E3006A576C1A66E302
:1023C000056815E3006A576C1A66E3056815E300B3
:1023D0006A576915666757681A66E3056815E3006A
:1023E0006A576C1A66E3056815E3006A576C1A664B
:1023F000E3056815E3006A576915666857671A664A
:10240000E3056815E3006957671566685767156641
:10241000691AE3056817E3006A576C1A66E30568F2
:1024200017E3006A576C1A66E3056817E3006A57FA
:102430006C1A66E3056817E3006A57691766675701
:10244000681A66E3056817E3006A576C1A66E305C5
:102450006817E3006A576C1A66E3056817E30069BA
:102460005767176668576717666857671A66E30500
:102470006817E300695767176668576717666857F4
:1024800067FF1966E3056814E3006A576C1966E391
:10249000056814E3006A576C1966E3056814E300E5
:1024A0006A576C1966E3056814E300695767146698
:1024B00067576814666757681966E3056814E30090
:1024C0006A576C1966E3056814E3006A576C19666D
:1024D000E3056814E3006A5769146668576719666C
:1024E000E3056814E3006957671466685767146664
:1024F000691BE3056819E3006A576C1B66E305680E
:1025000019E3006A576C1B66E3056819E3006A5714
:102510006C1B66E3056819E3006A576C1966E305EE
:102520006817E3006A576C1966E3056817E3006AE9
:10253000576C1966E3056817E3006722E305692213
:102540006814E300671FE3056814E3006719E305F7
:102550006817E300671CE305691C6814E30067184B
:10256000E3056814E30067FF1AE3056815E3006AF2
:10257000576C1A66E3056815E3006A576C1A66E340
:10258000056815E3006A576C1A66E3056815E300F1
:102590006A576C1A66E3056815E3006A576C1A6699
:1025A000E3056815E3006A576C1A66E3056815E3EE
:1025B000006A576915666857671A66E3056815E388
:1025C0000069576715666857671566691AE30568F5
:1025D00017E3006A576C1A66E3056817E3006A5749
:1025E0006C1A66E3056817E3006A576C1A66E30520
:1025F0006817E3006A576C1A66E3056817E3006A18
:10260000576C1A66E3056817E3006A576C1A66E3AD
:10261000056817E3006A576C1A66E3056817E3005C
:102620006A576CFF1966E3056814E300B812721468
:10263000A2127214721772FF57E300E2A9EC01674D
:10264000FF0057E300E2AAFFE300E2AAFF0057E31E
:1026500000E2980B58E303680A680968086759673D
:10266000076806675A6705670467035B670269FFC7
:10267000055AE30367035867576D055967035867A1
:102680005773055D67045C67035B675A6759675852
:1026900067055B67045A67035967586905596704FA
:1026A00058670358675769055867045867035867A0
:1026B0005769055A67035867576D05596703586787
:1026C0005773055D67045C67035B675A6759675812
:1026D00067055B67045A67035967586905596704BA
:1026E0005867035867576905586704586703586760
:1026F0005769055A67035867576D05596703586747
:102700005773055D67045C67035B675A67596758D1
:1027100067055B67045A6703596758690559670479
:10272000586703586757690558670458670358671F
:102730005769055A67035867576D05596703586706
:102740005773055D67045C67035B675A6759675891
:1027500067055B67045A6703596758690559670439
:1027600058670358675769055867045867035867DF
:102770005769FF00055AE30367035867576D05590A
:10278000670358675773055D67045C67035B675AA7
:102790006759675867055B67045A67035967586943
:1027A00005596704586703586757690558670458FF
:1027B000670358675769055A67035867576D055986
:1027C000670358675773055D67045C67035B675A67
:1027D0006759675867055B67045A67035967586903
:1027E00005596704586703586757690558670458BF
:1027F000670358675769055A67035867576D055946
:10280000670358675773055D67045C67035B675A26
:102810006759675867055B67045A670359675869C2
:10282000055967045867035867576905586704587E
:10283000670358675769055A67035867576A055809
:102840006704586703586757690559670458670351
:1028500058675769055B67045A67035967586905E4
:102860005D67045C67035B670A5BE306690A5D6991
:102870000A5E69055DE30367045C67035B670A5FE3
:10288000E306690A60690A6169FF0B5FE303670792
:1028900067045E67035D6702675C685B68065BE30D
:1028A00004670259E303680A61E306690659E30411
:1028B00069025CE30367035A67045867065BE30435
:1028C000690D5CE30769065BE30469025CE3036787
:1028D000035A67045867065BE304690A61E3066903
:1028E0000659E30469025CE30367035A6704586707
:1028F000065BE304690D5CE30769065BE3046902B8
:102900005CE30367035A67045867065BE304690ADC
:1029100061E306690659E30469025CE30367035A4D
:1029200067045867065BE304690D5CE30769065BAF
:10293000E30469025CE30367035A67045867065BB4
:10294000E304690A61E306690659E30469025CE38A
:102950000367035A67045867065BE304690D5CE389
:102960000769065BE30469025CE30367035A6704D3
:102970005867065BE304690A61E306690659E304E4
:1029800069025CE30367035A67045867065BE30464
:10299000690D5CE30769065BE30469025CE30367B6
:1029A000035A67045867065BE304690A61E3066932
:1029B0000659E30469025CE30367035A6704586736
:1029C000065BE304690D5CE30769065BE3046902E7
:1029D0005CE30367035A67045867065BE304690A0C
:1029E00061E306690659E30469025CE30367035A7D
:1029F00067045867065BE304690D5CE30769065BDF
:102A0000E30469025CE30367035A67045867065BE3
:102A1000E304690A61E306690659E30469025CE3B9
:102A20000367035A67045867065BE30469FF0D5C9C
:102A3000E30769075DE30469075D67035AE303671A
:102A400004596758690A61E30669075DE304690789
:102A50005D67035AE3036704596758690D5CE30730
:102A600069075DE30469075D67035AE30367045977
:102A70006758690A61E30669075DE30469075D69F0
:102A8000025CE30367035A670459670D5CE3076957
:102A9000075DE30469075D67035AE3036704596749
:102AA00058690A61E30669075DE30469075D670326
:102AB0005AE3036704596758690D5CE30769075DCA
:102AC000E30469075D67035AE303670459675869BC
:102AD0000A61E30669075DE30469075D69025CE377
:102AE0000367035A670459670D5CE30769075DE3F1
:102AF0000469075D67035AE3036704596758690A65
:102B000061E30669075DE30469075D67035AE30350
:102B10006704596758690D5CE30769075DE3046959
:102B2000075D67035AE3036704596758690A61E35D
:102B30000669075DE30469075D69025CE3036703F7
:102B40005A670459670D5CE30769075DE304690789
:102B50005D67035AE3036704596758690A61E3062E
:102B600069075DE30469075D67035AE30367045976
:102B70006758690D5CE307690A5EE306690A6069E4
:102B80000A61690D5CE307690A5EE306690A606928
:102B90000A6169FF0B5FE303670767045E67035D14
:102BA0006702675C685B68065BE304690A61E306C9
:102BB000690659E30469025CE30367035A67045832
:102BC00067065BE304690D5CE30769065BE3046980
:102BD000025CE30367035A67045867065BE3046912
:102BE0000A61E306690659E30469025CE3036703CB
:102BF0005A67045867065BE304690D5CE3076906DE
:102C00005BE30469025CE30367035A6704586706E1
:102C10005BE304690A61E306690659E30469025C3F
:102C2000E30367035A67045867065BE304690D5CB6
:102C3000E30769065BE30469025CE30367035A6721
:102C4000045867065BE304690A61E306690659E311
:102C50000469025CE30367035A67045867065BE391
:102C600004690D5CE30769065BE30469025CE30346
:102C700067035A67045867065BE304690A61E30661
:102C8000690659E30469025CE30367035A67045861
:102C900067065BE304690D5CE30769065BE30469AF
:102CA000025CE30367035A67045867065BE3046941
:102CB0000A61E306690659E30469025CE3036703FA
:102CC0005A67045867065BE304690D5CE30769060D
:102CD0005BE30469025CE30367035A670458670611
:102CE0005BE304690A61E306690659E30469025C6F
:102CF000E30367035A67045867065BE304690D5CE6
:102D0000E30769065BE30469025CE30367035A6750
:102D1000045867065BE304690A61E306690659E340
:102D20000469025CE30367035A67045867065BE3C0
:102D30000469FF000B5FE303670767045E67035DD9
:102D40006702675C685B68065BE30467025AE3033B
:102D5000680A61E306680259E303670659E30467FA
:102D60000258E30368025C67035A67045867065B0E
:102D7000E304690D5CE30769065BE30469025CE355
:102D80000367035A67045867065BE304690A61E353
:102D900006690659E30469025CE30367035A6704A2
:102DA0005867065BE304690D5CE30769065BE304AF
:102DB00069025CE30367035A67045867065BE30430
:102DC000690A61E306690659E30469025CE3036783
:102DD000035A67045867065BE304690D5CE30769FF
:102DE000065BE30469025CE30367035A6704586700
:102DF000065BE304690A61E306690659E3046902B4
:102E00005CE30367035A67045867065BE304690DD4
:102E10005CE30769065BE30469025CE30367035A4A
:102E200067045867065BE304690A61E306690659AB
:102E3000E30469025CE30367035A67045867065BAF
:102E4000E304690D5CE30769065BE30469025CE384
:102E50000367035A67045867065BE304690A61E382
:102E600006690659E30469025CE30367035A6704D1
:102E70005867065BE304690D5CE30769065BE304DE
:102E800069025CE30367035A67045867065BE3045F
:102E9000690A61E306690659E30469025CE30367B2
:102EA000035A67045867065BE304690D5CE307692E
:102EB000065BE30469025CE30367035A670458672F
:102EC000065BE304690A61E306690659E3046902E3
:102ED0005CE30367035A67045867065BE30469FF12
:102EE0000D5CE30769075DE30469075D67035AE367
:102EF000036704596758690A61E30669075DE304DB
:102F000069075D67035AE3036704596758690D5CF5
:102F1000E30769075DE30469075D67035AE3036735
:102F200004596758690A61E30669075DE3046907A4
:102F30005D69025CE30367035A670459670D5CE34C
:102F40000769075DE30469075D67035AE3036704E4
:102F5000596758690A61E30669075DE30469075D1B
:102F600067035AE3036704596758690D5CE307690F
:102F7000075DE30469075D67035AE3036704596764
:102F800058690A61E30669075DE30469075D690240
:102F90005CE30367035A670459670D5CE30769073D
:102FA0005DE30469075D67035AE3036704596758E3
:102FB000690A61E30669075DE30469075D67035A0F
:102FC000E3036704596758690D5CE30769075DE32C
:102FD0000469075D67035AE3036704596758690A80
:102FE00061E30669075DE30469075D69025CE30369
:102FF00067035A670459670D5CE30769075DE304DB
:1030000069075D67035AE3036704596758690A61F2
:10301000E30669075DE30469075D67035AE3036735
:1030200004596758690A60E306690A5F690D5CE341
:103030000769075BE304690A60E306690A5F690AD6
:103040005F690A6069FF075FE303670467035E6700
:10305000025D685C685B68055967025A6A596A05CF
:10306000586702586B055D67045C67035B675A67C6
:1030700059675867055B67045A67035967586905BC
:1030800059670458670358675769055867045867B4
:103090000358675769055A67035867576D0559679D
:1030A000035867576D055867035867576A055D678A
:1030B000045C67035B675A6759675867055B670479
:1030C0005A67035967586905596704586703586771
:1030D00057690558670458670358675769055A6761
:1030E000035867576D055967035867576D0558674B
:1030F000035867576A055D67045C67035B675A6737
:1031000059675867055B67045A670359675869052B
:103110005967045867035867576905586704586723
:103120000358675769055A67035867576D0559670C
:10313000035867576D055867035867576A055D67F9
:10314000045C67035B675A6759675867055B6704E8
:103150005A670359675869055967045867035867E0
:1031600057690558670458670358675769FF055A38
:10317000E30367035867576D055967035867576D31
:10318000055867035867576A055D67045C67035B0A
:10319000675A6759675867055B67045A6703596739
:1031A0005869055967045867035867576905586790
:1031B0000458670358675769055A67035867576D7E
:1031C000055967035867576D055867035867576A6D
:1031D000055D67045C67035B675A67596758670555
:1031E0005B67045A6703596758690559670458674C
:1031F0000358675769055867045867035867576944
:10320000055A67035867576D055967035867576D27
:10321000055867035867576A055D67045C67035B79
:10322000675A6759675867055B67045A67035967A8
:1032300058690559670458670358675769055867FF
:103240000458670358675769055A67035867576DED
:10325000055967035867576D055867035867576ADC
:10326000055D67045C67035B675A675967586705C4
:103270005B67045A670359675869055967045867BB
:1032800003586757690558670458670358675769B3
:10329000FF00055AE30367035867576A0D586857DC
:1032A0006705596703586757670C5A675967576727
:1032B0000C59685767055A6703586757670C596870
:1032C00057670A5CE306690B59E3036857670B5AB3
:1032D00067596758670B5A67596757670B5868579C
:1032E000670B596857670A5A67596758670A5968D8
:1032F0005767055A67035867576709596857670939
:10330000586857670559670358675767095B675AD5
:10331000675967095B675A675867095968576709AA
:103320005A6858670A5FE306690959E303685767F3
:10333000085C675B675967085C675A675867085994
:103340006857670859685867085C675B675967087A
:103350005A685867055A6703586757670859685885
:103360006707586857670759685867075C675B675E
:103370005967075C675A6758670759685767075A5C
:103380006858670A60E30669075AE30368586706E6
:103390005C675B675967065C675A675867065A68D7
:1033A00058670658685767065C675B675967065A2F
:1033B000685867055A670358675767065B68586718
:1033C000065A685867055B685867055D675B675A0A
:1033D00067055D675B675867055A685867055B68EE
:1033E00058670A61E306690A5F69055EE303675D82
:1033F000675B670A60E306690A61690A6269055EDC
:10340000E303675D675B67055E675D675B67FF009A
:103410000D5CE30769065BE30469025CE303670391
:103420005A67045867065BE304690A61E3066906A4
:1034300059E30469025CE30367035A6704586706AB
:103440005BE304690D5CE30769065BE30469025C06
:10345000E30367035A67045867065BE304690A617C
:10346000E306690659E30469025CE30367035A67EC
:10347000045867065BE304690D5CE30769065BE3D8
:103480000469025CE30367035A67045867065BE359
:1034900004690A61E306690659E30469025CE3030F
:1034A00067035A67045867065BE304690D5CE3072A
:1034B00069065BE30469025CE30367035A67045827
:1034C00067065BE304690A61E306690659E3046978
:1034D000025CE30367035A67045867065BE3046909
:1034E0000D5CE30769065BE30469025CE3036703C1
:1034F0005A67045867065BE304690A61E3066906D4
:1035000059E30469025CE30367035A6704586706DA
:103510005BE304690D5CE30769065BE30469025C35
:10352000E30367035A67045867065BE304690A61AB
:10353000E306690659E30469025CE30367035A671B
:10354000045867065BE304690D5CE30769065BE307
:103550000469025CE30367035A67045867065BE388
:1035600004690A61E306690659E30469025CE3033E
:1035700067035A67045867065BE304690D5CE30759
:1035800069065BE30469025CE30367035A67045856
:1035900067065BE304690A61E306690659E30469A7
:1035A000025CE30367035A67045867065BE3046938
:1035B000FF00E300E2AAFF00EB1AEE1AF11AF41A78
:1035C000F61AF91AFC1AFF1A021B051B081B0B1B23
:1035D0000E1B111B141B1100171B761B1100191B4E
:1035E000781B11001B1B7A1B01001D1B03001F1BF6
:1035F000611B0300231B651B0300251B6B1B0300C2
:103600002C1B721B1100301B7C1B1100371B7F1BF6
:1036100011003E1B821B1100451B851B11004C1B1A
:10362000881B1100531B8B1B11005A1B8E1BFF02A2
:103630000FFFFF020FFFFF020FFFFF020FFFFF064A
:103640000E0A060300FFFF020FFFFF0C0C0C0C0A12
:1036500008060504030202FFFF060F09030100FF2D
:10366000FF0B05050606050404030303FF00FF0B1B
:1036700005050606050404030303FF00FF0B05050B
:103680000606050404030303FF00FF0B05050606F9
:10369000050404030303FF00FF0B050506060504EC
:1036A00004030303FF00FF0B0505060605040403DE
:1036B0000303FF00FF0B05050606050404030303CF
:1036C000FF00FFFF000102038000FFFF000D09055E
:1036D00002FFFDFCFB80FFFF00010406070808094C
:1036E00009090980FFFF0000FFFE8000FFFF02FFC5
:1036F000FFFF01FFFFFF00FFFFFF020202FFFFFFCE
:10370000010202FFFFFF020101FFFFFF010101FFB4
:10371000FFFF000101FFFFFF010000FFFFFF0000AE
:1037200000FFC8EDC0933400C0E0C09361002224C4
:10373000C1E03C2E422CC0E3C0930028C0E8C093F7
:103740000128CFEFC0930228C0930328C093042818
:10375000C0E3C0930828C0E8C0930928CFEFC09306
:103760000A28C0930B28C0930C28CFEFC0931028D1
:10377000C0931128C0E3C0931328CFE0C09314284E
:10378000C4E0C0931B2820921C28CFEFC0932228AE
:103790002092232820922428EEE6F3E0E0931928D3
:1037A000F0931A28C591D591C0931D28D0931E2857
:1037B000C591D591C0931F28D0932028209221280D
:1037C000C591D591CC0FDD1FC0932528D093262815
:1037D00020922728309228282092292820922A28CF
:1037E000C591D591CC0FDD1FC0937628D093772853
:1037F000209278283092792820927A2820927B286B
:10380000C591D591CC0FDD1FC093C728D093C82890
:103810002092C9283092CA282092CB282092CC2806
:10382000C591D591CC0FDD1FC0931329D0931429D6
:1038300020921529309216292092172920921829B2
:10384000C591D591CC0FDD1FC0934A29D0934B2948
:1038500020924C2930924D2920924E2920924F29B6
:10386000CFEF20922D28C0932E28C0932F2820928E
:103870003228C0933328C0933428C093352820922F
:103880003A28C0933B28C0933C2820924028C093FC
:103890004128C093422820924528C0934628C093CF
:1038A000472820922B2820922C28209230282092E2
:1038B00031282092362820923728209238282092CA
:1038C000392820923D2820923E2820923F2820929D
:1038D0004328209244280FE0109100281F709091F7
:1038E00000289073906420920628C09305288C2E9F
:1038F000C1E07C2E9090012892949068CFEF2092A6
:1039000048282092492820924A2820924B28209229
:103910004C2820924D2820924E2820924F28209209
:1039200050282092512820925228209253282092E9
:1039300054282092552820925628209257282092C9
:1039400058282092592820925A2820925B282092A9
:103950005C2820925D2820925E2820925F28209289
:10396000602820926128C0936228C0936328209227
:103970006428209265282092662820926728209249
:1039800068282092692820926A2820926B28209229
:103990006C2820926D2820926E2820926F28209209
:1039A0007028209271282092722820927328C09348
:1039B0007428C0937528CFEF20927E28C0937F286B
:1039C000C093802820928328C0938428C0938528A0
:1039D000C093862820928B28C0938C28C0938D2872
:1039E00020929128C0939228C093932820929628E1
:1039F000C0939728C093982820927C2820927D28F5
:103A0000209281282092822820928728209288283C
:103A10002092892820928A2820928E2820928F280E
:103A20002092902820929428209295282FE030917F
:103A300008283F70D0910828D073D062D2959D2B72
:103A400020920E28C0930D28BC2EC1E0AC2EC09051
:103A50000928C2949860CFEF2092992820929A2842
:103A600020929B2820929C2820929D2820929E287C
:103A700020929F282092A0282092A1282092A2285C
:103A80002092A3282092A4282092A5282092A6283C
:103A90002092A7282092A8282092A9282092AA281C
:103AA0002092AB282092AC282092AD282092AE28FC
:103AB0002092AF282092B0282092B1282092B228DC
:103AC000C093B328C093B4282092B5282092B6287A
:103AD0002092B7282092B8282092B9282092BA289C
:103AE0002092BB282092BC282092BD282092BE287C
:103AF0002092BF282092C0282092C1282092C2285C
:103B00002092C3282092C428C093C528C093C628F9
:103B1000CFEF2092CF28C093D028C093D1282092F5
:103B2000D428C093D528C093D628C093D7282092F4
:103B3000DC28C093DD28C093DE282092E228C093C1
:103B4000E328C093E4282092E728C093E828C09394
:103B5000E9282092CD282092CE282092D2282092A7
:103B6000D3282092D8282092D9282092DA2820928F
:103B7000DB282092DF282092E0282092E128209262
:103B8000E5282092E628C0E04C2FCFEF2092EA28CB
:103B90002092EB282092EC282092ED282092EE280B
:103BA0002092EF282092F0282092F1282092F228EB
:103BB0002092F3282092F4282092F5282092F628CB
:103BC0002092F7282092F8282092F9282092FA28AB
:103BD0002092FB282092FC282092FD282092FE288B
:103BE000C093FF28C0930029209201292092022926
:103BF0002092032920920429209205292092062947
:103C000020920729209208292092092920920A2926
:103C100020920B2920920C2920920D2920920E2906
:103C200020920F2920921029C0931129C0931229A4
:103C3000CFEF20921B29C0931C29C0931D292092ED
:103C40002029C0932129C0932229C093232920929F
:103C50002829C0932929C0932A2920922E29C0936C
:103C60002F29C093302920923329C0933429C0933F
:103C700035292092192920921A2920921E29209252
:103C80001F2920922429209225292092262920923A
:103C9000272920922B2920922C2920922D2920920D
:103CA00031292092322920921628C0931528C1E08C
:103CB0005C2F622DCFEF2092362920923729209257
:103CC00038292092392920923A2920923B292092A2
:103CD0003C2920923D2920923E2920923F29209282
:103CE0004029209241292092422920924329209262
:103CF0004429C0934529C093462920924729C0935F
:103D00004829C0934929522C2092502920925129A8
:103D10002092522920925329D22CE22CF22C722D7F
:103D2000822DC0934529C0934629C0934829C0934A
:103D30004929CFEFC0B9C0E0C093810AC1E0C09368
:103D4000850AC0910228C0938C0AC0910328C093B1
:103D50008D0AC3E0C093800AB0E0B093910AB1E04D
:103D6000B093950AB0910A28B0939C0AB0910B28A1
:103D7000B0939D0AB3E0B093900AB0E0B093A10A6B
:103D8000B1E0B0911028B093AC0AB0911128B09373
:103D9000AD0AB1E0B093A00A7894B0E0B093B10A54
:103DA000B1E0B093B50AB0910A28B093BC0AB091C3
:103DB0000B28B093BD0AB3E0B093B00AC0E0C09343
:103DC000010AC1E0C0930A0AC2E0C093000AB0E051
:103DD000B0934701B0911F28C0912028B0934A01A9
:103DE000C0934B01B1E0B0934201B9E0B093400100
:103DF000C0910628D0910E2870FE15C0821499F04B
:103E0000E0918C0AF9E5EF17E0918D0AF0E0EF07F9
:103E100050F0E0918C0AFAE5EF17E0918D0AF9E590
:103E2000EF0708F401C0CC27A0FE15C0B21499F02A
:103E3000E0919C0AF9E5EF17E0919D0AF0E0EF07A9
:103E400050F0E0919C0AFAE5EF17E0919D0AF9E540
:103E5000EF0708F401C0DD27CD0FE2E8F2E0EC0F38
:103E6000F21DC491D42FD4FDD095DF70ED2FDE0F5D
:103E7000DE0FD50D50FF04C0E0911628EE0FDE0FC7
:103E8000E2EAF2E0ED0FF21DD491CD0FC1B9B0CF4F
:103E9000BFB7BF93F894A42D430CA03029F0A130F4
:103EA00059F0A23009F02FC150D09CD0B3E0B093AC
:103EB0004301BF91BFBF189548D094D093FC1BD04D
:103EC000C3FC66D095FD02C082108A9491FD02C0A9
:103ED000B210BA94B1E0B0934301BF91BFBF18953F
:103EE000BFB7BF93F894770C721CB1E0B093860A09
:103EF000BF91BFBF1895B92DB770F9F4DF93D92DD5
:103F0000D295D77011F4DF9119C0A0918C0AB091AD
:103F10008D0AB695A795DA95E1F797FE02C0A095B0
:103F2000B095D0918C0AAD0FD0918D0ABD1FA09392
:103F30008C0AB0938D0ADF9101C09A9497FF08957F
:103F40009090012892949F77089596FD10C00030BC
:103F500011F00A950895009100280F7095FF02C096
:103F60001FE00895103009F408951A9508959F7B75
:103F7000009100280F701FE00895BFB7BF93F89419
:103F8000AA0CA21CB1E0B093960ABF91BFBF1895CE
:103F9000BC2DB770F9F4DF93DC2DD295D77011F4F6
:103FA000DF9119C0A0919C0AB0919D0AB695A79582
:103FB000DA95E1F7C7FE02C0A095B095D0919C0AB2
:103FC000AD0FD0919D0ABD1FA0939C0AB0939D0A8E
:103FD000DF9101C0CA9493FF0895C0900928C2944C
:103FE000977F089592FD10C0203011F02A95089512
:103FF000209108282F7091FF02C03FE008953030D3
:1040000009F408953A9508959B7F209108282F7010
:104010003FE00895BFB7BF93F8944F5F4F71B1E091
:10402000B093A60ABF91BFBF1895BFB7BF93F894CE
:10403000A52F67FD0BC0A695A527A0FD03C066951B
:10404000579513C06695579560640FC0AA0FAA1FB5
:10405000AA1FA527A0FD05C06F77669557956068D4
:1040600004C066955795606800C0B1E0B093B60A89
:10407000BF91BFBF1895BFB7BF93F894E091502987
:10408000F0915129E21409F004C07215820529F15A
:1040900004C0E318D0FC13C019C0A0915229B091FC
:1040A0005329A30DB21D73198209A0935229B0930D
:1040B0005329EA0FFB1FD490A8E0EA2EEACFD6944A
:1040C000AEE75A1670F4530C530C0BC0D694A2E012
:1040D0005A1638F05318531804C0A2E0A093000AEF
:1040E00000C0B1E0B0930B0ABF91BFBF1895E0EBE1
:1040F000F4E7ED0FF21DD4910895E0EDF4E7ED0F34
:10410000F21DD4910895422CCF93DF93EF93FF9348
:10411000A0912228AF3FA9F4A0912328A211A3C007
:10412000A0912428A211AEC0A0911B28B0911C28F8
:10413000C0911D28D0911E28AC17BD0708F431C1CD
:10414000A0E0E0911928F0911A28CC27DD27A3954B
:10415000AA9511F02A96FCCF2496C0931B28D093E1
:104160001C28EC0FFD1FA591B591AA0FBB1FA093B2
:104170002528B0932628A591B591AA0FBB1FA0931F
:104180007628B0937728A591B591AA0FBB1FA0936D
:10419000C728B093C828A591B591AA0FBB1FA093BB
:1041A0001329B0931429A591B591AA0FBB1FA09311
:1041B0004A29B0934B292092292820922A2820921C
:1041C00027283092282820927A2820927B28209233
:1041D0007828309279282092CB282092CC282092DF
:1041E000C9283092CA282092172920921829209293
:1041F00015293092162920924E2920924E2920927C
:104200004C2930924D29AFEFA0936228A0936328E8
:10421000A0937428A0937528A093B328A093B428E2
:10422000A093C528A093C628A093FF28A093002997
:10423000A0931129A0931229A0934529A093462960
:10424000A0934829A0934929A0935429A0935529C4
:10425000A0935629A0935729A0932228209223287F
:10426000209224289EC0FF91EF91DF91CF91BF91C2
:10427000BFBFF894AFEFA09322282092232820926A
:1042800024281895E0911928F0911A28A0911B284C
:10429000B0911C281A96A0931B28B0931C28EA0FF3
:1042A000FB1FA591B591AA0FBB1FA0932528B09322
:1042B0002628A591B591AA0FBB1FA0937628B0938D
:1042C0007728A591B591AA0FBB1FA093C728B093DB
:1042D000C828A591B591AA0FBB1FA0931329B0932D
:1042E0001429A591B591AA0FBB1FA0934A29B09399
:1042F0004B292092292820922A2820922728309280
:10430000282820927A2820927B28209278283092A0
:1043100079282092CB282092CC282092C92830924C
:10432000CA28209217292092182920921529309204
:10433000162920924E2920924E2920924C29309203
:104340004D29AFEFA0936228A0936328A09374280F
:10435000A0937528A093B328A093B428A093C52850
:10436000A093C628A093FF28A0930029A093112909
:10437000A0931229A0934529A0934629A0934829E8
:10438000A0934929A0935429A0935529A093562975
:10439000A0935729A09322282092232820922428F2
:1043A00000C0A0912728B0912828BA95B09328285A
:1043B000109609F0E4C2E0912528F0912628A091FA
:1043C0002928B0912A28EA0FFB1FB491B73508F4C9
:1043D0007CC1B73608F4BAC1B33E08F4C1C109F4D0
:1043E000C4C1B43E09F46DC2BF3F09F48FC2319617
:1043F000A491BBD2B55EE4EDF4E7BB0FEB0FF21D69
:10440000C591D491EC2FFD2F0994A09348282092B8
:104410004928D1CF20924E2820924F282092482818
:10442000209249286F937F936A2F72EB679F7F9149
:104430006F91169407941694079416940794169403
:10444000079400924A2810924B28B5CF20924A2810
:1044500020924B2820924828209249286F937F93DE
:104460006A2F72EB679F7F916F9116940794169451
:104470000794169407941694079400924E2810926D
:104480004F2899CF6F937F936A2F72EB679F7F912D
:104490006F911694079416940794169407941694A3
:1044A00007940092562810925728A21101C083CF7A
:1044B000A0918C0AB0918D0AA0935228B0935328F2
:1044C000209258282092592876CFBA2FA07FA29503
:1044D000BF70A0935A28B0935B2820925C286BCFC2
:1044E000BA2FA07FA295BF70A0935D28B0935E28DD
:1044F00020925F28209260285ECFA09361285BCF36
:10450000A093222858CFB093232855CFB0932428C6
:1045100052CFB0910028B07FBA2BB093002896609C
:104520004ACFA093212847CFA21551F0B09121285E
:10453000AB1730F4A0936228B1E0B09327282EC2C5
:104540003ACF39CF38CF37CF36CF6F937F936A2F9B
:1045500072EB67037F916F911694079416940794FA
:10456000169407941694079413FE02C0B0EF1B2A0A
:1045700000926428109265281ECFE0913028F091B7
:104580003128309609F017CFE0913828F09139287A
:10459000309609F010CFE0913E28F0913F283096F8
:1045A00009F009CFBA2FBF70C0916628BC0FB7358C
:1045B00008F0B6E5B0936628E4E9F0E0BB0FEB0F36
:1045C000F21DC591D491C0936728D0936828A29515
:1045D000AF70AA0FA3956F937F936A2F72EB679FBB
:1045E0007F916F91169407941694079416940794EC
:1045F000169407940092692810926A28DCCEE09104
:104600003028F0913128309609F0D5CEE091382845
:10461000F0913928309609F0CECEE0913E28F09105
:104620003F28309609F0C7CEBA2FBF70C0916D28D1
:10463000CB1B08F4C0E0C0936D28E4E9F0E0CC0F98
:10464000EC0FF21DC591D491C0936E28D0936F28C2
:10465000A295AF70AA0FA3956F937F936A2F72EB09
:10466000679F7F916F911694079416940794169400
:1046700007941694079400927028109271289BCE8C
:10468000A21551F0B0912128AB1730F4A0937428F3
:10469000B1E0B093272882C18ECEE0EDF4E7EA0FB7
:1046A000F21DA695A795A795B0910028CB2FB07CB9
:1046B000AB1301C080CE7490CF73CB2BC093002876
:1046C0007ACE79CE78CE77CE76CEB0930728B093D7
:1046D0006628B0936D28A3E0B2E0B0932D28A09394
:1046E0003228B0933A28B0934028B09345282092BE
:1046F00036282092372820923D2820924C2820925C
:104700004D282092502820925128209258282092FB
:104710005928A0918C0AB0918D0AA0935228B09389
:1047200053282092012897602092672820926828B9
:1047300020926B2820926C2820926E2820926F285D
:10474000209272282092732806D135CEB755A091B9
:104750000028A07FAB2BA09300289660FCD02BCE26
:10476000B656B0932728F7D00AC120922B28209262
:104770002C2820923028209231282092382820920C
:10478000392820923E2820923F28209243282092C8
:104790004428209236282092372820923D283196AE
:1047A000B491ECEDFAE1EB0FF21DEE0FFF1FA591B6
:1047B000B491AA0FBB1FEA2FFB2FB4913296A6E04B
:1047C000AA9519F0B69578F0FBCFA3E0B2E0B093CC
:1047D0002D28A0933228B0933A28B0934028B09364
:1047E0004528C3D0E8CDC591D591A53039F0A43086
:1047F00079F0A330D9F0A23059F13CC0C0932B28F6
:10480000D0932C2841D0C0932F28D0932E28D8CFD6
:10481000C0933028D09331282092672820926828AE
:1048200020926E2820926F283AD0CACFC0933828A1
:10483000D0933928209267282092682820926E28E9
:1048400020926F2821D0C0933C28D0933B28B8CF2A
:10485000C0933E28D0933F28209267282092682852
:1048600020926E2820926F280FD0C0934228D093B8
:104870004128A6CFC0934328D093442805D0C093A5
:104880004728D09346289CCFEF93FF93EC2FFD2F22
:10489000EE0FFF1FC591D491FF91EF910895EF9313
:1048A000FF93EC2FFD2FEE0FFF1FC591D591C09305
:1048B0003428D0933328C491C0933528FF91EF91C9
:1048C0000895B0912F28BF3F19F0B395B0932D28CC
:1048D000B0913428BF3F19F0B395B0933228B0910E
:1048E0003C28BF3F19F0B395B0933A28B0914228C5
:1048F000BF3F19F0B395B0934028B0914728BF3F10
:1049000019F0B395B093452826D055CDE0911928DC
:10491000F0911A28A0911B28B0911C281A96A093F8
:104920001B28B0931C28C0911D28D0911E28AC17BD
:10493000BD0710F00C94523AEA0FFB1FA591B491F9
:10494000AA0FBB1FA0932528B093262820922928C0
:1049500020922A2830CDE0912928F0912A283196FA
:10496000E0932928F0932A280895E0912928F091CE
:104970002A283296E0932928F0932A280895BFEF39
:10498000A0917528A21519F4B09375280895A091E7
:104990006328A21519F4B09363280895A09178288C
:1049A000B0917928BA95B0937928109609F0D7C2BA
:1049B000E0917628F0917728A0917A28B0917B2811
:1049C000EA0FFB1FB491B73508F47CC1B73608F481
:1049D000BAC1B33E08F4C1C109F4C4C1B43E09F47C
:1049E0006DC2BF3F09F48FC23196A491AED2B55EBD
:1049F000E8E0F5E7BB0FEB0FF21DC591D491EC2F6A
:104A0000FD2F0994A093992820929A28D1CF209223
:104A10009F282092A0282092992820929A286F936C
:104A20007F936A2F72EB679F7F916F911694079423
:104A300016940794169407941694079400929B2852
:104A400010929C28B5CF20929B2820929C282092DF
:104A5000992820929A286F937F936A2F72EB679F11
:104A60007F916F9116940794169407941694079467
:104A70001694079400929F281092A02899CF6F93C4
:104A80007F936A2F72EB679F7F916F9116940794C3
:104A90001694079416940794169407940092A728E6
:104AA0001092A828A21101C083CFA0919C0AB091B6
:104AB0009D0AA093A328B093A4282092A92820920D
:104AC000AA2876CFBA2FA07FA295BF70A093AB285B
:104AD000B093AC282092AD286BCFBA2FA07FA295BF
:104AE000BF70A093AE28B093AF282092B028209238
:104AF000B1285ECFA093B2285BCFA093222858CFD5
:104B0000B093232855CFB093242852CFB0910828D2
:104B1000B07FBA2BB093082892604ACFA093212887
:104B200047CFA21551F0B0912128AB1730F4A093D4
:104B3000B328B1E0B093782821C23ACF39CF38CF2B
:104B400037CF36CF6F937F936A2F72EB67037F91D6
:104B50006F911694079416940794169407941694DC
:104B6000079413FE02C0B0EF1B2A0092B5281092E2
:104B7000B6281ECFE0918128F0918228309609F066
:104B800017CFE0918928F0918A28309609F010CF4C
:104B9000E0918F28F0919028309609F009CFBA2F34
:104BA000BF70C091B728BC0FB73508F0B6E5B09319
:104BB000B728E4E9F0E0BB0FEB0FF21DC591D491EB
:104BC000C093B828D093B928A295AF70AA0FA39527
:104BD0006F937F936A2F72EB679F7F916F9116940B
:104BE00007941694079416940794169407940092C9
:104BF000BA281092BB28DCCEE0918128F09182285F
:104C0000309609F0D5CEE0918928F0918A28309627
:104C100009F0CECEE0918F28F0919028309609F0DF
:104C2000C7CEBA2FBF70C091BE28CB1B08F4C0E01E
:104C3000C093BE28E4E9F0E0CC0FEC0FF21DC59163
:104C4000D491C093BF28D093C028A295AF70AA0F6B
:104C5000A3956F937F936A2F72EB679F7F916F91FC
:104C60001694079416940794169407941694079430
:104C70000092C1281092C2289BCEA21551F0B0918B
:104C80002128AB1730F4A093C528B1E0B093782861
:104C900075C18ECEE0EDF4E7EA0FF21DA695A7955B
:104CA000A795B0910828CB2FB07CAB1301C080CE64
:104CB000A490CF73CB2BC09308287ACE79CE78CE30
:104CC00077CE76CEB0930F28B093B728B093BE2896
:104CD000A3E0B2E0B0937E28A0938328B0938B2802
:104CE000B0939128B0939628209287282092882804
:104CF00020928E2820929D2820929E282092A128E2
:104D00002092A2282092A9282092AA28A0919C0A49
:104D1000B0919D0AA093A328B093A42820920928BB
:104D200093602092B8282092B9282092BC28209223
:104D3000BD282092BF282092C0282092C32820920C
:104D4000C428F9D035CEB755A0910828A07FAB2B49
:104D5000A09308289260EFD02BCEB656B093782857
:104D6000EAD0FDC020927C2820927D2820928128C4
:104D7000209282282092892820928A2820928F28A7
:104D8000209290282092942820929528209287287B
:104D90002092882820928E283196B491ECEDFAE189
:104DA000EB0FF21DEE0FFF1FA591B491AA0FBB1FD1
:104DB000EA2FFB2FB4913296A6E0AA9519F0B6958A
:104DC00078F0FBCFA3E0B2E0B0937E28A0938328D5
:104DD000B0938B28B0939128B0939628B6D0E8CDA5
:104DE000C591D591A53039F0A43079F0A330D9F030
:104DF000A23059F13CC0C0937C28D0937D2841D08B
:104E0000C0938028D0937F28D8CFC0938128D09397
:104E100082282092B8282092B9282092BF28209278
:104E2000C0283AD0CACFC0938928D0938A2820922C
:104E3000B8282092B9282092BF282092C02821D0DB
:104E4000C0938D28D0938C28B8CFC0938F28D0934F
:104E500090282092B8282092B9282092BF2820922A
:104E6000C0280FD0C0939328D0939228A6CFC09388
:104E70009428D093952805D0C0939828D09397284C
:104E80009CCFEF93FF93EC2FFD2FEE0FFF1FC591EB
:104E9000D491FF91EF910895EF93FF93EC2FFD2FA5
:104EA000EE0FFF1FC591D591C0938528D09384281C
:104EB000C491C0938628FF91EF910895B091802806
:104EC000BF3F19F0B395B0937E28B0918528BF3FBE
:104ED00019F0B395B0938328B0918D28BF3F19F096
:104EE000B395B0938B28B0919328BF3F19F0B39539
:104EF000B0939128B0919828BF3F19F0B395B09323
:104F0000962819D055CDE0911928F0911A28A09132
:104F10001B28B0911C281296EA0FFB1FA591B49193
:104F2000AA0FBB1FA0937628B093772820927A28E7
:104F300020927B283DCDE0917A28F0917B28319614
:104F4000E0937A28F0937B280895E0917A28F091F5
:104F50007B283296E0937A28F0937B280895BFEF60
:104F6000A091C628A21519F4B093C6280895A0915F
:104F7000B428A21519F4B093B4280895A091C928B3
:104F8000B091CA28BA95B093CA28109609F0BFC24A
:104F9000E091C728F091C828A091CB28B091CC28E7
:104FA000EA0FFB1FB491B73508F460C1B73608F4B7
:104FB0009EC1B33E08F4A9C109F4ACC1B43E09F4E2
:104FC00055C2BF3F09F477C23196A49196D2B55E1F
:104FD000ECE3F5E7BB0FEB0FF21DC591D491EC2F7D
:104FE000FD2F0994A093EA282092EB28D1CF20929C
:104FF000F0282092F1282092EA282092EB286F9343
:105000007F936A2F72EB679F7F916F91169407943D
:105010001694079416940794169407940092EC281B
:105020001092ED28B5CF2092EC282092ED28209206
:10503000EA282092EB286F937F936A2F72EB679F89
:105040007F916F9116940794169407941694079481
:10505000169407940092F0281092F12899CF6F933C
:105060007F936A2F72EB679F7F916F9116940794DD
:105070001694079416940794169407940092F828AF
:105080001092F928A21101C083CFA091AC0AB0916F
:10509000AD0AA093F428B093F5282092FA28209224
:1050A000FB2876CFBA2FA07FA295BF70A093FC28D3
:1050B000B093FD282092FE286BCF6ACF69CFA093D2
:1050C000222866CFB093232863CFB093242860CFE3
:1050D000A21521F0B1E0B093A50A5ACF2092A50AFB
:1050E0002092AC0A2092AD0A53CFA093212850CF32
:1050F000A21551F0B0912128AB1730F4A093FF28EE
:10510000B1E0B093C92812C243CF42CF41CF40CFC4
:105110003FCF6F937F936A2F72EB67037F916F91FD
:10512000169407941694079416940794169407946B
:1051300013FE02C0B0EF1B2A00920129109202292F
:1051400027CFE091D228F091D328309609F020CFD4
:10515000E091DA28F091DB28309609F019CFE09140
:10516000E028F091E128309609F012CFBA2FBF70F5
:10517000C0910329BC0FB73508F0B6E5B0930329F9
:10518000E4E9F0E0BB0FEB0FF21DC591D491C093A1
:105190000429D0930529A295AF70AA0FA3956F9308
:1051A0007F936A2F72EB679F7F916F91169407949C
:1051B000169407941694079416940794009206295F
:1051C00010920729E5CEE091D228F091D3283096AD
:1051D00009F0DECEE091DA28F091DB28309609F074
:1051E000D7CEE091E028F091E128309609F0D0CEBA
:1051F000BA2FBF70C0910A29CB1B08F4C0E0C0933E
:105200000A29E4E9F0E0CC0FEC0FF21DC591D4912E
:10521000C0930B29D0930C29A295AF70AA0FA39528
:105220006F937F936A2F72EB679F7F916F911694B4
:105230000794169407941694079416940794009272
:105240000D2910920E29A4CEA21551F0B09121285B
:10525000AB1730F4A0931129B1E0B093C92866C10F
:1052600097CE96CE95CE94CE93CE92CEB093122872
:10527000B0930329B0930A29A3E0B2E0B093CF28FA
:10528000A093D428B093DC28B093E228B093E72809
:105290002092D8282092D9282092DF282092EE2828
:1052A0002092EF282092F2282092F3282092FA28C8
:1052B0002092FB28A091AC0AB091AD0AA093F428EB
:1052C000B093F528209204292092052920920829DC
:1052D0002092092920920B2920920C2920920F2933
:1052E00020921029B1E0B093A50AFDD051CEFBD099
:1052F000B75521F0B1E0B093A50A4ACE2092A50A95
:105300002092AC0A2092AD0A43CEB656B093C9287B
:10531000EAD0FDC02092CD282092CE282092D2281B
:105320002092D3282092DA282092DB282092E028AD
:105330002092E1282092E5282092E6282092D82881
:105340002092D9282092DF283196B491ECEDFAE131
:10535000EB0FF21DEE0FFF1FA591B491AA0FBB1F1B
:10536000EA2FFB2FB4913296A6E0AA9519F0B695D4
:1053700078F0FBCFA3E0B2E0B093CF28A093D4287D
:10538000B093DC28B093E228B093E728B6D000CEE3
:10539000C591D591A53039F0A43079F0A330D9F07A
:1053A000A23059F13CC0C093CD28D093CE2841D033
:1053B000C093D128D093D028D8CFC093D228D093EF
:1053C000D328209204292092052920920B2920928B
:1053D0000C293AD0CACFC093DA28D093DB28209288
:1053E00004292092052920920B2920920C2921D0F2
:1053F000C093DE28D093DD28B8CFC093E028D093A7
:10540000E128209204292092052920920B2920923C
:105410000C290FD0C093E428D093E328A6CFC093E3
:10542000E528D093E62805D0C093E928D093E82852
:105430009CCFEF93FF93EC2FFD2FEE0FFF1FC59135
:10544000D491FF91EF910895EF93FF93EC2FFD2FEF
:10545000EE0FFF1FC591D591C093D628D093D528C4
:10546000C491C093D728FF91EF910895B091D128AE
:10547000BF3F19F0B395B093CF28B091D628BF3F66
:1054800019F0B395B093D428B091DE28BF3F19F03E
:10549000B395B093DC28B091E428BF3F19F0B395E1
:1054A000B093E228B091E928BF3F19F0B395B093CB
:1054B000E72819D06DCDE0911928F0911A28A09114
:1054C0001B28B0911C281496EA0FFB1FA591B491DC
:1054D000AA0FBB1FA093C728B093C8282092CB283F
:1054E0002092CC2855CDE091CB28F091CC28319654
:1054F000E093CB28F093CC280895E091CB28F0914D
:10550000CC283296E093CB28F093CC280895BFEFB7
:10551000A0911229A21519F4B09312290895A0910F
:105520000029A21519F4B09300290895A091152916
:10553000B0911629BA95B0931629109609F0B9C101
:10554000E0911329F0911429A0911729B0911829FD
:10555000EA0FFB1FB491B73508F496C0B73608F4CC
:10556000B1C0B33E08F4B7C009F4BAC0B43E09F400
:105570004BC1BF3F09F46DC13196A49190D1B55E86
:10558000E0E7F5E7BB0FEB0FF21DC591D491EC2FCF
:10559000FD2F0994A093362920923729D1CF20924C
:1055A0003A292092362920923729A0933829C8CF4A
:1055B000209238292092362920923729A0933A291F
:1055C000BFCFBECFBA2FA07FA295BF70A0933C29BA
:1055D000B0933D2920923E2920923F29B1CFBA2F86
:1055E000A07FA295BF70A0934029B093412920923B
:1055F000422920924329A4CFA0934429A1CFA0936C
:1056000022289ECFB09323289BCFB093242898CFF5
:10561000B0911328B07FBA2BB093132891CFA093E9
:1056200021288ECFA21551F0B0912128AB1730F46C
:10563000A0934529B1E0B09315294AC181CF80CF0D
:105640007FCF7ECF7DCFA09347297ACF79CF78CFF8
:10565000A21551F0B0912128AB1730F4A09348293E
:10566000B1E0B093152934C16BCFA695A795B09141
:105670001428BF77BA2BB09313286F776A2B60CFAB
:105680005FCF5ECF5DCF5CCFB0931728B093182863
:10569000A3E0B2E0B0931B29A0932029B09328295E
:1056A000B0932E29B09333292092242920922529C2
:1056B00020922B292092392920923B2920923F29A0
:1056C000E4D03ECFB755A0911328A07FAB2BA09379
:1056D0001328DBD035CFB656B0931529D6D0E9C004
:1056E0002092192920921A2920921E2920921F29DE
:1056F000209226292092272920922C2920922D2998
:105700002092312920923229209224292092252981
:1057100020922B293196B491ECEDFAE1EB0FF21DBA
:10572000EE0FFF1FA591B491AA0FBB1FEA2FFB2F0D
:10573000B4913296A6E0AA9519F0B69578F0FBCF11
:10574000A3E0B2E0B0931B29A0932029B0932829AD
:10575000B0932E29B0933329A2D0F2CEC591D59122
:10576000A53039F0A43079F0A33099F0A230D9F007
:1057700024C0C0931929D0931A2929D0C0931D2978
:10578000D0931C29D8CFC0931E29D0931F292AD08B
:10579000D2CFC0932629D093272919D0C0932A2984
:1057A000D0932929C8CFC0932C29D0932D290FD06D
:1057B000C0933029D0932F29BECFC0933129D093E5
:1057C000322905D0C0933529D0933429B4CFEF9333
:1057D000FF93EC2FFD2FEE0FFF1FC591D491FF918A
:1057E000EF910895EF93FF93EC2FFD2FEE0FFF1F26
:1057F000C591D591C0932229D0932129C491C093FA
:105800002329FF91EF910895B0911D29BF3F19F011
:10581000B395B0931B29B0912229BF3F19F0B395DE
:10582000B0932029B0912A29BF3F19F0B395B093C6
:105830002829B0913029BF3F19F0B395B0932E2994
:10584000B0913529BF3F19F0B395B09333291DD0DE
:1058500077CEE0911928F0911A28A0911B28B091D9
:105860001C28A0931B28B0931C281696EA0FFB1F38
:10587000A591B491AA0FBB1FA0931329B09314292B
:1058800020921729209218295BCEE0911729F091D8
:1058900018293196E0931729F09318290895E0917B
:1058A0001729F09118293296E0931729F0931829B7
:1058B0000895BFEFA0914929A21519F4B093492981
:1058C0000895A0914629A21519F4B0934629089588
:1058D000A0914C29B0914D29BA95B0934D291096BD
:1058E00009F0CCC0E0914A29F0914B29A0914E29B2
:1058F000B0914F29EA0FFB1FB491B73508F456C099
:10590000B73608F480C0B33E08F47FC009F482C003
:10591000B43E09F481C0BF3F09F480C03196A49120
:10592000A3D0B55EE4EAF5E7BB0FEB0FF21DC5911E
:10593000D491EC2FFD2F0994D5CFD4CFD3CFD2CF94
:10594000D1CFD0CFCFCFA0932228CCCFB0932328D4
:10595000C9CFB0932428C6CFC5CFA0932128C2CFEA
:10596000A21551F0B0912128AB1730F4A09354291F
:10597000B1E0B0934C2991C0B5CFB4CFB3CFB2CF83
:10598000B1CFB0CFAFCFAECFA21551F0B09121289B
:10599000AB1730F4A0935629B1E0B0934C297DC0E9
:1059A000A1CFA0CF9FCF9ECF9DCF9CCF3196F4901B
:1059B000ECEDFAE1EB0FF21DEE0FFF1FA591B49194
:1059C000AA0FBB1FEA2FFB2FB49170EF8FE0B295A7
:1059D0007B238B23E0935029F09351293092522955
:1059E00020925329E22CE2E6F1E0FF0CEF0DF21DCC
:1059F000A591B491A093260AB093270AA3E0A0939F
:105A0000000A32D06FCF26D06DCFB656B0934C2956
:105A100021D034C029D066CF1DD064CFE0911928A1
:105A2000F0911A28A0911B28B0911C28A0931B2844
:105A3000B0931C281896EA0FFB1FA591B491AA0FEA
:105A4000BB1FA0934A29B0934B2920924E29209244
:105A50004F2948CFE0914E29F0914F293196E0939C
:105A60004E29F0934F290895E0914E29F0914F2946
:105A70003296E0934E29F0934F290895BFEFA091FD
:105A80005729A21519F4B09357290895A0915529C3
:105A9000A21519F4B09355290895F0912128A091E9
:105AA0002828A21144C000C0AF2FB0912728B215FA
:105AB00009F43DC0BA95B0932728BFEFC091742870
:105AC000D0917528CB1709F00DC0DB1709F014C071
:105AD000C0916228D0916328CB1709F011C0DB1761
:105AE00021F118C0B0937428AC1BA0937528C09303
:105AF0002828A2111CC012C0B0937528AD2F15C064
:105B0000B0936228AC1BA0936328C0932828A211ED
:105B10000EC004C0B0936328AD2F07C02092282880
:105B20000E94DB21F0912128BACFA0932828A091D0
:105B30007928A21144C000C0AF2FB0917828B215C7
