:020000020000FC
:040000000C94661ADC
:04001C000C94191E09
:100024000C94461D0C94511D0C94461D0C94681D93
:040034000C94B51D56
:100064000C94021EC758CC53184FA74A77468242B5
:10007400C73E413BED37CA34D331072F642CE62900
:100084008C2754253B234121631FA01DF71B651AB0
:10009400EA1884173216F314C613AA129E11A1107B
:1000A400B20FD00EFB0D320D750CC20B190B790A71
:1000B400E3095509CF085008D9076807FE069906D1
:1000C4003A06E1058C053D05F104AA0467042804F9
:1000D400EC03B4037F034D031D03F002C6029E022A
:1000E4007902550234021402F601DA01BF01A601B5
:1000F4008F01780163014F013C012B011A010A01B0
:10010400FB00ED00E000D300C700BC00B200A80073
:100114009E0000000000000000000000000000003D
:1001240000000000000001010101020202020202BB
:100134000202000000010102020303030404040498
:100144000404000001020203030404050506060674
:100154000606000001020304050506060707080851
:1001640008080001020304060708090A0A0B0C0C1C
:100174000C0C0001030507080A0C0D0E0F101112D8
:10018400121200020406080A0C0E1011131415169C
:100194001616000205070A0C0F1113141617181966
:1001A4001A1A000306090C0F121417191B1D1E1F1F
:1001B40020200004080C1014171B1E2123252729B6
:1001C4002A2A00050B11161B2025292D3134363817
:1001D400393A00081019212930373D43484C50530F
:1001E4005556000C1824303B465059626970757995
:1001F4007C7E00122537495A6A7987939EA8B0B647
:10020400BBBE0018314A61788DA1B4C5D4E0EBF4CB
:10021400FAFD000306090B0E111316181B1D1F22ED
:100224002426282A2C2E3032343638393B3D3E40A1
:1002340042000002030507080A0C0D0F10121415E2
:1002440017181A1B1D1E202123242527282A2B2C8E
:100254002E2F313233343637383A3B3C3D3F404120
:10026400424445464748494B4C4D4E4F50515354D8
:1002740055565758595A5B5C5D5E5F6061626364B2
:1002840065666768696A6B6C6D6E6F7071727373A3
:100294007475767778797A7A7B7C7D7E7F7F8081AE
:1002A400828384848586878888898A8B8B8C8D8ECB
:1002B4008E8F9091919293949495969697989899FD
:1002C4009A9B9B9C9D9D9E9F9FA0A0A1A2A2A3A43C
:1002D400A4A5A6A6A7A7A8A9A9AAAAABACACADAD8C
:1002E400AEAFAFB0B0B1B1B2B3B3B4B4B5B5B6B6E6
:1002F400B7B8B8B9B9BABABBBBBCBCBDBD00000283
:100304008102910945102116E318810291094611D1
:100314000F17E318840293095B103516E318A00243
:10032400AF09B2105D16E318BC0293095B1087167F
:10033400E318F502CB095B108716E318D802EE091F
:100344005B103516E31811030A0AB2105D16E318A0
:10035400D802EE095B108716E3182C03250A5B10FC
:10036400B016E31848033F0A0911D116E3187A03BB
:10037400770A2811F016E318BF03BB0A0911D11636
:10038400E318FC03F10A6A112517E3183D04260B50
:1003940009114C17E31874045A0B28117417E31845
:1003A4003D04AA0B09114C17E318AA04DB0B8A11AC
:1003B4009A172F19DA04060CAD11B617151913057F
:1003C4003E0CD111C51715194905740C0D12D81717
:1003D40015198105AC0C4E12F417151984029309F2
:1003E4005B103516E318A002AF09B2105D16E318CE
:1003F400BC0293095B108716E318F502CB095B1066
:100404008716E318D802EE095B103516E3181103BA
:100414000A0AB2105D16E318D802EE095B108716BB
:10042400E318B705250A5B10B016E318D405E20CEF
:100434009812D116E31806061A0DB612F016E31830
:100444004B065E0D9812D116E3188806940DD4124B
:100454002517E318C906C90DF4124C17E318000751
:10046400FD0D12137417E318C9064D0EF4124C1740
:10047400E31836077E0E30139A172F196607A90E54
:10048400AD11B61715199F07E10E5413C5171519A9
:10049400D407170F9013D81715199F074F0FD113AF
:1004A400F41715190D08850F1B140D1815195A0882
:1004B400BC0F7214391815199408850F1B143918B8
:1004C4001519CC08BC0FCD14621815190109F10FC8
:1004D40025153516E31820090D107B155D16E31854
:1004E4003C09F10F25158716E31858092910D21570
:1004F4008B18E318740993095B10B418E318F0031C
:10050400E300A6FF57E3006C1D61EBFCFA02F60260
:100514006A18616A1D616A16616A1D616A14616AFA
:1005240013616A1B616A13616A14616A1B616A2040
:10053400616A1F616A1B616A166168FFE300681BD8
:10054400616A1361EBFCFA026A14616A1B616A2036
:10055400616A22616A1F616A1B616A20616A1F61A4
:100564006A1B616A16616A1D616A18616A14616AAC
:100574001B6168FFE3006814616A1D61EBFCFA0209
:100584006A18616A1D616A16616A1D616A14616A8A
:1005940013616A1B616A13616A14616A1B616A20D0
:1005A400616A1F616A1B616A166168FF1D60E3006E
:1005B400EBFCFA03F6FD6A18606A1D606A16606A4D
:1005C4001D606A14606A13606A1B606A13606A14AF
:1005D400606A1B606A20606A1F606A1B606A16603A
:1005E4006A1B606AFF00E300681B616A1361EBFC2D
:1005F400FA026A14616A1B616A20616A22616A1FD5
:10060400616A1B616A20616A1F616A1B616A166103
:100614006A1D616A18616A14616A226168FF136164
:10062400E3006A14616A1B616A20616A22616A1FBD
:10063400616A1B616A1F61682061681F616A1B61CE
:100644006A16616A1D616A18616A14616A1B616ACB
:1006540014616AFF1361E3006A14616A1B616A2012
:10066400616A22616A1F616A1B616A2961FA01F683
:10067400006A27616A22616A1F616A2C616A2961C2
:100684006A24616A2B616A29616AFF00E300682CAD
:100694005D6A2460E304EBFEFA00F6016CE30A6E83
:1006A400F1022457E30068245EE3046BF10224574B
:1006B400E300672C5EE3046BF1012C57E300672B26
:1006C4005EE30468F1012B57E300682C5EE304EB5E
:1006D400FEFA006CE30A6EF1022C57E30068245E14
:1006E400E3046BF1022457E300672C5EE3046AFF22
:1006F400E30067F1012C57672B5EE30468F1012BDB
:1007040057E300682C60E304EBFEFA006CE30A6E26
:10071400F1022C57E300682B5EE3046BF1022B57C4
:10072400E300672C5EE3046BF1012C57E3006730B0
:100734005EE30468F1013057E300682C5EE304EBE8
:10074400FC6A2B5EEBFE67F10257672C5E67F101D2
:1007540057672B5E67F1025767285E67F101576799
:10076400245E69F1025767225E69F1025767205ED1
:1007740069F10257671F5E68FF00E30067F10267D3
:10078400205EE30467F1025767225E67F101576751
:100794002460EBFEFA006CE30A6EF1022457E300D6
:1007A40068245EE3046BF1012B5E672C5EE30D6B42
:1007B400F1012C57E30067275EE304682757672895
:1007C4005E67295EE30DEBFEFA006CE30A6EF1024C
:1007D4002957E300682B5EE3046BF1022B57E30017
:1007E400672B61E304FA01EBFEF60068F1012B5B71
:1007F400E30068FF2C61E3046BF1022C5BE3006708
:100804002461E3046BF101245BE300672C61E304DE
:1008140068F1012C5BE300682C61E3046BF1022CAA
:100824005BE300672E61E3046BF1012E5BE3006779
:100834003061E30468F101305BE300682B61EBF89D
:10084400FA016A2B61682C61682B61682961682749
:100854006168F101295C68225F68F101275A681F09
:100864005F68F101225A68285F68F1011F5A682005
:100874005F681F5F68FF2C60E300EBFAFA02F60181
:10088400682B5D682960682C5D68306068295D6844
:10089400296068305D682C6068305D682960682C68
:1008A4005D68306068295D68296068305D682C6027
:1008B400EBFAFA0268295D682760682C5D6830608D
:1008C40068275D68276068305D682C6068305D6803
:1008D4002760682C5D68306068275D682760683031
:1008E4005D68FF002C60E300EBFAFA0268305D6893
:1008F4002660682C5D68306068265D682660683014
:100904005D682C6068265D682660682C5D683060D0
:1009140068265D68266068305D682B60EBFAFA0231
:1009240068265D682560682B5D68306068255D68B1
:10093400256068305D682B6068265D682460682BDC
:100944005D682E6068245D68246068305D68FF001F
:100954002C61E300EB00F600FA036BF1022C5BE37D
:100964000A672461E3006BF101245BE30A672C61ED
:10097400E30068F1012C5B682C616BF1022C5BE3F2
:100984000A672E61E3006BF1012E5BE30A673061B5
:10099400E30068F101305B682B616CE30A6C5B6A0D
:1009A4002461E300EBFCFA01E50C6E28616EFF00A4
:1009B4002C61E300EB00FA01F602E50069F1015A4B
:1009C40067246169F1015A67296169F1015A672C49
:1009D4006169F1015A672B6169F1015A6727616AFC
:1009E400E30A6A2C61E300EB00FA016AE30A69F1A5
:1009F400015A672461E30069F1015A67296169F1C9
:100A0400015A672C6169F1015A672B6169F1015A36
:100A14006727616AE30A69F1015A672C61E3006A96
:100A2400FF00E30A69F101672461E30069F1015AF7
:100A340067296169F1015A672C6169F1015A672BD1
:100A44006169F1015A6727616AE30A6A2261E30076
:100A5400EB00FA0169F1015A6724616AE30A69F15A
:100A6400015A672C61E300F7126AE30A69F1015A3B
:100A7400672C61E30069F1015A672B616AE30A6933
:100A8400F1015A672761E30069F1015A67FF2464A1
:100A9400E300EB00FA02E500F60069F1015D671D71
:100AA4006469F1015D67206469F1015D672464692B
:100AB400F1015D67226469F1015D671F646AE30AFD
:100AC4006A2464E300EB006AE30A69F1015D671DCF
:100AD40064E30069F1015D67206469F1015D6724E5
:100AE4006469F1015D67226469F1015D671F646AED
:100AF400E30A69F1015D672464E3006AFF00E30A25
:100B040069F101671D64E30069F1015D67206469AF
:100B1400F1015D67246469F1015D67226469F10193
:100B24005D671F646AE30A6A1B64E300EB00FA0270
:100B340069F1015D671C646AE30A69F1015D672676
:100B440064E300F7126AE30A69F1015D672464E370
:100B54000069F1015D6722646AE30A69F1015D6776
:100B64001F64E30069F1015D67FF1361E3006A1428
:100B7400616A1B616A20616A22616A1F616A1B6182
:100B84006A2961FA01F6006A27616A22616A1F61B3
:100B94006A2C616A29616A24616A2E64E30EFA0090
:100BA400EBFE6EFFE300682C5D6A2560E304EBFE58
:100BB400FA00F6016CE30A6EF1022557E30068259A
:100BC4005EE3046BF1022557E300672D5EE3046BDB
:100BD400F1012D57E300672C5EE30468F1012C5703
:100BE400E300682D5EE304EBFEFA006CE30A6EF1A9
:100BF400022D57E30068255EE3046BF1022557E3F9
:100C040000672D5EE3046AFFE30067F1012D576777
:100C14002C5EE30468F1012C57E300682D60E304C3
:100C2400EBFEFA006CE30A6EF1022D57E300682C28
:100C34005EE3046BF1022C57E300672D5EE3046B63
:100C4400F1012D57E30067315EE30468F101315788
:100C5400E300682D5EE304EBFC6A2C5EEBFE67F1B7
:100C64000257672D5E67F10157672C5E67F10257E3
:100C740067295E67F1015767255E69F102576723AB
:100C84005E69F1025767215E69F1025767205E6869
:100C9400FF00E30067F10267215EE30467F1025796
:100CA40067235E67F10157672560EBFEFA006CE38A
:100CB4000A6EF1022557E30068255EE3046BF10137
:100CC4002C5E672D5EE30D6BF1012D57E300672861
:100CD4005EE30468285767295E672A5EE30DEBFE2E
:100CE400FA006CE30A6EF1022A57E300682C5EE313
:100CF400046BF1022C57E300672C61E304FA01EB67
:100D0400FEF60068F1012C5BE30068FF2D61E3044B
:100D14006BF1022D5BE300672561E3046BF10125B0
:100D24005BE300672D61E30468F1012D5BE3006878
:100D34002D61E3046BF1022D5BE300672F61E30493
:100D44006BF1012F5BE300673161E30468F101316A
:100D54005BE300682C61EBF8FA016A2C61682D6191
:100D6400682C61682A6168286168F1012A5C68233B
:100D74005F68F101285A68205F68F101235A6829E5
:100D84005F68F101205A68215F68205F68FF2D6069
:100D9400E300EBFAFA02F601682C5D682A60682D1C
:100DA4005D683160682A5D682A6068315D682D601D
:100DB40068315D682A60682D5D683160682A5D6805
:100DC4002A6068315D682D60EBFAFA02682A5D6872
:100DD4002860682D5D68316068285D682860683126
:100DE4005D682D6068315D682860682D5D683160DC
:100DF40068285D68286068315D68FF002D60E30045
:100E0400EBFAFA0268315D682760682D5D6831602D
:100E140068275D68276068315D682D6068275D68B4
:100E24002760682D5D68316068275D6827606831D8
:100E34005D682C60EBFAFA0268275D682660682C0E
:100E44005D68316068265D68266068315D682C6085
:100E540068275D682560682C5D682F6068255D687B
:100E6400256068315D68FF002D61E300EB00F6004A
:100E7400FA006BF1022D5BE30A672561E3006BF175
:100E840001255BE30A672D61E30068F1012D5B68CE
:100E94002D616BF1022D5BE30A672F61E3006BF1B7
:100EA400012F5BE30A673161E30068F101315B689C
:100EB4002C616CE30A6C5B6A2561E300EBFCFA01CC
:100EC400E50C6E29616EFF002D61E300EB00FA0171
:100ED400F602E50069F1015A67256169F1015A6773
:100EE4002A6169F1015A672D6169F1015A672C6120
:100EF40069F1015A6728616AE30A6A2D61E300EB2C
:100F040000FA016AE30A69F1015A672561E300699D
:100F1400F1015A672A6169F1015A672D6169F1018A
:100F24005A672C6169F1015A6728616AE30A69F119
:100F3400015A672D61E3006AFF00E30A69F1016762
:100F44002561E30069F1015A672A6169F1015A6771
:100F54002D6169F1015A672C6169F1015A672861B1
:100F64006AE30A6A2361E300EB0069F1015A672529
:100F7400616AE30A69F1015A672D61E300F7126AB5
:100F8400E30A69F1015A672D61E30069F1015A67C7
:100F94002C616AE30A69F1015A672861E30069F187
:100FA400015A67FF2D61E300EB00FA00F602E50049
:100FB40069F1015A67256169F1015A672A6169F18A
:100FC400015A672D6169F1015A672C6169F1015A6F
:100FD4006728616AE30A6A2D61E300EB00FA006A9C
:100FE400E30A69F1015A672561E30069F1015A676F
:100FF4002A6169F1015A672D6169F1015A672C610F
:1010040069F1015A6728616AE30A69F1015A672D97
:1010140061E3006AFF002166E311EBF0FA00F600D9
:101024006A2A61E300EB0069F1015B672D6169F1F4
:10103400015B672166E311EBF06A21666A21666A47
:10104400285DE300EB006A2166E311EBF06A2D5D95
:10105400E300EB006A1964E311FA0267E30DFA0096
:1010640067FA0267FA00673661FA02F6FF67FA0068
:1010740067FA0267FA00673961FA0267FA0067FAE9
:101084000267FA00673861FA0267FA0067FA0267D2
:10109400FA00673461FA0267FA0067FA0267FA0035
:1010A40067285DE300FA006A2166E311F6006AFF2F
:1010B4002166E311EBF0FA00F6006A2A61E300EB23
:1010C4000069F1015B672D6169F1015B672166E3EA
:1010D40011EBF06A21666A21666A285DE300EB0081
:1010E4006A2164E311EBF06A2864E300EB00FA0080
:1010F4006AE30A69F1015D673264E300F7126AE3A7
:101104000A69F1015D673164E30069F1015D672FEC
:10111400646AE30A69F1015D672C64E30069F10123
:101124005D67FF003164E300EB00FA00E500F600C0
:1011340069F1015D672A6469F1015D672D6469F1F4
:10114400015D67316469F1015D672F6469F1015DD7
:10115400672C646AE30A6A3164E300EB006AE30A19
:1011640069F1015D672A64E30069F1015D672D643B
:1011740069F1015D67316469F1015D672F6469F1AB
:10118400015D672C646AE30A69F1015D673164E318
:10119400006AFF00E30A69F101672A64E30069F168
:1011A400015D672D6469F1015D67316469F1015D79
:1011B400672F6469F1015D672C646AE30A6A286435
:1011C400E300EB0069F1015D6729646AE30A69F1F0
:1011D400015D673364E300F7126AE30A69F1015DB4
:1011E400673164E30069F1015D672F646AE30A69AA
:1011F400F1015D672C64E30069F1015D67FF57E36A
:101204000068285DF6016A1E61EBFCFA02F6026AC8
:1012140019616A1E616A17616A1E616A15616A143E
:10122400616A1C616A14616A15616A1C616A2161E0
:101234006A20616A1C616A176168FF00E300681C28
:10124400616A1461EBFCFA026A15616A1C616A2125
:10125400616A23616A20616A1C616A21616A206192
:101264006A1C616A17616A1E616A19616A15616A9A
:101274001C6168FFE3006815616A1E61EBFCFA02F9
:101284006A19616A1E616A17616A1E616A15616A78
:1012940014616A1C616A14616A15616A1C616A21BD
:1012A400616A20616A1C616A176168FFE300681C57
:1012B400616A1461EBFCFA026A15616A1C616A21B5
:1012C400616A23616A20616A1C616A21616A206122
:1012D4006A1C616A17616A1E616A19616A15616A2A
:1012E400236168FFE3006821616A1D61EBFCFA0277
:1012F400F6026A18616A1D616A16616A1D616A14E0
:10130400616A13616A1B616A13616A14616A1B6111
:101314006A20616A1F616A1B616A166168FFE300E3
:10132400A6FF1D66E300EBFAFA026A18666A1D66F8
:101334006A16666A1D666A14666A13666A1B666ABA
:1013440013666A14666A1B666A20666A1F666A1BED
:10135400666A16666A1B666AFF001366E300EBFAA8
:10136400FA026A14666A1B666A20666A22666A1F43
:10137400666A1B666A20666A1F666A1B666A166668
:101384006A1D666A18666A14666A1B666A14666A67
:10139400FF001366E300EBFAFA026A14666A1B663E
:1013A4006A20666A22666A1F666A1B666A20666A23
:1013B4001F666A1B666A16666A1D666A18666A1480
:1013C400666A22666A206668F1012766EBF8FA010C
:1013D400672866FA0367FF002966E300EBFCFA015D
:1013E4006A24666A29666A22666A29666A20666AC7
:1013F4001F666A27666A1F666A20666A27666A2C01
:10140400666A2B666A27666A22666A27666AFF002E
:101414001F66E3006A20666A27666A2C666A2E667F
:101424006A2B666A27666A2B66682C66682B666A6E
:1014340027666A22666A29666A24666A20666A27BB
:10144400666A20666AFF1F66E3006A20666A27668A
:101454006A2C666A2E666A2B666A27666A2C666A36
:101464002B666A27666A22666A29666A24666A2087
:10147400666A2E666A2C666AFF002466E304EBFC47
:10148400FA006CE30A6EF102245DE300682464E36D
:10149400046BF102245DE300672C64E3046BF10147
:1014A4002C5DE300672B64E30468F1012B5DE3002A
:1014B400682C64E304EBFCFA006CE30A6EF1022C82
:1014C4005DE300682464E3046BF102245DE30067D8
:1014D4002C64E3046BF1012C5DE300672B64E304EB
:1014E40068F1012B5DE30068FF002C66E304EBFC6C
:1014F400FA006CE30A6EF1022C5DE300682B64E3EE
:10150400046BF1022B5DE300672C64E3046BF101CF
:101514002C5DE300673064E30468F101305DE300AF
:10152400682C64E304EBF86A2B64EBFC67F1025D5E
:10153400672C6467F1015D672B6467F1025D6728BE
:101544006467F1015D67246469F1025D672264697F
:10155400F1025D67206469F1025D671F6469F1024D
:101564005D67206467F1025D67226467F1015D676E
:10157400FF002466E304EBFCFA006CE30A6EF1025C
:10158400245DE300682464E3046BF1012B64672C9D
:1015940064E30D6BF1012C5DE300672764E30468E9
:1015A400275D672864672964E30DEBFCFA006CE3AC
:1015B4000A6EF102295DE300682B64E3046BF10217
:1015C4002B5DE300672C64E3046BF1012C5DE30005
:1015D400672E64E30468F1012E5DE30068FF306464
:1015E400E3046BF102305DE300672964E3046BF10B
:1015F40001295DE300673064E30468F101305DE3D1
:1016040000683064E3046BF102305DE30067336427
:10161400E3046BF101335DE300673564E30468F1CF
:1016240001355DE300683064E3046CE30A7024640C
:10163400E300EB00FA026A245DE30A6A2864E3002B
:101644006A285DE30A6AFF002464E300FA026CE39B
:101654000A6EF102245DE3006824646BF102245DE8
:10166400E30A672C64E3006BF1012C5DE30A672B4A
:1016740064E30068F1012B5DE30A682C64E300FA7B
:10168400026CE30A6EF1022C5D682464E3006BF1E2
:1016940002245DE30A672C64E3006BF1012C5DE333
:1016A4000A672B64E30068F1012B5DE30A68FF001D
:1016B4002C64E300FA026CE30A6EF1022C5D682BE1
:1016C40064E3006BF1022B5DE30A672C64E3006BB7
:1016D400F1012C5DE30A673064E30068F101305DD9
:1016E400E30A682C64E3006A2B6467F1015DE30A92
:1016F400672C64E300675DE30A672B64E30067F12A
:10170400015DE30A672864E300675DE30A67246414
:10171400E30069F1015DE30A672264E30069F10112
:101724005DE30A672064E30069F1015DE30A671F72
:1017340064E30069F1015DE30A672064E30067F193
:10174400015DE30A672264E300675DE30A67FF0063
:101754002464E300FA026CE30A6EF102245D682457
:1017640064E3006BF1012B64672C646BF1012C5D65
:10177400E30A672764E30067F102275D682864676A
:101784002964FA026CE30A6EF102295D682B64E3B2
:10179400006BF1022B5DE30A672C64E3006BF1013B
:1017A4002C5DE30A672E64E30068F1012E5DE30A11
:1017B40068FF3064E3006BF102305DE30A6729647B
:1017C400E3006BF101295DE30A673064E3006830EC
:1017D4005B6830646BF102305DE30A673364E300F5
:1017E4006BF101335DE30A673564E30068355B68D8
:1017F40030646CE30A6C5D6A2B64E300EBFCFA036F
:10180400E50C6E2E646EFF002C61E300EB00FA0120
:10181400E50069F1015A67246169F1015A67296198
:1018240069F1015A672C6169F1015A672B6169F109
:10183400015A6727616AE30A6A2C61E300EB00FA44
:10184400016AE30A69F1015A672461E30069F1015D
:101854005A67296169F1015A672C6169F1015A6774
:101864002B6169F1015A6727616AE30A69F1015A38
:10187400672C61E3006AFF00E30A69F101672461F0
:10188400E30069F1015A67296169F1015A672C6122
:1018940069F1015A672B6169F1015A6727616AE3AB
:1018A4000A6A2261E300EB00FA0169F1015A672434
:1018B400616AE30A69F1015A672C61E300F7126A6D
:1018C400E30A69F1015A672C61E30069F1015A677F
:1018D4002B616AE30A69F1015A672761E30069F140
:1018E400015A67FF2C64E300EB00FA01E50069F19B
:1018F400015D67246469F1015D67296469F1015D33
:10190400672C6469F1015D672B6469F1015D6727E8
:10191400646AE30A6A2C64E300EB00FA016AE30AEE
:1019240069F1015D672464E30069F1015D6729647D
:1019340069F1015D672C6469F1015D672B6469F1EC
:10194400015D6727646AE30A69F1015D672C64E35A
:10195400006AFF00E30A69F101672464E30069F1A6
:10196400015D67296469F1015D672C6469F1015DBA
:10197400672B6469F1015D6727646AE30A6A22647C
:10198400E300EB00FA0169F1015D6724646AE30A8C
:1019940069F1015D672C64E300F7126AE30A69F1F7
:1019A400015D672C64E30069F1015D672B646AE300
:1019B4000A69F1015D672764E30069F1015D67FF6E
:1019C4002566E304EBFCFA006CE30A6EF102255D84
:1019D400E300682564E3046BF102255DE300672DF1
:1019E40064E3046BF1012D5DE300672C64E3046898
:1019F400F1012C5DE300682D64E304EBFCFA006C58
:101A0400E30A6EF1022D5DE300682564E3046BF1E3
:101A140002255DE300672D64E3046BF1012D5DE3B2
:101A240000672C64E30468F1012C5DE30068FF00A7
:101A34002D66E304EBFCFA006CE30A6EF1022D5D03
:101A4400E300682C64E3046BF1022C5DE300672D72
:101A540064E3046BF1012D5DE300673164E3046822
:101A6400F101315DE300682D64E304EBF86A2C6452
:101A7400EBFC67F1025D672D6467F1015D672C641F
:101A840067F1025D67296467F1015D67256469F1A7
:101A9400025D67236469F1025D67216469F1025D97
:101AA40067206469F1025D67216467F1025D672361
:101AB4006467F1015D67FF002566E304EBFCFA004F
:101AC4006CE30A6EF102255DE300682564E3046BB0
:101AD400F1012C64672D64E30D6BF1012D5DE300CE
:101AE400672864E30468285D672964672A64E30D52
:101AF400EBFCFA006CE30A6EF1022A5DE300682C49
:101B040064E3046BF1022C5DE300672D64E3046B72
:101B1400F1012D5DE300672F64E30468F1012F5D9B
:101B2400E30068FF3164E3046BF102315DE30067B5
:101B34002A64E3046BF1012A5DE300673164E30482
:101B440068F101315DE300683164E3046BF1023153
:101B54005DE300673464E3046BF101345DE3006723
:101B64003664E30468F101365DE300683164E3043C
:101B74006CE30A702564E300EB00FA016A255DE377
:101B84000A6A2964E3006A295DE30A6AFF0025649E
:101B9400E300FA016CE30A6EF102255DE3006825B7
:101BA400646BF102255DE30A672D64E3006BF101C8
:101BB4002D5DE30A672C64E30068F1012C5DE30A00
:101BC400682D64E300FA016CE30A6EF1022D5D688E
:101BD4002564E3006BF102255DE30A672D64E300ED
:101BE4006BF1012D5DE30A672C64E30068F1012CBD
:101BF4005DE30A68FF002D64E300FA016CE30A6EFA
:101C0400F1022D5D682C64E3006BF1022C5DE30AA4
:101C1400672D64E3006BF1012D5DE30A673164E332
:101C24000068F101315DE30A682D64E3006A2C6405
:101C340067F1015DE30A672D64E300675DE30A670A
:101C44002C64E30067F1015DE30A672964E300673C
:101C54005DE30A672564E30069F1015DE30A672334
:101C640064E30069F1015DE30A672164E30069F15B
:101C7400015DE30A672064E30069F1015DE30A673B
:101C84002164E30067F1015DE30A672364E300670D
:101C94005DE30A67FF002564E300FA016CE30A6E62
:101CA400F102255D682564E3006BF1012C64672D66
:101CB400646BF1012D5DE30A672864E30067F102B8
:101CC400285D682964672A64FA016CE30A6EF102EC
:101CD4002A5D682C64E3006BF1022C5DE30A672D36
:101CE40064E3006BF1012D5DE30A672F64E3006890
:101CF400F1012F5DE30A68FF3164E3006BF1023107
:101D04005DE30A672A64E3006BF1012A5DE30A6775
:101D14003164E30068315B6831646BF102315DE387
:101D24000A673464E3006BF101345DE30A673664E7
:101D3400E30068365B6831646CE30A6C5D6A2C64AA
:101D4400E300EBFCFA03E50C6E2F646EFF002D61DB
:101D5400E300EB00FA01E50069F1015A67256169C6
:101D6400F1015A672A6169F1015A672D6169F1012C
:101D74005A672C6169F1015A6728616AE30A6A2D7E
:101D840061E300EB00FA016AE30A69F1015A67258D
:101D940061E30069F1015A672A6169F1015A672D0B
:101DA4006169F1015A672C6169F1015A6728616A16
:101DB400E30A69F1015A672D61E3006AFF00E30A4F
:101DC40069F101672561E30069F1015A672A6169D4
:101DD400F1015A672D6169F1015A672C6169F101BA
:101DE4005A6728616AE30A6A2361E300EB00FA0197
:101DF40069F1015A6725616AE30A69F1015A672D9D
:101E040061E300F7126AE30A69F1015A672D61E39D
:101E14000069F1015A672C616AE30A69F1015A67A2
:101E24002861E30069F1015A67FF2D64E300EB00C8
:101E3400FA01E50069F1015D67256469F1015D67F7
:101E44002A6469F1015D672D6469F1015D672C64A1
:101E540069F1015D6728646AE30A6A2D64E300EBB3
:101E640000FA016AE30A69F1015D672564E3006928
:101E7400F1015D672A6469F1015D672D6469F1010F
:101E84005D672C6469F1015D6728646AE30A69F19E
:101E9400015D672D64E3006AFF00E30A69F10167ED
:101EA4002564E30069F1015D672A6469F1015D67F6
:101EB4002D6469F1015D672C6469F1015D67286433
:101EC4006AE30A6A2364E300EB00FA0169F1015D45
:101ED4006725646AE30A69F1015D672D64E300F72D
:101EE400126AE30A69F1015D672D64E30069F10197
:101EF4005D672C646AE30A69F1015D672864E300A5
:101F040069F1015D67FF2D66E300EB00FA00E5006F
:101F140069F1015F67256669F1015F672A6669F106
:101F2400015F672D6669F1015F672C6669F1015FE6
:101F34006728666AE30A6A2D66E300EB006AE30A2F
:101F440069F1015F672566E30069F1015F672A664D
:101F540069F1015F672D6669F1015F672C6669F1BC
:101F6400015F6728666AE30A69F1015F672D66E32A
:101F7400006AFF00E30A69F101672566E30069F17D
:101F8400015F672A6669F1015F672D6669F1015F88
:101F9400672C6669F1015F6728666AE30A6A23664B
:101FA400E300EB0069F1015F6725666AE30A69F102
:101FB400015F672D66E300F7126AE30A69F1015FC6
:101FC400672D66E30069F1015F672C666AE30A69BD
:101FD400F1015F672866E30069F1015F67FF1E6630
:101FE400E300EBFAFA026A19666A1E666A17666A01
:101FF4001E666A15666A14666A1C666A14666A1541
:10200400666A1C666A21666A20666A1C666A1766C6
:102014006A1C666AFF001466E300EBFAFA026A15AA
:10202400666A1C666A21666A23666A20666A1C669A
:102034006A21666A20666A1C666A17666A1E666A90
:1020440019666A15666A1C666A15666AFF00146674
:10205400E300EBFAFA026A15666A1C666A21666A8C
:1020640023666A20666A1C666A21666A20666A1CA0
:10207400666A17666A1E666A19666A15666A236660
:102084006A21666AFF002766E300E75068576C27F9
:102094006668576C276668576C276668576C2766AE
:1020A4006857742766682768276827682768576C05
:1020B400FF001966E300E70069F1015767256667C9
:1020C400F1025767256667F1015767196669F101DF
:1020D4005767256667F1025767256667F1015767F9
:1020E4001B6669F1015767276667F1025767276620
:1020F40067F10157671B6669F1015767276667F146
:10210400025767276667F1015767186669F1015737
:1021140067246667F1025767246667F101576718F9
:102124006669F1015767246667F102576724666799
:10213400F10157671D6669F1015767296667F10266
:102144005767296667F10157671D6669F10157678B
:10215400296667F1025767296667F1015767FF002F
:102164001966E30069F1015767256667F10257674D
:10217400256667F1015767196669F1015767256696
:1021840067F1025767256667F10157671B6669F1B6
:10219400015767276667F1025767276667F101579A
:1021A400671B6669F1015767276667F1025767275E
:1021B4006667F10157673066E71569F101576724CF
:1021C40066E70067F1025767246667F101576733D2
:1021D40066E7156830682C69F10157671D66E700EA
:1021E40069F1015767296667F1025767296667F144
:1021F4000157672B66E71569F10157671D66E7000C
:1022040067F10257671D6667F1015767FF001166A2
:10221400E300E7006A1D68576811666A1D6857681D
:1022240011666A1D68576811666A1D6857680F66EB
:102234006A1B6857680F666A1B6857680F666A1BD3
:102244006857680F666A1B685768FF000E66E300EC
:102254006A1A6857680E666A1A6857680E666A1AB8
:102264006857680E666A1A6857680D666A1968576F
:10227400680D666A196857680D666A196857680DAB
:10228400666A19685768FF002766E30068576C2779
:102294006668576C276668576C276668576C2766AC
:1022A400685770276668576827666827682768270D
:1022B4006818E70067F1025767186667F101576706
:1022C400246667F1025767186667F1015767FF00D4
:1022D4000E66E3006A1A6857680E666A1A685768D9
:1022E4000E666A1A6857680E666A1A6857680D6639
:1022F4006A196857680D666A196857683366E7157E
:102304006A2768576833666833682B682B68FF0050
:102314000EE300E7006A1A6857680E666A1A68577F
:10232400680E666A1A6857680E666A1A68576831D2
:1023340066E770670DE70071576A3366E30C68332C
:10234400682B6810E3006833E30C68336827E30004
:10235400E770682768FF33E30CE7007027E300E7C2
:10236400706827682768576A276668276827685748
:10237400682E66E30CE7007027E300E770682768BF
:102384002768276857682E66E30CE7006A27E3008E
:10239400E77068576C3366E30CE7006AFF0033E3C9
:1023A400086A576E2766E300E7706827682768574E
:1023B4006C3366E30CE7006833682E6A27E300E7B2
:1023C4007068576A27666833E30CE7006827E30000
:1023D400E7706827682EE30CE7006819E30067F1EB
:1023E400025767186667F1025767186667F1025764
:1023F40067186667F10157671D6667F10257672022
:102404006667F10257671F6667F10257671F6667C1
:10241400F1015767FF001166E300E7006A1D67F1E9
:102424000257671D6667F101576711666A1D67F1F8
:102434000257671D6667F101576711666A1D67F1E8
:102444000257671D6667F1015767116669F1025704
:10245400670F6669F10157670F666A1B67F10257D8
:10246400671B6667F10157670F666A1B67F10257BE
:10247400671B6667F10157670F666A1B67F10257AE
:10248400671B6667F10157670F6669F10257670EAC
:102494006669F1015767FF000E66E300E7006A1AF8
:1024A40067F10257671A6667F10157670E666A1A81
:1024B40067F10257671A6667F10157670E666A1A71
:1024C40067F10257671A6667F10157670E6669F18B
:1024D4000257671A6669F10157671C6669F102576A
:1024E400671C6669F10157671C6667F10257671C30
:1024F4006667F10257671C6667F10257671C6667D7
:10250400F10157671F6667F10257671F6667F1029B
:1025140057671F6667F10257671F6667F1015767C0
:102524003366E30C6833682E682E68FF12E300E715
:10253400006A1E68576812666A1E68576812666ADF
:102544001E68576812666A1E68576810666A1C68B7
:10255400576810666A1C68576810666A1C68576872
:1025640010666A1C685768FF0F66E3006A1B6857A9
:10257400680F666A1B6857680F666A1B6857680F9E
:10258400666A1B6857680E666A1A6857680E666A38
:102594001A6857680E666A1A6857680E666A1A6877
:1025A4005768FF000F66E3006A1B6857680F666A86
:1025B4001B6857680F666A1B6857680F666A1B6852
:1025C40057680E666A1A6857680E666A1A6857680A
:1025D4003366E7156A2768576833666833682B687B
:1025E4002B68FF0012E300E7006A1E685768126652
:1025F4006A1E68576812666A1E68576812666A1E01
:1026040068576810666A1C68576810666A1C6857C1
:102614006810666A1C68576810666A1C685768FF09
:102624000F66E3006A1B6857680F666A1B68576881
:102634000F666A1B6857680F666A1B6857680E66E0
:102644006A1A6857680E666A1A6857680E666A1AC4
:102654006857680E666A1A685768FF000F66E300D9
:10266400E7006A1B6857680F666A1B6857680F663D
:102674006A1B6857680F666A1B6857683366E77099
:10268400670EE70071576A3566E30C6835682D6894
:1026940011E3006835E30C68356829E300E77068E6
:1026A4002968FF0033E3086A576E2766E300E77082
:1026B4006827682768576C3366E30CE7006833685B
:1026C4002E6A27E300E77068576A27666833E30CCD
:1026D400E7006827E300E7706827682EE30CE7004B
:1026E400681AE30067F1025767196667F1025767D2
:1026F400196667F1025767196667F10157671E6625
:1027040067F1025767216667F1025767206667F130
:10271400025767206667F1015767FF001266E300FE
:10272400E7006A1E67F10257671E6667F101576783
:1027340012666A1E67F10257671E6667F1015767E2
:1027440012666A1E67F10257671E6667F1015767D2
:10275400126669F1025767106669F10157671066DE
:102764006A1C67F10257671C6667F10157671066B8
:102774006A1C67F10257671C6667F10157671066A8
:102784006A1C67F10257671C6667F1015767106698
:1027940069F10257670F6669F1015767FF000F6619
:1027A400E300E7006A1B67F10257671B6667F101E4
:1027B40057670F666A1B67F10257671B6667F1016B
:1027C40057670F666A1B67F10257671B6667F1015B
:1027D40057670F6669F10257671B6669F10157670E
:1027E4001D6669F10257671D6669F10157671D6629
:1027F40067F10257671D6667F10257671D6667F147
:102804000257671D6667F1015767206667F1025733
:1028140067206667F1025767206667F102576720F1
:102824006667F10157673366E30C6833682E682ED8
:1028340068FF33E300E7706712E700691E67F1027F
:1028440057671E6667F10157673366E30C6812E346
:1028540000681E67F10257671E6667F10157673308
:1028640066E7706712E700691E67F10257671E6624
:1028740067F10157673366E30C6812E30067F102FE
:102884005767106669F10157673366E7706710E7A9
:1028940000691C67F10257671C6667F101576733CB
:1028A40066E30C6810E300681C67F10257671C6656
:1028B40067F10157673366E7706710E700691C67C3
:1028C400F10257671C6667F10157673366E30C68CA
:1028D40010E30067F10257670F6669F1015767FF5C
:1028E4003366E300E770670FE700691B67F102577F
:1028F400671B6667F10157673366E30C680FE300F3
:10290400681B67F10257671B6667F10157673366F7
:10291400E770670FE700691B67F10257671B66677B
:10292400F10157673366E30C680FE30067F1025760
:1029340067116669F10157673366E7706711E7004D
:10294400691D67F10257671D6667F10157673366B2
:10295400E30C6811E300681D67F10257671D6667A1
:10296400F10157673366E7706714E700692067F180
:10297400025767206667F10157673366E30C6817EF
:10298400E30067F1025767236667F102576723661E
:1029940067F1015767FF3366E300E770670FE700ED
:1029A400691B67F10257671B6667F1015767336656
:1029B400E30C680FE300681B67F10257671B666747
:1029C400F10157673366E770670FE700691B67F12A
:1029D4000257671B6667F10157673366E30C680F9C
:1029E400E30067F1025767116669F10157673366BF
:1029F400E7706711E700691D67F10257671D666795
:102A0400F10157673366E30C6811E300681D67F151
:102A14000257671D6667F10157673366E7706714ED
:102A2400E700692067F1025767206667F10157677D
:102A34003366E30C67F1013367F1023368326732BE
:102A4400672C672C67FF1AE300E70069F1015767F9
:102A5400266667F1025767266667F10157671A66AB
:102A640069F1015767266667F1025767266667F1C1
:102A74000157671C6669F1015767286667F10257B9
:102A840067286667F10157671C6669F10157672873
:102A94006667F1025767286667F101576719666927
:102AA400F1015767256667F1025767256667F101EB
:102AB4005767196669F1015767256667F102576719
:102AC400256667F10157671E6669F10157672A6633
:102AD40067F10257672A6667F10157671E6669F155
:102AE4000157672A6667F10257672A6667F101573B
:102AF40067FF1A66E30069F1015767266667F1020A
:102B04005767266667F10157671A6669F1015767C7
:102B1400266667F1025767266667F10157671C66E8
:102B240069F1015767286667F1025767286667F1FC
:102B34000157671C6669F1015767286667F10257F8
:102B440067286667F10157673166E71569F1015730
:102B5400672566E70067F1025767256667F1015745
:102B6400673466E7156831682D69F10157671E6699
:102B7400E70069F10157672A6667F10257672A6619
:102B840067F10157672C66E71569F10157671E66FF
:102B9400E70067F10257671E6667F1015767FF0098
:102BA4001A66E300E70069F1015767266667F102D8
:102BB4005767266667F10157671A6669F101576717
:102BC400266667F1025767266667F10157671C6638
:102BD40069F1015767286667F1025767286667F14C
:102BE4000157671C6669F1015767286667F1025748
:102BF40067286667F10157673366E7706719E7006E
:102C040068F1015767256667F1025767256667F122
:102C14000157673366E77068336833673367336730
:102C2400336733673367336833E30CE7006830682E
:102C340033E300E77068336833683368FF00E30008
:102C4400EBFC6EE303EB006AE3016AE3036AE3016E
:102C54006AE3036AE3016AE30372E3016AE3036E6E
:102C6400E309EBF86EFFE300EBF86AE301EB0068BD
:102C7400E30268E3016CE30268E303EB0068E30248
:102C840068E30168E30268E3016CE30268E303EBD1
:102C94000068E30268E30168E30268E3016CE302AD
:102CA40068E303EB0068E30268E30168E30268E3B6
:102CB400016CE30268FFE303EB0068E30268E301ED
:102CC40068E30268E3016CE30268E303EB0068E392
:102CD4000268E30168E30268E3016CE30268E3016C
:102CE40068E30268E30168E30268E3016AE300EB76
:102CF400F86AE303EB0068E30268E30168E302684F
:102D0400E30168E30368E3016AFFE303EB0068E3BC
:102D14000268E30168E30268E3016CE30268E30329
:102D2400EB0068E30268E30168E30268E3016CE333
:102D34000268E303EB0068E30268E30168E3026806
:102D4400E3016CE30268E303EB0068E30268E30178
:102D540068E30268E3016CE30268FF00E303EB004D
:102D640068E30268E30168E30268E3016CE3026874
:102D7400E303EB0068E30268E30168E30268E3014C
:102D84006CE30268E303EB0068E30268E30168E3D1
:102D94000268E3016CE30268E301EB0076FFE30001
:102DA400EBF86AE302EB006EE30368E30268E30610
:102DB4006CE3036AE30268E30368E30268E303681D
:102DC400E30268EB006EE30368E30268E3066CE386
:102DD400036AE30268E30368E30268FFE300EBF8D5
:102DE4006AE302EB006EE30368E30268E3066CE364
:102DF400036AE30268E30368E30268E30B68E3023F
:102E040068EB006EE30368E30268E3066CE3036ABD
:102E1400E30268E30368E30268FFE300EBFC6EE3AC
:102E240003EB006AE3016AE3036AE3016AE3036A0A
:102E3400E300EBF66AEBFA72E301EB0072E300EBFA
:102E4400F66AEB126AFFE300EBF86AE302EB006A4E
:102E5400E30668E30268E30368E30268E3016AE304
:102E64000268E30368E30668E30268E30368E302D5
:102E740068E30668E30268EB006EE30368E3026854
:102E8400E3066CE30368E30668E30268E30168E3CE
:102E94000268FF00E300EBF86AE301EB0068E30279
:102EA40068E30B68E30268E30368E30268E3036E24
:102EB400E30B68E30268E30368E30268E3036AE39D
:102EC4000168E30268E30B68E30268E30368E30272
:102ED40068E3036CE30168E30B68E30268E30368F7
:102EE400E30268FFE3036AE30168E30268E30B6853
:102EF400E30268E30368E30268E3036EE30B68E359
:102F04000268E30368E30268E3036AE30168E30237
:102F140068E30B68E30268E30368E30268E3036CB5
:102F2400E30168E30B68E30268E30368E30268FF14
:102F3400E300EBF868E30BEB006EE30268E30B6875
:102F4400E30268E30168E30B6EE30268E30B68E302
:102F54000268E300EBFCE96470E302EB00E9006C57
:102F6400E30372E30B6AFF00E300EBFCE96470E344
:102F740002EB00E90078E3016CE30270E3016CE327
:102F84000270E3016AFFE31070E3026CE3016EE395
:102F9400026EE3016AE3026AE3016AE3026EE3019B
:102FA4006CE30268E30168E30268FF00E30368E39B
:102FB400026CE3106AE3026EE30168E30268E31063
:102FC4006AE30268E30168E30368E3026CE3106AFE
:102FD400E3026EE30168E30268E3106AE30268E374
:102FE4000368FF00E30368E3026CE3106AE3026E24
:102FF400E30168E30268E3106AE30268E30168E35B
:103004000368E3026CE3106AE3026EE30168E3021F
:1030140068E3016EFF00E300EBF6E9846AE301EB89
:1030240000E90068E30268E3106AE30168E3026808
:10303400E30168E30268E30368E30268E3106AE318
:103044000268E3036AE30268E30168E30268E310E9
:103054006AE30168E30268E30168E30268E3036882
:10306400E30268E3106AE30268E30368FF00E30332
:1030740068E30268E30168E30268E3106AE3016855
:10308400E30268E30168E30268E30368E30268E3D8
:10309400106AE30268E3036AE30268E30168E30297
:1030A40068E3106AE30168E30268E30168E3026825
:1030B400E30368E30268E3106AE30268E30368FF7A
:1030C400E30368E30268E30168E30268E3106AE388
:1030D4000168E30268E30168E30268E30368E3026A
:1030E40068E3106AE30268E3036AE30268E30168E1
:1030F400E30268E3106AE30168E30268E3016EEB4C
:10310400FC67F10167F10268EBFA67E307EB00691A
:10311400FF00E303EB0068E30268E30168E302688D
:10312400E3016CE30268E303EB0068E30268E30194
:1031340068E30268E3016CE30268E3106AE3026A8D
:10314400E3016AEBFA6EEB006AE300F80167F80149
:1031540067F80167F80167F80167F80167F8016724
:10316400F80167FFE300EBFEF70167F70267F70179
:1031740067F70267E301EB0068E30268E3016CE3CD
:103184000268E303EB0068E30268E30168E30268B2
:10319400E3016CE30268E303EB0068E30268E30124
:1031A40068E30268E3016CE30268E303EB0068E3AD
:1031B4000268E30168E30268E3016CE30267EC037D
:1031C40067FFE300F00369F00267F00369F0026748
:1031D400F00369F00267F00369F00267F00369F035
:1031E4000267F00369F00267F00369F00267F00315
:1031F40069F00267F00369F00267F00369F002679F
:10320400F00369F00267F00369F00267F00369F004
:103214000267F00369F00267F00369F00267F003E4
:1032240069F00267FF00E300F0036DF00267F0034A
:103234006DF00267F0036DF00267F0036DF0026752
:10324400F0036DF00267F0036DF00267F0036DF0B8
:103254000267F0036DF00267FF00E300F00369F01A
:103264000267F00369F00267F00369F00267F00394
:1032740069F00267F00369F00267F00369F002671E
:10328400F00369F00267F00369F00267F00376F077
:103294000467F00367F00467F00367F00467F00362
:1032A40067F00467F00367F00467F00367F00467EE
:1032B400F00367F00467F00367F00467F00367FF47
:1032C40078197A197C197E19801982198419871939
:1032D40089198C198F199219951998199A199D1988
:1032E400A019A219A619A819AA19AD190100AF1994
:1032F4000100B2190100BB190100C0190100C6196F
:103304000100CA190300CD191D1A0100D2191400B5
:10331400491A5F1A0500D519521A0500D5194B1A16
:103324000300D719221A0500DC19591A0100E819FB
:103334000300E519261A0500E8195B1A0100EA19C9
:103344001300001A401A611A0100041A01000A1A33
:103354000300AF19451A0100111AFF030F0CFF00F7
:10336400FF100F0C080806060504040303020101FC
:1033740000FFFF070F0A05020100FF00FF090F0D00
:103384000A0704020100FF00FF05030B0F0DFF00F5
:10339400FF03000FFF00FF080D0D0707030300FFE5
:1033A400FF020F00FF00FF020CFFFF070F0F0F09C2
:1033B4000400FF00FF0F0F0F0F0F0F0F0F0F0F0F62
:1033C4000F0F0F00FF00FF020F0BFF00FF020FFFA4
:1033D400FF1A0F0D0C0A0908070706050504040364
:1033E4000302020202010101010100FFFF0E0F0DA1
:1033F4000A0A080604030303030302FFFF060D0D74
:103404000D0F0FFFFF0A0F0A04060A08060200FF49
:10341400FF0B0F070402060301000100FF00FF1564
:1034240005060608080C0F0605040403020202013F
:1034340001010100FF00FFFF0000010203040580F9
:10344400FFFF0000FC0A0680FFFF00FFFFFEFEFDF9
:10345400FDFCFCFBFBFAFAF9F9F8F8F7F7F6F6F5D8
:10346400F5F4F4F3F3F2F2F1F1F0F0EFEFEEEEED48
:10347400EDECECEBEBEAEAE9E9E8E880FF030000B5
:10348400001818181880FF0300000C0C8000FF02BD
:103494003280FF02FCFE0103030402FFFDFD8000F5
:1034A400FF020202FFFEFEFFFE0101028000FF0296
:1034B4001480FF020F80FF020A80FFFF02FFFF0259
:1034C400000002020202FF00C8EDC0933400C0E015
:1034D400C09361002224C0E3C0930028C0E8C093D5
:1034E4000128CFEFC0930228C0930328C093042877
:1034F400C0E3C0930828C0E8C0930928CFEFC09365
:103504000A28C0930B28C0930C28CFEFC09310282F
:10351400C0931128C2E0C093152820921628CFEF3B
:10352400C0931A2820921B2820921C28E2E0F3E082
:10353400E0931328F0931428C591D591C0931728CC
:10354400D093182820921928C591D591CC0FDD1F4E
:10355400C0931D28D0931E2820921F282092202833
:103564002092212820922228C591D591CC0FDD1FCD
:10357400C0936A28D0936B2820926C2820926D28DF
:1035840020926E2820926F28C591D591CC0FDD1F13
:10359400C093B728D093B8282092B9282092BA288B
:1035A4002092BB282092BC28CFEF20922528C093DC
:1035B4002628C093272820922A28C0932B28C0931A
:1035C4002C28C0932D2820923128C0933228C093F0
:1035D400332820923728C0933828C0933928209262
:1035E4003C28C0933D28C0933E2820922328209253
:1035F4002428209228282092292820922E282092BC
:103604002F28209230282092342820923528209286
:10361400362820923A2820923B280FE01091002867
:103624001F70909100289073906420920628C09394
:103634000528BC2EC1E0AC2EC0900128C29490682D
:10364400CFEF20923F2820924028209241282092B8
:1036540042282092432820924428209245282092F0
:1036640046282092472820924828209249282092D0
:103674004A2820924B2820924C2820924D282092B0
:103684004E2820924F282092502820925128209290
:103694005228209253282092542820925528209270
:1036A40056282092572820925828C0935928C0930E
:1036B4005A2820925B2820925C2820925D28209230
:1036C4005E2820925F282092602820926128209210
:1036D40062282092632820926428209265282092F0
:1036E400662820926728C0936828C0936928CFEF82
:1036F40020927228C0937328C0937428209277284C
:10370400C0937828C0937928C0937A2820927E2881
:10371400C0937F28C093802820928428C093852852
:10372400C093862820928928C0938A28C0938B2826
:103734002092702820927128209275282092762851
:1037440020927B2820927C2820927D282092812818
:1037540020928228209283282092872820928828E9
:103764002FE0309108283F70D0910828D073D062A0
:10377400D2959D2B20920E28C0930D28EC2EC1E0EB
:10378400DC2EF0900928F2949860CFEF20928C28D8
:1037940020928D2820928E2820928F282092902883
:1037A4002092912820929228209293282092942863
:1037B4002092952820929628209297282092982843
:1037C4002092992820929A2820929B2820929C2823
:1037D40020929D2820929E2820929F282092A02803
:1037E4002092A1282092A2282092A3282092A428E3
:1037F4002092A528C093A628C093A7282092A82881
:103804002092A9282092AA282092AB282092AC28A2
:103814002092AD282092AE282092AF282092B02882
:103824002092B1282092B2282092B3282092B42862
:10383400C093B528C093B628CFEF2092BF28C09379
:10384400C028C093C1282092C428C093C528C0931F
:10385400C628C093C7282092CB28C093CC28C093F5
:10386400CD282092D128C093D228C093D328209267
:10387400D628C093D728C093D8282092BD28209258
:10388400BE282092C2282092C3282092C8282092C1
:10389400C9282092CA282092CE282092CF2820928C
:1038A400D0282092D4282092D528C0E04C2FCFEFE6
:1038B4002092D9282092DA282092DB282092DC2832
:1038C4002092DD282092DE282092DF282092E02812
:1038D4002092E1282092E2282092E3282092E428F2
:1038E4002092E5282092E6282092E7282092E828D2
:1038F4002092E9282092EA282092EB282092EC28B2
:103904002092ED28C093EE28C093EF282092F0284F
:103914002092F1282092F2282092F3282092F42871
:103924002092F5282092F6282092F7282092F82851
:103934002092F9282092FA282092FB282092FC2831
:10394400C093FD28C093FE28CFEFC0B9C0E7C09351
:10395400010AC1E7C0930A0AC5E1C093280AC5E079
:10396400C093290ACBE2C0932A0ACAE0C0932B0A67
:10397400C1E4C0932C0ACFE0C0932D0AC7E5C093DD
:10398400260AC4E1C093270ACBE0C093000AC0E032
:10399400C093810AC1E0C093850AC0910228C093F4
:1039A4008C0AC0910328C0938D0AC3E0C093800A97
:1039B400B0E0B093910AB1E0B093950AB0910A28AF
:1039C400B0939C0AB0910B28B0939D0AB3E0B093D6
:1039D400900AB0E0B093A10AB1E0B093A50AB09107
:1039E4001028B093AC0AB0911128B093AD0AB1E09D
:1039F400B093A00A7894C0910628D0910E28A0FE16
:103A040015C0B21499F0E0918C0AF9E5EF17E09132
:103A14008D0AF0E0EF0750F0E0918C0AF6E6EF171C
:103A2400E0918D0AF9E5EF0708F401C0CC27D0FE38
:103A340015C0E21499F0E0919C0AF9E5EF17E091C2
:103A44009D0AF0E0EF0750F0E0919C0AF6E6EF17CC
:103A5400E0919D0AF9E5EF0708F401C0DD27CD0FD9
:103A6400E6E1F2E0EC0FF21DC491D42FD4FDD09521
:103A7400DF70ED2FDE0FDE0FE6E3F2E0ED0FF21D57
:103A8400D491CD0FC1B9B7CFBFB7BF93F89453D07A
:103A94009FD0B0E5B0930B0ABF91BFBF1895BFB7D5
:103AA400BF93F89448D094D0C3FC1BD0F3FC66D0E9
:103AB40095FD02C0B210BA9491FD02C0E210EA94DE
:103AC400B1E2B0930B0ABF91BFBF1895BFB7BF93C4
:103AD400F894AA0CA21CB1E0B093860ABF91BFBFB0
:103AE4001895BC2DB770F9F4DF93DC2DD295D770FF
:103AF40011F4DF9119C0A0918C0AB0918D0AB6958A
:103B0400A795DA95E1F7C7FE02C0A095B095D091CC
:103B14008C0AAD0FD0918D0ABD1FA0938C0AB0936F
:103B24008D0ADF9101C0CA9497FF0895C0900128BF
:103B3400C2949F77089596FD10C0003011F00A9545
:103B44000895009100280F7095FF02C01FE00895AA
:103B5400103009F408951A9508959F7B0091002868
:103B64000F701FE00895BFB7BF93F894DD0CD21C0B
:103B7400B1E0B093960ABF91BFBF1895BF2DB7703F
:103B8400F9F4DF93DF2DD295D77011F4DF9119C0CA
:103B9400A0919C0AB0919D0AB695A795DA95E1F794
:103BA400F7FE02C0A095B095D0919C0AAD0FD091BC
:103BB4009D0ABD1FA0939C0AB0939D0ADF9101C08A
:103BC400FA9493FF0895F0900928F294977F08954A
:103BD40092FD10C0203011F02A95089520910828F4
:103BE4002F7091FF02C03FE00895303009F408952A
:103BF4003A9508959B7F209108282F703FE00895FF
:103C0400BFB7BF93F8944F5F4F71B1E0B093A60A6A
:103C1400BF91BFBF1895ECE4F3E6ED0FF21DD4910C
:103C24000895ECE6F3E6ED0FF21DD4910895BFB7C5
:103C3400BF93F894CF93DF93EF93FF93A0911A2847
:103C4400AF3FA9F4A0911B28A21173C0A0911C2816
:103C5400A21180C0A0911528B0911628C0911728F0
:103C6400D0911828AC17BD0708F4D3C0A0E0E091A8
:103C74001328F0911428CC27DD27A395AA9511F0D9
:103C84002A96FCCF2296C0931528D0931628EC0FC1
:103C9400FD1FA591B591AA0FBB1FA0931D28B0933A
:103CA4001E28A591B591AA0FBB1FA0936A28B093B3
:103CB4006B28A591B591AA0FBB1FA093B728B09309
:103CC400B828209221282092222820921F2820926E
:103CD400202820926E2820926F2820926C2820920F
:103CE4006D282092BB282092BC282092B9282092CB
:103CF400BA28AFEFA0935928A0935A28A093682814
:103D0400A0936928A093A628A093A728A093B528D8
:103D1400A093B628A093EE28A093EF28A093FD28A3
:103D2400A093FE28A0931A2820921B2820921C28D6
:103D340070C0FF91EF91DF91CF91BF91BFBFF89415
:103D4400AFEFA0931A2820921B2820921C282092BF
:103D540006281895E0911328F0911428A0911528AD
:103D6400B09116281A96A0931528B0931628EA0F36
:103D7400FB1FA591B591AA0FBB1FA0931D28B0935B
:103D84001E28A591B591AA0FBB1FA0936A28B093D2
:103D94006B28A591B591AA0FBB1FA093B728B09328
:103DA400B828209221282092222820921F2820928D
:103DB400202820926E2820926F2820926C2820922E
:103DC4006D282092BB282092BC282092B9282092EA
:103DD400BA28AFEFA0935928A0935A28A093682833
:103DE400A0936928A093A628A093A728A093B528F8
:103DF400A093B628A093EE28A093EF28A093FD28C3
:103E0400A093FE28A0931A2820921B2820921C28F5
:103E140000C0A0911F28B0912028109609F0C2C2BA
:103E2400E0911D28F0911E28A0912128B09122280C
:103E3400EA0FFB1FB491B73508F46BC1B73608F429
:103E4400A3C1B33E08F4AAC109F4ADC1B43E09F458
:103E540054C2BF3F09F476C23196A49199D2B55E9B
:103E6400E0E7F3E6BB0FEB0FF21DC591D491EC2F05
:103E7400FD2F0994A0933F2820924028D1CF20926F
:103E840045282092462820923F28209240286F936C
:103E94007F936A2F72EB679F7F916F9116940794BB
:103EA4001694079416940794169407940092412844
:103EB40010924228B5CF2092412820924228209285
:103EC4003F28209240286F937F936A2F72EB679F5D
:103ED4007F916F91169407941694079416940794FF
:103EE40016940794009245281092462899CF6F9310
:103EF4007F936A2F72EB679F7F916F91169407945B
:103F040016940794169407941694079400924D28D7
:103F140010924E28A21101C083CFA0918C0AB091B7
:103F24008D0AA0934928B0934A2820924F282092C2
:103F3400502876CFBA2FA07FA295BF70A0935128A6
:103F4400B0935228209253286BCFBA2FA07FA2950A
:103F5400BF70A0935428B0935528209256282092DD
:103F640057285ECFA09358285BCFA0931A2858CF28
:103F7400B0931B2855CFB0931C2852CFB091002882
:103F8400B07FBA2BB093002896604ACFA09319282B
:103F940047CFA21551F0B0911928AB1730F4A09374
:103FA4005928B1E0B0931F2800C23ACF39CF38CF97
:103FB40037CF36CFA0935B2833CFE0912828F091F8
:103FC4002928309609F02CCFE0912F28F091302841
:103FD400309609F025CFE0913528F09136283096B7
:103FE40009F01ECFBA2FBF70C0910728BC0FB73598
:103FF40008F0B6E5E8E6F0E0BB0FEB0FF21DC59163
:10400400D491C0935C28D0935D28A295AF70AA0F79
:10401400A3956F937F936A2F72EB679F7F916F9144
:104024001694079416940794169407941694079478
:1040340000925E2810925F282092602820926128C6
:10404400EFCEE0912828F0912928309609F0E8CEA7
:10405400E0912F28F0913028309609F0E1CEE091DC
:104064003528F0913628309609F0DACEBA2FBF7091
:10407400C0910728CB1B08F4C0E0E8E6F0E0CC0FC1
:10408400EC0FF21DC591D491C0936228D09363289C
:10409400A295AF70AA0FA3956F937F936A2F72EBCB
:1040A400679F7F916F9116940794169407941694C2
:1040B400079416940794009264281092652820921D
:1040C400662820926728ACCEA21551F0B091192829
:1040D400AB1730F4A0936828B1E0B0931F2865C1F2
:1040E4009FCEECE6F3E6EA0FF21DA695A795A795F9
:1040F400B0910028CB2FB07CAB1301C091CEA4901B
:10410400CF73CB2BC09300288BCE8ACE89CE88CE9A
:1041140087CEB0930728A3E0B2E0B0932528A093FC
:104124002A28B0933128B0933728B0933C282092A2
:104134002E2820923428209243282092442820922A
:1041440047282092482820924F2820925028A09156
:104154008C0AB0918D0AA0934928B0934A282092E2
:104164000128976020925C2820925D282092602884
:104174002092612820926228209263282092662847
:1041840020926728FBD04CCEB755A0910028A07F81
:10419400AB2BA09300289660F1D042CEB656B093D4
:1041A4001F28ECD002C12092232820922428209298
:1041B40028282092292820922F28209230282092E3
:1041C40035282092362820923A2820923B282092A3
:1041D4002E28209234283196B491E2E6F9E1EB0FCF
:1041E400F21DEE0FFF1FA591B491AA0FBB1FEA2F7A
:1041F400FB2FB4913296A6E0AA9519F0B69578F003
:10420400FBCFA3E0B2E0B0932528A0932A28B09373
:104214003128B0933728B0933C28BAD001CEC59149
:10422400D591A53039F0A43079F0A330D9F0A2307B
:1042340059F13CC0C0932328D093242841D0C09383
:104244002728D0932628D8CFC0932828D09329286C
:1042540020925C2820925D28209262282092632874
:104264003AD0CACFC0932F28D093302820925C280C
:1042740020925D28209262282092632821D0C09346
:104284003328D0933228B8CFC0933528D09336281A
:1042940020925C2820925D28209262282092632834
:1042A4000FD0C0933928D0933828A6CFC0933A288A
:1042B400D0933B2805D0C0933E28D0933D289CCF73
:1042C400EF93FF93EC2FFD2FEE0FFF1FC591D491B9
:1042D400FF91EF910895EF93FF93EC2FFD2FEE0FD5
:1042E400FF1FC591D591C0932C28D0932B28C4913E
:1042F400C0932D28FF91EF910895B0912728BF3FD7
:1043040019F0B395B0932528B0912C28BF3F19F02C
:10431400B395B0932A28B0913328BF3F19F0B395D1
:10432400B0933128B0913928BF3F19F0B395B093B9
:104334003728B0913E28BF3F19F0B395B0933C287D
:104344001DD06ECDE0911328F0911428A09115286A
:10435400B09116281A96A0931528B0931628EA0F40
:10436400FB1FA591B491AA0FBB1FA0931D28B09366
:104374001E28209221282092222852CDE091212823
:10438400F09122283196E0932128F0932228089571
:10439400E0912128F09122283296E0932128F0938D
:1043A40022280895BA95B0932028A0916C28B09142
:1043B4006D28109609F0BEC2E0916A28F0916B282E
:1043C400A0916E28B0916F28EA0FFB1FB491B73506
:1043D40008F46BC1B73608F4A3C1B33E08F4AAC10C
:1043E40009F4ADC1B43E09F454C2BF3F09F476C226
:1043F4003196A49195D2B55EE4EAF3E6BB0FEB0FD8
:10440400F21DC591D491EC2FFD2F0994A0938C2813
:1044140020928D28D1CF2092922820929328209206
:104424008C2820928D286F937F936A2F72EB679F5D
:104434007F916F9116940794169407941694079499
:104444001694079400928E2810928F28B5CF20924C
:104454008E2820928F2820928C2820928D286F936A
:104464007F936A2F72EB679F7F916F9116940794E5
:10447400169407941694079416940794009292281D
:104484001092932899CF6F937F936A2F72EB679F53
:104494007F916F9116940794169407941694079439
:1044A4001694079400929A2810929B28A21101C096
:1044B40083CFA0919C0AB0919D0AA0939628B093B3
:1044C400972820929C2820929D2876CFBA2FA07FEF
:1044D400A295BF70A0939E28B0939F282092A028F5
:1044E4006BCFBA2FA07FA295BF70A093A128B093E1
:1044F400A2282092A3282092A4285ECFA093A528C6
:104504005BCFA0931A2858CFB0931B2855CFB093F4
:104514001C2852CFB0910828B07FBA2BB09308283A
:1045240092604ACFA093192847CFA21551F0B091B9
:104534001928AB1730F4A093A628B1E0B0936C28E7
:10454400FCC13ACF39CF38CF37CF36CFA093A82884
:1045540033CFE0917528F0917628309609F02CCF6E
:10456400E0917C28F0917D28309609F025CFE091E8
:104574008228F0918328309609F01ECFBA2FBF709D
:10458400C0910F28BC0FB73508F0B6E5E8E6F0E0B7
:10459400BB0FEB0FF21DC591D491C093A928D09302
:1045A400AA28A295AF70AA0FA3956F937F936A2F41
:1045B40072EB679F7F916F911694079416940794FA
:1045C40016940794169407940092AB281092AC2882
:1045D4002092AD282092AE28EFCEE0917528F0917C
:1045E4007628309609F0E8CEE0917C28F0917D2879
:1045F400309609F0E1CEE0918228F091832830963C
:1046040009F0DACEBA2FBF70C0910F28CB1B08F483
:10461400C0E0E8E6F0E0CC0FEC0FF21DC591D491B8
:10462400C093AF28D093B028A295AF70AA0FA395DA
:104634006F937F936A2F72EB679F7F916F911694AC
:10464400079416940794169407941694079400926A
:10465400B1281092B2282092B3282092B428ACCE6C
:10466400A21551F0B0911928AB1730F4A093B528D6
:10467400B1E0B0936C2861C19FCEECE6F3E6EA0F9B
:10468400F21DA695A795A795B0910828CB2FB07CCD
:10469400AB1301C091CED490CF73CB2BC093082819
:1046A4008BCE8ACE89CE88CE87CEB0930F28A3E056
:1046B400B2E0B0937228A0937728B0937E28B09389
:1046C4008428B093892820927B28209281282092E4
:1046D4009028209291282092942820929528209224
:1046E4009C2820929D28A0919C0AB0919D0AA09399
:1046F4009628B09397282092092893602092A9289D
:104704002092AA282092AD282092AE282092AF2889
:104714002092B0282092B3282092B428F7D04CCE0F
:10472400B755A0910828A07FAB2BA09308289260CE
:10473400EDD042CEB656B0936C28E8D0FEC020929D
:104744007028209271282092752820927628209231
:104754007C2820927D2820928228209283282092EF
:1047640087282092882820927B28209281283196BD
:10477400B491E2E6F9E1EB0FF21DEE0FFF1FA591F4
:10478400B491AA0FBB1FEA2FFB2FB4913296A6E077
:10479400AA9519F0B69578F0FBCFA3E0B2E0B093F8
:1047A4007228A0937728B0937E28B0938428B0937E
:1047B4008928B6D001CEC591D591A53039F0A43061
:1047C40079F0A330D9F0A23059F13CC0C0937028DD
:1047D400D093712841D0C0937428D0937328D8CF34
:1047E400C0937528D09376282092A9282092AA28CD
:1047F4002092AF282092B0283AD0CACFC0937C2808
:10480400D0937D282092A9282092AA282092AF280C
:104814002092B02821D0C0938028D0937F28B8CF8D
:10482400C0938228D09383282092A9282092AA2872
:104834002092AF282092B0280FD0C0938628D0931E
:104844008528A6CFC0938728D093882805D0C09305
:104854008B28D0938A289CCFEF93FF93EC2FFD2FC6
:10486400EE0FFF1FC591D491FF91EF910895EF933F
:10487400FF93EC2FFD2FEE0FFF1FC591D591C09331
:104884007928D0937828C491C0937A28FF91EF9126
:104894000895B0917428BF3F19F0B395B09372286E
:1048A400B0917928BF3F19F0B395B0937728B091B0
:1048B4008028BF3F19F0B395B0937E28B091862825
:1048C400BF3F19F0B395B0938428B0918B28BF3FB4
:1048D40019F0B395B093892819D06ECDE0911328BF
:1048E400F0911428A0911528B09116281296EA0F79
:1048F400FB1FA591B491AA0FBB1FA0936A28B09384
:104904006B2820926E2820926F2856CDE0916E2855
:10491400F0916F283196E0936E28F0936F280895F4
:10492400E0916E28F0916F283296E0936E28F09310
:104934006F280895BA95B0936D28A091B928B091C5
:10494400BA28109609F0A3C2E091B728F091B828CC
:10495400A091BB28B091BC28EA0FFB1FB491B735D6
:1049640008F44FC1B73608F484C1B33E08F48FC1CC
:1049740009F492C1B43E09F439C2BF3F09F45BC2E1
:104984003196A4917AD2B55EE8EDF3E6BB0FEB0F56
:10499400F21DC591D491EC2FFD2F0994A093D92831
:1049A4002092DA28D1CF2092DF282092E02820928A
:1049B400D9282092DA286F937F936A2F72EB679F2E
:1049C4007F916F9116940794169407941694079404
:1049D400169407940092DB281092DC28B5CF20921D
:1049E400DB282092DC282092D9282092DA286F93A1
:1049F4007F936A2F72EB679F7F916F911694079450
:104A04001694079416940794169407940092DF283A
:104A14001092E02899CF6F937F936A2F72EB679F70
:104A24007F916F91169407941694079416940794A3
:104A3400169407940092E7281092E828A21101C066
:104A440083CFA091AC0AB091AD0AA093E328B093B0
:104A5400E4282092E9282092EA2876CFBA2FA07F72
:104A6400A295BF70A093EB28B093EC282092ED2878
:104A74006BCF6ACF69CFA0931A2866CFB0931B2857
:104A840063CFB0931C2860CFA21521F0B1E0B0939E
:104A9400A50A5ACF2092A50A2092AC0A2092AD0A08
:104AA40053CFA093192850CFA21551F0B0911928D3
:104AB400AB1730F4A093EE28B1E0B093B928EAC163
:104AC40043CF42CF41CF40CF3FCFA093F0283CCF3C
:104AD400E091C228F091C328309609F035CFE091D7
:104AE400C928F091CA28309609F02ECFE091CF283A
:104AF400F091D028309609F027CFBA2FBF70C0911B
:104B04001228BC0FB73508F0B6E5E8E6F0E0BB0FB5
:104B1400EB0FF21DC591D491C093F128D093F228E4
:104B2400A295AF70AA0FA3956F937F936A2F72EB30
:104B3400679F7F916F911694079416940794169427
:104B44000794169407940092F3281092F428209264
:104B5400F5282092F628F8CEE091C228F091C328D7
:104B6400309609F0F1CEE091C928F091CA28309628
:104B740009F0EACEE091CF28F091D028309609F0E0
:104B8400E3CEBA2FBF70C0911228CB1B08F4C0E04B
:104B9400E8E6F0E0CC0FEC0FF21DC591D491C09380
:104BA400F728D093F828A295AF70AA0FA3956F9316
:104BB4007F936A2F72EB679F7F916F91169407948E
:104BC4001694079416940794169407940092F9285F
:104BD4001092FA282092FB282092FC28B5CEA21528
:104BE40051F0B0911928AB1730F4A093FD28B1E02F
:104BF400B093B9284FC1A8CEA7CEA6CEA5CEA4CE39
:104C0400A3CEB0931228A3E0B2E0B093BF28A09340
:104C1400C428B093CB28B093D128B093D62820923F
:104C2400C8282092CE282092DD282092DE282092C7
:104C3400E1282092E2282092E9282092EA28A091F3
:104C4400AC0AB091AD0AA093E328B093E428209273
:104C5400F1282092F2282092F5282092F62820921A
:104C6400F7282092F8282092FB282092FC28FBD0D9
:104C74006BCEF9D0B75521F0B1E0B093A50A64CE5C
:104C84002092A50A2092AC0A2092AD0A5DCEB656B7
:104C9400B093B928E8D0FEC02092BD282092BE2847
:104CA4002092C2282092C3282092C9282092CA2880
:104CB4002092CF282092D0282092D4282092D52840
:104CC4002092C8282092CE283196B491E2E6F9E1E8
:104CD400EB0FF21DEE0FFF1FA591B491AA0FBB1F9E
:104CE400EA2FFB2FB4913296A6E0AA9519F0B69557
:104CF40078F0FBCFA3E0B2E0B093BF28A093C42820
:104D0400B093CB28B093D128B093D628B6D01CCE7C
:104D1400C591D591A53039F0A43079F0A330D9F0FC
:104D2400A23059F13CC0C093BD28D093BE2841D0D5
:104D3400C093C128D093C028D8CFC093C228D093A1
:104D4400C3282092F1282092F2282092F72820925A
:104D5400F8283AD0CACFC093C928D093CA28209241
:104D6400F1282092F2282092F7282092F82821D0C6
:104D7400C093CD28D093CC28B8CFC093CF28D0935C
:104D8400D0282092F1282092F2282092F72820920D
:104D9400F8280FD0C093D328D093D228A6CFC0939D
:104DA400D428D093D52805D0C093D828D093D72819
:104DB4009CCFEF93FF93EC2FFD2FEE0FFF1FC591B8
:104DC400D491FF91EF910895EF93FF93EC2FFD2F72
:104DD400EE0FFF1FC591D591C093C628D093C52867
:104DE400C491C093C728FF91EF910895B091C12851
:104DF400BF3F19F0B395B093BF28B091C628BF3F09
:104E040019F0B395B093C428B091CD28BF3F19F0E1
:104E1400B395B093CB28B091D328BF3F19F0B39585
:104E2400B093D128B091D828BF3F19F0B395B0936F
:104E3400D62819D089CDE0911328F0911428A09197
:104E44001528B09116281496EA0FFB1FA591B4916A
:104E5400AA0FBB1FA093B728B093B8282092BB28F1
:104E64002092BC2871CDE091BB28F091BC283196EA
:104E7400E093BB28F093BC280895E091BB28F091FF
:104E8400BC283296E093BB28F093BC280895BA95C9
:104E9400B093BA28F0911928EF2FE150A09120285F
:104EA400A21142C000C0AF2FB0911F28B21509F45F
:104EB4003BC0BA95B0931F28B21134C0AA95BFEF76
:104EC400C0916828D0916928CB1709F00DC0DB1771
:104ED40009F015C0C0915928D0915A28CB1709F070
:104EE40012C0DB17F9F01AC0B0936828EC1BE093EA
:104EF4006928CA95C0932028EF2FE15015C0B093BC
:104F04006928AD2F0FC0B0935928EC1BE0935A28A1
:104F1400CA95C0932028EF2FE15006C0B0935A28B9
:104F2400AD2F00C0A0932028A0916D28A21142C0EB
:104F340000C0AF2FB0916C28B21509F43BC0BA95EC
:104F4400B0936C28B21134C0AA95BFEFC091B528B4
:104F5400D091B628CB1709F00DC0DB1709F015C0A6
:104F6400C091A628D091A728CB1709F012C0DB174F
:104F7400F9F01AC0B093B528EC1BE093B628CA9593
:104F8400C0936D28EF2FE150CFCFB093B628AD2F4B
:104F94000FC0B093A628EC1BE093A728CA95C09332
:104FA4006D28EF2FE150C0CFB093A728AD2F00C0DC
:104FB400A0936D28A091BA28A21142C000C0AF2FBF
:104FC400B091B928B21509F43BC0BA95B093B92889
:104FD400B21134C0AA95BFEFC091FD28D091FE282C
:104FE400CB1709F00DC0DB1709F015C0C091EE28EE
:104FF400D091EF28CB1709F012C0DB17F9F01AC0D3
:10500400B093FD28EC1BE093FE28CA95C093BA2800
:10501400EF2FE15015C0B093FE28AD2F0FC0B09311
:10502400EE28EC1BE093EF28CA95C093BA28EF2F23
:10503400E15006C0B093EF28AD2F00C0A093BA286A
:10504400E0912328F09124283096A1F1EE0FFF1F60
:10505400A0912528EA0FF21DB0912728BA1729F448
:10506400A0912628AB1710F003C0A395A093252880
:10507400B491BF3F69F4B0912728BF3F29F4B091A0
:105084002628B0932528DCCFA250A0932528D8CF7A
:10509400ECE0F4E6B295EB0FF21DB0910028BF707E
:1050A400A0915728A03081F4EB0FF21DB491B09376
:1050B400062824C0B0910028BF70A0915728A030C2
:1050C400A1F4B09306281AC0BA1B40F039F0B1E03D
:1050D400EB0FF21DB491B093062810C0B1E0EB0FB2
:1050E400F21DB491B093062809C0BA1B20F019F040
:1050F400B093062803C0B1E0B0930628E0912828B5
:10510400F09129283096D9F1EE0FFF1FA0912A289B
:10511400EA0FF21DB0912C28BA1729F4A0912B287C
:10512400AB1710F003C0A395A0932A28B491B0380C
:1051340009F041C0A150A0932A28B0912D28B13084
:1051440048F0B0912C28BF3FD1F4B0912B28BF3F39
:1051540099F415C0B0912C28BF3F21F4B0912B28AD
:10516400BF3F51F4C0913F28D0914028209669F464
:10517400A150A0932A28C2CFB0932A28BFCFC091B0
:105184003F28D0914028209699F0D695C795D79579
:10519400C795D795C795D795C795D795D295C093F9
:1051A4003F28D0934028CF70A0910728AC0F2CC083
:1051B400A091072829C020922E2820923428A0915B
:1051C4002D28A13010F069F00EC0A0910728AB0F74
:1051D400B7FD04C0A735C0F0A6E516C0A7FDA0E042
:1051E40013C0AB2F11C0A0910728AB0FB7FD08C0A7
:1051F400A0930728A73540F0A6E5A093072804C08C
:10520400A7FDA0E0A0930728E8E6F0E0AA0FEA0FC4
:10521400F21DA591B491A0938C0AB0938D0AA0932A
:105224004B28B0934C2800C0E0912F28F0913028EF
:10523400309609F423C0EE0FFF1FA0913128EA0F26
:10524400F21DB0913328BA1729F4A0913228AB1774
:1052540010F003C0A395A0933128B491B03889F419
:10526400A150A0933128B0913328BF3F39F4B091B5
:105274003228BF3F19F0B0933128D6CFB0912E28F1
:1052840005C0A0912E28BA0FB0932E28A0915B28B8
:10529400BA0F6F937F936B2F72EB67037F916F91BC
:1052A40016940794169407941694079416940794E6
:1052B40013FE02C0B0EF1B2AA0918C0AB0918D0A94
:1052C400A00DB11DC0914328D0914428AC1BBD0B47
:1052D400C0914728D0914828AC0FBD1FC0916028C9
:1052E400D0916128AC1BBD0BC0916628D091672872
:1052F400AC0FBD1FA0938C0AB0938D0AE0913528A2
:10530400F0913628309609F43CC0EE0FFF1FA091AF
:105314003728EA0FF21DB0913928BA1729F4A09161
:105324003828AB1710F003C0A395A0933728B49185
:10533400B03889F4A150A0933728B0913928BF3FE1
:1053440039F4B0913828BF3F19F0B0933728D6CF3D
:10535400B091342805C0A0913428BA0FB0933428F2
:105364006F937F936B2F72EB67037F916F91A09183
:105374008C0AB0918D0AA00DB11DA0938C0AB09334
:105384008D0AE0913A28F0913B283096B1F1EE0F66
:10539400FF1FA0913C28EA0FF21DB0913E28BA17D6
:1053A40029F4A0913D28AB1710F027C0A395A09332
:1053B4003C28B491BF3F71F4A150A0933C28B09114
:1053C4003E28BF3FD1F4B0913D28BF3FB1F0B09328
:1053D4003C28D7CFECE6F3E6EB0FF21DB695B79574
:1053E400B795A0910028CA2FA07CBA1301C005C0AC
:1053F400A490CF73CB2BC0930028E0914128F09167
:105404004228309651F0A0914328B0914428AE0F21
:10541400BF1FA0934328B0934428E0914528F091FE
:105424004628309651F0A0914728B0914828AE0FF5
:10543400BF1FA0934728B0934828E0914D28F091CE
:105444004E28309609F448C0A0914928B0914A28C2
:10545400109609F441C0C0914B28D0914C28AC1748
:10546400BD0711F030F01FC02092492820924A282D
:1054740033C0CA1BDB0BA0914F28B0915028AE0F4C
:10548400BF1FCA1BDB0B80F3A0934F28B093502897
:10549400A0918C0AB0918D0AAC1BBD0BA0938C0A11
:1054A400B0938D0A19C0AC1BBD0BC0914F28D0918D
:1054B4005028CE0FDF1FAC1BBD0BB0F2C0934F289A
:1054C400D0935028C0918C0AD0918D0ACA0FDB1F4B
:1054D400C0938C0AD0938D0AA0915128A21509F487
:1054E4005CC0B0915228C0915328CA0FC43608F04A
:1054F400C356C0935328C03128F0C03228F0C033BB
:1055040030F007C0CF7029C0C06FC09526C0CF70DF
:1055140003C0C06FC09500C0B295CB0FE6E1F1E0C7
:10552400EC0FF21DC4916F937F936C2F72EB679F06
:105534007F916F9116940794169407941694079488
:1055440016940794A0918C0AB0918D0AA00DB11DF8
:10555400A0938C0AB0938D0A20C0B295CB0FE6E1DC
:10556400F1E0EC0FF21DC4916F937F936C2F72EBFB
:10557400679F7F916F9116940794169407941694DD
:10558400079416940794A0918C0AB0918D0AA019DF
:10559400B109A0938C0AB0938D0AA0915428A21546
:1055A400F1F0B0915528C0915628CA0FC43610F0B6
:1055B400C0E0C356C0935628C695C4FF01C002C0BC
:1055C400CF7003C0C06FC09500C0B295CB0FE6E1A9
:1055D400F1E0EC0FF21DC491C695C0935728B09129
:1055E4005828B215E9F0A0910528C0910028DA2FB7
:1055F400EC2FE295D07FE07FED1709F0AE2FB7FDD9
:1056040004C0AB0F28F4A0EF03C0AB0F08F0A0E078
:10561400A0930528A07FA295C07FCA2BC093002821
:10562400E0915C28F0915D28309699F1A091602872
:10563400B0916128C0918C0AD0918D0AEC1BFD0BAE
:1056440008F4E8F0AE1BBF0B6F937F9360915B2867
:1056540072EB679F7F916F91169407941694079449
:105664001694079416940794A00DB21DA093602875
:10567400B093612820925C2820925D280AC0C091D2
:105684005E28D0915F28AC0FBD1FA0936028B09313
:105694006128E0916228F0916328309699F1A091F5
:1056A4006628B0916728C0918C0AD0918D0ACE1BD0
:1056B400DF0B08F4E8F0AC1BBD0B6F937F93609194
:1056C4005B2872EB679F7F916F91169407941694F1
:1056D40007941694079416940794A00DB21DA093F2
:1056E4006628B093672820926228209263280AC013
:1056F400C0916428D0916528AC0FBD1FA093662883
:10570400B0936728E0917028F09171283096A1F148
:10571400EE0FFF1FA0917228EA0FF21DB0917428BA
:10572400BA1729F4A0917328AB1710F003C0A395FE
:10573400A0937228B491BF3F69F4B0917428BF3F1D
:1057440029F4B0917328B0937228DCCFA250A093AF
:105754007228D8CFECE0F4E6B295EB0FF21DB091CD
:105764000828BF70A091A428A03081F4EB0FF21D8B
:10577400B491B0930E2824C0B0910828BF70A091B2
:10578400A428A030A1F4B0930E281AC0BA1B40F08C
:1057940039F0B1E0EB0FF21DB491B0930E2810C0B4
:1057A400B1E0EB0FF21DB491B0930E2809C0BA1BFF
:1057B40020F019F0B0930E2803C0B1E0B0930E2886
:1057C400E0917528F09176283096D9F1EE0FFF1FFD
:1057D400A0917728EA0FF21DB0917928BA1729F41D
:1057E400A0917828AB1710F003C0A395A093772855
:1057F400B491B03809F041C0A150A0937728B0917A
:105804007A28B13048F0B0917928BF3FD1F4B091F3
:105814007828BF3F99F415C0B0917928BF3F21F48F
:10582400B0917828BF3F51F4C0918C28D0918D2835
:10583400209669F4A150A0937728C2CFB09377281B
:10584400BFCFC0918C28D0918D28209699F0D69501
:10585400C795D795C795D795C795D795C795D79524
:10586400D295C0938C28D0938D28CF70A0910F2807
:10587400AC0F2CC0A0910F2829C020927B28209225
:105884008128A0917A28A13010F069F00EC0A0916F
:105894000F28AB0FB7FD04C0A735C0F0A6E516C0AE
:1058A400A7FDA0E013C0AB2F11C0A0910F28AB0F30
:1058B400B7FD08C0A0930F28A73540F0A6E5A09334
:1058C4000F2804C0A7FDA0E0A0930F28E8E6F0E0AD
:1058D400AA0FEA0FF21DA591B491A0939C0AB0936C
:1058E4009D0AA0939828B093992800C0E0917C2841
:1058F400F0917D28309609F423C0EE0FFF1FA0918C
:105904007E28EA0FF21DB0918028BA1729F4A091DD
:105914007F28AB1710F003C0A395A0937E28B49101
:10592400B03889F4A150A0937E28B0918028BF3F5D
:1059340039F4B0917F28BF3F19F0B0937E28D6CFB9
:10594400B0917B2805C0A0917B28BA0FB0937B2827
:10595400A091A828BA0F6F937F936B2F72EB670304
:105964007F916F9116940794169407941694079454
:105974001694079413FE02C0B0EF1B2AA0919C0A50
:10598400B0919D0AA00DB11DC0919028D09191288D
:10599400AC1BBD0BC0919428D0919528AC0FBD1FB2
:1059A400C091AD28D091AE28AC1BBD0BC091B328DB
:1059B400D091B428AC0FBD1FA0939C0AB0939D0A4C
:1059C400E0918228F0918328309609F43CC0EE0FD0
:1059D400FF1FA0918428EA0FF21DB0918628BA1700
:1059E40029F4A0918528AB1710F003C0A395A093C8
:1059F4008428B491B03889F4A150A0938428B0913C
:105A04008628BF3F39F4B0918528BF3F19F0B09381
:105A14008428D6CFB091812805C0A0918128BA0FDF
:105A2400B09381286F937F936B2F72EB67037F9101
:105A34006F91A0919C0AB0919D0AA00DB11DA093F5
:105A44009C0AB0939D0AE0918728F09188283096AB
:105A5400B1F1EE0FFF1FA0918928EA0FF21DB0915A
:105A64008B28BA1729F4A0918A28AB1710F027C005
:105A7400A395A0938928B491BF3F71F4A150A0933A
:105A84008928B0918B28BF3FD1F4B0918A28BF3FB9
:105A9400B1F0B0938928D7CFECE6F3E6EB0FF21D13
:105AA400B695B795B795A0910828CA2FA07CBA13CC
:105AB40001C005C0D490CF73CB2BC0930828E091CC
:105AC4008E28F0918F28309651F0A0919028B091B3
:105AD4009128AE0FBF1FA0939028B0939128E09116
:105AE4009228F0919328309651F0A0919428B09187
:105AF4009528AE0FBF1FA0939428B0939528E091EA
:105B04009A28F0919B28309609F448C0A0919628D1
