:020000020000FC
:040000000C947325C4
:04001C000C947E269C
:100024000C9464260C946E260C9464260C946C2A0E
:10003400C758CC53184FA74A77468242C73E413B24
:10004400ED37CA34D331072F642CE6298C27542585
:100054003B234121631FA01DF71B651AEA1884176F
:100064003216F314C613AA129E11A110B20FD00EA9
:10007400FB0D320D750CC20B190B790AE3095509F6
:10008400CF085008D9076807FE0699063A06E10525
:100094008C053D05F104AA0467042804EC03B403A9
:1000A4007F034D031D03F002C6029E02790255022E
:1000B40034021402F601DA01BF01A6018F017801AE
:1000C40063014F013C012B011A010A01FB00ED0001
:1000D400E000D300C700BC00B200A8009E00F102FB
:1000E400B30F8F14331B6D250E03B60F9214361BFA
:1000F40070253003BB0F9214361B70254803C50FBF
:100104009214361B70255B03DD0F9214361B702589
:100114006603F60F9214361B7025700312109314A5
:10012400361B70257B032A109214361B702591030D
:1001340042109214361B7025A8035B109214361BD0
:100144007025BE0373109614361B7025DC038B10C8
:100154009214361B70250304A3109A14361B7025C1
:100164002C04BC109E14361B70255204D410921417
:10017400361B70257304EC109214361B70259C04F6
:100184000411A214361B7025C7041D11A614361BB6
:100194007025F10435119214361B70251B054D1181
:1001A400AA14361B702546056611B014371B70253A
:1001B40070057A11BA143F1B702599057D11BF147F
:1001C4004D1B7025C10581119214591B7025EC0536
:1001D4008611CA14671B702516068A11D414701B65
:1001E40070253F068E11D714811B7025620693116A
:1001F400DF148C1B702583069611E5149A1B702559
:10020400A8069A11E914A81B7025CF069B11F314B4
:10021400B41B7025F6069E11F514C31B70251C072C
:100224009A11FF14CB1B70253B07A3110615DE1B87
:1002340070255D07A5111815EF1B70258107A911FD
:100244002F150E1C7025A807AC1144152E1C702503
:10025400CB07B4115415501C7025EE07B511661563
:10026400731C70250C08BB117915961C70252D087C
:10027400C0118B15B91C70254F08C6119A15DA1CCC
:1002840070257008CE11AE15FC1C70259B08D0118A
:10029400BF15221D7025C608D111CB15491D702527
:1002A400F008D411DE156C1D70251A09D711F0154C
:1002B400901D70254109D911FC15B71D70256C09D5
:1002C400DB111316D81D70258709EA113316F91DA1
:1002D40070258B09F51144161B1E70258F09041215
:1002E40053163E1E7025920915126B16601E70255A
:1002F400960926127C16831E70259A0939128C16CB
:10030400A51E7025A4094D12A116C71E7025B80993
:100314005812B516EC1E7025D1095A12C616111FB3
:100324007025EA097712D616331F7025140A801235
:10033400ED16591F70253E0A8112FE167E1F702588
:10034400690A8F120D17A21F70258A0AAC1233177F
:10035400C71F7025A60ABD125417E11F7025C40AD1
:10036400CC12631704207025E30AD91279172720C9
:100374007025020BE9128D1749207025200BFA1203
:100384009E176C2070253F0B0F13B2178E2070251B
:100394005F0B2513C517B0207025850B2D13D517BA
:1003A400D4207025AD0B3013E317F9207025D50B3D
:1003B4004C13F3171D217025FD0B55130718442109
:1003C4007025260C5E131418642170254B0C6D13D4
:1003D40025188D217025700C7B134518B1217025CB
:1003E400760C7F135A18CB1B7025760C8213611878
:1003F400C2217025770C87136818CF217025760CDD
:100404008D137118DD217025760C8E137618ED216D
:100414007025760C94138018F7217025790C9713A6
:10042400841809227025760C9C13911814227025C7
:10043400760C9E139818252270257B0C9F139F1809
:1004440034227025760C9E13A918412270257D0C48
:10045400A613AE1851227025800CA71392145B22A8
:100464007025820CAA13BC186C227025980CAE134C
:10047400CA1879227025AA0CB013D11888227025C5
:10048400BD0CB513D81898227025D20CBB13E218F2
:10049400A4227025E50CBD13E618B5227025F70CCF
:1004A400C213F318BF2270250C0DC713F818D122FC
:1004B4007025200DCA130119E8227025320DCC13C2
:1004C400091900237025460DCE130F191A23702520
:1004D4005B0DD6131919302370256C0DD7132C1905
:1004E40047237025810DD91340195E237025940D7F
:1004F400DB137B1982237025B40DDE138C199F2323
:100504007025D50DE0139E19C2237025F40DE71351
:10051400B619E6237025140EEB13CA19E11F7025D2
:10052400370EED13DC1904207025590EF413F2195B
:1005340027207025790EF7130B1A49207025A00E79
:10054400FB131C1A6C207025C90EFC13351A8E205F
:100554007025F30EFF13481A062470251D0FFB1394
:100564005C1A26247025460FFB136E1A4A24702544
:100574006E0F0414851A6D247025890F0E14B31A96
:10058400892470258C0F1D14C31AAB247025930F76
:100594003114D71ACF247025940F3D14EB1AF0248C
:1005A40070259A0F5314FD1A132570259F0F631499
:1005B400131B35257025A50F7D14231B5825702585
:1005C400AD0F8A149214361B7025AF0F8B1492143E
:1005D400361B7025B00F8D14311B361B702527591F
:1005E400E2006B58682259685A68596758682E5A4D
:1005F4006B5868295A6B5868355A6B5868295A6B76
:100604005868315A6B5868295A6B58683359685A74
:100614006858692C5967FF00675A6858692E5968E9
:100624005A6858692759685A6858692A59685A682B
:1006340058682559685A68596758682E59685A681D
:10064400596758682A59685A685967586827596B0E
:10065400586822596B58682A5969FF0068586827F6
:10066400596B586835596B58682E596A5869365908
:100674006A58692F596A586938596A586931596AE8
:10068400586836596B58682F596BFF00586835689D
:10069400596858692E6859685869316859685869A1
:1006A4002A6859685869276D226D2E6D296D356C3D
:1006B400FF0067296D316C296D336D2C6D2E6D270C
:1006C4006D2A6D256D2E67FF6C2A6D276D226D2AAC
:1006D4006D276C356D2E6D366D2F69FF6A386D315F
:1006E4006D366D2F6D356D2E6D316D2A6D215B6A02
:1006F400FF00675A671E6B5968255B6B5A68216B4C
:1007040059682F5B6B5A68286B59682D5B6B5A6864
:10071400256B59682C5B6B5A68216B5967FF6728F6
:100724005B6B5A68236B5968255B6B5A681E6B595F
:1007340067285B6B5A68236B5968215B6B5A681E88
:100744006B5968285B6B5A682167FF006A59682AED
:100754005B6B5A68236B5968285B6B5A68216B5929
:1007640068275B6B5A681E6B5968235B6B5A671C5E
:100774006B5968205B69FF00685A681E685B685A99
:10078400675968235B6B5A681C685B685A675968C9
:10079400215B6B5A681E685B685A675968255B6BF6
:1007A4005A6821685B685A6759682F5B6B5A6828D6
:1007B400685B68FF5A6759682D5B6B5A6825685BEC
:1007C400685A6759672C5B685C685B675A6821687C
:1007D4005B685A675968285B685C685B675A68237A
:1007E400685B685A675968255B685C685B675A6828
:1007F4001E685B685A675968285B685C685B675A5F
:1008040067FF6723685B685A675968215B685C689F
:100814005B675A681E685B685A675968285B685C3E
:10082400685B675A6821685B685A6759682A5B681D
:100834005C685B675A6723685B685A675968285B1A
:10084400685C685B675A6821685B685A67596827FF
:100854005B67FF00675C685B675A681E685B685A81
:10086400675968235B685C685B675A681C685B68E7
:100874005A675968205B685C685B675A681B685BE9
:10088400685A675968235B685C685B675A681C5BD5
:100894006B5A68205B685C685B675A681B5B68FF1F
:1008A400695A67275B685C685B675A68225B6B5AA6
:1008B400682E5B685C685B675A68225B6B5A682ABF
:1008C4005B685C685B675A68225B6B5A682C5B6880
:1008D4005C685B675A68255B6B5A68275B685C6871
:1008E400FF005B675A68205B6B5A68235B685C682F
:1008F4005B675A681E5B685C685B675A68275B685D
:100904005C685B675A67235B685C685B675A68204E
:100914005B685C685B675A681B5B685C685B675A0A
:1009240068235B685C685B675A68205B685C685B2B
:10093400675A67FF672E5B685C685B675A68275B6A
:10094400685C685B675A682F5B685C685B675A68B9
:10095400285B685C685B675A68315B685C685B67E6
:100964005A682A5B685C685B675A682F5B685C68D6
:100974005B675A68285B685C685B675A672E5B68CC
:100984005C685B675A68275B67FF675C685B675AEC
:10099400682A5B685C685B675A68235B685C685BB1
:1009A400675A68205B685C685B675A681B5B685CB5
:1009B400685B675A68275B685C685B675A68225B98
:1009C400685C685B675A682E5B685C685B675A683A
:1009D400225B685C685B675A682A5B68FF005C6836
:1009E4005B675A68225B685C685B675A682C5B6863
:1009F4005C685B675A67255B685C685B675A682755
:100A04005B685C685B675A68205B685C685B675A14
:100A140068235B685C685B675A681E5B685C685B3C
:100A2400675A68275B685C685B675A68235B685C25
:100A340068FF5B675A68205B685C685B675A681B81
:100A44005B685C685B675A68235B685C685B675AD1
:100A540068205B685C685B675A682E5B685C685BEF
:100A6400675A68275B685C685B675A672F5B685CDA
:100A7400685B675A68285B685C685B675A68315BC7
:100A8400685C685B675A67FF672A5B685C685B67DA
:100A94005A682F5B685C685B675A68285B685C68A7
:100AA4005B675A682E5B685C685B675A68275B689B
:100AB4005C685B675A682A5B685C685B675A682392
:100AC4005B685C685B675A68215B685C685B675A53
:100AD400681E5B685C685B675A68FF00255B685C3E
:100AE400685B675A67215B685C685B675A682F5B61
:100AF400685C685B675A68285B685C685B675A680F
:100B04002D5B685C685B675A68255B6B5A682C5B75
:100B1400685C685B675A68215B685C685B675A68F5
:100B2400285B685C685B675A68235B68FF005C68E5
:100B34005B675A68255B6B5A681E5B685C685B6719
:100B44005A68285B685C685B675A68235B685C6802
:100B54005B675A67215B685C685B675A681E5B6801
:100B64005C685B675A68285B685C685B675A6821E5
:100B74005B685C685B675A682A5B685C68FF5B67F4
:100B84005A68235B685C685B675A68285B685C68C2
:100B94005B675A68215B685C685B675A68275B68B7
:100BA4005C685B675A681E5B685C685B675A6823AD
:100BB4005B685C685B675A681C5B685C685B675A67
:100BC40068205B685C685B675A671E5B685C685B8F
:100BD400675A67FF67235B685C685B675A681C5BDE
:100BE400685C685B675A68215B685C685B675A6825
:100BF4001E5B685C685B675A68255B685C685B675A
:100C04005A68215B685C685B675A682F5B685C683C
:100C14005B675A68285B685C685B675A682D5B6829
:100C24005C685B675A68FF00255B685C685B675AB1
:100C3400682C596B5868215B685C685B675A672845
:100C44005B685C685B675A68235B685C685B675ACF
:100C540068255B685C685B675A681E5B685C685BF8
:100C6400675A68285B685C685B675A68235B685CE2
:100C7400685B675A68215B68FF005C685B675A6859
:100C84001E5B685C685B675A68285B685C685B67C6
:100C94005A68215B685C685B675A682A5B6B5A68B0
:100CA400235B6B5A68285B685C685B675A67215BE7
:100CB4006B5A68275B685C685B675A681E5B6AFFEF
:100CC400675A68235B685C685B675A681C5B6B5A8D
:100CD40068205B685C685B675A681B5B6B5A6823B7
:100CE4005B685C685B675A681C5B6B5A68205B686E
:100CF4005C685B675A681B5B6B5A6827685B685A59
:100D040067FF5968225B6B5A672E5B685C685B6798
:100D14005A6822685B685A6759682A5B685C685B32
:100D2400675A6822685B685A6759682C5B685C6814
:100D34005B675A6825685B685A675968275A6B5914
:100D440068205A685B685A675968FF00235B685CCF
:100D5400685B675A681E685B685A675968275A6BEC
:100D64005968235A685B685A675968205B685C68ED
:100D74005B675A671B685B685A675968235B685CE2
:100D8400685B675A6820685B685A6759682E5B68B5
:100D94005C685B675A682768FF006959682F5B685D
:100DA4005C685B675A6828685B685A675968315B96
:100DB400685C685B675A682A685B685A6759682F79
:100DC4005B685C685B675A6828685B685A6759683F
:100DD4002E5B685C685B675A6827685B685A67596A
:100DE400672A5B685C68FF005B675A6823685B6816
:100DF4005A675968205B685C685B675A681B685B64
:100E0400685A675968275A6B5968225A685B685A46
:100E14006759682E5B685C685B675A6822685B6820
:100E24005A6759682A5B685C685B675A6822685B22
:100E3400685A67FF59682C5B6B5A6825685B685A67
:100E4400675968275A6B5967205A685B685A67590B
:100E540068235B6B5A681E685B685A675968275A2F
:100E64006B5968235A685B685A675968205B6B5AE8
:100E740068FF1B685B685A675968235B6B5A682074
:100E8400685B685A6759682E5B6B5A68276B5968A8
:100E94002F5B685C685B675A6828685B685A6759A7
:100EA40067315B685C685B675A682A685B685A6785
:100EB40059682F5B68FF5C685B675A68285B6B5AEC
:100EC400682E5B685C685B675A68276B59682A5CA4
:100ED400685D685C675B6823685C685B675A682167
:100EE4005B685C685B675A681E685B685A67596828
:100EF400255B685C685B675A6821685B67FF675AB3
:100F04006759682F5A6B5967285A685B685A67593A
:100F1400682D5B685C685B675A6825685B685A671C
:100F240059682C5B685C685B675A6821685B685A1F
:100F3400675968285B685C685B675A6823685B6804
:100F44005A675968255B685C685B67FF5A681E6866
:100F54005B685A675968285B685C685B675A6823F2
:100F6400685B685A675968215B685C685B675A68A4
:100F74001E5B6B5A67285B685C685B675A68215B19
:100F84006B5A682A5B685C685B675A68235B6B5AB8
:100F940068FF285B685C685B675A68215B6B5A680A
:100FA400275B685C685B675A681E5B6B5A68235BE7
:100FB400685C685B675A681C5B6B5A68205B685C9A
:100FC400685B675A681E5B6B5A68235B685C685B86
:100FD400675A671C5B68FF00695A68215B685C6834
:100FE4005B675A681E5B6B5A68255B685C685B6765
:100FF4005A68215B6B5A682F6B5968285B6B5A6877
:101004002D5B685C685B675A68255B6B5A682C5B70
:10101400685C67FF675B675A68215B6B5A68285B8B
:10102400685C685B675A68235B6B5A67255B685C1E
:10103400685B675A681E5B6B5A68285B685C685B10
:10104400675A68235B6B5A68215B685C685B675A04
:10105400681E5B6BFF005A68285B685C685B675AB4
:1010640068215B6B5A682A5B685C685B675A682313
:101074005B6B5A68285B685C685B675A68215B6BCA
:101084005A68275B685C685B675A671E5B6B5A68C3
:10109400235B685C685B675A68FF1C5B6B5A68205B
:1010A4005B685C685B675A681B5B6B5A68235B68A8
:1010B4005C685B675A681C5B6B5A68205B685C6899
:1010C4005B675A681B5B6B5A68275B685C685B6785
:1010D4005A68225B6B5A682E5B67FF00675C685B2B
:1010E400675A68225B685C685B675A672A5B685C5E
:1010F400685B675A68225B685C685B675A682C5B4C
:10110400685C685B675A68255B685C685B675A68FB
:10111400275B685C685B675A68205B685C685B6730
:101124005A68235B685C685B675A681E5B685C6727
:10113400FF00675B675A68275B685C685B675A688F
:10114400235B685C685B675A68205B685C685B6704
:101154005A681B5B685C685B675A68235B685C68F9
:101164005B675A67205B685C685B675A682E5B68DC
:101174005C685B675A68275B685C685B675A682FC2
:101184005B685C685B67FF005A68285B685C685B47
:10119400675A68315B685C685B675A682A5B685C9D
:1011A400685B675A682F5B685C685B675A68285B92
:1011B400685C685B675A682E5B685C685B675A6842
:1011C400275B685C685B675A682A5B685C685B6776
:1011D4005A68235B685C685B675A67FF205B685CDE
:1011E400685B675A681B5B685C685B675A68275B67
:1011F400685C685B675A68225B685C685B675A680E
:101204002E5B685C685B675A68225B685C685B6736
:101214005A682A5B685C685B675A68225B685C682A
:101224005B675A68205B685C6858691B5B67FF00F2
:10123400675C685869275B685C685869225B685C0E
:101244006858692E5B685C685868225B685C685BF8
:101254006758682A5B685C685B675868225B685CEF
:10126400685B675868205B685C685B675A681B5BEF
:10127400685C685B675A68275B685C67FF00675B4C
:10128400675A68225B685C685B675A682E5B685CB7
:10129400685B675A68225B685C685B675A682A5BAC
:1012A400685C685B675A68225B685C685B675A685D
:1012B4002E5B685C685B675A68225B685C685B6786
:1012C4005A672A5B685C685B675A68225B685C687B
:1012D4005B67FF005A682A5B685C685B6758685AFA
:1012E400685B685A6758685A6B5868596B586859EC
:1012F400685A68596757682A586859685867576818
:101304002A586A57691C5873FF006719731B7B1CA2
:1013140083FF7A19741B7A1C70FF8D19741B71FF7B
:10132400761C7419741B7AFF1C9719741E67FF00CE
:10133400771F6A2073195C685B685A70586A576F24
:101344001B5C69FF5B685A681C6D586B576F205AA9
:101354006B59681B5A6B5968275A6B5968225A6B28
:1013640059682E5A6B5968225A6AFF006759682ACD
:101374005A6B5968225A6B59672C5A6B5968255A0B
:101384006B5968275A6B5968205A6B5968235A6BF2
:1013940059681E5A6B5968275A6B5967FF006723AF
:1013A4005A6B5968205A6B59681B5A6B5968235AEF
:1013B4006B5968205A6B59682E5A6B5967275A6BB8
:1013C40059682F5A6B5968285A6B5968315A67FF04
:1013D400675B685A6759682A5A685B685A6759682C
:1013E4002F5A685B685A675968285A685B685A6755
:1013F40059682E5A685B685A675968275A685B6847
:101404005A6759682A5A685B685A675968235A6840
:101414005B685A675968205A685B685A6759681B41
:101424005A68FF005B685A675967275A685B685AAD
:10143400675968225A685B685A6759682E5A685B0C
:10144400685A675968225A685B685A6759682A5A01
:10145400685B685A675968225A685B685A675968B2
:101464002C5A685B685A675968255A685B685A67DA
:101474005968275A685B68FF5A675968205A685B3D
:10148400685A675968235A685B685A6759681E5ACC
:10149400685B685A675968275A685B685A6759676E
:1014A400235A685B685A675968205A685B685A67A8
:1014B40059681B5A685B685A675968235A685B689D
:1014C4005A675968205A685B685A675967FF672EDC
:1014D4005A685B685A675968275A685B685A67593B
:1014E400682F5A685B685A675968285A685B685A53
:1014F400675968315B6B5A682A5B6B5A682F5B6B60
:101504005A68285B6B5A672E5B6B5A68275B67FFC8
:101514006A5A682A5B6B5A68235B6B5A68215B6B57
:101524005A681E685B685A675968255B6B5A68215C
:10153400685B685A6759682F5B6B5A6828685B68F0
:101544005A6759682D5B68FF695A6825685B685A51
:101554006759682C5B6B5A6721685B685A675968DE
:10156400285B6B5A6823685B685A675968255B6B0C
:101574005A681E685B685A675968285B6B5A682307
:10158400685B68FF5A675968215B6B5A681E685B21
:10159400685A675968285B6B5A6821685B685A67A0
:1015A40059682A5B6B5A6823685B685A67596728CD
:1015B4005B6B5A6821685B685A675968275B6B5A8A
:1015C40067FF671E685B685A675968235B6B5A68D4
:1015D4001C685B685A675968205B6B5A681E685BB5
:1015E400685A675968235B6B5A681C685B685A675A
:1015F4005968215B6B5A681E685B685A675968FFB3
:10160400255B6B5A6721685B685A6759682F5B6B67
:101614005A6828685B685A6759682D5B6B5A682555
:10162400685B685A6759682C5B6B5A6821685B6809
:101634005A675968285B6B5A682368FF5B685A6766
:101644005968255B6B5A681E685B685A6759682835
:101654005B6B5A6823685B685A675967215B6B5AEE
:10166400681E685B685A675968285B6B5A6821680A
:101674005B685A6759682A5B6AFF675A6823685B24
:10168400685A675968285B6B5A6821685B685A67AF
:101694005968275B6B5A681E685B685A67596823E8
:1016A4005B6B5A681C685B685A675968205B6B5AA5
:1016B400671B685B685A675967FF67235B6B5A68E7
:1016C4001C685B685A675968205B685C685B675A8A
:1016D400681B685B685A675968275B685C685B6766
:1016E4005A6822685B685A6759682E5B685C685B55
:1016F400675A6822685B685A6759682A5B685C683D
:101704005B675A68FF0022685B685A6759682C5BFC
:10171400685C685B675A6825685B685A675967271D
:101724005B685C685B675A6820685B685A675968DD
:10173400235B685C685B675A681E685B685A675914
:1017440068275B685C685B675A6823685B685A67EC
:101754005968205B68FF5C685B675A681B685B6854
:101764005A675968235B685C685B675A6820685BE2
:10177400685A6759682E5B685C685B675A682768B3
:101784005B685A6759682F5B685C685B675A6728AF
:10179400685B685A675968315B685C685B675A685C
:1017A4002A685B68FF005A6759682F5B685C685B4E
:1017B400675A6828685B685A6759682E5B685C6872
:1017C4005B675A6827685B685A6759682A5B685C74
:1017D400685B675A6823685B685A675968205B6866
:1017E4005C685B675A681B685B685A675968275B63
:1017F400685C685B67FF5A6822685B685A67596768
:101804002E5B685C685B675A6822685B685A675934
:10181400682A5B685C685B675A6822685B685A6719
:101824005968205B685C685B6758681B5A685B682A
:101834005A675868275B685C685B675868225A680F
:101844005B685A675868FF002E5B685C68586922B9
:101854005A685B6858692A5B685C685869225A68E8
:101864005B685869205B685C685B675A671B685BE8
:10187400685A675968275B685C685B675A682268BE
:101884005B685A6759682E5B685C685B675A6822B4
:1018940068FF5B685A6759682A5B685C685B675ACB
:1018A4006822685B685A6759682E5B685C685B6786
:1018B4005A6822685B685A6759682A5B685C685B87
:1018C400675A6822685B685A6759682A5B685C686B
:1018D40058695A685B6858685A6AFF0067586859BB
:1018E4006B5868045A9CFF00A6FF8E067EFF6B03AC
:1018F400A1FF890883FF78065994FF00995873FF64
:10190400255C69315B685A68596958715969586A24
:10191400285C68345B695A68596858725968586B0E
:101924002F5C683B5B685A695967FF0067587259B6
:1019340068586B2D5C68395B685A685969587159E5
:1019440069586A2C5C69385B685A685968586EFF34
:101954006A5968586B205C682C5B695A68596858E6
:10196400725968586B255C68315B685A69596858C4
:101974007159695868FF68275C69335B685A68590C
:101984006958715968586B255C68315B695A6859A4
:101994006858725968586B285C68345B685A68FFE9
:1019A40067596858715969586A2F5C693B5B685A72
:1019B40068596958715968586B2D5C68395B695A64
:1019C400685968586CFF6C5968586B2A5C68365BB8
:1019D400685A69596858725968586A275C69335B50
:1019E400685A68596958715969FF586A235C682FA5
:1019F4005B695A68596858725968586B275C683330
:101A04005B685A69596858725968586B235C682F27
:101A14005B68FF005A68596958715969586A275CAC
:101A240069335B685A68596858725968586B2F5CF7
:101A3400683B5B695A685968586AFF006E59685870
:101A44006B2D5C68395B685A6959685871596958D3
:101A54006A2A5C69365B685A68596958715967FF24
:101A640067586B205C682C5B695A685968587259CE
:101A740068586B275C68335B685A695968587159B0
:101A840069586A2C5C69FF00385B685A6859695860
:101A9400715968586B2A5C68365B695A685968588A
:101AA400725968586B285C68345B685A695968587D
:101AB40068FF705968586A275C69335B685A6859CB
:101AC4006958715969586A285C68345B695A68595D
:101AD400685871FF675968586B2C5C68385B685AA2
:101AE40069596858725968586B275C68335B685A3F
:101AF40068596958715969586A255C67FF006831EB
:101B04005B685A68596858725968586B275C68331F
:101B14005B695A68596858725968586B215B6B5AEB
:101B2400681E68FF5B685A67596725685A6859696F
:101B3400215A685B685A6759682F5B6B5A68286832
:101B44005B685A6759682D5B6B5A682559685A68EF
:101B540059692C5B6B5A6821685B685A6759682815
:101B64005B6AFF00675A6823685B685A675968258F
:101B7400685A6859691E5A685B685A675968285BCD
:101B84006B5A6723685B685A675968215B6B5A68AC
:101B94001E685B685A675968285B6B5A6821685BE2
:101BA400685A675967FF672A5B6B5A6823685B68E2
:101BB4005A675968285B6B5A6821685B685A675989
:101BC40068275B6B5A681E685B685A675968235BB1
:101BD4006B5A681B685B685A675967205B6B5A6865
:101BE4001E67FF00675B685A675968235B6B5A6816
:101BF4001B685B685A675968215B6B5A681E685B8F
:101C0400685A675968255B6B5A6821685B685A672C
:101C140059682F5B6B5A6828685B685A6759682D46
:101C24005B68FF00695A6825685B685A6759682CC5
:101C3400685A685968215A685B685A675968285B0A
:101C4400685C685B675A6823685B685A67596825EB
:101C54005B685C685B675A681E5B6B5A68285B68E4
:101C64005C685B675A68235B6AFF675A68215B6834
:101C74005C685B675A681E5B6B5A68285B685C68C3
:101C84005B675A68215B6B5A682A59685A685969B4
:101C9400235B6B5A67285B685C685B675A68215BE7
:101CA4006B5A68275B685C685B675A67FF00671E4E
:101CB4005B6B5A68235B685C685B675A681B5B6B89
:101CC4005A68205B685C685B675A681E5B6B5A687D
:101CD400235B685C685B675A681B5B6B5A68205BB4
:101CE400685C685B675A681B5B6B5A68FF0027591E
:101CF400685A685968225B6B5A682E5B685C685B3B
:101D0400675A68225B685C685B675A682A5B685C30
:101D1400685B675A68225B685C685B675A682C5B1F
:101D2400685C685B675A68255B685C685B675A68CF
:101D34002759685A685969205B68FF005C685B67CB
:101D44005A68235B685C685B675A681E5B685C68FA
:101D54005B675A682759685A685969235B685C68E5
:101D64005B675A67205B685C685B675A681B5B68E3
:101D74005C685B675A68235B685C685B675A6820C9
:101D84005B685C685B675A682E5B685C68FF5B67CE
:101D94005A682759685A6859692F5B685C685B6799
:101DA4005A68285B685C685B675A68315B685C6882
:101DB4005B675A682A5B685C685B675A682F5B6874
:101DC4005C685B675A68285B685C685B675A682E66
:101DD4005B685C685B675A67275B685C685B675A2B
:101DE40067FF672A5B685C685B675A68275B685CA7
:101DF400685B675A68255B685C685B675A681C5B4C
:101E0400685C685B675A68285B685C685B675A68EB
:101E1400255B685C685B675A682F5B685C685B6716
:101E24005A68285B685C685B675A682D5B685C6805
:101E34005B675A68FF00205B685C685B675A6825CB
:101E44005B685C6858691C5B685C685868285B68F8
:101E54005C685B675868255B685C685B6758682FDB
:101E64005B685C685B675868285B685C685B67589C
:101E7400682D5B685C685B675868205B685C685BBE
:101E84006758681E5B68FF005C685B675A681B5B89
:101E9400685C685B675A682759685A685969235BA4
:101EA400685C685B675A682F5B685C685B675A6844
:101EB4002759685A6859692A5B685C685B675A677E
:101EC400235B685C685B675A682F5B685C685B6768
:101ED4005A682759685A68FF59692A5B685C685BC5
:101EE400675A68235B685C685B675A682A5B685C4E
:101EF400685B6758685A685B685A6758685A6B58D1
:101F040068596A58692D5A6A2E6E2F6DFF007C5BE2
:101F1400825C74FF822E5A682D682C6F5B745C6F30
:101F2400FF00A6FF705B672D682E672F7E5C80FF25
:101F34009F5B672E672D682C69FF895C732B682A69
:101F4400682969286FFF7329682A682B682C5B7BD2
:101F54002B5A682A7CFF775B95FFA6FF9129692895
:101F640078FF57E200A6FF009520586D1B6D23698A
:101F7400FF006A206D2E6D276D2F6D286D316D2A3F
:101F84006C2F6D286BFF682E6D2768596858692A75
:101F9400685968586923685968586920596B5868A2
:101FA4001B596B586827596B586822596B58682E0F
:101FB400596B5867FF006722596B58682A596B5848
:101FC4006722596B58682C596B586825596B5868A7
:101FD40027596B586820596B586823596B58681EE9
:101FE400596B5868275967FF6A586823596B5868B2
:101FF4002059685A6859691B685A68596923685A8C
:1020040068596920685A6859682E685A6859692756
:10201400685A6859692F685A68596928685A67FF65
:10202400675969315A6B59682A5A6B59682F5A6B28
:102034005968285A6B59682E5A6B5968275A6B5934
:10204400682A5A6B5968235A6B59682E586AFF00DC
:10205400576831586B57682A586B576821586B5723
:10206400681E586B576825586B576821586B57681A
:102074002F586B576828586B57682D586A5768FF54
:102084006725586A57692C586A576921586A5769ED
:1020940028586A576823586B576825586B57681E29
:1020A400586B576828586B576823586B57682158E2
:1020B40067FF6A57681E586B576828586B57682122
:1020C400586A57692A586A576923586A57692858B9
:1020D4006A576921586A576827586B57681E5869A8
:1020E400FF0068576823586B57681C586B57682063
:1020F400586B57681E586B576823586B57681C58A1
:102104006B576821586A57691E586A576925586A77
:10211400FF00576921586A57692F586A5768285829
:102124006B57682D586B576825586B57682C586B3C
:10213400576821586B576828586B576823586B5752
:1021440067FF6725586B57681E586A576928586A8D
:10215400576923586A576921586A57691E586A573C
:102164006828586B576821586B57682A586B57680A
:10217400235867FF6A576828586B576821586B576C
:102184006827586B57681E586B576823586A5769F5
:102194001C586A576920586A57691B586A5769233B
:1021A4005868FF006857681C586B576820586B576D
:1021B400681B586B576827586B576822586B5768C9
:1021C4002E586B576822586B57682A586B576822E9
:1021D400586AFF0057692C586A576925586A576925
:1021E40027586A576920586A576823586B57681EDE
:1021F400586B576827586B576823586B5768205893
:102204006B5767FF671B586B576823586B576820D9
:10221400586B57682E586A576927586A57692F5858
:102224006A576928586A576931586A57682A586B37
:1022340057682F5867FF6A576828586B57682E5895
:102244006B576827586B57682A586B576823586B25
:10225400576820586B57681B586A576927586A573C
:1022640069225868FF006857692E586A57692258CE
:102274006A57682A586B576822586B57682C586BF2
:10228400576825586B576827586B576820586B5701
:102294006823586AFF006757681E586B57682758A9
:1022A4006A576923586A576920586A57691B586ADC
:1022B400576923586A576820586B57682E586B57CC
:1022C4006827586B5767FF00672F586B5768285863
:1022D4006B576831586B57682A586B57682F586B7F
:1022E400576828586A57692E586A5769255874FFE1
:1022F4006C59895A7DFF725B965A672669FF692774
:102304007D288329682A6DFF762B692C705B89FFF1
:102314008F5A7B59672B67FF682A775A892969285E
:102324006DFF9359682777FF685A735B895A74FF66
:10233400A6FF96266B2571FF705967266D27735A81
:1023440087FFA45968FF8E2D6A2E6E2F72FF775A6D
:10235400825B79FF6F5C742E5A682D682C6F5B74F6
:102364005C74FF00A6FF6B5B672D682E672F7E5C95
:1023740085FF9A5B672E672D682C6EFF845C742B37
:10238400682A6829692873FF6E29682A682B682CD3
:102394005B7B2B5A682A81FF725B9AFFA6FF8B290D
:1023A4006C287BFF68296A2AA0FF875A85FF7F591A
:1023B4008DFF6858821C5F685E695D6F195F685E97
:1023C400685D695868576B1B5F685E685D68FF00ED
:1023D400675868576B1B5F685E685D681C895B683B
:1023E4005972195F67FF675E695D685868576B1BB0
:1023F4005F685E685D695868576B1B5F685E685DFF
:10240400681C85FF6A5B685972195F685E695D685C
:102414005868576B1B5F685E685D795B6858691C18
:102424005F685E68FF005D6F195F695E685D68588C
:1024340069576A1B5F695E685D685868576B1B5F04
:10244400685E695D671C7BFF755B685971195F691C
:102454005E685D685869576A1E5F695E685D6858A2
:1024640069576A1E5F685E681F675D69FF002070B8
:102474005E6B5F675E695F6B5E691F5F6720675BAA
:10248400672167586720681C5F685E685D70586ADA
:10249400576F1F5F69FF5E685D67206E586B576FEB
:1024A4001B5F681D5E695D6D1E81FF00A05C6CFF93
:1024B4006E5B691D671E691F681E691D671E675A6A
:1024C400691F671E691D671E6A1F671E6759681D9D
:1024D400671E6A1F671E691D681E58691F671E6A8A
:1024E4001D671E691F671E68FF0081195F681C5EF7
:1024F400695D7D1B5F681E5E685D6BFFA6FF705C97
:10250400815B691D671E6A1F671E691D671E6A1F3E
:10251400671E691D671E6A1F67FF1E675A681D686C
:102524001E691F671E6A1D671E691F671E6A1D6775
:102534001E691F671E6859681D671E691F681E692A
:102544001D671E6A1F671E691D671E6A1F671E6757
:10255400586EFF007A205F685E695D6F1E5F685E7B
:10256400695D685868576B235F685E685D69586881
:10257400576B1B5F68FF5E685D681C825B69596A04
:10258400205F695E685D6F1E5F685E695D6858689C
:102594005768FF0069235F685E695D685868576B18
:1025A4001B5F685E685D681C895B695969FF6E1909
:1025B4005F685E695D685868576B1B5F685E695D3C
:1025C400785B6858691C5F685E685D70FF00195F1E
:1025D400685E685D685869576A1B5F695E685D6814
:1025E4005869576A1B5F695E685D681C825B68FF97
:1025F400596B195F685E685D701B5F685E685D6932
:102604005868576A1C5F695E685D685869576A1E36
:102614005F695E681F5D6A206FFF675E6A5F675E61
:10262400695F6B5E691F5F68205B6821675867207C
:1026340067195F681C5E685D70586A57701C5F6834
:10264400205E685D6EFF67586B576F1B5F691D5E88
:10265400681E5D92FF00965C745B68FF671D671ED1
:102664006A1F671E691D671E675A691F671E691DF9
:10267400671E6A1F671E6759681D681E691F671EEB
:102684006A1D671E6758681F671E6A1D671E691FDB
:10269400671E72FF77195F681C5E695D7D1B5F684A
:1026A4001E5E685D75FF6E5C6D5B6D5A6D596D1BCA
:1026B4005F681E5E695D7DFF5C6D5B6D5A6D596D73
:1026C4001B5F681E5E685D6F5C6D5B6D1B5E691EE3
:1026D4005D685C6AFF006B5B6D5A6D1B5C681E5B1A
:1026E400695A6F596D586D1B5B681E5A68596F584B
:1026F4006AFF7025597B5A87FF00685B885C82FFFC
:102704007B265B6827802875FF007229682A812B45
:10271400672C725C70FFA6FF685B7B5A672B672A85
:10272400785B7BFF7429692895FF6B5A67277A5B6E
:10273400745C7EFF715B9BFFA6FF6E2668257F5A43
:1027440067266827785B6EFFA6FF7D5A825973FF60
:10275400257B5A895B6EFF00805C8CFF715B67266A
:10276400682781287DFF6829682A812B682C715C81
:102774007AFF9E5B6EFF732B5A692A785B84FF0095
:102784006B2968289B5A672769FF765B745C88FF0E
:10279400675BA5FFA42668FF6725682468237A5A27
:1027A40068246825775B78FFA6FF6E5C9EFF9D59C1
:1027B4006FFF715A895B78FF775C95FF675B6826CA
:1027C40068277E288229682A6BFF7B2B682C715C22
:1027D40084FF945B78FF692B5A682A795B8829699E
:1027E4002869FF0098275A74FF006C5B745C895B4E
:1027F4006FFFA6FF9A266A256EFF755A672669271A
:10280400775B82FF695A825974205E685D685C70E8
:102814001E5E685D685C67FF685868576A235E6976
:102824005D685C685869576A1B5E695D685C681C12
:10283400825B68596BFF205E685D685C701E5E6831
:102844005D685C695868576B235E685D685C6858AE
:1028540069576A1B5E695D685C681C76FF00795B7A
:10286400685972195E685D685C695868576B1B5ECD
:10287400685D685C73FF6C5B6858681C5E695D68C2
:102884005C6F195E685D695C685868576B1B5E68AD
:102894005D695C685868576B1B5E685D685C681CA2
:1028A4006CFF7C5B69596A195E695D685C6F1B5ECD
:1028B400695D685C685868576B1C5E685D695C6834
:1028C400FF005868576B1E5E685D681F675C69206F
:1028D4006C5D6A5E6B5F675E695F6B5E691F5F67F5
:1028E40020675B67216758672067195E691C5D680C
:1028F4005C6F5868FF0069576F1C5E681F5D692034
:102904005C6F586B576F1E5D685C685B705A70FF34
:10291400A6FF985974FF58A6FF0057E200A6FF00CF
:10292400A6FFA212666AFF007D576815668DFF0038
:102934006C576817669EFF009A576914666FFF000C
:102944009C576812666EFF00785768146692FF0001
:1029540082576912667F576814666CFF7A57681746
:10296400667F576924666720671C6719671270FFC2
:102974006C1D6719671567129DFF86246720671C05
:10298400671967166712761D6719671567126EFF58
:1029940075276723671F671C671967157620671CEF
:1029A400671580FFA427672367FF1F671C671967E4
:1029B400177620671C671791FF0093266722671E0E
:1029C400671B671475FF681F671B6714A2FF8226C5
:1029D4006722671E671B6714761F671B67176714D8
:1029E40073FF951277FF70266722671E671B6718AF
:1029F4006714761F671B671485FF9F266722671E6F
:102A0400671B6718671468FF741F671B67146B12D2
:102A140074246720671C671967126F266722671E74
:102A2400671B671867146F26672267FF1E671B679B
:102A34001867146F266722671E671B671867176F6E
:102A4400266722671E671B671867176F246720674E
:102A54001C67196712705770FF006A246667206745
:102A64001C671967126F577424666720671C6719FF
:102A7400671667126F577424666720671C671967A7
:102A84001667FF00126F577424666720671C671966
:102A940067126F577424666720671C671967166787
:102AA400126FFF00577424666720671C6719671646
:102AB40067126F577424666720671C671967126D65
:102AC40057691E666C1268FF6B276723671F671CB4
:102AD400671967156F577427666723671F671C6735
:102AE4001967156F577427666723671F67FF1C678D
:102AF4001570577327666723671F671C6719671567
:102B04006F577427666723671F671C671967176DFC
:102B1400FF0068577427666723671F671C67177071
:102B2400577427666723671F671C67176F576DFF06
:102B340017666B576827666723671F671C671967E3
:102B4400176D576823666D176D266722671E671B0E
:102B5400671867147D2667FF22671E671B67147D4D
:102B6400266722671E671B671867147D266722671E
:102B74001E671B671867146BFF0078266722671EA1
:102B8400671B67147D266722671E671B6718671417
:102B940074FF6F266722671E671B671867146D57DB
:102BA4006814666B576814666A57692966672567EF
:102BB40021671E711273FF00266722671E671B6759
:102BC4001867147D266722671E671B671867147DC4
:102BD400266722671E671B67146AFF007A2667222E
:102BE400671E671B67147D266722671E671B6718AD
:102BF400671472FF71266722671E671B67186712C6
:102C04007D266722671E671B67146F2F672B672754
:102C1400672467216714682C672867246721671E67
:102C240067FF1468266722671E671B671867176F9C
:102C34002967256721671E671B6714682567216755
:102C44001D671A6717671468246720671C6719676C
:102C54001667126F577424666720671C671967121A
:102C640068FF6E577324666720671C6719671667C9
:102C7400126F577424666720671C671967166712FA
:102C84006F5767FF7324666720671C6719671270A4
:102C9400577324666720671C6719671667126F5796
:102CA40070FF6A24666720671C6719671667126FCE
:102CB400576D12666B576824666720671C6719672F
:102CC400126D57691E666D126D276723671F671C97
:102CD40067FF156F577427666723671F671C67199B
:102CE40067156F577427666723671F671C67196723
:102CF400156EFF0067577427666723671F671C6795
:102D0400156F577427666723671F671C6719671752
:102D14006F576EFF6C27666723671F671C67196709
:102D2400176F577427666723671F671C67177057E9
:102D34006C17666B576827666723671F67FF1C67F6
:102D44001967176D576823666D176D266722671E0E
:102D5400671B671867146F577426666722671E67B8
:102D64001B67146DFF0069577326666722671E6729
:102D74001B671867146F577426666722671E671BE4
:102D8400671867146F576CFF6E26666722671E67A5
:102D94001B671470577426666722671E671B6714C7
:102DA4006F5774266667FF0022671E671B671867E4
:102DB400146F576D14666B576826666722671E6723
:102DC4001B671867126F1E6D126D266722671E67D8
:102DD4001B67146BFF006A577426666722671E67B9
:102DE4001B671867146F577426666722671E671B74
:102DF400671867146F576AFF7026666722671E6735
:102E04001B671470577326666722671E671B671853
:102E140067146F5773FF6726666722671E671B6711
:102E24001867146F577426666722671E671B67143A
:102E340069256721671D671A6757692566672167D2
:102E44001D671A67576925666721671D671A6757E3
:102E54006826666722671E671B67186714682567FC
:102E6400FF0021671D671A67176757682566672182
:102E7400671D671A671767576825666721671D67A7
:102E84001A671767576824666720671C67196716EF
:102E940067126F577424666720671C67196712707E
:102EA4005768FF007224666720671C671967126FF2
:102EB400577424666720671C6719671667126F5773
:102EC40071FF6924666720671C6719671667126FAC
:102ED400577424666720671C671967126F57742438
:102EE400666720671C67196716671267FF006E57CD
:102EF4006D12666B576824666720671C671967162E
:102F040067126D57681E666D126D276723671F670A
:102F14001C671570FF00577327666723671F671CBC
:102F2400671967156F577427666723671F671C67E0
:102F34001967156F576FFF006B27666723671F6755
:102F44001C671570577327666723671F671C67190B
:102F540067176F577427666723671F671C67FF002F
:102F64001967176F577427666723671F671C6717EE
:102F740070576D17666A576927666723671F671C52
:102F840067176D5767FF6723666D176D266722679E
:102F94001E671B671867147D266722671E671B67F9
:102FA40018671476FF006D266722671E671B671477
:102FB4007D266722671E671B671867147D266722B4
:102FC40067FF1E671B671867147D266722671E67E5
:102FD4001B67147D266722671E671B671867146CBE
:102FE400FF0067576814666B576814666B57682947
:102FF4006667256721671E671B671E6F1274266745
:1030040022671E671B671475FF006E266722671E02
:10301400671B671867147D266722671E671B67187E
:1030240067147DFF266722671E671B67147E266769
:1030340022671E671B67147D266722671E671B674E
:103044001867126AFF0079266722671E671B6718D4
:1030540067146F2F672B672767246714692C672809
:1030640067246721671469266722671E671B671731
:10307400692B672767236720671D671B67296725F7
:103084006721671E67FF1B671468256721671D6733
:103094001A6717671468266722671E671B67186715
:1030A40015761F671B6715791B6717671570FF0077
:1030B4009F266722671E671B6718671568FF741FC2
:1030C400671B6715791B6717671581FF8E266722B3
:1030D400671E671B67177720671C671767FF771DD5
:1030E40067196715671792FF7D266722671E671B9E
:1030F40067177620671C6718671778FF1D671967BD
:1031040017A4FF006B266722671E671B67186714E6
:10311400761F671B6714791A6716671475FF9A265A
:103124006722671E671B671867146DFF6F1F671B95
:103134006714791A6716671486FF89266722671E43
:10314400671B671867197621671D67196CFF721E64
:10315400671A6716671997FF78266722671E671B29
:1031640067177620671C67186717781D6719671536
:10317400671768FF266722671E671B67186715763F
:103184001F671B67176715781B671767157AFF009A
:1031940095266722671E671B6718671572FF6A1FEB
:1031A400671B6715791B671767158BFF84266722D2
:1031B400671E671B671867177620671C671771FF00
:1031C4006E1D671967179CFF73266722671E671BAE
:1031D40067177720671C6717781D671967156717C6
:1031E4006DFFA2266722671E671B67FF14761F67A1
:1031F4001B67176714781A671667147FFF009026F9
:103204006722671E671B67186714761F67FF1B67B3
:1032140014791A6716671490FF007F266722671EC9
:10322400671B671867197621671D671976FF691E82
:10323400671A671971266722671E671B6718671963
:103244007621671D671979266722671E671B671831
:10325400671967FF6E266722671E671B671777204B
:10326400671C6717781D6719671567176A24672035
:10327400671C671967166717682667FF22671E674A
:103284001B6718671768276723671F671C67196719
:1032940017671667246720671C6719671667146722
:1032A400136720671C6718671567126711682D6715
:1032B4002967256722671F671D671C672A672667BA
:1032C40022671F671C671A671967266722671E67CC
:1032D4001B6718671667156722671E671A671767E3
:1032E400146712671167276723671F671C67156BCD
:1032F400FF006A577427666723671F671C6719678F
:10330400156F577427666723671F671C671967154E
:103314006F576AFF7027666723671F671C671570FE
:10332400576C156669576A27666723671F671C67AA
:103334001967156F5773FF006727666723671F6751
:103344001C671967156F577427666723671F671C07
:10335400671570576D15666A576827666723671F78
:10336400671C6719671569FF6A576815666B5768A4
:1033740015666D276723671F671C671967176F57E3
:103384007427666723671F671C6717705768FF00F9
:103394007227666723671F671C67176F5774276652
:1033A4006723671F671C671967176F576D17666870
:1033B4005768FF006927666723671F671C671967DB
:1033C400176F577427666723671F671C67176F5744
:1033D4007427666723671F671C6719671767FF00F1
:1033E4006C576817666B576817666B57682766676C
:1033F40023671F671C671967176D576817666A5735
:103404006917666A576926666722671E671B671411
:1034140070FF577326666722671E671B6718671459
:103424006F577426666722671E671B671867146FD9
:10343400576FFF006B26666722671E671B67146D54
:103444005769146668576B146668576A266667225C
:10345400671E671B671867146F57742666672267B1
:103464001E671B67FF001867146F57742666672270
:10347400671E671B671470576D14666A5769266662
:103484006722671E671B67146D5767FF6714666BB7
:10349400576814666D2867246720671D671A6719C3
:1034A4006F5774286667246720671D671A67196F4A
:1034B400576DFF006D286667246720671D67196FC5
:1034C4005774286667246720671D671A67196F5742
:1034D400742666672267FF001E671B671867176FED
:1034E400577426666722671E671B67177057732613
:1034F400666722671E671B67186717682F672B6745
:1035040027672467FF0021671F671E672F672B67E4
:1035140027672467216714682C6728672467216755
:103524001E671468266722671E671B67186717687B
:103534002967256721671E671B671967186729674D
:10354400256721671E671B671468256721671D6748
:103554001A671469276723671F671C671570576B01
:10356400FF006E27666723671F671C671967156F5F
:10357400577427666723671F671C671967156F579A
:1035840074FF27666723671F671C671570577427C6
:10359400666723671F671C67156F57742766672361
:1035A400671F671C671967156AFF6B57742766677F
:1035B40023671F671C671967156F576D15666A5770
:1035C4006927666723671F671C67156D576815664B
:1035D4006AFF67576815666D276723671F671C674F
:1035E4001967176F577427666723671F671C671966
:1035F40067176F5772FF6827666723671F671C6723
:103604001770577327666723671F671C6719671747
:103614006F577427666723671F671C6719671768E6
:10362400FF006D577427666723671F671C67177051
:10363400577327666723671F671C671967176F57D8
:1036440068FF7227666723671F671C671967176F10
:10365400577426666722671E671B67147AFF9012E9
:103664007CFF57E200A6FF00A6FF6E587659705AF9
:103674006C5B705A6858685770FF6C596958685782
:10368400845D685C695B685A68596958685B685A04
:103694006959685868FF6B5968586B576D586D576E
:1036A4006C5A695868577659695868576CFF7E5D3B
:1036B400685C685B695A68596858695B685A6859F4
:1036C40069586D5968586A576CFF67586D576D5A39
:1036D400695868577659685869577DFF6D5D685C0D
:1036E400685B695A68596858685B695A68596858C8
:1036F4006D5969586A576D586D576D5A68FF586906
:1037040057765968586857845D695C685B685A697C
:103714005967FF006758685B695A685968586D595A
:1037240068586B576D586D576D5A6858685775FFD0
:10373400685968586857845D685C695B685A685959
:103744006958685B685A695968586DFF5968586BBD
:10375400576D586D576D5A68586857765969586847
:103764005771FF00795D685C695B685A68596858ED
:10377400695B685A685969586D5968586B576C5831
:103784006AFF69576D5A6958685776596858695776
:1037940082FF685D685C685B695A68596858695B50
:1037A400685A685968586D5969586A576D586D5701
:1037B4006D5A6858695768FF6D586D576D59685848
:1037C4006B576D5B685A685969586C5D695C685BD6
:1037D400685A69596858685B68FF685A6759685C31
:1037E400695B675A6759685D685C695B685D695CB9
:1037F400675B675A6759675E695D675B675A685FAD
:10380400695D675C675B675A675F6A5E695D6A5C8E
:103814006B5B6B5A675968FF6A5F695D675C675BDE
:1038240067586A57695C695A6858685A675967588B
:103834006857695C675A67586857695A675967587F
:103844006857695C685A6958685A6759675868576D
:10385400695F695D675C67FF5B675A67586A5769A8
:103864005C685A6858695A675967586857695C6749
:103874005A67586857695A675967586857685C693E
:103884005A6858685A675967586857695F695D6725
:103894005C675B675A67586A5769FF005C685A69D6
:1038A40058685A675967586857695C675A6758680F
:1038B40057695A675967586857695C685A685869FC
:1038C4005A675967586857695F695D675C675B67E2
:1038D4005A67586A57695C685A6858685A675967DA
:1038E400FF00586857695C675A67586857695A6790
:1038F4005967586857695C695A6858685A675967BC
:10390400586857695F695D675C675B675A67586A9F
:1039140057695C685A6958685A675967586857699B
:103924005C675A675867FF006757695A6759675851
:103934006857695C685A6858695A6759675868577C
:10394400685F695D675C675B675A67586A57695C5B
:10395400695A6858685A675967586857695C675A5A
:1039640067586857695A67596758685767FF685CAA
:10397400685A6958685A675967586857695F695D32
:10398400675C675B675A67586A57695C685A685826
:10399400695A675967586857695C675A675868571E
:1039A400685A675967586857695C695A685868FF64
:1039B4005A675967586857695F695D675C675B67F1
:1039C4005A67586A57695C685A6958685A675967E8
:1039D400586857695C675A67586857695C675B67DA
:1039E4005967586757695C675B675A685969586DC6
:1039F4005F67FF00685D675C675B675A675C675B6E
:103A0400675967586757685C675B6759675A6859AD
:103A140068586D5C675A67586857695C675B675993
:103A240067586757695C675B675A695968586D5F7F
:103A3400695D675C675B675A675C675B675967FFCB
:103A4400586757695C675B675967586757695C686B
:103A54005A6859695C675A67586857695C675B6755
:103A64005967586757695C675B675A685968586D46
:103A74005F695D675C675B675A675C675B6759672B
:103A8400586757695C675B6759675A68FF005968EC
:103A9400586D5C675A67586857695C675B67596714
:103AA400586757695C675B675A695968586D5F69FD
:103AB4005D675C675B675A675C675B6759675867F4
:103AC40057695C675B675967586757695C685A68E8
:103AD4005968FF005C675A67586857695C675B6799
:103AE4005967586757695C675B6759675A685968CB
:103AF400586D5F695D675C675B675A675C675B67A6
:103B04005967586757695C675B675A695968586DA4
:103B14005C675A67586857695C67FF005B67596759
:103B2400586757695C675B675A685969586D5F697C
:103B34005D675C675B675C675B6759675867576974
:103B44005C675B675967586757695C695A68596865
:103B54005C675A67586857695C675B675967586759
:103B640057695C675B675A67FF00685968586D5FFF
:103B7400695D675C675B675A675C675B6759675831
:103B84006757695C675B675A685969586D5C675A1F
:103B940067586857695C695B675A6759675E695D0E
:103BA400675B675A685F695D675C67FF5B675A6755
:103BB4005C675A67586857695C695B675A675968F4
:103BC4005E695D675B675A685F695D675C675B67D1
:103BD4005A675F6B5E685D6B5C6A5B6B5A675967BB
:103BE400586857695F695D675C675B67FF005A6780
:103BF400586A57695C685A6858685A6759675868B8
:103C040057695C675A67586857695A6759675868AB
:103C140057695C695A6858685A6759675868576998
:103C24005F695D675C675B675A67586A57695C6779
:103C3400FF00675A6958685A675967586857695C3A
:103C4400675A67586857695A675967586857695C6B
:103C5400685A6858695A675967586857685F695D50
:103C6400675C675B675A67586A57695C695A685842
:103C7400685A6759675867FF6757695C675A675896
:103C84006857695A675967586857695C685A695828
:103C9400685A675967586857695F695D675C675B0D
:103CA400675A67586A57695C685A6858695A675905
:103CB40067586857695C675A675868FF57685A6756
:103CC4005967586857695C695A6858685A675967E8
:103CD400586857695F695D675C675B675A67586ACC
:103CE40057695C685A6958685A67596758685769C8
:103CF4005C675A67586857695A67596758685768BC
:103D0400FF00675C685A6858695A6759675868576A
:103D1400695F695D675C675B675A67586A57685C87
:103D2400695A6858685A675967586857695C675A86
:103D340067586857695A675967586857695C685A79
:103D44006958685A67FF5967586857695F695D67BA
:103D54005C675B675A67586A57695C685A68586950
:103D64005A675967586857695C675A67586857694A
:103D74005A675967586857695C685A6858685A6737
:103D84005967586857695F69FF005D675C675B67DF
:103D94005A67586A57695C695A6858685A67596714
:103DA400586857695C675A67586857695C675B6706
:103DB4005967586757695C675B675A695968586DF2
:103DC4005F695D675C675B675A675C675B675967D8
:103DD4005867FF0057695C675B675A685969586C94
:103DE4005C675A67586857695C675B6759675867C7
:103DF40057695C675B6759675A685968586D5F69AA
:103E04005D675C675B675A675C675B6759675867A0
:103E140057695C675B67596758675768FF00675C59
:103E2400685A6959685C675A67586857695C675B80
:103E3400675967586757695C675B675A6859695877
:103E44006D5F695D675C675B675C675B6759675853
:103E54006757695C675B6759675A685968586D5C4E
:103E640067FF5A67586857695C675B6759675867A3
:103E740057695C675B675A695968586D5F695D6724
:103E84005C675B675A675C675B6759675867576924
:103E94005C675B675967586757695C685A68596912
:103EA4005C675A67586857695C675B67FF005967C6
:103EB400586757685C675B6759675A685968586DF3
:103EC4005F695D675C675B675A675C675B675967D7
:103ED400586757695C675B675A695968586D5C67CE
:103EE4005A67586857695C675B67596758675769C9
:103EF4005C675B675A68FF005969586D5F695D6765
:103F04005C675B675A675C675B67596758675769A3
:103F14005C675B675967586757685C695A68596892
:103F24005C675A67586857695C675B675967586785
:103F340057695C675B6759675A685968586CFF0032
:103F4400675F695D675C675B675A675C675B675956
:103F540067586757695C675B675A695968586D5C4D
:103F6400675A67586857695C695B675A6759685E3E
:103F7400695D675B675A685F695D675C675B675C1F
:103F8400675A67586857695C67FF685B675A67597F
:103F9400685E695D675B675A685F695D675C675BFC
:103FA400675A675F6B5E685D6B5C6A5B6B5A6759E7
:103FB400675A6B5F695D675969586D5C68FF5A6839
:103FC40058695A675967586857695C675A675868E7
:103FD40057685A675967586857695C695A685868D6
:103FE4005A675967586857695F695D675C675B67BB
:103FF4005A67586A57695C685A6958685A675967B2
:104004005868FF0057695C675A67586857695A6768
:104014005967586857695C685A6858695A67596794
:10402400586857695F695D675C675B675A67586A78
:1040340057685C695A6858685A6759675868576975
:104044005C675A6758685768FF00675A675967582A
:104054006857695C685A6958685A67596758685755
:10406400695F695D675C675B675A67586A57695C33
:10407400685A6858695A675967586857695C675A33
:1040840067586857695A67596758685769FF5C6881
:104094005A6858685A675967586857695F695D670D
:1040A4005C675B675A67586A57695C695A685868FD
:1040B4005A675967586857695C675A6758685769F7
:1040C4005A675967586857695C685A6958685A67E3
:1040D4005967FF00586857695F695D675C675B678C
:1040E4005A67586A57695C685A6858695A675967C1
:1040F400586857685C675A67586857695A675967B8
:10410400586857695C695A6858685A6759675868A3
:1041140057695F695D67FF005C675B675A67586A48
:1041240057695C685A6958685A6759675868576983
:104134005C675A67586857695A6759675868576976
:104144005C685A6858695A675967586857695F695B
:104154005D675C675B67586A5768FF00675C695A0C
:104164006858685A675967586857695C675A675846
:104174006857695C675B675967586757695C675B31
:10418400675A695968586D5F695D675C675B675A10
:10419400675C675B675967586757695C675B675A11
:1041A400685969FF586D5C675A67586857695C6756
:1041B4005B675967586757685C675B6759675A68F4
:1041C4005968586D5F695D675C675B675A675C67D0
:1041D4005B675967586757695C675B6759675867D6
:1041E40057695C685A6959685C675A67FF00586880
:1041F40057695C675B675967586757695C675B67B2
:104204005A685969586D5F695D675C675B675A678F
:104214005C675B675967586757695C675B675A688F
:104224005968586D5C675A67586857695C675B677B
:1042340059675867FF0057695C675B6759675A6835
:104244005968586D5F695D675C675B675A675C674F
:104254005B675967586757695C675B675967586755
:1042640057695C685A6859695C675A67586857693E
:104274005C675B675967586757695C675B675A682F
:104284005967FF0068586C5F695D675C675B675AD4
:10429400675C675B675967586757695C675B675911
:1042A400675A685968586D5C675A67586857695CFB
:1042B400675B675967586757695C675B675A6959F1
:1042C40068586DFF5F695D675C675B675A675C6729
:1042D4005B675967586757695C675B6759675867D5
:1042E40057695C685A6859695C675A6758685768BF
:1042F4005C675B675967586757695C675B675967B1
:104304005A685968586D5F695D675C675B675A678F
:104314005C675B67FF005967586757695C675B6751
:104324005A695968586D5E695D675B675A685D696B
:104334005C675B675A6759675C675A67586857696F
:104344005A675967586857695E695D675B675A6859
:104354005D695C675B675A675D695C67FF005B6703
:104364005A6759675E695D675B675A685F6B5E6829
:104374005D6B5C6A5B6B59685A70596F5872FF00C9
:1043840074596858685777586A576F5D695C685BF9
:10439400685A69596858685B68FF675A6859685869
:1043A4006D5968586B576D586D576D5A68586857F2
:1043B4007759685867FF675776586B576F5D695C24
:1043C400685B685A68596958685B685A69596858DB
:1043D4006D59685869FF68576D586D576D5A68581C
:1043E400685776596958685776FF586B576F5D68F8
:1043F4005C695B685A68596958685B685A685969A6
:10440400586D5968586B576D586C5768FF006B5A54
:104414006958685776596858695776586B576F5D6D
:10442400685C67FF675B695A68596858695B685AD2
:10443400685969586C5969586A576D586D576D5A5F
:10444400685869576DFF6F596858695776586A57A5
:10445400705D685C685B685A69596858685B695A3A
:10446400685968FF586D5969586A576D586D576D8A
:104474005A685869577659685868576AFF007258DD
:104484006B576F5D695C685B685A69596858685B0B
:10449400685A695968586D5968586B5769FF6A5862
:1044A4006D576D5A685868577659695868577658E1
:1044B4006BFF576F5D685C695B685A685969586837
:1044C4005B685A695968586D5968586B576D586DCF
:1044D400576CFF005A695868577659695868577677
:1044E400586B576F5D685C685B695A67FF00675972
:1044F4006858695B685A685969586D5968586A57A9
:104504006D586D576D5A6958685772FF6A596858E3
:10451400695776586A57705D685C685B695A685970
:104524006858685B695A685968586BFF68596958D4
:104534006A576D586D576D5A685869577659685857
:1045440068576FFF6E586A576F5D695C685B685A9D
:1045540069596858685B695A685968586D59685848
:104564006B576D5867FF6C576D5A68586857775981
:104574006858685776586B576BFF6A5D685C695B6F
:10458400685A68596958685B685A695968586D5916
:1045940068586B576D586D576D5A685868FF576F58
:1045A400586B57685969586857685A695968576801
:1045B400596B57685A6858695768596B57685B69EB
:1045C4005A6759685867596A5768FF00675A6859A3
:1045D4006858695A6859685769586A5769596A57CF
:1045E400685A6959685868596B57685A69586857BE
:1045F40068596B5768586B57685967FF675869570C
:10460400685B685A6959685B685A695868596A5797
:10461400695A6A58695D695C675B675A67596B5781
:10462400695C685B6859685C695A6858685969FFCD
:10463400685768596B58685C695B6859685A6B5865
:10464400685A6858695768596B586D5768596A5859
:10465400695C685B6859695C685A68FF5869596A9B
:1046640057695A6A58685E695D675B675A6D58682E
:104674005C695B6859685C695A6858685A6B586D1C
:1046840057685C685B695967FF00675A6B58685ADA
:1046940068586857695B6A58695A6A58695B6A5806
:1046A400695D685B685A685D695B6858685A6B58ED
:1046B400685B6B58685F67FF685D675C675B675A38
:1046C400675D695C675B675A6759675E685D695BCC
:1046D400685E695D675B675A685F695D675C675BB5
:1046E400675A675F695E675C675B675A675E685DA8
:1046F400685B695E685D685B695F6A5E695D68FFE7
:10470400685C6B5B6A5A67596758675A6A5F695D88
:10471400675C675968586D5C685A6958685A675984
:1047240067586857695C675A67586857695A675980
:1047340067586857695C685A68FF58695A675967C7
:10474400586857695F695D675C675B675A67586A51
:1047540057695C685A6858685A675967586857694E
:104764005C675A67586857695A6759675868576940
:104774005C695A6858685A67596758685768FF00EF
:10478400675F695D675C675B675A67586A57695C0E
:10479400685A6958685A675967586857695C675A0C
:1047A40067586857695A675967586857695C685AFF
:1047B4006858695A675967586857685F695D675CE4
:1047C400675B675A675867FF6957695C695A685835
:1047D400685A675967586857695C675A67586857D1
:1047E400695A675967586857695C685A6958685ABA
:1047F400675967586857695F695D675C675B675AA3
:1048040067586A57695C68FF6A5A6858685A6759F2
:1048140067586857695C675A67586857695A67598F
:1048240067586857695C685A6958685A675967587D
:104834006857695F695D675C675B675A67586A5761
:10484400695C685A685869FF5A67596758685769B4
:104854005C675A67586857695A6759675868576850
:104864005C695A6858685A675967586857695F6934
:104874005D675C675B675A67586A57695C685A6921
:1048840058685A675967586857695C675A67FF00E0
:10489400586857695A675967586857695C685A680D
:1048A40058695A675967586857695F695D675C67F3
:1048B4005B675A67586A57695C685A6858685A67E8
:1048C4005967586857695C675A67586857695A67DF
:1048D40059675868FF0057695C695A6858685A678D
:1048E4005967586857695F695D675C675B675A67B2
:1048F400586A57695C685A6958685A6759675868AA
:1049040057695F6A5E695D6A5C6B5B69FF00685A40
:10491400675967586857685F695D675C675B675A82
:1049240067586A57695C695A6858685A675967587A
:104934006857695C675A67586857695A675967586E
:104944006857695C685A6958685A6759675868575C
:1049540069FF5F695D675C675B675A67586A576997
:104964005C685A6858695A675967586857695C6738
:104974005A67586857685A675967586857695C692D
:104984005A6858685A675967586857695F695D6714
:104994005C675B675A675868FF006857695C685AC8
:1049A4006958685A675967586857695C675A6758FD
:1049B4006857695A675967586857695C685A6858EC
:1049C400695A675967586857695F695D675C675BCF
:1049D400675A67586A57685C695A67FF6758685A24
:1049E400675967586857695C675A67586857695ABE
:1049F400675967586857695C685A6958685A6759AB
:104A040067586857695F695D675C675B675A675891
:104A14006A57695C685A6858695A67596758685789
:104A240067FF685C675A67586857695A67596758D7
:104A34006857695C685A6858685A6759675868576C
:104A4400695F695D675C675B675A67586A57695C49
:104A5400695A6858685A675967586857695C675A49
:104A64006758685769FF5A675967586857695C6897
:104A74005A6958685A675967586857695F695D6722
:104A84005C675B675A67586A57695C685A68586913
:104A94005A675967586857685C675A67586857690E
:104AA4005A675967586857695C68FF00675A6858BD
:104AB400685A675967586857695F695D675C675BDF
:104AC400675A67586A57695C685A6958685A6759D7
:104AD4006758685781FFE366E200A6FFA6FF7225C8
:104AE4000000B8EDB0933400B0E0B093610022242C
:104AF400B0E3B0930028B0E8B0930128BFEFB093BF
:104B04000228B0930328B0930428B0E0B0930A2895
:104B1400B0930B28E2EEF0E0E0930828F093092824
:104B2400B0E0EB0FF21DA591B491AA0FBB1FA093A7
:104B34000C28B0930D28B0E020920E2820920F2864
:104B440020921028BFEF20921328B0931428B0931A
:104B5400152820921828B0931928B0931A28B093D6
:104B64001B2820921F28B0932028B093212820923C
:104B74002528B0932628B093272820922A28B0937A
:104B84002B28B0932C2820921128209212282092AE
:104B940016282092172820921C2820921D28209243
:104BA4001E28209222282092232820922428209212
:104BB40028282092292820923728209238282092C9
:104BC400392820923A28BFEFB0B90FE0109100289D
:104BD4001F70909100289073906420920628B093DF
:104BE4000528D0910428C3D4ED2ED0910028DD0FE0
:104BF400DD1FDD1FD370D1D4DD2EF0900128F29497
:104C0400906820922D2820922E2820922F282092DE
:104C14003028209231282092322820923328209262
:104C240034282092352820923628B0E7B093010A20
:104C3400B1E7B0930A0AB5E1B093280AB5E0B0939E
:104C4400290ABBE2B0932A0ABAE0B0932B0AB1E472
:104C5400B0932C0ABFE0B0932D0AB7E5B093260AAF
:104C6400B4E1B093270ABBE0B093000AB0E0B0937C
:104C7400810AB1E0B093850AB0910228B0938C0AFE
:104C8400B0910328B0938D0AB3E0B093800A78946E
:104C9400D0FE12C0E21481F0C0918C0AD0918D0A2A
:104CA400D13008F002C0C93538F0D93538F009F0F0
:104CB40003C0C53608F402C021B8EACFD091062853
:104CC400D1B9E6CFBFB7BF93F89439D4B0E5B09368
:104CD4000B0ABF91BFBF1895BFB7BF93F8942FD4E9
:104CE400F3FC03D495FD02C0E210EA94B1E2B09360
:104CF4000B0ABF91BFBF1895BFB7BF93F894CF936A
:104D0400DF93B0910E28B21102C2E0910C28F09109
:104D14000D28A0910F28B0911028EA0FFB1FB49121
:104D2400B73508F4CAC0B73608F4E3C0B33E08F494
:104D3400EAC009F4EDC0B43E09F494C1BF3F09F4DC
:104D4400B6C13196A491D9D1B55EEEEAF5E5BB0FB3
:104D5400EB0FF21DC591D491EC2FFD2F0994D5CF03
:104D6400D4CFD3CFD2CFD1CFD0CFA0932E28CDCFF5
:104D7400CCCFCBCFCACFC9CFC8CFC7CFC6CFC5CF73
:104D8400C4CFC3CFA0932D28C0CFE0911628F091B3
:104D94001728309609F0B9CFE0911D28F0911E280C
:104DA400309609F0B2CFE0912328F0912428309670
:104DB40009F0ABCFBA2FBF70C0910728BC0FB7352D
:104DC40008F0B6E5E4E3F0E0BB0FEB0FF21DC5918C
:104DD400D491C0932F28D0933028A295AF70AA0FF6
:104DE400A3956F937F936A2F72EB679F7F916F9167
:104DF400169407941694079416940794169407949B
:104E0400009231281092322880CFE0911628F09138
:104E14001728309609F079CFE0911D28F0911E28CB
:104E2400309609F072CFE0912328F091242830962F
:104E340009F06BCFBA2FBF70C0910728CB1B08F0C5
:104E4400C0E0E4E3F0E0CC0FEC0FF21DC591D49187
:104E5400C0933328D0933428A295AF70AA0FA3959A
:104E64006F937F936A2F72EB679F7F916F91169474
:104E74000794169407941694079416940794009232
:104E840035281092362841CF40CFF5E5EAEAEA0FFB
:104E9400F21DA695A795A795B0910028CB2FB07CBD
:104EA400AB1301C032CFD490CF73CB2BC093002867
:104EB4002CCF2BCF2ACF29CF28CFB0930728A3E01C
:104EC400B2E0B0931328A0931828B0931F28B0938E
:104ED4002528B0932A2820921C2820922228209248
:104EE4002F28209230282092332820923428FBD077
:104EF4000CCFB755A0910028A07FAB2BA09300281E
:104F04009660F1D002CFB756B0930E28ECD002C110
:104F140020921128209212282092162820921728D5
:104F240020921D2820921E28209223282092242893
:104F3400209228282092292820921C282092222876
:104F44003196B491E1E7F5E2EB0FF21DEE0FFF1F8E
:104F5400A591B491AA0FBB1FEA2FFB2FB4913296EF
:104F6400A6E0AA9519F0B69578F0FBCFA3E0B2E0DD
:104F7400B0931328A0931828B0931F28B093252822
:104F8400B0932A28BAD0C1CEC591D591A53039F0B5
:104F9400A43079F0A330D9F0A23059F13CC0C093C9
:104FA4001128D093122841D0C0931528D0931428E7
:104FB400D8CFC0931628D093172820922F28209258
:104FC400302820923328209234283AD0CACFC09374
:104FD4001D28D0931E2820922F282092302820921A
:104FE40033282092342821D0C0932128D09320281C
:104FF400B8CFC0932328D093242820922F2820921E
:10500400302820923328209234280FD0C0932728A8
:10501400D0932628A6CFC0932828D093292805D03A
:10502400C0932C28D0932B289CCFEF93FF93EC2F85
:10503400FD2FEE0FFF1FC591D491FF91EF910895BD
:10504400EF93FF93EC2FFD2FEE0FFF1FC591D5912A
:10505400C0931A28D0931928C491C0931B28FF9198
:10506400EF910895B0911528BF3F19F0B395B0930F
:105074001328B0911A28BF3F19F0B395B09318289C
:10508400B0912128BF3F19F0B395B0931F28B09178
:105094002728BF3F19F0B395B0932528B0912C2849
:1050A400BF3F19F0B395B0932A281DD02ECEE091BE
:1050B4000828F0910928A0910A28B0910B281A9683
:1050C400A0930A28B0930B28EA0FFB1FA591B49173
:1050D400AA0FBB1FA0930C28B0930D2820920F2871
:1050E4002092102812CEE0910F28F09110283196CA
:1050F400E0930F28F09310280895E0910F28F09181
:1051040010283296E0930F28F09310280895BA954A
:10511400B0930E28E0911128F0911228309681F175
:10512400EE0FFF1FA0911328EA0FF21DB09115286E
:10513400BA1729F4A0911428AB1710F003C0A39553
:10514400A0931328B491BF3F69F4B0911528BF3FD1
:1051540029F4B0911428B0931328DCCFA250A09363
:105164001328D8CFE2EEF5E5B295EB0FF21DB0911E
:105174000028BF70EB0FF21DB491B093062805C050
:10518400B0910028BF70B0930628E0911628F091E2
:1051940017283096F9F1EE0FFF1FA0911828EA0F97
:1051A400F21DB0911A28BA1729F4A0911928AB1747
:1051B40010F003C0A395A0931828B491B038F9F463
:1051C400A150A0931828B0911B28B13048F0B09199
:1051D4001A28BF3FF9F4B0911928BF3F69F41AC0E7
:1051E400B0911A28BF3F21F4B0911928BF3F21F490
:1051F400A150A0931828C9CFB0931828C6CF2092E5
:105204001C2820922228A0911B28A03031F0A13024
:1052140081F011C0A09107281FC0A0910728AB0FEF
:10522400B7FD04C0A735C0F0A6E516C0A7FDA0E0F1
:1052340013C0AB2F11C0A0910728AB0FB7FD08C056
:10524400A0930728A73540F0A6E5A093072804C03B
:10525400A7FDA0E0A0930728E4E3F0E0AA0FEA0F7B
:10526400F21DA591B491A0938C0AB0938D0A00C04D
:10527400E0911D28F0911E28309609F423C0EE0F0A
:10528400FF1FA0911F28EA0FF21DB0912128BA1721
:1052940029F4A0912028AB1710F003C0A395A09384
:1052A4001F28B491B03889F4A150A0931F28B0915D
:1052B4002128BF3F39F4B0912028BF3F19F0B093A3
:1052C4001F28D6CFB0911C2805C0A0911C28BA0F66
:1052D400B0931C28A0912D28BA0F6F937F936B2F46
:1052E40072EB67037F916F91169407941694079459
:1052F400169407941694079413FE02C0B0EF1B2A69
:10530400A0918C0AB0918D0AA00DB11DA0938C0AB6
:10531400B0938D0AE0912328F0912428309609F463
:105324003CC0EE0FFF1FA0912528EA0FF21DB0919B
:105334002728BA1729F4A0912628AB1710F003C028
:10534400A395A0932528B491B03889F4A150A093D3
:105354002528B0912728BF3F39F4B0912628BF3FB4
:1053640019F0B0932528D6CFB091222805C0A0917A
:105374002228BA0FB09322286F937F936B2F72EB7E
:1053840067037F916F91A0918C0AB0918D0AA00D53
:10539400B11DA0938C0AB0938D0AE0912828F09156
:1053A40029283096B1F1EE0FFF1FA0912A28EA0FA9
:1053B400F21DB0912C28BA1729F4A0912B28AB1711
:1053C40010F027C0A395A0932A28B491BF3F71F48D
:1053D400A150A0932A28B0912C28BF3FD1F4B091BA
:1053E4002B28BF3FB1F0B0932A28D7CFF5E5EAEADE
:1053F400EB0FF21DB695B795B795A0910028CA2F6B
:10540400A07CBA1301C005C0D490CF73CB2BC0933A
:105414000028B0912E28B215E9F0A0910528C0917A
:105424000028DA2FEC2FE295D07FE07FED1709F00A
:10543400AE2FB7FD04C0AB0F28F4A0EF03C0AB0F31
:1054440008F0A0E0A0930528A07FA295C07FCA2BF6
:10545400C0930028E0912F28F09130283096C9F0AD
:10546400A0913128B0913228C0918C0AD0918D0A34
:10547400CA1BDB0BCE17DF0710F009F030F4CE2F78
:10548400DF2F20922F2820923028C0938C0AD093AB
:105494008D0AE0913328F09134283096C1F0A09120
:1054A4003528B0913628C0918C0AD0918D0ACA0F44
:1054B400DB1FCE17DF0708F430F0CE2FDF2F20924A
:1054C400332820923428C0938C0AD0938D0ADF911C
:1054D400CF9105CCBFB7BF93F894DD0CD21CB1E0DB
:1054E400B093860ABF91BFBF1895BF2DB770F9F46A
:1054F400DF93DF2DD295D77009F4DF9119C0A09105
:105504008C0AB0918D0AB695A795DA95E1F7F7FE66
:1055140002C0A095B095D0918C0AAD0FD0918D0AA0
:10552400BD1FA0938C0AB0938D0ADF9101C0FA9439
:1055340097FF0895F0900128F2949F77089596FDBF
:1055440010C0003011F00A950895009100280F70E2
:1055540095FF02C01FE00895103009F408951A95CC
:1055640008959F7B009100280F701FE00895F5E5D2
:10557400EEE7ED0FF21DD4910895057F0A011402A0
:10558400280350041E0507060D0706080C09180A0F
:10559400300B600C240D080E100FF5E5EAEAED0F50
:1055A400F21DD491089501030FFCB126B226B3264F
:1055B400B426B526B626B726BA26BB26BC26BD26F3
:1055C400BE26BF26C026C126C226C326C426C72699
:1055D4000727462747275B275C275D275E270000B0
:1055E40000000000000000000000000000000001B6
:1055F4000101010101010101010101010101000198
:105604000101010101010101010101010102000186
:105614000101010101010101020202020203000170
:10562400010101010101020202020303030400015A
:105634000101010102020203030304040405000141
:10564400010101020202030304040405050600012A
:105654000101010202030304040505060607000113
:1056640001010202030304040505060607080001FC
:1056740001010203030404050606070708090001E3
:10568400010202030404050606070808090A0001CA
:105694000102020304050506070808090A0B0001B4
:1056A40001020304040506070808090A0B0C00019B
:1056B400010203040506060708090A0B0C0D000184
:1056C4000102030405060708090A0B0C0D0E00016C
:0E56D40002030405060708090A0B0C0D0E0F51
:00000001FF
