:020000020000FC
:040000000C94FD114E
:04001C000C94A31588
:100024000C94D0140C94DB140C94D0140C94F2148F
:040034000C943F15D4
:100064000C948C15C758CC53184FA74A7746824234
:10007400C73E413BED37CA34D331072F642CE62900
:100084008C2754253B234121631FA01DF71B651AB0
:10009400EA1884173216F314C613AA129E11A1107B
:1000A400B20FD00EFB0D320D750CC20B190B790A71
:1000B400E3095509CF085008D9076807FE069906D1
:1000C4003A06E1058C053D05F104AA0467042804F9
:1000D400EC03B4037F034D031D03F002C6029E022A
:1000E4007902550234021402F601DA01BF01A601B5
:1000F4008F01780163014F013C012B011A010A01B0
:10010400FB00ED00E000D300C700BC00B200A80073
:100114009E0000000000000000000000000000003D
:1001240000000000000001010101020202020202BB
:100134000202000000010102020303030404040498
:100144000404000001020203030404050506060674
:100154000606000001020304050506060707080851
:1001640008080001020304060708090A0A0B0C0C1C
:100174000C0C0001030507080A0C0D0E0F101112D8
:10018400121200020406080A0C0E1011131415169C
:100194001616000205070A0C0F1113141617181966
:1001A4001A1A000306090C0F121417191B1D1E1F1F
:1001B40020200004080C1014171B1E2123252729B6
:1001C4002A2A00050B11161B2025292D3134363817
:1001D400393A00081019212930373D43484C50530F
:1001E4005556000C1824303B465059626970757995
:1001F4007C7E00122537495A6A7987939EA8B0B647
:10020400BBBE0018314A61788DA1B4C5D4E0EBF4CB
:10021400FAFD000306090B0E111316181B1D1F22ED
:100224002426282A2C2E3032343638393B3D3E40A1
:1002340042004C01C1016A06E8082F0DAC0FE90128
:100244009406EE082F0DAC0F1002AF06E8082F0D30
:10025400AC0F2902DC06F3082F0DAC0F4002050792
:100264003209330DA50F48026A063809370DA20F6B
:100274007E0294067909680DA20FB202AF06BD0989
:10028400940DA20FE602DC06FF09C20DA20F1903AA
:100294006A063809370DA20F400394067909680DE0
:1002A400A20F5B03AF06BD09940DA20F87030907D4
:1002B400410AED0DA20FB4033607F908150EA20F7B
:1002C400C6034707000B3D0EA20FD1035307F60CDC
:1002D4003D0EA20FEB036B07C50A3D0EA20FF803F8
:1002E4003607840A5C0EA20F23044707390B8F0ECE
:1002F400A20F49047907790B8F0EA20F65049507A5
:10030400B90BBD0EA20F7F049E07F60BE80EA20FD9
:10031400AB04CA07370C1D0FA20F7F04FB07770C31
:10032400520FA20FD5042608BA0C800FA20FFD04A9
:100334004D083809370DA20F320577087909680D81
:10034400A20F66059208BD09940DA20F9A05BF0875
:10035400FF09C20DA20FC8054D083809370DA20FB9
:10036400EF0577087909680DA20F13069208BD09F5
:10037400940DA20F3F06BF08FF09C20DA20FF003A0
:100384002163E301FA00EB00F6016CE3066A5A68A4
:100394002D63E301685A682B636BF1025A672F637C
:1003A400F7016BF1025A672F63685A682B6369F18E
:1003B400025A672863685A682B6369F102E3096982
:1003C4002B63E301F7126CE306705A68FF002163A4
:1003D400E301FA006CE3066A5A682D63E301685A84
:1003E400682C636AE30967F1025A672D63E3016BC2
:1003F400F1025A672F63685A6828636CE306701C1D
:1004040064E32AFA02F60068F1022468F104236A1C
:100414001A68F1022368F104216AFF0015681D6857
:100424001868156A15681D6818681A6C266A2668A3
:100434002B682868286A2168266A1F6C1A681C6859
:1004440023681F681A68216818682468FF002168F7
:100454002D681D681A681D681A6829682B681F684A
:100464002B6823681F681A681F68266A28682B6827
:100474002D6828682B6A2B682D78FF002161E32BF7
:10048400E703FA02EBFC6DEE009FFF002165E32A0F
:10049400FA01EBFCE700F600682465682965682129
:1004A40065682465682965682D65681765681F6532
:1004B400682365682B65681F656823656826656819
:1004C4002B65682365682865682D6568306568282C
:1004D40065682D65683065682865682D65683065D0
:1004E400682865682D65683065682465682D6568C9
:1004F4003065682D6568FF002165FA01F003E700A7
:1005040068246568296568216568246568296568C3
:100514002D65682465682065682365682D656820F5
:1005240065682365682665682D65682365682865A0
:10053400682D65683065682865682D65683065686C
:100544002865682D65683065682865682D6568309C
:1005540065682465682D65683065682D6568FF00E9
:100564002165FA01F003E7006824656829656821BC
:1005740065682465682965682D6568246568206553
:10058400682365682C656820656823656826656846
:100594002C65682365682865682D6568306568285A
:1005A40065682D65683065682865682D65683065FF
:1005B400682865682D65683065682465682D6568F8
:1005C4003065682D6568FF00186568185C681D65EE
:1005D400681D5C681865681D656829656824656818
:1005E4002365682B65682665682365682B65682321
:1005F40065682665682365682865682B65682D65C8
:10060400682865682B65F601682B5C682865682D89
:1006140065683065F600682F65682B65682665682F
:10062400246568286568246568236568FF001D657E
:10063400E301FA00EB006CE3066A5C682465E301FD
:10064400685C6823656BF1025C6726656BF1025C8C
:10065400672B65685C68286569F1025C67216568D9
:100664005C68246569F1025C67216567F1035C6776
:100674002765F7116CE306705C68FF001D65E301F4
:10068400FA006CE3066A5C682465E301685C682828
:10069400656AE30967F1025C672865E3016BF102AF
:1006A4005C672C65685C6824656CE30678EBFE6E19
:1006B400FF001D65E301FA00EB006CE3066A5C6869
:1006C4002465E301685C6823656BF1025C6724655B
:1006D4006BF1025C672665685C68286569F1025CF9
:1006E400672165685C682B6569F1025C6721656850
:1006F4005C682D656AE30969F1025C672F65E301B3
:100704006AE30969F1025C67FF003065E30169F19E
:10071400025C672965685C68E3066A2B65E3016728
:10072400F1025C672D6567F1025C672B656BF10272
:100734005C6723656BF1025C672465685C68266509
:10074400685C681F6569F1025C6723656BF1025C94
:10075400672365F7116CE3066A576B235CE30AFAB7
:100764000169FF0067586A245C6EE30672586A28C0
:100774005CE30A6A586A235C6EE3066A586A285C7A
:10078400E30A6EE30669FF0067586A205CE30AF730
:10079400116EE3067E587E215CE30A69FF0067233D
:1007A4005C685868235CF7116E58E3066A1D5CE3C5
:1007B4000A6A586A235C6A246A236EE3066A586AE2
:1007C400265CE30A6E58E3066A275CE30AF71169BC
:1007D400FF0067586A245C6EE3067E5876215CE36A
:1007E4000A6A58E3066A235CE30A69FF2D61E32F72
:1007F400FA01EBF66A1C61E328EB006821682468BF
:1008040028682D68306828682D6830682F6830683B
:1008140028682B682D682B61E32FFA01EBF66A1C1C
:1008240061E328EB00681F68236828682B682F6839
:1008340028682F682868376832682F682B6826680C
:10084400FF002661E32FFA01EBF66A1A61E328EB55
:1008540000681E6823682668236826682A682D684D
:100864002F6832682F6832682A68236823682668EC
:1008740024682168266823681E681A68186817683F
:1008840018681A681E68236824682368FF002062B9
:10089400E30AF7116E59E3066A1862E30A6A596AB1
:1008A4001F626A216A1F6EE3066A596A1F62E30ABD
:1008B4006859682162685968236268266823681F3A
:1008C4006821681C68FF6CE306801366E303FA0082
:1008D40069F1025D671066685D68136669E9A3687B
:1008E400F1025D671366F722E9006E5D682F65FA11
:1008F40002F6016DF1025C67FF001D60E30CE57C0C
:10090400F600FA036A2466E59C6A1D60E57C6A24A5
:1009140066E59C6A1F60E57C6A2366E58C6A1F6055
:10092400E57C6A2366E5FC6A2160E57C6A2466E569
:100934009C6A2160E57C6A2466E59C6A2160E57C0A
:100944006A2466E59C6A2160E57C6A2466E59C6A03
:10095400FF001D60E57CF6006A2466E59C6A1D6064
:10096400E57C6A2466E59C6A2060E58C6A2366E57A
:100974009C6A2060E58C6A2366E59C6A2160E57CBC
:100984006A2466E59C6A2160E57C6A2666E57C6AE1
:100994002160E57C6A2866E59C6A2160E57C6A2D15
:1009A40066E57C6AFF001D60E57CF600FA036A24B4
:1009B40066E59C6A1D60E57C6A2466E59C6A1F60A6
:1009C400E57C6A2366E58C6A1F60E57C6A2366E53C
:1009D4008C6A3061E303E500F60169F10259672D81
:1009E400616A596A2B6167F10259672B61F7126ECC
:1009F400E3066E5968FF2165E328FA02EBFAF60074
:100A040068246568296568216568246568296568BE
:100A14002D65681765681F65682365682B65681F01
:100A240065682365682665682B656823656828659D
:100A3400682D65683065682865682D656830656867
:100A44002865682D65683065682865682D65683097
:100A540065682465682D65683065682D6568FF00E4
:100A64002165FA02F003E7006824656829656821B6
:100A740065682465682965682D656824656820654E
:100A8400682365682D656820656823656826656840
:100A94002D65682365682865682D65683065682854
:100AA40065682D65683065682865682D65683065FA
:100AB400682865682D65683065682465682D6568F3
:100AC4003065682D6568FF002165FA02F003E700D0
:100AD40068246568296568216568246568296568EE
:100AE4002D65682465682065682365682C65682021
:100AF40065682365682665682C65682365682865CC
:100B0400682D65683065682865682D656830656896
:100B14002865682D65683065682865682D656830C6
:100B240065682465682D65683065682D6568FF0013
:100B340018656A1D656A1865681D656829656824F5
:100B440065682365682B65682665682365682B6579
:100B5400682365682665682365682865682B656869
:100B64002D65682865682B65F6016A2865682D651A
:100B7400683065F600682F65682B6568266568240B
:100B84006568286568246568236568FF1D66E30158
:100B9400FA02EB006CE3066A5C682465E301685CB6
:100BA4006823656BF1025C6726656BF1025C672B59
:100BB40065685C68286569F1025C672165685C6842
:100BC400246569F1025C67216567F1035C67276549
:100BD400F7116CE306705C68FF001D65E301FA021F
:100BE4006CE3066A5C682465E301685C6828656AEE
:100BF400E30967F1025C672865E3016BF1025C6756
:100C04002C65685C6824616CE3066823E3016CE38B
:100C1400066821E3016CE306681FE3016CE30668E0
:100C2400FF001D65E301FA02EB006CE3066A5C68F1
:100C34002465E301685C6823656BF1025C672465E5
:100C44006BF1025C672665685C68286569F1025C83
:100C5400672165685C682B6569F1025C67216568DA
:100C64005C682D656AE30969F1025C672F65E3013D
:100C74006AE30969F1025C67FF003065E30169F129
:100C8400025C672965685C68E3066A2B65E30167B3
:100C9400F1025C672D6567F1025C672B656BF102FD
:100CA4005C6723656BF1025C672465685C68266594
:100CB400685C681F6569F1025C6723656BF1025C1F
:100CC400672365F7116CE306705E67EC0567FF0048
:100CD4002165E301FA00EB00F003E7006CE3066A28
:100CE4005C682D65E301685C682B656BF1025C67E9
:100CF4002F65F7016BF1025C672F65685C682B65F3
:100D040069F1025C672865685C682B6569F102E338
:100D14000968F1025C672B65E301F7126CE3067066
:100D24005C68FF002165E301FA006CE3066A5C6815
:100D34002D65E301685C682C656AE30967F1025C70
:100D4400672D65E3016BF1025C672F65685C6828B9
:100D5400656CE30678EBFE6EFF002165E301FA00A3
:100D6400EB006CE3066A5C682D65E301685C682C43
:100D7400656BF1025C672C65F7116BF1025C672F00
:100D840065685C68306569F1025C671C65685C686D
:100D94002F6569F1025C671C65685C6830656AE30D
:100DA4000969F1025C673265E3016AE30969F102EA
:100DB4005C67FF003465E30169F1025C672D6568D7
:100DC4005C68E3066A2F65E30167F1025C673065DE
:100DD40067F1025C672F656BF1025C672B656BF151
:100DE400025C672865685C682B65685C68286569CF
:100DF400F1025C672B656BF1025C672C65F7016C93
:100E0400E306705E68FFE300EBFCE703A6FF3465CE
:100E1400E30169F1025C672D65685C68E3066A2F8B
:100E240065E30167F1025C67306567F1025C672F77
:100E3400656BF1025C672B656BF1025C6728656882
:100E44005C682B65685C68286569F1025C672B65E2
:100E54006BF1025C672C65F7016CE3066A2365E3BA
:100E64000AFA016A5C6AFF0024656EE306725C6A32
:100E74002865E30A6A5C6A23656EE3066A5C6A288D
:100E840065E30A6EE3066A5C6AFF2065E30AF7110C
:100E94006EE3067E5C7E2165E30A6A2365685C680E
:100EA400FF002365F7116E5CE3066A1D65E30A6AB9
:100EB4005C6A23656A246A236EE3066A5C6A2665B3
:100EC400E30A6E5CE3066A2765E30AF7116A5C6A63
:100ED400FF0024656EE3067E5C762165E30A6A5CA6
:100EE400E3066A2365E30A6A5CE3066AFF00236596
:100EF400E30AF7116E5CE3066A1D65E30A6A5C6A3D
:100F040023656A246A236EE3066A5C6A2365E30A3E
:100F1400685C682465685C682665682B68266823B5
:100F24006824682168FF6CE306805C7E2F65E30318
:100F3400FA026DF1025C67FF30656AE30969F10248
:100F44005C672865E30369F1025C673065685C6887
:100F54002F6569F1025C672D65685C682B6569F132
:100F6400025C672965685C68286569F1025C672B27
:100F740065685C68266569F1025C672865685C6879
:100F840024656AE3096C5C682465E303685C68FFB4
:100F9400266569F1025C672865685C682B6569F100
:100FA400025C672865685C68266569F1025C6728ED
:100FB40065685C682865F84269F1025C67246568C5
:100FC4005C68216569F1025C672465685C681F657B
:100FD400691F60EBF6672161671F62672163671F02
:100FE40064672165EB006AE3096A5C6A3065E303C0
:100FF4006AFF6AE30969F1025C672865E30369F142
:10100400025C673065685C682F6569F1025C672D76
:1010140065685C682B6569F1025C672965685C68D2
:10102400286569F1025C672B65685C68266569F16F
:10103400025C672865685C6824656AE3096C5C681F
:101044002465E303685C68FF266569F1025C672830
:1010540065685C682B6569F1025C672865685C6893
:10106400266569F1025C672865685C682B6569F12F
:10107400025C672D65685C68306569F1025C672D08
:10108400656A5C6A2B6567F1025C672B65F7126E13
:10109400E3066E5C68FF2165E301FA03EB00F003ED
:1010A400E7006CE3066A5C682D65E301685C682B05
:1010B400656BF1025C672F65F7016BF1025C672FCA
:1010C40065685C682B6569F1025C672865685C6823
:1010D4002B6569F102E30968F1025C672B65E301A2
:1010E400F7126CE306705C68FF002165E301FA0304
:1010F4006CE3066A5C682D65E301685C682C656ACC
:10110400E30967F1025C672D65E3016BF1025C673B
:101114002F65685C6828656CE30678EBFE6EFF005B
:101124002165E301FA01EB006CE3066A5C682D6556
:10113400E301685C682C656BF1025C672C65F71150
:101144006BF1025C672F65685C68306569F1025C6D
:10115400671C65685C682F6569F1025C671C6568DB
:101164005C6830656AE30969F1025C673265E30132
:101174006AE30969F1025C67FF003465E30169F120
:10118400025C672D65685C68E3066A2F65E30167A6
:10119400F1025C67306567F1025C672F656BF102F1
:1011A4005C672B656BF1025C672865685C682B657E
:1011B400685C68286569F1025C672B656BF1025C09
:1011C400672C65F7016CE306705E68FF1166E30146
:1011D400760B76157E136EFF1176147618761576D7
:1011E400FF00117613761576096DEE006FFF15E397
:1011F4000069F10257671C6669F102576715666951
:10120400F10257671C6669F1025767156669F102B6
:1012140057671C6669F1025767156669F1025767DB
:101224001C6669F1025767136669F10257671C6609
:1012340069F1025767136669F10257671C6669F121
:10124400025767136669F10257671C6669F1025712
:1012540067136669F10257671C6669F1025767FFF5
:101264002166E301E7106DEE009FFF0011E70069BE
:10127400F10257671D6669F1025767116667F1024B
:101284005767156667F10257671D6669F10257676C
:10129400136669F10257671F6669F102576713669F
:1012A40069F10257671F6669F10257671066E70024
:1012B40069F10257671C6669F1025767106667F1A6
:1012C400025767136667F10257671C6669F1025794
:1012D40067156669F1025767216669F1025767135A
:1012E4006669F10257671F6669F1025767FF116665
:1012F400E70069F10257671D6669F10257671166D5
:1013040067F1025767156667F10257671D6669F151
:10131400025767146669F1025767206669F102573C
:1013240067146669F1025767206669F1025767100E
:1013340066E70069F10257671C6669F10257671096
:101344006667F10257E30A672466E30167F102570F
:1013540067286669F1025767216669F10257671ABF
:101364006669F10257671F6669F102576717666974
:10137400F1025767FF001166E70069F10257671D24
:101384006669F1025767116667F102576715666768
:10139400F10257671D6669F1025767146669F10225
:1013A4005767206669F1025767146669F102576747
:1013B400206669F10257671066E70069F102576712
:1013C4001C6669F1025767106667F1025767136676
:1013D40067F10257671C6669F1025767156669F180
:1013E400025767216669F1025767136669F102576C
:1013F400671F6669F1025767FF001166E70069F12C
:101404000257671D6669F1025767116667F1025753
:1014140067156667F10257671D6669F1025767131E
:101424006669F10257671F6669F1025767136669B7
:10143400F10257671F6669F10257671566E700698D
:10144400F1025767216669F1025767156667F10271
:101454005767216667F1025767156669F102576796
:10146400156669F1025767216669F10257671C66C0
:1014740069F1025767286669F1025767FF00116630
:10148400E70069F10257671D6669F1025767116643
:1014940067F1025767156667F10257671D6669F1C0
:1014A400025767136669F10257671F6669F10257AD
:1014B40067136669F10257671F6669F1025767157A
:1014C40066E70069F1025767216669F102576715FB
:1014D4006667F1025767216667F102576715666907
:1014E400F1025767156669F1025767216669F102CF
:1014F40057672E66E32369F10257672B6669F10289
:101504005767FF001566E30069F10257671C6669B7
:10151400F1025767156667F1025767186667F102AB
:1015240057671C6669F1025767156669F1025767C8
:101534001C6669F1025767156669F10257671C66F4
:1015440069F1025767136669F10257671C6669F10E
:10155400025767136667F1025767176667F1025708
:10156400671C6669F1025767136669F10257671CC5
:101574006669F1025767136669F10257671C666969
:10158400F1025767FF00156669F10257671C666927
:10159400F1025767106669F10257671C6669F10228
:1015A4005767156669F10257671C6669F102576748
:1015B400156669F10257671C6669F102576715667B
:1015C40069F10257671C6669F1025767106669F191
:1015D4000257671C6669F1025767106669F1025782
:1015E40067106669F10257673366E32369F10257AE
:1015F400671066E30069F1025767FF000E6669F140
:10160400025767156669F10257670E6669F102575A
:1016140067156669F10257670E6669F10257671527
:101624006669F10257670E6669F1025767156669C4
:10163400F10257670E6669F1025767156669F10290
:1016440057670E6669F1025767156669F1025767B5
:101654000E6669F1025767156669F10257670E66EF
:1016640069F1025767126669F1025767FF001A664B
:1016740069F1025767216669F10257671A6667F1D3
:101684000257671E6667F1025767216669F10257C0
:10169400671A6669F1025767216669F10257671A8A
:1016A4006669F1025767216669F10257671A66692C
:1016B400F1025767216669F10257671A6667F102FA
:1016C40057671E6667F1025767216669F10257671B
:1016D4001A6669F1025767216669F10257671A664B
:1016E40069F10257671E6669F1025767FF001166C8
:1016F40069F1025767186669F1025767116667F165
:10170400025767156667F1025767186669F1025751
:1017140067116669F1025767186669F10257671124
:101724006669F1025767186669F1025767136669BB
:10173400F10257671A6669F1025767136667F10287
:101744005767176667F10257671A6669F1025767A8
:10175400136669F10257671A6669F10257671366DF
:1017640069F10257671A6669F1025767FF00156647
:1017740069F10257671C6669F1025767106667F1E1
:10178400025767156667F10257671C6669F10257CD
:1017940067186669F1025767106669F10257671C9A
:1017A4006669F1025767156669F10257671566693C
:1017B400F10257671C6669F1025767106667F10208
:1017C4005767186667F1025767216669F102576720
:1017D4001F6669F10257671F6669F10257E32567BF
:1017E4002E66E300E7106EFF11E70069F102576708
:1017F400116669F10257673366E32369F10257679B
:101804001166E30069F1025767136669F1025767CD
:10181400136669F10257673366E32369F102576778
:101824001366E30069F1025767156669F1025767A9
:10183400156669F10257673366E32369F102576756
:101844001566E30069F1025767156669F102576787
:10185400156669F10257673366E32369F102576736
:101864001566E30069F1025767FF116669F10257D3
:1018740067116669F10257673366E32369F102571A
:10188400671166E30069F1025767146669F102574C
:1018940067146669F10257673366E32369F10257F7
:1018A400671466E30069F1025767156669F1025728
:1018B40067156669F10257673366E32369F10257D6
:1018C400671566E30069F1025767156669F1025707
:1018D40067156669F10257673366E32369F10257B6
:1018E40067336669F1025767FF001166E300E7009A
:1018F40069F10257671D6669F10257673366E3238E
:1019040069F10257671D66E30069F10257671366C0
:1019140069F10257671F6669F10257673366E3236B
:1019240069F10257671F66E30069F102576715669C
:1019340069F1025767216669F10257673366E32349
:1019440069F10257672166E30069F102576715667A
:1019540069F1025767216669F10257673366E32329
:1019640069F10257672166E30069F1025767FF00D6
:101974001166E70069F10257671D6669F10257674E
:101984003366E32369F10257671D66E30069F102D8
:101994005767136669F10257671F6669F102576753
:1019A4003366E32369F10257671F66E30069F102B6
:1019B4005767156669F1025767216669F10257672F
:1019C4003366E32369F10257672166E30069F10294
:1019D4005767156669F10257673366E3236833680E
:1019E400336A30682E68FF0011E30069F10257671B
:1019F400186669F1025767116669F102576718663C
:101A040069F1025767116669F1025767186669F14F
:101A1400025767116669F1025767186669F1025740
:101A240067136669F10257671A6669F1025767130B
:101A34006669F10257671A6669F1025767136669A6
:101A4400F10257671A6669F1025767136669F10272
:101A540057671A6669F1025767FF5CE307EA13A642
:101A6400FF0064E322EA00A6FF0066E301EBE867F7
:101A7400EBFA68EBFE6764E311EB00685F6864E30C
:101A8400196A64E311685F6862E31068626862E37C
:101A940014685FE3116864E3196A5FE311686468BA
:101AA40062E3106A64E311685F6864E3196A64E3DB
:101AB40011685F685F6862E3106862E311685F68D9
:101AC40064E3196A5FE311686468FF0062E3106A03
:101AD40064E311685F6864E3196A64E311685F682A
:101AE4005F6862E3106862E311685F6864E3196A1F
:101AF4005FE31168646862E3106A64E311685F6815
:101B040064E3196A64E311685F685F6862E31068FC
:101B140062E311685F6864E3196A5FE3116864E370
:101B24001968FF0066E32267EBFA6964E311EB00CE
:101B3400685F6864E3196A64E311685F6862E310CC
:101B440068626862E314685FE3116864E3196A5FBA
:101B5400E31168646862E3106A64E311685F6864AF
:101B6400E3196A64E311685F685F6862E31068629E
:101B7400E311685F6864E3196A5FE311686468FFEE
:101B840062E3106A64E311685F6864E3196A64E3FA
:101B940011685F685F6862E3106862E311685F68F8
:101BA40064E3196A5FE31168646862E3106A64E3DA
:101BB40011685F6864E3196A64E311685F685F68C9
:101BC40062E3106864E319686468646A5FE3116837
:101BD40064E31968FF0062E3106A64E311685F68F4
:101BE40064E3196A64E311685F685F6862E310681C
:101BF40062E311685F6864E3196A5FE3116864680B
:101C040062E3106A64E311685F6864E3196A64E379
:101C140011685F685F6862E3106864E31968646868
:101C2400646A646AFF0066E301EBE867EBFA68EB59
:101C3400FE675FE31DEB006A62E311685FE310680F
:101C4400E31D6A61E3106A5FE31D6A5FE310686283
:101C5400E31168E31D6A62E3106A5FE31D6A62E3ED
:101C640011685FE31068E31D7262E311685FE310BB
:101C740068E31D6AFF0062E3106A5FE31D6A62E3C2
:101C840012685FE31068E31D725FE3106862E31299
:101C940068E31D6A62E3106A5FE31D6A62E3126827
:101CA4005FE31068E31D7262E312685FE31068E3A8
:101CB4001D6AFF0066E301EBE867EBFA68EBFE6779
:101CC4005FE31DEB006A62E311685FE31068E31DE4
:101CD400685CE3116861E3106A5FE31D6A62E31103
:101CE400685FE31068E31D685CE3116862E3106AEF
:101CF4005FE31D6A62E311685FE31068E31D685CDB
:101D0400E3116862E3106AE31D6A62E311685FE34A
:101D14001068E31D685CE31168FF62E3106A5FE327
:101D24001D6A62E311685FE31068E31D685CE311F8
:101D34006862E3106AE31D6A62E311685FE3106896
:101D4400E31D685CE3116862E3106A5FE31D6A6285
:101D5400E311685FE31068E31D685CE3116862E304
:101D6400106AE31D6A62E311685FE31068E31D68AB
:101D74005CE31168FF0062E3106A5FE31D6A62E3DB
:101D840011685FE31068E31D685CE3116862E310A7
:101D94006AE31D6A62E311685FE31068E31D685C2F
:101DA400E3116862E3106A5FE31D6A62E311685F2E
:101DB400E31068E31D685CE3116862E3106A5DE3A5
:101DC4001E685B6865E322EBFC6EFF0064E310EBC6
:101DD400006A5FE31E685BE3106864E3196A5FE30B
:101DE4001E685BE319685BE31E68596864E3106866
:101DF4005BE31E685F685BE3106864E3196A5FE392
:101E04001E685BE3196864E310685BE31E6864E3BF
:101E1400196A5FE31E685BE3196864E310685BE3B7
:101E24001E6864E310685B6864E3196A5FE31E6814
:101E34005BE31968FF0064E310685BE31E685F6896
:101E44005BE3106864E3196A5FE31E685BE3196887
:101E54005BE31E68596864E310685BE31E685F68AF
:101E64005BE3106864E3196A5FE31E685BE3196867
:101E740064E310685BE31E6864E3196A5FE31E6849
:101E84005BE3196864E310685BE31E6864E310684D
:101E94005B6864E3196A5FE31E6864E31968FF0022
:101EA40066E322EBF86A64E310EB00685FE3116811
:101EB40064E3196AE310685FE3116864E3106A6419
:101EC400685FE3116864E3196A5FE3116864E3100F
:101ED40068646A64685FE3116864E3196AE310681C
:101EE4005FE3116864E3106A64685FE3116864E3A4
:101EF400196A5FE3116864E31068FF00646A64EBC5
:101F040000685F6864E3196AE310685F68646A6480
:101F1400685F6864E3196A5FE310686468646A640C
:101F2400685F6864E3196AE310685F68646A64E37D
:101F340019686468646A5FE3106864E31968FF0001
:101F440066E300A6FF00F00369F00467F00369F09C
:101F5400049FFF00F00469F00367F00469F003676D
:101F6400F00469F00367F00469F00367F00469F0B2
:101F74000367F00469F00367F00469F00367F00491
:101F840069F00367F00469F00367F00469F003671C
:101F9400F00469F00367F00469F00367F00469F082
:101FA4000367F00469F00367F00469F00367F00461
:101FB40069F00367FF0012101310151017101910A1
:101FC4001B101D1020102310261029102B102D106B
:101FD4002F1031103310351037103A103D104010C7
:101FE4004210461049104D105110531055105910FD
:101FF4005D105F106210661069106C106F10721023
:10200400751078107B107E1080108210841086105A
:1020140088108A108C108F109210961098109B10B4
:10202400000001009D100100A1100100B510010085
:10203400B8100100BD100500C010AB110500C010A0
:10204400B2110500C010B9110500C010C011010083
:10205400C2100100C6100100CA100100CF10010017
:10206400D5100100DB100100E2100300E71092110B
:102074000300F21097110300F910921101000011EE
:1020840015000711C611F21103000D11921113006E
:102094000D119211F41113000D119211F0110100A0
:1020A40017110100201115002011C911F411150098
:1020B4002011CE11F91101002A11030032119A11D5
:1020C400130032119A11F011030035119A11050011
:1020D4003B11D21105003B11D51105004C11D8114B
:1020E40009005611EC1105004C11E21109005B11B5
:1020F400EE1105005B11E5110100631101006A1185
:102104000100711101007C1101007F110100821195
:102114000100871103009D109F1111008D11F01112
:1021240015003B11C911F4110400E71103009D10BF
:10213400A3110200A711FF050F0D0C0BFF00FF25D3
:102144000F0C0A0909080808070707070606060608
:102154000605050505050504040404040303030337
:1021640002020201FF00FF030F0BFF00FF080E0D28
:102174000D0C0C0C0BFFFF030F0EFF00FF020BFFF7
:10218400FF0604090F0D0BFFFF060F0D020504FFE8
:10219400FF080F0D0C0D020504FFFF090F0B0D0FB7
:1021A40002070405FF00FF090F0D0C0C0E020504C5
:1021B400FF00FF0B0F0B0A0A0A0C02020504FF00C2
:1021C400FF070D0907060500FF00FF130F080606A9
:1021D4000505050404040403030302020100FF00CF
:1021E400FF0B0F080906060504030100FF00FF0B9F
:1021F4000D0A0908070504030200FF00FF0B0E0B7C
:102204000706050402020100FF00FF090F090B077E
:1022140008050200FF00FF120F070805030303026D
:10222400020202010101010100FFFF0F0F0C0B0A62
:1022340009080706050403020100FF00FF120F0B43
:10224400070906050505040404030303020100FF4E
:10225400FF0E0C0A0705040404040303030302FF2E
:10226400FF040A0300FFFF090A0300000003020041
:10227400FF00FF1F0F0D0C0B0B0A0A0A09090909BD
:1022840008080808080707070706060605050403E3
:102294000100FF00FF110F0E0D0C0B0A09080706C1
:1022A400050403020100FF00FF070F0F0F0F0F00CB
:1022B400FF00FF0E0F0F0F0F0F0F0F0F0F0F0F0F5A
:1022C40000FFFF0B0F0A0501050A0A050100FF00C4
:1022D400FF0B0F070402060301000100FF00FF14B7
:1022E4000F07050B0206080402050401030100029E
:1022F400010100FFFF020F03FF00FF020F0C03FFA9
:10230400FF030F0C0804020508FFFF030F0C090666
:10231400040205080BFFFF070B0A0B010200FF0074
:10232400FFFF0001010101010080FF0402000180A0
:10233400FF030000FFFFFFFF8000FF0300000C0C01
:102344008000FFFF00F4FB008000FFFF000C010091
:102354008000FF02FDFE0102030302FFFEFD800078
:10236400FF0200010000FF00FF0000018000FF02E7
:10237400FFFF0101020101FFFFFE8000FF02FBFDE0
:102384000204040402FDFB80FF03000DFC80FF0730
:102394000000000000FF8000FF05000000FF800037
:1023A400FF020000FF80FF0200000180FFFF0E0D0E
:1023B4000C0B0A0B0C0D0E0F10111211100F8000D4
:1023C400FF0315128000FF022680FF0202FF01FFB7
:1023D40001FF8000FF020F80FF020680FFFF01FF64
:1023E400FFFF00FFFFFF000000000001FF00FFFFF0
:1023F40000000001FF00C8EDC0933400C0E0C093AA
:1024040061002224C0E3C0930028C0E8C0930128DF
:10241400CFEFC0930228C0930328C0930428C0E3DD
:10242400C0930828C0E8C0930928CFEFC0930A28B6
:10243400C0930B28C0930C28CFEFC0931028C093EF
:102444001128C2E0C093152820921628CFEFC0931C
:102454001A2820921B2820921C28E6E3F2E0E0933D
:102464001328F0931428C591D591C0931728D093BD
:10247400182820921928C591D591CC0FDD1FC0933F
:102484001D28D0931E2820921F28209220282092B5
:10249400212820922228C591D591CC0FDD1FC0930D
:1024A4006A28D0936B2820926C2820926D28209261
:1024B4006E2820926F28C591D591CC0FDD1FC09353
:1024C400B728D093B8282092B9282092BA2820920D
:1024D400BB282092BC28CFEF20922528C093262821
:1024E400C093272820922A28C0932B28C0932C28F5
:1024F400C0932D2820923128C0933228C0933328CA
:1025040020923728C0933828C093392820923C2839
:10251400C0933D28C0933E2820922328209224284B
:10252400209228282092292820922E2820922F2891
:102534002092302820923428209235282092362860
:1025440020923A2820923B280FE0109100281F7017
:10255400909100289073906420920628C0930528D7
:10256400BC2EC1E0AC2EC0900128C2949068CFEF7D
:1025740020923F28209240282092412820924228ED
:1025840020924328209244282092452820924628CD
:1025940020924728209248282092492820924A28AD
:1025A40020924B2820924C2820924D2820924E288D
:1025B40020924F282092502820925128209252286D
:1025C400209253282092542820925528209256284D
:1025D4002092572820925828C0935928C0935A28EB
:1025E40020925B2820925C2820925D2820925E280D
:1025F40020925F28209260282092612820926228ED
:1026040020926328209264282092652820926628CC
:1026140020926728C0936828C0936928CFEF20923E
:102624007228C0937328C093742820927728C0938B
:102634007828C0937928C0937A2820927E28C09362
:102644007F28C093802820928428C0938528C09333
:10265400862820928928C0938A28C0938B282092A8
:102664007028209271282092752820927628209232
:102674007B2820927C2820927D28209281282092F9
:1026840082282092832820928728209288282FE06D
:10269400309108283F70D0910828D073D062D29529
:1026A4009D2B20920E28C0930D28EC2EC1E0DC2E29
:1026B400F0900928F2949860CFEF20928C28209211
:1026C4008D2820928E2820928F2820929028209264
:1026D4009128209292282092932820929428209244
:1026E4009528209296282092972820929828209224
:1026F400992820929A2820929B2820929C28209204
:102704009D2820929E2820929F282092A0282092E3
:10271400A1282092A2282092A3282092A4282092C3
:10272400A528C093A628C093A7282092A828209261
:10273400A9282092AA282092AB282092AC28209283
:10274400AD282092AE282092AF282092B028209263
:10275400B1282092B2282092B3282092B428C093A2
:10276400B528C093B628CFEF2092BF28C093C028C5
:10277400C093C1282092C428C093C528C093C628FA
:10278400C093C7282092CB28C093CC28C093CD28CF
:102794002092D128C093D228C093D3282092D6283F
:1027A400C093D728C093D8282092BD282092BE2851
:1027B4002092C2282092C3282092C8282092C92897
:1027C4002092CA282092CE282092CF282092D02866
:1027D4002092D4282092D528C0E04C2FCFEF20920D
:1027E400D9282092DA282092DB282092DC28209213
:1027F400DD282092DE282092DF282092E0282092F3
:10280400E1282092E2282092E3282092E4282092D2
:10281400E5282092E6282092E7282092E8282092B2
:10282400E9282092EA282092EB282092EC28209292
:10283400ED28C093EE28C093EF282092F028209230
:10284400F1282092F2282092F3282092F428209252
:10285400F5282092F6282092F7282092F828209232
:10286400F9282092FA282092FB282092FC28C09371
:10287400FD28C093FE28CFEFC0B9C0E7C093010A7A
:10288400C1E7C0930A0AC5E1C093280AC5E0C09312
:10289400290ACBE2C0932A0ACAE0C0932B0AC1E4F6
:1028A400C0932C0ACFE0C0932D0AC7E5C093260A33
:1028B400C4E1C093270ACBE0C093000AC0E0C093F0
:1028C400810AC1E0C093850AC0910228C0938C0A92
:1028D400C0910328C0938D0AC3E0C093800AB0E07E
:1028E400B093910AB1E0B093950AB0910A28B093DD
:1028F4009C0AB0910B28B0939D0AB3E0B093900A60
:10290400B0E0B093A10AB1E0B093A50AB091102849
:10291400B093AC0AB0911128B093AD0AB1E0B09372
:10292400A00A7894C0910628D0910E28A0FE15C064
:10293400B21499F0E0918C0AF9E5EF17E0918D0A51
:10294400F0E0EF0750F0E0918C0AF6E6EF17E09123
:102954008D0AF9E5EF0708F401C0CC27D0FE15C0B5
:10296400E21499F0E0919C0AF9E5EF17E0919D0AD1
:10297400F0E0EF0750F0E0919C0AF6E6EF17E091E3
:102984009D0AF9E5EF0708F401C0DD27CD0FE6E164
:10299400F2E0EC0FF21DC491C1B9C4CFBFB7BF932D
:1029A400F89453D09FD0B0E5B0930B0ABF91BFBF4A
:1029B4001895BFB7BF93F89448D094D0C3FC1BD0EC
:1029C400F3FC66D095FD02C0B210BA9491FD02C02A
:1029D400E210EA94B1E2B0930B0ABF91BFBF18951D
:1029E400BFB7BF93F894AA0CA21CB1E0B093860AB7
:1029F400BF91BFBF1895BC2DB770F9F4DF93DC2DE0
:102A0400D295D77011F4DF9119C0A0918C0AB091BE
:102A14008D0AB695A795DA95E1F7C7FE02C0A09591
:102A2400B095D0918C0AAD0FD0918D0ABD1FA093A3
:102A34008C0AB0938D0ADF9101C0CA9497FF089560
:102A4400C0900128C2949F77089596FD10C000306D
:102A540011F00A950895009100280F7095FF02C0A7
:102A64001FE00895103009F408951A9508959F7B86
:102A7400009100280F701FE00895BFB7BF93F8942A
:102A8400DD0CD21CB1E0B093960ABF91BFBF18957C
:102A9400BF2DB770F9F4DF93DF2DD295D77011F401
:102AA400DF9119C0A0919C0AB0919D0AB695A79593
:102AB400DA95E1F7F7FE02C0A095B095D0919C0A93
:102AC400AD0FD0919D0ABD1FA0939C0AB0939D0A9F
:102AD400DF9101C0FA9493FF0895F0900928F294CD
:102AE400977F089592FD10C0203011F02A95089523
:102AF400209108282F7091FF02C03FE008953030E4
:102B040009F408953A9508959B7F209108282F7021
:102B14003FE00895BFB7BF93F8944F5F4F71B1E0A2
:102B2400B093A60ABF91BFBF1895E0E0F2E5ED0FA0
:102B3400F21DD4910895E0E2F2E5ED0FF21DD49177
:102B44000895BFB7BF93F894CF93DF93EF93FF93A8
:102B5400A0911A28AF3FA9F4A0911B28A2115BC031
:102B6400A0911C28A21168C0A0911528B091162824
:102B7400C0911728D0911828AC17BD0708F4A3C03A
:102B8400A0E0E0911328F0911428CC27DD27A39529
:102B9400AA9511F02A96FCCF2296C0931528D093BB
:102BA4001628EC0FFD1FA591B591AA0FBB1FA0938A
:102BB4001D28B0931E28A591B591AA0FBB1FA09301
:102BC4006A28B0936B28A591B591AA0FBB1FA09357
:102BD400B728B093B8282092212820922228209246
:102BE4001F282092202820926E2820926F2820925D
:102BF4006C2820926D282092BB282092BC28209219
:102C0400B9282092BA28AFEFA0931A2820921B2843
:102C140020921C2858C0FF91EF91DF91CF91BF9172
:102C2400BFBFF894AFEFA0931A2820921B282092DC
:102C34001C28209206281895E0911328F091142856
:102C4400A0911528B09116281A96A0931528B09330
:102C54001628EA0FFB1FA591B591AA0FBB1FA093DD
:102C64001D28B0931E28A591B591AA0FBB1FA09350
:102C74006A28B0936B28A591B591AA0FBB1FA093A6
:102C8400B728B093B8282092212820922228209295
:102C94001F282092202820926E2820926F282092AC
:102CA4006C2820926D282092BB282092BC28209268
:102CB400B9282092BA28AFEFA0931A2820921B2893
:102CC40020921C2800C0A0911F28B09120281096A3
:102CD40009F0C2C2E0911D28F0911E28A09121287C
:102CE400B0912228EA0FFB1FB491B73508F46BC1E9
:102CF400B73608F4A3C1B33E08F4AAC109F4ADC1C0
:102D0400B43E09F454C2BF3F09F476C23196A4918B
:102D140099D2B55EE4E2F2E5BB0FEB0FF21DC5916B
:102D2400D491EC2FFD2F0994A0933F2820924028A2
:102D3400D1CF209245282092462820923F282092E5
:102D440040286F937F936A2F72EB679F7F916F91F7
:102D5400169407941694079416940794169407945B
:102D64000092412810924228B5CF20924128209207
:102D7400422820923F28209240286F937F936A2F05
:102D840072EB679F7F916F91169407941694079442
:102D94001694079416940794009245281092462896
:102DA40099CF6F937F936A2F72EB679F7F916F9197
:102DB40016940794169407941694079416940794FB
:102DC40000924D2810924E28A21101C083CFA091E9
:102DD4008C0AB0918D0AA0934928B0934A28209276
:102DE4004F282092502876CFBA2FA07FA295BF708B
:102DF400A0935128B0935228209253286BCFBA2F16
:102E0400A07FA295BF70A0935428B0935528209218
:102E14005628209257285ECFA09358285BCFA093C2
:102E24001A2858CFB0931B2855CFB0931C2852CFE3
:102E3400B0910028B07FBA2BB093002896604ACF97
:102E4400A093192847CFA21551F0B0911928AB17B8
:102E540030F4A0935928B1E0B0931F2800C23ACFB0
:102E640039CF38CF37CF36CFA0935B2833CFE0911B
:102E74002828F0912928309609F02CCFE0912F28AA
:102E8400F0913028309609F025CFE0913528F09163
:102E94003628309609F01ECFBA2FBF70C09107288C
:102EA400BC0FB73508F0B6E5E8E6F0E0BB0FEB0F72
:102EB400F21DC591D491C0935C28D0935D28A2954E
:102EC400AF70AA0FA3956F937F936A2F72EB679FDE
:102ED4007F916F911694079416940794169407940F
:102EE4001694079400925E2810925F28209260281E
:102EF40020926128EFCEE0912828F091292830967D
:102F040009F0E8CEE0912F28F0913028309609F0AE
:102F1400E1CEE0913528F0913628309609F0DACEEA
:102F2400BA2FBF70C0910728CB1B08F4C0E0E8E6B5
:102F3400F0E0CC0FEC0FF21DC591D491C093622840
:102F4400D0936328A295AF70AA0FA3956F937F9334
:102F54006A2F72EB679F7F916F9116940794169472
:102F64000794169407941694079400926428109278
:102F740065282092662820926728ACCEA21551F0CD
:102F8400B0911928AB1730F4A0936828B1E0B0933E
:102F94001F2865C19FCEE0E2F2E5EA0FF21DA69577
:102FA400A795A795B0910028CB2FB07CAB1301C097
:102FB40091CEA490CF73CB2BC09300288BCE8ACE16
:102FC40089CE88CE87CEB0930728A3E0B2E0B09331
:102FD4002528A0932A28B0933128B0933728B0939A
:102FE4003C2820922E282092342820924328209294
:102FF4004428209247282092482820924F28209243
:103004005028A0918C0AB0918D0AA0934928B093BE
:103014004A2820920128976020925C2820925D28FB
:1030240020926028209261282092622820926328AE
:103034002092662820926728FBD04CCEB755A091E9
:103044000028A07FAB2BA09300289660F1D042CE3D
:10305400B656B0931F28ECD002C1209223282092A8
:103064002428209228282092292820922F28209250
:103074003028209235282092362820923A2820920F
:103084003B2820922E28209234283196B491EDEDDD
:10309400FFE0EB0FF21DEE0FFF1FA591B491AA0FF5
:1030A400BB1FEA2FFB2FB4913296A6E0AA9519F024
:1030B400B69578F0FBCFA3E0B2E0B0932528A093B7
:1030C4002A28B0933128B0933728B0933C28BAD03B
:1030D40001CEC591D591A53039F0A43079F0A33053
:1030E400D9F0A23059F13CC0C0932328D0932428AE
:1030F40041D0C0932728D0932628D8CFC09328281E
:10310400D093292820925C2820925D28209262285E
:10311400209263283AD0CACFC0932F28D093302866
:1031240020925C2820925D282092622820926328B5
:1031340021D0C0933328D0933228B8CFC0933528F8
:10314400D093362820925C2820925D282092622811
:10315400209263280FD0C0933928D0933828A6CF63
:10316400C0933A28D0933B2805D0C0933E28D093EF
:103174003D289CCFEF93FF93EC2FFD2FEE0FFF1F05
:10318400C591D491FF91EF910895EF93FF93EC2FA4
:10319400FD2FEE0FFF1FC591D591C0932C28D0931E
:1031A4002B28C491C0932D28FF91EF910895B091DD
:1031B4002728BF3F19F0B395B0932528B0912C2848
:1031C400BF3F19F0B395B0932A28B0913328BF3F7D
:1031D40019F0B395B0933128B0913928BF3F19F055
:1031E400B395B0933728B0913E28BF3F19F0B395FB
:1031F400B0933C281DD06ECDE0911328F091142893
:10320400A0911528B09116281A96A0931528B0936A
:103214001628EA0FFB1FA591B491AA0FBB1FA09318
:103224001D28B0931E28209221282092222852CDB6
:10323400E0912128F09122283196E0932128F093FF
:1032440022280895E0912128F09122283296E093D3
:103254002128F09322280895BA95B0932028A091AC
:103264006C28B0916D28109609F0BEC2E0916A28CE
:10327400F0916B28A0916E28B0916F28EA0FFB1F84
:10328400B491B73508F46BC1B73608F4A3C1B33EA3
:1032940008F4AAC109F4ADC1B43E09F454C2BF3F55
:1032A40009F476C23196A49195D2B55EE8E5F2E5CB
:1032B400BB0FEB0FF21DC591D491EC2FFD2F099498
:1032C400A0938C2820928D28D1CF209292282092EE
:1032D400932820928C2820928D286F937F936A2FB5
:1032E40072EB679F7F916F911694079416940794DD
:1032F400169407941694079400928E2810928F289F
:10330400B5CF20928E2820928F2820928C2820924C
:103314008D286F937F936A2F72EB679F7F916F91D4
:103324001694079416940794169407941694079485
:10333400009292281092932899CF6F937F936A2FCB
:1033440072EB679F7F916F9116940794169407947C
:10335400169407941694079400929A2810929B2826
:10336400A21101C083CFA0919C0AB0919D0AA093A1
:103374009628B093972820929C2820929D2876CF57
:10338400BA2FA07FA295BF70A0939E28B0939F28C8
:103394002092A0286BCFBA2FA07FA295BF70A093D4
:1033A400A128B093A2282092A3282092A4285ECF1B
:1033B400A093A5285BCFA0931A2858CFB0931B28BD
:1033C40055CFB0931C2852CFB0910828B07FBA2BA8
:1033D400B093082892604ACFA093192847CFA2152A
:1033E40051F0B0911928AB1730F4A093A628B1E09E
:1033F400B0936C28FCC13ACF39CF38CF37CF36CF12
:10340400A093A82833CFE0917528F09176283096C0
:1034140009F02CCFE0917C28F0917D28309609F0BA
:1034240025CFE0918228F0918328309609F01ECFB1
:10343400BA2FBF70C0910F28BC0FB73508F0B6E59E
:10344400E8E6F0E0BB0FEB0FF21DC591D491C093F9
:10345400A928D093AA28A295AF70AA0FA3956F9319
:103464007F936A2F72EB679F7F916F9116940794F5
:103474001694079416940794169407940092AB2814
:103484001092AC282092AD282092AE28EFCEE09185
:103494007528F0917628309609F0E8CEE0917C28E2
:1034A400F0917D28309609F0E1CEE0918228F091E8
:1034B4008328309609F0DACEBA2FBF70C0910F2856
:1034C400CB1B08F4C0E0E8E6F0E0CC0FEC0FF21DF3
:1034D400C591D491C093AF28D093B028A295AF7072
:1034E400AA0FA3956F937F936A2F72EB679F7F91C7
:1034F4006F9116940794169407941694079416944F
:1035040007940092B1281092B2282092B3282092F6
:10351400B428ACCEA21551F0B0911928AB1730F4F1
:10352400A093B528B1E0B0936C2861C19FCEE0E2CE
:10353400F2E5EA0FF21DA695A795A795B091082884
:10354400CB2FB07CAB1301C091CED490CF73CB2BD7
:10355400C09308288BCE8ACE89CE88CE87CEB093EE
:103564000F28A3E0B2E0B0937228A0937728B09319
:103574007E28B0938428B093892820927B282092B7
:103584008128209290282092912820929428209299
:10359400952820929C2820929D28A0919C0AB09165
:1035A4009D0AA0939628B0939728209209289360A7
:1035B4002092A9282092AA282092AD282092AE28F1
:1035C4002092AF282092B0282092B3282092B428C9
:1035D400F7D04CCEB755A0910828A07FAB2BA09371
:1035E40008289260EDD042CEB656B0936C28E8D04D
:1035F400FEC0209270282092712820927528209273
:10360400762820927C2820927D282092822820925D
:103614008328209287282092882820927B28209231
:1036240081283196B491EDEDFFE0EB0FF21DEE0F22
:10363400FF1FA591B491AA0FBB1FEA2FFB2FB491D2
:103644003296A6E0AA9519F0B69578F0FBCFA3E0E0
:10365400B2E0B0937228A0937728B0937E28B093F9
:103664008428B0938928B6D001CEC591D591A530D0
:1036740039F0A43079F0A330D9F0A23059F13CC02C
:10368400C0937028D093712841D0C0937428D093EC
:103694007328D8CFC0937528D09376282092A92870
:1036A4002092AA282092AF282092B0283AD0CACFDC
:1036B400C0937C28D0937D282092A9282092AA2800
:1036C4002092AF282092B02821D0C0938028D09394
:1036D4007F28B8CFC0938228D09383282092A9282A
:1036E4002092AA282092AF282092B0280FD0C0930D
:1036F4008628D0938528A6CFC0938728D09388287E
:1037040005D0C0938B28D0938A289CCFEF93FF9346
:10371400EC2FFD2FEE0FFF1FC591D491FF91EF9178
:103724000895EF93FF93EC2FFD2FEE0FFF1FC5912C
:10373400D591C0937928D0937828C491C0937A28DE
:10374400FF91EF910895B0917428BF3F19F0B3959C
:10375400B0937228B0917928BF3F19F0B395B09314
:103764007728B0918028BF3F19F0B395B0937E2895
:10377400B0918628BF3F19F0B395B0938428B091D7
:103784008B28BF3F19F0B395B093892819D06ECD1B
:10379400E0911328F0911428A0911528B0911628CF
:1037A4001296EA0FFB1FA591B491AA0FBB1FA09319
:1037B4006A28B0936B2820926E2820926F2856CDE9
:1037C400E0916E28F0916F283196E0936E28F09383
:1037D4006F280895E0916E28F0916F283296E09357
:1037E4006E28F0936F280895BA95B0936D28A09130
:1037F400B928B091BA28109609F0A3C2E091B7286D
:10380400F091B828A091BB28B091BC28EA0FFB1F07
:10381400B491B73508F44FC1B73608F484C1B33E48
:1038240008F48FC109F492C1B43E09F439C2BF3F10
:1038340009F45BC23196A4917AD2B55EECE8F2E564
:10384400BB0FEB0FF21DC591D491EC2FFD2F099402
:10385400A093D9282092DA28D1CF2092DF28209271
:10386400E0282092D9282092DA286F937F936A2F38
:1038740072EB679F7F916F91169407941694079447
:1038840016940794169407940092DB281092DC286F
:10389400B5CF2092DB282092DC282092D9282092D0
:1038A400DA286F937F936A2F72EB679F7F916F91F2
:1038B40016940794169407941694079416940794F0
:1038C4000092DF281092E02899CF6F937F936A2F9C
:1038D40072EB679F7F916F911694079416940794E7
:1038E40016940794169407940092E7281092E828F7
:1038F400A21101C083CFA0919C0AB0919D0AA0930C
:10390400E328B093E4282092E9282092EA2876CF8D
:10391400BA2FA07FA295BF70A093EB28B093EC2898
:103924002092ED286BCF6ACF69CFA0931A2866CF77
:10393400B0931B2863CFB0931C2860CFA21521F04D
:10394400B1E0B093A50A5ACF2092A50A2092AC0AFE
:103954002092AD0A53CFA093192850CFA21551F04D
:10396400B0911928AB1730F4A093EE28B1E0B093CE
:10397400B928EAC143CF42CF41CF40CF3FCFA09334
:10398400F0283CCFE091C228F091C328309609F08A
:1039940035CFE091C928F091CA28309609F02ECF8E
:1039A400E091CF28F091D028309609F027CFBA2F94
:1039B400BF70C0911228BC0FB73508F0B6E5E8E631
:1039C400F0E0BB0FEB0FF21DC591D491C093F12829
:1039D400D093F228A295AF70AA0FA3956F937F930B
:1039E4006A2F72EB679F7F916F91169407941694D8
:1039F400079416940794169407940092F32810924F
:103A0400F4282092F5282092F628F8CEE091C228D6
:103A1400F091C328309609F0F1CEE091C928F091D5
:103A2400CA28309609F0EACEE091CF28F091D02848
:103A3400309609F0E3CEBA2FBF70C0911228CB1B89
:103A440008F4C0E0E8E6F0E0CC0FEC0FF21DC591FD
:103A5400D491C093F728D093F828A295AF70AA0FF9
:103A6400A3956F937F936A2F72EB679F7F916F91FA
:103A7400169407941694079416940794169407942E
:103A84000092F9281092FA282092FB282092FC2810
:103A9400B5CEA21551F0B0911928AB1730F4A0930C
:103AA400FD28B1E0B093B9284FC1A8CEA7CEA6CEC9
:103AB400A5CEA4CEA3CEB0931228A3E0B2E0B093D7
:103AC400BF28A093C428B093CB28B093D128B09337
:103AD400D6282092C8282092CE282092DD28209231
:103AE400DE282092E1282092E2282092E9282092E0
:103AF400EA28A0919C0AB0919D0AA093E328B09370
:103B0400E4282092F1282092F2282092F52820928D
:103B1400F6282092F7282092F8282092FB28209259
:103B2400FC28FBD06BCEF9D0B75521F0B1E0B093AF
:103B3400A50A64CE2092A50A2092AC0A2092AD0A6E
:103B44005DCEB656B093B928E8D0FEC02092BD2809
:103B54002092BE282092C2282092C3282092C928ED
:103B64002092CA282092CF282092D0282092D428AC
:103B74002092D5282092C8282092CE283196B4913C
:103B8400EDEDFFE0EB0FF21DEE0FFF1FA591B491D9
:103B9400AA0FBB1FEA2FFB2FB4913296A6E0AA9579
:103BA40019F0B69578F0FBCFA3E0B2E0B093BF284C
:103BB400A093C428B093CB28B093D128B093D6282F
:103BC400B6D01CCEC591D591A53039F0A43079F08A
:103BD400A330D9F0A23059F13CC0C093BD28D09392
:103BE400BE2841D0C093C128D093C028D8CFC09359
:103BF400C228D093C3282092F1282092F228209240
:103C0400F7282092F8283AD0CACFC093C928D09375
:103C1400CA282092F1282092F2282092F728209294
:103C2400F82821D0C093CD28D093CC28B8CFC09306
:103C3400CF28D093D0282092F1282092F2282092E5
:103C4400F7282092F8280FD0C093D328D093D228F5
:103C5400A6CFC093D428D093D52805D0C093D82814
:103C6400D093D7289CCFEF93FF93EC2FFD2FEE0F2B
:103C7400FF1FC591D491FF91EF910895EF93FF93A6
:103C8400EC2FFD2FEE0FFF1FC591D591C093C628D1
:103C9400D093C528C491C093C728FF91EF9108958C
:103CA400B091C128BF3F19F0B395B093BF28B0912C
:103CB400C628BF3F19F0B395B093C428B091CD285E
:103CC400BF3F19F0B395B093CB28B091D328BF3F31
:103CD40019F0B395B093D128B091D828BF3F19F00B
:103CE400B395B093D62819D089CDE0911328F091DB
:103CF4001428A0911528B09116281496EA0FFB1FDA
:103D0400A591B491AA0FBB1FA093B728B093B8286C
:103D14002092BB282092BC2871CDE091BB28F09161
:103D2400BC283196E093BB28F093BC280895E09119
:103D3400BB28F091BC283296E093BB28F093BC28B2
:103D44000895BA95B093BA28F0911928EF2FE1504D
:103D5400A0912028A21142C000C0AF2FB0911F280B
:103D6400B21509F43BC0BA95B0931F28B21134C000
:103D7400AA95BFEFC0916828D0916928CB1709F0A4
:103D84000DC0DB1709F015C0C0915928D0915A28ED
:103D9400CB1709F012C0DB17F9F01AC0B0936828EA
:103DA400EC1BE0936928CA95C0932028EF2FE150BB
:103DB40015C0B0936928AD2F0FC0B0935928EC1BE0
:103DC400E0935A28CA95C0932028EF2FE15006C0EB
:103DD400B0935A28AD2F00C0A0932028A0916D283D
:103DE400A21142C000C0AF2FB0916C28B21509F4E3
:103DF4003BC0BA95B0936C28B21134C0AA95BFEFFA
:103E0400C091B528D091B628CB1709F00DC0DB17A7
:103E140009F015C0C091A628D091A728CB1709F0A6
:103E240012C0DB17F9F01AC0B093B528EC1BE0936D
:103E3400B628CA95C0936D28EF2FE150CFCFB09329
:103E4400B628AD2F0FC0B093A628EC1BE093A7288B
:103E5400CA95C0936D28EF2FE150C0CFB093A72827
:103E6400AD2F00C0A0936D28A091BA28A21142C022
:103E740000C0AF2FB091B928B21509F43BC0BA9570
:103E8400B093B928B21134C0AA95BFEFC091FD28F0
:103E9400D091FE28CB1709F00DC0DB1709F015C02F
:103EA400C091EE28D091EF28CB1709F012C0DB1790
:103EB400F9F01AC0B093FD28EC1BE093FE28CA95D4
:103EC400C093BA28EF2FE15015C0B093FE28AD2F50
:103ED4000FC0B093EE28EC1BE093EF28CA95C09373
:103EE400BA28EF2FE15006C0B093EF28AD2F00C0E1
:103EF400A093BA28E0912328F09124283096A1F1C8
:103F0400EE0FFF1FA0912528EA0FF21DB09127287C
:103F1400BA1729F4A0912628AB1710F003C0A39573
:103F2400A0932528B491BF3F69F4B0912728BF3FDF
:103F340029F4B0912628B0932528DCCFA250A09371
:103F44002528D8CFE0ECF2E5B295EB0FF21DB09145
:103F54000028BF70A0915728A03081F4EB0FF21D08
:103F6400B491B093062824C0B0910028BF70A091EA
:103F74005728A030A1F4B09306281AC0BA1B40F009
:103F840039F0B1E0EB0FF21DB491B093062810C0E4
:103F9400B1E0EB0FF21DB491B093062809C0BA1B2F
:103FA40020F019F0B093062803C0B1E0B0930628BE
:103FB400E0912828F09129283096D9F1EE0FFF1FBF
:103FC400A0912A28EA0FF21DB0912C28BA1729F4DF
:103FD400A0912B28AB1710F003C0A395A0932A2817
:103FE400B491B03809F041C0A150A0932A28B091EF
:103FF4002D28B13048F0B0912C28BF3FD1F4B091B6
:104004002B28BF3F99F415C0B0912C28BF3F21F451
:10401400B0912B28BF3F51F4C0913F28D091402844
:10402400209669F4A150A0932A28C2CFB0932A28DD
:10403400BFCFC0913F28D0914028209699F0D695C3
:10404400C795D795C795D795C795D795C795D7954C
:10405400D295C0933F28D0934028CF70A0910728D1
:10406400AC0F2CC0A091072829C020922E282092A2
:104074003428A0912D28A13010F069F00EC0A09131
:104084000728AB0FB7FD04C0A735C0F0A6E516C0DE
:10409400A7FDA0E013C0AB2F11C0A0910728AB0F60
:1040A400B7FD08C0A0930728A73540F0A6E5A09364
:1040B400072804C0A7FDA0E0A0930728E8E6F0E0E5
:1040C400AA0FEA0FF21DA591B491A0938C0AB093A4
:1040D4008D0AA0934B28B0934C2800C0E0912F2860
:1040E400F0913028309609F423C0EE0FFF1FA09101
:1040F4003128EA0FF21DB0913328BA1729F4A091A0
:104104003228AB1710F003C0A395A0933128B491C3
:10411400B03889F4A150A0933128B0913328BF3F1F
:1041240039F4B0913228BF3F19F0B0933128D6CF7B
:10413400B0912E2805C0A0912E28BA0FB0932E2836
:10414400A0915B28BA0F6F937F936B2F72EB670379
:104154007F916F911694079416940794169407947C
:104164001694079413FE02C0B0EF1B2AA0918C0A88
:10417400B0918D0AA00DB11DC0914328D09144285F
:10418400AC1BBD0BC0914728D0914828AC0FBD1F74
:10419400C0916028D0916128AC1BBD0BC0916628EA
:1041A400D0916728AC0FBD1FA0938C0AB0938D0AE1
:1041B400E0913528F0913628309609F43CC0EE0F92
:1041C400FF1FA0913728EA0FF21DB0913928BA17C2
:1041D40029F4A0913828AB1710F003C0A395A0933D
:1041E4003728B491B03889F4A150A0933728B091FE
:1041F4003928BF3F39F4B0913828BF3F19F0B09344
:104204003728D6CFB091342805C0A0913428BA0FEE
:10421400B09334286F937F936B2F72EB67037F9176
:104224006F91A0918C0AB0918D0AA00DB11DA0933D
:104234008C0AB0938D0AE0913A28F0913B2830968D
:10424400B1F1EE0FFF1FA0913C28EA0FF21DB091CF
:104254003E28BA1729F4A0913D28AB1710F027C0C7
:10426400A395A0933C28B491BF3F71F4A150A093AF
:104274003C28B0913E28BF3FD1F4B0913D28BF3FC8
:10428400B1F0B0933C28D7CFE0E2F2E5EB0FF21D9A
:10429400B695B795B795A0910028CA2FA07CBA13FC
:1042A40001C005C0A490CF73CB2BC0930028E0912C
:1042B4004128F0914228309651F0A0914328B091C2
:1042C4004428AE0FBF1FA0934328B0934428E09125
:1042D4004528F0914628309651F0A0914728B09196
:1042E4004828AE0FBF1FA0934728B0934828E091F9
:1042F4004D28F0914E28309609F448C0A0914928E1
:10430400B0914A28109609F441C0C0914B28D0912D
:104314004C28AC17BD0711F030F01FC0209249287B
:1043240020924A2833C0CA1BDB0BA0914F28B091BE
:104334005028AE0FBF1FCA1BDB0B80F3A0934F287E
:10434400B0935028A0918C0AB0918D0AAC1BBD0B80
:10435400A0938C0AB0938D0A19C0AC1BBD0BC091FD
:104364004F28D0915028CE0FDF1FAC1BBD0BB0F2ED
:10437400C0934F28D0935028C0918C0AD0918D0AB5
:10438400CA0FDB1FC0938C0AD0938D0AA0915128C9
:10439400A21509F45CC0B0915228C0915328CA0FE9
:1043A400C43608F0C356C0935328C03128F0C03235
:1043B40028F0C03330F007C0CF7029C0C06FC0955B
:1043C40026C0CF7003C0C06FC09500C0B295CB0F9C
:1043D400E6E1F1E0EC0FF21DC4916F937F936C2F33
:1043E40072EB679F7F916F911694079416940794CC
:1043F4001694079416940794A0918C0AB0918D0A90
:10440400A00DB11DA0938C0AB0938D0A20C0B29563
:10441400CB0FE6E1F1E0EC0FF21DC4916F937F93B3
:104424006C2F72EB679F7F916F911694079416948B
:1044340007941694079416940794A0918C0AB0914B
:104444008D0AA019B109A0938C0AB0938D0AA0918A
:104454005428A215F1F0B0915528C0915628CA0FDE
:10446400C43610F0C0E0C356C0935628C695C4FFA6
:1044740001C002C0CF7003C0C06FC09500C0B29528
:10448400CB0FE6E1F1E0EC0FF21DC491C695C093A9
:104494005728B0915828B215E9F0A0910528C09189
:1044A4000028DA2FEC2FE295D07FE07FED1709F09A
:1044B400AE2FB7FD04C0AB0F28F4A0EF03C0AB0FC1
:1044C40008F0A0E0A0930528A07FA295C07FCA2B86
:1044D400C0930028E0915C28F0915D28309699F112
:1044E400A0916028B0916128C0918C0AD0918D0A66
:1044F400EC1BFD0B08F4E8F0AE1BBF0B6F937F932E
:1045040060915B2872EB679F7F916F91169407947B
:10451400169407941694079416940794A00DB21D4C
:10452400A0936028B093612820925C2820925D2893
:104534000AC0C0915E28D0915F28AC0FBD1FA09324
:104544006028B0936128E0916228F0916328309646
:1045540099F1A0916628B0916728C0918C0AD091F6
:104564008D0ACE1BDF0B08F4E8F0AC1BBD0B6F9378
:104574007F9360915B2872EB679F7F916F91169494
:104584000794169407941694079416940794A00D10
:10459400B21DA0936628B0936728209262282092C7
:1045A40063280AC0C0916428D0916528AC0FBD1F50
:1045B400A0936628B0936728E0917028F091712841
:1045C4003096A1F1EE0FFF1FA0917228EA0FF21DA1
:1045D400B0917428BA1729F4A0917328AB1710F07E
:1045E40003C0A395A0937228B491BF3F69F4B0911E
:1045F4007428BF3F29F4B0917328B0937228DCCF9C
:10460400A250A0937228D8CFE0ECF2E5B295EB0F5C
:10461400F21DB0910828BF70A091A428A03081F4A5
:10462400EB0FF21DB491B0930E2824C0B09108286A
:10463400BF70A091A428A030A1F4B0930E281AC092
:10464400BA1B40F039F0B1E0EB0FF21DB491B09316
:104654000E2810C0B1E0EB0FF21DB491B0930E28F8
:1046640009C0BA1B20F019F0B0930E2803C0B1E0C2
:10467400B0930E28E0917528F09176283096D9F100
:10468400EE0FFF1FA0917728EA0FF21DB091792851
:10469400BA1729F4A0917828AB1710F003C0A3959A
:1046A400A0937728B491B03809F041C0A150A093E9
:1046B4007728B0917A28B13048F0B0917928BF3F7B
:1046C400D1F4B0917828BF3F99F415C0B0917928FE
:1046D400BF3F21F4B0917828BF3F51F4C0918C289A
:1046E400D0918D28209669F4A150A0937728C2CF49
:1046F400B0937728BFCFC0918C28D0918D28209675
:1047040099F0D695C795D795C795D795C795D79559
:10471400C795D795D295C0938C28D0938D28CF7008
:10472400A0910F28AC0F2CC0A0910F2829C0209273
:104734007B2820928128A0917A28A13010F069F07A
:104744000EC0A0910F28AB0FB7FD04C0A735C0F071
:10475400A6E516C0A7FDA0E013C0AB2F11C0A09121
:104764000F28AB0FB7FD08C0A0930F28A73540F062
:10477400A6E5A0930F2804C0A7FDA0E0A0930F28EE
:10478400E8E6F0E0AA0FEA0FF21DA591B491A09318
:104794009C0AB0939D0AA0939828B093992800C0CE
:1047A400E0917C28F0917D28309609F423C0EE0F27
:1047B400FF1FA0917E28EA0FF21DB0918028BA173E
:1047C40029F4A0917F28AB1710F003C0A395A09300
:1047D4007E28B491B03889F4A150A0937E28B0917A
:1047E4008028BF3F39F4B0917F28BF3F19F0B093C0
:1047F4007E28D6CFB0917B2805C0A0917B28BA0F24
:10480400B0937B28A091A828BA0F6F937F936B2F46
:1048140072EB67037F916F91169407941694079433
:10482400169407941694079413FE02C0B0EF1B2A43
:10483400A0919C0AB0919D0AA00DB11DC091902831
:10484400D0919128AC1BBD0BC0919428D091952890
:10485400AC0FBD1FC091AD28D091AE28AC1BBD0BD1
:10486400C091B328D091B428AC0FBD1FA0939C0A6B
:10487400B0939D0AE0918228F0918328309609F440
:104884003CC0EE0FFF1FA0918428EA0FF21DB091E7
:104894008628BA1729F4A0918528AB1710F003C015
:1048A400A395A0938428B491B03889F4A150A0931F
:1048B4008428B0918628BF3F39F4B0918528BF3F42
:1048C40019F0B0938428D6CFB091812805C0A09167
:1048D4008128BA0FB09381286F937F936B2F72EB6B
:1048E40067037F916F91A0919C0AB0919D0AA00DDE
:1048F400B11DA0939C0AB0939D0AE0918728F09182
:1049040088283096B1F1EE0FFF1FA0918928EA0F95
:10491400F21DB0918B28BA1729F4A0918A28AB17FD
:1049240010F027C0A395A0938928B491BF3F71F4D8
:10493400A150A0938928B0918B28BF3FD1F4B091A6
:104944008A28BF3FB1F0B0938928D7CFE0E2F2E5DF
:10495400EB0FF21DB695B795B795A0910828CA2F0D
:10496400A07CBA1301C005C0D490CF73CB2BC093E5
:104974000828E0918E28F0918F28309651F0A0916C
:104984009028B0919128AE0FBF1FA0939028B093A8
:104994009128E0919228F0919328309651F0A091BB
:1049A4009428B0919528AE0FBF1FA0939428B0937C
:1049B4009528E0919A28F0919B28309609F448C0F4
:1049C400A0919628B0919728109609F441C0C091FF
:1049D4009828D0919928AC17BD0711F030F01FC06A
:1049E400209296282092972833C0CA1BDB0BA091F3
:1049F4009C28B0919D28AE0FBF1FCA1BDB0B80F310
:104A0400A0939C28B0939D28A0919C0AB0919D0AE4
:104A1400AC1BBD0BA0939C0AB0939D0A19C0AC1BA0
:104A2400BD0BC0919C28D0919D28CE0FDF1FAC1BDD
:104A3400BD0BB0F2C0939C28D0939D28C0919C0AD2
:104A4400D0919D0ACA0FDB1FC0939C0AD0939D0A84
:104A5400A0919E28A21509F45CC0B0919F28C09132
:104A6400A028CA0FC43608F0C356C093A028C0318A
:104A740028F0C03228F0C03330F007C0CF7029C00E
:104A8400C06FC09526C0CF7003C0C06FC09500C072
:104A9400B295CB0FE6E1F1E0EC0FF21DC4916F93F8
:104AA4007F936C2F72EB679F7F916F91169407949D
:104AB400169407941694079416940794A0919C0A4C
:104AC400B0919D0AA00DB11DA0939C0AB0939D0ABC
:104AD40020C0B295CB0FE6E1F1E0EC0FF21DC491DA
:104AE4006F937F936C2F72EB679F7F916F911694F6
:104AF4000794169407941694079416940794A09117
:104B04009C0AB0919D0AA019B109A0939C0AB09384
:104B14009D0AA091A128A215F1F0B091A228C091FC
:104B2400A328CA0FC43610F0C0E0C356C093A3280C
:104B3400C695C4FF01C002C0CF7003C0C06FC0954A
:104B440000C0B295CB0FE6E1F1E0EC0FF21DC49189
:104B5400C695C093A428B091A528B215E9F0A091F8
:104B64000D28C0910828DA2FEC2FE295D07FE07F42
:104B7400ED1709F0AE2FB7FD04C0AB0F28F4A0EF7A
:104B840003C0AB0F08F0A0E0A0930D28A07FA2956E
:104B9400C07FCA2BC0930828E091A928F091AA28C5
:104BA400309699F1A091AD28B091AE28C0919C0A9D
:104BB400D0919D0AEC1BFD0B08F4E8F0AE1BBF0B73
:104BC4006F937F936091A82872EB679F7F916F9199
:104BD40016940794169407941694079416940794BD
:104BE400A00DB21DA093AD28B093AE282092A928A1
:104BF4002092AA280AC0C091AB28D091AC28AC0F4F
:104C0400BD1FA093AD28B093AE28E091AF28F091DA
:104C1400B028309699F1A091B328B091B428C091EE
:104C24009C0AD0919D0ACE1BDF0B08F4E8F0AC1B64
:104C3400BD0B6F937F936091A82872EB679F7F9160
:104C44006F911694079416940794169407941694E7
:104C54000794A00DB21DA093B328B093B42820925A
:104C6400AF282092B0280AC0C091B128D091B228B0
:104C7400AC0FBD1FA093B328B093B428E091BD2816
:104C8400F091BE28309679F1EE0FFF1FA091BF2856
:104C9400EA0FF21DB091C128BA1729F4A091C028D7
:104CA400AB1710F003C0A395A093BF28B491BF3FE6
:104CB40069F4B091C128BF3F29F4B091C028B093E2
:104CC400BF28DCCFA250A093BF28D8CFB21521F0C3
:104CD400B1E0B093A50A07C02092A50A2092AC0ABD
:104CE4002092AD0A00C0E091C228F091C32830960A
:104CF400D9F1EE0FFF1FA091C428EA0FF21DB09165
:104D0400C628BA1729F4A091C528AB1710F003C020
:104D1400A395A093C428B491B03809F041C0A15020
:104D2400A093C428B091C728B13048F0B091C628E8
:104D3400BF3FD1F4B091C528BF3F99F415C0B091DD
:104D4400C628BF3F21F4B091C528BF3F51F4C0919C
:104D5400D928D091DA28209669F4A150A093C428C8
:104D6400C2CFB093C428BFCFC091D928D091DA283C
:104D7400209699F0D695C795D795C795D795C79599
:104D8400D795C795D795D295C093D928D093DA28CB
:104D9400CF70A0911228AC0F2CC0A091122829C06A
:104DA4002092C8282092CE28A091C728A13010F0C4
:104DB40069F00EC0A0911228AB0FB7FD04C0A7354F
:104DC400C0F0A6E516C0A7FDA0E013C0AB2F11C02C
:104DD400A0911228AB0FB7FD08C0A0931228A735E5
:104DE40040F0A6E5A093122804C0A7FDA0E0A0937C
:104DF4001228E8E6F0E0AA0FEA0FF21DA591B4919B
:104E0400A093AC0AB093AD0AA093E528B093E6282A
:104E140000C0E091C928F091CA28309609F423C053
:104E2400EE0FFF1FA091CB28EA0FF21DB091CD2801
:104E3400BA1729F4A091CC28AB1710F003C0A3959E
:104E4400A093CB28B491B03889F4A150A093CB2877
:104E5400B091CD28BF3F39F4B091CC28BF3F19F0B1
:104E6400B093CB28D6CFB091C82805C0A091C8284C
:104E7400BA0FB093C828A091F028BA0F6F937F930C
:104E84006B2F72EB67037F916F91169407941694BE
:104E94000794169407941694079413FE02C0B0EF77
:104EA4001B2AA091AC0AB091AD0AA00DB11DC0910E
:104EB400DD28D091DE28AC1BBD0BC091E128D09138
:104EC400E228AC0FBD1FC091F528D091F628AC1B89
:104ED400BD0BC091FB28D091FC28AC0FBD1FA09343
:104EE4009C0AB093AD0AE091CF28F091D028309677
:104EF40009F43CC0EE0FFF1FA091D128EA0FF21D68
:104F0400B091D328BA1729F4A091D228AB1710F086
:104F140003C0A395A093D128B491B03889F4A150CB
:104F2400A093D128B091D328BF3F39F4B091D228AF
:104F3400BF3F19F0B093D128D6CFB091CE2805C089
:104F4400A091CE28BA0FB093CE286F937F936B2F86
:104F540072EB67037F916F91A091AC0AB091AD0A97
:104F6400A00DB11DA093AC0AB093AD0AE091DB286B
:104F7400F091DC28309651F0A091DD28B091DE2824
:104F8400AE0FBF1FA093DD28B093DE28E091DF2889
:104F9400F091E028309651F0A091E128B091E228F8
:104FA400AE0FBF1FA093E128B093E228E091E72859
:104FB400F091E828309609F448C0A091E328B09114
:104FC400E428109609F441C0C091E528D091E62860
:104FD400AC17BD0711F030F01FC02092E3282092D7
:104FE400E42833C0CA1BDB0BA091E928B091EA285E
:104FF400AE0FBF1FCA1BDB0B80F3A093E928B0934D
:10500400EA28A091AC0AB091AD0AAC1BBD0BA093E9
:10501400AC0AB093AD0A19C0AC1BBD0BC091E92812
:10502400D091EA28CE0FDF1FAC1BBD0BB0F2C093AA
:10503400E928D093EA28C091AC0AD091AD0ACA0FEE
:10504400DB1FC093AC0AD093AD0AA091EB28A21544
:1050540009F45CC0B091EC28C091ED28CA0FC436A5
:1050640008F0C356C093ED28C03128F0C03228F0B0
:10507400C03330F007C0CF7029C0C06FC09526C0C0
:10508400CF7003C0C06FC09500C0B295CB0FE6E1EE
:10509400F1E0EC0FF21DC4916F937F936C2F72EBD0
:1050A400679F7F916F9116940794169407941694B2
:1050B400079416940794A091AC0AB091AD0AA00D80
:1050C400B11DA093AC0AB093AD0A20C0B295CB0F2A
:1050D400E6E1F1E0EC0FF21DC4916F937F936C2F26
:1050E40072EB679F7F916F911694079416940794BF
:1050F4001694079416940794A091AC0AB091AD0A43
:10510400A019B109A093AC0AB093AD0AE091F128BB
:10511400F091F228309699F1A091F528B091F628F3
:10512400C091AC0AD091AD0AEC1BFD0B08F4E8F079
:10513400AE1BBF0B6F937F936091F02872EB679F58
:105144007F916F911694079416940794169407947C
:1051540016940794A00DB21DA093F528B093F628D9
:105164002092F1282092F2280AC0C091F328D0910D
:10517400F428AC0FBD1FA093F528B093F628E09156
:10518400F728F091F828309699F1A091FB28B09176
:10519400FC28C091AC0AD091AD0ACE1BDF0B08F4F9
:1051A400E8F0AC1BBD0B6F937F936091F02872EB1A
:1051B400679F7F916F9116940794169407941694A1
:1051C400079416940794A00DB21DA093FB28B093E6
:1051D400FC282092F7282092F8280AC0C091F928C8
:1051E400D091FA28AC0FBD1FA093FB28B093FC28E4
:1051F400FF91EF91DF91CF910C94DE14057F0A01AA
:105204001402280350041E0507060D0706080C099E
:10521400180A300B600C240D080E100F01030FFC4C
:1052240096169B16B716D316F61601170E171117F6
:10523400141717171A17221725173217331734178D
:105244003517361739177D17C017CD17E117E21731
:10525400E317E4176219671983199F19C219CD1945
:10526400DA19DD19E019E319E619EE19F119FE1935
:10527400FF19001A011A021A051A491A8C1A991AE6
:10528400AD1AAE1AAF1AB01A2A1C2F1C4B1C671C7D
:105294008A1C951C961C971C9A1C9D1CA01CAD1C5A
:1052A400B01CBD1CBE1CBF1CC01CC11CC41C081DE2
:1052B4004B1D581D591D5A1D5B1D5C1D000000002F
:1052C40000000000000000000000000000010101D7
:1052D40001010101010101010101010100010101BB
:1052E40001010101010101010101010200010101AA
:1052F4000101010101010202020202030001010194
:10530400010101010202020203030304000101017D
:105314000101020202030303040404050001010164
:10532400010202020303040404050506000101014D
:105334000102020303040405050606070001010136
:10534400020203030404050506060708000101011F
:105354000203030404050606070708090001010205
:1053640002030404050606070808090A00010102ED
:10537400020304050506070808090A0B00010102D7
:105384000304040506070808090A0B0C00010102BE
:1053940003040506060708090A0B0C0D00010102A7
:1053A400030405060708090A0B0C0D0E000102038D
:0C53B4000405060708090A0B0C0D0E0F7B
:00000001FF
