:020000020000FC
:040000000C940D024D
:04001C000C945E03DF
:100024000C9444030C944E030C9444030C94B209B2
:10003400C758CC53184FA74A77468242C73E413B24
:10004400ED37CA34D331072F642CE6298C27542585
:100054003B234121631FA01DF71B651AEA1884176F
:100064003216F314C613AA129E11A110B20FD00EA9
:10007400FB0D320D750CC20B190B790AE3095509F6
:10008400CF085008D9076807FE0699063A06E10525
:100094008C053D05F104AA0467042804EC03B403A9
:1000A4007F034D031D03F002C6029E02790255022E
:1000B40034021402F601DA01BF01A6018F017801AE
:1000C40063014F013C012B011A010A01FB00ED0001
:1000D400E000D300C700BC00B200A8009E000000EE
:1000E400000000000000000000000000000000000C
:1000F40000000101010102020202020202020000E8
:1001040000010102020303030404040404040000C4
:1001140001020203030404050506060606060000A0
:10012400010203040505060607070808080800017C
:10013400020304060708090A0A0B0C0C0C0C000144
:10014400030507080A0C0D0E0F10111212120002FB
:100154000406080A0C0E10111314151616160002C4
:1001640005070A0C0F111314161718191A1A00038D
:1001740006090C0F121417191B1D1E1F2020000442
:10018400080C1014171B1E21232527292A2A0005D1
:100194000B11161B2025292D31343638393A000825
:1001A4001019212930373D43484C50535556000C03
:1001B4001824303B46505962697075797C7E001270
:1001C4002537495A6A7987939EA8B0B6BBBE0018F2
:1001D400314A61788DA1B4C5D4E0EBF4FAFD1E0177
:1001E400F701FC01010206023301F701FC010102DF
:1001F40006029C01F701FC01010206029C01F701C1
:10020400FC01010206029C01F701FC010102060245
:100214009C01F701FC01010206025F01F701FC01E8
:10022400010206026901FA01FF01040209029C01AC
:10023400FB01000205020A02F0061B66E300EB0064
:100244006A1BEBF06A1B57EB106A1B57EB026AEB55
:10025400006E576A1B66E8016A2B6E1B6E22E80467
:1002640076FF1B6E1FE8006A1BE6006AE60176E76C
:100274000276576A1B66E60072FF1BE5476C1F6C2B
:10028400226C1BE5406C1F6C226C1BE5076C1F6C19
:10029400226EE5006A576AFF1B66E918701FE91FA2
:1002A4007022E98F6DE900671BEA18701FEAF87085
:1002B40022EA1F7257EA006AFF001B666E6E1B6E0D
:1002C4006E6A576E1B666A6A1B6E576AFF001B666E
:1002D400671F67226824695767F1001B6667F1028C
:1002E4001F67F1042268246957671B66671F67222A
:1002F4006824695767F1001B6667F1021F67F10400
:10030400226824695767F1031B6668F1051F682298
:100314006957671B66681F6822695767F1031B6684
:1003240068F1051F68226957671B66681F682269A0
:100334005767FF001B66F9036757671F66F9036772
:1003440057672266F90367576724666A57671B660F
:10035400F9036757671F66F9036757672266F9034E
:100364006757672466F90067576A57671B66F9037E
:100374006757671F66F9036757672266F90367576C
:100384006724666A57671B66F9036757671F66F930
:10039400036757672266F9036757672466F900679E
:1003A400576A57671B66671F672267246B1BF9032D
:1003B4006757671F66F9036757672266F90567572A
:1003C4006724666A57671B66671F672267246B1B6F
:1003D400F9036757671F66F9036757672266F905CC
:1003E40067576724666A5767FF0066E300A6FF0045
:1003F400A6FFA6FF66E300A6FF00A6FFA6FF66E32E
:1004040000A6FF00A6FFA6FF66E300A6FF00A6FF66
:10041400A6FF0C020000B8EDB0933400B0E0B09336
:1004240061002224B0E3B0930028B0E8B09301281F
:10043400BFEFB0930228B0930328B0930428B0E030
:10044400B0930A28B0930B28E2EEF1E0E093082879
:10045400F093092820920C28B0E0EB0FF21DA5912F
:10046400B491AA0FBB1FA0930D28B0930E28B0E03F
:1004740020920F28209210282092112820921228CE
:10048400BFEF20921528B0931628B0931728209216
:100494001A28B0931B28B0931C28B0931D282092CF
:1004A4002128B0932228B093232820922728B093A0
:1004B4002828B093292820922C28B0932D28B09373
:1004C4002E28209213282092142820921828209253
:1004D400192820921E2820921F282092202820923A
:1004E4002428209225282092262820922A28209207
:1004F4002B2820925A2820925B2820925C28209254
:100504005D28BFEFB0B90FE0109100281F709091E3
:1005140000289073906420920628B0930528D09107
:1005240004286BD7ED2ED0910028DD0FDD1FDD1FD1
:10053400D37079D7DD2EF0900128F2949068209240
:100544002F2820923028209231282092322820927D
:10055400332820923428209235282092362820925D
:100564003728209238282092392820923A2820923D
:100574003B2820923C2820923D2820923E2820921D
:100584003F282092402820924128209242282092FD
:1005940043282092442820924528209246282092DD
:1005A4004728209248282092492820924A282092BD
:1005B4004B2820924C2820924D2820924E2820929D
:1005C4004F2820925028209251282092522820927D
:1005D400532820925428209255282092562820925D
:1005E40057282092582820925928B0E7B093010A3E
:1005F400B1E7B0930A0AB5E1B093280AB5E0B09325
:10060400290ABBE2B0932A0ABAE0B0932B0AB1E4F8
:10061400B0932C0ABFE0B0932D0AB7E5B093260A35
:10062400B4E1B093270ABBE0B093000AB0E0B09302
:10063400810AB1E0B093850AB0910228B0938C0A84
:10064400B0910328B0938D0AB3E0B093800A7894F4
:10065400D0FE12C0E21481F0C0918C0AD0918D0AB0
:10066400D13008F002C0C93538F0D93538F009F076
:1006740003C0C53608F402C021B8EACFD0910628D9
:10068400D1B9E6CFBFB7BF93F8949FD6B0E5B09386
:100694000B0ABF91BFBF1895BFB7BF93F89495D607
:1006A400F3FC69D695FD02C0E210EA94B1E2B0937E
:1006B4000B0ABF91BFBF1895BFB7BF93F894CF93F0
:1006C400DF93A0910F28B0911028109609F0F7C27B
:1006D400E0910D28F0910E28A0911128B0911228D4
:1006E400EA0FFB1FB491B73508F45EC1B73608F4BE
:1006F40096C1B33E08F49DC109F4A0C1B43E09F407
:1007040047C2BF3F09F469C23196A4918CD2B55E49
:10071400EAE3F4E1BB0FEB0FF21DC591D491EC2F8A
:10072400FD2F0994A0932F2820923028D1CF209216
:1007340035282092362820922F28209230286F9333
:100744007F936A2F72EB679F7F916F911694079442
:1007540016940794169407941694079400923128DB
:1007640010923228B5CF209231282092322820923C
:100774002F28209230286F937F936A2F72EB679F04
:100784007F916F9116940794169407941694079486
:1007940016940794009235281092362899CF6F93B7
:1007A4007F936A2F72EB679F7F916F9116940794E2
:1007B40016940794169407941694079400923D286F
:1007C40010923E28A21101C083CFA0918C0AB0914F
:1007D4008D0AA0933928B0933A2820923F2820927A
:1007E400402876CFBA2FA07FA295BF70A09341284E
:1007F400B0934228209243286BCFBA2FA07FA295B2
:10080400BF70A0934428B093452820924628209294
:1008140047285ECFA09348285BCF5ACF59CF58CFF3
:10082400B0910028B07FBA2BB0930028966050CFC7
:10083400A0930C284DCFA09349284ACFA295A8682D
:10084400FA2EF0920128976043CFA295AF77A86063
:10085400FA2EF092012897603BCF3ACF39CFA0937C
:100864004B2836CFE0911828F0911928309609F0DA
:100874002FCFE0911F28F0912028309609F028CF3F
:10088400E0912528F0912628309609F021CFBA2F3F
:10089400BF70C0910728BC0FB73508F0B6E5E4E394
:1008A400F0E0BB0FEB0FF21DC591D491C0934C281F
:1008B400D0934D28A295AF70AA0FA3956F937F9301
:1008C4006A2F72EB679F7F916F9116940794169429
:1008D4000794169407941694079400924E28109245
:1008E4004F282092502820925128F2CEE0911828C7
:1008F400F0911928309609F0EBCEE0911F28F09181
:100904002028309609F0E4CEE0912528F09126289D
:10091400309609F0DDCEBA2FBF70C0910728CB1BEB
:1009240008F4C0E0E4E3F0E0CC0FEC0FF21DC59155
:10093400D491C0935228D0935328A295AF70AA0F94
:10094400A3956F937F936A2F72EB679F7F916F914B
:10095400169407941694079416940794169407947F
:1009640000925428109255282092562820925728F5
:10097400AFCEA0935828ACCEE6E3F4E1EA0FF21D23
:10098400A695A795A795B0910028CB2FB07CAB1363
:1009940001C09ECED490CF73CB2BC093002898CEA9
:1009A40097CE96CE95CE94CEB0930728A3E0B2E02E
:1009B400B0931528A0931A28B0932128B093272820
:1009C400B0932C2820921E28209224282092332889
:1009D40020923428209237282092382820923F28C9
:1009E40020924028A0918C0AB0918D0AA0933928B6
:1009F400B0933A2820920128976020924C282092A4
:100A04004D2820925028209251282092522820923A
:100A140053282092562820925728FBD059CEB755F8
:100A2400A0910028A07FAB2BA09300289660F1D062
:100A34004FCEB756B0930F28ECD0FFC020921328A6
:100A440020921428209218282092192820921F28D6
:100A540020922028209225282092262820922A2895
:100A640020922B2820921E28209224283196B4917B
:100A7400EBE0F2E0EB0FF21DEE0FFF1FA591B49136
:100A8400AA0FBB1FEA2FFB2FB4913296A6E0AA95BA
:100A940019F0B69578F0FBCFA3E0B2E0B093152837
:100AA400A0931A28B0932128B0932728B0932C2818
:100AB400BAD00ECEC591D591A53039F0A43079F0D5
:100AC400A330D9F0A23059F13CC0C0931328D0937D
:100AD400142841D0C0931728D0931628D8CFC09398
:100AE4001828D093192820924C2820924D2820921F
:100AF4005228209253283AD0CACFC0931F28D093AB
:100B0400202820924C2820924D282092522820926E
:100B1400532821D0C0932328D0932228B8CFC09340
:100B24002528D093262820924C2820924D282092C4
:100B34005228209253280FD0C0932928D0932828D4
:100B4400A6CFC0932A28D0932B2805D0C0932E2853
:100B5400D0932D289CCFEF93FF93EC2FFD2FEE0F16
:100B6400FF1FC591D491FF91EF910895EF93FF93E7
:100B7400EC2FFD2FEE0FFF1FC591D591C0931C28BC
:100B8400D0931B28C491C0931D28FF91EF91089521
:100B9400B0911728BF3F19F0B395B0931528B091C1
:100BA4001C28BF3F19F0B395B0931A28B09123289D
:100BB400BF3F19F0B395B0932128B0912928BF3FC6
:100BC40019F0B395B0932728B0912E28BF3F19F0A0
:100BD400B395B0932C281DD07BCDE0910828F091DB
:100BE4000928A0910A28B0910B281A96A0930A28E4
:100BF400B0930B28EA0FFB1FA591B491AA0FBB1F5A
:100C0400A0930D28B0930E28209211282092122828
:100C14005FCDE0911128F09112283196E0931128CC
:100C2400F09312280895E0911128F0911228329639
:100C3400E0931128F093122808956F937F936091A5
:100C44000C28A62FA150DA2FB0915828C09159280A
:100C540020925828B21551F0B61740F4B0930F28DB
:100C640020921028DB1BD093592826C0C21521F0EE
:100C740020925928AC2F0CC0B0914928C0914A2821
:100C8400B61718F0B0E020924928C21509F0AC2F2D
:100C940070910F28679F0A0E121C0B0E121C0092F3
:100CA4000F281092102820924A28B21529F0DB1B35
:100CB400A0934A28209249287F916F9106C0A150A1
:100CC400B209A0930F28B0931028E0911328F09153
:100CD40014283096A1F1EE0FFF1FA0911528EA0FFA
:100CE400F21DB0911728BA1729F4A0911628AB1752
:100CF40010F003C0A395A0931528B491BF3F69F4E5
:100D0400B0911728BF3F29F4B0911628B093152845
:100D1400DCCFA250A0931528D8CFEEE6F4E1B2952B
:100D2400EB0FF21DB0910028BF70A0914728A030AE
:100D340081F4EB0FF21DB491B093062824C0B09156
:100D44000028BF70A0914728A030A1F4B0930628D2
:100D54001AC0BA1B40F039F0B1E0EB0FF21DB491A8
:100D6400B093062810C0B1E0EB0FF21DB491B0931C
:100D7400062809C0BA1B20F019F0B093062803C056
:100D8400B1E0B0930628E0911828F0911928309624
:100D9400D9F1EE0FFF1FA0911A28EA0FF21DB091AE
:100DA4001C28BA1729F4A0911B28AB1710F003C014
:100DB400A395A0931A28B491B03809F041C0A1506A
:100DC400A0931A28B0911D28B13048F0B0911C2886
:100DD400BF3FD1F4B0911B28BF3F99F415C0B09127
:100DE4001C28BF3F21F4B0911B28BF3F51F4C09190
:100DF4002F28D0913028209669F4A150A0931A2866
:100E0400C2CFB0931A28BFCFC0912F28D0913028D9
:100E1400209699F0D695C795D795C795D795C79538
:100E2400D795C795D795D295C0932F28D0933028BE
:100E3400CF70A0910728AC0F2CC0A091072829C01F
:100E440020921E2820922428A0911D28A13010F061
:100E540069F00EC0A0910728AB0FB7FD04C0A735F9
:100E6400C0F0A6E516C0A7FDA0E013C0AB2F11C0CB
:100E7400A0910728AB0FB7FD08C0A0930728A7359A
:100E840040F0A6E5A093072804C0A7FDA0E0A09326
:100E94000728E4E3F0E0AA0FEA0FF21DA591B4914C
:100EA400A0938C0AB0938D0AA0933B28B0933C285E
:100EB40000C0E0911F28F0912028309609F423C047
:100EC400EE0FFF1FA0912128EA0FF21DB0912328F5
:100ED400BA1729F4A0912228AB1710F003C0A395E8
:100EE400A0932128B491B03889F4A150A09321286B
:100EF400B0912328BF3F39F4B0912228BF3F19F0A5
:100F0400B0932128D6CFB0911E2805C0A0911E28E9
:100F1400BA0FB0931E28A0914B28BA0F6F937F93FA
:100F24006B2F72EB67037F916F911694079416945D
:100F34000794169407941694079413FE02C0B0EF16
:100F44001B2AA0918C0AB0918D0AA00DB11DC091ED
:100F54003328D0913428AC1BBD0BC0913728D091D5
:100F64003828AC0FBD1FC0915028D0915128AC1B1C
:100F7400BD0BC0915628D0915728AC0FBD1FA0932C
:100F84008C0AB0938D0AE0912528F091262830969A
:100F940009F43CC0EE0FFF1FA0912728EA0FF21DB1
:100FA400B0912928BA1729F4A0912828AB1710F07A
:100FB40003C0A395A0932728B491B03889F4A15015
:100FC400A0932728B0912928BF3F39F4B09128284D
:100FD400BF3F19F0B0932728D6CFB091242805C07D
:100FE400A0912428BA0FB09324286F937F936B2F7A
:100FF40072EB67037F916F91A0918C0AB0918D0A77
:10100400A00DB11DA0938C0AB0938D0AE0912A28FB
:10101400F0912B283096B1F1EE0FFF1FA0912C28F0
:10102400EA0FF21DB0912E28BA1729F4A0912D28A9
:10103400AB1710F027C0A395A0932C28B491BF3F01
:1010440071F4A150A0932C28B0912E28BF3FD1F465
:10105400B0912D28BF3FB1F0B0932C28D7CFE6E351
:10106400F4E1EB0FF21DB695B795B795A091002862
:10107400CA2FA07CBA1301C005C0D490CF73CB2B68
:10108400C0930028E0913128F0913228309651F035
:10109400A0913328B0913428AE0FBF1FA0933328FA
:1010A400B0933428E0913528F0913628309651F0E9
:1010B400A0913728B0913828AE0FBF1FA0933728CE
:1010C400B0933828E0913D28F0913E28309609F4F9
:1010D40048C0A0913928B0913A28109609F441C02B
:1010E400C0913B28D0913C28AC17BD0711F030F0DB
:1010F4001FC02092392820923A2833C0CA1BDB0B28
:10110400A0913F28B0914028AE0FBF1FCA1BDB0B34
:1011140080F3A0933F28B0934028A0918C0AB0910B
:101124008D0AAC1BBD0BA0938C0AB0938D0A19C019
:10113400AC1BBD0BC0913F28D0914028CE0FDF1FC0
:10114400AC1BBD0BB0F2C0933F28D0934028C09194
:101154008C0AD0918D0ACA0FDB1FC0938C0AD093DE
:101164008D0AA0914128A21509F45CC0B0914228CF
:10117400C0914328CA0FC43608F0C356C09343280D
:10118400C03128F0C03228F0C03330F007C0CF702F
:1011940029C0C06FC09526C0CF7003C0C06FC09572
:1011A40000C0B295CB0FE2EEF0E0EC0FF21DC4915B
:1011B4006F937F936C2F72EB679F7F916F9116945F
:1011C4000794169407941694079416940794A09180
:1011D4008C0AB0918D0AA00DB11DA0938C0AB09316
:1011E4008D0A20C0B295CB0FE2EEF0E0EC0FF21DB9
:1011F400C4916F937F936C2F72EB679F7F916F9174
:1012040016940794169407941694079416940794C6
:10121400A0918C0AB0918D0AA019B109A0938C0AEF
:10122400B0938D0AA0914428A215F1F0B0914528FD
:10123400C0914628CA0FC43610F0C0E0C356C0930C
:101244004628C695C4FF01C002C0CF7003C0C06F5A
:10125400C09500C0B295CB0FE2EEF0E0EC0FF21DAA
:10126400C491C695C0934728B0914828B215E9F0B7
:10127400A0910528C0910028DA2FEC2FE295D07FA9
:10128400E07FED1709F0AE2FB7FD04C0AB0F28F4D3
:10129400A0EF03C0AB0F08F0A0E0A0930528A07F47
:1012A400A295C07FCA2BC0930028E0914C28F091EE
:1012B4004D28309631F1A0915028B0915128C09119
:1012C4008C0AD0918D0ACA1BDB0BCE17DF0710F0F6
:1012D40009F068F4EC1BFD0BAE0FBF1FA093502860
:1012E400B093512820924C2820924D280AC0C091D6
:1012F4004E28D0914F28AC0FBD1FA0935028B09317
:101304005128E0915228F0915328309631F1A09160
:101314005628B0915728C0918C0AD0918D0ACA0FD3
:10132400DB0FCE17DF0710F009F068F4EC1BFD0BA0
:10133400AE0FBF1FA0935628B0935728209252286F
:10134400209253280AC0C0915428D0915528AC0F3C
:10135400BD1FA0935628B0935728DF91CF919FC902
:10136400BFB7BF93F894DD0CD21CB1E0B093860AEA
:10137400BF91BFBF1895BF2DB770F9F4DF93DF2D70
:10138400D295D77011F4DF9119C0A0918C0AB09155
:101394008D0AB695A795DA95E1F7F7FE02C0A095F8
:1013A400B095D0918C0AAD0FD0918D0ABD1FA0933A
:1013B4008C0AB0938D0ADF9101C0FA9497FF0895C7
:1013C400F0900128F2949F77089596FD10C00030A4
:1013D40011F00A950895009100280F7095FF02C03E
:1013E4001FE00895103009F408951A9508959F7B1D
:1013F400009100280F701FE00895EAE0F4E1ED0F7A
:10140400F21DD4910895057F0A01140228035004A3
:101414001E0507060D0706080C09180A300B600C98
:10142400240D080E100FE6E3F4E1ED0FF21DD49144
:10143400089501030FFC94039903B503D103F40346
:10144400FF030C040F041004110412041A041D04F5
:10145400200427042F043004310434047804BB042A
:10146400BE04D204D304D404D50400000000000058
:101474000000000000000000000000010101010163
:101484000101010101010101010100010101010149
:101494000101010101010101010200010101010138
:1014A4000101010102020202020300010101010122
:1014B400010102020202030303040001010101010C
:1014C40002020203030304040405000101010102F2
:1014D40002020303040404050506000101010102DC
:1014E40002030304040505060607000101010202C4
:1014F40003030404050506060708000101010203AD
:101504000304040506060707080900010102020393
:101514000404050606070808090A0001010202037B
:1015240004050506070808090A0B00010102030463
:10153400040506070808090A0B0C0001010203044C
:101544000506060708090A0B0C0D00010102030435
:1015540005060708090A0B0C0D0E00010203040519
:0A156400060708090A0B0C0D0E0F14
:00000001FF
