:020000020000FC
:040000000C94080F45
:04001C000C946210CE
:100024000C9448100C9452100C9448100C944F17D4
:10003400C758CC53184FA74A77468242C73E413B24
:10004400ED37CA34D331072F642CE6298C27542585
:100054003B234121631FA01DF71B651AEA1884176F
:100064003216F314C613AA129E11A110B20FD00EA9
:10007400FB0D320D750CC20B190B790AE3095509F6
:10008400CF085008D9076807FE0699063A06E10525
:100094008C053D05F104AA0467042804EC03B403A9
:1000A4007F034D031D03F002C6029E02790255022E
:1000B40034021402F601DA01BF01A6018F017801AE
:1000C40063014F013C012B011A010A01FB00ED0001
:1000D400E000D300C700BC00B200A8009E000000EE
:1000E400000000000000000000000000000000000C
:1000F40000000101010102020202020202020000E8
:1001040000010102020303030404040404040000C4
:1001140001020203030404050506060606060000A0
:10012400010203040505060607070808080800017C
:10013400020304060708090A0A0B0C0C0C0C000144
:10014400030507080A0C0D0E0F10111212120002FB
:100154000406080A0C0E10111314151616160002C4
:1001640005070A0C0F111314161718191A1A00038D
:1001740006090C0F121417191B1D1E1F2020000442
:10018400080C1014171B1E21232527292A2A0005D1
:100194000B11161B2025292D31343638393A000825
:1001A4001019212930373D43484C50535556000C03
:1001B4001824303B46505962697075797C7E001270
:1001C4002537495A6A7987939EA8B0B6BBBE0018F2
:1001D400314A61788DA1B4C5D4E0EBF4FAFD06018F
:1001E400740121041207BC0BF20DA1014F045D0739
:1001F400EF0BF20DC001970482070F0CF20DDA0128
:10020400AD04CE073D0CF20DEC01BD0482073D0C9C
:10021400F20DF501EA041B08670CF20DC001970406
:1002240082070F0CF20D5B02AD04CE073D0CF20DFC
:100234007002000582073D0CF20D8502220561085B
:10024400670CF20DBA025305B108A30CF20DD602E5
:100254006B050009D40CF20DEC0283055509D40C8E
:10026400F20DF202A005AA092C0DF20D2803C10516
:10027400A508980CF20D3A03D205EA09050DF20D12
:100284006D030C06390A570DF20D3A033906EA09D3
:10029400570DF20D85036C06890A7A0DF20D3A03A7
:1002A400D205EA09050DF20D6D030C06390A570D46
:1002B400F20DBF03A106D70A570DF20DD703D906D5
:1002C400260B940DF20DFD03F506570B570DF20D99
:1002D40011040007A30BB90DF20D1F040E07B50B93
:1002E400B30DF20DF0042761E30D6DF1035767269A
:1002F400616DF103576725616BF1025767246168EB
:10030400576A23616A1B68576827616857682661C2
:1003140069F1035767266167576726616757672541
:100324006167F102576724616857682361685768F9
:10033400226167F10357672161685768FF002761ED
:100344006DF103576726616DF103576725616BF102
:10035400025767246168576A2261E30FEBFEFA02D1
:100364006AEB006CEBFE701666E300EB00FA006DBE
:10037400F1035F6716666DF1035F67FF576E225ED8
:10038400E30AFA02EB00E5006A5868225E685868DE
:10039400225E68586A225E6E586E225EFA026A58BD
:1003A40068225E685868225E68586A225E6EFF00A2
:1003B400586E225EFA026A5868225E685868225EA5
:1003C40068586A1E66E30FFA01EBFE6E20667E2310
:1003D400666EFF00226676EB00762566EBFE76EB12
:1003E400006EEB046EFFEBF06E225EE30AFA02EBA2
:1003F400006A5868225E685868225E68586A225EFD
:100404006E1E66EB00FA01E5CC67EBE2FA006720AA
:1004140066EB00FA0067EBE2FA0167FA0167FA009B
:10042400671A66EB00FA0067EBE2FA01671E66EBF7
:1004340000FA0167EBE2FA0067FA0067FA0167174E
:1004440066EB00FA0167EBE2FA00671A66EB00FA62
:100454000067EBE2FA0167FA0167FA00670B66EBE3
:1004640000FA0067EBE2FA01670F66EB00FA016736
:10047400EBE2FA00671666EB00FA0067EBE2FA01BA
:10048400671966EB00FA0167EBE2FA00671666EBA0
:1004940000FA0067EBE2FA01670F66EB00FA016706
:1004A400EBE2FA00670A66EB00FA0067EBE2FA0196
:1004B40067FF586E225EFA026A5868225E685868BE
:1004C400225E68586A1266E30FFA00EBFE6E146649
:1004D4006E17666E1E666E1C666EFF001B66EBF87A
:1004E40069EB006BEB0076EBFE6E2066E300EBF845
:1004F400E5CC69EB006BEBFC6AE30AEB0270EB04FE
:100504006CEB066AFF00EBF06E225EFA02EB00E58C
:10051400006A5868225E685868225E68586A225EDB
:100524006E2E64E300FA01682F67F1025D6731649F
:1005340067F1025D672964682A67F1025D672C64CC
:1005440067F1025D672664682767F1025D672964C5
:1005540067F1025D672264682367F1025D672564C1
:1005640067F1025D672264681D681A681668FF00F7
:100574001462FA016AE3076A1BE3006AE3076A1973
:10058400E3006AE3076A17E3006AE3076A19E30012
:100594006AE3076A5F6A1962E300685F681B626A5C
:1005A400166A146A126AFF00146A126A146A126ADA
:1005B400146A086A12681268146A166E1B6E18E3CD
:1005C4000EFA02681E682068226827682A682C6868
:1005D4002E68FF001861E30FFA00EB00861786FF10
:1005E4000F66E310FA00EBFC6AEB0268EB04681197
:1005F40066EBFC6AEB0268EB04681266EBFC6AEBE0
:100604000268EB04681466EBFC6AEB0268EB0468AE
:100614001764E300EB00F602FA0167F1025B671965
:100624006468195B681B64681B5B681D64681D5BF8
:10063400681E64681E5B68206468205B68226468C6
:10064400225B68236468235B685768FF6E245FFA43
:1006540000F8A2F6026D59E30667265FE3006D59C0
:10066400E30667295FE3006D59E306EE0087FF00A8
:100674000F66E30EFA01F600EB006816681B680FBC
:10068400682766E30FFA00675F672766685F682775
:1006940066685F680F66E30EFA0168126816681BE5
:1006A40068166812680F680A68126816680A68256E
:1006B40066E30FFA00675F672566685F682566680A
:1006C4005F680A66E30EFA01680F6812681668121A
:1006D400680F680A68FF27E30FEBF66B275FE300F8
:1006E400F601FA00EB006A276A276A2768276A2757
:1006F4006A2768276A276A276A266A2668276A2972
:100704006CE3076DFF006A2B5FE300F711F602FA52
:100714000067F6006BE3076C2AE300F60267F60055
:100724006BE307702E64E300FA00F60267F1015DE3
:10073400672F6467F1025D67316467F1015D6729C2
:100744006467F1025D672A6467F1015D672C646781
:10075400F1025D67226467F1015D67236467F1025A
:100764005D672564685D682864F6006AEBFC68E3ED
:100774000B68EBFA68EBF868FF001B66E310EBFA12
:10078400F6006AEB006AEB026AEB066A1966EBFA9A
:100794006AEB006AEB026AEB066A1766EBFA6AEB2D
:1007A400007AEB026AEB066AFF00EBF06E1D64E36D
:1007B40000EB0067F1015D671F64685D6820646891
:1007C4005D682464685D682764685D682964685DA1
:1007D400682C6467F1025D672E646A5D6A2261F6C3
:1007E400026CE3076A5A682961E3006DF1025A67F3
:1007F4002C61685A68FF1B66E310F600EBFA6AEB9B
:10080400006EEB026EEB006CEB046C1966EBFA6A9B
:10081400EB006EEB026EEB006CEB046CFF002766E2
:10082400E30FF600EBFA6AEB006EEB026EEB006C82
:10083400EB046CEB0072EBFE7AFF57A6FF00276611
:10084400E30FFA01EBFA682A66682E66682E5C6884
:100854002D666A2766682C66682C5C682C66682C92
:100864005C682766682A666A2C66682C5C6827665A
:10087400682A66682E66682766682D666A27666831
:100884002C66682C5C682C66682C5C682766682A71
:10089400666A2C66682C5C68FF002766FA01EBFA2E
:1008A400682A66682E66682766682D666A27666801
:1008B4002C66682C5C682C66682C5C682766682A41
:1008C400666A3164EB006AF7A267F8A267F7A26769
:1008D400F8A267F7A267F8A267F7A267F8A267F71A
:1008E400A267F8A267F7A267F8A267F7A267F8A25F
:1008F40067F7A267F8A267EBFEF7A267F8A267F7AB
:10090400A267F8A267F7A267F8A267F7A267F8A23E
:1009140067F7A267F8A267F7A267F8A267F7A2676A
:10092400F8A267F7A267F8A267FF1566E300EB0079
:10093400FA006EE30769F1035F671666E3006EE38E
:100944000772EBFE761266E300EB006DF1025F675F
:1009540014666D5F67FF15666EE30769F1035F67F1
:100964001666E3006EE30772EBFE821666E300EBA5
:1009740000685F68FF001B6669F1035F67166669BC
:10098400F1035F67146669F1035F67126667F1023A
:100994005F671466685F680F66685F680F6667F173
:1009A400035F67126669F1035F670F6667F1025FB1
:1009B4006712666EE30772EBEC681266E300EB0005
:1009C400685F68146669F1035F671266685F68FFB1
:1009D400156671F1035F671566F7216EE3077261AF
:1009E4006E5D6A5A6A576A1666E30069F1035F67C7
:1009F40016666CE30767F1025F67FF001B66E3009E
:100A04006D5F671B6667F1015F671D66685F681E3F
:100A1400666B5F671D66695F671B66685F681D6656
:100A240067F1025F671B666CE307725F6A1266E335
:100A340000685F681266695F671266695F67FF0036
:100A4400196669F1035F67176667F1025F671666E7
:100A54006CE3077A2E61E300FA00F602682F67F16F
:100A6400025B67316167F1025B672961682A67F19C
:100A7400025B672C6167F1025B672661682767F197
:100A8400025B67296167F1025B672261681E66FA8F
:100A940002F600685F681E66695F671E66695F67C5
:100AA400FF002766FA026D5F672766695F67256640
:100AB40067F1025F6727666CE306725F725B6A2701
:100AC40066E3006B5F6729666B5F672A66695F6729
:100AD400FF002866F7016EE306715F672566E30091
:100AE400695F672566695F67276667F1025F67224A
:100AF400666CE306725F6E5B6A1E66E300685F689D
:100B0400FF0020666B5F672266685F6A22666CE39B
:100B1400066B5F671B66E300695F671E666CE3062E
:100B24006C5F6A1E66E300685F6822666B5F67231A
:100B3400666B5F6725666861675F67FF22666CE3C3
:100B44000674EBFE722364E300EB0067F1025B675B
:100B5400256468255B68276468275B6829646829BD
:100B64005B682A64682A5B682C64682C5B682E6462
:100B7400682E5B682F64682F5B685768FF006E24DB
:100B840064FA00F8A26D5DE306672664E3006D5D18
:100B9400E306672964E3006D5DE306EE0087FF006A
:100BA4002A64E300FA00EB0068EBFA682964EB00BE
:100BB40069F1035D67296467F1025D672764685D15
:100BC4006827646861685D682264685D6827646991
:100BD400F1035D672A64695D672C64F73268EBFA98
:100BE40067EBF0672C64EB0069F1035D672A6467C7
:100BF400F1025D672C64685D682A64EBFE6CE307B0
:100C04006E2264E300EB0067F1026167226467F11E
:100C1400036167FF2764685D68276469F1035D67A2
:100C2400276469F1035D67276467F1025D672764E0
:100C34006861682764685D68276467F1035D6727F6
:100C44006469F1035D67276469F1035D672764687C
:100C54005F68266469F1035D67266467F1025D6776
:100C64002764685D6829646CE3076C616CFF2A641F
:100C7400E300FA0068EBFA682964EB0069F1035DAC
:100C840067296467F1025D672764685D68276468A3
:100C940061685D682264685D68276469F1035D6763
:100CA4002A64695D672E646AE3076C5D682764E300
:100CB4000069F1035D672F6469F1035D672E646A5F
:100CC4002C61E30A69F1035D672E64E300EB0069BC
:100CD4005D67FF002B64F7116CE3076A5D682A64A3
:100CE400E3006CE307705D6A2E66E300FA00F6FF2A
:100CF40067F1015D672F6667F1025D67316667F131
:100D0400015D67296667F1025D672A6667F1015D27
:100D1400672C6667F1025D67226667F1015D6723F0
:100D24006667F1025D672566685D682F66F6006A8E
:100D3400EBFC68E30B68EBFA68EBF868FF002964E6
:100D4400E300FA00F7116861675D672964EB0069E5
:100D5400F1035D67296467F1025D672764685D6874
:100D640027646861685D682264685D68276469F166
:100D7400035D672A64695D672E6468EBFA67EBF0CC
:100D8400672C64EB0069F1035D672A6467F1025D17
:100D9400672C64685D682A64EBFE6AEBFA68226477
:100DA400EB00695D672264695D672E646AFF2DE864
:100DB400016E2E6CE306EBFE762C61E300F602E88E
:100DC4000067F1025A672E616A5A6A2264F600EBE0
:100DD400006CE3076A5D682964E3006DF1025D67F6
:100DE4002C64685D68FF2A6467F1025D67296468A2
:100DF4005D6827646CE3077AEBFE86FF0F64E30FFC
:100E0400F600EBFA6AEB006EEB026EEB006CEB049F
:100E14006CEB0072EBFE7AFF0F66EBF66C57A0FFEB
:100E24003366E300E770671BE7006CF10357673331
:100E340066E770671AE7006CF10357673366E7707B
:100E44006719E7006AF10257673366E7706718E7C6
:100E54000067576A3366E7706717E7006933E7701E
:100E64006857683366E770671BE70067576833663F
:100E7400E770671AE70068F10357671A66675767F0
:100E84001A66675767196667F10257673366E77032
:100E94006718E7006757683366E7706717E7006706
:100EA4005768166667F10357673366E7706715E797
:100EB40000675768FF003366E770671BE7006CF153
:100EC4000357673366E770671AE7006CF1035767E7
:100ED4003366E7706719E7006AF10257673366E71C
:100EE400706718E70067576A3366E7706716E700AC
:100EF40079576E3366E71068336830682C68FF00F2
:100F040033E770671BE70068F10257670F6667579E
:100F1400670F666757673366E770671BE700690FFB
:100F240067576716666833E7706819E70067F10268
:100F3400576716666857683366E770671BE700688B
:100F4400F1025767166669F10257673866E77067FA
:100F54001EE70068F10257671266675767126667F3
:100F640057673866E770671EE700691267576719A5
:100F7400666838E770681CE70067F102576719660E
:100F84006857683866E770671EE70068F1025767BC
:100F9400196669F1025767FF3566E770671DE70058
:100FA40068F10257671166675767116667576735B7
:100FB40066E770671DE7006911675767186668354B
:100FC400E770681BE70067F102576718666857689F
:100FD4003566E770671DE70068F1025767186669B0
:100FE400F10257673666E770671CE70068F102573D
:100FF40067106667576710666757673666E77067F6
:101004001CE700691067576717666836E770681A47
:10101400E70067F102576717666857683666E77036
:10102400671CE70068F1025767176669F1025767A2
:10103400FF003566E770671DE70068F10257671126
:101044006667576711666757673566E770671DE718
:1010540000691167576718666835E770681BE70011
:1010640067F102576718666857683566E770671D49
:10107400E70068F1025767186669F1025767366638
:10108400E770671CE70068F10257671066675767E7
:1010940023666836E770681CE70069576717666857
:1010A40036E770681AE70067F102576717666857F2
:1010B400683366E3096833682C682C68FF0033E3FF
:1010C40000E7706717E70068F1025767176667570C
:1010D4006717666757673366E7706717E7006A57ED
:1010E400671B666833E770681BE70069F10257679E
:1010F4001D666833E770671DE70068F10257671ED5
:101104006669F10257673866E7706716E70068F1A9
:10111400025767166667576716666757673866E744
:10112400706716E7006A57671A666838E770681AC6
:10113400E70069F10257671B666833E7156833688F
:101144002E682E68FF007833E71569F10257672E81
:10115400666833E71568336833E7708AFF0038E759
:10116400706720E700691467F1015767146667F137
:101174000257673866E7706720E70068F10357672E
:101184001B666A38E7706720E70067F1025767203B
:101194006667146757671B666838E7706720E7005F
:1011A40068F10357671B666A38E770671CE70069D4
:1011B4001067F1015767106667F10257673866E7F1
:1011C40070671CE70069106757671C6667F103576F
:1011D400673866E770671CE70067F10257671C66AB
:1011E40067106757671C666838E7706717E7006819
:1011F400F10357671C6669F1035767FF3866E770A8
:10120400671BE700690F67F10157670F6667F10213
:1012140057673866E770671BE700690F6757671BF6
:101224006667F10357673866E770671BE70067F185
:101234000257671B66670F6757671B666838E77056
:101244006716E70068F10357671B6669F103576780
:101254003866E7706719E700690D67F10157670D94
:101264006667F10257673866E7706719E700690D2A
:10127400675767196667F10357673866E770671938
:10128400E70067F10257671966670D6757671966C4
:101294006838E7706716E70068F1035767196669ED
:1012A400F1035767FF003866E7706718E700690CB9
:1012B40067F10157670C6667F10257673866E77094
:1012C4006718E700690C675767186667F103576783
:1012D4003866E7706718E70067F1025767186667B2
:1012E4000C67576718666838E7706715E70068F198
:1012F400035767186669F10357673866E77067171D
:10130400E700690B67F10157670B6667F1025767DE
:101314003866E7706717E700690B675767176667F2
:10132400F10357673866E7706717E70067F10257FC
:10133400671766670B67576717666838E770671241
:10134400E70068F1035767176669F1035767FF0001
:101354003866E7706716E700690A67F10157671690
:101364006667F10257672E66E7156A16E700675746
:1013740067166667F10357673866E77067F10257C7
:10138400671666E70067F103576716666857670ACA
:1013940066672EE71569F10357672966E70069F167
:1013A4000357672366E70067F102576722666857A9
:1013B4006820666857681E666857681D66685768BF
:1013C4001B666857681966685768176668576AFF26
:1013D4003366E770671BE70068F10257670F6667BB
:1013E40057670F666757673366E770671BE70069DF
:1013F4000F6757670F666833E770680FE70067F198
:10140400025767126669F10257673366E770671619
:10141400E70068F10257671B6669F102576738668F
:10142400E770671EE70068F102576712666757673F
:1014340012666757673866E770671EE700691267C8
:10144400576712666833E7706812E70067F102575E
:1014540067166669F10257673366E7706719E70034
:1014640068F10257671E6669F1025767FF00336629
:10147400E7706717E70068F10257671766675767F1
:1014840017666757673366E7706717E700690F6782
:1014940057671B666833E770681BE70067F10257FC
:1014A400671D6669F10257673366E770671EE700D8
:1014B40068F1025767176669F10257673866E77083
:1014C4006716E70068F1025767166669F102576705
:1014D4003866E770671AE700671AE30469F1025790
:1014E400671B66E3006833E770681BE70067F10277
:1014F40057671C6669F10257673366E770671DE733
:101504000068F1025767166669F1025767FF336690
:10151400E7706717E70068F1025767176667576750
:1015240017666757673366E7706717E700690F67E1
:1015340057671B666833E770681BE70067F102575B
:10154400671D6669F10257673366E770671EE70037
:1015540068F1025767176669F10257673866E770E2
:101564006721E7006722E30468236838E300E77033
:1015740067246725E304E70068266833E300E7355A
:1015840068336833E770681BE70067F10257673315
:1015940066E770671CE70069E30768E7106833E3F0
:1015A40000E7706833E77068FF0033E7706714E79B
:1015B4000068F102576714666757671466675767D0
:1015C4003366E7706714E700691467576720666835
:1015D40033E770671EE70068F10257671E6669F11A
:1015E4000257673366E7706719E70068F1025767C7
:1015F4001E6669F10257673866E770671CE7006882
:10160400F10257671066675767106667F1025767FC
:101614003866E770671CE7006AF102576717666867
:1016240033E770671CE70068F10357671C6669F1CC
:101634000357673366E7706717E70068F102576777
:101644001C6669F1025767FF3366E770671DE700A0
:1016540068F1025767116667576711666757673302
:1016640066E770671DE7006AF1025767186668331A
:10167400E7706818E70067F10257671B6669F102B3
:1016840057673366E770671DE70068F10257672004
:101694006669F10257673866E7706DF1025767387B
:1016A40066E7706716E7007DFF0033E7706717E7AA
:1016B4000068F102576717666A33E770671BE70033
:1016C4006717E30469F10257671B66E3006833E7B1
:1016D40070681BE70067F10257671D6669F10257DE
:1016E400673366E770671EE70068F102576717669D
:1016F40069F10257673366E7706719E70068F1021A
:10170400576719666A33E770671DE7006719E304D2
:1017140069F10257671D66E3006833E770681DE7E7
:101724000067F10257671E6669F10257673366E77F
:10173400706720E70068F1025767196669F102577C
:1017440067FF3366E770671BE7009527E750695723
:10175400672766E7806957673F66E7F06830E715F3
:101764006833E7706AFF2EE72568E73068E7F068BA
:1017740057A0FF0066E30AEBFAE9A16BEBFCF80162
:101784006964E300EBF6E9006BEB00F8016964EBD4
:10179400F66A5767EB0067EBF66A5767EB0067E397
:1017A4000AEBF6E9A26AE303EB00E9006AE300EB63
:1017B400F6685768EBF66AEB006757675767576731
:1017C4005767F102576757EBF6685768E301EB0078
:1017D4006AE30C68E300EBF66AFFEBF8E9A26AE35C
:1017E40001EB00E90068E30268E30C6AE30268E3E2
:1017F4000168E30268E30168E30268E3016AE30263
:1018040068E300E983EBFC7AE3026AE3016AE90036
:10181400EB006AE30268E30168FFE300E9A1EBF887
:101824006AE302E900EB0068F10267F10167E30192
:101834006AE30268E303FA0168FA0068E3026AE310
:101844000368E3016AE30268E30168E30368E3020F
:101854006AF10267F10167E3016AE30268E303FAEC
:101864000168FA0068E3026AE30368E3016AE302D9
:1018740068E30168FF00E30368E3026AF10267F1C9
:101884000167E3016AE30268E303FA0168FA0068A6
:10189400E3026AE30368E3016AE30268E30168E3DD
:1018A4000368E3026AF10267F10167E3016AE30294
:1018B40068E303FA0168FA0068E3026AE30368E391
:1018C400016AE30268E30168FF00E30368E3026A74
:1018D400F10267F10167E3016AE30268E303FA01D5
:1018E40068FA0068E3026AE30368E3016AE30268F2
:1018F400E30168E30C6AE30268F10267F101E30CB7
:101904006BE30268E303FA0168FA0068E3026AE33E
:101914000368E30167EBEC67EB0067EBEC67EB0054
:1019240067EBEC67EB0067EBEC67FF0076E30268BC
:10193400E30168E303FA0168E301FA006CE30C8A4B
:10194400FF00E300E9A1EBF86EE303E900EB006AB2
:10195400E301E9A16AE303E90068E302E9A168E3BA
:10196400016AE303E90068E302E9A168E3016AE3C9
:1019740003E9006AE301E9A16AE303E9006AE30118
:10198400E9A16AE303E90068E302E9A168E3016805
:10199400E302E90068E303E90068E302E9A168E31C
:1019A400016AFF00E303E9006AE301E9A16AE303D2
:1019B400E9006AE301E9A16AE303E90068E302E9F3
:1019C400A168E3016AE303E90068E302E9A168E3CB
:1019D400016AE303E9006AE301E9A16AE303E900B8
:1019E4006AE301E9A16AE303E90068E302E9A168A3
:1019F400E30168E302E90068E303E90068E302E95C
:101A0400A168E3016AFFE300EBFAE9636CF102E326
:101A140002E90067F10167E30CEB006AE30268E3A3
:101A240003FA0168FA006EE30C6AE30268E30C68E7
:101A3400E3036CF102E30267F10167E30C6AE3027A
:101A440068E303FA0168FA006EE30C6AE30268E3F0
:101A54000C68FF00E30368FA0168E301FA0068E335
:101A640002E900EB0068E3016AE303FA0168E301B9
:101A7400FA0068E30368FA0168E301FA0068E30224
:101A8400E900EB0068E3016AE303FA0168FA00681D
:101A9400E30C69F7016AF7016AF7016AF7016AF76B
:101AA400016AF7016AF7016BFF00E3036CF102E3DB
:101AB4000267F10167E30C6AE30268E303FA016871
:101AC400FA006EE30C6AE30268E30C68E3036CF16A
:101AD40002E30267F10167E30C6AE30268E303FAD5
:101AE4000168FA006EE30C6AE30268E30C68FF0025
:101AF400E3036CF102E30267F10167E30C6AE302BA
:101B040068E303FA0168FA006EE30C6AE30268E32F
:101B14000C68E3017AE30AEBFCE9836EE301EBF280
:101B2400E9006AFFE3036CF102E30267F10167E392
:101B34000C6AE30268E303FA0168FA006EE30C6AD4
:101B4400E30268E30C68E30AEBF876E303FA00EBDC
:101B5400006DF103E30167E30C6AE30268E30C68D8
:101B6400FF00E30AEBF66E576DED0097FF00E30309
:101B74006AE301E94167FA0169E305E900FA0068EB
:101B8400E303E94168E30167FA0169E305E900FA5F
:101B94000068E303E94168E30167FA0169E305E9E1
:101BA40000FA006AE301E94167FA0167E308E90022
:101BB400FA0068E3056AE301E94167FA0169E305AC
:101BC400E900FA0068E303E94168E30167FA01699F
:101BD400E30CE9A1FA006EE303E90068E30C6CFF8F
:101BE40066E300F00369F00467F00369F00467F04A
:101BF4000369F00467F00369F00467F00369F00413
:101C040067F00369F00467F00369F00467F003699F
:101C1400F00467F00369F00467F00369F00467F007
:101C24000369F00467F00369F00467F00369F004E2
:101C340067F00369F00467F00369F00467F003696F
:101C4400F00467FF350E370E390E3B0E3D0E3F0E86
:101C5400420E450E480E4B0E4E0E500E530E550EB0
:101C6400590E5B0E5E0E0100610E0100640E010050
:101C74006D0E0100720E0100780E03007B0EB80E8B
:101C84000500800EF40E0500800EED0E0300820E9A
:101C9400BD0E0500870EFB0E0100930E0300900E8F
:101CA400C10E0100950E1300A30EDB0E030F0100FD
:101CB400AE0E0300610EE00E0300B40EE70EFF0348
:101CC4000F0CFF00FF100F0C0808060605040403A0
:101CD4000302010100FFFF070F0A05020100FF00D4
:101CE400FF090F0D0A0704020100FF00FF03000FA4
:101CF400FF00FF080D0D0707030300FFFF020CFFA1
:101D0400FF070F0F0F090400FF00FF0F0F0F0F0F46
:101D14000F0F0F0F0F0F0F0F0F00FF00FF020F0B1E
:101D2400FF00FF020FFFFF1A0F0D0C0A0908070737
:101D34000605050404030302020202010101010174
:101D440000FFFF130D0D0D0F0F0006060608080017
:101D5400020202030303FF00FF0A0F0A04060A0833
:101D6400060200FFFF020F0C0909FF00FFFF00003D
:101D7400010203040580FFFF0000FC0A0680FFFF48
:101D840000FFFFFEFEFDFDFCFCFBFBFAFAF9F9F88F
:101D9400F8F7F7F6F6F5F5F4F4F3F3F2F2F1F1F0FF
:101DA400F0EFEFEEEEEDEDECECEBEBEAEAE9E9E86F
:101DB400E880FF030000001818181880FF030000D3
:101DC4000C0C8000FFFF00F48000FF0300000C0CEB
:101DD4001880FF023280FF02FCFE0103030402FFAD
:101DE400FDFD8000FF020202FFFEFEFFFE01010274
:101DF4008000FF021480FF020F80FF020A80FFFFB1
:101E040002FFFF02000002020202FF00B8EDB093DD
:101E14003400B0E0B09361002224B0E3B093002812
:101E2400B0E8B0930128BFEFB0930228B093032821
:101E3400B0930428B2E0B0930A2820920B28E2EE73
:101E4400F1E0E0930828F0930928C591D591C09357
:101E54000C28D0930D2820920E28A591B491AA0F96
:101E6400BB1FA0931228B0931328B0E0209214282B
:101E7400209215282092162820921728BFEF20922E
:101E84001A28B0931B28B0931C2820921F28B093C3
:101E94002028B0932128B093222820922628B0939A
:101EA4002728B093282820922C28B0932D28B0936B
:101EB4002E2820923128B0933228B09333282092D0
:101EC40018282092192820921D2820921E2820923A
:101ED4002328209224282092252820922928209201
:101EE4002A2820922B2820922F28209230282092D2
:101EF4005F28209260282092612820926228BFEFF8
:101F0400B0B90FE0109100281F70909100289073D1
:101F1400906420920628B0930528D0910428DFEF1E
:101F2400ED2ED0910028D1E0DD2EF0900128F2941E
:101F34009068DFEFD0930F28209210282092112868
:101F4400209234282092352820923628209237284F
:101F5400209238282092392820923A2820923B282F
:101F640020923C2820923D2820923E2820923F280F
:101F740020924028209241282092422820924328EF
:101F840020924428209245282092462820924728CF
:101F9400209248282092492820924A2820924B28AF
:101FA40020924C2820924D2820924E2820924F288F
:101FB400209250282092512820925228209253286F
:101FC400209254282092552820925628209257284F
:101FD400209258282092592820925A2820925B282F
:101FE40020925C2820925D2820925E28B0E7B0936E
:101FF400010AB1E7B0930A0AB5E1B093280AB5E043
:10200400B093290ABBE2B0932A0ABAE0B0932B0A30
:10201400B1E4B0932C0ABFE0B0932D0AB7E5B093B6
:10202400260AB4E1B093270ABBE0B093000AB0E0FB
:10203400B093810AB1E0B093850AB0910228B093BD
:102044008C0AB0910328B0938D0AB3E0B093800A50
:102054007894D0FE15C0E21499F0C0918C0AD9E5A9
:10206400CD17C0918D0AD0E0CD0750F0C0918C0AF5
:10207400D6E6CD17C0918D0AD9E5CD0708F402C084
:1020840021B8E7CFD0910628D1B9E3CFBFB7BF932A
:10209400F89438D7B0E5B0930B0ABF91BFBF189539
:1020A400BFB7BF93F8942ED7F3FC02D795FD02C0B7
:1020B400E210EA94B1E2B0930B0ABF91BFBF189546
:1020C400BFB7BF93F894CF93DF93A0910F28AF3F8E
:1020D400A9F4A0911028A2113BC0A0911128A2112B
:1020E40046C0A0910A28B0910B28C0910C28D09129
:1020F4000D28AC17BD0708F461C0A0E0E0910828E2
:10210400F0910928CC27DD27A395AA9511F02A96EA
:10211400FCCF2296C0930A28D0930B28EC0FFD1F06
:10212400A591B491AA0FBB1FA0931228B0931328B2
:1021340020921628209217282092142820921528DD
:10214400AFEFA0930F28209210282092112836C0B8
:10215400DF91CF91BF91BFBFF894AFEFA0930F2849
:102164002092102820921128209206281895E09198
:102174000828F0910928A0910A28B0910B281A96F2
:10218400A0930A28B0930B28EA0FFB1FA591B491E2
:10219400AA0FBB1FA0931228B093132820921628CD
:1021A400209217282092142820921528AFEFA0938C
:1021B4000F28209210282092112800C0A0911428E2
:1021C400B0911528109609F0FDC2E0911228F09103
:1021D4001328A0911628B0911728EA0FFB1FB49179
:1021E400B73508F464C1B73608F49CC1B33E08F4AB
:1021F400A3C109F4A6C1B43E09F44DC2BF3F09F41A
:102204006FC23196A49192D2B55EE4E7FFE2BB0FB0
:10221400EB0FF21DC591D491EC2FFD2F0994A093DF
:10222400342820923528D1CF20923A2820923B2876
:1022340020923428209235286F937F936A2F72EB73
:10224400679F7F916F911694079416940794169440
:102254000794169407940092362810923728B5CF25
:10226400209236282092372820923428209235282C
:102274006F937F936A2F72EB679F7F916F91169490
:10228400079416940794169407941694079400924E
:102294003A2810923B2899CF6F937F936A2F72EB61
:1022A400679F7F916F9116940794169407941694E0
:1022B4000794169407940092422810924328A2117E
:1022C40001C083CFA0918C0AB0918D0AA0933E28BF
:1022D400B0933F28209244282092452876CFBA2FE5
:1022E400A07FA295BF70A0934628B0934728209260
:1022F40048286BCFBA2FA07FA295BF70A09349281E
:10230400B0934A2820924B2820924C285ECFA09369
:102314004D285BCFA0930F2858CFB093102855CFEA
:10232400B093112852CFB0910028B07FBA2BB0934C
:10233400002896604ACFA0930E2847CFA0934E283A
:1023440044CFA295A868FA2EF092012897603DCF59
:10235400A295AF77A860FA2EF0920128976035CF46
:1023640034CF33CFA093502830CFE0911D28F09183
:102374001E28309609F029CFE0912428F0912528D1
:10238400309609F022CFE0912A28F0912B2830963C
:1023940009F01BCFBA2FBF70C0910728BC0FB73507
:1023A40008F0B6E5E4E3F0E0BB0FEB0FF21DC591D6
:1023B400D491C0935128D0935228A295AF70AA0FFC
:1023C400A3956F937F936A2F72EB679F7F916F91B1
:1023D40016940794169407941694079416940794E5
:1023E400009253281092542820925528209256285F
:1023F400ECCEE0911D28F0911E28309609F0E5CE30
:10240400E0912428F0912528309609F0DECEE09161
:102414002A28F0912B28309609F0D7CEBA2FBF7016
:10242400C0910728CB1B08F4C0E0E4E3F0E0CC0F34
:10243400EC0FF21DC591D491C0935728D09358281E
:10244400A295AF70AA0FA3956F937F936A2F72EB37
:10245400679F7F916F91169407941694079416942E
:102464000794169407940092592810925A2820929F
:102474005B2820925C28A9CEA0935D28A6CEE0E735
:10248400FFE2EA0FF21DA695A795A795B091002843
:10249400CB2FB07CAB1301C098CED490CF73CB2B91
:1024A400C093002892CE91CE90CE8FCE8ECEB09394
:1024B4000728A3E0B2E0B0931A28A0931F28B09392
:1024C4002628B0932C28B0933128209223282092D8
:1024D4002928209238282092392820923C282092BA
:1024E4003D282092442820924528A0918C0AB0913E
:1024F4008D0AA0933E28B0933F282092012897602C
:102504002092512820925228209255282092562811
:10251400209257282092582820925B2820925C28E9
:10252400FBD053CEB755A0910028A07FAB2BA0932E
:1025340000289660F1D049CEB756B0931428ECD059
:10254400FFC0209218282092192820921D2820923A
:102554001E28209224282092252820922A2820927E
:102564002B2820922F282092302820922328209252
:1025740029283196B491E4E2FEE0EB0FF21DEE0F50
:10258400FF1FA591B491AA0FBB1FEA2FFB2FB49193
:102594003296A6E0AA9519F0B69578F0FBCFA3E0A1
:1025A400B2E0B0931A28A0931F28B0932628B093C2
:1025B4002C28B0933128BAD008CEC591D591A53036
:1025C40039F0A43079F0A330D9F0A23059F13CC0ED
:1025D400C0931828D093192841D0C0931C28D093B5
:1025E4001B28D8CFC0931D28D0931E282092512891
:1025F4002092522820925728209258283AD0CACFA5
:10260400C0932428D0932528209251282092522820
:10261400209257282092582821D0C0932828D0935C
:102624002728B8CFC0932A28D0932B28209251284A
:102634002092522820925728209258280FD0C093D5
:102644002E28D0932D28A6CFC0932F28D09330289E
:1026540005D0C0933328D09332289CCFEF93FF93B7
:10266400EC2FFD2FEE0FFF1FC591D491FF91EF9139
:102674000895EF93FF93EC2FFD2FEE0FFF1FC591ED
:10268400D591C0932128D0932028C491C0932228A7
:10269400FF91EF910895B0911C28BF3F19F0B395B5
:1026A400B0931A28B0912128BF3F19F0B395B09385
:1026B4001F28B0912828BF3F19F0B395B09326285E
:1026C400B0912E28BF3F19F0B395B0932C28B09148
:1026D4003328BF3F19F0B395B09331281DD075CD81
:1026E400E0910828F0910928A0910A28B0910B28BC
:1026F4001A96A0930A28B0930B28EA0FFB1FA59102
:10270400B491AA0FBB1FA0931228B0931328209250
:1027140016282092172859CDE0911628F0911728F1
:102724003196E0931628F09317280895E09116281F
:10273400F09117283296E0931628F09317280895FD
:102744006F937F9360910E28A62FA150DA2FB0913A
:102754005D28C0915E2820925D28B21551F0B6170D
:1027640040F4B093142820921528DB1BD0935E28E4
:1027740026C0C21521F020925E28AC2F0CC0B09167
:102784004E28C0914F28B61718F0B0E020924E287A
:10279400C21509F0AC2F70911428679F0A0E121C01
:1027A4000B0E121C009214281092152820924F2808
:1027B400B21529F0DB1BA0934F2820924E287F915D
:1027C4006F9106C0A150B209A0931428B0931528A4
:1027D400E0911828F09119283096A1F1EE0FFF1F0F
:1027E400A0911A28EA0FF21DB0911C28BA1729F4F7
:1027F400A0911B28AB1710F003C0A395A0931A282F
:10280400B491BF3F69F4B0911C28BF3F29F4B09143
:102814001B28B0931A28DCCFA250A0931A28D8CF33
:10282400E8EAFFE2B295EB0FF21DB0910028BF7009
:10283400A0914C28A03081F4EB0FF21DB491B09319
:10284400062824C0B0910028BF70A0914C28A03065
:10285400A1F4B09306281AC0BA1B40F039F0B1E0D5
:10286400EB0FF21DB491B093062810C0B1E0EB0F4A
:10287400F21DB491B093062809C0BA1B20F019F0D8
:10288400B093062803C0B1E0B0930628E0911D2858
:10289400F0911E283096D9F1EE0FFF1FA0911F284A
:1028A400EA0FF21DB0912128BA1729F4A09120282B
:1028B400AB1710F003C0A395A0931F28B491B038B0
:1028C40009F041C0A150A0931F28B0912228B13033
:1028D40048F0B0912128BF3FD1F4B0912028BF3FE8
:1028E40099F415C0B0912128BF3F21F4B09120285C
:1028F400BF3F51F4C0913428D0913528209669F413
:10290400A150A0931F28C2CFB0931F28BFCFC0915E
:102914003428D0913528209699F0D695C795D79527
:10292400C795D795C795D795C795D795D295C09391
:102934003428D0933528CF70A0910728AC0F2CC031
:10294400A091072829C02092232820922928A09109
:102954002228A13010F069F00EC0A0910728AB0F17
:10296400B7FD04C0A735C0F0A6E516C0A7FDA0E0DA
:1029740013C0AB2F11C0A0910728AB0FB7FD08C03F
:10298400A0930728A73540F0A6E5A093072804C024
:10299400A7FDA0E0A0930728E4E3F0E0AA0FEA0F64
:1029A400F21DA591B491A0938C0AB0938D0AA093C3
:1029B4004028B093412800C0E0912428F0912528B4
:1029C400309609F423C0EE0FFF1FA0912628EA0FCA
:1029D400F21DB0912828BA1729F4A0912728AB1723
:1029E40010F003C0A395A0932628B491B03889F4BD
:1029F400A150A0932628B0912828BF3F39F4B09164
:102A04002728BF3F19F0B0932628D6CFB0912328AA
:102A140005C0A0912328BA0FB0932328A091502871
:102A2400BA0F6F937F936B2F72EB67037F916F9154
:102A3400169407941694079416940794169407947E
:102A440013FE02C0B0EF1B2AA0918C0AB0918D0A2C
:102A5400A00DB11DC0913828D0913928AC1BBD0BF5
:102A6400C0913C28D0913D28AC0FBD1FC091552882
:102A7400D0915628AC1BBD0BC0915B28D0915C282B
:102A8400AC0FBD1FA0938C0AB0938D0AE0912A2845
:102A9400F0912B28309609F43CC0EE0FFF1FA09153
:102AA4002C28EA0FF21DB0912E28BA1729F4A09110
:102AB4002D28AB1710F003C0A395A0932C28B49134
:102AC400B03889F4A150A0932C28B0912E28BF3F90
:102AD40039F4B0912D28BF3F19F0B0932C28D6CFEC
:102AE400B091292805C0A0912928BA0FB0932928AC
:102AF4006F937F936B2F72EB67037F916F91A0911C
:102B04008C0AB0918D0AA00DB11DA0938C0AB093CC
:102B14008D0AE0912F28F09130283096B1F1EE0F14
:102B2400FF1FA0913128EA0FF21DB0913328BA1784
:102B340029F4A0913228AB1710F027C0A395A093D5
:102B44003128B491BF3F71F4A150A0933128B091C2
:102B54003328BF3FD1F4B0913228BF3FB1F0B093D6
:102B64003128D7CFE0E7FFE2EB0FF21DB695B7951A
:102B7400B795A0910028CA2FA07CBA1301C005C044
:102B8400D490CF73CB2BC0930028E0913628F091DA
:102B94003728309651F0A0913828B0913928AE0FDB
:102BA400BF1FA0933828B0933928E0913A28F091B8
:102BB4003B28309651F0A0913C28B0913D28AE0FAF
:102BC400BF1FA0933C28B0933D28E0914228F09188
:102BD4004328309609F448C0A0913E28B0913F287C
:102BE400109609F441C0C0914028D0914128AC17F7
:102BF400BD0711F030F01FC020923E2820923F28DC
:102C040033C0CA1BDB0BA0914428B0914528AE0FFA
:102C1400BF1FCA1BDB0B80F3A0934428B093452845
:102C2400A0918C0AB0918D0AAC1BBD0BA0938C0AA9
:102C3400B0938D0A19C0AC1BBD0BC0914428D09130
:102C44004528CE0FDF1FAC1BBD0BB0F2C093442848
:102C5400D0934528C0918C0AD0918D0ACA0FDB1FEE
:102C6400C0938C0AD0938D0AA0914628A21509F42A
:102C74005CC0B0914728C0914828CA0FC43608F0F8
:102C8400C356C0934828C03128F0C03228F0C0335E
:102C940030F007C0CF7029C0C06FC09526C0CF7078
:102CA40003C0C06FC09500C0B295CB0FE2EEF0E058
:102CB400EC0FF21DC4916F937F936C2F72EB679F9F
:102CC4007F916F9116940794169407941694079421
:102CD40016940794A0918C0AB0918D0AA00DB11D91
:102CE400A0938C0AB0938D0A20C0B295CB0FE2EE6C
:102CF400F0E0EC0FF21DC4916F937F936C2F72EB95
:102D0400679F7F916F911694079416940794169475
:102D1400079416940794A0918C0AB0918D0AA01977
:102D2400B109A0938C0AB0938D0AA0914928A215E9
:102D3400F1F0B0914A28C0914B28CA0FC43610F064
:102D4400C0E0C356C0934B28C695C4FF01C002C05F
:102D5400CF7003C0C06FC09500C0B295CB0FE2EE38
:102D6400F0E0EC0FF21DC491C695C0934C28B091CD
:102D74004D28B215E9F0A0910528C0910028DA2F5A
:102D8400EC2FE295D07FE07FED1709F0AE2FB7FD71
:102D940004C0AB0F28F4A0EF03C0AB0F08F0A0E011
:102DA400A0930528A07FA295C07FCA2BC0930028BA
:102DB400E0915128F0915228309699F1A09155282C
:102DC400B0915628C0918C0AD0918D0AEC1BFD0B52
:102DD40008F4E8F0AE1BBF0B6F937F93609150280B
:102DE40072EB679F7F916F911694079416940794E2
:102DF4001694079416940794A00DB21DA093552819
:102E0400B093562820925128209252280AC0C0918B
:102E14005328D0915428AC0FBD1FA0935528B093CC
:102E24005628E0915728F0915828309699F1A091AE
:102E34005B28B0915C28C0918C0AD0918D0ACE1B7E
:102E4400DF0B08F4E8F0AC1BBD0B6F937F9360912C
:102E5400502872EB679F7F916F9116940794169494
:102E640007941694079416940794A00DB21DA0938A
:102E74005B28B0935C2820925728209258280AC0D7
:102E8400C0915928D0915A28AC0FBD1FA0935B283C
:102E9400B0935C28DF91CF9106C9BFB7BF93F89474
:102EA400DD0CD21CB1E0B093860ABF91BFBF189568
:102EB400BF2DB770F9F4DF93DF2DD295D77011F4DD
:102EC400DF9119C0A0918C0AB0918D0AB695A7958F
:102ED400DA95E1F7F7FE02C0A095B095D0918C0A7F
:102EE400AD0FD0918D0ABD1FA0938C0AB0938D0AAB
:102EF400DF9101C0FA9497FF0895F0900128F294AD
:102F04009F77089596FD10C0003011F00A9508953A
:102F1400009100280F7095FF02C01FE00895103043
:102F240009F408951A9508959F7B009100280F7065
:102F34001FE00895E4E4FFE2ED0FF21DD49108953B
:102F4400057F0A011402280350041E0507060D0715
:102F540006080C09180A300B600C240D080E100F1B
:102F6400E0E7FFE2ED0FF21DD491089501030FFC99
:102F74001111161132114E1171117C1189118C111C
:102F84008F11921195119D11A011A311AA11B211C3
:102F9400B311B411B711FB113E124112551256125E
:102FA400571258120000000000000000000000004A
:102FB4000000000000010101010101010101010102
:102FC40001010101000101010101010101010101EE
:102FD40001010102000101010101010101010202DB
:102FE40002020203000101010101010102020202C5
:102FF40003030304000101010101020202030303AC
:103004000404040500010101010202020303040493
:10301400040505060001010101020203030404057D
:103024000506060700010101020203030404050565
:10303400060607080001010102030304040506064D
:103044000707080900010102020304040506060734
:103054000808090A0001010202030405050607081D
:1030640008090A0B00010102030404050607080805
:10307400090A0B0C000101020304050606070809EE
:103084000A0B0C0D00010102030405060708090AD6
:103094000B0C0D0E000102030405060708090A0BB8
:0430A4000C0D0E0FF2
:00000001FF
