:020000020000FC
:040000000C94D21179
:04001C000C942A1303
:100024000C9410130C941A130C9410130C94F019D0
:10003400C758CC53184FA74A77468242C73E413B24
:10004400ED37CA34D331072F642CE6298C27542585
:100054003B234121631FA01DF71B651AEA1884176F
:100064003216F314C613AA129E11A110B20FD00EA9
:10007400FB0D320D750CC20B190B790AE3095509F6
:10008400CF085008D9076807FE0699063A06E10525
:100094008C053D05F104AA0467042804EC03B403A9
:1000A4007F034D031D03F002C6029E02790255022E
:1000B40034021402F601DA01BF01A6018F017801AE
:1000C40063014F013C012B011A010A01FB00ED0001
:1000D400E000D300C700BC00B200A8009E000000EE
:1000E400000000000000000000000000000000000C
:1000F40000000101010102020202020202020000E8
:1001040000010102020303030404040404040000C4
:1001140001020203030404050506060606060000A0
:10012400010203040505060607070808080800017C
:10013400020304060708090A0A0B0C0C0C0C000144
:10014400030507080A0C0D0E0F10111212120002FB
:100154000406080A0C0E10111314151616160002C4
:1001640005070A0C0F111314161718191A1A00038D
:1001740006090C0F121417191B1D1E1F2020000442
:10018400080C1014171B1E21232527292A2A0005D1
:100194000B11161B2025292D31343638393A000825
:1001A4001019212930373D43484C50535556000C03
:1001B4001824303B46505962697075797C7E001270
:1001C4002537495A6A7987939EA8B0B6BBBE0018F2
:1001D400314A61788DA1B4C5D4E0EBF4FAFD9601FF
:1001E4003F06BD08040D810FBE016906C308040D56
:1001F400810FE5018406BD08040D810FFE01B106DF
:10020400C808040D810F1502DA060709080D7A0FD4
:100214001D023F060D090C0D770F530269064E09A6
:100224003D0D770F870284069209690D770FBB0293
:10023400B106D409970D770FEE023F060D090C0D98
:10024400770F150369064E093D0D770F30038406B9
:100254009209690D770F5C03DE06160AC20D770F4B
:1002640089030B07CE08EA0D770F9B031C07D50AF9
:10027400120E770FA6032807CB0C120E770FC003BC
:1002840040079A0A120E770FCD030B07590A310E55
:10029400770FF8031C070E0B640E770F1E044E072E
:1002A4004E0B640E770F3A046A078E0B920E770F8B
:1002B40054047307CB0BBD0E770F80049F070C0CFF
:1002C400F20E770F5404D0074C0C270F770FAA04B3
:1002D400FB078F0C550F770FD20422080D090C0D64
:1002E400770F07054C084E093D0D770F3B0567084E
:1002F4009209690D770F6F059408D409970D770F4C
:100304009D0522080D090C0D770FC4054C084E09F4
:100314003D0D770FE80567089209690D770F1406FC
:100324009408D409970D770FF0032163E301FA00D1
:10033400EB00F6016CE3066A5A682D63E301685A20
:10034400682B636BF1025A672F63F7016BF1025A52
:10035400672F63685A682B6369F1025A67286368D8
:100364005A682B6369F102E309692B63E301F7120D
:100374006CE306705A68FF002163E301FA006CE342
:10038400066A5A682D63E301685A682C636AE309B4
:1003940067F1025A672D63E3016BF1025A672F6319
:1003A400685A6828636CE306701C64E32AFA02F650
:1003B4000068F1022468F104236A1A68F1022368D0
:1003C400F104216AFF0015681D681868156A15682C
:1003D4001D6818681A6C266A26682B682868286ABB
:1003E4002168266A1F6C1A681C6823681F681A68CB
:1003F400216818682468FF0021682D681D681A6840
:100404001D681A6829682B681F682B6823681F6891
:100414001A681F68266A28682B682D6828682B6A62
:100424002B682D78FF002161E32BE703FA02EBFC34
:100434006DEE009FFF002165E32AFA01EBFCE70063
:10044400F60068246568296568216568246568295B
:1004540065682D65681765681F65682365682B6581
:10046400681F65682365682665682B656823656869
:100474002865682D65683065682865682D6568306D
:1004840065682865682D65683065682865682D6528
:10049400683065682465682D65683065682D656811
:1004A400FF002165FA01F003E70068246568296507
:1004B400682165682465682965682D656824656810
:1004C4002065682365682D6568206568236568264E
:1004D40065682D65682365682865682D65683065DD
:1004E400682865682D65683065682865682D6568C5
:1004F4003065682865682D65683065682465682DF1
:1005040065683065682D6568FF002165FA01F003B0
:10051400E700682465682965682165682465682999
:1005240065682D65682465682065682365682C65A1
:10053400682065682365682665682C656823656896
:100544002865682D65683065682865682D6568309C
:1005540065682865682D65683065682865682D6557
:10056400683065682465682D65683065682D656840
:10057400FF00186568185C681D65681D5C6818656F
:10058400681D65682965682465682365682B656846
:100594002665682365682B65682365682665682376
:1005A40065682865682B65682D65682865682B650E
:1005B400F601682B5C682865682D65683065F6006F
:1005C400682F65682B6568266568246568286568F2
:1005D400246568236568FF001D65E301FA00EB00EC
:1005E4006CE3066A5C682465E301685C6823656BF8
:1005F400F1025C6726656BF1025C672B65685C68D9
:10060400286569F1025C672165685C68246569F1A5
:10061400025C67216567F1035C672765F7116CE38A
:1006240006705C68FF001D65E301FA006CE3066A6E
:100634005C682465E301685C6828656AE30967F11E
:10064400025C672865E3016BF1025C672C65685CFA
:100654006824656CE30678EBFE6EFF001D65E3011C
:10066400FA00EB006CE3066A5C682465E301685CED
:100674006823656BF1025C6724656BF1025C672695
:1006840065685C68286569F1025C672165685C6877
:100694002B6569F1025C672165685C682D656AE316
:1006A4000969F1025C672F65E3016AE30969F102F4
:1006B4005C67FF003065E30169F1025C67296568E6
:1006C4005C68E3066A2B65E30167F1025C672D65EC
:1006D40067F1025C672B656BF1025C6723656BF164
:1006E400025C672465685C682665685C681F6569E8
:1006F400F1025C6723656BF1025C672365F7116C9B
:10070400E3066A576B235CE30AFA0169FF00675842
:100714006A245C6EE30672586A285CE30A6A586AC3
:10072400235C6EE3066A586A285CE30A6EE3066992
:10073400FF0067586A205CE30AF7116EE3067E58EF
:100744007E215CE30A69FF0067235C685868235CC8
:10075400F7116E58E3066A1D5CE30A6A586A235C63
:100764006A246A236EE3066A586A265CE30A6E58B2
:10077400E3066A275CE30AF71169FF0067586A24F5
:100784005C6EE3067E5876215CE30A6A58E3066AE7
:10079400235CE30A69FF2D61E32FFA01EBF66A1C7F
:1007A40061E328EB00682168246828682D683068B4
:1007B40028682D6830682F68306828682B682D6891
:1007C4002B61E32FFA01EBF66A1C61E328EB006866
:1007D4001F68236828682B682F6828682F68286892
:1007E400376832682F682B682668FF002661E32F7C
:1007F400FA01EBF66A1A61E328EB00681E682368C5
:100804002668236826682A682D682F6832682F684E
:1008140032682A6823682368266824682168266861
:1008240023681E681A681868176818681A681E68AA
:10083400236824682368FF002062E30AF7116E59D5
:10084400E3066A1862E30A6A596A1F626A216A1F28
:100854006EE3066A596A1F62E30A6859682162688E
:100864005968236268266823681F6821681C68FF2A
:100874006CE306801366E303FA0069F1025D671016
:1008840066685D68136669E9A368F1025D671366CB
:10089400F722E9006E5D682F65FA02F6016DF10238
:1008A4005C67FF001D60E30CE57CF600FA036A2434
:1008B40066E59C6A1D60E57C6A2466E59C6A1F60A7
:1008C400E57C6A2366E58C6A1F60E57C6A2366E53D
:1008D400FC6A2160E57C6A2466E59C6A2160E57C0B
:1008E4006A2466E59C6A2160E57C6A2466E59C6A64
:1008F4002160E57C6A2466E59C6AFF001D60E57C56
:10090400F6006A2466E59C6A1D60E57C6A2466E557
:100914009C6A2060E58C6A2366E59C6A2060E58C0D
:100924006A2366E59C6A2160E57C6A2466E59C6A24
:100934002160E57C6A2666E57C6A2160E57C6A289C
:1009440066E59C6A2160E57C6A2D66E57C6AFF00A9
:100954001D60E57CF600FA036A2466E59C6A1D6066
:10096400E57C6A2466E59C6A1F60E57C6A2366E58B
:100974008C6A1F60E57C6A2366E58C6A3061E30358
:10098400E500F60169F10259672D616A596A2B6124
:1009940067F10259672B61F7126EE3066E5968FF1F
:1009A4002165E328FA02EBFAF600682465682965F4
:1009B400682165682465682965682D656817656818
:1009C4001F65682365682B65681F6568236568264D
:1009D40065682B65682365682865682D65683065DA
:1009E400682865682D65683065682865682D6568C0
:1009F4003065682865682D65683065682465682DEC
:100A040065683065682D6568FF002165FA02F003AA
:100A1400E700682465682965682165682465682994
:100A240065682D65682465682065682365682D659B
:100A3400682065682365682665682D656823656890
:100A44002865682D65683065682865682D65683097
:100A540065682865682D65683065682865682D6552
:100A6400683065682465682D65683065682D65683B
:100A7400FF002165FA02F003E70068246568296530
:100A8400682165682465682965682D65682465683A
:100A94002065682365682C65682065682365682679
:100AA40065682C65682365682865682D6568306508
:100AB400682865682D65683065682865682D6568EF
:100AC4003065682865682D65683065682465682D1B
:100AD40065683065682D6568FF0018656A1D656A7C
:100AE4001865681D65682965682465682365682B31
:100AF40065682665682365682B65682365682665CF
:100B0400682365682865682B65682D6568286568AD
:100B14002B65F6016A2865682D65683065F60068FE
:100B24002F65682B656826656824656828656824D0
:100B34006568236568FF1D66E301FA02EB006CE358
:100B4400066A5C682465E301685C6823656BF102EE
:100B54005C6726656BF1025C672B65685C682865D9
:100B640069F1025C672165685C68246569F1025C6F
:100B740067216567F1035C672765F7116CE306700D
:100B84005C68FF001D65E301FA026CE3066A5C68B9
:100B94002465E301685C6828656AE30967F1025C1F
:100BA400672865E3016BF1025C672C65685C682467
:100BB400616CE3066823E3016CE3066821E3016CDE
:100BC400E306681FE3016CE30668FF001D65E301AB
:100BD400FA02EB006CE3066A5C682465E301685C76
:100BE4006823656BF1025C6724656BF1025C672620
:100BF40065685C68286569F1025C672165685C6802
:100C04002B6569F1025C672165685C682D656AE3A0
:100C14000969F1025C672F65E3016AE30969F1027E
:100C24005C67FF003065E30169F1025C6729656870
:100C34005C68E3066A2B65E30167F1025C672D6576
:100C440067F1025C672B656BF1025C6723656BF1EE
:100C5400025C672465685C682665685C681F656972
:100C6400F1025C6723656BF1025C672365F7116C25
:100C7400E306705E67EC0567FF002165E301FA0097
:100C8400EB00F003E7006CE3066A5C682D65E301A2
:100C9400685C682B656BF1025C672F65F7016BF18B
:100CA400025C672F65685C682B6569F1025C6728E4
:100CB40065685C682B6569F102E30968F1025C67A9
:100CC4002B65E301F7126CE306705C68FF00216595
:100CD400E301FA006CE3066A5C682D65E301685C75
:100CE400682C656AE30967F1025C672D65E3016BB3
:100CF400F1025C672F65685C6828656CE30678EB35
:100D0400FE6EFF002165E301FA00EB006CE3066A66
:100D14005C682D65E301685C682C656BF1025C67B7
:100D24002C65F7116BF1025C672F65685C683065B0
:100D340069F1025C671C65685C682F6569F1025C97
:100D4400671C65685C6830656AE30969F1025C6781
:100D54003265E3016AE30969F1025C67FF00346507
:100D6400E30169F1025C672D65685C68E3066A2F3C
:100D740065E30167F1025C67306567F1025C672F28
:100D8400656BF1025C672B656BF1025C6728656833
:100D94005C682B65685C68286569F1025C672B6593
:100DA4006BF1025C672C65F7016CE306705E68FF0B
:100DB400E300EBFCE703A6FF3465E30169F1025CA1
:100DC400672D65685C68E3066A2F65E30167F102D5
:100DD4005C67306567F1025C672F656BF1025C67E5
:100DE4002B656BF1025C672865685C682B65685C41
:100DF40068286569F1025C672B656BF1025C672CFE
:100E040065F7016CE3066A2365E30AFA016A5C6A22
:100E1400FF0024656EE306725C6A2865E30A6A5C77
:100E24006A23656EE3066A5C6A2865E30A6EE30674
:100E34006A5C6AFF2065E30AF7116EE3067E5C7E56
:100E44002165E30A6A2365685C68FF002365F7117E
:100E54006E5CE3066A1D65E30A6A5C6A23656A24BC
:100E64006A236EE3066A5C6A2665E30A6E5CE3063F
:100E74006A2765E30AF7116A5C6AFF0024656EE37A
:100E8400067E5C762165E30A6A5CE3066A2365E311
:100E94000A6A5CE3066AFF002365E30AF7116E5CE5
:100EA400E3066A1D65E30A6A5C6A23656A246A23A9
:100EB4006EE3066A5C6A2365E30A685C6824656815
:100EC4005C682665682B682668236824682168FFA7
:100ED4006CE306805C7E2F65E303FA026DF1025C2D
:100EE40067FF30656AE30969F1025C672865E3031B
:100EF40069F1025C673065685C682F6569F1025CC2
:100F0400672D65685C682B6569F1025C6729656813
:100F14005C68286569F1025C672B65685C68266516
:100F240069F1025C672865685C6824656AE3096C9A
:100F34005C682465E303685C68FF266569F1025C0C
:100F4400672865685C682B6569F1025C67286568D9
:100F54005C68266569F1025C672865685C682865D9
:100F6400F84269F1025C672465685C68216569F18F
:100F7400025C672465685C681F65691F60EBF6673F
:100F84002161671F62672163671F64672165EB0046
:100F94006AE3096A5C6A3065E3036AFF6AE3096924
:100FA400F1025C672865E30369F1025C67306568F8
:100FB4005C682F6569F1025C672D65685C682B6568
:100FC40069F1025C672965685C68286569F1025CFF
:100FD400672B65685C68266569F1025C672865684B
:100FE4005C6824656AE3096C5C682465E303685CF7
:100FF40068FF266569F1025C672865685C682B6593
:1010040069F1025C672865685C68266569F1025CC1
:10101400672865685C682B6569F1025C672D656803
:101024005C68306569F1025C672D656A5C6A2B65F2
:1010340067F1025C672B65F7126EE3066E5C68FF6E
:101044002165E301FA03EB00F003E7006CE3066AB1
:101054005C682D65E301685C682B656BF1025C6775
:101064002F65F7016BF1025C672F65685C682B657F
:1010740069F1025C672865685C682B6569F102E3C5
:101084000968F1025C672B65E301F7126CE30670F3
:101094005C68FF002165E301FA036CE3066A5C689F
:1010A4002D65E301685C682C656AE30967F1025CFD
:1010B400672D65E3016BF1025C672F65685C682846
:1010C400656CE30678EBFE6EFF002165E301FA012F
:1010D400EB006CE3066A5C682D65E301685C682CD0
:1010E400656BF1025C672C65F7116BF1025C672F8D
:1010F40065685C68306569F1025C671C65685C68FA
:101104002F6569F1025C671C65685C6830656AE399
:101114000969F1025C673265E3016AE30969F10276
:101124005C67FF003465E30169F1025C672D656863
:101134005C68E3066A2F65E30167F1025C6730656A
:1011440067F1025C672F656BF1025C672B656BF1DD
:10115400025C672865685C682B65685C682865695B
:10116400F1025C672B656BF1025C672C65F7016C1F
:10117400E306705E68FF1166E301760B76157E1355
:101184006EFF1176147618761576FF0011761376B5
:101194001576096DEE006FFF15E30069F1025767DC
:1011A4001C6669F1025767156669F10257671C6688
:1011B40069F1025767156669F10257671C6669F1A0
:1011C400025767156669F10257671C6669F1025791
:1011D40067136669F10257671C6669F10257671362
:1011E4006669F10257671C6669F1025767136669FD
:1011F400F10257671C6669F1025767136669F102C9
:1012040057671C6669F1025767FF2166E301E7101F
:101214006DEE009FFF0011E70069F10257671D663C
:1012240069F1025767116667F1025767156667F13E
:101234000257671D6669F1025767136669F1025721
:10124400671F6669F1025767136669F10257671FE2
:101254006669F10257671066E70069F10257671C77
:101264006669F1025767106667F10257671366678C
:10127400F10257671C6669F1025767156669F10246
:101284005767216669F1025767136669F102576768
:101294001F6669F1025767FF1166E70069F102579B
:1012A400671D6669F1025767116667F10257671592
:1012B4006667F10257671D6669F10257671466692C
:1012C400F1025767206669F1025767146669F102F3
:1012D4005767206669F10257671066E70069F102F3
:1012E40057671C6669F1025767106667F10257E396
:1012F4000A672466E30167F1025767286669F10209
:101304005767216669F10257671A6669F1025767E0
:101314001F6669F1025767176669F1025767FF0094
:101324001166E70069F10257671D6669F1025767A4
:10133400116667F1025767156667F10257671D6604
:1013440069F1025767146669F1025767206669F10B
:10135400025767146669F1025767206669F10257FC
:10136400671066E70069F10257671C6669F1025766
:1013740067106667F1025767136667F10257671CC7
:101384006669F1025767156669F102576721666954
:10139400F1025767136669F10257671F6669F10224
:1013A4005767FF001166E70069F10257671D666918
:1013B400F1025767116667F1025767156667F10214
:1013C40057671D6669F1025767136669F10257672B
:1013D4001F6669F1025767136669F10257671F6652
:1013E40069F10257671566E70069F10257672166DC
:1013F40069F1025767156667F1025767216667F15D
:10140400025767156669F1025767156669F1025755
:1014140067216669F10257671C6669F102576728FC
:101424006669F1025767FF001166E70069F1025728
:10143400671D6669F1025767116667F10257671500
:101444006667F10257671D6669F10257671366699B
:10145400F10257671F6669F1025767136669F10263
:1014640057671F6669F10257671566E70069F1025D
:101474005767216669F1025767156667F102576776
:10148400216667F1025767156669F10257671566A9
:1014940069F1025767216669F10257672E66E323F3
:1014A40069F10257672B6669F1025767FF001566F9
:1014B400E30069F10257671C6669F1025767156614
:1014C40067F1025767186667F10257671C6669F18E
:1014D400025767156669F10257671C6669F102577E
:1014E40067156669F10257671C6669F1025767134D
:1014F4006669F10257671C6669F1025767136667EC
:10150400F1025767176667F10257671C6669F102B3
:101514005767136669F10257671C6669F1025767DA
:10152400136669F10257671C6669F1025767FF0089
:10153400156669F10257671C6669F1025767106600
:1015440069F10257671C6669F1025767156669F10C
:101554000257671C6669F1025767156669F10257FD
:10156400671C6669F1025767156669F10257671CC3
:101574006669F1025767106669F10257671C66696C
:10158400F1025767106669F1025767106669F10244
:1015940057673366E32369F10257671066E300690E
:1015A400F1025767FF000E6669F102576715666915
:1015B400F10257670E6669F1025767156669F10211
:1015C40057670E6669F1025767156669F102576736
:1015D4000E6669F1025767156669F10257670E6670
:1015E40069F1025767156669F10257670E6669F17A
:1015F400025767156669F10257670E6669F102576B
:1016040067156669F10257670E6669F1025767123A
:101614006669F1025767FF001A6669F1025767218C
:101624006669F10257671A6667F10257671E6667B3
:10163400F1025767216669F10257671A6669F10278
:101644005767216669F10257671A6669F10257679D
:10165400216669F10257671A6669F10257672166C4
:1016640069F10257671A6667F10257671E6667F1E8
:10167400025767216669F10257671A6669F10257D2
:1016840067216669F10257671A6669F10257671E96
:101694006669F1025767FF00116669F1025767181E
:1016A4006669F1025767116667F102576715666745
:1016B400F1025767186669F1025767116669F1020A
:1016C4005767186669F1025767116669F10257672F
:1016D400186669F1025767136669F10257671A665B
:1016E40069F1025767136667F1025767176667F176
:1016F4000257671A6669F1025767136669F1025760
:10170400671A6669F1025767136669F10257671A27
:101714006669F1025767FF00156669F10257671C95
:101724006669F1025767106667F1025767156667C5
:10173400F10257671C6669F1025767186669F1027E
:101744005767106669F10257671C6669F1025767AB
:10175400156669F1025767156669F10257671C66D9
:1017640069F1025767106667F1025767186667F1F7
:10177400025767216669F10257671F6669F10257CC
:10178400671F6669F10257E325672E66E300E710D9
:101794006EFF11E70069F1025767116669F102579C
:1017A400673366E32369F10257671166E30069F161
:1017B400025767136669F1025767136669F10257A6
:1017C400673366E32369F10257671366E30069F13F
:1017D400025767156669F1025767156669F1025782
:1017E400673366E32369F10257671566E30069F11D
:1017F400025767156669F1025767156669F1025762
:10180400673366E32369F10257671566E30069F1FC
:10181400025767FF116669F1025767116669F102A1
:1018240057673366E32369F10257671166E300697A
:10183400F1025767146669F1025767146669F10289
:1018440057673366E32369F10257671466E3006957
:10185400F1025767156669F1025767156669F10267
:1018640057673366E32369F10257671566E3006936
:10187400F1025767156669F1025767156669F10247
:1018840057673366E32369F1025767336669F102E8
:101894005767FF001166E300E70069F10257671D0F
:1018A4006669F10257673366E32369F10257671DDE
:1018B40066E30069F1025767136669F10257671F0F
:1018C4006669F10257673366E32369F10257671FBC
:1018D40066E30069F1025767156669F102576721EB
:1018E4006669F10257673366E32369F1025767219A
:1018F40066E30069F1025767156669F102576721CB
:101904006669F10257673366E32369F10257672179
:1019140066E30069F1025767FF001166E70069F1A9
:101924000257671D6669F10257673366E32369F15D
:101934000257671D66E30069F1025767136669F190
:101944000257671F6669F10257673366E32369F13B
:101954000257671F66E30069F1025767156669F16C
:10196400025767216669F10257673366E32369F119
:101974000257672166E30069F1025767156669F14A
:101984000257673366E323683368336A30682E6826
:10199400FF0011E30069F1025767186669F1025705
:1019A40067116669F1025767186669F10257671192
:1019B4006669F1025767186669F10257671166692B
:1019C400F1025767186669F1025767136669F102F5
:1019D40057671A6669F1025767136669F102576718
:1019E4001A6669F1025767136669F10257671A6646
:1019F40069F1025767136669F10257671A6669F15C
:101A0400025767FF5CE307EA13A6FF0064E322EAD8
:101A140000A6FF0066E301EBE867EBFA68EBFE67FC
:101A240064E311EB00685F6864E3196A64E31168B6
:101A34005F6862E31068626862E314685FE31168D8
:101A440064E3196A5FE31168646862E3106A64E33B
:101A540011685F6864E3196A64E311685F685F682A
:101A640062E3106862E311685F6864E3196A5FE324
:101A740011686468FF0062E3106A64E311685F68D8
:101A840064E3196A64E311685F685F6862E310687D
:101A940062E311685F6864E3196A5FE3116864686C
:101AA40062E3106A64E311685F6864E3196A64E3DB
:101AB40011685F685F6862E3106862E311685F68D9
:101AC40064E3196A5FE3116864E31968FF0066E37D
:101AD4002267EBFA6964E311EB00685F6864E31959
:101AE4006A64E311685F6862E31068626862E31421
:101AF400685FE3116864E3196A5FE311686468620C
:101B0400E3106A64E311685F6864E3196A64E311CB
:101B1400685F685F6862E3106862E311685F686425
:101B2400E3196A5FE311686468FF62E3106A64E3BF
:101B340011685F6864E3196A64E311685F685F6849
:101B440062E3106862E311685F6864E3196A5FE343
:101B54001168646862E3106A64E311685F6864E3AF
:101B6400196A64E311685F685F6862E3106864E39C
:101B740019686468646A5FE3116864E31968FF00C4
:101B840062E3106A64E311685F6864E3196A64E3FA
:101B940011685F685F6862E3106862E311685F68F8
:101BA40064E3196A5FE31168646862E3106A64E3DA
:101BB40011685F6864E3196A64E311685F685F68C9
:101BC40062E3106864E319686468646A646AFF0025
:101BD40066E301EBE867EBFA68EBFE675FE31DEB96
:101BE400006A62E311685FE31068E31D6A61E31051
:101BF4006A5FE31D6A5FE3106862E31168E31D6ACC
:101C040062E3106A5FE31D6A62E311685FE31068D0
:101C1400E31D7262E311685FE31068E31D6AFF006D
:101C240062E3106A5FE31D6A62E312685FE31068AF
:101C3400E31D725FE3106862E31268E31D6A62E306
:101C4400106A5FE31D6A62E312685FE31068E31DD4
:101C54007262E312685FE31068E31D6AFF0066E3E3
:101C640001EBE867EBFA68EBFE675FE31DEB006AE4
:101C740062E311685FE31068E31D685CE311686167
:101C8400E3106A5FE31D6A62E311685FE31068E3CF
:101C94001D685CE3116862E3106A5FE31D6A62E336
:101CA40011685FE31068E31D685CE3116862E31088
:101CB4006AE31D6A62E311685FE31068E31D685C10
:101CC400E31168FF62E3106A5FE31D6A62E311686F
:101CD4005FE31068E31D685CE3116862E3106AE384
:101CE4001D6A62E311685FE31068E31D685CE31139
:101CF4006862E3106A5FE31D6A62E311685FE310E0
:101D040068E31D685CE3116862E3106AE31D6A62BC
:101D1400E311685FE31068E31D685CE31168FF008A
:101D240062E3106A5FE31D6A62E311685FE31068AF
:101D3400E31D685CE3116862E3106AE31D6A62E311
:101D440011685FE31068E31D685CE3116862E310E7
:101D54006A5FE31D6A62E311685FE31068E31D686C
:101D64005CE3116862E3106A5DE31E685B6865E327
:101D740022EBFC6EFF0064E310EB006A5FE31E6875
:101D84005BE3106864E3196A5FE31E685BE3196848
:101D94005BE31E68596864E310685BE31E685F6870
:101DA4005BE3106864E3196A5FE31E685BE3196828
:101DB40064E310685BE31E6864E3196A5FE31E680A
:101DC4005BE3196864E310685BE31E6864E310680E
:101DD4005B6864E3196A5FE31E685BE31968FF00EC
:101DE40064E310685BE31E685F685BE3106864E3A8
:101DF400196A5FE31E685BE319685BE31E68596850
:101E040064E310685BE31E685F685BE3106864E387
:101E1400196A5FE31E685BE3196864E310685BE3B7
:101E24001E6864E3196A5FE31E685BE3196864E390
:101E340010685BE31E6864E310685B6864E3196A16
:101E44005FE31E6864E31968FF0066E322EBF86A47
:101E540064E310EB00685FE3116864E3196AE3105C
:101E6400685FE3116864E3106A64685FE31168649F
:101E7400E3196A5FE3116864E31068646A64685F85
:101E8400E3116864E3196AE310685FE3116864E3CB
:101E9400106A64685FE3116864E3196A5FE31168B8
:101EA40064E31068FF00646A64EB00685F6864E3DD
:101EB400196AE310685F68646A64685F6864E319B8
:101EC4006A5FE310686468646A64685F6864E3195D
:101ED4006AE310685F68646A64E319686468646A42
:101EE4005FE3106864E31968FF0066E300A6FF007F
:101EF400F00369F00467F00369F0049FFF00F00445
:101F040069F00367F00469F00367F00469F003679C
:101F1400F00469F00367F00469F00367F00469F002
:101F24000367F00469F00367F00469F00367F004E1
:101F340069F00367F00469F00367F00469F003676C
:101F4400F00469F00367F00469F00367F00469F0D2
:101F54000367F00469F00367F00469F00367FF00A6
:101F6400E70FE80FEA0FEC0FEE0FF00FF20FF50F8B
:101F7400F80FFB0FFE0F00100210041006100810DB
:101F84000A100C100F101210151017101B101E1031
:101F94002210261028102A102E1032103410371058
:101FA4003B103E104110441047104A104D10501081
:101FB40053105510571059105B105D105F106110CD
:101FC400641067106B106D10701000000100721027
:101FD4000100761001008A1001008D10010092109A
:101FE40005009510801105009510871105009510C6
:101FF4008E110500951095110100971001009B109A
:1020040001009F100100A4100100AA100100B010EB
:102014000100B7100300BC1067110300C7106C1156
:102024000300CE1067110100D5101500DC109B11C0
:10203400C7110300E21067111300E2106711C91100
:102044001300E2106711C5110100EC100100F51036
:102054001500F5109E11C9111500F510A311CE112C
:102064000100FF10030007116F11130007116F1116
:10207400C51103000A116F1105001011A711050005
:102084001011AA1105002111AD1109002B11C11164
:1020940005002111B71109003011C31105003011D9
:1020A400BA110100381101003F110100461101006D
:1020B4005111010054110100571101005C1103007A
:1020C4007210741111006211C511150010119E11C6
:1020D400C9110400BC1103007210781102007C11B4
:1020E400FF050F0D0C0BFF00FF250F0C0A09090853
:1020F4000808070707070606060606050505050579
:102104000504040404040303030302020201FF00A0
:10211400FF030F0BFF00FF080E0D0D0C0C0C0BFF43
:10212400FF030F0EFF00FF020BFFFF0604090F0D54
:102134000BFFFF060F0D020504FFFF080F0D0C0D2A
:10214400020504FFFF090F0B0D0F02070405FF0032
:10215400FF090F0D0C0C0E020504FF00FF0B0F0B03
:102164000A0A0A0C02020504FF00FF070D0907060C
:102174000500FF00FF130F08060605050504040407
:102184000403030302020100FF00FF0B0F0809060A
:10219400060504030100FF00FF0B0D0A09080705EB
:1021A40004030200FF00FF0B0E0B070605040202E6
:1021B4000100FF00FF090F090B0708050200FF00DB
:1021C400FF120F07080503030302020202010101C3
:1021D400010100FFFF0F0F0C0B0A09080706050495
:1021E40003020100FF00FF120F0B07090605050596
:1021F400040404030303020100FFFF0E0C0A070595
:10220400040404040303030302FFFF040A0300FF9E
:10221400FF090A03000000030200FF00FF1F0F0D67
:102224000C0B0B0A0A0A0909090908080808080717
:10223400070707060606050504030100FF00FF1152
:102244000F0E0D0C0B0A0908070605040302010012
:10225400FF00FF070F0F0F0F0F00FF00FF0E0F0F00
:102264000F0F0F0F0F0F0F0F0F0F00FFFF0B0F0AB2
:102274000501050A0A050100FF00FF0B0F07040210
:10228400060301000100FF00FF140F07050B0206FF
:1022940008040205040103010002010100FFFF021A
:1022A4000F03FF00FF020F0C03FFFF030F0C0804D2
:1022B400020508FFFF030F0C0906040205080BFFC3
:1022C400FF070B0A0B010200FF00FFFF00010101E1
:1022D40001010080FF0402000180FF030000FFFFF2
:1022E400FFFF8000FF0300000C0C8000FFFF00F4E0
:1022F400FB008000FFFF000C01008000FF02FDFED8
:102304000102030302FFFEFD8000FF020001000042
:10231400FF00FF0000018000FF02FFFF0101020136
:1023240001FFFFFE8000FF02FBFD0204040402FD26
:10233400FB80FF03000DFC80FF070000000000FF8E
:102344008000FF05000000FF8000FF020000FF8006
:10235400FF0200000180FFFF0E0D0C0B0A0B0C0D99
:102364000E0F10111211100F8000FF0315128000C0
:10237400FF022680FF0202FF01FF01FF8000FF022F
:102384000F80FF020680FFFF01FFFFFF00FFFFFF3A
:10239400000000000001FF00FFFF00000001FF003B
:1023A400B8EDB0933400B0E0B09361002224B0E300
:1023B400B0930028B0E8B0930128BFEFB09302288F
:1023C400B0930328B0930428B0E0B0930A28B093E4
:1023D4000B28E2EEF1E0E0930828F093092820921C
:1023E4000C28B0E0EB0FF21DA591B491AA0FBB1F0E
:1023F400A0931028B0931128B0E0209212282092C4
:1024040013282092142820921528BFEF2092182810
:10241400B0931928B0931A2820921D28B0931E282F
:10242400B0931F28B093202820922428B093252805
:10243400B093262820922A28B0932B28B0932C28D6
:1024440020922F28B0933028B09331282092162858
:102454002092172820921B2820921C2820922128A1
:10246400209222282092232820922728209228286C
:102474002092292820922D2820922E2820925D280F
:1024840020925E2820925F2820926028BFEFB0B986
:102494000FE0109100281F709091002890739064B1
:1024A40020920628B0930528D0910428E4D7ED2E75
:1024B400D0910028DD0FDD1FDD1FD370F2D7DD2E94
:1024C400F0900128F2949068DFEFD0930D282092C9
:1024D4000E2820920F28209232282092332820920E
:1024E40034282092352820923628209237282092AA
:1024F40038282092392820923A2820923B2820928A
:102504003C2820923D2820923E2820923F28209269
:102514004028209241282092422820924328209249
:102524004428209245282092462820924728209229
:1025340048282092492820924A2820924B28209209
:102544004C2820924D2820924E2820924F282092E9
:1025540050282092512820925228209253282092C9
:1025640054282092552820925628209257282092A9
:1025740058282092592820925A2820925B28209289
:102584005C28B0E7B093010AB1E7B0930A0AB5E159
:10259400B093280AB5E0B093290ABBE2B0932A0AA3
:1025A400BAE0B0932B0AB1E4B0932C0ABFE0B09325
:1025B4002D0AB7E5B093260AB4E1B093270ABBE02D
:1025C400B093000AB0E0B093810AB1E0B093850AF9
:1025D400B0910228B0938C0AB0910328B0938D0A6D
:1025E400B3E0B093800A7894D0FE12C0E21481F074
:1025F400C0918C0AD0918D0AD13008F002C0C9353F
:1026040038F0D93538F009F003C0C53608F402C0F3
:1026140021B8EACFD0910628D1B9E6CFBFB7BF938E
:10262400F89411D7B0E5B0930B0ABF91BFBF1895CA
:10263400BFB7BF93F89407D7F3FCDBD695FD02C070
:10264400E210EA94B1E2B0930B0ABF91BFBF1895B0
:10265400BFB7BF93F894CF93DF93A0910D28AF3FFA
:1026640049F4A0910E28A2112EC0A0910F28A21106
:1026740039C05FC0E0910828F0910928CC27DD27F4
:10268400A395AA9511F02A96FCCFC0930A28D0935B
:102694000B28EC0FFD1FA591B491AA0FBB1FA093AB
:1026A4001028B093112820921428209215282092E3
:1026B400122820921328AFEFA0930D2820920E2801
:1026C40020920F2836C0DF91CF91BF91BFBFF894FD
:1026D400AFEFA0930D2820920E2820920F2820926D
:1026E40006281895E0910828F0910928A0910A2855
:1026F400B0910B281A96A0930A28B0930B28EA0FDE
:10270400FB1FA591B491AA0FBB1FA0931028B093EF
:102714001128209214282092152820921228209201
:102724001328AFEFA0930D2820920E2820920F2893
:1027340000C0A0911228B0911328109609F0FDC290
:10274400E0911028F0911128A0911428B091152837
:10275400EA0FFB1FB491B73508F464C1B73608F427
:102764009CC1B33E08F4A3C109F4A6C1B43E09F464
:102774004DC2BF3F09F46FC23196A49192D2B55EA7
:10278400E6EBF4E3BB0FEB0FF21DC591D491EC2FF4
:10279400FD2F0994A093322820923328D1CF209280
:1027A40038282092392820923228209233286F9397
:1027B4007F936A2F72EB679F7F916F9116940794B2
:1027C4001694079416940794169407940092342848
:1027D40010923528B5CF20923428209235282092A3
:1027E4003228209233286F937F936A2F72EB679F6E
:1027F4007F916F91169407941694079416940794F6
:1028040016940794009238281092392899CF6F9320
:102814007F936A2F72EB679F7F916F911694079451
:1028240016940794169407941694079400924028DB
:1028340010924128A21101C083CFA0918C0AB091BB
:102844008D0AA0933C28B0933D28209242282092E0
:10285400432876CFBA2FA07FA295BF70A0934428B7
:10286400B0934528209246286BCFBA2FA07FA2951B
:10287400BF70A0934728B0934828209249282092FB
:102884004A285ECFA0934B285BCFA0930D2858CF46
:10289400B0930E2855CFB0930F2852CFB091002893
:1028A400B07FBA2BB093002896604ACFA0930C282F
:1028B40047CFA0934C2844CFA295A868FA2EF09253
:1028C400012897603DCFA295AF77A860FA2EF092C9
:1028D4000128976035CF34CF33CFA0934E2830CF23
:1028E400E0911B28F0911C28309609F029CFE09143
:1028F4002228F0912328309609F022CFE09128284D
:10290400F0912928309609F01BCFBA2FBF70C091DF
:102914000728BC0FB73508F0B6E5E4E3F0E0BB0FD9
:10292400EB0FF21DC591D491C0934F28D09350283A
:10293400A295AF70AA0FA3956F937F936A2F72EB42
:10294400679F7F916F911694079416940794169439
:1029540007941694079400925128109252282092BA
:10296400532820925428ECCEE0911B28F0911C2887
:10297400309609F0E5CEE0912228F0912328309694
:1029840009F0DECEE0912828F0912928309609F04C
:10299400D7CEBA2FBF70C0910728CB1B08F4C0E074
:1029A400E4E3F0E0CC0FEC0FF21DC591D491C09399
:1029B4005528D0935628A295AF70AA0FA3956F936C
:1029C4007F936A2F72EB679F7F916F9116940794A0
:1029D4001694079416940794169407940092572813
:1029E400109258282092592820925A28A9CEA093B0
:1029F4005B28A6CEE2EBF4E3EA0FF21DA695A795B9
:102A0400A795B0910028CB2FB07CAB1301C098CE12
:102A1400D490CF73CB2BC093002892CE91CE90CE7E
:102A24008FCE8ECEB0930728A3E0B2E0B0931828DF
:102A3400A0931D28B0932428B0932A28B0932F285C
:102A44002092212820922728209236282092372865
:102A540020923A2820923B28209242282092432810
:102A6400A0918C0AB0918D0AA0933C28B0933D2884
:102A740020920128976020924F282092502820927B
:102A84005328209254282092552820925628209288
:102A9400592820925A28FBD053CEB755A09100282C
:102AA400A07FAB2BA09300289660F1D049CEB756F7
:102AB400B0931228ECD0FFC0209216282092172839
:102AC40020921B2820921C2820922228209223281E
:102AD400209228282092292820922D2820922E28DE
:102AE40020922128209227283196B491E2EBFFE02E
:102AF400EB0FF21DEE0FFF1FA591B491AA0FBB1FA0
:102B0400EA2FFB2FB4913296A6E0AA9519F0B69558
:102B140078F0FBCFA3E0B2E0B0931828A0931D286F
:102B2400B0932428B0932A28B0932F28BAD008CE83
:102B3400C591D591A53039F0A43079F0A330D9F0FE
:102B4400A23059F13CC0C0931628D093172841D025
:102B5400C0931A28D0931928D8CFC0931B28D09398
:102B64001C2820924F2820925028209255282092E9
:102B740056283AD0CACFC0932228D0932328209233
:102B84004F2820925028209255282092562821D050
:102B9400C0932628D0932528B8CFC0932828D09353
:102BA400292820924F28209250282092552820929C
:102BB40056280FD0C0932C28D0932B28A6CFC0938F
:102BC4002D28D0932E2805D0C0933128D0933028B7
:102BD4009CCFEF93FF93EC2FFD2FEE0FFF1FC591BA
:102BE400D491FF91EF910895EF93FF93EC2FFD2F74
:102BF400EE0FFF1FC591D591C0931F28D0931E28B7
:102C0400C491C0932028FF91EF910895B0911A28A0
:102C1400BF3F19F0B395B0931828B0911F28BF3F58
:102C240019F0B395B0931D28B0912628BF3F19F031
:102C3400B395B0932428B0912C28BF3F19F0B395D5
:102C4400B0932A28B0913128BF3F19F0B395B093BF
:102C54002F281DD075CDE0910828F0910928A09166
:102C64000A28B0910B281A96A0930A28B0930B282F
:102C7400EA0FFB1FA591B491AA0FBB1FA0931028C4
:102C8400B0931128209214282092152859CDE09150
:102C94001428F09115283196E0931428F093152800
:102CA4000895E0911428F09115283296E0931428A1
:102CB400F093152808956F937F9360910C28A62FA5
:102CC400A150DA2FB0915B28C0915C2820925B2838
:102CD400B21551F0B61740F4B0931228209213287D
:102CE400DB1BD0935C2826C0C21521F020925C28FF
:102CF400AC2F0CC0B0914C28C0914D28B61718F0D9
:102D0400B0E020924C28C21509F0AC2F7091122823
:102D1400679F0A0E121C0B0E121C009212281092AE
:102D2400132820924D28B21529F0DB1BA0934D28BF
:102D340020924C287F916F9106C0A150B209A093B4
:102D44001228B0931328E0911628F0911728309692
:102D5400A1F1EE0FFF1FA0911828EA0FF21DB09108
:102D64001A28BA1729F4A0911928AB1710F003C038
:102D7400A395A0931828B491BF3F69F4B0911A2881
:102D8400BF3F29F4B0911928B0931828DCCFA25082
:102D9400A0931828D8CFEAEEF4E3B295EB0FF21D16
:102DA400B0910028BF70A0914A28A03081F4EB0FA5
:102DB400F21DB491B093062824C0B0910028BF70CE
:102DC400A0914A28A030A1F4B09306281AC0BA1BD7
:102DD40040F039F0B1E0EB0FF21DB491B093062846
:102DE40010C0B1E0EB0FF21DB491B093062809C0F6
:102DF400BA1B20F019F0B093062803C0B1E0B093D9
:102E04000628E0911B28F0911C283096D9F1EE0F8A
:102E1400FF1FA0911D28EA0FF21DB0911F28BA17B9
:102E240029F4A0911E28AB1710F003C0A395A0931A
:102E34001D28B491B03809F041C0A150A0931D28B9
:102E4400B0912028B13048F0B0911F28BF3FD1F491
:102E5400B0911E28BF3F99F415C0B0911F28BF3F01
:102E640021F4B0911E28BF3F51F4C0913228D09173
:102E74003328209669F4A150A0931D28C2CFB093A3
:102E84001D28BFCFC0913228D0913328209699F0C5
:102E9400D695C795D795C795D795C795D795C7950F
:102EA400D795D295C0933228D0933328CF70A09170
:102EB4000728AC0F2CC0A091072829C020922128F4
:102EC40020922728A0912028A13010F069F00EC08C
:102ED400A0910728AB0FB7FD04C0A735C0F0A6E545
:102EE40016C0A7FDA0E013C0AB2F11C0A091072806
:102EF400AB0FB7FD08C0A0930728A73540F0A6E59F
:102F0400A093072804C0A7FDA0E0A0930728E4E34A
:102F1400F0E0AA0FEA0FF21DA591B491A0938C0AD8
:102F2400B0938D0AA0933E28B0933F2800C0E0914F
:102F34002228F0912328309609F423C0EE0FFF1FB6
:102F4400A0912428EA0FF21DB0912628BA1729F47B
:102F5400A0912528AB1710F003C0A395A0932428B3
:102F6400B491B03889F4A150A0932428B0912628B4
:102F7400BF3F39F4B0912528BF3F19F0B0932428FE
:102F8400D6CFB091212805C0A0912128BA0FB093C3
:102F94002128A0914E28BA0F6F937F936B2F72EB69
:102FA40067037F916F91169407941694079416946F
:102FB40007941694079413FE02C0B0EF1B2AA09145
:102FC4008C0AB0918D0AA00DB11DC0913628D09104
:102FD4003728AC1BBD0BC0913A28D0913B28AC0FCD
:102FE400BD1FC0915328D0915428AC1BBD0BC09178
:102FF4005928D0915A28AC0FBD1FA0938C0AB093C6
:103004008D0AE0912828F0912928309609F43CC0D3
:10301400EE0FFF1FA0912A28EA0FF21DB0912C2871
:10302400BA1729F4A0912B28AB1710F003C0A3956D
:10303400A0932A28B491B03889F4A150A0932A28E7
:10304400B0912C28BF3F39F4B0912B28BF3F19F021
:10305400B0932A28D6CFB091272805C0A09127285D
:10306400BA0FB09327286F937F936B2F72EB67038C
:103074007F916F91A0918C0AB0918D0AA00DB11D22
:10308400A0938C0AB0938D0AE0912D28F0912E28FC
:103094003096B1F1EE0FFF1FA0912F28EA0FF21D19
:1030A400B0913128BA1729F4A0913028AB1710F049
:1030B40027C0A395A0932F28B491BF3F71F4A150CA
:1030C400A0932F28B0913128BF3FD1F4B09130287C
:1030D400BF3FB1F0B0932F28D7CFE2EBF4E3EB0F6F
:1030E400F21DB695B795B795A0910028CA2FA07C7C
:1030F400BA1301C005C0D490CF73CB2BC093002862
:10310400E0913428F0913528309651F0A09136287A
:10311400B0913728AE0FBF1FA0933628B09337283D
:10312400E0913828F0913928309651F0A0913A284E
:10313400B0913B28AE0FBF1FA0933A28B0933B2811
:10314400E0914028F0914128309609F448C0A091BC
:103154003C28B0913D28109609F441C0C0913E2806
:10316400D0913F28AC17BD0711F030F01FC020925A
:103174003C2820923D2833C0CA1BDB0BA091422877
:10318400B0914328AE0FBF1FCA1BDB0B80F3A09383
:103194004228B0934328A0918C0AB0918D0AAC1BAD
:1031A400BD0BA0938C0AB0938D0A19C0AC1BBD0B48
:1031B400C0914228D0914328CE0FDF1FAC1BBD0B1A
:1031C400B0F2C0934228D0934328C0918C0AD09186
:1031D4008D0ACA0FDB1FC0938C0AD0938D0AA0916D
:1031E4004428A21509F45CC0B0914528C091462832
:1031F400CA0FC43608F0C356C0934628C03128F01D
:10320400C03228F0C03330F007C0CF7029C0C06F7F
:10321400C09526C0CF7003C0C06FC09500C0B295E2
:10322400CB0FE2EEF0E0EC0FF21DC4916F937F93AD
:103234006C2F72EB679F7F916F911694079416948D
:1032440007941694079416940794A0918C0AB0914D
:103254008D0AA00DB11DA0938C0AB0938D0A20C0D5
:10326400B295CB0FE2EEF0E0EC0FF21DC4916F9338
:103274007F936C2F72EB679F7F916F9116940794E5
:10328400169407941694079416940794A0918C0AA4
:10329400B0918D0AA019B109A0938C0AB0938D0A3C
:1032A400A0914728A215F1F0B0914828C09149286F
:1032B400CA0FC43610F0C0E0C356C0934928C6955F
:1032C400C4FF01C002C0CF7003C0C06FC09500C06E
:1032D400B295CB0FE2EEF0E0EC0FF21DC491C6956F
:1032E400C0934A28B0914B28B215E9F0A091052863
:1032F400C0910028DA2FEC2FE295D07FE07FED1704
:1033040009F0AE2FB7FD04C0AB0F28F4A0EF03C043
:10331400AB0F08F0A0E0A0930528A07FA295C07F82
:10332400CA2BC0930028E0914F28F0915028309682
:1033340031F1A0915328B0915428C0918C0AD091B6
:103344008D0ACA1BDB0BCE17DF0710F009F068F4F7
:10335400EC1BFD0BAE0FBF1FA0935328B093542852
:1033640020924F28209250280AC0C0915128D09111
:103374005228AC0FBD1FA0935328B0935428E0915A
:103384005528F0915628309631F1A0915928B091E2
:103394005A28C0918C0AD0918D0ACA0FDB0FCE1720
:1033A400DF0710F009F068F4EC1BFD0BAE0FBF1F34
:1033B400A0935928B0935A28209255282092562831
:1033C4000AC0C0915728D0915828AC0FBD1FA093B4
:1033D4005928B0935A28DF91CF912DC9BFB7BF9315
:1033E400F894DD0CD21CB1E0B093860ABF91BFBF44
:1033F4001895BF2DB770F9F4DF93DF2DD295D770F0
:1034040011F4DF9119C0A0918C0AB0918D0AB69580
:10341400A795DA95E1F7F7FE02C0A095B095D09193
:103424008C0AAD0FD0918D0ABD1FA0938C0AB09366
:103434008D0ADF9101C0FA9497FF0895F090012856
:10344400F2949F77089596FD10C0003011F00A950C
:103454000895009100280F7095FF02C01FE00895A1
:10346400103009F408951A9508959F7B009100285F
:103474000F701FE00895E6E8F4E3ED0FF21DD49118
:103484000895057F0A011402280350041E05070647
:103494000D0706080C09180A300B600C240D080EE1
:1034A400100FE2EBF4E3ED0FF21DD4910895010344
:1034B4000FFCCC13D113ED1309142C14371444143A
:1034C40047144A144D14501458145B145E146514B4
:1034D4006D146E146F147214B614F914FC141015D0
:1034E4001115121513150000000000000000000063
:1034F40000000000000000010101010101010101BF
:1035040001010101010100010101010101010101A8
:103514000101010101020001010101010101010197
:10352400020202020203000101010101010102027F
:103534000202030303040001010101010202020368
:103544000303040404050001010101020202030350
:103554000404040505060001010101020203030439
:103564000405050606070001010102020303040421
:10357400050506060708000101010203030404050A
:1035840006060707080900010102020304040506F0
:1035940006070808090A00010102020304050506DA
:1035A400070808090A0B00010102030404050607C1
:1035B4000808090A0B0C00010102030405060607AA
:1035C40008090A0B0C0D0001010203040506070893
:1035D400090A0B0C0D0E0001020304050607080975
:0635E4000A0B0C0D0E0F96
:00000001FF
