:020000020000FC
:040000000C947213D7
:04001C000C941D180B
:100024000C9424170C942F170C9424170C94461733
:040034000C9493177E
:040064000C94E01701
:100090000C94EB17C758CC53184FA74A77468242A7
:1000A000C73E413BED37CA34D331072F642CE629D4
:1000B0008C2754253B234121631FA01DF71B651A84
:1000C000EA1884173216F314C613AA129E11A1104F
:1000D000B20FD00EFB0D320D750CC20B190B790A45
:1000E000E3095509CF085008D9076807FE069906A5
:1000F0003A06E1058C053D05F104AA0467042804CD
:10010000EC03B4037F034D031D03F002C6029E02FD
:100110007902550234021402F601DA01BF01A60188
:100120008F01780163014F013C012B011A010A0183
:10013000FB00ED00E000D300C700BC00B200A80047
:100140009E00210037006400BD0070012302D6022A
:100150008903730496055608210BAC1037166F2CD3
:10016000D458000000000000000000000000000063
:10017000000000000000010101010202020202026F
:10018000020200000001010202030303040404044C
:100190000404000001020203030404050506060628
:1001A0000606000001020304050506060707080805
:1001B00008080001020304060708090A0A0B0C0CD0
:1001C0000C0C0001030507080A0C0D0E0F1011128C
:1001D000121200020406080A0C0E10111314151650
:1001E0001616000205070A0C0F111314161718191A
:1001F0001A1A000306090C0F121417191B1D1E1FD3
:1002000020200004080C1014171B1E212325272969
:100210002A2A00050B11161B2025292D31343638CA
:10022000393A00081019212930373D43484C5053C2
:100230005556000C1824303B465059626970757948
:100240007C7E00122537495A6A7987939EA8B0B6FA
:10025000BBBE0018314A61788DA1B4C5D4E0EBF47F
:10026000FAFD000306090B0E111316181B1D1F22A1
:100270002426282A2C2E3032343638393B3D3E4055
:1002800042000002030507080A0C0D0F1012141596
:1002900017181A1B1D1E202123242527282A2B2C42
:1002A0002E2F313233343637383A3B3C3D3F4041D4
:1002B000424445464748494B4C4D4E4F505153548C
:1002C00055565758595A5B5C5D5E5F606162636466
:1002D00065666768696A6B6C6D6E6F707172737357
:1002E0007475767778797A7A7B7C7D7E7F7F808162
:1002F000828384848586878888898A8B8B8C8D8E7F
:100300008E8F9091919293949495969697989899B0
:100310009A9B9B9C9D9D9E9F9FA0A0A1A2A2A3A4EF
:10032000A4A5A6A6A7A7A8A9A9AAAAABACACADAD3F
:10033000AEAFAFB0B0B1B1B2B3B3B4B4B5B5B6B699
:10034000B7B8B8B9B9BABABBBBBCBCBDBD001A011D
:100350003402DA053A0CF80F8A1234023606810CA0
:100360003E108A12720298063A0CF80F8A12AF02F7
:10037000FA06CE0C87108A1272025B070F0D8710E7
:100380008A122603B607520DCC108A127202980602
:100390003A0CF80F8A12AF02FA06CE0C87108A12B6
:1003A00072025B070F0D87108A12EB02F607A00D91
:1003B00019118A126C033708F50DF80F8A127703AA
:1003C0006B083A0E87108A128803B208F50D871061
:1003D0008A129603E108790E87108A12A6031F0974
:1003E000F50D87108A12B5034E093A0E87108A124E
:1003F000C3038B09F50D87108A12D203BA09680F5F
:100400005E118A12F403F909C80EA2118A12480477
:100410004C0AC80EEF118A12A104A40AC80EEF11EB
:100420008A12EF04F70A0F0F3C128A12F403F9093B
:10043000C80EA2118A1248044C0AC80EEF118A1283
:10044000A104A40AC80EEF118A122A05640BA70F93
:100450003C128A126605D10B3A0C87108A123402BC
:10046000DD0B810C3E108A12F0030C65E302FA03E7
:1004700069F1025E670C6567F1025B675E680C6597
:1004800069F1025E670C6567F1025B675E680F6584
:1004900069F1025E670F65675E67116569F1025E6B
:1004A000671165675E670C65695E670C61675B670E
:1004B0000C63675C670C6569F1025E670C6569F146
:1004C000025E670C63675C670C63675C6711656954
:1004D000F1025B675E6861680F6569F1025B675EE8
:1004E000686168FF0C63E302FA0069F1025D670C62
:1004F0006367F1025B675D680C6369F1025D670C1D
:100500006367F1025B675D680F6369F1025D670F06
:1005100063675D67116369F1025D671163675D671A
:100520000C63695D670C61675B670C63675C670CF4
:100530006369F1025D670C6369F1025D670C6367D3
:100540005C670C63675C67146369F1025B675E68F4
:100550006168136369F1025B675E686168FF086345
:10056000E30269F1025D67086367F1025B675D683A
:10057000086369F1025D67086367F1025B675D68A4
:100580000C6369F1025D670C63675D670E6369F177
:10059000025D670E63675D670863695D6708616791
:1005A0005B670863675C67086369F1025D670863FE
:1005B00069F1025D670863675C670863675C670CE5
:1005C0006369F1025B675E6861680E6369F1025BF3
:1005D000675E686168FF1363E3026A0C680E683740
:1005E00060E310FA01675F675E675D675C675B6782
:1005F0005A6759671363E302FA006A0C680E68379A
:1006000060E310FA01675F675E675D675C675B6761
:100610005A6759671363E302FA006A0C680E683779
:1006200060E310FA01675F675E675D672B61E30651
:10063000F601682C682BF60068E3036A29E3066874
:10064000E3036A26E30668E30368FF001363E3023B
:100650006A0C680E683760E310FA01675F675E67CF
:100660005D675C675B675A6759671363E302FA006B
:100670006A0C680E683760E310FA01675F675E67AF
:100680005D675C675B675A6759671363E302FA004B
:100690006A0C680E683760E310FA01675F675E678F
:1006A0005D675C675B675A6759672764E300FA0216
:1006B000E760681161E302FA00E700680F681168FB
:1006C0002764E300FA02E760680F61E302FA00E7DB
:1006D00000680C680E68FF0027E3066AE303822BBC
:1006E000E3066C296C266A226C236C266AFF27E3DA
:1006F000066A276A276A266A236A246A276A2B6A97
:10070000276A266A276A266A246E226A1F6AFF0001
:1007100020E3066AE3037220E3066C226C246A2657
:100720006C246C266A266C276C226AFF23E3066C15
:10073000246C266A266C276C236A246A236A246A3E
:10074000266A276A266A246A226AFF0024E3066A68
:10075000E3037224E3066C246C246A266AE30372C2
:1007600026E3066C276C266AFF0026E3066AE3038D
:100770007226E3066C2B6C266A246AE3037222E37A
:10078000066E1F6EFF0020E3066AE3037220E30695
:100790006C246C206A226AE3037226E3066C236CE5
:1007A0001F6AFF0026E3066A246A236A1F6A1D6A1D
:1007B0001F6A236A1F6A236E246E2668265C6857A8
:1007C0006A2B63F602675FE307672963E306675FE7
:1007D000E307672763E306F603675FE307672663BC
:1007E000E306675FE30767FF2463E306FA006AE353
:1007F00004695EE307672263E3066B5EE307671F36
:1008000063E306675EE307672263E306695EE30767
:10081000672463E30667F10258675D68246367F144
:100820000258675D68226367F10258675D68246358
:1008300067F10258675D68276367F10258675D6872
:10084000266367F101275FE30067F10226682463EE
:10085000E306675EE307672263E306675EE3076715
:100860002463E306675EE307672463E306675EE3EA
:1008700007671F63E30667F10258675D68236367D4
:10088000F10258675D68266367F10258675D68FF8B
:100890002463E306F6006AE304695EE30767226304
:1008A000E3066B5EE307672463E306675EE30767BF
:1008B0002263E306695EE307672463E30667F102E8
:1008C00058675D68266367F10258675D6822636751
:1008D000F10258675D68246367F10258675D682418
:1008E0006367F10258675D682663675EE307672404
:1008F00063E306675EE307672263E306675EE30779
:10090000672463E306675EE307672663E30667F130
:1009100001275FE30067F10226682363E306675E51
:10092000E307672663E306675EE307672763E3067B
:1009300067F10258675D68266367F10258675D6872
:10094000FF002765E3066AE3046960E3076726653D
:10095000E3066B60E307672765E3066760E3076705
:100960002965E3066960E307672765E30667F10227
:100970005A675F68266567F1025A675F682765678F
:10098000F1025A675F68296567F1025A675F682953
:100990006567F1025A675F682B6567F1025A675F06
:1009A00068296567F1025A675F6760672465F60228
:1009B0006760E307672465E3066760E30767276509
:1009C000E306F60067F1025A675F68266567F10281
:1009D0005A675F68236567F1025A675F68FF24649E
:1009E000E310EBFC7626647627646E2463E302EB67
:1009F00000675CE307672663E302675CE30767273A
:100A000063E302675CE307672963E302675CE3076C
:100A1000672F63E302F602675FE307672F63E30272
:100A2000675FE307672C63E30267F1025A675F6859
:100A30002B63675FE307672963E302675FE3076789
:100A40002763E302675FE307672663E302675FE309
:100A50000767FF002464E310EBFC762664762764C6
:100A60006E2463E302EB00675CE307672663E3023F
:100A7000675CE307672763E302675CE30767296353
:100A8000E302675CE307672F63E302F602675FE355
:100A900007672F63E302675FE307672C63E302677F
:100AA000F1025A675F682F63675FE307671F63E3BD
:100AB00002F603675FE307672063E302675FE3070C
:100AC000672363E302675FE30767FF002465E306CC
:100AD000F600FA0167F1025D67266567F1025D675E
:100AE000276567F1025D67266567F1025D67276527
:100AF00067F1025D67266567F1025D67276567F14B
:100B0000025D67296567F1025D672B6567F1025D2C
:100B1000672A6567F1025D672B6567F1025D672CE7
:100B20006567F1025D672B6567F1025D672965679F
:100B3000F1025D67276567F1025D67266567F1026F
:100B40005D67246567F1025D67266567F1025D6791
:100B5000236567F1025D67246567F1025D671F65C4
:100B600067F1025D67226567F1025D671D6567F1E8
:100B7000025D671F6567F1025D671F6567F1025DD2
:100B800067206567F1025D67236567F1025D672491
:100B90006567F1025D67266567F1025D6727656736
:100BA000F1025D67296567F1025D672B6567F102F8
:100BB0005D67FF00F1010C63E302F606FA0069F1DC
:100BC000035C67F1010C6367F1035967F1015C682D
:100BD000F1010C6369F1035C67F1010C6367F103D8
:100BE0005967F1015C68F1010F6369F1035C67F11A
:100BF000010F6367F1015C67F101116369F1035C47
:100C000067F101116367F1015C67F1010C6369F140
:100C1000015C67F1010C5F67F1015967F1010C613B
:100C200067F1015A67F1010C6369F1035C67F10137
:100C30000C6369F1035C67F1010C6167F1015A67AC
:100C4000F1010C6167F1015A67F101116369F10368
:100C50005967F1015C68F1015F68F1010F6369F1A7
:100C6000035967F1015C68F1015F68FFF1010C63F2
:100C7000E30269F1035C67F1010C6367F1035967F3
:100C8000F1015C68F1010C6369F1035C67F1010C2F
:100C90006367F1035967F1015C68F1010F6369F162
:100CA000035C67F1010F6367F1015C67F101116398
:100CB00069F1035C67F101116367F1015C67F101A0
:100CC0000C6369F1015C67F1010C5F67F101596721
:100CD000F1010C6167F1015A67F1010C6369F103DD
:100CE0005C67F1010C6369F1035C67F1010C6167FA
:100CF000F1015A67F1010C6167F1015A672B65E355
:100D000006FA01F60067F1025D672B6567F1025D87
:100D100067296567F1025A67295D68276567F102EF
:100D20005A67275D68266567F1025A67265D68FF86
:100D30002465E30667F1025A67245D68306567F150
:100D4000025A67305D682B6567F1025D6729656748
:100D5000F1025D67276567F1025D67296567F1024A
:100D60005D67266567F1025D67276567F1025D676C
:100D7000296567F1025D672B6567F1025D6727658D
:100D8000672961E300E8146727682665E306E80041
:100D900067F1025D67236567F1025D67246567F1AE
:100DA000025A67245D68246567F1025A67245D680A
:100DB000276567F1025D67266567F1025D67276554
:100DC00067F1025D67296567F1025D672B6567F171
:100DD000025D672A6567F1025D672B6567F1025D59
:100DE000672C6567F1025D672B6568E3056BF102AF
:100DF0005D67FF002765E30667F1025A67275D68B4
:100E0000276567F1025A67275D68296567F1025D0A
:100E100067276567F1025D67266567F1025D6727F1
:100E20006567F1025D67296567F1025D67276567A0
:100E3000F1025D67296567F1025D672B6567F10265
:100E40005D672765672961E300E814672768266501
:100E5000E306E80067F1025D67236567F1025D67FD
:100E6000246569F1025D67236567F1025D672465AA
:100E700067F1025D67266569F1025D67246567F1C8
:100E8000025D67266567F1025D67276569F1025DAE
:100E900067266567F1025D67276567F1025D67296F
:100EA0006569F1025D67276567F1025D672965671E
:100EB000F1025D67FF002B65E3066AE3046BF10254
:100EC0005D672B65E30667F1025D672C6567F102DC
:100ED0005D672B6567F1025D67296567F1025D67F4
:100EE0002B6567F1025D67276567F1025D6729651C
:100EF00067F1025D67266567F1025D67276567F147
:100F0000025D67246567F1025D67236567F1025D35
:100F100067246567F1025D67266567F1025D6727F3
:100F20006567F1025D67296567F1025D672A65679C
:100F3000F1025D672B6567F1025D672C6567F10261
:100F40005D672A6567F1025D672F656AE30467F1F3
:100F5000025D672C65E3066AE30467F1025D6729B9
:100F600065E30668E30467F1025D67FF2B65E3064E
:100F70006AE3046A2B5CE306685E682B6567F1022E
:100F80005D672C6567F1025D672B656AE3046A2B78
:100F90005CE306685E682B6567F1025D672C656738
:100FA000F1025D672B656AE3046A2B5CE306685E09
:100FB000682B6567F1025D672C6567F1025D672B41
:100FC0006567F1025D672B6567F1025D67296567FB
:100FD000F1025A67295D68276567F1025A67275D44
:100FE00068266567F1025A67265D68FF2B65E30690
:100FF0006AE3046A2B5CE306685E682B6567F102AE
:101000005D672C6567F1025D672B656AE3046A2BF7
:101010005CE306685E682B6567F1025D672C6567B7
:10102000F1025D672B656AE3046A2B5CE306685E88
:10103000682B65E302FA00675FE307672C65E3024C
:10104000675FE307672F65E30268E983695FE3078A
:10105000672C65E302E90068E983695FE307672FAE
:1010600065E302E90068E983675FE30767FF3065CE
:10107000E302E9006AE3047160E307673065E302B5
:101080006B60E307672E65E3026B60E3076730651B
:10109000E30268F10160E30767F1013265E302678B
:1010A000F101336B60E307673265E3026B60E307CE
:1010B000672E65E3026960E307672B65E3026B60F7
:1010C000E307672965E3026B60E307672265E302D4
:1010D0006960E30767FF2265E302F71167F720689D
:1010E00060E307672465E3026960E307672765E358
:1010F000026960E307672965E3026960E307672B1C
:1011000065E3026B60E307672F65E3026B60E3074B
:10111000673265E3026960E307673065E30269608F
:10112000E307672B65E3026960E307672965E3026C
:101130006960E307672B65E302682761E300E80362
:101140006760E307672765E302E8006D60E3076710
:101150002665E3026960E307672265E3026960E3ED
:101160000767FF002465E3026AE3047160E3076731
:101170002465E3026B60E307672665E3026B60E3C7
:1011800007672765E3026960E307672965E3026B88
:1011900060E307672765E3026B60E307672965E3A0
:1011A000026960E307672B65E3026B60E307672969
:1011B00065E3026B60E307672A65E3026960E307A2
:1011C00067FF2B65E3026AE30469F1025B6760680D
:1011D00057682B65E302672C672D672E672F6B60BE
:1011E000E307672B65E3026B60E307672F65E302A4
:1011F0006960E307673065E3026960E307673265AA
:10120000E3026960E307673365E3026960E3076748
:101210003265E3026960E307673065E3026960E312
:1012200007672E65E3026960E307672C65E30269DF
:1012300060E307672B65E3026960E30767FF2C65DE
:10124000E3026AE3047160E307672C65E3026B6005
:10125000E307672765E3026B60E307672C65E3023A
:101260006960E307672E65E3026B60E3076730653B
:10127000E3026B60E307673265E3026960E30767D7
:101280003265E3026B60E307672E65E3026B60E3A0
:1012900007672B65E3026960E30767FF2F65E302D9
:1012A0006B60E307673065E3026B60E307673265F5
:1012B000E3026960E307673265E3026B60E3076797
:1012C0002F65E3026B60E307673265E3026960E361
:1012D00007673365E3026AE3046D60E307672B6524
:1012E000E3026960E307673265E3026960E3076769
:1012F0003365E3026760E307673265E3026760E333
:1013000007672E65E3026960E307672B65E30269FF
:1013100060E30767FF003065E3026AE3047160E39E
:1013200007672E65E302F72267F7306A60E3076715
:101330002E65E3026B60E307672965E3026960E3FA
:1013400007672B65E3026AE3046D60E307672B65BB
:10135000E3026960E307672E65E3026B60E30767FA
:101360002B65E3026B60E307672E65E3026960E3C8
:101370000767FF002F65E3026960E307673065E3F5
:10138000026960E307672B65E3026960E307672E84
:1013900065E3026960E307672965E3026960E307C3
:1013A000672B65E3026960E307672765E30269600D
:1013B000E307672965E3026960E307672B65E302DA
:1013C0006AE304722B65E302685B675F67576A2B09
:1013D000656760E307672965E3026760E3076727DE
:1013E00065E3026760E307672665E302675FE3077B
:1013F00067FF2465E3026AE3046960E30767226527
:10140000E3026B60E307671F65E3026760E307675A
:101410002265E3026960E307672465E30267F1027E
:101420005A675F68246567F1025A675F68226567DB
:10143000F1025A675F68246567F1025A675F68279F
:101440006567F1025A675F68266567F1012761E306
:101450000067F10226682465E3026760E3076722FC
:1014600065E3026760E307672465E3026760E307FB
:10147000672465E3026760E307671F65E30267F1BE
:10148000025A675F68236567F1025A675F682665DD
:1014900067F1025A675F68FF2765E3026AE3046940
:1014A00060E307672665E3026B60E307672765E390
:1014B000026760E307672665E3026960E307672761
:1014C00065E30267F1025A675F68296567F1025AAE
:1014D000675F68266567F1025A675F68276567F18D
:1014E000025A675F68276567F1025A675F68296576
:1014F0006760E307672765E3026760E307672665C0
:10150000E3026760E307672765E3026760E3076755
:101510002965E30267F1012A61E30067F1022968A6
:101520002665E3026760E307672A65E3026760E315
:1015300007672B65E30267F1025A675F682A6567F0
:10154000F1025A675F68FF002B65E3026AE30469F2
:1015500060E307672A65E3026B60E307672B65E3D7
:10156000026760E307672C65E3026960E307672BA6
:1015700065E30267F1025A675F682A6567F1025AFC
:10158000675F682B6567F1025A675F682C6567F1D2
:10159000025A675F682C6567F1025A675F682F65BA
:1015A00067F1013061E30067F1022F682C65E30207
:1015B0006760E307672F65E3026760E307673065ED
:1015C000E3026760E307673065E3026760E307678C
:1015D0002B65E30267F1025A675F68296567F102CC
:1015E0005A675F68266567F1025A675F68FF27657B
:1015F000E3026760E307672765E3026760E3076765
:101600001F65E30267F1025A675F681E6567F102B2
:101610005A675F681F6567F1025A675F68296567E7
:1016200060E307672965E3026760E307671F65E317
:101630000267F1025A675F681E6567F1025A675FC9
:10164000681F6567F1025A675F682B656760E3078B
:10165000672B65E3026760E307671F65E30267F1D5
:10166000025A675F682B656760E307672A65E302D4
:101670006760E307672B65E3026760E307672C6534
:10168000E3026760E307672F65E3026760E30767CC
:101690002F65E3026760E307672C65E30267F102E9
:1016A0005A675F682B656760E307672965E3026730
:1016B00060E307672765E3026760E307672665E382
:1016C000026760E30767FF002765E3026760E307DF
:1016D000672765E3026760E307671F65E30267F159
:1016E000025A675F681E6567F1025A675F681F6587
:1016F00067F1025A675F6829656760E307672965D4
:10170000E3026760E307671F65E30267F1025A6758
:101710005F681E6567F1025A675F681F6567F102BF
:101720005A675F682B656760E307672B65E30267AD
:1017300060E307671F65E30267F1025A675F682B82
:10174000656760E307672A65E3026760E307672B65
:1017500065E3026760E307672C65E3026760E30700
:10176000672F65E3026760E307672F65E302676041
:10177000E307672C65E30267F1025A675F682F652C
:101780006760E307672B65E3026760E307672C6523
:10179000E3026760E307672F65E3026760E30767BB
:1017A000FF003065E3026AE3047264766376626E7A
:1017B000616A60685F675E67FF003065E306FA0193
:1017C00067F1025A67305D68306567F1025A673029
:1017D0005D68306567F1025A67305D68306567F1B2
:1017E000025A67305D68306567F1025A67305D689C
:1017F000306567F1025A67305D68306569F1025DF6
:1018000067336567F1025D67306567F1025D672FD9
:101810006567F1025D67306567F1025D672C65679A
:10182000F1025D672E6567F1025D672C6567F10265
:101830005D672B6567F1025D67296567F1025D678A
:101840002C6567F1025D672B6567F1025D672B65AB
:1018500067F1025D67296567F1025A67295D6827AC
:101860006567F1025A67275D68266567F1025A6766
:10187000265D68FF1866E3006BF10257672466680F
:1018800033E30F6A1EE300671FE8056AF10257673A
:101890001866E80067F10257671B6667F102576731
:1018A000186667F10257673366E30F671BE300684A
:1018B000F10257671D6669F10257671866E3126BFC
:1018C000F10257672466E3006833E30F6A1DE30003
:1018D00067F10257671866E31267F10257671D66E2
:1018E000E30069F10257671E6669F10257671B66DC
:1018F000E31269F10257671666E30069F102576760
:10190000FF001866E3006BF102576724666833E353
:101910000F6A1EE300671FE8056AF1025767186641
:10192000E80067F10257671B6667F10257671866A0
:1019300067F10257671B66E31269F10257671D667C
:10194000E30069F102576718666818E31269F1024B
:1019500057671866E30067F1025767246669F1026A
:1019600057671F6667F10257671E66E31267F10249
:1019700057671F66E30067F10257673366E30F6737
:10198000F10257671D66E3006833E30F683368337D
:101990006833673367336733EC0267FF14E3006B28
:1019A000F102576720666833E30F6A1BE3006BF1AF
:1019B000025767146667F1025767186667F10257A6
:1019C00067146667F10257673366E30F6718E30031
:1019D00068F10257671B6669F102576714666BF17D
:1019E00002576720666833E30F6A1BE30067F10262
:1019F00057671466E31267F10257671B66E30069D5
:101A0000F10257671A6669F10257671B66E31269AC
:101A1000F10257671C66E30069F1025767FF1D6614
:101A2000E3006BF10257671D66E3126833E30F6A48
:101A300024E3006BF10257671D6667F102576720C8
:101A40006667F10257671D6667F10257672066E314
:101A50001269F10257672266E30069F10257671DB8
:101A600066E3126BF10257671D666833E30F6A2263
:101A7000E30067F10257671D66E31267F1025767DB
:101A80002266E30069F1025767246669F10257672D
:101A90001F66E31269F10257671B66E30069F102F2
:101AA0005767FF001F66E3126BF10257671F6668F6
:101AB00033E30F6A26E3006BF10257671F6667F195
:101AC000025767226667F10257671F6667F1025780
:101AD000673366E30F69F10257672466E30069F133
:101AE0000257671F66E3126BF10257671F66683380
:101AF000E30F682BE30067F10257672C6667F1027A
:101B000057672B6667F1025767296667F1025767C7
:101B10002B6667F1025767276667F10257672966E8
:101B200067F1025767266667F1025767276667F114
:101B30000257673866E30F67386738673867FF0012
:101B40001FE3126BF10257671F666833E30F6A26C3
:101B5000E3006BF10257671F6667F1025767226661
:101B600067F10257671F6667F10257673366E30F35
:101B700069F10257672466E30069F10257671F663F
:101B8000E3126BF10257671F666833E30F682BE3BC
:101B90000067F10257672C6667F10257672B66678B
:101BA000F10257673366E30F67F10257672B66E36D
:101BB0000067F1025767276667F10257673366E3EC
:101BC0000F67F10257672666E30067F10257672740
:101BD0006667F10257673366E30F67F10257671FC5
:101BE00066E30067F1025767FF002066E3006BF1D0
:101BF0000257672C666833E30F6A27E3006BF10234
:101C00005767206667F1025767246667F1025767D6
:101C1000206667F10257673366E30F6824E30067C5
:101C2000F1025767276669F10257672266E3126B74
:101C3000F10257672E66E3006833E30F6A29E30079
:101C400067F10257672266E31267F1025767296658
:101C5000E30069F1025767276669F1025767286652
:101C6000E31167F71168F10257672B66E30069F12A
:101C7000025767FF2366E3006BF10257672366682C
:101C800033E30F6A29E30067F1025767236667F1C0
:101C90000257672B6669F10257672A6669F1025796
:101CA000672966E31169F10257672766E30069F166
:101CB00002576724666BF102576730666833E30F9B
:101CC0006A29E30067F1025767246667F1025767E4
:101CD000296669F10257672A6669F1025767276624
:101CE000E31169F10257672266E30069F102576761
:101CF000FF002366E3006BF102576723666833E356
:101D00000F6A29E30067F1025767236667F10257FC
:101D1000672B6669F10257672A6669F102576729DE
:101D200066E31169F10257672766E30069F102571C
:101D30006724666BF102576724666757672A66E374
:101D40001169F10257671B66E30067F102576727C5
:101D50006667F1025767256667F10257672666676F
:101D6000F1025767226667F1025767236667F1023F
:101D700057671E6667F10257671F6667F10257676C
:101D80001B6667F1025767186667F1025767FF0025
:101D90001866E3006A30E30E6824E3006833E30F5B
:101DA0006A1EE312671FE300E8056AF1025767182D
:101DB00066E80067F10257671B66E31267F1025796
:101DC000671866E30067F10257671B6669F10257FF
:101DD000671D66E31269F102576718666A30E30E01
:101DE0006824E3006833E30F6A1DE31267F10257CA
:101DF00067186667F10257671F66E30069F10257CB
:101E0000671E66E31269F10257671866E30069F11D
:101E10000257671B66E31269F1025767FF001866F5
:101E2000E3006A30E30E6824E3006833E30F6A1EC0
:101E3000E312671FE300E8056933E30FE80067F189
:101E40000257671866E30067F10257671B66E312E3
:101E500067F10257671866E30067F10257671B6670
:101E600069F10257671D66E31269F1025767186648
:101E70006A30E30E6824E3006833E30F6A1DE3125F
:101E800067F1025767186667F10257671E6667F1C8
:101E90000257671F66E30067F10257671B66E3128C
:101EA00067F10257671D66E30067F10257671A661C
:101EB000E31267F10257671B66E30067F102576799
:101EC000186667F10257671A6667F1025767FF00E5
:101ED0002366E3006BF102576723666833E30F6AFA
:101EE00029E30067F1025767236667F10257672B02
:101EF0006669F10257672A6669F10257672966E346
:101F00001169F10257672766E30069F10257671FFD
:101F1000666A2CE30E681FE300682CE30E6A1DE37B
:101F20001267F10257671E66E30067F102576733D5
:101F300066E74067E73067E72067E7106957683270
:101F400066E30EE7006832682E682968FF0018E330
:101F5000006A30E30E6824E3006833E30F6A1EE38F
:101F600012671FE300E8056AF10257671866E80088
:101F700067F10257671B66E31267F102576718663D
:101F8000E30067F10257671B6669F10257671D6638
:101F9000E31269F102576718666A30E30E6824E3BA
:101FA000006833E30F682BE30067F10257672C6684
:101FB00067F10257672B6667F10257673366E30FD5
:101FC000682BE30067F1025767276667F1025767DE
:101FD000296667F10257673266E30C67326730E3C0
:101FE0000E6730673FE30D673F673F673F67FF005E
:101FF0000664E312EBFA6A0460E301EB00680D6229
:10200000E308680863E309680460E30A680460E3BE
:1020100001680863E309680460E30A680B61E30888
:10202000680460E3016A0863E309680460E30A681E
:102030000B61E308680460E30A680D62E308680B5B
:1020400061680460E301680D62E308680863E309FE
:10205000680460E30A680460E301680863E30968F0
:102060000460E30A6804680460E3016A0863E30942
:102070006804E30A680460E3016AFF000D62E30894
:10208000680B61680460E301680D62E30868086337
:10209000E309680460E30A680460E301680863E335
:1020A00009680460E30A680B61E308680460E301FF
:1020B0006A0863E309680460E30A680B61E308687F
:1020C0000460E30A680D62E308680863E3096804D2
:1020D00060E301680D62E308680863E3096804606F
:1020E000E30A680460E301680863E309680460E3E5
:1020F0000A680863E309680460E301680863E309A8
:1021000068086808680867086708670867FF0D625D
:10211000E308680B61680460E301680D62E3086826
:102120000863E309680460E30A680460E30168087F
:1021300063E309680460E30A680B61E3086804600C
:10214000E3016A0863E309680460E30A680B61E37A
:1021500008680460E30A680D62E308680B616804BC
:1021600060E301680D62E308680863E309680460DE
:10217000E30A680460E301680863E309680460E354
:102180000A6804680460E3016A0863E3096804E319
:102190000A680460E3016AFF0D62E308680B616886
:1021A0000460E301680D62E308680664E312EBF87B
:1021B0006A0460E301EB00680863E309680460E314
:1021C0000A680B61E308680460E3016A0664E312CD
:1021D000EBF86A0B61E308EB00680460E30A680D42
:1021E00062E308680863E309680460E301680D625C
:1021F000E308680664E312EBF86A0460E301EB00AD
:10220000680863E309680664E312EBF86A0460E3B4
:1022100001EB00680863E309680664E312EBF86AFF
:102220000863E309EB006708646708656708666789
:10223000FF000D62E308680B61680460E301680D4C
:1022400062E308680664E312EBF86A0460E301EBFA
:1022500000680863E309680460E30A680B61E30847
:10226000680460E3016A0664E312EBF86A0B61E359
:1022700008EB00680460E30A680D62E3086808631D
:10228000E309680460E301680D62E308680664E33B
:1022900012EBF86A0460E301EB00680863E3096885
:1022A0000664E312EBFA6C06646C085EE310EB0064
:1022B00067076167066467056667FF000D62E308EC
:1022C000680B61680460E301680D62E308680863F5
:1022D000E309680460E30A680460E301680863E3F3
:1022E00009680460E30A680B61E308680460E301BD
:1022F0006A0863E309680460E30A680B61E308683D
:102300000460E30A680863E30968045EE30168089F
:1023100063E30968045EE301680863E30968045E37
:10232000E301680863E30968045EE3016805636E1E
:102330000763E309670767076707670767076707B3
:10234000670767FF0664E312EBFA6A0863E309EBC9
:1023500000680460E301680D62E308680460E30A52
:10236000680863E309680460E301680D62E30868D4
:102370000B61680863E309680460E301680D62E3C8
:1023800008680460E30A680863E309680460E30A14
:10239000680D62E308680460680863E30968046024
:1023A000E301680D62E308680460E30A680863E318
:1023B00009680460E301680D62E308680B6168085E
:1023C00063E309680460E301680D62E30868046080
:1023D000E30A680863E309680460E30A68FF0D62C2
:1023E000E308680460680863E309680460E301685F
:1023F0000D62E308680460E30A680863E30968049F
:1024000060E301680D62E308680B61680863E30933
:10241000680460E301680D62E308680460E30A6829
:102420000863E309680460E30A680D62E30868046E
:1024300060680863E309680460E301680D62E3080B
:10244000680460E30A680863E309680460E30168FC
:102450000D62E308680B61680863E309680460E3E0
:1024600001680D62E308680460E30A680863E30931
:10247000680460E30A68FF000664E312EBF86A0888
:1024800063E309EB00680460E301680D62E3086838
:102490000460E30A680863E309680460E30168060E
:1024A00064E312EBF86A0863E309EB00680460E395
:1024B00001680D62E308680460E30A680863E309E1
:1024C000680460E30A680664E312EBF86A0863E3F1
:1024D00009EB00680460E301680664E312EBF86A44
:1024E0000863E309EB00680460E301680664E31233
:1024F000EBF86A0863E309EB00680460E30168092C
:1025000063E30B6709670967096709670967096773
:102510000967FF00E300A6FF9F12A012A212A412F7
:10252000A712AA12AD12AF12B112B312B612B9129B
:10253000BC12BF12C212C512C812CB12CE120000BA
:102540000100D4120100E8120500EB124813050047
:10255000EB124F130500EB1256130100ED120100B0
:10256000F1120100F5120300FA122C1303000113FB
:102570003113050004135C13050015135F130900E4
:102580001F136C13050015136913090024136E1330
:102590000300D01236130300D0123A1302003E1388
:1025A000FF050F0D0C0BFF00FF250F0C0A09090892
:1025B00008080707070706060606060505050505B8
:1025C0000504040404040303030302020201FF00E0
:1025D000FF030F0BFF00FF020BFFFF0604090F0DA7
:1025E0000BFFFF060F0D020504FFFF070D0907068D
:1025F0000500FF00FF0B0D0A090807050403020090
:10260000FF00FF040A0300FFFF1F0F0D0C0B0B0A56
:102610000A0A090909090808080808070707070638
:102620000606050504030100FF00FF110F0E0D0C47
:102630000B0A09080706050403020100FF00FF0753
:102640000F0F0F0F0F00FF00FF0E0F0F0F0F0F0FD9
:102650000F0F0F0F0F0F00FFFFFF0001010101011E
:102660000080FF030000FFFFFFFF8000FF0300006A
:102670000C0C8000FFFF00F4FB008000FFFF000C4B
:102680000080FF02FDFE0102030302FFFEFD800049
:10269000FF0200010000FF00FF0000018000FF02B8
:1026A000FFFF0101020101FFFFFE8000FF02FBFDB1
:1026B0000204040402FDFB80FF0200000180FFFF12
:1026C0000E0D0C0B0A0B0C0D0E0F10111211100F2A
:1026D0008000FF0315128000FF020F80FF020680BA
:1026E000FFFF01FFC8EDC0933400C0E0C09361005C
:1026F0002224C0E3C0930028C0E8C0930128CFEF94
:10270000C0930228C0930328C0930428C0E3C09359
:102710000828C0E8C0930928CFEFC0930A28C093C7
:102720000B28C0930C28CFEFC0931028C09311281A
:10273000C0E3C0931328CFE0C0931428C2E0C09335
:102740001A2820921B28CFEFC0931F282092202800
:1027500020922128EEE4F3E0E0931828F093192862
:10276000C591D591C0931C28D0931D2820921E2876
:10277000C591D591CC0FDD1FC0932228D09323287B
:10278000209224282092252820922628209227284B
:10279000C591D591CC0FDD1FC0937128D0937228BD
:1027A00020927328209274282092752820927628EF
:1027B000C591D591CC0FDD1FC093C028D093C128FF
:1027C0002092C2282092C3282092C4282092C52893
:1027D000C591D591CC0FDD1FC0930A29D0930B2949
:1027E00020920C2920920D2920920E2920920F2947
:1027F000CFEF20922A28C0932B28C0932C28209218
:102800002F28C0933028C0933128C09332282092BB
:102810003728C0933828C093392820923D28C09388
:102820003E28C0933F2820924228C0934328C0935B
:102830004428209228282092292820922D2820926E
:102840002E28209233282092342820923528209256
:10285000362820923A2820923B2820923C28209229
:102860004028209241280FE0109100281F7090917D
:1028700000289073906420920628C0930528BC2EEF
:10288000C1E0AC2EC0900128C2949068CFEF209296
:1028900045282092462820924728209248282092B6
:1028A000492820924A2820924B2820924C28209296
:1028B0004D2820924E2820924F2820925028209276
:1028C0005128209252282092532820925428209256
:1028D0005528209256282092572820925828209236
:1028E000592820925A2820925B2820925C28209216
:1028F0005D2820925E28C0935F28C09360282092B4
:1029000061282092622820926328209264282092D5
:1029100065282092662820926728209268282092B5
:10292000692820926A2820926B2820926C28209295
:102930006D2820926E28C0936F28C0937028CFEF27
:1029400020927928C0937A28C0937B2820927E28F1
:10295000C0937F28C0938028C09381282092862826
:10296000C0938728C093882820928C28C0938D28F4
:10297000C0938E2820929128C0939228C0939328C8
:10298000209277282092782820927C2820927D28F7
:1029900020928228209283282092842820928528C1
:1029A0002092892820928A2820928B2820928F2892
:1029B000209290282FE0309108283F70D09108286D
:1029C000D073D062D2959D2B20920E28C0930D28F3
:1029D000EC2EC1E0DC2EF0900928F2949860CFEF45
:1029E0002092942820929528209296282092972829
:1029F000209298282092992820929A2820929B2809
:102A000020929C2820929D2820929E2820929F28E8
:102A10002092A0282092A1282092A2282092A328C8
:102A20002092A4282092A5282092A6282092A728A8
:102A30002092A8282092A9282092AA282092AB2888
:102A40002092AC282092AD28C093AE28C093AF2826
:102A50002092B0282092B1282092B2282092B32848
:102A60002092B4282092B5282092B6282092B72828
:102A70002092B8282092B9282092BA282092BB2808
:102A80002092BC282092BD28C093BE28C093BF28A6
:102A9000CFEF2092C828C093C928C093CA2820929B
:102AA000CD28C093CE28C093CF28C093D0282092A1
:102AB000D528C093D628C093D7282092DB28C0936E
:102AC000DC28C093DD282092E028C093E128C09341
:102AD000E2282092C6282092C7282092CB28209254
:102AE000CC282092D1282092D2282092D32820923C
:102AF000D4282092D8282092D9282092DA2820920F
:102B0000DE282092DF28C0E04C2FCFEF2092E32870
:102B10002092E4282092E5282092E6282092E728B7
:102B20002092E8282092E9282092EA282092EB2897
:102B30002092EC282092ED282092EE282092EF2877
:102B40002092F0282092F1282092F2282092F32857
:102B50002092F4282092F5282092F6282092F72837
:102B6000C093F828C093F9282092FA282092FB28D5
:102B70002092FC282092FD282092FE282092FF28F7
:102B800020920029209201292092022920920329D3
:102B900020920429209205292092062920920729B3
:102BA000C0930829C0930929CFEF20921229C0931E
:102BB0001329C093142920921729C0931829C09370
:102BC0001929C0931A2920921F29C0932029C09344
:102BD000212920922529C0932629C09327292092B4
:102BE0002A29C0932B29C0932C29209210292092A6
:102BF0001129209215292092162920921B29209212
:102C00001C2920921D2920921E29209222292092DF
:102C100023292092242920922829209229292092B0
:102C20001628C0931528C1E05C2F622DCFEF2092AB
:102C30002D2920922E2920922F292092302920926E
:102C4000312920923229209233292092342920924E
:102C5000352920923629209237292092382920922E
:102C6000392920923A2920923B2920923C2920920E
:102C70003D2920923E2920923F29209240292092EE
:102C800041292092422920924329209244292092CE
:102C9000452920924629C0934729C093482920926C
:102CA000492920924A2920924B2920924C2920928E
:102CB0004D2920924E2920924F292092502920926E
:102CC000512920925229209253292092542920924E
:102CD000552920925629C0935729C0935829CFEFE0
:102CE000C0B9C0E7C093010AC1E7C0930A0AC5E1B1
:102CF000C093280AC5E0C093290ACBE2C0932A0AF0
:102D0000CAE0C0932B0AC1E4C0932C0ACFE0C09361
:102D10002D0AC7E5C093260AC4E1C093270ACBE079
:102D2000C093000AC0E0C093810AC1E0C093850A45
:102D3000C0910228C0938C0AC0910328C0938D0AC9
:102D4000C3E0C093800AB0E0B093910AB1E0B093C1
:102D5000950AB0910A28B0939C0AB0910B28B093C1
:102D60009D0AB3E0B093900AB0E0B093A10AB1E03D
:102D7000B0911028B093AC0AB0911128B093AD0A6D
:102D8000B1E0B093A00A7894B0E0B093B10AB1E09A
:102D9000B093B50AB0910A28B093BC0AB0910B2841
:102DA000B093BD0AB3E0B093B00AC0910628D091A9
:102DB0000E28A0FE15C0B21499F0E0918C0AF9E536
:102DC000EF17E0918D0AF0E0EF0750F0E0918C0AE8
:102DD000F6E6EF17E0918D0AF9E5EF0708F401C078
:102DE000CC27D0FE15C0E21499F0E0919C0AF9E5D9
:102DF000EF17E0919D0AF0E0EF0750F0E0919C0A98
:102E0000F6E6EF17E0919D0AF9E5EF0708F401C037
:102E1000DD27CD0FE2E6F2E0EC0FF21DC491D42FD6
:102E2000D4FDD095DF70ED2FDE0FDE0F50FF04C014
:102E3000E0911628EE0FDE0FE2E8F2E0ED0FF21D52
:102E4000D491CD0FC1B9B1CFBFB7BF93F89453D0D0
:102E50009FD0B0E5B0930B0ABF91BFBF1895BFB725
:102E6000BF93F89448D094D0C3FC1BD0F3FC66D039
:102E700095FD02C0B210BA9491FD02C0E210EA942E
:102E8000B1E2B0930B0ABF91BFBF1895BFB7BF9314
:102E9000F894AA0CA21CB1E0B093860ABF91BFBF00
:102EA0001895BC2DB770F9F4DF93DC2DD295D7704F
:102EB00011F4DF9119C0A0918C0AB0918D0AB695DA
:102EC000A795DA95E1F7C7FE02C0A095B095D0911D
:102ED0008C0AAD0FD0918D0ABD1FA0938C0AB093C0
:102EE0008D0ADF9101C0CA9497FF0895C090012810
:102EF000C2949F77089596FD10C0003011F00A9596
:102F00000895009100280F7095FF02C01FE00895FA
:102F1000103009F408951A9508959F7B00910028B8
:102F20000F701FE00895BFB7BF93F894DD0CD21C5B
:102F3000B1E0B093960ABF91BFBF1895BF2DB7708F
:102F4000F9F4DF93DF2DD295D77011F4DF9119C01A
:102F5000A0919C0AB0919D0AB695A795DA95E1F7E4
:102F6000F7FE02C0A095B095D0919C0AAD0FD0910C
:102F70009D0ABD1FA0939C0AB0939D0ADF9101C0DA
:102F8000FA9493FF0895F0900928F294977F08959A
:102F900092FD10C0203011F02A9508952091082844
:102FA0002F7091FF02C03FE00895303009F408957A
:102FB0003A9508959B7F209108282F703FE008954F
:102FC000BFB7BF93F8944F5F4F71B1E0B093A60ABB
:102FD000BF91BFBF1895BFB7BF93F894A52F67FDEA
:102FE0000BC0A695A527A0FD03C06695579513C0F5
:102FF0006695579560640FC0AA0FAA1FAA1FA52740
:10300000A0FD05C06F7766955795606804C066950A
:103010005795606800C0B1E0B093B60ABF91BFBFDA
:103020001895E2EDF4E6ED0FF21DD4910895E2EF6C
:10303000F4E6ED0FF21DD4910895BFB7BF93F89455
:10304000CF93DF93EF93FF93A0911F28AF3FA9F495
:10305000A0912028A2118BC0A0912128A21196C076
:10306000A0911A28B0911B28C0911C28D0911D282E
:10307000AC17BD0708F401C1A0E0E0911828F09159
:103080001928CC27DD27A395AA9511F02A96FCCF05
:103090002296C0931A28D0931B28EC0FFD1FA591F0
:1030A000B591AA0FBB1FA0932228B0932328A59106
:1030B000B591AA0FBB1FA0937128B0937228A59158
:1030C000B591AA0FBB1FA093C028B093C128A591AA
:1030D000B591AA0FBB1FA0930A29B0930B29209288
:1030E00026282092272820922428209225282092E2
:1030F0007528209276282092732820927428209296
:10310000C4282092C5282092C2282092C328209249
:103110000E2920920F2920920C2920920D29AFEF21
:10312000A0935F28A0936028A0936F28A093702895
:10313000A093AE28A093AF28A093BE28A093BF2849
:10314000A093F828A093F928A0930829A09309290F
:10315000A0934729A0934829A0935729A0935829C1
:10316000A0931F28209220282092212886C0FF911A
:10317000EF91DF91CF91BF91BFBFF894AFEFA093D4
:103180001F2820922028209221281895E0911828A5
:10319000F0911928A0911A28B0911B281A96A09393
:1031A0001A28B0931B28EA0FFB1FA591B591AA0F0F
:1031B000BB1FA0932228B0932328A591B591AA0FF5
:1031C000BB1FA0937128B0937228A591B591AA0F47
:1031D000BB1FA093C028B093C128A591B591AA0F99
:1031E000BB1FA0930A29B0930B2920922628209276
:1031F0002728209224282092252820927528209282
:10320000762820927328209274282092C428209235
:10321000C5282092C2282092C32820920E292092ED
:103220000F2920920C2920920D29AFEFA0935F283F
:10323000A0936028A0936F28A0937028A093AE2835
:10324000A093AF28A093BE28A093BF28A093F828EE
:10325000A093F928A0930829A0930929A0934729AE
:10326000A0934829A0935729A0935829A0931F28D9
:10327000209220282092212800C0A0912428B091DB
:103280002528109609F0E4C2E0912228F091232825
:10329000A0912628B0912728EA0FFB1FB491B735DB
:1032A00008F480C1B73608F4BAC1B33E08F4C1C10E
:1032B00009F4C4C1B43E09F46DC2BF3F09F48FC222
:1032C0003196A491BBD2B55EE6EFF4E6BB0FEB0FEF
:1032D000F21DC591D491EC2FFD2F0994A0934528A0
:1032E00020924628D1CF20924B2820924C28209221
:1032F0004528209246286F937F936A2F72EB679F31
:103300007F916F91169407941694079416940794DE
:10331000169407940092472810924828B5CF20921F
:1033200047282092482820924528209246286F93CB
:103330007F936A2F72EB679F7F916F91169407942A
:1033400016940794169407941694079400924B28A9
:1033500010924C2899CF6F937F936A2F72EB679FDF
:103360007F916F911694079416940794169407947E
:10337000169407940092532810925428A21101C069
:1033800083CFA0918C0AB0918D0AA0934F28B0935F
:103390005028209255282092562876CFBA2FA07F09
:1033A000A295BF70A0935728B0935828209259280F
:1033B0006BCFBA2FA07FA295BF70A0935A28B0936D
:1033C0005B2820925C2820925D285ECFA0935E2827
:1033D0005BCFA0931F2858CFB093202855CFB09330
:1033E000212852CFB0910028B07FBA2BB09300288B
:1033F00096604ACFA0931E2847CFA21551F0B091F6
:103400001E28AB1730F4A0935F28B1E0B0932428B6
:1034100022C23ACF39CF38CF37CF36CF6F937F9391
:103420006A2F72EB67037F916F911694079416943D
:103430000794169407941694079413FE02C0B0EFF5
:103440001B2A00926128109262281ECFE0912D283D
:10345000F0912E28309609F017CFE0913528F091A1
:103460003628309609F010CFE0913B28F0913C28A7
:10347000309609F009CFBA2FBF70C0910728BC0F52
:10348000B73508F0B6E5E4E9F0E0BB0FEB0FF21D4D
:10349000C591D491C0936328D0936428A295AF704E
:1034A000AA0FA3956F937F936A2F72EB679F7F910B
:1034B0006F91169407941694079416940794169493
:1034C000079400926528109266282092672820921F
:1034D0006828DACEE0912D28F0912E28309609F058
:1034E000D3CEE0913528F0913628309609F0CCCE35
:1034F000E0913B28F0913C28309609F0C5CEBA2FD8
:10350000BF70C0910728CB1B08F4C0E0E4E9F0E0ED
:10351000CC0FEC0FF21DC591D491C0936928D093C4
:103520006A28A295AF70AA0FA3956F937F936A2F15
:1035300072EB679F7F916F9116940794169407948E
:10354000169407941694079400926B2810926C2896
:1035500020926D2820926E2897CEA21551F0B0913E
:103560001E28AB1730F4A0936F28B1E0B093242845
:1035700072C18ACEE2EFF4E6EA0FF21DA695A79596
:10358000A795B0910028CB2FB07CAB1301C07CCEA7
:10359000A490CF73CB2BC093002876CE75CE74CE7B
:1035A00073CE72CEB0930728A3E0B2E0B0932A287E
:1035B000A0932F28B0933728B0933D28B09342288A
:1035C000209233282092342820923A2820924928A9
:1035D00020924A2820924D2820924E282092552849
:1035E00020925628A0918C0AB0918D0AA0934F2862
:1035F000B09350282092012897602092632820924F
:1036000064282092672820926828209269282092B6
:103610006A2820926D2820926E2806D135CEB755A3
:10362000A0910028A07FAB2BA09300289660FCD02F
:103630002BCEB656B0932428F7D00DC1209228285F
:103640002092292820922D2820922E282092352859
:103650002092362820923B2820923C282092402815
:1036600020924128209233282092342820923A2810
:103670003196B491ECE8F2E1EB0FF21DEE0FFF1F73
:10368000A591B491AA0FBB1FEA2FFB2FB4913296DC
:10369000A6E0AA9519F0B69578F0FBCFA3E0B2E0CA
:1036A000B0932A28A0932F28B0933728B0933D28B1
:1036B000B0934228C3D0E8CDC591D591A53039F05B
:1036C000A43079F0A330D9F0A23059F13CC0C093B6
:1036D0002828D093292841D0C0932C28D0932B2878
:1036E000D8CFC0932D28D0932E28209263282092E3
:1036F00064282092692820926A283AD0CACFC093C1
:103700003528D0933628209263282092642820926E
:10371000692820926A2821D0C0933928D09338286C
:10372000B8CFC0933B28D0933C28209263282092A6
:1037300064282092692820926A280FD0C0933F28DD
:10374000D0933E28A6CFC0934028D093412805D0DF
:10375000C0934428D09343289CCFEF93FF93EC2F42
:10376000FD2FEE0FFF1FC591D491FF91EF910895AA
:10377000EF93FF93EC2FFD2FEE0FFF1FC591D59117
:10378000C0933128D0933028C491C0933228FF9140
:10379000EF910895B0912C28BF3F19F0B395B093E5
:1037A0002A28B0913128BF3F19F0B395B0932F2844
:1037B000B0913928BF3F19F0B395B0933728B09135
:1037C0003F28BF3F19F0B395B0933D28B0914428EE
:1037D000BF3F19F0B395B093422826D055CDE09164
:1037E0001828F0911928A0911A28B0911B281A9630
:1037F000A0931A28B0931B28C0911C28D0911D2893
:10380000AC17BD0710F00C946332EA0FFB1FA591B3
:10381000B491AA0FBB1FA0932228B0932328209213
:1038200026282092272830CDE0912628F0912728BD
:103830003196E0932628F09327280895E0912628D2
:10384000F09127283296E0932628F09327280895B0
:10385000BA95B0932528A0917328B091742810963A
:1038600009F0D7C2E0917128F0917228A0917528D3
:10387000B0917628EA0FFB1FB491B73508F480C1E8
:10388000B73608F4BAC1B33E08F4C1C109F4C4C1E3
:10389000B43E09F46DC2BF3F09F48FC23196A491C2
:1038A000AED2B55EEAE2F5E6BB0FEB0FF21DC591B5
:1038B000D491EC2FFD2F0994A09394282092952861
:1038C000D1CF20929A2820929B282092942820924F
:1038D00095286F937F936A2F72EB679F7F916F910B
:1038E00016940794169407941694079416940794C4
:1038F0000092962810929728B5CF20929628209271
:10390000972820929428209295286F937F936A2F6E
:1039100072EB679F7F916F911694079416940794AA
:10392000169407941694079400929A2810929B2854
:1039300099CF6F937F936A2F72EB679F7F916F91FF
:103940001694079416940794169407941694079463
:103950000092A2281092A328A21101C083CFA091A7
:103960009C0AB0919D0AA0939E28B0939F28209214
:10397000A4282092A52876CFBA2FA07FA295BF7049
:10398000A093A628B093A7282092A8286BCFBA2F7F
:10399000A07FA295BF70A093A928B093AA282092D7
:1039A000AB282092AC285ECFA093AD285BCFA0932C
:1039B0001F2858CFB093202855CFB093212852CF3D
:1039C000B0910828B07FBA2BB093082892604ACFF4
:1039D000A0931E2847CFA21551F0B0911E28AB1717
:1039E00030F4A093AE28B1E0B093732815C23ACF5B
:1039F00039CF38CF37CF36CF6F937F936A2F72EBA3
:103A000067037F916F911694079416940794169408
:103A100007941694079413FE02C0B0EF1B2A00927D
:103A2000B0281092B1281ECFE0917C28F0917D281B
:103A3000309609F017CFE0918428F09185283096D0
:103A400009F010CFE0918A28F0918B28309609F088
:103A500009CFBA2FBF70C0910F28BC0FB73508F03F
:103A6000B6E5E4E9F0E0BB0FEB0FF21DC591D49190
:103A7000C093B228D093B328A295AF70AA0FA39594
:103A80006F937F936A2F72EB679F7F916F9116946C
:103A9000079416940794169407941694079400922A
:103AA000B4281092B5282092B6282092B728DACEF2
:103AB000E0917C28F0917D28309609F0D3CEE091FA
:103AC0008428F0918528309609F0CCCEE0918A28A0
:103AD000F0918B28309609F0C5CEBA2FBF70C091F7
:103AE0000F28CB1B08F4C0E0E4E9F0E0CC0FEC0FAA
:103AF000F21DC591D491C093B828D093B928A2954E
:103B0000AF70AA0FA3956F937F936A2F72EB679F95
:103B10007F916F91169407941694079416940794C6
:103B2000169407940092BA281092BB282092BC28C1
:103B30002092BD2897CEA21551F0B0911E28AB1748
:103B400030F4A093BE28B1E0B093732865C18ACE4B
:103B5000E2EFF4E6EA0FF21DA695A795A795B091BE
:103B60000828CB2FB07CAB1301C07CCED490CF7390
:103B7000CB2BC093082876CE75CE74CE73CE72CE82
:103B8000B0930F28A3E0B2E0B0937928A0937E28E9
:103B9000B0938628B0938C28B093912820928228E5
:103BA0002092832820928928209298282092992870
:103BB00020929C2820929D282092A4282092A5281B
:103BC000A0919C0AB0919D0AA0939E28B0939F2833
:103BD0002092092893602092B2282092B328209244
:103BE000B6282092B7282092B8282092B92820928F
:103BF000BC282092BD28F9D035CEB755A091082811
:103C0000A07FAB2BA09308289260EFD02BCEB656A6
:103C1000B0937328EAD000C12092772820927828A8
:103C200020927C2820927D2820928428209285282A
:103C300020928A2820928B2820928F2820929028E8
:103C40002092822820928328209289283196B4914C
:103C5000ECE8F2E1EB0FF21DEE0FFF1FA591B4911E
:103C6000AA0FBB1FEA2FFB2FB4913296A6E0AA95AC
:103C700019F0B69578F0FBCFA3E0B2E0B0937928C5
:103C8000A0937E28B0938628B0938C28B093912877
:103C9000B6D0E8CDC591D591A53039F0A43079F0F2
:103CA000A330D9F0A23059F13CC0C0937728D0930B
:103CB000782841D0C0937B28D0937A28D8CFC0935E
:103CC0007C28D0937D282092B2282092B32820927D
:103CD000B8282092B9283AD0CACFC0938428D0936C
:103CE00085282092B2282092B3282092B8282092CA
:103CF000B92821D0C0938828D0938728B8CFC09303
:103D00008A28D0938B282092B2282092B328209220
:103D1000B8282092B9280FD0C0938E28D0938D2830
:103D2000A6CFC0938F28D093902805D0C093932816
:103D3000D09392289CCFEF93FF93EC2FFD2FEE0FA3
:103D4000FF1FC591D491FF91EF910895EF93FF93D9
:103D5000EC2FFD2FEE0FFF1FC591D591C09380284A
:103D6000D0937F28C491C0938128FF91EF9108954B
:103D7000B0917B28BF3F19F0B395B0937928B091EB
:103D80008028BF3F19F0B395B0937E28B091882862
:103D9000BF3F19F0B395B0938628B0918E28BF3FEE
:103DA00019F0B395B0938C28B0919328BF3F19F0C8
:103DB000B395B093912819D055CDE0911828F09182
:103DC0001928A0911A28B0911B281296EA0FFB1F00
:103DD000A591B491AA0FBB1FA0937128B09372282C
:103DE00020927528209276283DCDE0917528F0919B
:103DF00076283196E0937528F09376280895E0911F
:103E00007528F09176283296E0937528F0937628FD
:103E10000895BA95B0937428A091C228B091C32890
:103E2000109609F0BFC2E091C028F091C128A0917E
:103E3000C428B091C528EA0FFB1FB491B73508F428
:103E400064C1B73608F49EC1B33E08F4A9C109F4B1
:103E5000ACC1B43E09F455C2BF3F09F477C23196F4
:103E6000A49196D2B55EEEE5F5E6BB0FEB0FF21D21
:103E7000C591D491EC2FFD2F0994A093E3282092B3
:103E8000E428D1CF2092E9282092EA282092E32842
:103E90002092E4286F937F936A2F72EB679F7F9144
:103EA0006F91169407941694079416940794169499
:103EB00007940092E5281092E628B5CF2092E528D5
:103EC0002092E6282092E3282092E4286F937F93A3
:103ED0006A2F72EB679F7F916F91169407941694E7
:103EE000079416940794169407940092E928109268
:103EF000EA2899CF6F937F936A2F72EB679F7F9128
:103F00006F91169407941694079416940794169438
:103F100007940092F1281092F228A21101C083CFD9
:103F2000A091AC0AB091AD0AA093ED28B093EE2811
:103F30002092F3282092F42876CFBA2FA07FA29562
:103F4000BF70A093F528B093F6282092F7286BCF86
:103F50006ACF69CFA0931F2866CFB093202863CF84
:103F6000B093212860CFA21521F0B1E0B093A50A4B
:103F70005ACF2092A50A2092AC0A2092AD0A53CFC4
:103F8000A0931E2850CFA21551F0B0911E28AB1758
:103F900030F4A093F828B1E0B093C22806C243CF12
:103FA00042CF41CF40CF3FCF6F937F936A2F72EBC9
:103FB00067037F916F911694079416940794169453
:103FC00007941694079413FE02C0B0EF1B2A0092C8
:103FD000FA281092FB2827CFE091CB28F091CC282B
:103FE000309609F020CFE091D328F091D428309674
:103FF00009F019CFE091D928F091DA28309609F02C
:1040000012CFBA2FBF70C0911228BC0FB73508F07D
:10401000B6E5E4E9F0E0BB0FEB0FF21DC591D491DA
:10402000C093FC28D093FD28A295AF70AA0FA3954A
:104030006F937F936A2F72EB679F7F916F911694B6
:104040000794169407941694079416940794009274
:10405000FE281092FF282092002920920129E3CE09
:10406000E091CB28F091CC28309609F0DCCEE0919D
:10407000D328F091D428309609F0D5CEE091D928F4
:10408000F091DA28309609F0CECEBA2FBF70C091E9
:104090001228CB1B08F4C0E0E4E9F0E0CC0FEC0FF1
:1040A000F21DC591D491C0930229D0930329A29502
:1040B000AF70AA0FA3956F937F936A2F72EB679FE0
:1040C0007F916F9116940794169407941694079411
:1040D000169407940092042910920529209206292B
:1040E00020920729A0CEA21551F0B0911E28AB173F
:1040F00030F4A0930829B1E0B093C22856C193CE02
:1041000092CE91CE90CE8FCE8ECEB0931228A3E0D9
:10411000B2E0B093C828A093CD28B093D528B0932F
:10412000DB28B093E0282092D1282092D228209238
:10413000D8282092E7282092E8282092EB28209285
:10414000EC282092F3282092F428A091AC0AB09198
:10415000AD0AA093ED28B093EE282092FC2820927F
:10416000FD282092002920920129209202292092E4
:1041700003292092062920920729B1E0B093A50ACD
:10418000FDD051CEFBD0B75521F0B1E0B093A50AD8
:104190004ACE2092A50A2092AC0A2092AD0A43CEC4
:1041A000B656B093C228EAD000C12092C628209209
:1041B000C7282092CB282092CC282092D328209266
:1041C000D4282092D9282092DA282092DE28209222
:1041D000DF282092D1282092D2282092D828319608
:1041E000B491ECE8F2E1EB0FF21DEE0FFF1FA59189
:1041F000B491AA0FBB1FEA2FFB2FB4913296A6E011
:10420000AA9519F0B69578F0FBCFA3E0B2E0B09391
:10421000C828A093CD28B093D528B093DB28B093BD
:10422000E028B6D000CEC591D591A53039F0A430A4
:1042300079F0A330D9F0A23059F13CC0C093C62820
:10424000D093C72841D0C093CA28D093C928D8CFCB
:10425000C093CB28D093CC282092FC282092FD2814
:1042600020920229209203293AD0CACFC093D328A2
:10427000D093D4282092FC282092FD282092022955
:104280002092032921D0C093D728D093D628B8CF25
:10429000C093D928D093DA282092FC282092FD28B8
:1042A00020920229209203290FD0C093DD28D093B9
:1042B000DC28A6CFC093DE28D093DF2805D0C0939A
:1042C000E228D093E1289CCFEF93FF93EC2FFD2FB2
:1042D000EE0FFF1FC591D491FF91EF910895EF93D9
:1042E000FF93EC2FFD2FEE0FFF1FC591D591C093CB
:1042F000CF28D093CE28C491C093D028FF91EF91BE
:104300000895B091CA28BF3F19F0B395B093C8285B
:10431000B091CF28BF3F19F0B395B093CD28B0919D
:10432000D728BF3F19F0B395B093D528B091DD28B9
:10433000BF3F19F0B395B093DB28B091E228BF3F9F
:1043400019F0B395B093E02819D06DCDE0911828FD
:10435000F0911928A0911A28B0911B281496EA0F01
:10436000FB1FA591B491AA0FBB1FA093C028B093C7
:10437000C1282092C4282092C52855CDE091C42898
:10438000F091C5283196E093C428F093C52808958C
:10439000E091C428F091C5283296E093C428F093A8
:1043A000C5280895BA95B093C328A0910C29B0915F
:1043B0000D29109609F0CDC2E0910A29F0910B2940
:1043C000A0910E29B0910F29EA0FFB1FB491B735C8
:1043D00008F476C1B73608F4ADC1B33E08F4B3C1F2
:1043E00009F4B6C1B43E09F45FC2BF3F09F481C20B
:1043F0003196A491A4D2B55EE2E9F5E6BB0FEB0FCE
:10440000F21DC591D491EC2FFD2F0994A0932D2975
:1044100020922E29D1CF2092332920923429209224
:104420002D2920922E296F937F936A2F72EB679F1D
:104430007F916F911694079416940794169407949D
:104440001694079400922F2910923029B5CF20920C
:104450002F292092302920922D2920922E296F93E6
:104460007F936A2F72EB679F7F916F9116940794E9
:10447000169407941694079416940794009233297F
:104480001092342999CF6F937F936A2F72EB679FB5
:104490007F916F911694079416940794169407943D
:1044A0001694079400923B2910923C29A21101C056
:1044B00083CFA091BC0AB091BD0AA0933729B093D5
:1044C000382920923D2920923E2976CFBA2FA07F0D
:1044D000A295BF70A0933F29B09340292092412913
:1044E0006BCFBA2FA07FA295BF70A0934229B09343
:1044F000432920924429209245295ECFA093462942
:104500005BCFA0931F2858CFB093202855CFB093EE
:10451000212852CFB0911328B07FBA2BB093132823
:104520004BCFA0931E2848CFA21551F0B0911E2862
:10453000AB1730F4A0934729B1E0B0930C290CC21B
:104540003BCF3ACF39CF38CF37CF6F937F936A2F96
:1045500072EB67037F916F911694079416940794FA
:10456000169407941694079413FE02C0B0EF1B2A0A
:104570000092492910924A291FCFE0911529F09104
:104580001629309609F018CFE0911D29F0911E29C7
:10459000309609F011CFE0912329F091242930962B
:1045A00009F00ACFBA2FBF70C0911728BC0FB735DA
:1045B00008F0B6E5E4E9F0E0BB0FEB0FF21DC591A2
:1045C000D491C0934B29D0934C29A295AF70AA0FD8
:1045D000A3956F937F936A2F72EB679F7F916F9183
:1045E00016940794169407941694079416940794B7
:1045F00000924D2910924E2920924F292092502945
:10460000DBCEE0911529F0911629309609F0D4CE31
:10461000E0911D29F0911E29309609F0CDCEE09150
:104620002329F0912429309609F0C6CEBA2FBF7005
:10463000C0911728CB1B08F4C0E0E4E9F0E0CC0FF0
:10464000EC0FF21DC591D491C0935129D0935229FA
:10465000A295AF70AA0FA3956F937F936A2F72EB09
:10466000679F7F916F911694079416940794169400
:10467000079416940794009253291092542920927B
:1046800055292092562998CEA21551F0B0911E2896
:10469000AB1730F4A0935729B1E0B0930C295CC15B
:1046A0008BCEA695A795B0911428BF77BA2BB0935F
:1046B00013286F776A2B80CE7FCE7ECE7DCE7CCEC8
:1046C000B0931728A3E0B2E0B0931229A093172962
:1046D000B0931F29B0932529B0932A2920921B2932
:1046E00020921C29209222292092312920923229BD
:1046F000209235292092362920923D2920923E2968
:10470000A091BC0AB091BD0AA0933729B093382973
:1047100020924B2920924C2920924F2920925029F7
:1047200020925129209252292092552920925629CF
:10473000FCD042CEB755A0911328A07FAB2BA093FD
:104740001328F3D039CEB656B0930C29EED004C15D
:1047500020921029209211292092152920921629A1
:1047600020921D2920921E2920922329209224295B
:10477000209228292092292920921B2920921C2945
:10478000209222293196B491ECE8F2E1EB0FF21D70
:10479000EE0FFF1FA591B491AA0FBB1FEA2FFB2FAD
:1047A000B4913296A6E0AA9519F0B69578F0FBCFB1
:1047B000A3E0B2E0B0931229A0931729B0931F2968
:1047C000B0932529B0932A29BAD0F6CDC591D591B9
:1047D000A53039F0A43079F0A330D9F0A23059F1E6
:1047E0003CC0C0931029D093112941D0C093142903
:1047F000D0931329D8CFC0931529D093162920928E
:104800004B2920924C2920925129209252293AD0AA
:10481000CACFC0931D29D0931E2920924B292092E4
:104820004C29209251292092522921D0C09321292C
:10483000D0932029B8CFC0932329D0932429209244
:104840004B2920924C2920925129209252290FD095
:10485000C0932729D0932629A6CFC0932829D09387
:10486000292905D0C0932C29D0932B299CCFEF93D5
:10487000FF93EC2FFD2FEE0FFF1FC591D491FF91F9
:10488000EF910895EF93FF93EC2FFD2FEE0FFF1F95
:10489000C591D591C0931929D0931829C491C0937B
:1048A0001A29FF91EF910895B0911429BF3F19F093
:1048B000B395B0931229B0911929BF3F19F0B39560
:1048C000B0931729B0912129BF3F19F0B395B09348
:1048D0001F29B0912729BF3F19F0B395B09325291F
:1048E000B0912C29BF3F19F0B395B0932A291DD060
:1048F00063CDE0911828F0911928A0911A28B09161
:104900001B28A0931A28B0931B281696EA0FFB1FAA
:10491000A591B491AA0FBB1FA0930A29B0930B29AC
:1049200020920E2920920F2947CDE0910E29F09177
:104930000F293196E0930E29F0930F290895E09105
:104940000E29F0910F293296E0930E29F0930F294A
:104950000895BA95B0930D29F0911E28EF2FE150DC
:10496000A0912528A21142C000C0AF2FB0912428E9
:10497000B21509F43BC0BA95B0932428B21134C0E3
:10498000AA95BFEFC0916F28D0917028CB1709F07E
:104990000DC0DB1709F015C0C0915F28D0916028C9
:1049A000CB1709F012C0DB17F9F01AC0B0936F28CB
:1049B000EC1BE0937028CA95C0932528EF2FE15097
:1049C00015C0B0937028AD2F0FC0B0935F28EC1BBB
:1049D000E0936028CA95C0932528EF2FE15006C0C8
:1049E000B0936028AD2F00C0A0932528A091742813
:1049F000A21142C000C0AF2FB0917328B21509F4C4
:104A00003BC0BA95B0937328B21134C0AA95BFEFDA
:104A1000C091BE28D091BF28CB1709F00DC0DB177D
:104A200009F015C0C091AE28D091AF28CB1709F07E
:104A300012C0DB17F9F01AC0B093BE28EC1BE0934C
:104A4000BF28CA95C0937428EF2FE150CFCFB09301
:104A5000BF28AD2F0FC0B093AE28EC1BE093AF285A
:104A6000CA95C0937428EF2FE150C0CFB093AF2800
:104A7000AD2F00C0A0937428A091C328A21142C0FA
:104A800000C0AF2FB091C228B21509F43BC0BA954F
:104A9000B093C228B21134C0AA95BFEFC0910829C3
:104AA000D0910929CB1709F00DC0DB1709F015C00B
:104AB000C091F828D091F928CB1709F012C0DB1764
:104AC000F9F01AC0B0930829EC1BE0930929CA95A4
:104AD000C093C328EF2FE15015C0B0930929AD2F23
:104AE0000FC0B093F828EC1BE093F928CA95C09347
:104AF000C328EF2FE15006C0B093F928AD2F00C0B6
:104B0000A093C328A0910D29A21142C000C0AF2FCD
:104B1000B0910C29B21509F43BC0BA95B0930C2999
:104B2000B21134C0AA95BFEFC0915729D09158292E
:104B3000CB1709F00DC0DB1709F015C0C09147294C
:104B4000D0914829CB1709F012C0DB17F9F01AC031
:104B5000B0935729EC1BE0935829CA95C0930D29AF
:104B6000EF2FE15015C0B0935829AD2F0FC0B0936F
:104B70004729EC1BE0934829CA95C0930D29EF2FD4
:104B8000E15006C0B0934829AD2F00C0A0930D2975
:104B9000E0912828F09129283096A1F1EE0FFF1F0F
:104BA000A0912A28EA0FF21DB0912C28BA1729F4F7
:104BB000A0912B28AB1710F003C0A395A0932A282F
:104BC000B491BF3F69F4B0912C28BF3F29F4B09154
:104BD0002B28B0932A28DCCFA250A0932A28D8CF24
:104BE000E6ECF5E6B295EB0FF21DB0910028BF7030
:104BF000A0915D28A03081F4EB0FF21DB491B09329
:104C0000062824C0B0910028BF70A0915D28A03074
:104C1000A1F4B09306281AC0BA1B40F039F0B1E0F5
:104C2000EB0FF21DB491B093062810C0B1E0EB0F6A
:104C3000F21DB491B093062809C0BA1B20F019F0F8
:104C4000B093062803C0B1E0B0930628E0912D2868
:104C5000F0912E283096D9F1EE0FFF1FA0912F284A
:104C6000EA0FF21DB0913128BA1729F4A09130282B
:104C7000AB1710F003C0A395A0932F28B491B038C0
:104C800009F041C0A150A0932F28B0913228B13033
:104C900048F0B0913128BF3FD1F4B0913028BF3FE8
:104CA00099F415C0B0913128BF3F21F4B09130285C
:104CB000BF3F51F4C0914528D0914628209669F411
:104CC000A150A0932F28C2CFB0932F28BFCFC0915F
:104CD0004528D0914628209699F0D695C795D79526
:104CE000C795D795C795D795C795D795D295C093B2
:104CF0004528D0934628CF70A0910728AC0F2EC02E
:104D0000A09107282BC0209233282092342820928B
:104D10003A28A0913228A13010F069F00EC0A0917D
:104D20000728AB0FB7FD04C0A735C0F0A6E516C035
:104D3000A7FDA0E013C0AB2F11C0A0910728AB0FB7
:104D4000B7FD08C0A0930728A73540F0A6E5A093BB
:104D5000072804C0A7FDA0E0A0930728E4E9F0E03D
:104D6000AA0FEA0FF21DA591B491A0938C0AB093FB
:104D70008D0AA0935128B093522800C0E0913528A5
:104D8000F0913628309609F423C0EE0FFF1FA09152
:104D90003728EA0FF21DB0913928BA1729F4A091EB
:104DA0003828AB1710F003C0A395A0933728B4910F
:104DB000B03879F4A150A0933728B0913928BF3F7B
:104DC00039F4B0913828BF3F19F0B0933728D6CFC7
:104DD000B0E06F937F936B2F72EB67037F916F91BE
:104DE00016940794169407941694079416940794AF
:104DF00013FE02C0B0EF1B2AA0913328B0913428D3
:104E00000A0E1B1E0092332810923428A0918C0A9F
:104E1000B0918D0AA00DB11DC0914928D0914A28AA
:104E2000AC1BBD0BC0914D28D0914E28AC0FBD1FBF
:104E3000C0916128D0916228AC0FBD1FC091672836
:104E4000D0916828AC1BBD0BC0916D28D0916E2805
:104E5000AC0FBD1FA0938C0AB0938D0AE0913B2844
:104E6000F0913C28309609F43CC0EE0FFF1FA09152
:104E70003D28EA0FF21DB0913F28BA1729F4A091FE
:104E80003E28AB1710F003C0A395A0933D28B49122
:104E9000B03889F4A150A0933D28B0913F28BF3F7E
:104EA00039F4B0913E28BF3F19F0B0933D28D6CFDA
:104EB000B0913A2805C0A0913A28BA0FB0933A2889
:104EC0006F937F936B2F72EB67037F916F91A0912C
:104ED0008C0AB0918D0AA00DB11DA0938C0AB093DD
:104EE0008D0AE0914028F09141283096B1F1EE0F03
:104EF000FF1FA0914228EA0FF21DB0914428BA1773
:104F000029F4A0914328AB1710F027C0A395A093D4
:104F10004228B491BF3F71F4A150A0934228B091B0
:104F20004428BF3FD1F4B0914328BF3FB1F0B093C4
:104F30004228D7CFE2EFF4E6EB0FF21DB695B79516
:104F4000B795A0910028CA2FA07CBA1301C005C054
:104F5000A490CF73CB2BC0930028E0914728F09109
:104F60004828309651F0A0914928B0914A28AE0FB8
:104F7000BF1FA0934928B0934A28E0914B28F09195
:104F80004C28309651F0A0914D28B0914E28AE0F8C
:104F9000BF1FA0934D28B0934E28E0915328F09165
:104FA0005428309609F448C0A0914F28B091502859
:104FB000109609F441C0C0915128D0915228AC17E5
:104FC000BD0711F030F01FC020924F2820925028CA
:104FD00033C0CA1BDB0BA0915528B0915628AE0FE9
:104FE000BF1FCA1BDB0B80F3A0935528B093562834
:104FF000A0918C0AB0918D0AAC1BBD0BA0938C0ABA
:10500000B0938D0A19C0AC1BBD0BC0915528D0912F
:105010005628CE0FDF1FAC1BBD0BB0F2C093552836
:10502000D0935628C0918C0AD0918D0ACA0FDB1FED
:10503000C0938C0AD0938D0AA0915728A21509F429
:105040005CC0B0915828C0915928CA0FC43608F0E6
:10505000C356C0935928C03128F0C03228F0C0335D
:1050600030F007C0CF7029C0C06FC09526C0CF7088
:1050700003C0C06FC09500C0B295CB0FE2E6F1E06F
:10508000EC0FF21DC4916F937F936C2F72EB679FAF
:105090007F916F9116940794169407941694079431
:1050A00016940794A0918C0AB0918D0AA00DB11DA1
:1050B000A0938C0AB0938D0A20C0B295CB0FE2E684
:1050C000F1E0EC0FF21DC4916F937F936C2F72EBA4
:1050D000679F7F916F911694079416940794169486
:1050E000079416940794A0918C0AB0918D0AA01988
:1050F000B109A0938C0AB0938D0AA0915A28A215E9
:10510000F1F0B0915B28C0915C28CA0FC43610F052
:10511000C0E0C356C0935C28C695C4FF01C002C05E
:10512000CF7003C0C06FC09500C0B295CB0FE2E650
:10513000F1E0EC0FF21DC491C695C0935D28B091CB
:105140005E28B215E9F0A0910528C0910028DA2F59
:10515000EC2FE295D07FE07FED1709F0AE2FB7FD81
:1051600004C0AB0F28F4A0EF03C0AB0F08F0A0E021
:10517000A0930528A07FA295C07FCA2BC0930028CA
:10518000E0916328F0916428309639F1A091672866
:10519000B0916828C0918C0AD0918D0AEC1BFD0B50
:1051A00008F488F0AE1BBF0BC0916128D091622833
:1051B000AC0FBD1FA0936728B09368282092632886
:1051C000209264280AC0C0916528D0916628AC0F4F
:1051D000BD1FA0936728B0936828E0916928F091DB
:1051E0006A28309639F1A0916D28B0916E28C0914F
:1051F0008C0AD0918D0ACE1BDF0B08F488F0AC1B13
:10520000BD0BC0916128D0916228AC0FBD1FA09347
:105210006D28B0936E282092692820926A280AC0CF
:10522000C0916B28D0916C28AC0FBD1FA0936D2846
:10523000B0936E28E0917728F09178283096A1F10C
:10524000EE0FFF1FA0917928EA0FF21DB0917B2885
:10525000BA1729F4A0917A28AB1710F003C0A395D0
:10526000A0937928B491BF3F69F4B0917B28BF3FE8
:1052700029F4B0917A28B0937928DCCFA250A0937A
:105280007928D8CFE6ECF5E6B295EB0FF21DB09198
:105290000828BF70A091AC28A03081F4EB0FF21D5C
:1052A000B491B0930E2824C0B0910828BF70A0918B
:1052B000AC28A030A1F4B0930E281AC0BA1B40F05D
:1052C00039F0B1E0EB0FF21DB491B0930E2810C08D
:1052D000B1E0EB0FF21DB491B0930E2809C0BA1BD8
:1052E00020F019F0B0930E2803C0B1E0B0930E285F
:1052F000E0917C28F0917D283096D9F1EE0FFF1FC8
:10530000A0917E28EA0FF21DB0918028BA1729F4E7
:10531000A0917F28AB1710F003C0A395A0937E281F
:10532000B491B03809F041C0A150A0937E28B0914B
:105330008128B13048F0B0918028BF3FD1F4B091BE
:105340007F28BF3F99F415C0B0918028BF3F21F45A
:10535000B0917F28BF3F51F4C0919428D0919528F7
:10536000209669F4A150A0937E28C2CFB0937E28E6
:10537000BFCFC0919428D0919528209699F0D695CA
:10538000C795D795C795D795C795D795C795D795FD
:10539000D295C0939428D0939528CF70A0910F28D0
:1053A000AC0F2EC0A0910F282BC0209282282092F3
:1053B000832820928928A0918128A13010F069F0DB
:1053C0000EC0A0910F28AB0FB7FD04C0A735C0F0E9
:1053D000A6E516C0A7FDA0E013C0AB2F11C0A09199
:1053E0000F28AB0FB7FD08C0A0930F28A73540F0DA
:1053F000A6E5A0930F2804C0A7FDA0E0A0930F2866
:10540000E4E9F0E0AA0FEA0FF21DA591B491A09390
:105410009C0AB0939D0AA093A028B093A12800C035
:10542000E0918428F0918528309609F423C0EE0F8E
:10543000FF1FA0918628EA0FF21DB0918828BA17A5
:1054400029F4A0918728AB1710F003C0A395A0936F
:105450008628B491B03879F4A150A0938628B091F1
:105460008828BF3F39F4B0918728BF3F19F0B09327
:105470008628D6CFB0E06F937F936B2F72EB6703D4
:105480007F916F911694079416940794169407943D
:105490001694079413FE02C0B0EF1B2AA091822835
:1054A000B09183280A0E1B1E009282281092832836
:1054B000A0919C0AB0919D0AA00DB11DC0919828A1
:1054C000D0919928AC1BBD0BC0919C28D0919D28F0
:1054D000AC0FBD1FC091B028D091B128AC0FBD1F3B
:1054E000C091B628D091B728AC1BBD0BC091BC2889
:1054F000D091BD28AC0FBD1FA0939C0AB0939D0A0C
:10550000E0918A28F0918B28309609F43CC0EE0F88
:10551000FF1FA0918C28EA0FF21DB0918E28BA17B8
:1055200029F4A0918D28AB1710F003C0A395A09388
:105530008C28B491B03889F4A150A0938C28B091F4
:105540008E28BF3F39F4B0918D28BF3F19F0B0933A
:105550008C28D6CFB091892805C0A0918928BA0F90
:10556000B09389286F937F936B2F72EB67037F91C2
:105570006F91A0919C0AB0919D0AA00DB11DA093BE
:105580009C0AB0939D0AE0918F28F0919028309664
:10559000B1F1EE0FFF1FA0919128EA0FF21DB0911B
:1055A0009328BA1729F4A0919228AB1710F027C0BE
:1055B000A395A0939128B491BF3F71F4A150A093FB
:1055C0009128B0919328BF3FD1F4B0919228BF3F6A
:1055D000B1F0B0939128D7CFE2EFF4E6EB0FF21DD4
:1055E000B695B795B795A0910828CA2FA07CBA1395
:1055F00001C005C0D490CF73CB2BC0930828E09195
:105600009628F0919728309651F0A0919828B09163
:105610009928AE0FBF1FA0939828B0939928E091C6
:105620009A28F0919B28309651F0A0919C28B09137
:105630009D28AE0FBF1FA0939C28B0939D28E0919A
:10564000A228F091A328309609F448C0A0919E2882
:10565000B0919F28109609F441C0C091A028D09124
:10566000A128AC17BD0711F030F01FC020929E2872
:1056700020929F2833C0CA1BDB0BA091A428B091B5
:10568000A528AE0FBF1FCA1BDB0B80F3A093A42875
:10569000B093A528A0919C0AB0919D0AAC1BBD0BAC
:1056A000A0939C0AB0939D0A19C0AC1BBD0BC0917E
:1056B000A428D091A528CE0FDF1FAC1BBD0BB0F2E4
:1056C000C093A428D093A528C0919C0AD0919D0A8C
:1056D000CA0FDB1FC0939C0AD0939D0AA091A628F5
:1056E000A21509F45CC0B091A728C091A828CA0FE0
:1056F000C43608F0C356C093A828C03128F0C03281
:1057000028F0C03330F007C0CF7029C0C06FC095FB
:1057100026C0CF7003C0C06FC09500C0B295CB0F3C
:10572000E2E6F1E0EC0FF21DC4916F937F936C2FD2
:1057300072EB679F7F916F9116940794169407946C
:105740001694079416940794A0919C0AB0919D0A10
:10575000A00DB11DA0939C0AB0939D0A20C0B295E4
:10576000CB0FE2E6F1E0EC0FF21DC4916F937F9353
:105770006C2F72EB679F7F916F911694079416942C
:1057800007941694079416940794A0919C0AB091DC
:105790009D0AA019B109A0939C0AB0939D0AA091FB
:1057A000A928A215F1F0B091AA28C091AB28CA0F80
:1057B000C43610F0C0E0C356C093AB28C695C4FFF2
:1057C00001C002C0CF7003C0C06FC09500C0B295C9
:1057D000CB0FE2E6F1E0EC0FF21DC491C695C09349
:1057E000AC28B091AD28B215E9F0A0910D28C09178
:1057F0000828DA2FEC2FE295D07FE07FED1709F033
:10580000AE2FB7FD04C0AB0F28F4A0EF03C0AB0F61
:1058100008F0A0E0A0930D28A07FA295C07FCA2B1E
:10582000C0930828E091B228F091B328309639F15E
:10583000A091B628B091B728C0919C0AD0919D0A3A
:10584000EC1BFD0B08F488F0AE1BBF0BC091B02819
:10585000D091B128AC0FBD1FA093B628B093B72844
:105860002092B2282092B3280AC0C091B428D091C7
:10587000B528AC0FBD1FA093B628B093B728E09110
:10588000B828F091B928309639F1A091BC28B09190
:10589000BD28C0919C0AD0919D0ACE1BDF0B08F455
:1058A00088F0AC1BBD0BC091B028D091B128AC0FD3
:1058B000BD1FA093BC28B093BD282092B828209289
:1058C000B9280AC0C091BA28D091BB28AC0FBD1F1F
:1058D000A093BC28B093BD28E091C628F091C728BA
:1058E000309699F1EE0FFF1FA091C828EA0FF21D24
:1058F000B091CA28BA1729F4A091C928AB1710F0A3
:1059000003C0A395A093C828B491BF3F69F4B09198
:10591000CA28BF3F29F4B091C928B093C828DCCF6A
:10592000A250A093C828D8CFB21541F0B091A50AD3
:10593000B13059F4B1E0B093A50A07C02092A50A8E
:105940002092AC0A2092AD0A00C0E091CB28F091E1
:10595000CC283096D9F1EE0FFF1FA091CD28EA0F89
:10596000F21DB091CF28BA1729F4A091CE28AB1719
:1059700010F003C0A395A093CD28B491B03809F0DE
:1059800041C0A150A093CD28B091D028B13048F0AB
:10599000B091CF28BF3FD1F4B091CE28BF3F99F44A
:1059A00015C0B091CF28BF3F21F4B091CE28BF3FA2
:1059B00051F4C091E328D091E428209669F4A150D5
:1059C000A093CD28C2CFB093CD28BFCFC091E328FC
:1059D000D091E428209699F0D695C795D795C7958C
:1059E000D795C795D795C795D795D295C093E328F6
:1059F000D093E428CF70A0911228AC0F2EC0A091B4
:105A000012282BC02092D1282092D2282092D82868
:105A1000A091D028A13010F069F00EC0A0911228FA
:105A2000AB0FB7FD04C0A735C0F0A6E516C0A7FDB3
:105A3000A0E013C0AB2F11C0A0911228AB0FB7FD8F
:105A400008C0A0931228A73540F0A6E5A09312281D
:105A500004C0A7FDA0E0A0931228E4E9F0E0AA0F9B
:105A6000EA0FF21DA591B491A093AC0AB093AD0AD0
:105A7000A093EF28B093F02800C0E091D328F091D4
:105A8000D428309609F423C0EE0FFF1FA091D5282B
:105A9000EA0FF21DB091D728BA1729F4A091D628A1
:105AA000AB1710F003C0A395A093D528B491B038DC
:105AB00079F4A150A093D528B091D728BF3F39F4ED
:105AC000B091D628BF3F19F0B093D528D6CFB0E01B
:105AD0006F937F936B2F72EB67037F916F91169497
:105AE000079416940794169407941694079413FE3B
:105AF00002C0B0EF1B2AA091D128B091D2280A0E83
:105B00001B1E0092D1281092D228A091AC0AB0910D
:105B1000AD0AA00DB11DC091E728D091E828AC1BBB
:105B2000BD0BC091EB28D091EC28AC0FBD1FC091EC
:105B3000FA28D091FB28AC0FBD1FC0910029D0914D
