:020000020000FC
:040000000C94C30E8B
:04001C000C947E13AF
:100024000C9485120C9490120C9485120C94A712C3
:040034000C94F41222
:040064000C944113A4
:100090000C944C13C758CC53184FA74A774682424A
:1000A000C73E413BED37CA34D331072F642CE629D4
:1000B0008C2754253B234121631FA01DF71B651A84
:1000C000EA1884173216F314C613AA129E11A1104F
:1000D000B20FD00EFB0D320D750CC20B190B790A45
:1000E000E3095509CF085008D9076807FE069906A5
:1000F0003A06E1058C053D05F104AA0467042804CD
:10010000EC03B4037F034D031D03F002C6029E02FD
:100110007902550234021402F601DA01BF01A60188
:100120008F01780163014F013C012B011A010A0183
:10013000FB00ED00E000D300C700BC00B200A80047
:100140009E00210037006400BD0070012302D6022A
:100150008903730496055608210BAC1037166F2CD3
:10016000D458000000000000000000000000000063
:10017000000000000000000000000000000000007F
:100180000000000000000000010101010101010167
:100190000101000000010101020202030303030345
:1001A000030300000001010202030303040404042A
:1001B0000404000001020203030404050506060608
:1001C00006060000010203040506070708080909DE
:1001D000090900010203040506070809090A0B0BB7
:1001E0000B0B0001020405060708090A0B0C0C0D95
:1001F0000D0D000103040608090A0C0D0E0E0F1068
:10020000101000020406080A0C0D0F111213141529
:100210001515000205080B0E10131517181A1B1CD4
:100220001D1D0004080C1014181B1F222426282A48
:100230002B2B00060C12181E23282D3135383B3D80
:100240003E3F0009121B242D353C434A4F54585B56
:100250005E5F000C1825303C47515A626A70767A0E
:100260007D7F000306090B0E111316181B1D1F229C
:100270002426282A2C2E3032343638393B3D3E4055
:1002800042000002030507080A0C0D0F1012141596
:1002900017181A1B1D1E202123242527282A2B2C42
:1002A0002E2F313233343637383A3B3C3D3F4041D4
:1002B000424445464748494B4C4D4E4F505153548C
:1002C00055565758595A5B5C5D5E5F606162636466
:1002D00065666768696A6B6C6D6E6F707172737357
:1002E0007475767778797A7A7B7C7D7E7F7F808162
:1002F000828384848586878888898A8B8B8C8D8E7F
:100300008E8F9091919293949495969697989899B0
:100310009A9B9B9C9D9D9E9F9FA0A0A1A2A2A3A4EF
:10032000A4A5A6A6A7A7A8A9A9AAAAABACACADAD3F
:10033000AEAFAFB0B0B1B1B2B3B3B4B4B5B5B6B699
:10034000B7B8B8B9B9BABABBBBBCBCBDBD00CA006E
:100350007D0456079909AB0C2D0D0C02B604A009BB
:10036000F209FB0C6402DC04D307310AFB0C4102E6
:1003700001058007770AFB0C98021B058007C80A55
:10038000FB0CBB0201058007C80AFB0CD502370530
:100390002F08170BFB0CEB02590584085F0BFB0CB5
:1003A000190386058408C80AFB0C1F04AF058408DE
:1003B0005F0BFB0C7203DA05D608AF0BFB0CEB02EC
:1003C000FB0584085F0BFB0C190329068408C80A87
:1003D000FB0C46035D0684085F0BFB0CA10388063B
:1003E0002C09FA0BFB0CDA03C1068408450CFB0C44
:1003F0000704EC068109930CFB0C4B0403078007F0
:100400005F0BFB0C0C0209078007C80AFB0C0C02EF
:100410002E078007BA0CFB0CF0041D62E314FA00EF
:10042000EB00681D5D681D5B681D62681D5D681DD1
:100430005B681D62681D5D681B62681B5D681B5BF5
:10044000681B62681B5D681B5B681B62681B5D68DC
:10045000196268195D68195B68196268195D681925
:100460005B68196268195D68186268185D68185BD6
:1004700068186268185D68185B68186268185D68BB
:10048000FF001D60E312FA026829682E681D6829C2
:10049000682E681D6829681B6827682C681B6827F8
:1004A000682C681B682768196825682A68196825F8
:1004B000682A6819682568186824682968186824F3
:1004C00068296818682468FF1D62E314FA00681D33
:1004D0005D681D5B681D62681D5D681D5B681D624F
:1004E000681D5D681B62681B5D681B5B681B62683A
:1004F0001B5D681B5B681B62681B5D683161E30004
:10050000FA00F6016BF1025B6730616BF1025B6729
:100510002E6169F1025B672D6168E3096C185DE388
:1005200014F600FA0068185B68186268185D68FFC6
:100530001D61E312FA026829682E681D6829682E79
:10054000681D6829681B6827682C681B6827682C49
:10055000681B682768196825682A68196825682A49
:10056000681968256818682468296818681961E39B
:1005700004FA016EFF002564E3046CE3097024E3D0
:10058000046A25682468245D68296468295D6825F3
:10059000646CE3097224E3046A25682468245D68B6
:1005A000206468205D68226468FFE3006AE3096CE8
:1005B0001EE3046820682268206A1E681D681D5DAD
:1005C00068206468205D681D646CE30A722EE30491
:1005D0006AE30972FF002A61E300FA016CE30A751D
:1005E000F10357672A5B682961E30069F1025B67E1
:1005F0002A6169F1025B672E6169F1025B672C6118
:1006000069F1025B672A6167F1012C67F1022A68D0
:100610002969F1025B672A616AE30969F1025B6794
:100620002561E30069F1025B67296169F1025B679B
:10063000FF002A61E3006CE30A73F1025D672A643C
:10064000E30069F1025D672C6469F1025D672E6465
:1006500069F1025D67306469F1025D673164683198
:100660005B6831646A2E6169F1025B67356169F12B
:10067000025B673361F60169F1025B67316169F121
:10068000025B67306169F1025B67FF002A61E3008A
:10069000F6006CE30A75F10357672A5B682961E38A
:1006A0000069F1025B672A6169F1025B672E61698B
:1006B000F1025B672C6169F1025B672E6167F101F2
:1006C0002C67F1022E683069F1025B6731616A5B69
:1006D00069F1025B67306169F1025B672E6169F164
:1006E000025B67FF2A61E3006A5BE30568596829DA
:1006F00061E30069F1025B672E61F71267F720681A
:10070000F1025B6729616A5BE3056859682961E367
:100710000069F1025B67246169F1025B6729616C22
:10072000E30A702564E30069F1025D67276469F1FB
:10073000025D67296469F1025D672C6469F1025DFD
:1007400067FF2E61E3006BF1035B672C616BF102C5
:100750005B672A6169F1025B672C616AE30969F1F1
:10076000025B672561E30069F1025B672C6169F157
:10077000025B672C6167F1035B672E6167F1025BC7
:100780006729616AE3096A295BE30567F101295A70
:1007900067F1022959682966E314EBF6FA016D2C1A
:1007A0005FE300FA00F601EB00682E6829682C6808
:1007B0002767FF00E300672968256CE30A6BF102F5
:1007C0005B67225FE30069F1025B67245F6BF10303
:1007D0005B67255F6BF1025B67275F69F1025B670F
:1007E000295F6BF1035B672C5F6BF1025B67295F2D
:1007F00069F1025B672C5F6BF1035B672E5F685BDF
:10080000E305672A61E300F600682C68FF002EE329
:1008100000682C682A6AE3096E2A5DE305682A5A93
:1008200068576A3061E300F713F601FA016AE309D9
:1008300068F10231E30067F10130EE0087FF2A61C1
:10084000E300F6006CE30A75F10357672A5B682939
:1008500061E30069F1025B672A6169F1025B672E5F
:100860006169F1025B672C6169F1025B672A61676C
:10087000F1012C67F1022A682969F1025B672A619C
:100880006A5B69F1025B67296169F1025B6730614C
:1008900069F1025B67FF1D62E314FA00F600681D50
:1008A0005D681D5B681D62681D5D681D5B682C5F6F
:1008B000E30DFA01682960682761682968276824C0
:1008C0006864E309682561E30D682468206822688C
:1008D00024682568246864E309682561E30D6827B6
:1008E0006829682C6829682C68306864E3096831D5
:1008F00061E30D6830682C68FF00E300681262EB6A
:10090000FCFA01681962671D6268166267196268FD
:100910001662681B62672062681B62681462671651
:1009200062681D62672062681D62671962671862EB
:10093000671962671B6267186267166267146267ED
:100940001162681462671262681D62681662671D30
:1009500062681462671162671862681462670C62E9
:1009600067116267086267EE0075FF002E64E3049A
:10097000FA026CE30A78EBFE7E1D60E300EB00FAFE
:100980000067F1035967206167F1025A67226267C5
:10099000F1035B67206367F1025C67226467F10320
:1009A0005D67276467F1025D67296467F1035D672E
:1009B0002C6467F1025D67FF2E64E3006CE3096F4E
:1009C000F1025D672C64E3006BF1025D672E646BDE
:1009D000F1025D67306469F1025D6731646BF102B9
:1009E0005D6730646BF1025D672E6469F1025D67DB
:1009F0002D6468E3096C1D64E304FA016AE30A6A82
:100A0000FF002964E3046CE3097027E3046A2968A2
:100A10002768275D682C64682C5D6829646CE3098D
:100A20007227E3046A29682768275D6824646824BC
:100A30005D68256468FFE3006AE3096C22E30468EB
:100A400024682568276A2568276A25682768286832
:100A5000296A28682968295D682D64682D5D6829E0
:100A6000646CE309685D681D64E3046EFF00E300E5
:100A70006AE3096C22E3046824682568246A226812
:100A80002068205D68246468245D6822646CE30A41
:100A90007225E300FA0269F1025D67276469F102D9
:100AA0005D67296469F1025D672C6469F1025D6725
:100AB000FF002E64E3006CE30A75F10357672E5DB7
:100AC000682C64E30069F1025D672E6469F1025DE0
:100AD00067316469F1025D67306469F1025D672E18
:100AE0006467F1013067F1022E682C69F1025D67DD
:100AF0002E646AE30969F1025D672964E30069F124
:100B0000025D672C6469F1025D67FF002E64E300FB
:100B10006CE30A73F1025D672E64E30069F1025D24
:100B200067306469F1025D67316469F1025D6733C2
:100B30006469F1025D67356468355BE305683564B7
:100B4000E3006CE30A6C3364E30069F1025D673132
:100B50006469F1025D67306469F1025D67FF2E64CC
:100B6000E3006CE30A75F10357672E5D682C64E3BC
:100B70000069F1025D672E6469F1025D67316469A5
:100B8000F1025D67306469F1025D672E6467F1010F
:100B90003067F1022E682C69F1025D672E646A5D90
:100BA00069F1025D672C6469F1025D67336469F184
:100BB000025D67FF2E64E3006A5DE305685A682CF6
:100BC00064E30069F1025D673264F70167F710685A
:100BD000F1025D672E646A5DE305685A682C64E380
:100BE0000069F1025D67276469F1025D672E646C3C
:100BF000E30A705F76FF2E64E300FA016CE30A7586
:100C0000F10357672E5D682C64E30069F1025D67AC
:100C10002E6469F1025D67316469F1025D673064D9
:100C200069F1025D672E6467F1013067F1022E6899
:100C30002C69F1025D672E646AE30969F1025D6760
:100C40002964E30069F1025D672C6469F1025D6764
:100C5000FF002E64E3006CE30A73F1025D672E640B
:100C6000E30069F1025D67306469F1025D67316438
:100C700069F1025D67336469F1025D673564683567
:100C80005BE305683564E3006CE30A6C3364E300FE
:100C900067F1035D67356467F1025D67316467F191
:100CA000035D67336467F1025D67306467F1035D7C
:100CB00067316467F1025D67FF002E64E3006CE357
:100CC0000A75F10357672E5D682C64E30069F10231
:100CD0005D672E6469F1025D67316469F1025D67E9
:100CE000306469F1025D67316467F1013067F102D8
:100CF00031683369F1025D6735646A5D69F1025DEF
:100D000067336469F1025D67316469F1025D67FF11
:100D10003164E3006BF1035D6730646BF1025D6782
:100D20002E6469F1025D6730646AE30969F1025D6E
:100D3000672964E30069F1025D67306469F1025D6F
:100D400067306467F1035D67316467F1025D672EA8
:100D5000646AE3096A2E5DE30567F1012E5C67F1C1
:100D6000022E5B682E66E314EBF6FA036A2C64E34A
:100D700000FA00EB00682E6829682C68276829684B
:100D8000FF0025E3006CE30A6BF1025D672264E378
:100D90000069F1025D6724646BF1035D6725646B94
:100DA000F1025D67276469F1025D6729646BF103F5
:100DB0005D672C646BF1025D67296469F1025D6710
:100DC0002C646BF1035D672E64685DE305685A6807
:100DD0002E64E300683068FF31E3006830682E6AF3
:100DE000E3096E2E5DE305682E5A68576A3064E3A6
:100DF00000F7136AE30968F10231E30067F101309B
:100E000065EE0087FF002E66E3006EE30A7EEBFED0
:100E100086FF2E61E30DEB00FA016A64E30A6E2996
:100E200061E30D682C682E682C68296830682E688C
:100E300029683168306829683368316829683568FD
:100E4000336831682C682D6A64E309682E61E30D0C
:100E50006A64E309683061E30D6AFF002E61E30D07
:100E6000FA016C64E30A78EBFE7E1D60E300EB00A0
:100E7000FA0067F1035967206167F1025A6722623D
:100E800067F1035B67206367F1025C67226467F1C7
:100E9000035D67276467F1025D67296467F1035D9D
:100EA000672C6467F1025DEC0267FF002E61E304CA
:100EB000FA02F00A68356AE3096A33E304693569BE
:100EC000386835693369316733672E69E3096931F9
:100ED000E3046730672E69E3096935E30467336724
:100EE00030F00B68E3096729E304F00C67F00D6745
:100EF000E309F00E6730E304F00F67F00D75FF00B3
:100F00002266E300E70069F1025767296667F1038B
:100F100057672266685768226667F1025767296635
:100F200067F1035767226667F1025767206669F128
:100F3000025767276667F10357672066685768207E
:100F40006667F1025767276667F103576720666790
:100F5000F10257671E6669F1025767256667F1035C
:100F600057671E666857681E6667F10257672566F1
:100F700067F10357671E6667F10257671D6669F1DF
:100F8000025767246667F10357671D666857681D37
:100F90006667F1025767246667F10357672766673C
:100FA000F1025767FF002266E30069F102576729E3
:100FB0006667F10357672266685768226667F10221
:100FC0005767296667F1035767226667F10257671B
:100FD000206669F1025767276667F1035767206645
:100FE000685768206667F1025767276667F10357FD
:100FF00067206667F10257673366E71569F10257A4
:1010000067336667F103576733666857682E66670C
:10101000F10257672566E70067F10357672E66E719
:101020001567F10257671D66E31DE70069F1025776
:1010300067246667F10357671D66E3006833E715A9
:1010400067F1013067F1022B67F10257672466E709
:101050000067F1035767276667F1025767FF22664B
:10106000E30069F1025767296667F1035767226653
:10107000685768226667F1025767296667F1035768
:1010800067226667F1025767246669F10257672C89
:101090006667F10357673066685768246667F10230
:1010A00057672C6667F1035767306667F102576729
:1010B000226669F10257672E6667F1035767226659
:1010C000685768226667F10257672E6667F1035713
:1010D00067226667F10257672266E31D69F10257CE
:1010E000672E66E30067F103576722666833E7708F
:1010F0006822E70067F10257672E6667F1035767BA
:10110000226667F1025767FF1E66E30069F1025726
:1011100067256667F10357671E666857681E66672E
:10112000F1025767256667F10357671E6667F1028C
:101130005767206669F1025767276667F1035767AB
:101140002066685768206667F1025767276667F16F
:10115000035767206667F1025767226669F10257F5
:1011600067296667F10357672266685768226667D2
:10117000F1025767296667F1035767226667F10234
:101180005767226669F1025767296667F103576757
:101190002266685768206667F1025767276667F11D
:1011A000035767206667F1025767FF001E66E3007A
:1011B00069F1025767256667F10357671E6668572E
:1011C000681E6667F1025767256667F10357671E59
:1011D0006667F1025767206669F1025767276667FD
:1011E000F10357672066685768206667F102576702
:1011F000276667F1035767206667F1025767226623
:1012000069F10257671D6667F103576720666857E3
:1012100068226669F1035767166667F1025767220D
:101220006667F10357672E6667F1025767226667A4
:10123000F1035767166667F1025767256667F10382
:101240005767246667F1025767226667F10357679D
:10125000206667F1025767FF1E66E30069F10257D7
:1012600067256667F10357671E666857681E6667DD
:10127000F1025767256667F10357671E6667F1023B
:101280005767206669F1025767276667F10357675A
:101290002066685768206667F1025767276667F11E
:1012A000035767206667F1025767226669F10257A4
:1012B00067296667F1035767226668576822666781
:1012C000F1025767296667F1035767226667F102E3
:1012D0005767256667F1035767206667F10257670E
:1012E000166667F10357672566685768166667F1E3
:1012F000025767206667F1035767256667F1025753
:1013000067FF1E66E31D69F10257671E6667F103FA
:1013100057672566E300685768256667F1025767D7
:101320001E6669F10357673366E7606E2EE70D8E20
:10133000FF00E30068126E116E0A76126E147CFFD5
:1013400022E31D69F10257672966E30067F103573D
:10135000672266685768226667F1025767296667E1
:10136000F1035767226667F1025767206669F10249
:101370005767276667F103576720666857682066D6
:1013800067F1025767276667F1035767206667F1C1
:101390000257671E6669F1025767256667F10357B2
:1013A000671E666857681E6667F10257672566679D
:1013B000F10357671E6667F10257671D6669F10200
:1013C0005767246667F10357671D666857681D668F
:1013D00067F1025767246667F1035767276667F16D
:1013E000025767FF0664E300EBFC6E0D63E301EB5D
:1013F00000E900680DE303680761E31068035F68B4
:101400000D64E30168045D680761E310680BE303A2
:10141000680DE30168045D680761E31068035F68B5
:101420000D64E30168045D680761E310680BE30382
:10143000680DE30168045D680761E31068035F6895
:101440000D64E30168045D680761E310680BE30362
:10145000680DE30168045D680761E31068035F6875
:10146000FF000D64E30168045D680761E310680B29
:10147000E303680DE301680DE303680761E31068A7
:10148000035F680D64E30168045D680761E3106849
:101490000BE303680DE30168045D680861E310670E
:1014A000095FE301670961670963670964E310681D
:1014B00002E301680961E310680964680C62E303F0
:1014C000680964E3106802E301680964E3106806D0
:1014D00066E9516A046A0965E301E90067F1010AF6
:1014E00067F1020B680566E310E9516AFF000564C5
:1014F000E300E962676267616760670863E310E9B8
:101500000068035CE303680E64E301680E63680827
:1015100063E31068035CE303680E64E30168035C43
:10152000E303680863E310680E64E30168035CE3A7
:1015300003680E63E301680863E31068035CE30378
:10154000680E64E30168035CE303680863E3106802
:10155000035CE303680E64E301680E63680863E3F9
:101560001068035CE303680E64E30168035CE30353
:10157000680863E310680E64E30168035CE30368D2
:101580000E63E301680863E31068035CE30368FF2C
:101590000E64E30168035CE303680863E310680317
:1015A0005CE303680E64E301680E63680863E3109C
:1015B00068035CE303680E64E30168035CE30368AB
:1015C0000863E310680E64E30168035CE303680EDC
:1015D00063E301680863E31068035CE303680E6477
:1015E000E30168035CE303680863E31068035CE3FA
:1015F00003680E64E301680E63680863E310680320
:101600005CE303680E64E30168035CE3036808635A
:10161000E310680E64E30168035CE303680E63E3B0
:1016200001680863E31068035CE30368FF000E646D
:10163000E30168035CE303680863E31068035CE3A9
:1016400003680E64E301680E63680863E3106803CF
:101650005CE303680E64E30168035CE3036808630A
:10166000E310680E64E30168035CE303680E63E360
:1016700001680863E31068035CE303680E64E30138
:1016800068035CE303680863E31068035CE30368D2
:101690000E64E301680E63680863E31068035CE3AB
:1016A00003680464E31AEBFC6E0D61E319EB00E9D7
:1016B000A26762676367646765676669FF000566BE
:1016C000E300EBFCE9726A0863E310EB00E90068F1
:1016D000035CE303680E64E301680E63680863E378
:1016E0001068035CE303680E64E30168035CE303D2
:1016F000680863E310680E64E30168035CE3036851
:101700000E63E301680863E31068035CE303680E9B
:1017100064E30168035CE303680863E31068035C47
:10172000E303680E64E301680E63680863E310680E
:10173000035CE303680E64E30168035CE303680889
:1017400063E310680E64E30168035CE303680E63FF
:10175000E301680863E31068035CE30368FF056660
:10176000E300EBFCE9726A0863E310EB00E9006850
:10177000035CE303680E64E301680E63680863E3D7
:101780001068035CE303680866E300EBFAE9716A3A
:101790000863E310EB00E900680E64E30168035C92
:1017A000E303680E63E301680863E31068035CE326
:1017B00003680466E300EBFCE9816A0863E301EB7C
:1017C00000E9006808E31068025D6808636A086859
:1017D0000366E300EBF86A03666A0664E301EB0064
:1017E00067F1010767F10208680967F1010A67F10B
:1017F000020B68FF0E64E30168035CE3036808639F
:10180000E31068035CE303680E64E301680E636839
:101810000863E31068035CE303680E64E301680394
:101820005CE303680863E310680E64E30168035C2B
:10183000E303680E63E301680863E31068035CE395
:1018400003680E64E30168035CE303680863E31064
:1018500068035CE303680E64E301680E6368086371
:10186000E31068035CE303680464E300EBF86A04D4
:10187000646A0964E301EB0067F1010A67F1020B96
:10188000680564E31AEBF66AFF000A64E319EBFAF1
:101890006A0863E310EB0068035CE303680E64E32B
:1018A00001680E63680863E31068035CE303680E75
:1018B00064E30168035CE303680863E310680E6493
:1018C000E30168035CE303680E63E301680863E314
:1018D0001068035CE303680E64E30168035CE303E0
:1018E000680863E31068035CE303680E64E301685F
:1018F0000E63680863E31068035CE303680E64E347
:101900000168035CE303680863E310680E64E301A5
:1019100068035CE303680E63E301680863E310682F
:10192000035CE30368FF0A66E300E9A1EBF86A03DE
:10193000646A0B65E301E900EB0067F1010B67F1F5
:10194000020B680864E300E9A1EBFA6A0064E3199A
:10195000E9F1EB0096FFE300900B5CE982670A5D1A
:1019600067095E67085F670760670661670562670A
:10197000046375FF0D64E30168045D680761E310AB
:10198000680BE303680DE301680DE303680761E397
:101990001068035F680D64E30168045D680761E334
:1019A00010680BE303680DE30168045D680761E3F9
:1019B0001068035F680D64E30168045D680761E314
:1019C00010680BE303680DE30168045D680761E3D9
:1019D0001068035F680D64E30168045D680761E3F4
:1019E00010680BE303680DE30168045D680761E3B9
:1019F0001068035F68FFE300F00469F00367F00418
:101A000069F00367F00469F00367F00469F00367A5
:101A1000F00469F00367F00469F00367F00469F00B
:101A20000367F00469F00367F00469F00367F004EA
:101A300069F00367F00469F00367F00469F0036775
:101A4000F00469F00367F00469F00367F00469F0DB
:101A50000367F00469F00367FF00E300A6FF530D7E
:101A6000550D570D590D5B0D5D0D5F0D620D640D2C
:101A7000670D6A0D6D0D700D730D750D780D7B0D75
:101A80007D0D810D830D850D880D8A0D8C0D8E0DBC
:101A9000900D920D940D960D980D9A0D9D0DA00D23
:101AA000A20DA40DA70D0100AA0D0100AD0D0100AE
:101AB000B60D0100BB0D0100C10D0100C50D0300F5
:101AC000C80D400E0100CD0D14009A0EB90E050090
:101AD000D00DA30E0500D00D9C0E0300D20D450EB7
:101AE0000500D70DAA0E0100E30D0300E00D490E1D
:101AF0000500E30DAC0E0100E50D1300FB0D630EB8
:101B0000BB0E0100060E01000C0E0300AA0D680EAC
:101B10000100130E01001F0E0100240E01002C0E07
:101B20000400AE0E0400B10E0100320E0200720E6F
:101B30000200760E0300AA0D940E03002C0E7A0EFE
:101B400002008A0E02008F0E0300AA0D970E0500F8
:101B50003D0EB40EFF030F0CFF00FF100F0C080822
:101B60000606050404030302010100FFFF070F0A34
:101B700005020100FF00FF090F0D0A070402010022
:101B8000FF00FF05030B0F0DFF00FF03000FFF0019
:101B9000FF080D0D0707030300FFFF020F00FF0002
:101BA000FF020CFFFF070F0F0F090400FF00FF0FDC
:101BB0000F0F0F0F0F0F0F0F0F0F0F0F0F00FF0063
:101BC000FF020F0BFF00FF020FFFFF1A0F0D0C0AA1
:101BD00009080707060505040403030202020201BF
:101BE0000101010100FFFF0E0F0D0A0A08060403A0
:101BF0000303030302FFFF130D0D0D0F0F00060675
:101C000006080800020202030303FF00FF0A0F0A8E
:101C100004060A08060200FFFF0B0F070402060372
:101C200001000100FF00FF1505060608080C0F065D
:101C3000050404030202020101010100FF00FF0785
:101C40000F0C09060300FF00FF0E0F0C0907050526
:101C500005050503030100FFFF020F05FF00FF025A
:101C60000F0F00FFFF140F07050B02060804020503
:101C7000040103010002010100FFFF030D0FFF003B
:101C8000FFFF0000010203040580FFFF0000FC0AC3
:101C90000680FFFF00FFFFFEFEFDFDFCFCFBFBFAE4
:101CA000FAF9F9F8F8F7F7F6F6F5F5F4F4F3F3F2D4
:101CB000F2F1F1F0F0EFEFEEEEEDEDECECEBEBEA44
:101CC000EAE9E9E8E880FF03000000181818188026
:101CD000FF0300000C0C8000FFFF00F48000FFFFFA
:101CE00000FD0080FFFF000C05008000FFFF0007E3
:101CF000FB008000FFFF0000FEFCFAF8F6F4F2F0B3
:101D0000EEECEAE8E6E4E2E0DEDCDAD8D6D4D2D0E3
:101D1000CECC8000FF0300000005050C0C80FF0303
:101D200000000009090C0C80FFFF00F40080FFFF99
:101D3000000C0080FF023280FF02FCFE010303045E
:101D400002FFFDFD8000FF020202FFFEFEFFFE011A
:101D500001028000FF021480FF020F80FF020000DA
:101D60000180FF020000FF80FF020100FF80FF02F0
:101D70000A80FFFF02FFFF02000002020202FF00D2
:101D8000FFFF0302FF00C8EDC0933400C0E0C09322
:101D900061002224C0E3C0930028C0E8C09301285A
:101DA000CFEFC0930228C0930328C0930428C0E358
:101DB000C0930828C0E8C0930928CFEFC0930A2831
:101DC000C0930B28C0930C28CFEFC0931028C0936A
:101DD0001128C0E3C0931328CFE0C0931428C2E0B9
:101DE000C0931A2820921B28CFEFC0931F2820925F
:101DF000202820922128EEE4F3E0E0931828F093C5
:101E00001928C591D591C0931C28D0931D282092E4
:101E10001E28C591D591CC0FDD1FC0932228D093E9
:101E200023282092242820922528209226282092B8
:101E30002728C591D591CC0FDD1FC0937328D0936F
:101E40007428209275282092762820927728209254
:101E50007828C591D591CC0FDD1FC093C428D093AD
:101E6000C5282092C6282092C7282092C8282092F0
:101E7000C928C591D591CC0FDD1FC0931029D093EF
:101E8000112920921229209213292092142920929C
:101E90001529CFEF20922A28C0932B28C0932C28F5
:101EA00020922F28C0933028C0933128C093322825
:101EB00020923728C0933828C093392820923D2893
:101EC000C0933E28C0933F2820924228C0934328C5
:101ED000C0934428209228282092292820922D2837
:101EE00020922E28209233282092342820923528C0
:101EF0002092362820923A2820923B2820923C2893
:101F000020924028209241280FE0109100281F7055
:101F1000909100289073906420920628C093052821
:101F2000BC2EC1E0AC2EC0900128C2949068CFEFC7
:101F3000209245282092462820924728209248281F
:101F40002092492820924A2820924B2820924C28FF
:101F500020924D2820924E2820924F2820925028DF
:101F600020925128209252282092532820925428BF
:101F7000209255282092562820925728209258289F
:101F80002092592820925A2820925B2820925C287F
:101F900020925D2820925E28C0935F28C09360281D
:101FA000209261282092622820926328209264283F
:101FB000209265282092662820926728209268281F
:101FC0002092692820926A2820926B2820926C28FF
:101FD00020926D2820926E2820926F2820927028DF
:101FE000C0937128C0937228CFEF20927B28C093B2
:101FF0007C28C0937D2820928028C0938128C0939C
:102000008228C093832820928828C0938928C0936F
:102010008A2820928E28C0938F28C09390282092DF
:102020009328C0939428C0939528209279282092D1
:102030007A2820927E2820927F282092842820923D
:102040008528209286282092872820928B2820920B
:102050008C2820928D2820929128209292282FE07F
:10206000309108283F70D0910828D073D062D29563
:102070009D2B20920E28C0930D28EC2EC1E0DC2E63
:10208000F0900928F2949860CFEF20929628209241
:102090009728209298282092992820929A28209276
:1020A0009B2820929C2820929D2820929E28209256
:1020B0009F282092A0282092A1282092A228209236
:1020C000A3282092A4282092A5282092A628209216
:1020D000A7282092A8282092A9282092AA282092F6
:1020E000AB282092AC282092AD282092AE282092D6
:1020F000AF28C093B028C093B1282092B228209274
:10210000B3282092B4282092B5282092B628209295
:10211000B7282092B8282092B9282092BA28209275
:10212000BB282092BC282092BD282092BE28209255
:10213000BF282092C0282092C128C093C228C093F3
:10214000C328CFEF2092CC28C093CD28C093CE28AF
:102150002092D128C093D228C093D328C093D428EA
:102160002092D928C093DA28C093DB282092DF2858
:10217000C093E028C093E1282092E428C093E5288A
:10218000C093E6282092CA282092CB282092CF28FC
:102190002092D0282092D5282092D6282092D72885
:1021A0002092D8282092DC282092DD282092DE2858
:1021B0002092E2282092E328C0E04C2FCFEF20921B
:1021C000E7282092E8282092E9282092EA28209205
:1021D000EB282092EC282092ED282092EE282092E5
:1021E000EF282092F0282092F1282092F2282092C5
:1021F000F3282092F4282092F5282092F6282092A5
:10220000F7282092F8282092F9282092FA28209284
:10221000FB28C093FC28C093FD282092FE28209222
:10222000FF28209200292092012920920229209241
:102230000329209204292092052920920629209220
:102240000729209208292092092920920A29209200
:102250000B2920920C2920920D29C0930E29C0939E
:102260000F29CFEF20921829C0931929C0931A295A
:1022700020921D29C0931E29C0931F29C093202995
:1022800020922529C0932629C093272920922B2903
:10229000C0932C29C0932D2920923029C093312935
:1022A000C0933229209216292092172920921B29A7
:1022B00020921C2920922129209222292092232930
:1022C00020922429209228292092292920922A2903
:1022D00020922E2920922F2920921628C09315286B
:1022E000C1E05C2F622DCFEF209233292092342958
:1022F0002092352920923629209237292092382998
:102300002092392920923A2920923B2920923C2977
:1023100020923D2920923E2920923F292092402957
:102320002092412920924229209243292092442937
:102330002092452920924629209247292092482917
:102340002092492920924A2920924B2920924C29F7
:10235000C0934D29C0934E2920924F292092502995
:1023600020925129209252292092532920925429B7
:102370002092552920925629209257292092582997
:102380002092592920925A2920925B2920925C2977
:1023900020925D2920925E29C0935F29C093602915
:1023A000CFEFC0B9C0E7C093010AC1E7C0930A0AE2
:1023B000C5E1C093280AC5E0C093290ACBE2C093C7
:1023C0002A0ACAE0C0932B0AC1E4C0932C0ACFE0CA
:1023D000C0932D0AC7E5C093260AC4E1C093270A1B
:1023E000CBE0C093000AC0E0C093810AC1E0C09373
:1023F000850AC0910228C0938C0AC0910328C0931B
:102400008D0AC3E0C093800AB0E0B093910AB1E0B6
:10241000B093950AB0910A28B0939C0AB0910B280A
:10242000B0939D0AB3E0B093900AB0E0B093A10AD4
:10243000B1E0B0911028B093AC0AB0911128B093DC
:10244000AD0AB1E0B093A00A7894B0E0B093B10ABD
:10245000B1E0B093B50AB0910A28B093BC0AB0912C
:102460000B28B093BD0AB3E0B093B00AC091062820
:10247000D0910E28A0FE15C0B21499F0E0918C0AFC
:10248000F9E5EF17E0918D0AF0E0EF0750F0E091E9
:102490008C0AF6E6EF17E0918D0AF9E5EF0708F4EC
:1024A00001C0CC27D0FE15C0E21499F0E0919C0A3F
:1024B000F9E5EF17E0919D0AF0E0EF0750F0E091A9
:1024C0009C0AF6E6EF17E0919D0AF9E5EF0708F49C
:1024D00001C0DD27CD0FE2E6F2E0EC0FF21DC49162
:1024E000D42FD4FDD095DF70ED2FDE0FDE0F50FF1F
:1024F00004C0E0911628EE0FDE0FE2E8F2E0ED0FE7
:10250000F21DD491CD0FC1B9B1CFBFB7BF93F8942D
:1025100053D09FD0B0E5B0930B0ABF91BFBF1895C1
:10252000BFB7BF93F89448D094D0C3FC1BD0F3FC42
:1025300066D095FD02C0B210BA9491FD02C0E210BF
:10254000EA94B1E2B0930B0ABF91BFBF1895BFB731
:10255000BF93F894AA0CA21CB1E0B093860ABF9175
:10256000BFBF1895BC2DB770F9F4DF93DC2DD29561
:10257000D77011F4DF9119C0A0918C0AB0918D0A27
:10258000B695A795DA95E1F7C7FE02C0A095B0957C
:10259000D0918C0AAD0FD0918D0ABD1FA0938C0AEB
:1025A000B0938D0ADF9101C0CA9497FF0895C0903F
:1025B0000128C2949F77089596FD10C0003011F055
:1025C0000A950895009100280F7095FF02C01FE042
:1025D0000895103009F408951A9508959F7B00918D
:1025E00000280F701FE00895BFB7BF93F894DD0C6B
:1025F000D21CB1E0B093960ABF91BFBF1895BF2D12
:10260000B770F9F4DF93DF2DD295D77011F4DF9115
:1026100019C0A0919C0AB0919D0AB695A795DA952C
:10262000E1F7F7FE02C0A095B095D0919C0AAD0FDE
:10263000D0919D0ABD1FA0939C0AB0939D0ADF9183
:1026400001C0FA9493FF0895F0900928F294977FBF
:10265000089592FD10C0203011F02A950895209120
:1026600008282F7091FF02C03FE00895303009F430
:1026700008953A9508959B7F209108282F703FE098
:102680000895BFB7BF93F8944F5F4F71B1E0B09317
:10269000A60ABF91BFBF1895BFB7BF93F894A52FE7
:1026A00067FD0BC0A695A527A0FD03C066955795AD
:1026B00013C06695579560640FC0AA0FAA1FAA1F82
:1026C000A527A0FD05C06F7766955795606804C083
:1026D00066955795606800C0B1E0B093B60ABF91A7
:1026E000BFBF1895E0E7FBE5ED0FF21DD49108950B
:1026F000E0E9FBE5ED0FF21DD4910895BFB7BF935C
:10270000F894CF93DF93EF93FF93A0911F28AF3FEF
:10271000A9F4A0912028A2118BC0A0912128A21178
:1027200096C0A0911A28B0911B28C0911C28D09166
:102730001D28AC17BD0708F401C1A0E0E0911828DE
:10274000F0911928CC27DD27A395AA9511F02A9698
:10275000FCCF2296C0931A28D0931B28EC0FFD1FA4
:10276000A591B591AA0FBB1FA0932228B09323284F
:10277000A591B591AA0FBB1FA0937328B09374289D
:10278000A591B591AA0FBB1FA093C428B093C528EB
:10279000A591B591AA0FBB1FA0931029B093112941
:1027A000209226282092272820922428209225282B
:1027B00020927728209278282092752820927628D7
:1027C0002092C8282092C9282092C6282092C72883
:1027D000209214292092152920921229209213293F
:1027E000AFEFA0935F28A0936028A0937128A093D7
:1027F0007228A093B028A093B128A093C228A093D8
:10280000C328A093FC28A093FD28A0930E29A09391
:102810000F29A0934D29A0934E29A0935F29A0933F
:102820006029A0931F28209220282092212886C06A
:10283000FF91EF91DF91CF91BF91BFBFF894AFEFC0
:10284000A0931F2820922028209221281895E091FB
:102850001828F0911928A0911A28B0911B281A96CF
:10286000A0931A28B0931B28EA0FFB1FA591B591DE
:10287000AA0FBB1FA0932228B0932328A591B5913E
:10288000AA0FBB1FA0937328B0937428A591B5918C
:10289000AA0FBB1FA093C428B093C528A591B591DA
:1028A000AA0FBB1FA0931029B093112920922628AC
:1028B00020922728209224282092252820927728C9
:1028C0002092782820927528209276282092C82875
:1028D0002092C9282092C6282092C7282092142925
:1028E000209215292092122920921329AFEFA0934C
:1028F0005F28A0936028A0937128A0937228A093CA
:10290000B028A093B128A093C228A093C328A09375
:10291000FC28A093FD28A0930E29A0930F29A09333
:102920004D29A0934E29A0935F29A0936029A093DD
:102930001F28209220282092212800C0A09124281E
:10294000B0912528109609F0E4C2E0912228F09178
:102950002328A0912628B0912728EA0FFB1FB491C5
:10296000B73508F47CC1B73608F4BAC1B33E08F4F1
:10297000C1C109F4C4C1B43E09F46DC2BF3F09F43A
:102980008FC23196A491BBD2B55EE4E9FBE5BB0FE3
:10299000EB0FF21DC591D491EC2FFD2F0994A0935C
:1029A000452820924628D1CF20924B2820924C28AF
:1029B00020924528209246286F937F936A2F72EBCE
:1029C000679F7F916F9116940794169407941694BD
:1029D0000794169407940092472810924828B5CF80
:1029E0002092472820924828209245282092462865
:1029F0006F937F936A2F72EB679F7F916F9116940D
:102A000007941694079416940794169407940092CA
:102A10004B2810924C2899CF6F937F936A2F72EBBB
:102A2000679F7F916F91169407941694079416945C
:102A30000794169407940092532810925428A211D8
:102A400001C083CFA0918C0AB0918D0AA0934F282A
:102A5000B0935028209255282092562876CFBA2F2E
:102A6000A07FA295BF70A0935728B09358282092BA
:102A700059286BCFBA2FA07FA295BF70A0935A2878
:102A8000B0935B2820925C2820925D285ECFA093B3
:102A90005E285BCFA0931F2858CFB093202855CF36
:102AA000B093212852CFB0910028B07FBA2BB093B9
:102AB000002896604ACFA0931E2847CFA21551F058
:102AC000B0911E28AB1730F4A0935F28B1E0B0930B
:102AD000242822C23ACF39CF38CF37CF36CF6F93A1
:102AE0007F936A2F72EB67037F916F91169407941F
:102AF00016940794169407941694079413FE02C034
:102B0000B0EF1B2A00926128109262281ECFE0913C
:102B10002D28F0912E28309609F017CFE091352816
:102B2000F0913628309609F010CFE0913B28F091D3
:102B30003C28309609F009CFBA2FBF70C0916328A6
:102B4000BC0FB73508F0B6E5B0936328E4E9F0E0D0
:102B5000BB0FEB0FF21DC591D491C0936428D093A5
:102B60006528A295AF70AA0FA3956F937F936A2FE4
:102B700072EB679F7F916F91169407941694079458
:102B8000169407941694079400926628109267286A
:102B9000DCCEE0912D28F0912E28309609F0D5CE8C
:102BA000E0913528F0913628309609F0CECEE091AC
:102BB0003B28F0913C28309609F0C7CEBA2FBF7061
:102BC000C0916A28CB1B08F4C0E0C0936A28E4E9EE
:102BD000F0E0CC0FEC0FF21DC591D491C0936B289F
:102BE000D0936C28A295AF70AA0FA3956F937F9393
:102BF0006A2F72EB679F7F916F91169407941694DA
:102C00000794169407941694079400926D281092D6
:102C10006E289BCEA21551F0B0911E28AB1730F450
:102C2000A0937128B1E0B093242876C18ECEE0E95C
:102C3000FBE5EA0FF21DA695A795A795B091002890
:102C4000CB2FB07CAB1301C080CEA490CF73CB2B25
:102C5000C09300287ACE79CE78CE77CE76CEB09358
:102C60000728B0936328B0936A28A3E0B2E0B0933A
:102C70002A28A0932F28B0933728B0933D28B093EB
:102C80004228209233282092342820923A282092F9
:102C9000492820924A2820924D2820924E2820929E
:102CA000552820925628A0918C0AB0918D0AA093A5
:102CB0004F28B093502820920128976020926428D2
:102CC00020926528209268282092692820926B28FB
:102CD00020926C2820926F282092702806D135CE41
:102CE000B755A0910028A07FAB2BA0930028966039
:102CF000FCD02BCEB656B0932428F7D00DC120922D
:102D000028282092292820922D2820922E282092AF
:102D100035282092362820923B2820923C28209269
:102D20004028209241282092332820923428209253
:102D30003A283196B491EFE2FDE0EB0FF21DEE0F71
:102D4000FF1FA591B491AA0FBB1FEA2FFB2FB491CF
:102D50003296A6E0AA9519F0B69578F0FBCFA3E0DD
:102D6000B2E0B0932A28A0932F28B0933728B093CD
:102D70003D28B0934228C3D0E8CDC591D591A53068
:102D800039F0A43079F0A330D9F0A23059F13CC029
:102D9000C0932828D093292841D0C0932C28D093C1
:102DA0002B28D8CFC0932D28D0932E28209264288A
:102DB0002092652820926B2820926C283AD0CACFA6
:102DC000C0933528D0933628209264282092652815
:102DD00020926B2820926C2821D0C0933928D09360
:102DE0003828B8CFC0933B28D0933C282092642841
:102DF0002092652820926B2820926C280FD0C093D7
:102E00003F28D0933E28A6CFC0934028D093412896
:102E100005D0C0934428D09343289CCFEF93FF93D1
:102E2000EC2FFD2FEE0FFF1FC591D491FF91EF9175
:102E30000895EF93FF93EC2FFD2FEE0FFF1FC59129
:102E4000D591C0933128D0933028C491C0933228B3
:102E5000FF91EF910895B0912C28BF3F19F0B395E1
:102E6000B0932A28B0913128BF3F19F0B395B093A1
:102E70002F28B0913928BF3F19F0B395B093372868
:102E8000B0913F28BF3F19F0B395B0933D28B09162
:102E90004428BF3F19F0B395B093422826D055CDB2
:102EA000E0911828F0911928A0911A28B0911B28B8
:102EB0001A96A0931A28B0931B28C0911C28D09171
:102EC0001D28AC17BD0710F00C94B22DEA0FFB1FA4
:102ED000A591B491AA0FBB1FA0932228B0932328D9
:102EE000209226282092272830CDE0912628F091A4
:102EF00027283196E0932628F09327280895E0911B
:102F00002628F09127283296E0932628F093272848
:102F10000895BA95B0932528A0917528B091762888
:102F2000109609F0D7C2E0917328F0917428A0910F
:102F30007728B0917828EA0FFB1FB491B73508F4D1
:102F40007CC1B73608F4BAC1B33E08F4C1C109F474
:102F5000C4C1B43E09F46DC2BF3F09F48FC23196BB
:102F6000A491AED2B55EE8ECFBE5BB0FEB0FF21D12
:102F7000C591D491EC2FFD2F0994A093962820920F
:102F80009728D1CF20929C2820929D282092962885
:102F9000209297286F937F936A2F72EB679F7F91A0
:102FA0006F911694079416940794169407941694A8
:102FB00007940092982810929928B5CF20929828CB
:102FC0002092992820929628209297286F937F9399
:102FD0006A2F72EB679F7F916F91169407941694F6
:102FE0000794169407941694079400929C281092C4
:102FF0009D2899CF6F937F936A2F72EB679F7F9184
:103000006F91169407941694079416940794169447
:1030100007940092A4281092A528A21101C083CF82
:10302000A0919C0AB0919D0AA093A028B093A128DA
:103030002092A6282092A72876CFBA2FA07FA2950B
:10304000BF70A093A828B093A9282092AA286BCF7C
:10305000BA2FA07FA295BF70A093AB28B093AC28E5
:103060002092AD282092AE285ECFA093AF285BCFF0
:10307000A0931F2858CFB093202855CFB093212874
:1030800052CFB0910828B07FBA2BB0930828926035
:103090004ACFA0931E2847CFA21551F0B0911E2809
:1030A000AB1730F4A093B028B1E0B093752815C2E7
:1030B0003ACF39CF38CF37CF36CF6F937F936A2F40
:1030C00072EB67037F916F9116940794169407949F
:1030D000169407941694079413FE02C0B0EF1B2AAF
:1030E0000092B2281092B3281ECFE0917E28F09172
:1030F0007F28309609F017CFE0918628F091872835
:10310000309609F010CFE0918C28F0918D28309600
:1031100009F009CFBA2FBF70C091B428BC0FB735E2
:1031200008F0B6E5B093B428E4E9F0E0BB0FEB0F8C
:10313000F21DC591D491C093B528D093B628A2951D
:10314000AF70AA0FA3956F937F936A2F72EB679F5F
:103150007F916F9116940794169407941694079490
:10316000169407940092B7281092B828DCCEE0910C
:103170007E28F0917F28309609F0D5CEE091862800
:10318000F0918728309609F0CECEE0918C28F0910E
:103190008D28309609F0C7CEBA2FBF70C091BB28DA
:1031A000CB1B08F4C0E0C093BB28E4E9F0E0CC0FEF
:1031B000EC0FF21DC591D491C093BC28D093BD28CB
:1031C000A295AF70AA0FA3956F937F936A2F72EBAE
:1031D000679F7F916F9116940794169407941694A5
:1031E0000794169407940092BE281092BF289BCE95
:1031F000A21551F0B0911E28AB1730F4A093C2284D
:10320000B1E0B093752869C18ECEE0E9FBE5EA0F25
:10321000F21DA695A795A795B0910828CB2FB07C55
:10322000AB1301C080CED490CF73CB2BC0930828B2
:103230007ACE79CE78CE77CE76CEB0930F28B09373
:10324000B428B093BB28A3E0B2E0B0937B28A0934E
:103250008028B0938828B0938E28B093932820922A
:1032600084282092852820928B2820929A282092C8
:103270009B2820929E2820929F282092A628209268
:10328000A728A0919C0AB0919D0AA093A028B09372
:10329000A1282092092893602092B5282092B62870
:1032A0002092B9282092BA282092BC282092BD28CA
:1032B0002092C0282092C128F9D035CEB755A091D0
:1032C0000828A07FAB2BA09308289260EFD02BCECC
:1032D000B656B0937528EAD000C120927928209282
:1032E0007A2820927E2820927F2820928628209279
:1032F000872820928C2820928D2820929128209235
:103300009228209284282092852820928B2831961A
:10331000B491EFE2FDE0EB0FF21DEE0FFF1FA59160
:10332000B491AA0FBB1FEA2FFB2FB4913296A6E0EF
:10333000AA9519F0B69578F0FBCFA3E0B2E0B09370
:103340007B28A0938028B0938828B0938E28B093D0
:103350009328B6D0E8CDC591D591A53039F0A430E9
:1033600079F0A330D9F0A23059F13CC0C09379284C
:10337000D0937A2841D0C0937D28D0937C28D8CF91
:10338000C0937E28D0937F282092B5282092B6281B
:103390002092BC282092BD283AD0CACFC09386285C
:1033A000D09387282092B5282092B6282092BC2856
:1033B0002092BD2821D0C0938A28D0938928B8CFE5
:1033C000C0938C28D0938D282092B5282092B628BF
:1033D0002092BC282092BD280FD0C0939028D09373
:1033E0008F28A6CFC0939128D093922805D0C09360
:1033F0009528D09394289CCFEF93FF93EC2FFD2F2B
:10340000EE0FFF1FC591D491FF91EF910895EF93B7
:10341000FF93EC2FFD2FEE0FFF1FC591D591C093A9
:103420008228D0938128C491C0938328FF91EF9183
:103430000895B0917D28BF3F19F0B395B0937B28D4
:10344000B0918228BF3F19F0B395B0938028B09116
:103450008A28BF3F19F0B395B0938828B09190287F
:10346000BF3F19F0B395B0938E28B0919528BF3F18
:1034700019F0B395B093932819D055CDE091182841
:10348000F0911928A0911A28B0911B281296EA0FE2
:10349000FB1FA591B491AA0FBB1FA0937328B093F3
:1034A000742820927728209278283DCDE0917728C3
:1034B000F09178283196E0937728F0937828089552
:1034C000E0917728F09178283296E0937728F0936E
:1034D00078280895BA95B0937628A091C628B0911F
:1034E000C728109609F0BFC2E091C428F091C52802
:1034F000A091C828B091C928EA0FFB1FB491B73535
:1035000008F460C1B73608F49EC1B33E08F4A9C1FF
:1035100009F4ACC1B43E09F455C2BF3F09F477C207
:103520003196A49196D2B55EECEFFBE5BB0FEB0FA5
:10353000F21DC591D491EC2FFD2F0994A093E7289B
:103540002092E828D1CF2092ED282092EE282092D8
:10355000E7282092E8286F937F936A2F72EB679F8A
:103560007F916F911694079416940794169407947C
:10357000169407940092E9281092EA28B5CF209279
:10358000E9282092EA282092E7282092E8286F93E1
:103590007F936A2F72EB679F7F916F9116940794C8
:1035A0001694079416940794169407940092ED28A5
:1035B0001092EE2899CF6F937F936A2F72EB679FDB
:1035C0007F916F911694079416940794169407941C
:1035D000169407940092F5281092F628A21101C0C3
:1035E00083CFA091AC0AB091AD0AA093F128B0931B
:1035F000F2282092F7282092F82876CFBA2FA07FC1
:10360000A295BF70A093F928B093FA282092FB28C6
:103610006BCF6ACF69CFA0931F2866CFB0932028C5
:1036200063CFB093212860CFA21521F0B1E0B09311
:10363000A50A5ACF2092A50A2092AC0A2092AD0A80
:1036400053CFA0931E2850CFA21551F0B0911E2841
:10365000AB1730F4A093FC28B1E0B093C62806C2A3
:1036600043CF42CF41CF40CF3FCF6F937F936A2F5D
:1036700072EB67037F916F911694079416940794E9
:10368000169407941694079413FE02C0B0EF1B2AF9
:103690000092FE281092FF2827CFE091CF28F091CA
:1036A000D028309609F020CFE091D728F091D82883
:1036B000309609F019CFE091DD28F091DE283096A0
:1036C00009F012CFBA2FBF70C0910029BC0FB735D7
:1036D00008F0B6E5B0930029E4E9F0E0BB0FEB0F8A
:1036E000F21DC591D491C0930129D0930229A295CE
:1036F000AF70AA0FA3956F937F936A2F72EB679FAA
:103700007F916F91169407941694079416940794DA
:10371000169407940092032910920429E5CEE091B3
:10372000CF28F091D028309609F0DECEE091D7284E
:10373000F091D828309609F0D7CEE091DD28F091AD
:10374000DE28309609F0D0CEBA2FBF70C09107297D
:10375000CB1B08F4C0E0C0930729E4E9F0E0CC0FEC
:10376000EC0FF21DC591D491C0930829D09309297B
:10377000A295AF70AA0FA3956F937F936A2F72EBF8
:10378000679F7F916F9116940794169407941694EF
:1037900007941694079400920A2910920B29A4CE3C
:1037A000A21551F0B0911E28AB1730F4A0930E294A
:1037B000B1E0B093C6285AC197CE96CE95CE94CE9E
:1037C00093CE92CEB0931228B0930029B0930729DC
:1037D000A3E0B2E0B093CC28A093D128B093D9282D
:1037E000B093DF28B093E4282092D5282092D628E1
:1037F0002092DC282092EB282092EC282092EF28BF
:103800002092F0282092F7282092F828A091AC0A64
:10381000B091AD0AA093F128B093F228209201292B
:103820002092022920920529209206292092082917
:103830002092092920920C2920920D29B1E0B09301
:10384000A50AFDD051CEFBD0B75521F0B1E0B09321
:10385000A50A4ACE2092A50A2092AC0A2092AD0A6F
:1038600043CEB656B093C628EAD000C12092CA28EB
:103870002092CB282092CF282092D0282092D7289F
:103880002092D8282092DD282092DE282092E2285B
:103890002092E3282092D5282092D6282092DC2856
:1038A0003196B491EFE2FDE0EB0FF21DEE0FFF1F3A
:1038B000A591B491AA0FBB1FEA2FFB2FB4913296AA
:1038C000A6E0AA9519F0B69578F0FBCFA3E0B2E098
:1038D000B093CC28A093D128B093D928B093DF28F7
:1038E000B093E428B6D000CEC591D591A53039F07B
:1038F000A43079F0A330D9F0A23059F13CC0C09384
:10390000CA28D093CB2841D0C093CE28D093CD28BD
:10391000D8CFC093CF28D093D028209201292092CD
:10392000022920920829209209293AD0CACFC093AF
:10393000D728D093D82820920129209202292092BA
:1039400008292092092921D0C093DB28D093DA28B6
:10395000B8CFC093DD28D093DE2820920129209291
:10396000022920920829209209290FD0C093E1282A
:10397000D093E028A6CFC093E228D093E32805D0C7
:10398000C093E628D093E5289CCFEF93FF93EC2FCC
:10399000FD2FEE0FFF1FC591D491FF91EF91089578
:1039A000EF93FF93EC2FFD2FEE0FFF1FC591D591E5
:1039B000C093D328D093D228C491C093D428FF9128
:1039C000EF910895B091CE28BF3F19F0B395B09311
:1039D000CC28B091D328BF3F19F0B395B093D1282C
:1039E000B091DB28BF3F19F0B395B093D928B091BF
:1039F000E128BF3F19F0B395B093DF28B091E628D6
:103A0000BF3F19F0B395B093E42819D06DCDE09184
:103A10001828F0911928A0911A28B0911B28149603
:103A2000EA0FFB1FA591B491AA0FBB1FA093C42856
:103A3000B093C5282092C8282092C92855CDE0917E
:103A4000C828F091C9283196E093C828F093C92876
:103A50000895E091C828F091C9283296E093C828CB
:103A6000F093C9280895BA95B093C728A091122958
:103A7000B0911329109609F0CDC2E0911029F09170
:103A80001129A0911429B0911529EA0FFB1FB491B7
:103A9000B73508F472C1B73608F4ADC1B33E08F4C7
:103AA000B3C109F4B6C1B43E09F45FC2BF3F09F423
:103AB00081C23196A491A4D2B55EE0E3FCE5BB0FD0
:103AC000EB0FF21DC591D491EC2FFD2F0994A0931B
:103AD000332920923429D1CF2092392920923A29B2
:103AE00020923329209234296F937F936A2F72EBAF
:103AF000679F7F916F91169407941694079416947C
:103B00000794169407940092352910923629B5CF60
:103B10002092352920923629209233292092342967
:103B20006F937F936A2F72EB679F7F916F911694CB
:103B30000794169407941694079416940794009289
:103B4000392910923A2999CF6F937F936A2F72EB9C
:103B5000679F7F916F91169407941694079416941B
:103B60000794169407940092412910924229A211B9
:103B700001C083CFA091BC0AB091BD0AA0933D299A
:103B8000B0933E29209243292092442976CFBA2F20
:103B9000A07FA295BF70A0934529B093462920929B
:103BA00047296BCFBA2FA07FA295BF70A093482959
:103BB000B093492920924A2920924B295ECFA093A5
:103BC0004C295BCFA0931F2858CFB093202855CF06
:103BD000B093212852CFB0911328B07FBA2BB09365
:103BE00013284BCFA0931E2848CFA21551F0B091B7
:103BF0001E28AB1730F4A0934D29B1E0B0931229E1
:103C00000CC23BCF3ACF39CF38CF37CF6F937F93AA
:103C10006A2F72EB67037F916F9116940794169445
:103C20000794169407941694079413FE02C0B0EFFD
:103C30001B2A00924F29109250291FCFE0911B2977
:103C4000F0911C29309609F018CFE0912329F091CA
:103C50002429309609F011CFE0912929F0912A29E1
:103C6000309609F00ACFBA2FBF70C0915129BC0F0E
:103C7000B73508F0B6E5B0935129E4E9F0E0BB0FA1
:103C8000EB0FF21DC591D491C0935229D0935329C3
:103C9000A295AF70AA0FA3956F937F936A2F72EBD3
:103CA000679F7F916F9116940794169407941694CA
:103CB0000794169407940092542910925529DDCE4A
:103CC000E0911B29F0911C29309609F0D6CEE091A5
:103CD0002329F0912429309609F0CFCEE0912929AB
:103CE000F0912A29309609F0C8CEBA2FBF70C09142
:103CF0005829CB1B08F4C0E0C0935829E4E9F0E050
:103D0000CC0FEC0FF21DC591D491C0935929D093DB
:103D10005A29A295AF70AA0FA3956F937F936A2F2C
:103D200072EB679F7F916F91169407941694079496
:103D3000169407941694079400925B2910925C29BC
:103D40009CCEA21551F0B0911E28AB1730F4A09371
:103D50005F29B1E0B093122960C18FCEA695A795D7
:103D6000B0911428BF77BA2BB09313286F776A2BC2
:103D700084CE83CE82CE81CE80CEB0931728B093EE
:103D80005129B0935829A3E0B2E0B0931829A09329
:103D90001D29B0932529B0932B29B0933029209267
:103DA0002129209222292092282920923729209205
:103DB000382920923B2920923C29209243292092A5
:103DC0004429A091BC0AB091BD0AA0933D29B093AB
:103DD0003E2920925229209253292092562920923E
:103DE00057292092592920925A2920925D29209200
:103DF0005E29FCD042CEB755A0911328A07FAB2BF3
:103E0000A0931328F3D039CEB656B0931229EED032
:103E100004C1209216292092172920921B29209252
:103E20001C2920922329209224292092292920929A
:103E30002A2920922E2920922F292092212920926E
:103E40002229209228293196B491EFE2FDE0EB0F70
:103E5000F21DEE0FFF1FA591B491AA0FBB1FEA2F11
:103E6000FB2FB4913296A6E0AA9519F0B69578F09A
:103E7000FBCFA3E0B2E0B0931829A0931D29B09323
:103E80002529B0932B29B0933029BAD0F6CDC5910E
:103E9000D591A53039F0A43079F0A330D9F0A23013
:103EA00059F13CC0C0931629D093172941D0C09333
:103EB0001A29D0931929D8CFC0931B29D0931C2934
:103EC00020925229209253292092592920925A292E
:103ED0003AD0CACFC0932329D093242920925229C3
:103EE000209253292092592920925A2921D0C093F7
:103EF0002729D0932629B8CFC0932929D0932A29DE
:103F000020925229209253292092592920925A29ED
:103F10000FD0C0932D29D0932C29A6CFC0932E2942
:103F2000D0932F2905D0C0933229D09331299CCF2B
:103F3000EF93FF93EC2FFD2FEE0FFF1FC591D49150
:103F4000FF91EF910895EF93FF93EC2FFD2FEE0F6C
:103F5000FF1FC591D591C0931F29D0931E29C491ED
:103F6000C0932029FF91EF910895B0911A29BF3F86
:103F700019F0B395B0931829B0911F29BF3F19F0DC
:103F8000B395B0931D29B0912729BF3F19F0B39580
:103F9000B0932529B0912D29BF3F19F0B395B09367
:103FA0002B29B0913229BF3F19F0B395B093302936
:103FB0001DD063CDE0911828F0911928A0911A28FE
:103FC000B0911B28A0931A28B0931B281696EA0FCD
:103FD000FB1FA591B491AA0FBB1FA0931029B0930A
:103FE0001129209214292092152947CDE0911429F6
:103FF000F09115293196E0931429F093152908952D
:10400000E0911429F09115293296E0931429F09348
:1040100015290895BA95B0931329F0911E28EF2F12
:10402000E150A0912528A21142C000C0AF2FB0914D
:104030002428B21509F43BC0BA95B0932428B211D4
:1040400034C0AA95BFEFC0917128D0917228CB17C8
:1040500009F00DC0DB1709F015C0C0915F28D091A1
:104060006028CB1709F012C0DB17F9F01AC0B09323
:104070007128EC1BE0937228CA95C0932528EF2F76
:10408000E15015C0B0937228AD2F0FC0B0935F28D8
:10409000EC1BE0936028CA95C0932528EF2FE150D0
:1040A00006C0B0936028AD2F00C0A0932528A09132
:1040B0007628A21142C000C0AF2FB0917528B2156A
:1040C00009F43BC0BA95B0937528B21134C0AA95D3
:1040D000BFEFC091C228D091C328CB1709F00DC003
:1040E000DB1709F015C0C091B028D091B128CB17CB
:1040F00009F012C0DB17F9F01AC0B093C228EC1B0C
:10410000E093C328CA95C0937628EF2FE150CFCF14
:10411000B093C328AD2F0FC0B093B028EC1BE09331
:10412000B128CA95C0937628EF2FE150C0CFB09345
:10413000B128AD2F00C0A0937628A091C728A21166
:1041400042C000C0AF2FB091C628B21509F43BC0E1
:10415000BA95B093C628B21134C0AA95BFEFC091EA
:104160000E29D0910F29CB1709F00DC0DB1709F0EC
:1041700015C0C091FC28D091FD28CB1709F012C0C2
:10418000DB17F9F01AC0B0930E29EC1BE0930F294E
:10419000CA95C093C728EF2FE15015C0B0930F29DF
:1041A000AD2F0FC0B093FC28EC1BE093FD28CA95FF
:1041B000C093C728EF2FE15006C0B093FD28AD2F64
:1041C00000C0A093C728A0911329A21142C000C02B
:1041D000AF2FB0911229B21509F43BC0BA95B09334
:1041E0001229B21134C0AA95BFEFC0915F29D091B6
:1041F0006029CB1709F00DC0DB1709F015C0C0917D
:104200004D29D0914E29CB1709F012C0DB17F9F0D8
:104210001AC0B0935F29EC1BE0936029CA95C09344
:104220001329EF2FE15015C0B0936029AD2F0FC0B7
:10423000B0934D29EC1BE0934E29CA95C0931329E6
:10424000EF2FE15006C0B0934E29AD2F00C0A093D0
:104250001329E0912828F09129283096A1F1EE0F3A
:10426000FF1FA0912A28EA0FF21DB0912C28BA173F
:1042700029F4A0912B28AB1710F003C0A395A093AD
:104280002A28B491BF3F69F4B0912C28BF3F29F48C
:10429000B0912B28B0932A28DCCFA250A0932A28D3
:1042A000D8CFE4E6FCE5B295EB0FF21DB091002803
:1042B000BF70A0915D28A03081F4EB0FF21DB49186
:1042C000B093062823C0B0910028BF70A0915D284C
:1042D000A03099F4B093062819C0BA1B38F031F019
:1042E000EB0FF21DB491B093062810C0B1E0EB0FB4
:1042F000F21DB491B093062809C0BA1B20F019F042
:10430000B093062803C0B1E0B0930628E0912D28B1
:10431000F0912E283096D9F1EE0FFF1FA0912F2893
:10432000EA0FF21DB0913128BA1729F4A091302874
:10433000AB1710F003C0A395A0932F28B491B03809
:1043400009F041C0A150A0932F28B0913228B1307C
:1043500048F0B0913128BF3FD1F4B0913028BF3F31
:1043600099F415C0B0913128BF3F21F4B0913028A5
:10437000BF3F51F4C0914528D0914628209669F45A
:10438000A150A0932F28C2CFB0932F28BFCFC091A8
:104390004528D0914628209699F0D695C795D7956F
:1043A000C795D795C795D795C795D795D295C093FB
:1043B0004528D0934628CF70A0910728AC0F2EC077
:1043C000A09107282BC020923328209234282092D5
:1043D0003A28A0913228A13010F069F00EC0A091C7
:1043E0000728AB0FB7FD04C0A735C0F0A6E516C07F
:1043F000A7FDA0E013C0AB2F11C0A0910728AB0F01
:10440000B7FD08C0A0930728A73540F0A6E5A09304
:10441000072804C0A7FDA0E0A0930728E4E9F0E086
:10442000AA0FEA0FF21DA591B491A0938C0AB09344
:104430008D0AA0935128B093522800C0E0913528EE
:10444000F0913628309609F423C0EE0FFF1FA0919B
:104450003728EA0FF21DB0913928BA1729F4A09134
:104460003828AB1710F003C0A395A0933728B49158
:10447000B03879F4A150A0933728B0913928BF3FC4
:1044800039F4B0913828BF3F19F0B0933728D6CF10
:10449000B0E06F937F936B2F72EB67037F916F9107
:1044A00016940794169407941694079416940794F8
:1044B00013FE07C0C0EF1C2AB77019F0B1E00B0E55
:1044C000121CA0913328B09134280A0E1B1E0092B2
:1044D000332810923428A0918C0AB0918D0AA00D37
:1044E000B11DC0914928D0914A28AC1BBD0BC09189
:1044F0004D28D0914E28AC0FBD1FC0916128D0919E
:104500006228AC0FBD1FC0916828D0916928AC1BF0
:10451000BD0BC0916F28D0917028AC0FBD1FA09328
:104520008C0AB0938D0AE0913B28F0913C2830969C
:1045300009F43CC0EE0FFF1FA0913D28EA0FF21DC9
:10454000B0913F28BA1729F4A0913E28AB1710F07C
:1045500003C0A395A0933D28B491B03889F4A1502D
:10456000A0933D28B0913F28BF3F39F4B0913E2839
:10457000BF3F19F0B0933D28D6CFB0913A2805C07F
:10458000A0913A28BA0FB0933A286F937F936B2F7C
:1045900072EB67037F916F91A0918C0AB0918D0AA5
:1045A000A00DB11DA0938C0AB0938D0AE091402814
:1045B000F09141283096B1F1EE0FFF1FA0914228F3
:1045C000EA0FF21DB0914428BA1729F4A0914328AC
:1045D000AB1710F027C0A395A0934228B491BF3F1A
:1045E00071F4A150A0934228B0914428BF3FD1F468
:1045F000B0914328BF3FB1F0B0934228D7CFE0E954
:10460000FBE5EB0FF21DB695B795B795A091002885
:10461000CA2FA07CBA1301C005C0A490CF73CB2BC6
:10462000C0930028E0914728F0914828309651F037
:10463000A0914928B0914A28AE0FBF1FA0934928E6
:10464000B0934A28E0914B28F0914C28309651F0D5
:10465000A0914D28B0914E28AE0FBF1FA0934D28BA
:10466000B0934E28E0915328F0915428309609F4E5
:1046700048C0A0914F28B0915028109609F441C02D
:10468000C0915128D0915228AC17BD0711F030F0DD
:104690001FC020924F282092502833C0CA1BDB0B2A
:1046A000A0915528B0915628AE0FBF1FCA1BDB0B37
:1046B00080F3A0935528B0935628A0918C0AB0910E
:1046C0008D0AAC1BBD0BA0938C0AB0938D0A19C048
:1046D000AC1BBD0BC0915528D0915628CE0FDF1FC3
:1046E000AC1BBD0BB0F2C0935528D0935628C09197
:1046F0008C0AD0918D0ACA0FDB1FC0938C0AD0930D
:104700008D0AA0915728A21509F45CC0B0915828D1
:10471000C0915928CA0FC03408F0C0E0C09359288E
:10472000C03128F0C03228F0C03330F007C0CF705D
:1047300029C0C06FC09526C0CF7003C0C06FC095A0
:1047400000C0B295CB0FE2E6F1E0EC0FF21DC49190
:104750006F937F936C2F72EB679F7F916F9116948D
:104760000794169407941694079416940794A091AE
:104770008C0AB0918D0AA00DB11DA0938C0AB09344
:104780008D0A20C0B295CB0FE2E6F1E0EC0FF21DEE
:10479000C4916F937F936C2F72EB679F7F916F91A2
:1047A00016940794169407941694079416940794F5
:1047B000A0918C0AB0918D0AA019B109A0938C0A1E
:1047C000B0938D0AA0915A28A215E9F0B0915B2808
:1047D000C0915C28CA0FC03408F0C0E0C0935C28C8
:1047E000C695C4FF01C002C0CF7003C0C06FC095A2
:1047F00000C0B295CB0FE2E6F1E0EC0FF21DC491E0
:10480000C695C0935D28B0915E28B215E9F0A091DD
:104810000528C0910028DA2FEC2FE295D07FE07FA9
:10482000ED1709F0AE2FB7FD04C0AB0F28F4A0EFD1
:1048300003C0AB0F08F0A0E0A0930528A07FA295CD
:10484000C07FCA2BC0930028E0916428F0916528AE
:10485000309619F1A0916828B0916928C0918C0A0E
:10486000D0918D0AEC1BFD0B08F468F020926828AB
:10487000209269282092642820926528B0916328AC
:10488000B09307280AC0C0916628D0916728AC0F62
:10489000BD1FA0936828B0936928E0916B28F09120
:1048A0006C28309619F1A0916F28B0917028C091B2
:1048B0008C0AD0918D0ACE1BDF0B08F468F0209291
:1048C0006F282092702820926B2820926C28B0913B
:1048D0006A28B09307280AC0C0916D28D0916E282D
:1048E000AC0FBD1FA0936F28B0937028E09179287A
:1048F000F0917A283096A1F1EE0FFF1FA0917B284E
:10490000EA0FF21DB0917D28BA1729F4A0917C28F6
:10491000AB1710F003C0A395A0937B28B491BF3FC1
:1049200069F4B0917D28BF3F29F4B0917C28B09301
:104930007B28DCCFA250A0937B28D8CFE4E6FCE50F
:10494000B295EB0FF21DB0910828BF70A091AE2870
:10495000A03081F4EB0FF21DB491B0930E2823C068
:10496000B0910828BF70A091AE28A03099F4B09300
:104970000E2819C0BA1B38F031F0EB0FF21DB491BC
:10498000B0930E2810C0B1E0EB0FF21DB491B093BC
:104990000E2809C0BA1B20F019F0B0930E2803C0EE
:1049A000B1E0B0930E28E0917E28F0917F283096F8
:1049B000D9F1EE0FFF1FA0918028EA0FF21DB091F0
:1049C0008228BA1729F4A0918128AB1710F003C0F0
:1049D000A395A0938028B491B03809F041C0A150AC
:1049E000A0938028B0918328B13048F0B0918228FC
:1049F000BF3FD1F4B0918128BF3F99F415C0B09169
:104A00008228BF3F21F4B0918128BF3F51F4C0916B
:104A10009628D0919728209669F4A150A0938028D9
:104A2000C2CFB0938028BFCFC0919628D09197284D
:104A3000209699F0D695C795D795C795D795C795E0
:104A4000D795C795D795D295C0939628D093972898
:104A5000CF70A0910F28AC0F2EC0A0910F282BC0B3
:104A6000209284282092852820928B28A091832848
:104A7000A13010F069F00EC0A0910F28AB0FB7FD68
:104A800004C0A735C0F0A6E516C0A7FDA0E013C07E
:104A9000AB2F11C0A0910F28AB0FB7FD08C0A0939A
:104AA0000F28A73540F0A6E5A0930F2804C0A7FD66
:104AB000A0E0A0930F28E4E9F0E0AA0FEA0FF21DAE
:104AC000A591B491A0939C0AB0939D0AA093A228AB
:104AD000B093A32800C0E0918628F09187283096F3
:104AE00009F423C0EE0FFF1FA0918828EA0FF21DE2
:104AF000B0918A28BA1729F4A0918928AB1710F031
:104B000003C0A395A0938828B491B03879F4A1503C
:104B1000A0938828B0918A28BF3F39F4B0918928A2
:104B2000BF3F19F0B0938828D6CFB0E06F937F9342
:104B30006B2F72EB67037F916F9116940794169415
:104B40000794169407941694079413FE07C0C0EFB9
:104B50001C2AB77019F0B1E00B0E121CA09184282A
:104B6000B09185280A0E1B1E009284281092852879
:104B7000A0919C0AB0919D0AA00DB11DC0919A28E8
:104B8000D0919B28AC1BBD0BC0919E28D0919F2833
:104B9000AC0FBD1FC091B228D091B328AC0FBD1F80
:104BA000C091B928D091BA28AC1BBD0BC091C028C8
:104BB000D091C128AC0FBD1FA0939C0AB0939D0A51
:104BC000E0918C28F0918D28309609F43CC0EE0FCE
:104BD000FF1FA0918E28EA0FF21DB0919028BA17FE
:104BE00029F4A0918F28AB1710F003C0A395A093D0
:104BF0008E28B491B03889F4A150A0938E28B0913A
:104C00009028BF3F39F4B0918F28BF3F19F0B0937F
:104C10008E28D6CFB0918B2805C0A0918B28BA0FD3
:104C2000B0938B286F937F936B2F72EB67037F9109
:104C30006F91A0919C0AB0919D0AA00DB11DA09307
:104C40009C0AB0939D0AE0919128F09192283096A9
:104C5000B1F1EE0FFF1FA0919328EA0FF21DB09162
:104C60009528BA1729F4A0919428AB1710F027C003
:104C7000A395A0939328B491BF3F71F4A150A09342
:104C80009328B0919528BF3FD1F4B0919428BF3FAD
:104C9000B1F0B0939328D7CFE0E9FBE5EB0FF21D1D
:104CA000B695B795B795A0910828CA2FA07CBA13DE
:104CB00001C005C0D490CF73CB2BC0930828E091DE
:104CC0009828F0919928309651F0A0919A28B091A7
:104CD0009B28AE0FBF1FA0939A28B0939B28E0910A
:104CE0009C28F0919D28309651F0A0919E28B0917B
:104CF0009F28AE0FBF1FA0939E28B0939F28E091DE
:104D0000A428F091A528309609F448C0A091A028C5
:104D1000B091A128109609F441C0C091A228D09169
:104D2000A328AC17BD0711F030F01FC02092A028B7
:104D30002092A12833C0CA1BDB0BA091A628B091FA
:104D4000A728AE0FBF1FCA1BDB0B80F3A093A628BA
:104D5000B093A728A0919C0AB0919D0AAC1BBD0BF3
:104D6000A0939C0AB0939D0A19C0AC1BBD0BC091C7
:104D7000A628D091A728CE0FDF1FAC1BBD0BB0F229
:104D8000C093A628D093A728C0919C0AD0919D0AD1
:104D9000CA0FDB1FC0939C0AD0939D0AA091A8283C
:104DA000A21509F45CC0B091A928C091AA28CA0F25
:104DB000C03408F0C0E0C093AA28C03128F0C03247
:104DC00028F0C03330F007C0CF7029C0C06FC09545
:104DD00026C0CF7003C0C06FC09500C0B295CB0F86
:104DE000E2E6F1E0EC0FF21DC4916F937F936C2F1C
:104DF00072EB679F7F916F911694079416940794B6
:104E00001694079416940794A0919C0AB0919D0A59
:104E1000A00DB11DA0939C0AB0939D0A20C0B2952D
:104E2000CB0FE2E6F1E0EC0FF21DC4916F937F939C
:104E30006C2F72EB679F7F916F9116940794169475
:104E400007941694079416940794A0919C0AB09125
:104E50009D0AA019B109A0939C0AB0939D0AA09144
:104E6000AB28A215E9F0B091AC28C091AD28CA0FCB
:104E7000C03408F0C0E0C093AD28C695C4FF01C09F
:104E800002C0CF7003C0C06FC09500C0B295CB0FF9
:104E9000E2E6F1E0EC0FF21DC491C695C093AE2896
:104EA000B091AF28B215E9F0A0910D28C091082863
:104EB000DA2FEC2FE295D07FE07FED1709F0AE2FCF
:104EC000B7FD04C0AB0F28F4A0EF03C0AB0F08F090
:104ED000A0E0A0930D28A07FA295C07FCA2BC0930D
:104EE0000828E091B528F091B628309619F1A091E4
:104EF000B928B091BA28C0919C0AD0919D0AEC1BA8
:104F0000FD0B08F468F02092B9282092BA2820926C
:104F1000B5282092B628B091B428B0930F280AC0C3
:104F2000C091B728D091B828AC0FBD1FA093B92865
:104F3000B093BA28E091BC28F091BD28309619F1C1
:104F4000A091C028B091C128C0919C0AD0919D0A1F
:104F5000CE1BDF0B08F468F02092C0282092C128F5
:104F60002092BC282092BD28B091BB28B0930F2876
:104F70000AC0C091BE28D091BF28AC0FBD1FA0931E
:104F8000C028B093C128E091CA28F091CB28309670
:104F900099F1EE0FFF1FA091CC28EA0FF21DB091FE
:104FA000CE28BA1729F4A091CD28AB1710F003C072
:104FB000A395A093CC28B491BF3F69F4B091CE28BB
:104FC000BF3F29F4B091CD28B093CC28DCCFA250BC
:104FD000A093CC28D8CFB21541F0B091A50AB1303A
:104FE00059F4B1E0B093A50A07C02092A50A209217
:104FF000AC0A2092AD0A00C0E091CF28F091D028F1
:105000003096D9F1EE0FFF1FA091D128EA0FF21DC3
:10501000B091D328BA1729F4A091D228AB1710F079
:1050200003C0A395A093D128B491B03809F041C032
:10503000A150A093D128B091D428B13048F0B091BC
:10504000D328BF3FD1F4B091D228BF3F99F415C007
:10505000B091D328BF3F21F4B091D228BF3F51F483
:10506000C091E728D091E828209669F4A150A09338
:10507000D128C2CFB093D128BFCFC091E728D0911B
:10508000E828209699F0D695C795D795C795D795D6
:10509000C795D795C795D795D295C093E728D09354
:1050A000E828CF70A0911228AC0F2EC0A091122832
:1050B0002BC02092D5282092D6282092DC28A091BF
:1050C000D428A13010F069F00EC0A0911228AB0FC7
:1050D000B7FD04C0A735C0F0A6E516C0A7FDA0E047
:1050E00013C0AB2F11C0A0911228AB0FB7FD08C0A1
:1050F000A0931228A73540F0A6E5A093122804C07B
:10510000A7FDA0E0A0931228E4E9F0E0AA0FEA0FBF
:10511000F21DA591B491A093AC0AB093AD0AA093EF
:10512000F328B093F42800C0E091D728F091D82854
:10513000309609F423C0EE0FFF1FA091D928EA0F83
:10514000F21DB091DB28BA1729F4A091DA28AB1729
:1051500010F003C0A395A093D928B491B03879F486
:10516000A150A093D928B091DB28BF3F39F4B0916A
:10517000DA28BF3F19F0B093D928D6CFB0E06F93AB
:105180007F936B2F72EB67037F916F911694079457
:1051900016940794169407941694079413FE07C068
:1051A000C0EF1C2AB77019F0B1E00B0E121CA091D1
:1051B000D528B091D6280A0E1B1E0092D528109231
:1051C000D628A091AC0AB091AD0AA00DB11DC09136
:1051D000EB28D091EC28AC1BBD0BC091EF28D091EF
:1051E000F028AC0FBD1FC091FE28D091FF28AC0F56
:1051F000BD1FC0910529D0910629AC1BBD0BC091E4
:105200000C29D0910D29AC0FBD1FA093AC0AB0930F
:10521000AD0AE091DD28F091DE28309609F43CC01B
:10522000EE0FFF1FA091DF28EA0FF21DB091E128D9
:10523000BA1729F4A091E028AB1710F003C0A3958A
:10524000A093DF28B491B03889F4A150A093DF284F
:10525000B091E128BF3F39F4B091E028BF3F19F089
:10526000B093DF28D6CFB091DC2805C0A091DC2810
:10527000BA0FB093DC286F937F936B2F72EB6703A9
:105280007F916F91A091AC0AB091AD0AA00DB11DB4
:10529000A093AC0AB093AD0AE091E928F091EA2816
:1052A000309651F0A091EB28B091EC28AE0FBF1FC3
:1052B000A093EB28B093EC28E091ED28F091EE2834
:1052C000309651F0A091EF28B091F028AE0FBF1F9B
:1052D000A093EF28B093F028E091F528F091F628FC
:1052E000309609F448C0A091F128B091F2281096A8
:1052F00009F441C0C091F328D091F428AC17BD0740
:1053000011F030F01FC02092F1282092F22833C013
:10531000CA1BDB0BA091F728B091F828AE0FBF1F76
:10532000CA1BDB0B80F3A093F728B093F828A09159
:10533000AC0AB091AD0AAC1BBD0BA093AC0AB09304
:10534000AD0A19C0AC1BBD0BC091F728D091F8284D
:10535000CE0FDF1FAC1BBD0BB0F2C093F728D0936C
:10536000F828C091AC0AD091AD0ACA0FDB1FC093D8
:10537000AC0AD093AD0AA091F928A21509F45CC03B
:10538000B091FA28C091FB28CA0FC03408F0C0E0E1
:10539000C093FB28C03128F0C03228F0C03330F071
:1053A00007C0CF7029C0C06FC09526C0CF7003C0A2
:1053B000C06FC09500C0B295CB0FE2E6F1E0EC0FF4
:1053C000F21DC4916F937F936C2F72EB679F7F9157
:1053D0006F91169407941694079416940794169454
:1053E0000794A091AC0AB091AD0AA00DB11DA09395
:1053F000AC0AB093AD0A20C0B295CB0FE2E6F1E063
:10540000EC0FF21DC4916F937F936C2F72EB679F2B
:105410007F916F91169407941694079416940794AD
:1054200016940794A091AC0AB091AD0AA019B109E5
:10543000A093AC0AB093AD0AE0910129F091022942
:10544000309619F1A0910529B0910629C091AC0AB6
:10545000D091AD0AEC1BFD0B08F468F020920529F1
:10546000209206292092012920920229B091002938
:10547000B09312280AC0C0910329D0910429AC0F1F
:10548000BD1FA0930529B0930629E0910829F0914A
:105490000929309619F1A0910C29B0910D29C091DC
:1054A000AC0AD091AD0ACE1BDF0B08F468F0209255
:1054B0000C2920920D292092082920920929B091C7
:1054C0000729B09312280AC0C0910A29D0910B294C
:1054D000AC0FBD1FA0930C29B0930D29E0911629A4
:1054E000F09117293096A1F1EE0FFF1FA091182916
:1054F000EA0FF21DB0911A29BA1729F4A0911929BF
:10550000AB1710F003C0A395A0931829B491BF3F27
:1055100069F4B0911A29BF3F29F4B0911929B093C9
:105520001829DCCFA250A0931829D8CFE4E6FCE5D7
:10553000B295EB0FF21DB0911328BF70A0914B29CB
:10554000A03081F4EB0FF21DB491B093162823C064
:10555000B0911328BF70A0914B29A03099F4B0935B
:10556000162819C0BA1B38F031F0EB0FF21DB491B8
:10557000B093162810C0B1E0EB0FF21DB491B093B8
:10558000162809C0BA1B20F019F0B093162803C0E2
:10559000B1E0B0931628E0911B29F0911C293096B8
:1055A000D9F1EE0FFF1FA0911D29EA0FF21DB09156
:1055B0001F29BA1729F4A0911E29AB1710F003C0B8
:1055C000A395A0931D29B491B03809F041C0A15012
:1055D000A0931D29B0912029B13048F0B0911F2926
:1055E000BF3FD1F4B0911E29BF3F99F415C0B091CF
:1055F0001F29BF3F21F4B0911E29BF3F51F4C09134
:105600003329D0913429209669F4A150A0931D2903
:10561000C2CFB0931D29BFCFC0913329D091342977
:10562000209699F0D695C795D795C795D795C795E4
:10563000D795C795D795D295C0933329D093342960
:10564000CF70A0911728AC0F2EC0A09117282BC0A7
:10565000209221292092222920922829A0912029D4
:10566000A13010F069F00EC0A0911728AB0FB7FD64
:1056700004C0A735C0F0A6E516C0A7FDA0E013C082
:10568000AB2F11C0A0911728AB0FB7FD08C0A09396
:105690001728A73540F0A6E5A093172804C0A7FD5A
:1056A000A0E0A0931728E2E4F1E0AA0FEA0FF21DB0
:1056B000A591B491A093BC0AB093BD0AA0933F29D1
:1056C000B093402900C0E0912329F091242930961D
:1056D00009F423C0EE0FFF1FA0912529EA0FF21D48
:1056E000B0912729BA1729F4A0912629AB1710F0F9
:1056F00003C0A395A0932529B491B03879F4A150A3
:10570000A0932529B0912729BF3F39F4B0912629CC
:10571000BF3F19F0B0932529D6CFB0E06F937F93A8
:105720006B2F72EB67037F916F9116940794169419
:105730000794169407941694079413FE07C0C0EFBD
:105740001C2AB77019F0B1E00B0E121CA091212990
:10575000B09122290A0E1B1E0092212910922229A3
:10576000A091BC0AB091BD0AA00DB11DC09137290E
:10577000D0913829AC1BBD0BC0913B29D0913C295D
:10578000AC0FBD1FC0914F29D0915029AC0FBD1F48
:10579000C0915629D0915729AC1BBD0BC0915D29F2
:1057A000D0915E29AC0FBD1FA093BC0AB093BD0A77
:1057B000E0912929F0912A29309609F43CC0EE0F96
:1057C000FF1FA0912B29EA0FF21DB0912D29BA17C6
:1057D00029F4A0912C29AB1710F003C0A395A09336
:1057E0002B29B491B03889F4A150A0932B29B09102
:1057F0002D29BF3F39F4B0912C29BF3F19F0B09348
:105800002B29D6CFB091282905C0A0912829BA0FFD
:10581000B09328296F937F936B2F72EB67037F916F
:105820006F91A091BC0AB091BD0AA00DB11DA093CB
:10583000BC0AB093BD0AE0912E29F0912F29309631
:1058400069F1EE0FFF1FA0913029EA0FF21DB09110
:105850003229BA1729F4A0913129AB1710F01EC0D4
:10586000A395A0933029B491BF3F71F4A150A093A8
:105870003029B0913229BF3F89F4B0913129BF3F1F
:1058800069F0B0933029D7CFB695B795C091142859
:10589000CF77CB2BC09313286F776B2BE0913529F3
:1058A000F0913629309651F0A0913729B0913829DE
:1058B000AE0FBF1FA0933729B0933829E091392943
:1058C000F0913A29309651F0A0913B29B0913C29B2
:1058D000AE0FBF1FA0933B29B0933C29E091412913
:1058E000F0914229309609F448C0A0913D29B09129
:1058F0003E29109609F441C0C0913F29D09140291A
:10590000AC17BD0711F030F01FC020923D29209246
:105910003E2933C0CA1BDB0BA0914329B091442917
:10592000AE0FBF1FCA1BDB0B80F3A0934329B093BC
:105930004429A091BC0AB091BD0AAC1BBD0BA09339
:10594000BC0AB093BD0A19C0AC1BBD0BC091432962
:10595000D0914429CE0FDF1FAC1BBD0BB0F2C0931A
:105960004329D0934429C091BC0AD091BD0ACA0FE3
:10597000DB1FC093BC0AD093BD0AA0914529A21594
:1059800009F45CC0B0914629C0914729CA0FC034C0
:1059900008F0C0E0C0934729C03128F0C03228F099
:1059A000C03330F007C0CF7029C0C06FC09526C08B
:1059B000CF7003C0C06FC09500C0B295CB0FE2E6B8
:1059C000F1E0EC0FF21DC4916F937F936C2F72EB9B
:1059D000679F7F916F91169407941694079416947D
:1059E000079416940794A091BC0AB091BD0AA00D2B
:1059F000B11DA093BC0AB093BD0A20C0B295CB0FD5
:105A0000E2E6F1E0EC0FF21DC4916F937F936C2FEF
:105A100072EB679F7F916F91169407941694079489
:105A20001694079416940794A091BC0AB091BD0AED
:105A3000A019B109A093BC0AB093BD0AA09148294E
:105A4000A215E9F0B0914929C0914A29CA0FC03482
:105A500008F0C0E0C0934A29C695C4FF01C002C047
:105A6000CF7003C0C06FC09500C0B295CB0FE2E607
:105A7000F1E0EC0FF21DC491C695C0934B29B09193
:105A80004C29B215E9F0A0911528C0911328DA2FFE
:105A9000EC2FE295D07FE07FED1709F0AE2FB7FD38
:105AA00004C0AB0F28F4A0EF03C0AB0F08F0A0E0D8
:105AB000A0931528A07FA295C07FCA2BC09313285E
:105AC000E0915229F0915329309619F1A09156296D
:105AD000B0915729C091BC0AD091BD0AEC1BFD0BB7
:105AE00008F468F0209256292092572920925229D2
:105AF00020925329B0915129B09317280AC0C09120
:105B00005429D0915529AC0FBD1FA0935629B093AD
:105B10005729E0915929F0915A29309619F1A0910D
:105B20005D29B0915E29C091BC0AD091BD0ACE1BFF
:105B3000DF0B08F468F020925D2920925E29209204
