:020000020000FC
:040000000C94CD117E
:04001C000C941A1313
:100024000C9400130C940A130C9400130C9454199C
:10003400C758CC53184FA74A77468242C73E413B24
:10004400ED37CA34D331072F642CE6298C27542585
:100054003B234121631FA01DF71B651AEA1884176F
:100064003216F314C613AA129E11A110B20FD00EA9
:10007400FB0D320D750CC20B190B790AE3095509F6
:10008400CF085008D9076807FE0699063A06E10525
:100094008C053D05F104AA0467042804EC03B403A9
:1000A4007F034D031D03F002C6029E02790255022E
:1000B40034021402F601DA01BF01A6018F017801AE
:1000C40063014F013C012B011A010A01FB00ED0001
:1000D400E000D300C700BC00B200A8009E000000EE
:1000E400000000000000000000000000000000000C
:1000F40000000101010102020202020202020000E8
:1001040000010102020303030404040404040000C4
:1001140001020203030404050506060606060000A0
:10012400010203040505060607070808080800017C
:10013400020304060708090A0A0B0C0C0C0C000144
:10014400030507080A0C0D0E0F10111212120002FB
:100154000406080A0C0E10111314151616160002C4
:1001640005070A0C0F111314161718191A1A00038D
:1001740006090C0F121417191B1D1E1F2020000442
:10018400080C1014171B1E21232527292A2A0005D1
:100194000B11161B2025292D31343638393A000825
:1001A4001019212930373D43484C50535556000C03
:1001B4001824303B46505962697075797C7E001270
:1001C4002537495A6A7987939EA8B0B6BBBE0018F2
:1001D400314A61788DA1B4C5D4E0EBF4FAFD9601FF
:1001E4003C06BA08FF0C7C0FBE016606C008FF0C73
:1001F4007C0FE5018106BA08FF0C7C0FFE01AE06F8
:10020400C508FF0C7C0F1502D7060309030D750FF3
:100214001B023C060809070D720F510266064909C4
:10022400380D720F850281068D09640D720FB902B3
:10023400AE06CF09920D720FEC023C060809070DB9
:10024400720F130366064909380D720F2E038106D7
:100254008D09640D720F5A03DB06110ABD0D720F6E
:1002640087030807CA08E50D720F99031907D00A16
:100274000D0E720FA4032507C60C0D0E720FBE03DC
:100284003D07950A0D0E720FCB030807540A2C0E76
:10029400720FF6031907090B5F0E720F1C044B074C
:1002A400490B5F0E720F38046707890B8D0E720FAE
:1002B40052047007C60BB80E720F7E049C07070C1D
:1002C400ED0E720F5204CD07470C220F720FA804D3
:1002D400F8078A0C500F720FD0041F080809070D85
:1002E400720F050549084909380D720F390564086C
:1002F4008D09640D720F6D059108CF09920D720F6F
:100304009B051F080809070D720FC2054908490912
:10031400380D720FE60564088D09640D720F12061C
:100324009108CF09920D720FF0032163E301FA00E3
:10033400EB00F6016CE3066A5A682D63E301685A20
:10034400682B636BF1025A672F63F7016BF1025A52
:10035400672F63685A682B6369F1025A67286368D8
:100364005A682B6369F102E309692B63E301F7120D
:100374006CE306705A68FF002163E301FA006CE342
:10038400066A5A682D63E301685A682C636AE309B4
:1003940067F1025A672D63E3016BF1025A672F6319
:1003A400685A6828636CE306701C64E32AFA02F650
:1003B4000068F1022468F104236A1A68F1022368D0
:1003C400F104216AFF0015681D681868156A15682C
:1003D4001D6818681A6C266A26682B682868286ABB
:1003E4002168266A1F6C1A681C6823681F681A68CB
:1003F400216818682468FF0021682D681D681A6840
:100404001D681A6829682B681F682B6823681F6891
:100414001A681F68266A28682B682D6828682B6A62
:100424002B682D78FF002161E32BE703FA02EBFC34
:10043400A6FF2165E32AFA01EBFCE700F600682435
:1004440065682965682165682465682965682D657E
:10045400681765681F65682365682B65681F65688C
:100464002365682665682B65682365682865682D9B
:1004740065683065682865682D6568306568286535
:10048400682D65683065682865682D65683065681D
:100494002465682D65683065682D6568FF002165F1
:1004A400FA01F003E7006824656829656821656836
:1004B4002465682965682D65682465682065682356
:1004C40065682D65682065682365682665682D65FF
:1004D400682365682865682D6568306568286568DF
:1004E4002D65683065682865682D656830656828FD
:1004F40065682D65683065682465682D65683065B4
:10050400682D6568FF002165FA01F003E70068249F
:1005140065682965682165682465682965682D65AD
:10052400682465682065682365682C6568206568AB
:100534002365682665682C65682365682865682DC9
:1005440065683065682865682D6568306568286564
:10055400682D65683065682865682D65683065684C
:100564002465682D65683065682D6568FF00186529
:1005740068185C681D65681D5C681865681D656899
:100584002965682465682365682B65682665682382
:1005940065682B6568236568266568236568286532
:1005A400682B65682D65682865682B65F601682BDE
:1005B4005C682865682D65683065F600682F656895
:1005C4002B65682665682465682865682465682342
:1005D4006568FF001D65E301FA00EB006CE3066A41
:1005E4005C682465E301685C6823656BF1025C6701
:1005F40026656BF1025C672B65685C68286569F1A8
:10060400025C672165685C68246569F1025C6721A6
:100614006567F1035C672765F7116CE306705C6836
:10062400FF001D65E301FA006CE3066A5C6824655B
:10063400E301685C6828656AE30967F1025C67287E
:1006440065E3016BF1025C672C65685C6824656C8A
:10065400E30678EBFE6EFF001D65E301FA00EB0094
:100664006CE3066A5C682465E301685C6823656B77
:10067400F1025C6724656BF1025C672665685C685F
:10068400286569F1025C672165685C682B6569F11E
:10069400025C672165685C682D656AE30969F1029B
:1006A4005C672F65E3016AE30969F1025C67FF0097
:1006B4003065E30169F1025C672965685C68E306FB
:1006C4006A2B65E30167F1025C672D6567F1025CE3
:1006D400672B656BF1025C6723656BF1025C672431
:1006E40065685C682665685C681F6569F1025C671B
:1006F40023656BF1025C672365F7116CE3066A57A7
:100704006B235CE30AFA0169FF0067586A245C6E94
:10071400E30672586A285CE30A6A586A235C6EE34B
:10072400066A586A285CE30A6EE30669FF006758A4
:100734006A205CE30AF7116EE3067E587E215CE3CF
:100744000A69FF0067235C685868235CF7116E58D8
:10075400E3066A1D5CE30A6A586A235C6A246A2316
:100764006EE3066A586A265CE30A6E58E3066A2753
:100774005CE30AF71169FF0067586A245C6EE306BC
:100784007E5876215CE30A6A58E3066A235CE30A2E
:1007940069FF2D61E32FFA01EBF66A1C61E328EB94
:1007A40000682168246828682D68306828682D68E6
:1007B40030682F68306828682B682D682B61E32F18
:1007C400FA01EBF66A1C61E328EB00681F682368F2
:1007D40028682B682F6828682F682868376832686B
:1007E4002F682B682668FF002661E32FFA01EBF6D9
:1007F4006A1A61E328EB00681E6823682668236888
:1008040026682A682D682F6832682F6832682A683B
:1008140023682368266824682168266823681E687C
:100824001A681868176818681A681E6823682468A4
:100834002368FF002062E30AF7116E59E3066A1881
:1008440062E30A6A596A1F626A216A1F6EE3066AD2
:10085400596A1F62E30A6859682162685968236209
:1008640068266823681F6821681C68FF6CE306809B
:100874001366E303FA0069F1025D671066685D6858
:10088400136669E9A368F1025D671366F722E9005C
:100894006E5D682F65FA02F6016DF1025C67FF0078
:1008A4001D60E30CE57CF600FA036A2466E59C6AA5
:1008B4001D60E57C6A2466E59C6A1F60E57C6A230A
:1008C40066E58C6A1F60E57C6A2366E5FC6A216044
:1008D400E57C6A2466E59C6A2160E57C6A2466E519
:1008E4009C6A2160E57C6A2466E59C6A2160E57C5B
:1008F4006A2466E59C6AFF001D60E57CF6006A24B4
:1009040066E59C6A1D60E57C6A2466E59C6A206055
:10091400E58C6A2366E59C6A2060E58C6A2366E5BB
:100924009C6A2160E57C6A2466E59C6A2160E57C1A
:100934006A2666E57C6A2160E57C6A2866E59C6A2D
:100944002160E57C6A2D66E57C6AFF001D60E57C1C
:10095400F600FA036A2466E59C6A1D60E57C6A2455
:1009640066E59C6A1F60E57C6A2366E58C6A1F6005
:10097400E57C6A2366E58C6A3061E303E500F601F1
:1009840069F10259672D616A596A2B6167F102594D
:10099400672B61F7126EE3066E5968FF2165E32841
:1009A400FA02EBFAF600682465682965682165682F
:1009B4002465682965682D65681765681F6568235F
:1009C40065682B65681F65682365682665682B65FF
:1009D400682365682865682D6568306568286568DA
:1009E4002D65683065682865682D656830656828F8
:1009F40065682D65683065682465682D65683065AF
:100A0400682D6568FF002165FA02F003E700682499
:100A140065682965682165682465682965682D65A8
:100A2400682465682065682365682D6568206568A5
:100A34002365682665682D65682365682865682DC3
:100A440065683065682865682D656830656828655F
:100A5400682D65683065682865682D656830656847
:100A64002465682D65683065682D6568FF0021651B
:100A7400FA02F003E700682465682965682165685F
:100A84002465682965682D65682465682065682380
:100A940065682C65682065682365682665682C652B
:100AA400682365682865682D656830656828656809
:100AB4002D65683065682865682D65683065682827
:100AC40065682D65683065682465682D65683065DE
:100AD400682D6568FF0018656A1D656A1865681DDC
:100AE40065682965682465682365682B65682665DB
:100AF400682365682B6568236568266568236568CF
:100B04002865682B65682D65682865682B65F6017E
:100B14006A2865682D65683065F600682F65682B5E
:100B240065682665682465682865682465682365A2
:100B340068FF1D66E301FA02EB006CE3066A5C6879
:100B44002465E301685C6823656BF1025C672665D4
:100B54006BF1025C672B65685C68286569F1025C6F
:100B6400672165685C68246569F1025C67216567D3
:100B7400F1035C672765F7116CE306705C68FF009E
:100B84001D65E301FA026CE3066A5C682465E3010F
:100B9400685C6828656AE30967F1025C672865E3B5
:100BA400016BF1025C672C65685C6824616CE30688
:100BB4006823E3016CE3066821E3016CE306681F24
:100BC400E3016CE30668FF001D65E301FA02EB0034
:100BD4006CE3066A5C682465E301685C6823656B02
:100BE400F1025C6724656BF1025C672665685C68EA
:100BF400286569F1025C672165685C682B6569F1A9
:100C0400025C672165685C682D656AE30969F10225
:100C14005C672F65E3016AE30969F1025C67FF0021
:100C24003065E30169F1025C672965685C68E30685
:100C34006A2B65E30167F1025C672D6567F1025C6D
:100C4400672B656BF1025C6723656BF1025C6724BB
:100C540065685C682665685C681F6569F1025C67A5
:100C640023656BF1025C672365F7116CE306705E24
:100C74006767FF002165E301FA00EB00F003E7007A
:100C84006CE3066A5C682D65E301685C682B656B40
:100C9400F1025C672F65F7016BF1025C672F6568F1
:100CA4005C682B6569F1025C672865685C682B6584
:100CB40069F102E30968F1025C672B65E301F7124D
:100CC4006CE306705C68FF002165E301FA006CE3E5
:100CD400066A5C682D65E301685C682C656AE30953
:100CE40067F1025C672D65E3016BF1025C672F65B8
:100CF400685C6828656CE30678EBFE6EFF0021658E
:100D0400E301FA00EB006CE3066A5C682D65E3011D
:100D1400685C682C656BF1025C672C65F7116BF1FC
:100D2400025C672F65685C68306569F1025C671C6A
:100D340065685C682F6569F1025C671C65685C68BE
:100D440030656AE30969F1025C673265E3016AE3CD
:100D54000969F1025C67FF003465E30169F1025C33
:100D6400672D65685C68E3066A2F65E30167F10235
:100D74005C67306567F1025C672F656BF1025C6745
:100D84002B656BF1025C672865685C682B65685CA1
:100D940068286569F1025C672B656BF1025C672C5E
:100DA40065F7016CE306705E68FFE300EBFCE703A4
:100DB400A6FF3465E30169F1025C672D65685C6830
:100DC400E3066A2F65E30167F1025C67306567F14A
:100DD400025C672F656BF1025C672B656BF1025C4B
:100DE400672865685C682B65685C68286569F1023A
:100DF4005C672B656BF1025C672C65F7016CE3069D
:100E04006A2365E30AFA016A5C6AFF0024656EE3FB
:100E140006725C6A2865E30A6A5C6A23656EE30607
:100E24006A5C6A2865E30A6EE3066A5C6AFF206509
:100E3400E30AF7116EE3067E5C7E2165E30A6A230A
:100E440065685C68FF002365F7116E5CE3066A1D44
:100E540065E30A6A5C6A23656A246A236EE3066AA8
:100E64005C6A2665E30A6E5CE3066A2765E30AF7B3
:100E7400116A5C6AFF0024656EE3067E5C76216578
:100E8400E30A6A5CE3066A2365E30A6A5CE3066ACA
:100E9400FF002365E30AF7116E5CE3066A1D65E350
:100EA4000A6A5C6A23656A246A236EE3066A5C6ADA
:100EB4002365E30A685C682465685C682665682BBA
:100EC400682668236824682168FF6CE306805C7EDA
:100ED4002F65E303FA026DF1025C67FF30656AE394
:100EE4000969F1025C672865E30369F1025C673014
:100EF40065685C682F6569F1025C672D65685C68EC
:100F04002B6569F1025C672965685C68286569F18D
:100F1400025C672B65685C68266569F1025C67287A
:100F240065685C6824656AE3096C5C682465E303AE
:100F3400685C68FF266569F1025C672865685C681F
:100F44002B6569F1025C672865685C68266569F150
:100F5400025C672865685C682865F84269F1025C90
:100F6400672465685C68216569F1025C67246568CB
:100F74005C681F65691F60EBF6672161671F626724
:100F84002163671F64672165EB006AE3096A5C6A91
:100F94003065E3036AFF6AE30969F1025C67286567
:100FA400E30369F1025C673065685C682F6569F189
:100FB400025C672D65685C682B6569F1025C6729D2
:100FC40065685C68286569F1025C672B65685C6824
:100FD400266569F1025C672865685C6824656AE3D4
:100FE400096C5C682465E303685C68FF266569F145
:100FF400025C672865685C682B6569F1025C672898
:1010040065685C68266569F1025C672865685C68E8
:101014002B6569F1025C672D65685C68306569F170
:10102400025C672D656A5C6A2B6567F1025C672B5D
:1010340065F7126EE3066E5C68FF2165E301FA034F
:10104400EB00F003E7006CE3066A5C682D65E301DE
:10105400685C682B656BF1025C672F65F7016BF1C7
:10106400025C672F65685C682B6569F1025C672820
:1010740065685C682B6569F102E30968F1025C67E5
:101084002B65E301F7126CE306705C68FF002165D1
:10109400E301FA036CE3066A5C682D65E301685CAE
:1010A400682C656AE30967F1025C672D65E3016BEF
:1010B400F1025C672F65685C6828656CE30678EB71
:1010C400FE6EFF002165E301FA01EB006CE3066AA2
:1010D4005C682D65E301685C682C656BF1025C67F4
:1010E4002C65F7116BF1025C672F65685C683065ED
:1010F40069F1025C671C65685C682F6569F1025CD4
:10110400671C65685C6830656AE30969F1025C67BD
:101114003265E3016AE30969F1025C67FF00346543
:10112400E30169F1025C672D65685C68E3066A2F78
:1011340065E30167F1025C67306567F1025C672F64
:10114400656BF1025C672B656BF1025C672865686F
:101154005C682B65685C68286569F1025C672B65CF
:101164006BF1025C672C65F7016CE306705E68FF47
:101174001166E301760B76157E136EFF11761476F5
:1011840018761576FF00117613761576096D6FFFC4
:1011940015E30069F10257671C6669F10257671588
:1011A4006669F10257671C6669F10257671566693B
:1011B400F10257671C6669F1025767156669F10207
:1011C40057671C6669F1025767136669F10257672E
:1011D4001C6669F1025767136669F10257671C665A
:1011E40069F1025767136669F10257671C6669F172
:1011F400025767136669F10257671C6669F1025763
:1012040067FF2166E301E7106D9FFF0011E70069A6
:10121400F10257671D6669F1025767116667F102AB
:101224005767156667F10257671D6669F1025767CC
:10123400136669F10257671F6669F10257671366FF
:1012440069F10257671F6669F10257671066E70084
:1012540069F10257671C6669F1025767106667F106
:10126400025767136667F10257671C6669F10257F4
:1012740067156669F1025767216669F102576713BA
:101284006669F10257671F6669F1025767FF1166C5
:10129400E70069F10257671D6669F1025767116635
:1012A40067F1025767156667F10257671D6669F1B2
:1012B400025767146669F1025767206669F102579D
:1012C40067146669F1025767206669F1025767106F
:1012D40066E70069F10257671C6669F102576710F7
:1012E4006667F10257E30A672466E30167F1025770
:1012F40067286669F1025767216669F10257671A20
:101304006669F10257671F6669F1025767176669D4
:10131400F1025767FF001166E70069F10257671D84
:101324006669F1025767116667F1025767156667C8
:10133400F10257671D6669F1025767146669F10285
:101344005767206669F1025767146669F1025767A7
:10135400206669F10257671066E70069F102576772
:101364001C6669F1025767106667F10257671366D6
:1013740067F10257671C6669F1025767156669F1E0
:10138400025767216669F1025767136669F10257CC
:10139400671F6669F1025767FF001166E70069F18C
:1013A4000257671D6669F1025767116667F10257B4
:1013B40067156667F10257671D6669F1025767137F
:1013C4006669F10257671F6669F102576713666918
:1013D400F10257671F6669F10257671566E70069EE
:1013E400F1025767216669F1025767156667F102D2
:1013F4005767216667F1025767156669F1025767F7
:10140400156669F1025767216669F10257671C6620
:1014140069F1025767286669F1025767FF00116690
:10142400E70069F10257671D6669F10257671166A3
:1014340067F1025767156667F10257671D6669F120
:10144400025767136669F10257671F6669F102570D
:1014540067136669F10257671F6669F102576715DA
:1014640066E70069F1025767216669F1025767155B
:101474006667F1025767216667F102576715666967
:10148400F1025767156669F1025767216669F1022F
:1014940057672E66E32369F10257672B6669F102E9
:1014A4005767FF001566E30069F10257671C666918
:1014B400F1025767156667F1025767186667F1020C
:1014C40057671C6669F1025767156669F102576729
:1014D4001C6669F1025767156669F10257671C6655
:1014E40069F1025767136669F10257671C6669F16F
:1014F400025767136667F1025767176667F1025769
:10150400671C6669F1025767136669F10257671C25
:101514006669F1025767136669F10257671C6669C9
:10152400F1025767FF00156669F10257671C666987
:10153400F1025767106669F10257671C6669F10288
:101544005767156669F10257671C6669F1025767A8
:10155400156669F10257671C6669F10257671566DB
:1015640069F10257671C6669F1025767106669F1F1
:101574000257671C6669F1025767106669F10257E2
:1015840067106669F10257673366E32369F102570E
:10159400671066E30069F1025767FF000E6669F1A0
:1015A400025767156669F10257670E6669F10257BB
:1015B40067156669F10257670E6669F10257671588
:1015C4006669F10257670E6669F102576715666925
:1015D400F10257670E6669F1025767156669F102F1
:1015E40057670E6669F1025767156669F102576716
:1015F4000E6669F1025767156669F10257670E6650
:1016040069F1025767126669F1025767FF001A66AB
:1016140069F1025767216669F10257671A6667F133
:101624000257671E6667F1025767216669F1025720
:10163400671A6669F1025767216669F10257671AEA
:101644006669F1025767216669F10257671A66698C
:10165400F1025767216669F10257671A6667F1025A
:1016640057671E6667F1025767216669F10257677B
:101674001A6669F1025767216669F10257671A66AB
:1016840069F10257671E6669F1025767FF00116628
:1016940069F1025767186669F1025767116667F1C5
:1016A400025767156667F1025767186669F10257B2
:1016B40067116669F1025767186669F10257671185
:1016C4006669F1025767186669F10257671366691C
:1016D400F10257671A6669F1025767136667F102E8
:1016E4005767176667F10257671A6669F102576709
:1016F400136669F10257671A6669F1025767136640
:1017040069F10257671A6669F1025767FF001566A7
:1017140069F10257671C6669F1025767106667F141
:10172400025767156667F10257671C6669F102572D
:1017340067186669F1025767106669F10257671CFA
:101744006669F1025767156669F10257671566699C
:10175400F10257671C6669F1025767106667F10268
:101764005767186667F1025767216669F102576780
:101774001F6669F10257671F6669F10257E325671F
:101784002E66E300E7106EFF11E70069F102576768
:10179400116669F10257673366E32369F1025767FB
:1017A4001166E30069F1025767136669F10257672E
:1017B400136669F10257673366E32369F1025767D9
:1017C4001366E30069F1025767156669F10257670A
:1017D400156669F10257673366E32369F1025767B7
:1017E4001566E30069F1025767156669F1025767E8
:1017F400156669F10257673366E32369F102576797
:101804001566E30069F1025767FF116669F1025733
:1018140067116669F10257673366E32369F102577A
:10182400671166E30069F1025767146669F10257AC
:1018340067146669F10257673366E32369F1025757
:10184400671466E30069F1025767156669F1025788
:1018540067156669F10257673366E32369F1025736
:10186400671566E30069F1025767156669F1025767
:1018740067156669F10257673366E32369F1025716
:1018840067336669F1025767FF001166E300E700FA
:1018940069F10257671D6669F10257673366E323EE
:1018A40069F10257671D66E30069F1025767136621
:1018B40069F10257671F6669F10257673366E323CC
:1018C40069F10257671F66E30069F10257671566FD
:1018D40069F1025767216669F10257673366E323AA
:1018E40069F10257672166E30069F10257671566DB
:1018F40069F1025767216669F10257673366E3238A
:1019040069F10257672166E30069F1025767FF0036
:101914001166E70069F10257671D6669F1025767AE
:101924003366E32369F10257671D66E30069F10238
:101934005767136669F10257671F6669F1025767B3
:101944003366E32369F10257671F66E30069F10216
:101954005767156669F1025767216669F10257678F
:101964003366E32369F10257672166E30069F102F4
:101974005767156669F10257673366E3236833686E
:10198400336A30682E68FF0011E30069F10257677B
:10199400186669F1025767116669F102576718669C
:1019A40069F1025767116669F1025767186669F1B0
:1019B400025767116669F1025767186669F10257A1
:1019C40067136669F10257671A6669F1025767136C
:1019D4006669F10257671A6669F102576713666907
:1019E400F10257671A6669F1025767136669F102D3
:1019F40057671A6669F1025767FF5CE307EA13A6A3
:101A0400FF0064E322EA00A6FF0066E301EBE86757
:101A1400EBFA68EBFE6764E311EB00685F6864E36C
:101A2400196A64E311685F6862E31068626862E3DC
:101A340014685FE3116864E3196A5FE3116864681A
:101A440062E3106A64E311685F6864E3196A64E33B
:101A540011685F685F6862E3106862E311685F6839
:101A640064E3196A5FE311686468FF0062E3106A63
:101A740064E311685F6864E3196A64E311685F688A
:101A84005F6862E3106862E311685F6864E3196A7F
:101A94005FE31168646862E3106A64E311685F6875
:101AA40064E3196A64E311685F685F6862E310685D
:101AB40062E311685F6864E3196A5FE3116864E3D1
:101AC4001968FF0066E32267EBFA6964E311EB002F
:101AD400685F6864E3196A64E311685F6862E3102D
:101AE40068626862E314685FE3116864E3196A5F1B
:101AF400E31168646862E3106A64E311685F686410
:101B0400E3196A64E311685F685F6862E3106862FE
:101B1400E311685F6864E3196A5FE311686468FF4E
:101B240062E3106A64E311685F6864E3196A64E35A
:101B340011685F685F6862E3106862E311685F6858
:101B440064E3196A5FE31168646862E3106A64E33A
:101B540011685F6864E3196A64E311685F685F6829
:101B640062E3106864E319686468646A5FE3116897
:101B740064E31968FF0062E3106A64E311685F6854
:101B840064E3196A64E311685F685F6862E310687C
:101B940062E311685F6864E3196A5FE3116864686B
:101BA40062E3106A64E311685F6864E3196A64E3DA
:101BB40011685F685F6862E3106864E319686468C9
:101BC400646A646AFF0066E301EBE867EBFA68EBBA
:101BD400FE675FE31DEB006A62E311685FE3106870
:101BE400E31D6A61E3106A5FE31D6A5FE3106862E4
:101BF400E31168E31D6A62E3106A5FE31D6A62E34E
:101C040011685FE31068E31D7262E311685FE3101B
:101C140068E31D6AFF0062E3106A5FE31D6A62E322
:101C240012685FE31068E31D725FE3106862E312F9
:101C340068E31D6A62E3106A5FE31D6A62E3126887
:101C44005FE31068E31D7262E312685FE31068E308
:101C54001D6AFF0066E301EBE867EBFA68EBFE67D9
:101C64005FE31DEB006A62E311685FE31068E31D44
:101C7400685CE3116861E3106A5FE31D6A62E31163
:101C8400685FE31068E31D685CE3116862E3106A4F
:101C94005FE31D6A62E311685FE31068E31D685C3B
:101CA400E3116862E3106AE31D6A62E311685FE3AB
:101CB4001068E31D685CE31168FF62E3106A5FE388
:101CC4001D6A62E311685FE31068E31D685CE31159
:101CD4006862E3106AE31D6A62E311685FE31068F7
:101CE400E31D685CE3116862E3106A5FE31D6A62E6
:101CF400E311685FE31068E31D685CE3116862E365
:101D0400106AE31D6A62E311685FE31068E31D680B
:101D14005CE31168FF0062E3106A5FE31D6A62E33B
:101D240011685FE31068E31D685CE3116862E31007
:101D34006AE31D6A62E311685FE31068E31D685C8F
:101D4400E3116862E3106A5FE31D6A62E311685F8E
:101D5400E31068E31D685CE3116862E3106A5DE305
:101D64001E685B6865E322EBFC6EFF0064E310EB26
:101D7400006A5FE31E685BE3106864E3196A5FE36B
:101D84001E685BE319685BE31E68596864E31068C6
:101D94005BE31E685F685BE3106864E3196A5FE3F2
:101DA4001E685BE3196864E310685BE31E6864E320
:101DB400196A5FE31E685BE3196864E310685BE318
:101DC4001E6864E310685B6864E3196A5FE31E6875
:101DD4005BE31968FF0064E310685BE31E685F68F7
:101DE4005BE3106864E3196A5FE31E685BE31968E8
:101DF4005BE31E68596864E310685BE31E685F6810
:101E04005BE3106864E3196A5FE31E685BE31968C7
:101E140064E310685BE31E6864E3196A5FE31E68A9
:101E24005BE3196864E310685BE31E6864E31068AD
:101E34005B6864E3196A5FE31E6864E31968FF0082
:101E440066E322EBF86A64E310EB00685FE3116871
:101E540064E3196AE310685FE3116864E3106A6479
:101E6400685FE3116864E3196A5FE3116864E3106F
:101E740068646A64685FE3116864E3196AE310687C
:101E84005FE3116864E3106A64685FE3116864E304
:101E9400196A5FE3116864E31068FF00646A64EB25
:101EA40000685F6864E3196AE310685F68646A64E1
:101EB400685F6864E3196A5FE310686468646A646D
:101EC400685F6864E3196AE310685F68646A64E3DE
:101ED40019686468646A5FE3106864E31968FF0062
:101EE40066E300A6FF00F00369F00467F00369F0FD
:101EF400049FFF00F00469F00367F00469F00367CE
:101F0400F00469F00367F00469F00367F00469F012
:101F14000367F00469F00367F00469F00367F004F1
:101F240069F00367F00469F00367F00469F003677C
:101F3400F00469F00367F00469F00367F00469F0E2
:101F44000367F00469F00367F00469F00367F004C1
:101F540069F00367FF00E20FE30FE50FE70FE90FF6
:101F6400EB0FED0FF00FF30FF60FF90FFB0FFD0F53
:101F7400FF0F01100310051007100A100D101010A8
:101F84001210161019101D102110231025102910DD
:101F94002D102F103210361039103C103F10421003
:101FA400451048104B104E1050105210541056103B
:101FB40058105A105C105F106210661068106B1095
:101FC400000001006D100100711001008510010076
:101FD400881001008D10050090107B1105009010F1
:101FE40082110500901089110500901090110100D4
:101FF40092100100961001009A1001009F10010038
:10200400A5100100AB100100B2100300B71062115B
:102014000300C21067110300C91062110100D0103F
:102024001500D7109611C2110300DD1062111300C0
:10203400DD106211C4111300DD106211C011010022
:10204400E7100100F0101500F0109911C4111500EB
:10205400F0109E11C9110100FA10030002116A1157
:10206400130002116A11C011030005116A11050061
:102074000B11A21105000B11A51105001C11A811CB
:1020840009002611BC1105001C11B21109002B1105
:10209400BE1105002B11B5110100331101003A11D5
:1020A4000100411101004C1101004F1101005211B6
:1020B4000100571103006D106F1111005D11C01163
:1020C40015000B119911C4110400B71103006D1010
:1020D400731102007711FF050F0D0C0BFF00FF2594
:1020E4000F0C0A0909080808070707070606060669
:1020F4000605050505050504040404040303030398
:1021040002020201FF00FF030F0BFF00FF080E0D88
:102114000D0C0C0C0BFFFF030F0EFF00FF020BFF57
:10212400FF0604090F0D0BFFFF060F0D020504FF48
:10213400FF080F0D0C0D020504FFFF090F0B0D0F17
:1021440002070405FF00FF090F0D0C0C0E02050425
:10215400FF00FF0B0F0B0A0A0A0C02020504FF0022
:10216400FF070D0907060500FF00FF130F08060609
:102174000505050404040403030302020100FF002F
:10218400FF0B0F080906060504030100FF00FF0BFF
:102194000D0A0908070504030200FF00FF0B0E0BDC
:1021A4000706050402020100FF00FF090F090B07DF
:1021B40008050200FF00FF120F07080503030302CE
:1021C400020202010101010100FFFF0F0F0C0B0AC3
:1021D40009080706050403020100FF00FF120F0BA4
:1021E400070906050505040404030303020100FFAF
:1021F400FF0E0C0A0705040404040303030302FF8F
:10220400FF040A0300FFFF090A03000000030200A1
:10221400FF00FF1F0F0D0C0B0B0A0A0A090909091D
:102224000808080808070707070606060505040343
:102234000100FF00FF110F0E0D0C0B0A0908070621
:10224400050403020100FF00FF070F0F0F0F0F002B
:10225400FF00FF0E0F0F0F0F0F0F0F0F0F0F0F0FBA
:1022640000FFFF0B0F0A0501050A0A050100FF0024
:10227400FF0B0F070402060301000100FF00FF1417
:102284000F07050B020608040205040103010002FE
:10229400010100FFFF020F03FF00FF020F0C03FF09
:1022A400FF030F0C0804020508FFFF030F0C0906C7
:1022B400040205080BFFFF070B0A0B010200FF00D5
:1022C400FFFF0001010101010080FF040200018001
:1022D400FF030000FFFFFFFF8000FF0300000C0C62
:1022E4008000FFFF00F4FB008000FFFF000C0100F2
:1022F4008000FF02FDFE0102030302FFFEFD8000D9
:10230400FF0200010000FF00FF0000018000FF0247
:10231400FFFF0101020101FFFFFE8000FF02FBFD40
:102324000204040402FDFB80FF03000DFC80FF0790
:102334000000000000FF8000FF05000000FF800097
:10234400FF020000FF80FF0200000180FFFF0E0D6E
:102354000C0B0A0B0C0D0E0F10111211100F800034
:10236400FF0315128000FF022680FF0202FF01FF17
:1023740001FF8000FF020F80FF020680FFFF01FFC4
:10238400FFFF00FFFFFF000000000001FF00FFFF50
:1023940000000001FF00B8EDB0933400B0E0B0934A
:1023A40061002224B0E3B0930028B0E8B093012880
:1023B400BFEFB0930228B0930328B0930428B0E091
:1023C400B0930A28B0930B28E2EEF1E0E0930828DA
:1023D400F093092820920C28B0E0EB0FF21DA59190
:1023E400B491AA0FBB1FA0930D28B0930E28B0E0A0
:1023F40020920F282092102820921128209212282F
:10240400BFEF20921528B0931628B0931728209276
:102414001A28B0931B28B0931C28B0931D2820922F
:102424002128B0932228B093232820922728B09300
:102434002828B093292820922C28B0932D28B093D3
:102444002E282092132820921428209218282092B3
:10245400192820921E2820921F282092202820929A
:102464002428209225282092262820922A28209267
:102474002B28209258282092592820925A282092BA
:102484005B28BFEFB0B90FE0109100281F70909146
:1024940000289073906420920628B0930528D09168
:1024A40004284DD7ED2ED0910028DD0FDD1FDD1F50
:1024B400D3705BD7DD2EF0900128F29490682092BF
:1024C4002F282092302820923128209232282092DE
:1024D40033282092342820923528209236282092BE
:1024E4003728209238282092392820923A2820929E
:1024F4003B2820923C2820923D2820923E2820927E
:102504003F2820924028209241282092422820925D
:10251400432820924428209245282092462820923D
:102524004728209248282092492820924A2820921D
:102534004B2820924C2820924D2820924E282092FD
:102544004F282092502820925128209252282092DD
:1025540053282092542820925528209256282092BD
:102564005728B0E7B093010AB1E7B0930A0AB5E17E
:10257400B093280AB5E0B093290ABBE2B0932A0AC3
:10258400BAE0B0932B0AB1E4B0932C0ABFE0B09345
:102594002D0AB7E5B093260AB4E1B093270ABBE04D
:1025A400B093000AB0E0B093810AB1E0B093850A19
:1025B400B0910228B0938C0AB0910328B0938D0A8D
:1025C400B3E0B093800A7894D0FE12C0E21481F094
:1025D400C0918C0AD0918D0AD13008F002C0C9355F
:1025E40038F0D93538F009F003C0C53608F402C014
:1025F40021B8EACFD0910628D1B9E6CFBFB7BF93AF
:10260400F89485D6B0E5B0930B0ABF91BFBF189577
:10261400BFB7BF93F8947BD6F3FC4FD695FD02C0A9
:10262400E210EA94B1E2B0930B0ABF91BFBF1895D0
:10263400BFB7BF93F894CF93DF93A0910F28B091C5
:102644001028109609F0DDC2E0910D28F0910E28B3
:10265400A0911128B0911228EA0FFB1FB491B7354D
:1026640008F45CC1B73608F494C1B33E08F49BC1C6
:1026740009F49EC1B43E09F445C2BF3F09F467C2E0
:102684003196A4918AD2B55EEEE7F3E3BB0FEB0F6C
:10269400F21DC591D491EC2FFD2F0994A0932F28FE
:1026A40020923028D1CF20923528209236282092AB
:1026B4002F28209230286F937F936A2F72EB679FA5
:1026C4007F916F9116940794169407941694079427
:1026D400169407940092312810923228B5CF209294
:1026E40031282092322820922F28209230286F936C
:1026F4007F936A2F72EB679F7F916F911694079473
:102704001694079416940794169407940092352807
:102714001092362899CF6F937F936A2F72EB679F3D
:102724007F916F91169407941694079416940794C6
:102734001694079400923D2810923E28A21101C0DD
:1027440083CFA0918C0AB0918D0AA0933928B093BD
:102754003A2820923F282092402876CFBA2FA07F93
:10276400A295BF70A0934128B09342282092432899
:102774006BCFBA2FA07FA295BF70A0934428B093CB
:10278400452820924628209247285ECFA0934828C7
:102794005BCF5ACF59CF58CFB0910028B07FBA2B16
:1027A400B0930028966050CFA0930C284DCFA093EF
:1027B40049284ACFA295A868FA2EF092012897607A
:1027C40043CFA295AF77A860FA2EF09201289760C4
:1027D4003BCF3ACF39CFA0934B2836CFE09118287E
:1027E400F0911928309609F02FCFE0911F28F0912D
:1027F4002028309609F028CFE0912528F09126284A
:10280400309609F021CFBA2FBF70C0910728BC0FB2
:10281400B73508F0B6E5E4E3F0E0BB0FEB0FF21DCB
:10282400C591D491C0934C28D0934D28A295AF70F4
:10283400AA0FA3956F937F936A2F72EB679F7F9183
:102844006F9116940794169407941694079416940B
:10285400079400924E2810924F28209250282092DC
:102864005128F2CEE0911828F0911928309609F0F9
:10287400EBCEE0911F28F0912028309609F0E4CEA9
:10288400E0912528F0912628309609F0DDCEBA2F64
:10289400BF70C0910728CB1B08F4C0E0E4E3F0E06C
:1028A400CC0FEC0FF21DC591D491C0935228D09354
:1028B4005328A295AF70AA0FA3956F937F936A2FA5
:1028C40072EB679F7F916F91169407941694079407
:1028D400169407941694079400925428109255283D
:1028E4002092562820925728AFCEAECEEAE7F3E3E3
:1028F400EA0FF21DA695A795A795B0910028CB2FB6
:10290400B07CAB1301C0A0CED490CF73CB2BC093BB
:1029140000289ACE99CE98CE97CE96CEB09307281B
:10292400A3E0B2E0B0931528A0931A28B09321280D
:10293400B0932728B0932C2820921E282092242874
:102944002092332820923428209237282092382845
:1029540020923F2820924028A0918C0AB0918D0AA1
:10296400A0933928B0933A282092012897602092A6
:102974004C2820924D2820925028209251282092B1
:102984005228209253282092562820925728FBD070
:102994005BCEB755A0910028A07FAB2BA093002855
:1029A4009660F1D051CEB756B0930F28ECD0FFC04B
:1029B4002092132820921428209218282092192853
:1029C40020921F2820922028209225282092262811
:1029D40020922A2820922B2820921E2820922428F4
:1029E4003196B491EDEAFFE0EB0FF21DEE0FFF1FFD
:1029F400A591B491AA0FBB1FEA2FFB2FB491329675
:102A0400A6E0AA9519F0B69578F0FBCFA3E0B2E062
:102A1400B0931528A0931A28B0932128B09327289F
:102A2400B0932C28BAD010CEC591D591A53039F0E9
:102A3400A43079F0A330D9F0A23059F13CC0C0934E
:102A44001328D093142841D0C0931728D093162864
:102A5400D8CFC0931828D093192820924C282092BC
:102A64004D2820925228209253283AD0CACFC0939E
:102A74001F28D093202820924C2820924D28209261
:102A840052282092532821D0C0932328D09322285F
:102A9400B8CFC0932528D093262820924C28209282
:102AA4004D2820925228209253280FD0C0932928D1
:102AB400D0932828A6CFC0932A28D0932B2805D0BA
:102AC400C0932E28D0932D289CCFEF93FF93EC2F07
:102AD400FD2FEE0FFF1FC591D491FF91EF91089543
:102AE400EF93FF93EC2FFD2FEE0FFF1FC591D591B0
:102AF400C0931C28D0931B28C491C0931D28FF9118
:102B0400EF910895B0911728BF3F19F0B395B09392
:102B14001528B0911C28BF3F19F0B395B0931A281B
:102B2400B0912328BF3F19F0B395B0932128B091F9
:102B34002928BF3F19F0B395B0932728B0912E28C8
:102B4400BF3F19F0B395B0932C281DD07DCDE091F3
:102B54000828F0910928A0910A28B0910B281A9608
:102B6400A0930A28B0930B28EA0FFB1FA591B491F8
:102B7400AA0FBB1FA0930D28B0930E2820921128F2
:102B84002092122861CDE0911128F09112283196FB
:102B9400E0931128F09312280895E0911128F09100
:102BA40012283296E0931128F093122808956F9317
:102BB4007F9360910C28A62FD62FA150B09149285D
:102BC400C0914A28B61718F0B0E020924928C215DF
:102BD40009F0AC2F70910F28679F0A0E121C0B0E80
:102BE400121C00920F281092102820924A28B21525
:102BF40029F0DB1BA0934A28209249287F916F91EA
:102C040006C0A150B209A0930F28B0931028E091F8
:102C14001328F09114283096A1F1EE0FFF1FA09114
:102C24001528EA0FF21DB0911728BA1729F4A091BC
:102C34001628AB1710F003C0A395A0931528B491E0
:102C4400BF3F69F4B0911728BF3F29F4B09116280B
:102C5400B0931528DCCFA250A0931528D8CFE2EB6F
:102C6400F3E3B295EB0FF21DB0910028BF70A09171
:102C74004728A03081F4EB0FF21DB491B0930628DD
:102C840024C0B0910028BF70A0914728A030A1F4BF
:102C9400B09306281AC0BA1B40F039F0B1E0EB0F2C
:102CA400F21DB491B093062810C0B1E0EB0FF21DF1
:102CB400B491B093062809C0BA1B20F019F0B09360
:102CC400062803C0B1E0B0930628E0911828F091DB
:102CD40019283096D9F1EE0FFF1FA0911A28EA0F98
:102CE400F21DB0911C28BA1729F4A0911B28AB1728
:102CF40010F003C0A395A0931A28B491B03809F03A
:102D040041C0A150A0931A28B0911D28B13048F0B9
:102D1400B0911C28BF3FD1F4B0911B28BF3F99F458
:102D240015C0B0911C28BF3F21F4B0911B28BF3FB0
:102D340051F4C0912F28D0913028209669F4A150E5
:102D4400A0931A28C2CFB0931A28BFCFC0912F28BE
:102D5400D0913028209699F0D695C795D795C795E8
:102D6400D795C795D795C795D795D295C0932F2852
:102D7400D0933028CF70A0910728AC0F2CC0A0911D
:102D8400072829C020921E2820922428A0911D28BB
:102D9400A13010F069F00EC0A0910728AB0FB7FD69
:102DA40004C0A735C0F0A6E516C0A7FDA0E013C077
:102DB400AB2F11C0A0910728AB0FB7FD08C0A0939B
:102DC4000728A73540F0A6E5A093072804C0A7FD6F
:102DD400A0E0A0930728E4E3F0E0AA0FEA0FF21DB5
:102DE400A591B491A0938C0AB0938D0AA0933B282B
:102DF400B0933C2800C0E0911F28F0912028309621
:102E040009F423C0EE0FFF1FA0912128EA0FF21D41
:102E1400B0912328BA1729F4A0912228AB1710F0F7
:102E240003C0A395A0932128B491B03889F4A1508C
:102E3400A0932128B0912328BF3F39F4B0912228D0
:102E4400BF3F19F0B0932128D6CFB0911E2805C0FA
:102E5400A0911E28BA0FB0931E28A0914B28BA0F38
:102E64006F937F936B2F72EB67037F916F9116942F
:102E7400079416940794169407941694079413FED3
:102E840002C0B0EF1B2AA0918C0AB0918D0AA00D4C
:102E9400B11DC0913328D0913428AC1BBD0BC09117
:102EA4003728D0913828AC0FBD1FC0915028D0913D
:102EB4005128AC1BBD0BC0915628D0915728AC0F9C
:102EC400BD1FA0938C0AB0938D0AE0912528F09140
:102ED4002628309609F43CC0EE0FFF1FA091272846
:102EE400EA0FF21DB0912928BA1729F4A0912828D5
:102EF400AB1710F003C0A395A0932728B491B03862
:102F040089F4A150A0932728B0912928BF3F39F410
:102F1400B0912828BF3F19F0B0932728D6CFB0919D
:102F2400242805C0A0912428BA0FB09324286F93B5
:102F34007F936B2F72EB67037F916F91A0918C0A43
:102F4400B0918D0AA00DB11DA0938C0AB0938D0A87
:102F5400E0912A28F0912B283096B1F1EE0FFF1F53
:102F6400A0912C28EA0FF21DB0912E28BA1729F44B
:102F7400A0912D28AB1710F027C0A395A0932C285F
:102F8400B491BF3F71F4A150A0932C28B0912E2886
:102F9400BF3FD1F4B0912D28BF3FB1F0B0932C289E
:102FA400D7CFEAE7F3E3EB0FF21DB695B795B795E4
:102FB400A0910028CA2FA07CBA1301C005C0D490E8
:102FC400CF73CB2BC0930028E0913128F0913228A5
:102FD400309651F0A0913328B0913428AE0FBF1F22
:102FE400A0933328B0933428E0913528F091362803
:102FF400309651F0A0913728B0913828AE0FBF1FFA
:10300400A0933728B0933828E0913D28F0913E28CA
:10301400309609F448C0A0913928B0913A28109606
:1030240009F441C0C0913B28D0913C28AC17BD079E
:1030340011F030F01FC02092392820923A2833C072
:10304400CA1BDB0BA0913F28B0914028AE0FBF1FD5
:10305400CA1BDB0B80F3A0933F28B0934028A091B8
:103064008C0AB0918D0AAC1BBD0BA0938C0AB09353
:103074008D0A19C0AC1BBD0BC0913F28D0914028CC
:10308400CE0FDF1FAC1BBD0BB0F2C0933F28D09313
:103094004028C0918C0AD0918D0ACA0FDB1FC093BF
:1030A4008C0AD0938D0AA0914128A21509F45CC022
:1030B400B0914228C0914328CA0FC43608F0C356C1
:1030C400C0934328C03128F0C03228F0C03330F018
:1030D40007C0CF7029C0C06FC09526C0CF7003C091
:1030E400C06FC09500C0B295CB0FE2EEF0E0EC0FDC
:1030F400F21DC4916F937F936C2F72EB679F7F9146
:103104006F91169407941694079416940794169442
:103114000794A0918C0AB0918D0AA00DB11DA093C3
:103124008C0AB0938D0A20C0B295CB0FE2EEF0E08A
:10313400EC0FF21DC4916F937F936C2F72EB679F1A
:103144007F916F911694079416940794169407949C
:1031540016940794A0918C0AB0918D0AA019B10914
:10316400A0938C0AB0938D0AA0914428A215F1F083
:10317400B0914528C0914628CA0FC43610F0C0E06B
:10318400C356C0934628C695C4FF01C002C0CF7081
:1031940003C0C06FC09500C0B295CB0FE2EEF0E063
:1031A400EC0FF21DC491C695C0934728B0914828EE
:1031B400B215E9F0A0910528C0910028DA2FEC2F70
:1031C400E295D07FE07FED1709F0AE2FB7FD04C084
:1031D400AB0F28F4A0EF03C0AB0F08F0A0E0A0935E
:1031E4000528A07FA295C07FCA2BC0930028E09138
:1031F4004C28F0914D28309631F1A0915028B0918F
:103204005128C0918C0AD0918D0ACA1BDB0BCE17B2
:10321400DF0710F009F068F4EC1BFD0BAE0FBF1FC5
:10322400A0935028B093512820924C2820924D28E6
:103234000AC0C0914E28D0914F28AC0FBD1FA09357
:103244005028B0935128E0915228F0915328309699
:1032540031F1A0915628B0915728C0918C0AD09191
:103264008D0ACA0FDB0FCE17DF0710F009F068F4E0
:10327400EC1BFD0BAE0FBF1FA0935628B09357282D
:1032840020925228209253280AC0C0915428D091E9
:103294005528AC0FBD1FA0935628B0935728DF9133
:1032A400CF91B9C9BFB7BF93F894DD0CD21CB1E07C
:1032B400B093860ABF91BFBF1895BF2DB770F9F4BC
:1032C400DF93DF2DD295D77011F4DF9119C0A0914F
:1032D4008C0AB0918D0AB695A795DA95E1F7F7FEB9
:1032E40002C0A095B095D0918C0AAD0FD0918D0AF3
:1032F400BD1FA0938C0AB0938D0ADF9101C0FA948C
:1033040097FF0895F0900128F2949F77089596FD11
:1033140010C0003011F00A950895009100280F7034
:1033240095FF02C01FE00895103009F408951A951E
:1033340008959F7B009100280F701FE00895EEE42C
:10334400F3E3ED0FF21DD4910895057F0A011402F1
:10335400280350041E0507060D0706080C09180A61
:10336400300B600C240D080E100FEAE7F3E3ED0FA9
:10337400F21DD491089501030FFC501355137113DA
:103384008D13B013BB13C813CB13CC13CD13CE13AF
:10339400D613D913DC13E313EB13EC13ED13F0136F
:1033A4003414771478148C148D148E148F14000034
:1033B4000000000000000000000000000000000108
:1033C40001010101010101010101010101010001EA
:1033D40001010101010101010101010101020001D9
:1033E40001010101010101010202020202030001C3
:1033F40001010101010102020202030303040001AD
:103404000101010102020203030304040405000193
:10341400010101020202030304040405050600017C
:103424000101010202030304040505060607000165
:10343400010102020303040405050606070800014E
:103444000101020303040405060607070809000135
:10345400010202030404050606070808090A00011C
:103464000102020304050506070808090A0B000106
:1034740001020304040506070808090A0B0C0001ED
:10348400010203040506060708090A0B0C0D0001D6
:103494000102030405060708090A0B0C0D0E0001BE
:0E34A40002030405060708090A0B0C0D0E0FA3
:00000001FF
