:020000020000FC
:040000000C94330128
:04001C000C94280216
:100024000C940E020C9418020C940E020C94D90435
:10003400C758CC53184FA74A77468242C73E413B24
:10004400ED37CA34D331072F642CE6298C27542585
:100054003B234121631FA01DF71B651AEA1884176F
:100064003216F314C613AA129E11A110B20FD00EA9
:10007400FB0D320D750CC20B190B790AE3095509F6
:10008400CF085008D9076807FE0699063A06E10525
:100094008C053D05F104AA0467042804EC03B403A9
:1000A4007F034D031D03F002C6029E02790255022E
:1000B40034021402F601DA01BF01A6018F017801AE
:1000C40063014F013C012B011A010A01FB00ED0001
:1000D400E000D300C700BC00B200A8009E0080006E
:1000E40097009C00A100A600800097009C00A1003E
:1000F400A600800097009C00A100A6001B66E200F9
:10010400961F9622961BE201961F9622961BE202E8
:100114007EE37E1F7EE37E227EE37E1BE2037EE39C
:100124007E1F7EE37E227EE37EFF66E200E1E1E164
:10013400E1B6FF0066E200E1E1E1E1B6FF0066E25C
:1001440000E1E1E1E1B6FF0066E200E1E1E1E1B6F0
:10015400FF00AF00B100B300B50010000F011000A4
:1001640018011000210110002A01FF0601020304F6
:100174000EFFFFFF000202FEFE008000FF030002EC
:1001840002FEFE00800004FF000202FEFE0080006A
:100194000504000202FEFE008000FFFF02010203CC
:1001A400040E8000FF060201020304FE800004FF27
:1001B40002010203040E8000050302FE020304F49C
:1001C4008000FFFF010C0F141C238000FF06010CAC
:1001D4000F141B23800005FF010C0F141B23800048
:1001E4000603010C0F141B238000FFFF0808F0F026
:1001F4000832CE32CE80FF050808F0F00832CE3245
:10020400CE8006FF0808F0F00832CE32CE80070513
:100214000808F0F00832CE32CE80FFFF010203035B
:100224000201000102030302010203FFFF080102AD
:1002340003030201000102030302010203FF04FF9E
:10024400010203030201000102030302010203FF8E
:100254000604010203030201000102030302010276
:1002640003FFB8EDB0933400B0E0B09361002224F2
:10027400B0E3B0930028B0E8B0930128BFEFB09387
:100284000228B0930328B0930428B0E0B09309285F
:10029400B0930A28E2EEF0E0E0930728F0930828F0
:1002A400B0E0EB0FF21DA591B491AA0FBB1FA09370
:1002B4000B28B0930C28B0E020920D2820920E2831
:1002C40020920F28BFEF20921228B0931328B093E6
:1002D400142820921728B0931828B0931928B093A3
:1002E4001A2820921E28B0931F28B0932028209209
:1002F4002428B0932528B093262820922928B09347
:100304002A28B0932B28209210282092112820927A
:1003140015282092162820921B2820921C2820920F
:100324001D282092212820922228209223282092DE
:1003340027282092282820922C2820922D282092A9
:100344002E2820922F28BFEFB0B90FE0109100287B
:100354001F70909100289073906420920528D0918A
:10036400042872D3ED2ED0910028DD0FDD1FDD1F90
:10037400D37080D3DD2EF0900128F2949068B0E71A
:10038400B093010AB1E7B0930A0AB5E1B093280A21
:10039400B5E0B093290ABBE2B0932A0ABAE0B0935D
:1003A4002B0AB1E4B0932C0ABFE0B0932D0AB7E551
:1003B400B093260AB4E1B093270ABBE0B093000AD5
:1003C400B0E0B093810AB1E0B093850AB0910228FD
:1003D400B0938C0AB0910328B0938D0AB3E0B09324
:1003E400800A7894D0FE12C0E21481F0C0918C0A85
:1003F400D0918D0AD13008F002C0C93538F0D93512
:1004040038F009F003C0C53608F402C021B8EACFB9
:10041400D0910528D1B9E6CFBFB7BF93F894FCD2E9
:10042400B0E5B0930B0ABF91BFBF1895BFB7BF9398
:10043400F894F2D2F3FCC6D295FD02C0E210EA941D
:10044400B1E2B0930B0ABF91BFBF1895BFB7BF937A
:10045400F894CF93DF93B0910D28B21125C1E091A8
:100464000B28F0910C28A0910E28B0910F28EA0FC8
:10047400FB1FB491B73508F40DC0B73608F41EC09D
:10048400B23E08F425C009F428C0B33E09F4B7C04D
:10049400BF3FDAC0B0930628A3E0B2E0B0931228BD
:1004A400A0931728B0931E28B0932428B09329282A
:1004B40020921B2820922128E3D0D1CFB755A091B8
:1004C4000028A07FAB2BA09300289660D9D0C7CF7B
:1004D400B756B0930D28D4D0EAC0209210282092A9
:1004E4001128209215282092162820921C28209248
:1004F4001D28209222282092232820922728209207
:1005040028283196B491EBEAF0E0EB0FF21DEE0FE0
:10051400FF1FA591B491AA0FBB1FEA2FFB2FB49123
:100524003296A6E0AA9519F0B69578F0FBCFA3E031
:10053400B2E0B0931228A0931728B0931E28B0936A
:100544002428B0932928A6D08ACFC591D591A53067
:1005540039F0A43079F0A33099F0A230E9F028C042
:10056400C0931028D09311282DD0C0931428D09371
:100574001328D8CFC0931528D09316282ED0D2CFC5
:10058400C0931C28D0931D2820921B281BD0C093F5
:100594002028D0931F28C6CFC0932228D093232885
:1005A400209221280FD0C0932628D0932528BACF93
:1005B400C0932728D093282805D0C0932B28D09304
:1005C4002A28B0CFEF93FF93EC2FFD2FEE0FFF1FE0
:1005D400C591D491FF91EF910895EF93FF93EC2F80
:1005E400FD2FEE0FFF1FC591D591C0931928D0930D
:1005F4001828C491C0931A28FF91EF910895B091DF
:100604001428BF3F19F0B395B0931228B09119285C
:10061400BF3F19F0B395B0931728B0912028BF3F7E
:1006240019F0B395B0931E28B0912628BF3F19F056
:10063400B395B0932428B0912B28BF3F19F0B395FC
:10064400B09329281DD00BCFE0910728F0910828FA
:10065400A0910928B0910A281A96A0930928B0936A
:100664000A28EA0FFB1FA591B491AA0FBB1FA09300
:100674000B28B0930C2820920E2820920F28EFCE3E
:10068400E0910E28F0910F283196E0930E28F09314
:100694000F280895E0910E28F0910F283296E093E8
:1006A4000E28F0930F280895BA95B0930D28E09181
:1006B4001028F0911128309681F1EE0FFF1FA091C0
:1006C4001228EA0FF21DB0911428BA1729F4A09148
:1006D4001328AB1710F003C0A395A0931228B4916C
:1006E400BF3F69F4B0911428BF3F29F4B091132897
:1006F400B0931228DCCFA250A0931228D8CFE8E8F8
:10070400FAE0B295EB0FF21DB0910028BF70EB0F29
:10071400F21DB491B093052805C0B0910028BF70B4
:10072400B0930528E0911528F09116283096F9F138
:10073400EE0FFF1FA0911728EA0FF21DB0911928A0
:10074400BA1729F4A0911828AB1710F003C0A39589
:10075400A0931728B491B038F9F4A150A0931728A6
:10076400B0911A28B13048F0B0911928BF3FF9F47C
:10077400B0911828BF3F69F41AC0B0911928BF3F3F
:1007840021F4B0911828BF3F21F4A150A093172859
:10079400C9CFB0931728C6CF20921B2820922128B6
:1007A400A0911A28A03031F0A13081F011C0A0919D
:1007B400062820C0A0910628AB0FB7FD04C0A735BA
:1007C400C8F0A6E517C0A7FDA0E014C0AB2F12C067
:1007D400A0910628AB0FB7FD08C0A0930628A73543
:1007E40048F0A6E5A093062805C0A7FDA0E0A093C5
:1007F400062800C0E4E3F0E0AA0FEA0FF21DA59179
:10080400B491A0938C0AB0938D0A00C0E0911C2887
:10081400F0911D28309609F448C0EE0FFF1FA091F7
:100824001E28EA0FF21DB0912028BA1729F4A091CE
:100834001F28AB1710F003C0A395A0931E28B491F2
:10084400B03889F4A150A0931E28B0912028BF3F4E
:1008540039F4B0911F28BF3F19F0B0931E28D6CFAA
:10086400B0911B2805C0A0911B28BA0FB0931B2878
:100874006F937F936B2F72EB67037F916F91169445
:10088400079416940794169407941694079413FEE9
:1008940002C0B0EF1B2AA0918C0AB0918D0AA00D62
:1008A400B11DA0938C0AB0938D0AE0912228F09197
:1008B4002328309609F43CC0EE0FFF1FA091242892
:1008C400EA0FF21DB0912628BA1729F4A091252821
:1008D400AB1710F003C0A395A0932428B491B038AB
:1008E40089F4A150A0932428B0912628BF3F39F45D
:1008F400B0912528BF3F19F0B0932428D6CFB091EA
:10090400212805C0A0912128BA0FB09321286F9304
:100914007F936B2F72EB67037F916F91A0918C0A89
:10092400B0918D0AA00DB11DA0938C0AB0938D0ACD
:10093400E0912728F09128283096B1F1EE0FFF1F9F
:10094400A0912928EA0FF21DB0912B28BA1729F497
:10095400A0912A28AB1710F027C0A395A0932928AB
:10096400B491BF3F71F4A150A0932928B0912B28D2
:10097400BF3FD1F4B0912A28BF3FB1F0B0932928EA
:10098400D7CFFAE0E4E8EB0FF21DB695B795B7952B
:10099400A0910028CA2FA07CBA1301C005C0D4902E
:1009A400CF73CB2BC0930028DF91CF9142CDBFB73B
:1009B400BF93F894DD0CD21CB1E0B093860ABF91CA
:1009C400BFBF1895BF2DB770F9F4DF93DF2DD29513
:1009D400D77009F4DF9119C0A0918C0AB0918D0AE7
:1009E400B695A795DA95E1F7F7FE02C0A095B09504
:1009F400D0918C0AAD0FD0918D0ABD1FA0938C0AA3
:100A0400B0938D0ADF9101C0FA9497FF0895F09096
:100A14000128F2949F77089596FD10C0003011F0DC
:100A24000A950895009100280F7095FF02C01FE0F9
:100A34000895103009F408951A9508959F7B009144
:100A440000280F701FE00895FAE0E8E5ED0FF21DAD
:100A5400D4910895057F0A011402280350041E0549
:100A640007060D0706080C09180A300B600C240D44
:100A7400080E100FFAE0E4E8ED0FF21DD49108958A
:100A840001030FFC00000000000000000000000053
:100A94000000000000010101010101010101010147
:100AA4000101010100010101010101010101010133
:100AB4000101010200010101010101010101020220
:100AC400020202030001010101010101020202020A
:100AD40003030304000101010101020202030303F1
:100AE40004040405000101010102020203030404D9
:100AF40004050506000101010102020303040405C3
:100B040005060607000101010202030304040505AA
:100B14000606070800010101020303040405060692
:100B24000707080900010102020304040506060779
:100B34000808090A00010102020304050506070862
:100B440008090A0B0001010203040405060708084A
:100B5400090A0B0C00010102030405060607080933
:100B64000A0B0C0D00010102030405060708090A1B
:100B74000B0C0D0E000102030405060708090A0BFD
:040B84000C0D0E0F37
:00000001FF
