:020000020000FC
:040000000C946A12E0
:04000C000C94291611
:04001C000C944417E5
:080030000C9479160C94C6161D
:040064000C941317CE
:100090000C941E17C758CC53184FA74A7746824274
:1000A000C73E413BED37CA34D331072F642CE629D4
:1000B0008C2754253B234121631FA01DF71B651A84
:1000C000EA1884173216F314C613AA129E11A1104F
:1000D000B20FD00EFB0D320D750CC20B190B790A45
:1000E000E3095509CF085008D9076807FE069906A5
:1000F0003A06E1058C053D05F104AA0467042804CD
:10010000EC03B4037F034D031D03F002C6029E02FD
:100110007902550234021402F601DA01BF01A60188
:100120008F01780163014F013C012B011A010A0183
:10013000FB00ED00E000D300C700BC00B200A80047
:100140009E00210037006400BD0070012302D6022A
:100150008903730496055608210BAC1037166F2CD3
:10016000D458620956087607070749069605F90428
:10017000B604300489032403D6025B02E0019D012A
:100180003801000000000000000000000000000036
:10019000000000000000000000000000000000005F
:1001A0000000000000000000010101010101010147
:1001B0000101000000010101020202030303030325
:1001C000030300000001010202030303040404040A
:1001D00004040000010202030304040505060606E8
:1001E00006060000010203040506070708080909BE
:1001F000090900010203040506070809090A0B0B97
:100200000B0B0001020405060708090A0B0C0C0D74
:100210000D0D000103040608090A0C0D0E0E0F1047
:10022000101000020406080A0C0D0F111213141509
:100230001515000205080B0E10131517181A1B1CB4
:100240001D1D0004080C1014181B1F222426282A28
:100250002B2B00060C12181E23282D3135383B3D60
:100260003E3F0009121B242D353C434A4F54585B36
:100270005E5F000C1825303C47515A626A70767AEE
:100280007D7F000306090B0E111316181B1D1F227C
:100290002426282A2C2E3032343638393B3D3E4035
:1002A00042000002030507080A0C0D0F1012141576
:1002B00017181A1B1D1E202123242527282A2B2C22
:1002C0002E2F313233343637383A3B3C3D3F4041B4
:1002D000424445464748494B4C4D4E4F505153546C
:1002E00055565758595A5B5C5D5E5F606162636446
:1002F00065666768696A6B6C6D6E6F707172737337
:100300007475767778797A7A7B7C7D7E7F7F808141
:10031000828384848586878888898A8B8B8C8D8E5E
:100320008E8F909191929394949596969798989990
:100330009A9B9B9C9D9D9E9F9FA0A0A1A2A2A3A4CF
:10034000A4A5A6A6A7A7A8A9A9AAAAABACACADAD1F
:10035000AEAFAFB0B0B1B1B2B3B3B4B4B5B5B6B679
:10036000B7B8B8B9B9BABABBBBBCBCBDBD00CA004E
:100370002D00172D1E023006090C710D3B10710265
:100380003006090C740D3B10C20233060C0C770DBD
:100390003E101B035F064A0CDE0D3E106C037A060E
:1003A0000C0C3F0E3E10C703CD06870C9D0E3E1071
:1003B0006C030F070C0CFB0E3E10220461074A0C65
:1003C000DE0D3E106C03AD070C0CFB0E3E107D04E1
:1003D000E407870CFB0E3E10D8042A08C40CFB0E61
:1003E0003E1033058F084A0CDE0D3E10C202CA08CB
:1003F0000C0C590F3E101B0315094A0CCF0F3E1071
:100400008E0584090C0CCF0F3E101B03F0094A0C1B
:10041000CF0F3E108E05610A0C0CCF0F3E101B0350
:10042000CA0A4A0CCF0F3E108E05390B020DCF0FB2
:100430003E10DF05A20B320DCF0F3E10F0021D66FD
:10044000E306E9006C1D61E3086C2166E3066C219C
:1004500061E3086C2665E3066C2661E3086C286599
:10046000E3066C2861E3086C2D64E3066C2D62E3FF
:10047000086C2164E3066C2162E3086C2664E306E1
:100480006C2663E3086C2864E3066C2863E3086C5D
:100490002B63E3066C2B63E3086C2163E3066C219A
:1004A00063E3086C2663E3066C2664E3086C286348
:1004B000E3066C2864E3086C2D62E3066C2D64E3AC
:1004C000086C2162E3066C2164E3086C2661E30694
:1004D0006C2665E3086C2861E3066C2865E3086C0C
:1004E000FF001D61E3066C1D65E3086C2161E306F6
:1004F0006C2165E3086C2661E3066C2665E3086CF5
:100500002861E3066C2865E3086C2D62E3066C2D18
:1005100064E3086C2162E3066C2164E3086C2663E3
:10052000E3066C2664E3086C2863E3066C2864E346
:10053000086C2B63E3066C2B63E3086C2163E30612
:100540006C2163E3086C2664E3066C2663E3086CA5
:100550002864E3066C2863E3086C2D65E3066C2DC4
:1005600062E3086C2165E3066C2162E3086C266592
:10057000E3066C2661E3086C2865E3066C2861E3FA
:10058000086CFF001D66E306E90067305CE3026764
:100590005B675A682D5C675B675A68285B675A69B6
:1005A000236A1C596A1758692666E3066C2662E3BB
:1005B000086C2866E3066C2862E3086C2D66E30687
:1005C0006C2D62E3086C2166E3066C2162E3086C23
:1005D0002666E3066C2662E3086C2866E3066C2850
:1005E00062E3086C2B66E3066C2B62E3086C216601
:1005F000E3066C2162E3086C2666E3066C2662E380
:10060000086C2866E3066C2862E3086C2D66E30636
:100610006C2D62E3086C2166E3066C2162E3086CD2
:100620002666E3066C2662E3086C2866E3066C28FF
:1006300062E3086CFF001C66E3066C1C62E3086C56
:100640002166E3066C2162E3086C2666E3066C26ED
:1006500062E3086C2866E3066C2862E3086C2D668A
:10066000E3066C2D62E3086C2166E3066C2162E30D
:10067000086C2666E3066C2662E3086C2866E306CF
:100680006C2862E3086C2B66E3066C2B62E3086C53
:100690002166E3066C2162E3086C2666E3066C269D
:1006A00062E3086C2866E3066C2862E3086C2D663A
:1006B000E3066C2D62E3086C2166E3066C2162E3BD
:1006C000086C2666E3066C2662E3086C2866E3067F
:1006D0006C2862E3086CFF001D66E3066C1D62E394
:1006E000086C2166E3066C2162E3086C185FE3097D
:1006F00068215F695A672662E3086C2866E3066C26
:100700002862E3086C2D66E3066C2D62E3086C1822
:100710005FE30968215F695A672162E3086C266616
:10072000E3066C2662E3086C2866E3066C2862E345
:10073000086C2B66E3066C2B62E3086C2166E3060B
:100740006C2162E3086C185FE30968215F695A67EE
:100750002662E3086C2866E3066C2862E3086C2DC9
:1007600066E3066C2D62E3086C185FE30968215F9D
:10077000695A672162E3086C2666E3066C2662E329
:10078000086C2866E3066C2862E3086CFF001C66B0
:10079000E3066C1C62E3086C2366E3066C2362E3E9
:1007A000086C175FE309681F5F695A672662E308F0
:1007B0006C2866E3066C2862E3086C2B66E3066C23
:1007C0002B62E3086C175CE309681F5F695A6721B5
:1007D00062E3086C2666E3066C2662E3086C286612
:1007E000E3066C2862E3086C2A66E3066C2A62E37F
:1007F000086C2166E3066C2162E3086C175FE3096D
:10080000681E5F695A672662E3086C2866E3066C17
:100810002862E3086C2B66E3066C2B62E3086C1716
:100820005FE309681F5F695A672162E3086C266607
:10083000E3066C2662E3086C2866E3066C2862E334
:10084000086CFF001C66E3066C1C62E3086C216602
:10085000E3066C2162E3086C1F5FE30968235F69AC
:100860005A672462E3086C2866E3066C2862E30892
:100870006C2D66E3066C2D62E3086C1F5FE309686C
:10088000235F695A672162E3086C2466E3066C24DF
:1008900062E3086C2866E3066C2862E3086C2F6646
:1008A000E3066C2F62E3086C2166E3066C2162E3C9
:1008B000086C1C5FE30968245F695A672462E308D7
:1008C0006C2866E3066C2862E3086C2D66E3066C10
:1008D0002D62E3086C1C5FE30968235F695A672196
:1008E00062E3086C2466E3066C2462E3086C286605
:1008F000E3066C2862E3086CFF001C66E3066C1CD0
:1009000062E3086C2366E3066C2362E3086C175FFE
:10091000E309681F5F695A672662E3086C2866E38B
:10092000066C2862E3086C2B66E3066C2B62E30816
:100930006C175FE309681F5F695A672162E3086CFF
:100940002666E3066C2662E3086C2866E3066C28DC
:1009500062E3086C2A66E3066C2A62E3086C21668F
:10096000E3066C2162E3086C175FE309681F5F69A7
:100970005A672662E3086C2866E3066C2862E3087F
:100980006C2B66E3066C2B62E3086C175FE3096867
:100990001F5F695A672162E3086C2666E3066C26CE
:1009A00062E3086C2866E3066C2862E3086CFF00CB
:1009B0001D66E3066C1D62E3086C2166E3066C218C
:1009C00062E3086C185FE30968215F695A67266271
:1009D000E3086C2866E3066C2862E3086C2D66E386
:1009E000066C2D62E3086C185FE30968215F695AA1
:1009F000672162E3086C2666E3066C2662E3086CF6
:100A00002866E3066C2862E3086C2B66E3066C2B11
:100A100062E3086C2166E3066C2162E3086C175FF1
:100A2000E309681F5F695A672662E3086C2866E37A
:100A3000066C2862E3086C2D66E3066C2D62E30801
:100A40006C175FE309681F5F695A672162E3086CEE
:100A50002666E3066C2662E3086C2866E3066C28CB
:100A600062E3086CFF001C66E3066C1C62E3086C22
:100A70002166E3066C2162E3086C185FE3096821D4
:100A80005F695A672462E3086C2866E3066C286293
:100A9000E3086C2D66E3066C2D62E3086C185FE3D7
:100AA0000968215F695A672162E3086C2466E306DE
:100AB0006C2462E3086C2866E3066C2862E3086C29
:100AC0002F66E3066C2F62E3086C2166E3066C2157
:100AD00062E3086C185FE30968215F695A67246262
:100AE000E3086C2866E3066C2862E3086C2D66E375
:100AF000066C2D62E3086C185FE30968215F695A90
:100B0000672162E3086C2466E3066C2462E3086CE8
:100B10002866E3066C2862E3086CFF001D66E306A6
:100B20006C1D62E3086C2166E3066C2162E3086CCD
:100B30002666E3066C2662E3086C2866E3066C28EA
:100B400062E3086C2D66E3066C2D62E3086C216697
:100B5000E3066C2162E3086C2666E3066C2662E31A
:100B6000086C2866E3066C2862E3086C2B66E306D3
:100B70006C2B62E3086C2166E3066C2162E3086C6F
:100B80002666E3066C2662E3086C2866E3066C289A
:100B900062E3086C2D66E3066C2D62E3086C216647
:100BA000E3066C2162E3086C2666E3066C2662E3CA
:100BB000086C2866E3066C2862E3086CFF001C667C
:100BC000E3066C1C62E3086C2166E3066C2162E3B9
:100BD000086C2466E3066C2462E3086C2866E3066E
:100BE0006C2862E3086C2D66E3066C2D62E3086CEA
:100BF0002166E3066C2162E3086C2466E3066C243C
:100C000062E3086C2866E3066C2862E3086C2F66D2
:100C1000E3066C2F62E3086C2166E3066C2162E355
:100C2000086C2466E3066C2462E3086C2866E3061D
:100C30006C2862E3086C2D66E3066C2D62E3086C99
:100C40002166E3066C2162E3086C2466E3066C24EB
:100C500062E3086C2866E3066C2862E3086CFF0018
:100C600057E300E2AAFF3259E302E900692F5C670B
:100C70005B675A682B5C675B675A68245B675A69D5
:100C8000215A6A186915745972586C57902158E3A3
:100C900001E941EA4076596D5A6AE952EA51695BC5
:100CA0006AE963EA626DE9646CE965EA636DE966C5
:100CB000675C6EE9677BE9666CE9656CFF001F5C49
:100CC000E301E963EA6384E9646EE9656EE96698C5
:100CD0001C5AE963EA636E5B6E5C74E9646EE965F5
:100CE0006EE9666B5B7B5A6C596C105EE307E9003A
:100CF000EA0072FF175EE307E900EA00695F6B5ED6
:100D0000675D675C685BE9416C175EE900695F6B72
:100D10005E675D675C685BE9416C155EE900695F71
:100D20006B5E675D675C68155EE900695F6B5E67B7
:100D30005D675C685BE9416C5A6CE952705968E91F
:100D400063705868E9646C57E900782666E30667C3
:100D50001C5CE309695A68576C155EE307E9006992
:100D60005F69175EE900695F69185EE900695F6B9A
:100D70005E675D675C685BE9416C1A5EE900695F0C
:100D80006B5E675D675C685BE9416C185EE90069F2
:100D90005F69175EE900695F69FF155EE307E900B7
:100DA000EA00695F6B5E675D675C685BE9416C15D3
:100DB0005EE900695F6B5E675D675C685BE9416C7B
:100DC000135EE900695F6B5E675D675C68135EE9EF
:100DD00000695F6B5E675D675C685BE9416C5A6CDC
:100DE000E952705968E963705868E9646C57E90022
:100DF000782666E306671A5CE309695A6857842116
:100E000066E306671C5CE309695A685778105EE37D
:100E100007E900695F6B5E675D675C68FF00175EEE
:100E2000E307E900EA00695F6B5E675D675C685B2A
:100E3000E9416C175EE900695F6B5E675D675C683E
:100E40005BE9416C155EE900695F6B5E675D675C3D
:100E500068155EE900695F6B5E675D675C685BE90A
:100E6000416C5A6CE952705968E963705868E964DA
:100E70006C57E900782666E306671C5CE309695A4B
:100E800068576C155EE307E900695F6B5E675D6735
:100E90005C68175EE900695F6B5E675D675C685B55
:100EA000E9416C185EE900695F6B5E675D675C68CD
:100EB0005BE9416C1A5EE900695F6B5E675D675CC8
:100EC00068FF1A5EE307E900EA00695F6B5E675D31
:100ED000675C685BE9416C1C5EE900695F6B5E679B
:100EE0005D675C685BE9416C1C5EE900695F6B5E95
:100EF000675D675C685BE9416C5A6CE952705968E0
:100F0000E963705868E9646C57E900842466E30675
:100F1000671F5CE309695A68576C1C5EE307E900C8
:100F2000695F6B5E675D675C681F5EE900695F6BA8
:100F30005E675D675C685BE9416C1C5EE900695F48
:100F40006B5E675D675C685BE9416C185EE9006930
:100F50005F6B5E675D675C68FF00185BE302E941F9
:100F6000EA006C5A6CE952705968E963705868E994
:100F7000646C57E900782166E306671C5CE3096945
:100F80005A68579C2666E306671C5CE309695A6841
:100F9000576C185EE307E900695F6B5E675D675C2D
:100FA00068155EE900695F6B5E675D675C685BE9B9
:100FB000416C5A6C1C5EE900695F6B5E675D675C43
:100FC000685BE9416C5A6CFF1A5EE307E900695FF0
:100FD0006B5E675D675C685BE9416C1C5EE900699C
:100FE0005F6B5E675D675C685BE9416C175EE9009B
:100FF000695F6B5E675D675C685BE9416C5A6CE9D1
:1010000052705968155EE900695F6B5E675D675CE9
:1010100068135EE900695F6B5E675D675C685BE94A
:10102000416C5A6CE952705968E963705868E96418
:101030006C57E900782166E306671C5CE309695A8E
:10104000685778135EE307E900695F6B5E675D6769
:101050005C68FF00155EE307E900695F6B5E675D32
:10106000675C680C5EE900695F6B5E675D675C6882
:10107000115EE900695F6B5E675D675C68135EE93E
:1010800000695F6B5E675D675C68155EE900695FBC
:101090006B5E675D675C685BE9416C175EE90069E0
:1010A0005F6B5E675D675C685BE9416C185EE900D9
:1010B000695F6B5E675D675C68175EE900695F6B1F
:1010C0005E675D675C680E5EE900695F6B5E675D29
:1010D000675C68135EE900695F6B5E675D675C680B
:1010E000155EE900695F6B5E675D675C68175EE9C6
:1010F00000695F6B5E675D675C685BE9416C185E09
:10110000E900695F6B5E675D675C685BE9416C176E
:101110005EE900695F6B5E675D675C68FF00175E94
:10112000E307E900695F6B5E675D675C685BE941E7
:101130006C5A6CE952705968E963705868E9646CDC
:1011400057E9006C2166E306671C5CE309695A688D
:101150005778155EE307E900695F6B5E675D675C62
:1011600068155EE900695F6B5E675D675C685BE9F7
:10117000416C5A6CE952705968E963705868E964C7
:101180006C57E9006C2166E306671C5CE309695A49
:10119000685784FF3259E302E900692F5C675B6797
:1011A0005A682B5C675B675A68245B675A69215AE7
:1011B0006A186915745972586C57901F58E30CE9F6
:1011C0006168216826681F68216826681F596821A0
:1011D0006826681F68216826681F5A682168266883
:1011E0001F68216826681F5B68216826681F6821C0
:1011F0006826682159E30B6826682B68215A6826FF
:10120000682B68215B6826682B68216826682B6834
:10121000216826682B68216826682B682168266863
:101220002B6821596826682B68FF2659E30AE96173
:10123000EA00682B682F68265A682B682F68265B9F
:10124000682B682F6826682B682F6826682B682F04
:101250006826682B682F6826682B682F6826682BFD
:10126000682F6826682B682F6826682B682F6826E9
:10127000682B682F6826682B682F68265A682B68A9
:101280002F6826682B682F6826682B682F682659D8
:10129000682B682F682859E30B682D683068285A36
:1012A000682D683068285B682D68306828682D686C
:1012B000306828682D68306828682D68306828688C
:1012C0002D6830682859682D6830682659E30A6807
:1012D0002B675A672F68265B682B682F6826682B58
:1012E000682F6826682B675A672F68245968286713
:1012F0005A672B68245B6828682B68246828682B49
:1013000068246828682B68FF2159E30CE961EA002A
:101310006824682868215A6824682868215B682442
:10132000682868216824682868216824682868215A
:101330006824682868216824682868216824682847
:10134000682168246828682168246828682168243E
:10135000682868216824682868216824682868212A
:101360006824682868216824682868216824682817
:1013700068215A68246828682168246828682168D8
:101380002468286821682468286821596824682806
:1013900068216824682868215868246828682168BA
:1013A000246828681F59E30B6823675A6726681F5B
:1013B0005B68236826681F68236826681F6823689F
:1013C000266823596824675A672B68235B6824685A
:1013D0002B68236824682B68236824682B68FF0027
:1013E0001F59E30AE961EA0068236826681F5A6802
:1013F000236826681F5B68236826681F68236826A1
:10140000681F68236826681F68236826681F68238A
:101410006826681F68236826681C59E30B682168E2
:1014200024681C5A68216824681C5B682168246849
:101430001C68216824681C68216824681C6821686D
:1014400024681C68216824681C68216824681A596B
:10145000E30A681F6823681A5A681F6823681A5BC2
:10146000681F6823681A681F6823681A681F682342
:10147000681A681F6823681A681F6823681A681F3B
:101480006823681859E30B681C675A672168185B62
:10149000681C68216818681C68216818681C682125
:1014A000681759681A675A671F68175B681A681FB8
:1014B000681859E30A681C682168185A681C682172
:1014C00068FF185BE30AE961EA00681C6821681894
:1014D000681C68216818681C68216818681C6821E5
:1014E0006818681C68216818681C68216818681CDE
:1014F00068216818681C68216818681C68216818C9
:10150000681C682168185A681C68216818681C687B
:10151000216818681C68216818681C6821681859B7
:10152000681C68216818681C6821681F59E30C68EA
:10153000216826681F5A68216826681F5B68216831
:1015400026681F68216826681F68216826681F684A
:10155000216826681F68216826681F682168266838
:1015600021596826682B68215A6826682B68215BF8
:101570006826682B68216826682B68216826682BF6
:1015800068216826682B68216826682B68216826F0
:10159000682B68FF2659E30BE961EA00682B682F86
:1015A00068265A682B682F68265B682B682F682688
:1015B000682B682F6826682B682F6826682B682F91
:1015C0006826682B682F6826682B682F6826682B8A
:1015D000682F6826682B682F6826682B682F682676
:1015E000682B682F68265A682B682F6826682B6836
:1015F0002F682659682B682F6826682B682F682863
:1016000059E30A682D683068285A682D68306828C0
:101610005B682D68306828682D68306828682D68F8
:10162000306828682D68306828682D683068286818
:101630002D6830682659E30B682B675A672F682698
:101640005B682B682F6826682B682F6826682B68D4
:101650002F682459E30A6828675A672B68245B6857
:1016600028682B68246828682B68246828682B68F9
:10167000FF002159E30CE961EA0068246828682129
:101680005A6824682868215B6824682868216824CF
:1016900068286821682468286821682468286821E7
:1016A00068246828682168246828682168246828D4
:1016B00068216824682868216824682868216824CB
:1016C00068286821682468286821682468286821B7
:1016D0006824682868216824682868215A68246872
:1016E0002868216824682868216824682868216897
:1016F0002468286821596824682868216824682893
:101700006821586824682868216824682868235953
:10171000E30B6826682B68235A6826682B68235BCE
:101720006826682B68236826682B68236826682B40
:1017300068236826682B68236826682B6823682638
:10174000682B68FF2459E30AE961EA006828682DDC
:1017500068245A6828682D68245B6828682D6824E6
:101760006828682D68246828682D68246828682DF2
:1017700068246828682D68246828682D68246828EB
:10178000682D68246828682D68246828682D6824D6
:101790006828682D68246828682D68246828682DC2
:1017A00068246828682D68246828682D68245A6889
:1017B00028682D68246828682D68246828682D68A2
:1017C000246828682D68246828682D68246828689B
:1017D0002D68246828682D68246828682D68245995
:1017E0006828682D68246828682D68246828682D72
:1017F00068246828682D6824586828682D6824683B
:1018000028682D68246828682D68246828682D6851
:10181000FF0057E300E2AAFF1166E30478F70169CD
:10182000F71269F7FC69576F116675F70169F712CE
:1018300069F7FC68576718666818E300F70168F7EE
:101840001167F72268F78367F7A367F7C6685767DA
:101850001866E304721D721178F70169F71269F7CF
:10186000FC69576F116675F70169F71269F7FC6833
:10187000576718666818E300F70168F71167F722E1
:1018800068F78367F7A367F7C66857671866E304C6
:10189000721D72FF15E30478F70169F71269F7FC0E
:1018A00069576F156675F70169F71269F7FC685794
:1018B0006718666818E300F70168F71167F7226890
:1018C000F78367F7A367F7C66857671C66E3047278
:1018D00021721578F70169F71269F7FC69576F15DE
:1018E0006675F70169F71269F7FC6857671866684B
:1018F00018E300F70168F71167F72268F78367F7C5
:10190000A367F7C66857671366E3047EFF0010E31A
:101910000478F70169F71269F7FC69576F1066756B
:10192000F70169F71269F7FC68576718666818E3EA
:1019300000F70168F71167F72268F78367F7A36775
:10194000F7C66857671766E304721C721078F701D0
:1019500069F71269F7FC69576F106675F70169F747
:101960001269F7FC68576718666818E300F70168A2
:10197000F71167F72268F78367F7A367F7C6685719
:10198000671766E3047EFF0011E30478F70169F747
:101990001269F7FC69576F116675F70169F71269EB
:1019A000F7FC68576718666818E300F70168F711D5
:1019B00067F72268F78367F7A367F7C66857671862
:1019C00066E304721D721378F70169F71269F7FC78
:1019D00069576F136675F70169F71269F7FC685765
:1019E0006718666818E300F70168F71167F722685F
:1019F000F78367F7A367F7C66857671A66E3047249
:101A00001F72FF0011E30478F70169F71269F7FC10
:101A100069576F116675F70169F71269F7FC685726
:101A20006718666818E300F70168F71167F722681E
:101A3000F78367F7A367F7C66857671866E304720A
:101A40001D721178F70169F71269F7FC69576F1178
:101A500066721078F70169F71269F7FC69576F1021
:101A60006672FF0015E30478F70169F71269F7FC65
:101A700069576F156675F70169F71269F7FC6857C2
:101A80006718666818E300F70168F71167F72268BE
:101A9000F78367F7A367F7C66857671C66E30472A6
:101AA00021721578F70169F71269F7FC69576F150C
:101AB0006675F70169F71269F7FC68576718666879
:101AC00018E300F70168F71167F72268F78367F7F3
:101AD000A367F7C66857671C66E304722171EC02BE
:101AE00067FF57E300E2AAFFE300E2AAFF000958FC
:101AF000E303675967085A68076806596805680468
:101B00006803E30068026758690D59E303670F58DB
:101B100067576A075B67055A670459670358670286
:101B200068576C0D59670F58675767576F035BE32A
:101B30000D6C035A6C0D59E303670F586757700714
:101B40005A6705596704586703670268576C035B57
:101B5000E30D6C035A690359690E5CE30E6759671C
:101B6000576757750C59E303670D670E5867576938
:101B7000075A6705596704586703670268576C0D71
:101B800059670F586757675769035BE30D72035B2B
:101B90006C0D59E303670F5867576A0E5CE30E67D5
:101BA0005967576A075BE30367055A670459670378
:101BB000586702685772035AE30D6CFF0D59E3032F
:101BC000670F586757760D59670F5867576A075B55
:101BD00067055A670459670358670268576C0D59BF
:101BE000670F58675767576F035BE30D6C035A6CB9
:101BF0000D59E303670F58675770075A6705596710
:101C000004586703670268576C035BE30D6C035A63
:101C1000690359690E5CE30E675967576757750C7E
:101C200059E303670D670E58675769075A670559E7
:101C30006704586703670268576C0D59670F586748
:101C400057675769035BE30D68035A68035A6E03CD
:101C50005B6C0D59E303670F5867576A0E5CE30E20
:101C6000675967576A075BE30367055A6704596753
:101C700003586702685772035AE30D6CFF000E5C4D
:101C8000E30E67596757760D59E303670F58675797
:101C90006A075B67055A6704596703586702685704
:101CA0006C0D59670F58675767576F035BE30D6CEF
:101CB000035A6C0D59E303670F58675770075A674B
:101CC00005596704586703670268576C035BE30DA7
:101CD0006C035A69035A690E5CE30E6759675767CC
:101CE00057750C59E303670D670E58675769075A14
:101CF0006705596704586703670268576C0D596791
:101D00000F586757675769035BE30D72035B6C0DF0
:101D100059E303670F5867576A0E5CE30E6759670C
:101D2000576A075BE30367055A67045967035867F7
:101D300002685772035AE30D6CFF0D59E303670FF6
:101D4000586757760D59670F5867576A075B6705DD
:101D50005A670459670358670268576C0D59670F33
:101D600058675767576F035BE30D6C035A6C0D5947
:101D7000E303670F58675770075A67055967045898
:101D80006703670268576C035BE30D6C035A6903D2
:101D90005A690E5CE30E675967576757750C59E32C
:101DA00003670D670E58675769075A670559670437
:101DB000586703670268576C0D59670F5867576774
:101DC0005769035BE30D72035B6C0D59E303670F07
:101DD0005867576A0E5CE30E675967576A075BE3FB
:101DE0000367055A67045967035867026857720307
:101DF0005AE30D6CFF000D59E303670F58675776E0
:101E00000D59670F5867576A075B67055A6704598A
:101E1000670358670268576C0D59670F5867576713
:101E2000576F035BE30D6C035A6C0D59E303670FA7
:101E300058675770075A6705596704586703670260
:101E400068576C035BE30D6C035A690359690E5CB8
:101E5000E30E675967576757750C59E303670D67BA
:101E60000E58675769075A6705596704586703672B
:101E70000268576C0D59670F586757675769035BBE
:101E8000E30D72035B6C0D59E303670F5867576AE4
:101E90000E5CE30E675967576A075BE30367055AF1
:101EA0006704596703586702685772035AE30D6C59
:101EB000FF000958E303675967085A68076806591D
:101EC000680568046803E30068026758690D59E310
:101ED00003670F5867576A075B67055A67045967B6
:101EE0000358670268576C0D59670F586757675753
:101EF0006F035BE30D6C035A6C0D59E303670F58D6
:101F0000675770055F670367015E67025D67015C85
:101F100067035B67015A67045967015867056701E2
:101F2000670667035BE30D6C035A6C0E5CE30E6798
:101F30005967576757750C59E303670D670E586764
:101F40005769075A67055967045867036702685756
:101F50006C0D59670F586757675775035BE30D6C36
:101F60000D59E303670F5867576A0E5CE30E675914
:101F700067576A055FE303670367015E67025D6792
:101F8000015C67035B67015A67045967015867057D
:101F90006701670667576C035AE30D6CFF000D5924
:101FA000E303670F586757760D59670F5867576AED
:101FB000075B67055A670459670358670268576CDF
:101FC0000D59670F58675767576F035BE30D6C0335
:101FD0005A6C0D59E303670F58675770055F670325
:101FE00067015E67025D67015C67035B67015A67B3
:101FF000045967015867056701670667035BE30DCE
:102000006C035A6C0E5CE30E675967576757750C83
:1020100059E303670D670E58675769075A670559F3
:102020006704586703670268576C0D59670F586754
:1020300057675775035BE30D6C0D59E303670F5842
:1020400067576A0E5CE30E675967576A055FE303DB
:10205000670367015E67025D67015C67035B670199
:102060005A67045967015867056701670667576C27
:10207000035AE30D6CFFE300E2AAFF00E3007E00D9
:102080000F6696000F72010E6C010F84000F960010
:102090000F72010E6C010F6CFF004F101011180031
:1020A000A9AAAA0A3C17E718DE387AC68933F77B53
:1020B000FF7F000000000080FFFFFFFFFFFF1F0009
:1020C0000000000030A8FFFFFFFF7F0000008042FB
:1020D000A0EFFFFFFF1F409119090000A8DEFFFFDE
:1020E000FFFFBF670200000000F0B5FDFFFFFF7FAC
:1020F000020000000000A9FEFFFFFF7FAB5A0000B6
:102100000000D0FFBF6FAB5DDFEF2900000068ADBE
:10211000AD5AFFFFFF33020000489A26AADDFFFFF9
:10212000BF29225122080090DAEEF7DFBB7B5B5516
:102130000D00004055B56AB5EFFF77671141049176
:10214000929248EDFDBF5725A596951210286ADB9F
:10215000BDBB35ADB6AE25010092D96EAD56BD7B87
:1021600077AB0A2108514A2A55B5FDFEBECD54A5CC
:1021700044080211D5DA76BBDB75756B5504045142
:10218000AA3455D576DF7B5B290911292925A5DAE3
:10219000EE7DDB2AA5CA52252222496DBBDDB6ADF4
:1021A0006DAD2A42809054AB6DADED76DBB62A4919
:1021B00022912452AAACEDDDDDAD559592448824E0
:1021C00055ADADADB5D6DAB6AA242292525555B565
:1021D000B6DD6DAB4922494A55AAAAB4B66EDBAA50
:1021E000A6AA5449129154D5B6DBB6B55A55A524C2
:1021F00049925255B5AAB5B66D6B55A524495252B0
:1022000055D5B66D6B5565AAAA524A4AA9AA56ABCE
:10221000D5D65AABAA2491A454ABB56AB5566BB5C2
:10222000140095AAAAEA69238082A7FF7FFF0F0006
:10223000000060FFFF3F000080FFFFFF0100F0FF94
:102240001F780189FC0F00E0FFFF030000FFFF7F04
:102250000000FF2E7622A302FEFE460E2068FFFF3E
:102260000180AABDED4840D5FF56150234DD9B6BB9
:10227000AE20A4DABB5A0529ED6B919036D95DDB0F
:102280002452549B374D96A4566D8D146ADBAF458E
:1022900090CA74554D6DA5AA8956D356A5AAB4AC5B
:1022A00059335454EBB5AA164549DADA5555A5AA5F
:1022B00054A5AA5A5BAB4A52695555ABD456958A78
:1022C00054ADDBAA524A5555D3AA54565B5595A432
:1022D00055D6AA96AA5455CDAAAAAAAA5455AB95E2
:1022E0002A5555D5AAAA56AA5455AD5AA5AA52554B
:1022F000ADD22AABAA2A5555ADAA4A55AB6AA95206
:102300005555AB96AA4A55B5AAAA5455D56AAA2AD4
:1023100055D5AAAAAAAAAA2AD354D5AAAAAAAA5221
:102320005555ADAAAAAA525555AB55A94A55D5AA95
:10233000AA4A55ADAA2A5555AD5AAA4A55D5AAAAB0
:1023400054D5AAAAAA5455ABAA2A4DADAA2A55AD6E
:10235000AAAAAA3255ADAAAAAAAAAAAA2A55D5AA51
:10236000AAAAC011C311C611C911CB11CE11CF1128
:10237000D311D711DB11DE11E211E611EA11ED11D3
:102380001100F01145121100F21147121100F41161
:1023900049120100F6110300F8111F12000013008A
:1023A000FA1124124B1213000212281250121300B9
:1023B00006122D12551211000E125A12130010128D
:1023C00031125E121300121235126212130014122F
:1023D00039126612030016123D1203001A1241123E
:1023E000FF020FFFFF020FFFFF020FFFFF020FFFB1
:1023F000FF020FFFFF0D03030404030302020200A8
:102400000000FF00FF050E0E0E0FFF00FF0D010183
:1024100004040303020202000000FF00FF020BFF9E
:10242000FF020CFFFF020CFFFF020CFFFF050F086D
:102430000300FF00FF080F0D0A07030000FFFFFF66
:102440000007040201008000FFFF000A0A0000806C
:10245000FFFF0003010100000080FFFF000A0A00E7
:102460000080FFFF000000008000FFFF0000000070
:102470008000FFFF000000008000FFFF00FE000161
:102480008000FFFF000201000080FFFF02FFFFFF4E
:1024900001FFFFFF00FFFFFF010102020202FF0038
:1024A000FFFF01010100000000FFFFFF0101020228
:1024B0000202FF00FFFF01000000FF00FFFF01001C
:1024C0000000FF00FFFF00010101FF00FFFF02010C
:1024D0000101FF00C8EDC0933400C0E0C09361006B
:1024E0002224C1E03C2E422CC0E3C0930028C0E867
:1024F000C0930128CFEFC0930228C0930328C09354
:102500000428C0E3C0930828C0E8C0930928CFEF8F
:10251000C0930A28C0930B28C0930C28CFEFC09318
:102520001028C0931128C0E3C0931328CFE0C093B4
:102530001428C6E0C0931B2820921C28CFEFC0931C
:1025400025282092262820922728EEE6F3E0E09323
:102550001928F0931A28C591D591C0931D28D093BE
:102560001E28C591D591C0931F28D0932028C591CE
:10257000D591C0932128D0932228D093232820924C
:102580002428C591D591CC0FDD1FC0932828D09366
:10259000292820922A2830922B2820922C28209219
:1025A0002D28C591D591CC0FDD1FC0937928D093EC
:1025B0007A2820927B2830927C2820927D282092B5
:1025C0007E28C591D591CC0FDD1FC093CA28D0932A
:1025D000CB282092CC283092CD282092CE28209251
:1025E000CF28C591D591CC0FDD1FC0931629D0936C
:1025F0001729209218293092192920921A292092FD
:102600001B29C591D591CC0FDD1FC0934D29D093C7
:102610004E2920924F293092502920925129209200
:102620005229CFEF20923028C0933128C09332280E
:1026300020923528C0933628C0933728C093382875
:1026400020923D28C0933E28C0933F2820924328E3
:10265000C0934428C093452820924828C093492815
:10266000C0934A2820922E2820922F282092332887
:10267000209234282092392820923A2820923B2810
:1026800020923C28209240282092412820924228E3
:1026900020924628209247280FE0109100281F70B2
:1026A000909100289073906420920628C09305288A
:1026B0008C2EC1E07C2E9090012892949068CFEFF0
:1026C00020924B2820924C2820924D2820924E2870
:1026D00020924F2820925028209251282092522850
:1026E0002092532820925428209255282092562830
:1026F00020925728209258282092592820925A2810
:1027000020925B2820925C2820925D2820925E28EF
:1027100020925F28209260282092612820926228CF
:102720002092632820926428C0936528C09366286D
:1027300020926728209268282092692820926A288F
:1027400020926B2820926C2820926D2820926E286F
:1027500020926F282092702820927128209272284F
:10276000209273282092742820927528209276282F
:10277000C0937728C0937828CFEF20928128C09308
:102780008228C093832820928628C0938728C093EC
:102790008828C093892820928E28C0938F28C093C0
:1027A000902820929428C0939528C0939628209230
:1027B0009928C0939A28C0939B2820927F28209222
:1027C0008028209284282092852820928A2820928E
:1027D0008B2820928C2820928D282092912820925C
:1027E00092282092932820929728209298282FE0D0
:1027F000309108283F70D0910828D073D062D295CC
:102800009D2B20920E28C0930D28BC2EC1E0AC2E2B
:10281000C0900928C2949860CFEF20929C28209203
:102820009D2820929E2820929F282092A0282092C6
:10283000A1282092A2282092A3282092A4282092A6
:10284000A5282092A6282092A7282092A828209286
:10285000A9282092AA282092AB282092AC28209266
:10286000AD282092AE282092AF282092B028209246
:10287000B1282092B2282092B3282092B428209226
:10288000B528C093B628C093B7282092B8282092C4
:10289000B9282092BA282092BB282092BC282092E6
:1028A000BD282092BE282092BF282092C0282092C6
:1028B000C1282092C2282092C3282092C4282092A6
:1028C000C5282092C6282092C728C093C828C09344
:1028D000C928CFEF2092D228C093D328C093D42800
:1028E0002092D728C093D828C093D928C093DA283B
:1028F0002092DF28C093E028C093E1282092E528A9
:10290000C093E628C093E7282092EA28C093EB28DA
:10291000C093EC282092D0282092D1282092D5284C
:102920002092D6282092DB282092DC282092DD28D5
:102930002092DE282092E2282092E3282092E428A8
:102940002092E8282092E928C0E04C2FCFEF209277
:10295000ED282092EE282092EF282092F028209255
:10296000F1282092F2282092F3282092F428209235
:10297000F5282092F6282092F7282092F828209215
:10298000F9282092FA282092FB282092FC282092F5
:10299000FD282092FE282092FF28209200292092D4
:1029A0000129C0930229C09303292092042920926F
:1029B0000529209206292092072920920829209291
:1029C000092920920A2920920B2920920C29209271
:1029D0000D2920920E2920920F2920921029209251
:1029E00011292092122920921329C0931429C093EF
:1029F0001529CFEF20921E29C0931F29C0932029AB
:102A000020922329C0932429C0932529C0932629E5
:102A100020922B29C0932C29C0932D292092312953
:102A2000C0933229C093332920923629C093372985
:102A3000C093382920921C2920921D2920922129F7
:102A40002092222920922729209228292092292980
:102A500020922A2920922E2920922F292092302953
:102A6000209234292092352920921628C0931528C7
:102A7000C1E05C2F622DCFEF2092392920923A29B4
:102A800020923B2920923C2920923D2920923E29E8
:102A900020923F29209240292092412920924229C8
:102AA00020924329209244292092452920924629A8
:102AB00020924729C0934829C093492920924A2946
:102AC000C0934B29C0934C29522C20925329209219
:102AD00054292092552920925629D22CE22CF22CEE
:102AE000722D822DC0934829C0934929C0934B2948
:102AF000C0934C29CFEFC0B9C0E0C093810AC1E0B8
:102B0000C093850AC0910228C0938C0AC091032803
:102B1000C0938D0AC3E0C093800AB0E0B093910ADD
:102B2000B1E0B093950AB0910A28B0939C0AB09195
:102B30000B28B0939D0AB3E0B093900AB0E0B09335
:102B4000A10AB1E0B0911028B093AC0AB09111285D
:102B5000B093AD0AB1E0B093A00A7894B0E0B0931E
:102B6000B10AB1E0B093B50AB0910A28B093BC0A9B
:102B7000B0910B28B093BD0AB3E0B093B00AC0E0A7
:102B8000C093010AC1E0C0930A0AC2E0C093000AE0
:102B9000B0E0B0934701B0911F28C0912028B093B6
:102BA0004A01C0934B01B1E0B0934201B9E0B09348
:102BB0004001C0910628D0910E2870FE15C08214E5
:102BC00099F0E0918C0AF9E5EF17E0918D0AF0E0B9
:102BD000EF0750F0E0918C0AFAE5EF17E0918D0ACB
:102BE000F9E5EF0708F401C0CC27A0FE15C0B21428
:102BF00099F0E0919C0AF9E5EF17E0919D0AF0E069
:102C0000EF0750F0E0919C0AFAE5EF17E0919D0A7A
:102C1000F9E5EF0708F401C0DD27CD0FE2E8F2E0A7
:102C2000EC0FF21DC491D42FD4FDD095DF70ED2FA1
:102C3000DE0FDE0FD50D50FF04C0E0911628EE0F19
:102C4000DE0FE2EAF2E0ED0FF21DD491CD0FC1B933
:102C5000B0CFBFB7BF93F894B0912228A09123289A
:102C6000AB1771F0A215C1F0AA95A0932328A42D4B
:102C7000430CA03011F1A13041F1A230F1F04DC16F
:102C8000AA95A0932328A0911F28B0912028A09353
:102C90004A01B0934B01EBCFCF93B0932328A0917F
:102CA0001F28B0912028C0912128AC0FB21DA093FD
:102CB0004A01B0934B01CF91DACF50D09CD0B3E012
:102CC000B0934301BF91BFBF189548D094D093FCF7
:102CD0001BD0C3FC66D095FD02C082108A9491FD82
:102CE00002C0B210BA94B1E0B0934301BF91BFBF2C
:102CF0001895BFB7BF93F894770C721CB1E0B093EE
:102D0000860ABF91BFBF1895B92DB770F9F4DF934C
:102D1000D92DD295D77011F4DF9119C0A0918C0AEA
:102D2000B0918D0AB695A795DA95E1F797FE02C0A6
:102D3000A095B095D0918C0AAD0FD0918D0ABD1F92
:102D4000A0938C0AB0938D0ADF9101C09A9497FFEB
:102D500008959090012892949F77089596FD10C051
:102D6000003011F00A950895009100280F7095FF2A
:102D700002C01FE00895103009F408951A950895CF
:102D80009F7B009100280F701FE00895BFB7BF938D
:102D9000F894AA0CA21CB1E0B093960ABF91BFBFF1
:102DA0001895BC2DB770F9F4DF93DC2DD295D77050
:102DB00011F4DF9119C0A0919C0AB0919D0AB695BB
:102DC000A795DA95E1F7C7FE02C0A095B095D0911E
:102DD0009C0AAD0FD0919D0ABD1FA0939C0AB09391
:102DE0009D0ADF9101C0CA9493FF0895C0900928FD
:102DF000C294977F089592FD10C0203011F02A955B
:102E00000895209108282F7091FF02C03FE0089597
:102E1000303009F408953A9508959B7F2091082851
:102E20002F703FE00895BFB7BF93F8944F5F4F7185
:102E3000B1E0B093A60ABF91BFBF1895BFB7BF93CB
:102E4000F894A52F67FD0BC0A695A527A0FD03C08C
:102E50006695579513C06695579560640FC0AA0F85
:102E6000AA1FAA1FA527A0FD05C06F7766955795D5
:102E7000606804C066955795606800C0B1E0B09383
:102E8000B60ABF91BFBF1895BFB7BF93F894E09142
:102E90005329F0915429E21409F004C072158205F7
:102EA00029F104C0E318D0FC13C019C0A091552922
:102EB000B0915629A30DB21D73198209A09355290B
:102EC000B0935629EA0FFB1FD490A8E0EA2EEACF70
:102ED000D694AEE75A1678F4530C530C0CC0D69423
:102EE000A2E05A1640F05318531805C0A2E0A09370
:102EF000000A552400C0B1E0B0930B0ABF91BFBFD8
:102F00001895ECEDF2E6ED0FF21DD4910895ECEF7B
:102F1000F2E6ED0FF21DD4910895422CCF93DF938A
:102F2000EF93FF93A0912528AF3FA9F4A091262805
:102F3000A211A3C0A0912728A211AEC0A0911B2866
:102F4000B0911C28C0911D28D0911E28AC17BD0738
:102F500008F431C1A0E0E0911928F0911A28CC279B
:102F6000DD27A395AA9511F02A96FCCF2696C0934B
:102F70001B28D0931C28EC0FFD1FA591B591AA0F1B
:102F8000BB1FA0932828B0932928A591B591AA0F1B
:102F9000BB1FA0937928B0937A28A591B591AA0F69
:102FA000BB1FA093CA28B093CB28A591B591AA0FB7
:102FB000BB1FA0931629B0931729A591B591AA0F0D
:102FC000BB1FA0934D29B0934E2920922C2820920C
:102FD0002D2820922A2830922B2820927D2820927A
:102FE0007E2820927B2830927C282092CE28209226
:102FF000CF282092CC283092CD2820921A292092D6
:103000001B292092182930921929209251292092A7
:10301000512920924F2930925029AFEFA093652873
:10302000A0936628A0937728A0937828A093B62829
:10303000A093B728A093C828A093C928A0930229D9
:10304000A0930329A0931429A0931529A09348299C
:10305000A0934929A0934B29A0934C29A0935729C9
:10306000A0935829A0935929A0935A29A0932528C1
:1030700020922628209227289EC0FF91EF91DF9171
:10308000CF91BF91BFBFF894AFEFA09325282092B6
:103090002628209227281895E0911928F0911A28BF
:1030A000A0911B28B0911C281A96A0931B28B093BE
:1030B0001C28EA0FFB1FA591B591AA0FBB1FA09377
:1030C0002828B0932928A591B591AA0FBB1FA093DA
:1030D0007928B0937A28A591B591AA0FBB1FA09328
:1030E000CA28B093CB28A591B591AA0FBB1FA09376
:1030F0001629B0931729A591B591AA0FBB1FA093CC
:103100004D29B0934E2920922C2820922D282092D0
:103110002A2830922B2820927D2820927E282092E7
:103120007B2830927C282092CE282092CF28209293
:10313000CC283092CD2820921A2920921B29209247
:103140001829309219292092512920925129209230
:103150004F2930925029AFEFA0936528A09366289D
:10316000A0937728A0937828A093B628A093B72897
:10317000A093C828A093C928A0930229A09303294B
:10318000A0931429A0931529A0934829A093492915
:10319000A0934B29A0934C29A0935729A093582979
:1031A000A0935929A0935A29A09325282092262834
:1031B0002092272800C0A0912A28B0912B28BA95E8
:1031C000B0932B28109609F0E4C2E0912828F091E2
:1031D0002928A0912C28B0912D28EA0FFB1FB4912B
:1031E000B73508F47CC1B73608F4BAC1B33E08F469
:1031F000C1C109F4C4C1B43E09F46DC2BF3F09F4B2
:103200008FC23196A491BBD2B55EE0E0F3E6BB0F6E
:10321000EB0FF21DC591D491EC2FFD2F0994A093D3
:103220004B2820924C28D1CF20925128209252280E
:1032300020924B2820924C286F937F936A2F72EB39
:10324000679F7F916F911694079416940794169434
:1032500007941694079400924D2810924E28B5CFEB
:1032600020924D2820924E2820924B2820924C28C4
:103270006F937F936A2F72EB679F7F916F91169484
:103280000794169407941694079416940794009242
:1032900051281092522899CF6F937F936A2F72EB27
:1032A000679F7F916F9116940794169407941694D4
:1032B0000794169407940092592810925A28A21144
:1032C00001C083CFA0918C0AB0918D0AA09355289C
:1032D000B093562820925B2820925C2876CFBA2F94
:1032E000A07FA295BF70A0935D28B0935E28209226
:1032F0005F286BCFBA2FA07FA295BF70A0936028E4
:10330000B093612820926228209263285ECFA09318
:1033100064285BCFA093252858CFB093262855CF9B
:10332000B093272852CFB0910028B07FBA2BB0932A
:10333000002896604ACFA093242847CFA21551F0C9
:10334000B0912428AB1730F4A0936528B1E0B09376
:103350002A282EC23ACF39CF38CF37CF36CF6F9306
:103360007F936A2F72EB67037F916F911694079496
:1033700016940794169407941694079413FE02C0AB
:10338000B0EF1B2A00926728109268281ECFE091A8
:103390003328F0913428309609F017CFE0913B287C
:1033A000F0913C28309609F010CFE0914128F0913F
:1033B0004228309609F009CFBA2FBF70C091692812
:1033C000BC0FB73508F0B6E5B0936928E4E9F0E042
:1033D000BB0FEB0FF21DC591D491C0936A28D09317
:1033E0006B28A295AF70AA0FA3956F937F936A2F56
:1033F00072EB679F7F916F911694079416940794D0
:10340000169407941694079400926C2810926D28D5
:10341000DCCEE0913328F0913428309609F0D5CEF7
:10342000E0913B28F0913C28309609F0CECEE09117
:103430004128F0914228309609F0C7CEBA2FBF70CC
:10344000C0917028CB1B08F4C0E0C0937028E4E959
:10345000F0E0CC0FEC0FF21DC591D491C093712810
:10346000D0937228A295AF70AA0FA3956F937F9304
:103470006A2F72EB679F7F916F9116940794169451
:103480000794169407941694079400927328109248
:1034900074289BCEA21551F0B0912428AB1730F4BC
:1034A000A0937728B1E0B0932A2882C18ECEECEFAA
:1034B000F2E6EA0FF21DA695A795A795B091002810
:1034C000CB2FB07CAB1301C080CE7490CF73CB2BCD
:1034D000C09300287ACE79CE78CE77CE76CEB093D0
:1034E0000728B0936928B0937028A3E0B2E0B093A6
:1034F0003028A0933528B0933D28B0934328B0934B
:1035000048282092392820923A2820924028209258
:103510004F282092502820925328209254282092FD
:103520005B2820925C28A0918C0AB0918D0AA09310
:103530005528B093562820920128976020926A2837
:1035400020926B2820926E2820926F28209271285A
:1035500020927228209275282092762806D135CEA6
:10356000B755A0910028A07FAB2BA09300289660B0
:10357000FCD02BCEB656B0932A28F7D00AC12092A1
:103580002E2820922F28209233282092342820920F
:103590003B2820923C2820924128209242282092C9
:1035A0004628209247282092392820923A282092B3
:1035B00040283196B491E1EBF1E1EB0FF21DEE0FF3
:1035C000FF1FA591B491AA0FBB1FEA2FFB2FB49147
:1035D0003296A6E0AA9519F0B69578F0FBCFA3E055
:1035E000B2E0B0933028A0933528B0933D28B09333
:1035F0004328B0934828C3D0E8CDC591D591A530D4
:1036000039F0A43079F0A330D9F0A23059F13CC0A0
:10361000C0932E28D0932F2841D0C0933228D09326
:103620003128D8CFC0933328D093342820926A28E9
:1036300020926B2820927128209272283AD0CACF0B
:10364000C0933B28D0933C2820926A2820926B2874
:10365000209271282092722821D0C0933F28D093C5
:103660003E28B8CFC0934128D093422820926A28A0
:1036700020926B2820927128209272280FD0C0933C
:103680004528D0934428A6CFC0934628D0934728F6
:1036900005D0C0934A28D09349289CCFEF93FF933D
:1036A000EC2FFD2FEE0FFF1FC591D491FF91EF91ED
:1036B0000895EF93FF93EC2FFD2FEE0FFF1FC591A1
:1036C000D591C0933728D0933628C491C093382819
:1036D000FF91EF910895B0913228BF3F19F0B39553
:1036E000B0933028B0913728BF3F19F0B395B0930D
:1036F0003528B0913F28BF3F19F0B395B0933D28CE
:10370000B0914528BF3F19F0B395B0934328B091CD
:103710004A28BF3F19F0B395B093482826D055CD1D
:10372000E0911928F0911A28A0911B28B0911C282B
:103730001A96A0931B28B0931C28C0911D28D091E5
:103740001E28AC17BD0710F00C946831EA0FFB1F60
:10375000A591B491AA0FBB1FA0932828B093292844
:1037600020922C2820922D2830CDE0912C28F09109
:103770002D283196E0932C28F0932D280895E09180
:103780002C28F0912D283296E0932C28F0932D28A8
:103790000895BFEFA0917828A21519F4B093782866
:1037A0000895A0916628A21519F4B093662808958B
:1037B000A0917B28B0917C28BA95B0937C28109674
:1037C00009F0D7C2E0917928F0917A28A0917D285C
:1037D000B0917E28EA0FFB1FB491B73508F47CC185
:1037E000B73608F4BAC1B33E08F4C1C109F4C4C184
:1037F000B43E09F46DC2BF3F09F48FC23196A49163
:10380000AED2B55EE4E3F3E6BB0FEB0FF21DC5915C
:10381000D491EC2FFD2F0994A0939C2820929D28F1
:10382000D1CF2092A2282092A32820929C282092D7
:103830009D286F937F936A2F72EB679F7F916F91A3
:103840001694079416940794169407941694079464
:1038500000929E2810929F28B5CF20929E282092F9
:103860009F2820929C2820929D286F937F936A2FF7
:1038700072EB679F7F916F9116940794169407944B
:1038800016940794169407940092A2281092A328E5
:1038900099CF6F937F936A2F72EB679F7F916F91A0
:1038A0001694079416940794169407941694079404
:1038B0000092AA281092AB28A21101C083CFA09138
:1038C0009C0AB0919D0AA093A628B093A7282092A5
:1038D000AC282092AD2876CFBA2FA07FA295BF70DA
:1038E000A093AE28B093AF282092B0286BCFBA2F08
:1038F000A07FA295BF70A093B128B093B228209268
:10390000B3282092B4285ECFA093B5285BCFA093B4
:10391000252858CFB093262855CFB093272852CFCB
:10392000B0910828B07FBA2BB093082892604ACF94
:10393000A093242847CFA21551F0B0912428AB17AB
:1039400030F4A093B628B1E0B0937B2821C23ACFDF
:1039500039CF38CF37CF36CF6F937F936A2F72EB43
:1039600067037F916F9116940794169407941694A9
:1039700007941694079413FE02C0B0EF1B2A00921E
:10398000B8281092B9281ECFE0918428F09185289C
:10399000309609F017CFE0918C28F0918D28309661
:1039A00009F010CFE0919228F0919328309609F019
:1039B00009CFBA2FBF70C091BA28BC0FB73508F035
:1039C000B6E5B093BA28E4E9F0E0BB0FEB0FF21DC7
:1039D000C591D491C093BB28D093BC28A295AF7059
:1039E000AA0FA3956F937F936A2F72EB679F7F91C6
:1039F0006F9116940794169407941694079416944E
:103A000007940092BD281092BE28DCCEE091842855
:103A1000F0918528309609F0D5CEE0918C28F09170
:103A20008D28309609F0CECEE0919228F09193281F
:103A3000309609F0C7CEBA2FBF70C091C128CB1BFA
:103A400008F4C0E0C093C128E4E9F0E0CC0FEC0F2B
:103A5000F21DC591D491C093C228D093C328A295DA
:103A6000AF70AA0FA3956F937F936A2F72EB679F36
:103A70007F916F9116940794169407941694079467
:103A8000169407940092C4281092C5289BCEA215C4
:103A900051F0B0912428AB1730F4A093C828B1E0BE
:103AA000B0937B2875C18ECEECEFF2E6EA0FF21DE3
:103AB000A695A795A795B0910828CB2FB07CAB13FE
:103AC00001C080CEA490CF73CB2BC09308287ACEB0
:103AD00079CE78CE77CE76CEB0930F28B093BA2831
:103AE000B093C128A3E0B2E0B0938128A0938628C8
:103AF000B0938E28B0939428B093992820928A2866
:103B000020928B28209291282092A0282092A128F0
:103B10002092A4282092A5282092AC282092AD289B
:103B2000A0919C0AB0919D0AA093A628B093A728C3
:103B30002092092893602092BB282092BC282092D2
:103B4000BF282092C0282092C2282092C328209209
:103B5000C6282092C728F9D035CEB755A09108289D
:103B6000A07FAB2BA09308289260EFD02BCEB65647
:103B7000B0937B28EAD0FDC020927F282092802835
:103B8000209284282092852820928C2820928D28AB
:103B90002092922820929328209297282092982869
:103BA00020928A2820928B28209291283196B491D5
:103BB000E1EBF1E1EB0FF21DEE0FFF1FA591B491C8
:103BC000AA0FBB1FEA2FFB2FB4913296A6E0AA954D
:103BD00019F0B69578F0FBCFA3E0B2E0B09381285E
:103BE000A0938628B0938E28B0939428B0939928F8
:103BF000B6D0E8CDC591D591A53039F0A43079F093
:103C0000A330D9F0A23059F13CC0C0937F28D093A3
:103C1000802841D0C0938328D0938228D8CFC093E6
:103C20008428D09385282092BB282092BC282092FB
:103C3000C2282092C3283AD0CACFC0938C28D093F0
:103C40008D282092BB282092BC282092C228209246
:103C5000C32821D0C0939028D0938F28B8CFC09389
:103C60009228D09393282092BB282092BC2820929F
:103C7000C2282092C3280FD0C0939628D0939528AD
:103C8000A6CFC0939728D093982805D0C0939B289F
:103C9000D0939A289CCFEF93FF93EC2FFD2FEE0F3C
:103CA000FF1FC591D491FF91EF910895EF93FF937A
:103CB000EC2FFD2FEE0FFF1FC591D591C0938828E3
:103CC000D0938728C491C0938928FF91EF910895DC
:103CD000B0918328BF3F19F0B395B0938128B0917C
:103CE0008828BF3F19F0B395B0938628B0919028EB
:103CF000BF3F19F0B395B0938E28B0919628BF3F7F
:103D000019F0B395B0939428B0919B28BF3F19F058
:103D1000B395B093992819D055CDE0911928F09119
:103D20001A28A0911B28B0911C281296EA0FFB1F9D
:103D3000A591B491AA0FBB1FA0937928B0937A28BC
:103D400020927D2820927E283DCDE0917D28F09123
:103D50007E283196E0937D28F0937E280895E091A7
:103D60007D28F0917E283296E0937D28F0937E287E
:103D70000895BFEFA091C928A21519F4B093C928DE
:103D80000895A091B728A21519F4B093B728089503
:103D9000A091CC28B091CD28BA95B093CD2810969B
:103DA00009F0BFC2E091CA28F091CB28A091CE289B
:103DB000B091CF28EA0FFB1FB491B73508F460C16A
:103DC000B73608F49EC1B33E08F4A9C109F4ACC1EA
:103DD000B43E09F455C2BF3F09F477C23196A491AD
:103DE00096D2B55EE8E6F3E6BB0FEB0FF21DC59188
:103DF000D491EC2FFD2F0994A093ED282092EE286A
:103E0000D1CF2092F3282092F4282092ED282092FE
:103E1000EE286F937F936A2F72EB679F7F916F916C
:103E2000169407941694079416940794169407947E
:103E30000092EF281092F028B5CF2092EF28209220
:103E4000F0282092ED282092EE286F937F936A2F1E
:103E500072EB679F7F916F91169407941694079465
:103E600016940794169407940092F3281092F4285D
:103E700099CF6F937F936A2F72EB679F7F916F91BA
:103E8000169407941694079416940794169407941E
:103E90000092FB281092FC28A21101C083CFA091B0
:103EA000AC0AB091AD0AA093F728B093F8282092FD
:103EB000FD282092FE2876CFBA2FA07FA295BF7052
:103EC000A093FF28B0930029209201296BCF6ACFDD
:103ED00069CFA093252866CFB093262863CFB093EF
:103EE000272860CFA21521F0B1E0B093A50A5ACFE0
:103EF0002092A50A2092AC0A2092AD0A53CFA0933B
:103F0000242850CFA21551F0B0912428AB1730F4DB
:103F1000A0930229B1E0B093CC2812C243CF42CF84
:103F200041CF40CF3FCF6F937F936A2F72EB6703F0
:103F30007F916F91169407941694079416940794A2
:103F40001694079413FE02C0B0EF1B2A00920429B6
:103F50001092052927CFE091D528F091D6283096E8
:103F600009F020CFE091DD28F091DE28309609F0AD
:103F700019CFE091E328F091E428309609F012CFB0
:103F8000BA2FBF70C0910629BC0FB73508F0B6E54F
:103F9000B0930629E4E9F0E0BB0FEB0FF21DC591E9
:103FA000D491C0930729D0930829A295AF70AA0F86
:103FB000A3956F937F936A2F72EB679F7F916F91A9
:103FC00016940794169407941694079416940794DD
:103FD0000092092910920A29E5CEE091D528F091A6
:103FE000D628309609F0DECEE091DD28F091DE286B
:103FF000309609F0D7CEE091E328F091E42830968E
:1040000009F0D0CEBA2FBF70C0910D29CB1B08F498
:10401000C0E0C0930D29E4E9F0E0CC0FEC0FF21DF5
:10402000C591D491C0930E29D0930F29A295AF705A
:10403000AA0FA3956F937F936A2F72EB679F7F916F
:104040006F911694079416940794169407941694F7
:1040500007940092102910921129A4CEA21551F0B4
:10406000B0912428AB1730F4A0931429B1E0B09399
:10407000CC2866C197CE96CE95CE94CE93CE92CED6
:10408000B0931228B0930629B0930D29A3E0B2E0B3
:10409000B093D228A093D728B093DF28B093E52817
:1040A000B093EA282092DB282092DC282092E22894
:1040B0002092F1282092F2282092F5282092F628CA
:1040C0002092FD282092FE28A091AC0AB091AD0A62
:1040D000A093F728B093F828209207292092082966
:1040E00020920B2920920C2920920E2920920F2930
:1040F0002092122920921329B1E0B093A50AFDD095
:1041000051CEFBD0B75521F0B1E0B093A50A4ACE0D
:104110002092A50A2092AC0A2092AD0A43CEB65650
:10412000B093CC28EAD0FDC02092D0282092D1288C
:104130002092D5282092D6282092DD282092DE28B1
:104140002092E3282092E4282092E8282092E9286F
:104150002092DB282092DC282092E2283196B4912C
:10416000E1EBF1E1EB0FF21DEE0FFF1FA591B49112
:10417000AA0FBB1FEA2FFB2FB4913296A6E0AA9597
:1041800019F0B69578F0FBCFA3E0B2E0B093D22857
:10419000A093D728B093DF28B093E528B093EA28FE
:1041A000B6D000CEC591D591A53039F0A43079F0C4
:1041B000A330D9F0A23059F13CC0C093D028D0939D
:1041C000D12841D0C093D428D093D328D8CFC0933E
:1041D000D528D093D628209207292092082920920A
:1041E0000E2920920F293AD0CACFC093DD28D09350
:1041F000DE28209207292092082920920E29209259
:104200000F2921D0C093E128D093E028B8CFC093E4
:10421000E328D093E42820920729209208292092AD
:104220000E2920920F290FD0C093E728D093E628BB
:10423000A6CFC093E828D093E92805D0C093EC28F6
:10424000D093EB289CCFEF93FF93EC2FFD2FEE0F35
:10425000FF1FC591D491FF91EF910895EF93FF93C4
:10426000EC2FFD2FEE0FFF1FC591D591C093D928DC
:10427000D093D828C491C093DA28FF91EF91089584
:10428000B091D428BF3F19F0B395B093D228B09124
:10429000D928BF3F19F0B395B093D728B091E12842
:1042A000BF3F19F0B395B093DF28B091E728BF3F27
:1042B00019F0B395B093E528B091EC28BF3F19F001
:1042C000B395B093EA2819D06DCDE0911928F091FB
:1042D0001A28A0911B28B0911C281496EA0FFB1FE6
:1042E000A591B491AA0FBB1FA093CA28B093CB2865
:1042F0002092CE282092CF2855CDE091CE28F09163
:10430000CF283196E093CE28F093CF280895E091FE
:10431000CE28F091CF283296E093CE28F093CF2884
:104320000895BFEFA0911529A21519F4B09315298E
:104330000895A0910329A21519F4B09303290895B3
:10434000A0911829B0911929BA95B09319291096FE
:1043500009F0B9C1E0911629F0911729A0911A2905
:10436000B0911B29EA0FFB1FB491B73508F496C032
:10437000B73608F4B1C0B33E08F4B7C009F4BAC008
:10438000B43E09F44BC1BF3F09F46DC13196A4910D
:1043900090D1B55EECE9F3E6BB0FEB0FF21DC591D2
:1043A000D491EC2FFD2F0994A093392920923A291A
:1043B000D1CF20923D292092392920923A29A093E9
:1043C0003B29C8CF20923B292092392920923A29B3
:1043D000A0933D29BFCFBECFBA2FA07FA295BF70BB
:1043E000A0933F29B093402920924129209242294D
:1043F000B1CFBA2FA07FA295BF70A0934329B093ED
:1044000044292092452920924629A4CFA0934729E8
:10441000A1CFA09325289ECFB09326289BCFB09301
:10442000272898CFB0911328B07FBA2BB0931328C8
:1044300091CFA09324288ECFA21551F0B0912428BB
:10444000AB1730F4A0934829B1E0B09318294AC1C2
:1044500081CF80CF7FCF7ECF7DCFA0934A297ACFE7
:1044600079CF78CFA21551F0B0912428AB1730F452
:10447000A0934B29B1E0B093182934C16BCFA69516
:10448000A795B0911428BF77BA2BB09313286F77F4
:104490006A2B60CF5FCF5ECF5DCF5CCFB093172824
:1044A000B0931828A3E0B2E0B0931E29A09323296B
:1044B000B0932B29B0933129B09336292092272924
:1044C0002092282920922E2920923C2920923E29B0
:1044D00020924229E4D03ECFB755A0911328A07F67
:1044E000AB2BA0931328DBD035CFB656B093182949
:1044F000D6D0E9C020921C2920921D292092212982
:10450000209222292092292920922A2920922F299B
:10451000209230292092342920923529209227296F
:104520002092282920922E293196B491E1EBF1E1D5
:10453000EB0FF21DEE0FFF1FA591B491AA0FBB1F49
:10454000EA2FFB2FB4913296A6E0AA9519F0B69502
:1045500078F0FBCFA3E0B2E0B0931E29A09323290B
:10456000B0932B29B0933129B0933629A2D0F2CE43
:10457000C591D591A53039F0A43079F0A33099F0E8
:10458000A230D9F024C0C0931C29D0931D2929D072
:10459000C0932029D0931F29D8CFC0932129D0932D
:1045A00022292AD0D2CFC0932929D0932A2919D0E1
:1045B000C0932D29D0932C29C8CFC0932F29D093F5
:1045C00030290FD0C0933329D0933229BECFC09366
:1045D0003429D093352905D0C0933829D093372971
:1045E000B4CFEF93FF93EC2FFD2FEE0FFF1FC5917C
:1045F000D491FF91EF910895EF93FF93EC2FFD2F4E
:10460000EE0FFF1FC591D591C0932529D093242982
:10461000C491C0932629FF91EF910895B09120296C
:10462000BF3F19F0B395B0931E29B0912529BF3F24
:1046300019F0B395B0932329B0912D29BF3F19F0FC
:10464000B395B0932B29B0913329BF3F19F0B3959F
:10465000B0933129B0913829BF3F19F0B395B09389
:1046600036291DD077CEE0911928F0911A28A09113
:104670001B28B0911C28A0931B28B0931C281696C9
:10468000EA0FFB1FA591B491AA0FBB1FA093162997
:10469000B093172920921A2920921B295BCEE09112
:1046A0001A29F0911B293196E0931A29F0931B29BE
:1046B0000895E0911A29F0911B293296E0931A2966
:1046C000F0931B290895BFEFA0914C29A21519F46E
:1046D000B0934C290895A0914929A21519F4B093DB
:1046E00049290895A0914F29B0915029BA95B093C6
:1046F0005029109609F0CCC0E0914D29F0914E2937
:10470000A0915129B0915229EA0FFB1FB491B735FE
:1047100008F456C0B73608F480C0B33E08F47FC032
:1047200009F482C0B43E09F481C0BF3F09F480C0DF
:104730003196A491A3D0B55EE0EDF3E6BB0FEB0F8D
:10474000F21DC591D491EC2FFD2F0994D5CFD4CF74
:10475000D3CFD2CFD1CFD0CFCFCFA0932528CCCF1E
:10476000B0932628C9CFB0932728C6CFC5CFA09332
:104770002428C2CFA21551F0B0912428AB1730F4F1
:10478000A0935729B1E0B0934F2991C0B5CFB4CFD2
:10479000B3CFB2CFB1CFB0CFAFCFAECFA21551F024
:1047A000B0912428AB1730F4A0935929B1E0B0930D
:1047B0004F297DC0A1CFA0CF9FCF9ECF9DCF9CCFB3
:1047C0003196F490EDE4F0E1EB0FF21DEE0FFF1FD8
:1047D000A591B491AA0FBB1FEA2FFB2FB49170EFE4
:1047E0008FE0B2957B238B23E0935329F0935429D8
:1047F0003092552920925629E22CE2E6F1E0FF0C96
:10480000EF0DF21DA591B491A093260AB093270A4B
:10481000A3E0A093000A32D06FCF26D06DCFB6565A
:10482000B0934F2921D034C029D066CF1DD064CF9A
:10483000E0911928F0911A28A0911B28B0911C280A
:10484000A0931B28B0931C281896EA0FFB1FA59174
:10485000B491AA0FBB1FA0934D29B0934E2920926B
:1048600051292092522948CFE0915129F0915229A3
:104870003196E0935129F09352290895E0915129FE
:10488000F09152293296E0935129F09352290895DC
:10489000BFEFA0915A29A21519F4B0935A2908958F
:1048A000A0915829A21519F4B09358290895F091B0
:1048B0002428A0912B28A21144C000C0AF2FB09192
:1048C0002A28B21509F43DC0BA95B0932A28BFEF43
:1048D000C0917728D0917828CB1709F00DC0DB174D
:1048E00009F014C0C0916528D0916628CB1709F053
:1048F00011C0DB1721F118C0B0937728AC1BA0932F
:104900007828C0932B28A2111CC012C0B09378281D
:10491000AD2F15C0B0936528AC1BA0936628C0933B
:104920002B28A2110EC004C0B0936628AD2F07C07B
:1049300020922B280E94E518F0912428BACFA0934A
:104940002B28A0917C28A21144C000C0AF2FB091A9
:104950007B28B21509F43DC0BA95B0937B28BFEF10
:10496000C091C828D091C928CB1709F00DC0DB171A
:1049700009F014C0C091B628D091B728CB1709F020
:1049800011C0DB1721F118C0B093C828AC1BA0934D
:10499000C928C0937C28A2111CC012C0B093C9289A
:1049A000AD2F15C0B093B628AC1BA093B728C09309
:1049B0007C28A2110EC004C0B093B728AD2F07C049
:1049C00020927C280E94E21BF0912428BACFA09369
:1049D0007C28A091CD28A21144C000C0AF2FB09177
:1049E000CC28B21509F43DC0BA95B093CC28BFEFDE
:1049F000C0911429D0911529CB1709F00DC0DB17F0
:104A000009F014C0C0910229D0910329CB1709F0F5
:104A100011C0DB1721F118C0B0931429AC1BA0936F
:104A20001529C093CD28A2111CC012C0B09315291E
:104A3000AD2F15C0B0930229AC1BA0930329C093DE
:104A4000CD28A2110EC004C0B0930329AD2F07C01A
:104A50002092CD280E94D21EF0912428BACFA09394
:104A6000CD28A0911929A21144C000C0AF2FB09148
:104A70001829B21509F43DC0BA95B0931829BFEFB3
:104A8000C0914B29D0914C29CB1709F00DC0DB17F1
:104A900009F014C0C0914829D0914929CB1709F0D9
:104AA00011C0DB1721F118C0B0934B29AC1BA093A8
:104AB0004C29C0931929A2111CC012C0B0934C29D3
:104AC000AD2F15C0B0934829AC1BA0934929C093C2
:104AD0001929A2110EC004C0B0934929AD2F07C0F7
:104AE000209219290E94AA21F0912428BACFA093DC
:104AF0001929A0915029A21144C000C0AF2FB09134
:104B00004F29B21509F43DC0BA95B0934F29BFEFB4
:104B1000C0915929D0915A29CB1709F00DC0DB1744
:104B200009F014C0C0915729D0915829CB1709F02A
:104B300011C0DB1721F118C0B0935929AC1BA09309
:104B40005A29C0935029A2111CC012C0B0935A29EF
:104B5000AD2F15C0B0935729AC1BA0935829C09313
:104B60005029A2110EC004C0B0935829AD2F07C020
:104B7000209250290E947C23F0912428BACFA09340
:104B80005029E0912E28F0912F283096A1F1EE0FB8
:104B9000FF1FA0913028EA0FF21DB0913228BA17FA
:104BA00029F4A0913128AB1710F003C0A395A0936E
:104BB0003028B491BF3F69F4B0913228BF3F29F447
:104BC000B0913128B0933028DCCFA250A093302888
:104BD000D8CFE4E0F4E6B295EB0FF21DB0910028D7
:104BE000BF70A0916328A03081F4EB0FF21DB49147
:104BF000B093062823C0B0910028BF70A09163280D
:104C0000A03099F4B093062819C0BA1B38F031F0DF
:104C1000EB0FF21DB491B093062810C0B1E0EB0F7A
:104C2000F21DB491B093062809C0BA1B20F019F008
:104C3000B093062803C0B1E0B0930628E091332872
:104C4000F09134283096D9F1EE0FFF1FA09135284E
:104C5000EA0FF21DB0913728BA1729F4A09136282F
:104C6000AB1710F003C0A395A0933528B491B038CA
:104C700009F041C0A150A0933528B0913828B13037
:104C800048F0B0913728BF3FD1F4B0913628BF3FEC
:104C900099F415C0B0913728BF3F21F4B091362860
:104CA000BF3F51F4C0914B28D0914C28209669F415
:104CB000A150A0933528C2CFB0933528BFCFC09163
:104CC0004B28D0914C28209699F0D695C795D7952A
:104CD000C795D795C795D795C795D795D295C093C2
:104CE0004B28D0934C28CF70A0910728AC0F2EC032
:104CF000A09107282BC02092392820923A28209290
:104D00004028A0913828A13010F069F00EC0A09181
:104D10000728AB0FB7FD04C0A735C0F0A6E516C045
:104D2000A7FDA0E013C0AB2F11C0A0910728AB0FC7
:104D3000B7FD08C0A0930728A73540F0A6E5A093CB
:104D4000072804C0A7FDA0E0A0930728E4E9F0E04D
:104D5000AA0FEA0FF21DA591B491A0938C0AB0930B
:104D60008D0AA0935728B093582800C0E0913B28A3
:104D7000F0913C28309609F423C0EE0FFF1FA0915C
:104D80003D28EA0FF21DB0913F28BA1729F4A091EF
:104D90003E28AB1710F003C0A395A0933D28B49113
:104DA000B03879F4A150A0933D28B0913F28BF3F7F
:104DB00039F4B0913E28BF3F19F0B0933D28D6CFCB
:104DC000B0E06F937F936B2F72EB67037F916F91CE
:104DD00016940794169407941694079416940794BF
:104DE00013FE07C0C0EF1C2AB77019F0B1E00B0E1C
:104DF000121CA0913928B0913A280A0E1B1E00926D
:104E0000392810923A28A0918C0AB0918D0AA00DF1
:104E1000B11DC0914F28D0915028AC1BBD0BC09143
:104E20005328D0915428AC0FBD1FC0916728D09152
:104E30006828AC0FBD1FC0916E28D0916F28AC1BA5
:104E4000BD0BC0917528D0917628AC0FBD1FC9E568
:104E5000D0E0AC17BD0730F0CAE5D9E5AC17BD0707
:104E600020F406C0C9E5D0E003C0C9E5D9E500C01B
:104E7000A0938C0AB0938D0AE0914128F0914228CA
:104E8000309609F43CC0EE0FFF1FA0914328EA0FB3
:104E9000F21DB0914528BA1729F4A0914428AB1708
:104EA00010F003C0A395A0934328B491B03889F4BF
:104EB000A150A0934328B0914528BF3F39F4B09149
:104EC0004428BF3F19F0B0934328D6CFB091402873
:104ED00005C0A0914028BA0FB09340286F937F93EC
:104EE0006B2F72EB67037F916F91A0918C0AB09149
:104EF0008D0AA00DB11DA0938C0AB0938D0AE0918C
:104F00004628F09147283096B1F1EE0FFF1FA0918F
:104F10004828EA0FF21DB0914A28BA1729F4A09147
:104F20004928AB1710F027C0A395A0934828B49147
:104F3000BF3F71F4A150A0934828B0914A28BF3FC9
:104F4000D1F4B0914928BF3FB1F0B0934828D7CFF2
:104F5000ECEFF2E6EB0FF21DB695B795B795A09181
:104F60000028CA2FA07CBA1301C005C07490CF736B
:104F7000CB2BC0930028E0914D28F0914E2830961D
:104F800051F0A0914F28B0915028AE0FBF1FA093B1
:104F90004F28B0935028E0915128F0915228309634
:104FA00051F0A0915328B0915428AE0FBF1FA09389
:104FB0005328B0935428E0915928F0915A283096FC
:104FC00009F448C0A0915528B0915628109609F4CC
:104FD00041C0C0915728D0915828AC17BD0711F097
:104FE00030F01FC0209255282092562833C0CA1B8B
:104FF000DB0BA0915B28B0915C28AE0FBF1FCA1BD2
:10500000DB0B80F3A0935B28B0935C28A0918C0A03
:10501000B0918D0AAC1BBD0BA0938C0AB0938D0A86
:1050200019C0AC1BBD0BC0915B28D0915C28CE0F82
:10503000DF1FAC1BBD0BB0F2C0935B28D0935C2884
:10504000C0918C0AD0918D0ACA0FDB1FC0938C0AC5
:10505000D0938D0AA0915D28A21509F45CC0B0918F
:105060005E28C0915F28CA0FC03408F0C0E0C0932A
:105070005F28C03128F0C03228F0C03330F007C0BC
:10508000CF7029C0C06FC09526C0CF7003C0C06F5D
:10509000C09500C0B295CB0FE2E8F1E0EC0FF21D35
:1050A000C4916F937F936C2F72EB679F7F916F9189
:1050B00016940794169407941694079416940794DC
:1050C000A0918C0AB0918D0AA00DB11DA0938C0AFD
:1050D000B0938D0A20C0B295CB0FE2E8F1E0EC0F5F
:1050E000F21DC4916F937F936C2F72EB679F7F913A
:1050F0006F91169407941694079416940794169437
:105100000794A0918C0AB0918D0AA019B109A093BF
:105110008C0AB0938D0AA0916028A215E9F0B09195
:105120006128C0916228CA0FC03408F0C0E0C09363
:105130006228C695C4FF01C002C0CF7003C0C06F13
:10514000C09500C0B295CB0FE2E8F1E0EC0FF21D84
:10515000C491C695C0936328B0916428B215E9F054
:10516000A0910528C0910028DA2FEC2FE295D07F7E
:10517000E07FED1709F0AE2FB7FD04C0AB0F28F4A8
:10518000A0EF03C0AB0F08F0A0E0A0930528A07F1C
:10519000A295C07FCA2BC0930028E0916A28F091A5
:1051A0006B28309629F1A0916E28B0916F28C0919C
:1051B0008C0AD0918D0AEC1BFD0B08F478F020923C
:1051C0006E2820926F2820926A2820926B28B09136
:1051D0006928B0930728B09370280AC0C0916C2842
:1051E000D0916D28AC0FBD1FA0936E28B0936F288F
:1051F000E0917128F0917228309629F1A0917528DC
:10520000B0917628C0918C0AD0918D0ACE1BDF0B0D
:1052100008F478F020927528209276282092712840
:1052200020927228B0917028B0930728B093692813
:105230000AC0C0917328D0917428AC0FBD1FA093F1
:105240007528B0937628E0917F28F09180283096D9
:10525000A1F1EE0FFF1FA0918128EA0FF21DB0917E
:105260008328BA1729F4A0918228AB1710F003C045
:10527000A395A0938128B491BF3F69F4B09183288E
:10528000BF3F29F4B0918228B0938128DCCFA2508F
:10529000A0938128D8CFE4E0F4E6B295EB0FF21D9D
:1052A000B0910828BF70A091B428A03081F4EB0F12
:1052B000F21DB491B0930E2823C0B0910828BF709E
:1052C000A091B428A03099F4B0930E2819C0BA1B4D
:1052D00038F031F0EB0FF21DB491B0930E2810C0EE
:1052E000B1E0EB0FF21DB491B0930E2809C0BA1BC8
:1052F00020F019F0B0930E2803C0B1E0B0930E284F
:10530000E0918428F09185283096D9F1EE0FFF1FA7
:10531000A0918628EA0FF21DB0918828BA1729F4C7
:10532000A0918728AB1710F003C0A395A0938628FF
:10533000B491B03809F041C0A150A0938628B09133
:105340008928B13048F0B0918828BF3FD1F4B0919E
:105350008728BF3F99F415C0B0918828BF3F21F43A
:10536000B0918728BF3F51F4C0919C28D0919D28CF
:10537000209669F4A150A0938628C2CFB0938628C6
:10538000BFCFC0919C28D0919D28209699F0D695AA
:10539000C795D795C795D795C795D795C795D795ED
:1053A000D295C0939C28D0939D28CF70A0910F28B0
:1053B000AC0F2EC0A0910F282BC020928A282092DB
:1053C0008B2820929128A0918928A13010F069F0B3
:1053D0000EC0A0910F28AB0FB7FD04C0A735C0F0D9
:1053E000A6E516C0A7FDA0E013C0AB2F11C0A09189
:1053F0000F28AB0FB7FD08C0A0930F28A73540F0CA
:10540000A6E5A0930F2804C0A7FDA0E0A0930F2855
:10541000E4E9F0E0AA0FEA0FF21DA591B491A09380
:105420009C0AB0939D0AA093A828B093A92800C015
:10543000E0918C28F0918D28309609F423C0EE0F6E
:10544000FF1FA0918E28EA0FF21DB0919028BA1785
:1054500029F4A0918F28AB1710F003C0A395A09357
:105460008E28B491B03879F4A150A0938E28B091D1
:105470009028BF3F39F4B0918F28BF3F19F0B09307
:105480008E28D6CFB0E06F937F936B2F72EB6703BC
:105490007F916F911694079416940794169407942D
:1054A0001694079413FE07C0C0EF1C2AB77019F0BA
:1054B000B1E00B0E121CA0918A28B0918B280A0E25
:1054C0001B1E00928A2810928B28A0919C0AB091F2
:1054D0009D0AA00DB11DC091A028D091A128AC1BA0
:1054E000BD0BC091A428D091A528AC0FBD1FC091C1
:1054F000B828D091B928AC0FBD1FC091BF28D0915A
:10550000C028AC1BBD0BC091C628D091C728AC0FDA
:10551000BD1FC9E5D0E0AC17BD0730F0CAE5D9E53D
:10552000AC17BD0720F406C0C9E5D0E003C0C9E54B
:10553000D9E500C0A0939C0AB0939D0AE0919228FF
:10554000F0919328309609F43CC0EE0FFF1FA09114
:105550009428EA0FF21DB0919628BA1729F4A09169
:105560009528AB1710F003C0A395A0939428B4918D
:10557000B03889F4A150A0939428B0919628BF3FE9
:1055800039F4B0919528BF3F19F0B0939428D6CF45
:10559000B091912805C0A0919128BA0FB09391289D
:1055A0006F937F936B2F72EB67037F916F91A09145
:1055B0009C0AB0919D0AA00DB11DA0939C0AB093C6
:1055C0009D0AE0919728F09198283096B1F1EE0F5E
:1055D000FF1FA0919928EA0FF21DB0919B28BA17DE
:1055E00029F4A0919A28AB1710F027C0A395A09397
:1055F0009928B491BF3F71F4A150A0939928B0911C
:105600009B28BF3FD1F4B0919A28BF3FB1F0B0932F
:105610009928D7CFECEFF2E6EB0FF21DB695B795D0
:10562000B795A0910828CA2FA07CBA1301C005C065
:10563000A490CF73CB2BC0930828E0919E28F091C3
:105640009F28309651F0A091A028B091A128AE0FCC
:10565000BF1FA093A028B093A128E091A228F091A9
:10566000A328309651F0A091A428B091A528AE0FA0
:10567000BF1FA093A428B093A528E091AA28F09179
:10568000AB28309609F448C0A091A628B091A7286D
:10569000109609F441C0C091A828D091A928AC1750
:1056A000BD0711F030F01FC02092A6282092A72835
:1056B00033C0CA1BDB0BA091AC28B091AD28AE0F54
:1056C000BF1FCA1BDB0B80F3A093AC28B093AD289F
:1056D000A0919C0AB0919D0AAC1BBD0BA0939C0AA3
:1056E000B0939D0A19C0AC1BBD0BC091AC28D091E2
:1056F000AD28CE0FDF1FAC1BBD0BB0F2C093AC28A2
:10570000D093AD28C0919C0AD0919D0ACA0FDB1F8F
:10571000C0939C0AD0939D0AA091AE28A21509F4CB
:105720005CC0B091AF28C091B028CA0FC03408F057
:10573000C0E0C093B028C03128F0C03228F0C03398
:1057400030F007C0CF7029C0C06FC09526C0CF70A1
:1057500003C0C06FC09500C0B295CB0FE2E8F1E086
:10576000EC0FF21DC4916F937F936C2F72EB679FC8
:105770007F916F911694079416940794169407944A
:1057800016940794A0919C0AB0919D0AA00DB11D9A
:10579000A0939C0AB0939D0A20C0B295CB0FE2E87B
:1057A000F1E0EC0FF21DC4916F937F936C2F72EBBD
:1057B000679F7F916F91169407941694079416949F
:1057C000079416940794A0919C0AB0919D0AA01981
:1057D000B109A0939C0AB0939D0AA091B128A2158B
:1057E000E9F0B091B228C091B328CA0FC03408F0D4
:1057F000C0E0C093B328C695C4FF01C002C0CF70FB
:1058000003C0C06FC09500C0B295CB0FE2E8F1E0D5
:10581000EC0FF21DC491C695C093B428B091B52881
:10582000B215E9F0A0910D28C0910828DA2FEC2FCD
:10583000E295D07FE07FED1709F0AE2FB7FD04C0F1
:10584000AB0F28F4A0EF03C0AB0F08F0A0E0A093CB
:105850000D28A07FA295C07FCA2BC0930828E09195
:10586000BB28F091BC28309629F1A091BF28B091B7
:10587000C028C0919C0AD0919D0AEC1BFD0B08F436
:1058800078F02092BF282092C0282092BB28209236
:10589000BC28B091BA28B0930F28B093C1280AC091
:1058A000C091BD28D091BE28AC0FBD1FA093BF28CA
:1058B000B093C028E091C228F091C328309629F116
:1058C000A091C628B091C728C0919C0AD0919D0A8A
:1058D000CE1BDF0B08F478F02092C6282092C72850
:1058E0002092C2282092C328B091C128B0930F28DB
:1058F000B093BA280AC0C091C428D091C528AC0F73
:10590000BD1FA093C628B093C728E091D028F0917E
:10591000D128309699F1EE0FFF1FA091D228EA0FFF
:10592000F21DB091D428BA1729F4A091D328AB174F
:1059300010F003C0A395A093D228B491BF3F69F49F
:10594000B091D428BF3F29F4B091D328B093D22886
:10595000DCCFA250A093D228D8CFB21541F0B0919D
:10596000A50AB13059F4B1E0B093A50A07C020925E
:10597000A50A2092AC0A2092AD0A00C0E091D52879
:10598000F091D6283096D9F1EE0FFF1FA091D728BD
:10599000EA0FF21DB091D928BA1729F4A091D8289E
:1059A000AB1710F003C0A395A093D728B491B038DB
:1059B00009F041C0A150A093D728B091DA28B130A6
:1059C00048F0B091D928BF3FD1F4B091D828BF3F5B
:1059D00099F415C0B091D928BF3F21F4B091D828CF
:1059E000BF3F51F4C091ED28D091EE28209669F484
:1059F000A150A093D728C2CFB093D728BFCFC091D2
:105A0000ED28D091EE28209699F0D695C795D79598
:105A1000C795D795C795D795C795D795D295C09374
:105A2000ED28D093EE28CF70A0911228AC0F2EC095
:105A3000A09112282BC02092DB282092DC282092F3
:105A4000E228A091DA28A13010F069F00EC0A091F0
:105A50001228AB0FB7FD04C0A735C0F0A6E516C0ED
:105A6000A7FDA0E013C0AB2F11C0A0911228AB0F6F
:105A7000B7FD08C0A0931228A73540F0A6E5A09373
:105A8000122804C0A7FDA0E0A0931228E4E9F0E0EA
:105A9000AA0FEA0FF21DA591B491A093AC0AB0939E
:105AA000AD0AA093F928B093FA2800C0E091DD2850
:105AB000F091DE28309609F423C0EE0FFF1FA0916D
:105AC000DF28EA0FF21DB091E128BA1729F4A0915E
:105AD000E028AB1710F003C0A395A093DF28B49182
:105AE000B03879F4A150A093DF28B091E128BF3FEE
:105AF00039F4B091E028BF3F19F0B093DF28D6CF3A
:105B0000B0E06F937F936B2F72EB67037F916F9180
:105B10001694079416940794169407941694079471
:105B200013FE07C0C0EF1C2AB77019F0B1E00B0ECE
:105B3000121CA091DB28B091DC280A0E1B1E0092DB
